{
	"admin.sol": {
		"Admin": {
			"abi": [
				{
					"inputs": [],
					"stateMutability": "nonpayable",
					"type": "constructor"
				},
				{
					"anonymous": false,
					"inputs": [
						{
							"indexed": false,
							"internalType": "uint256",
							"name": "number",
							"type": "uint256"
						},
						{
							"indexed": false,
							"internalType": "address",
							"name": "data",
							"type": "address"
						}
					],
					"name": "logAddress",
					"type": "event"
				},
				{
					"anonymous": false,
					"inputs": [
						{
							"indexed": false,
							"internalType": "uint256",
							"name": "number",
							"type": "uint256"
						},
						{
							"indexed": false,
							"internalType": "string",
							"name": "data",
							"type": "string"
						}
					],
					"name": "logAdmin",
					"type": "event"
				},
				{
					"inputs": [
						{
							"internalType": "address",
							"name": "newAdmin",
							"type": "address"
						}
					],
					"name": "acceptAdminRequest",
					"outputs": [
						{
							"internalType": "address",
							"name": "newAdminAddress",
							"type": "address"
						}
					],
					"stateMutability": "nonpayable",
					"type": "function"
				},
				{
					"inputs": [
						{
							"internalType": "address",
							"name": "",
							"type": "address"
						}
					],
					"name": "adminAddresses",
					"outputs": [
						{
							"internalType": "string",
							"name": "fname",
							"type": "string"
						},
						{
							"internalType": "string",
							"name": "lname",
							"type": "string"
						},
						{
							"internalType": "string",
							"name": "email",
							"type": "string"
						},
						{
							"internalType": "string",
							"name": "password",
							"type": "string"
						},
						{
							"internalType": "address",
							"name": "walletAddress",
							"type": "address"
						},
						{
							"components": [
								{
									"internalType": "uint256",
									"name": "date",
									"type": "uint256"
								},
								{
									"internalType": "uint256",
									"name": "month",
									"type": "uint256"
								},
								{
									"internalType": "uint256",
									"name": "year",
									"type": "uint256"
								}
							],
							"internalType": "struct Admin.Date",
							"name": "DoB",
							"type": "tuple"
						},
						{
							"internalType": "bool",
							"name": "verified",
							"type": "bool"
						}
					],
					"stateMutability": "view",
					"type": "function"
				},
				{
					"inputs": [
						{
							"internalType": "uint256",
							"name": "",
							"type": "uint256"
						}
					],
					"name": "adminKeys",
					"outputs": [
						{
							"internalType": "address",
							"name": "",
							"type": "address"
						}
					],
					"stateMutability": "view",
					"type": "function"
				},
				{
					"inputs": [
						{
							"internalType": "uint256",
							"name": "",
							"type": "uint256"
						}
					],
					"name": "adminRequestkeys",
					"outputs": [
						{
							"internalType": "address",
							"name": "",
							"type": "address"
						}
					],
					"stateMutability": "view",
					"type": "function"
				},
				{
					"inputs": [
						{
							"internalType": "address",
							"name": "",
							"type": "address"
						}
					],
					"name": "adminRequests",
					"outputs": [
						{
							"internalType": "address",
							"name": "walletAddress",
							"type": "address"
						},
						{
							"internalType": "enum Admin.RequestStatusType",
							"name": "requestStatus",
							"type": "uint8"
						}
					],
					"stateMutability": "view",
					"type": "function"
				},
				{
					"inputs": [
						{
							"internalType": "address",
							"name": "_adminAddress",
							"type": "address"
						}
					],
					"name": "checkIfAdmin",
					"outputs": [
						{
							"internalType": "bool",
							"name": "",
							"type": "bool"
						}
					],
					"stateMutability": "view",
					"type": "function"
				},
				{
					"inputs": [
						{
							"internalType": "string",
							"name": "str1",
							"type": "string"
						},
						{
							"internalType": "string",
							"name": "str2",
							"type": "string"
						}
					],
					"name": "compareString",
					"outputs": [
						{
							"internalType": "bool",
							"name": "",
							"type": "bool"
						}
					],
					"stateMutability": "pure",
					"type": "function"
				},
				{
					"inputs": [
						{
							"internalType": "string",
							"name": "fname",
							"type": "string"
						},
						{
							"internalType": "string",
							"name": "lname",
							"type": "string"
						},
						{
							"internalType": "string",
							"name": "email",
							"type": "string"
						},
						{
							"internalType": "string",
							"name": "password",
							"type": "string"
						},
						{
							"internalType": "address",
							"name": "fromAddress",
							"type": "address"
						},
						{
							"internalType": "uint256",
							"name": "day",
							"type": "uint256"
						},
						{
							"internalType": "uint256",
							"name": "month",
							"type": "uint256"
						},
						{
							"internalType": "uint256",
							"name": "year",
							"type": "uint256"
						}
					],
					"name": "createAdminRequest",
					"outputs": [
						{
							"internalType": "bool",
							"name": "",
							"type": "bool"
						}
					],
					"stateMutability": "nonpayable",
					"type": "function"
				},
				{
					"inputs": [
						{
							"internalType": "address",
							"name": "newAdmin",
							"type": "address"
						}
					],
					"name": "declineAdminRequest",
					"outputs": [
						{
							"internalType": "address",
							"name": "rejectedAddress",
							"type": "address"
						}
					],
					"stateMutability": "nonpayable",
					"type": "function"
				},
				{
					"inputs": [],
					"name": "getAdminRequests",
					"outputs": [
						{
							"components": [
								{
									"internalType": "address",
									"name": "walletAddress",
									"type": "address"
								},
								{
									"internalType": "enum Admin.RequestStatusType",
									"name": "requestStatus",
									"type": "uint8"
								}
							],
							"internalType": "struct Admin.AdminRequest[]",
							"name": "",
							"type": "tuple[]"
						}
					],
					"stateMutability": "view",
					"type": "function"
				},
				{
					"inputs": [],
					"name": "getAdmins",
					"outputs": [
						{
							"internalType": "address[]",
							"name": "",
							"type": "address[]"
						}
					],
					"stateMutability": "view",
					"type": "function"
				},
				{
					"inputs": [],
					"name": "getMasterAdmin",
					"outputs": [
						{
							"internalType": "address",
							"name": "",
							"type": "address"
						}
					],
					"stateMutability": "view",
					"type": "function"
				},
				{
					"inputs": [],
					"name": "getTotalAdminCount",
					"outputs": [
						{
							"internalType": "uint256",
							"name": "",
							"type": "uint256"
						}
					],
					"stateMutability": "view",
					"type": "function"
				},
				{
					"inputs": [
						{
							"internalType": "string",
							"name": "email",
							"type": "string"
						},
						{
							"internalType": "string",
							"name": "password",
							"type": "string"
						},
						{
							"internalType": "address",
							"name": "walletAddress",
							"type": "address"
						}
					],
					"name": "login",
					"outputs": [
						{
							"internalType": "bool",
							"name": "",
							"type": "bool"
						}
					],
					"stateMutability": "view",
					"type": "function"
				},
				{
					"inputs": [],
					"name": "masterAdmin",
					"outputs": [
						{
							"internalType": "address",
							"name": "",
							"type": "address"
						}
					],
					"stateMutability": "view",
					"type": "function"
				}
			],
			"devdoc": {
				"kind": "dev",
				"methods": {},
				"version": 1
			},
			"evm": {
				"assembly": "    /* \"admin.sol\":200:5982  contract Admin{... */\n  mstore(0x40, 0x80)\n    /* \"admin.sol\":617:618  0 */\n  0x00\n    /* \"admin.sol\":594:618  uint totalAdminCount = 0 */\n  0x04\n  sstore\n    /* \"admin.sol\":650:651  0 */\n  0x00\n    /* \"admin.sol\":625:651  uint totalRequestCount = 0 */\n  0x05\n  sstore\n    /* \"admin.sol\":1353:1439  constructor(){... */\n  callvalue\n  dup1\n  iszero\n  tag_1\n  jumpi\n  0x00\n  dup1\n  revert\ntag_1:\n  pop\n    /* \"admin.sol\":1391:1401  msg.sender */\n  caller\n    /* \"admin.sol\":1377:1388  masterAdmin */\n  0x06\n  0x00\n    /* \"admin.sol\":1377:1401  masterAdmin = msg.sender */\n  0x0100\n  exp\n  dup2\n  sload\n  dup2\n  0xffffffffffffffffffffffffffffffffffffffff\n  mul\n  not\n  and\n  swap1\n  dup4\n  0xffffffffffffffffffffffffffffffffffffffff\n  and\n  mul\n  or\n  swap1\n  sstore\n  pop\n    /* \"admin.sol\":1430:1431  1 */\n  0x01\n    /* \"admin.sol\":1412:1427  totalAdminCount */\n  0x04\n    /* \"admin.sol\":1412:1431  totalAdminCount = 1 */\n  dup2\n  swap1\n  sstore\n  pop\n    /* \"admin.sol\":200:5982  contract Admin{... */\n  dataSize(sub_0)\n  dup1\n  dataOffset(sub_0)\n  0x00\n  codecopy\n  0x00\n  return\nstop\n\nsub_0: assembly {\n        /* \"admin.sol\":200:5982  contract Admin{... */\n      mstore(0x40, 0x80)\n      callvalue\n      dup1\n      iszero\n      tag_1\n      jumpi\n      0x00\n      dup1\n      revert\n    tag_1:\n      pop\n      jumpi(tag_2, lt(calldatasize, 0x04))\n      shr(0xe0, calldataload(0x00))\n      dup1\n      0x6a228aba\n      gt\n      tag_18\n      jumpi\n      dup1\n      0xd0e93812\n      gt\n      tag_19\n      jumpi\n      dup1\n      0xd0e93812\n      eq\n      tag_14\n      jumpi\n      dup1\n      0xd9fa9c1a\n      eq\n      tag_15\n      jumpi\n      dup1\n      0xdca2c3e4\n      eq\n      tag_16\n      jumpi\n      dup1\n      0xe5a43c7c\n      eq\n      tag_17\n      jumpi\n      jump(tag_2)\n    tag_19:\n      dup1\n      0x6a228aba\n      eq\n      tag_10\n      jumpi\n      dup1\n      0x72f305eb\n      eq\n      tag_11\n      jumpi\n      dup1\n      0x75b83187\n      eq\n      tag_12\n      jumpi\n      dup1\n      0xaff125f6\n      eq\n      tag_13\n      jumpi\n      jump(tag_2)\n    tag_18:\n      dup1\n      0x3c48aa79\n      gt\n      tag_20\n      jumpi\n      dup1\n      0x3c48aa79\n      eq\n      tag_6\n      jumpi\n      dup1\n      0x4ed38faf\n      eq\n      tag_7\n      jumpi\n      dup1\n      0x6438176c\n      eq\n      tag_8\n      jumpi\n      dup1\n      0x67e1cde0\n      eq\n      tag_9\n      jumpi\n      jump(tag_2)\n    tag_20:\n      dup1\n      0x239d6933\n      eq\n      tag_3\n      jumpi\n      dup1\n      0x2a68f64e\n      eq\n      tag_4\n      jumpi\n      dup1\n      0x31ae450b\n      eq\n      tag_5\n      jumpi\n    tag_2:\n      0x00\n      dup1\n      revert\n        /* \"admin.sol\":1447:2615  function createAdminRequest(... */\n    tag_3:\n      tag_21\n      0x04\n      dup1\n      calldatasize\n      sub\n      dup2\n      add\n      swap1\n      tag_22\n      swap2\n      swap1\n      tag_23\n      jump\t// in\n    tag_22:\n      tag_24\n      jump\t// in\n    tag_21:\n      mload(0x40)\n      tag_25\n      swap2\n      swap1\n      tag_26\n      jump\t// in\n    tag_25:\n      mload(0x40)\n      dup1\n      swap2\n      sub\n      swap1\n      return\n        /* \"admin.sol\":813:839  address public masterAdmin */\n    tag_4:\n      tag_27\n      tag_28\n      jump\t// in\n    tag_27:\n      mload(0x40)\n      tag_29\n      swap2\n      swap1\n      tag_30\n      jump\t// in\n    tag_29:\n      mload(0x40)\n      dup1\n      swap2\n      sub\n      swap1\n      return\n        /* \"admin.sol\":2735:3042  function getAdmins() public view returns (address[] memory) {... */\n    tag_5:\n      tag_31\n      tag_32\n      jump\t// in\n    tag_31:\n      mload(0x40)\n      tag_33\n      swap2\n      swap1\n      tag_34\n      jump\t// in\n    tag_33:\n      mload(0x40)\n      dup1\n      swap2\n      sub\n      swap1\n      return\n        /* \"admin.sol\":534:587  mapping(address => AdminRequest) public adminRequests */\n    tag_6:\n      tag_35\n      0x04\n      dup1\n      calldatasize\n      sub\n      dup2\n      add\n      swap1\n      tag_36\n      swap2\n      swap1\n      tag_37\n      jump\t// in\n    tag_36:\n      tag_38\n      jump\t// in\n    tag_35:\n      mload(0x40)\n      tag_39\n      swap3\n      swap2\n      swap1\n      tag_40\n      jump\t// in\n    tag_39:\n      mload(0x40)\n      dup1\n      swap2\n      sub\n      swap1\n      return\n        /* \"admin.sol\":436:487  mapping(address => AdminType) public adminAddresses */\n    tag_7:\n      tag_41\n      0x04\n      dup1\n      calldatasize\n      sub\n      dup2\n      add\n      swap1\n      tag_42\n      swap2\n      swap1\n      tag_37\n      jump\t// in\n    tag_42:\n      tag_43\n      jump\t// in\n    tag_41:\n      mload(0x40)\n      tag_44\n      swap8\n      swap7\n      swap6\n      swap5\n      swap4\n      swap3\n      swap2\n      swap1\n      tag_45\n      jump\t// in\n    tag_44:\n      mload(0x40)\n      dup1\n      swap2\n      sub\n      swap1\n      return\n        /* \"admin.sol\":2625:2725  function getTotalAdminCount() public view returns (uint256){... */\n    tag_8:\n      tag_46\n      tag_47\n      jump\t// in\n    tag_46:\n      mload(0x40)\n      tag_48\n      swap2\n      swap1\n      tag_49\n      jump\t// in\n    tag_48:\n      mload(0x40)\n      dup1\n      swap2\n      sub\n      swap1\n      return\n        /* \"admin.sol\":4262:4710  function declineAdminRequest(address newAdmin) public returns (address rejectedAddress){... */\n    tag_9:\n      tag_50\n      0x04\n      dup1\n      calldatasize\n      sub\n      dup2\n      add\n      swap1\n      tag_51\n      swap2\n      swap1\n      tag_37\n      jump\t// in\n    tag_51:\n      tag_52\n      jump\t// in\n    tag_50:\n      mload(0x40)\n      tag_53\n      swap2\n      swap1\n      tag_30\n      jump\t// in\n    tag_53:\n      mload(0x40)\n      dup1\n      swap2\n      sub\n      swap1\n      return\n        /* \"admin.sol\":5033:5126  function getMasterAdmin() public view returns (address){... */\n    tag_10:\n      tag_54\n      tag_55\n      jump\t// in\n    tag_54:\n      mload(0x40)\n      tag_56\n      swap2\n      swap1\n      tag_30\n      jump\t// in\n    tag_56:\n      mload(0x40)\n      dup1\n      swap2\n      sub\n      swap1\n      return\n        /* \"admin.sol\":494:527  address[] public adminRequestkeys */\n    tag_11:\n      tag_57\n      0x04\n      dup1\n      calldatasize\n      sub\n      dup2\n      add\n      swap1\n      tag_58\n      swap2\n      swap1\n      tag_59\n      jump\t// in\n    tag_58:\n      tag_60\n      jump\t// in\n    tag_57:\n      mload(0x40)\n      tag_61\n      swap2\n      swap1\n      tag_30\n      jump\t// in\n    tag_61:\n      mload(0x40)\n      dup1\n      swap2\n      sub\n      swap1\n      return\n        /* \"admin.sol\":5791:5977  function compareString(string memory str1, string memory str2) public pure returns (bool) {... */\n    tag_12:\n      tag_62\n      0x04\n      dup1\n      calldatasize\n      sub\n      dup2\n      add\n      swap1\n      tag_63\n      swap2\n      swap1\n      tag_64\n      jump\t// in\n    tag_63:\n      tag_65\n      jump\t// in\n    tag_62:\n      mload(0x40)\n      tag_66\n      swap2\n      swap1\n      tag_26\n      jump\t// in\n    tag_66:\n      mload(0x40)\n      dup1\n      swap2\n      sub\n      swap1\n      return\n        /* \"admin.sol\":403:429  address[] public adminKeys */\n    tag_13:\n      tag_67\n      0x04\n      dup1\n      calldatasize\n      sub\n      dup2\n      add\n      swap1\n      tag_68\n      swap2\n      swap1\n      tag_59\n      jump\t// in\n    tag_68:\n      tag_69\n      jump\t// in\n    tag_67:\n      mload(0x40)\n      tag_70\n      swap2\n      swap1\n      tag_30\n      jump\t// in\n    tag_70:\n      mload(0x40)\n      dup1\n      swap2\n      sub\n      swap1\n      return\n        /* \"admin.sol\":3224:3682  function login(string memory email,string memory password,address walletAddress) public view returns (bool){... */\n    tag_14:\n      tag_71\n      0x04\n      dup1\n      calldatasize\n      sub\n      dup2\n      add\n      swap1\n      tag_72\n      swap2\n      swap1\n      tag_73\n      jump\t// in\n    tag_72:\n      tag_74\n      jump\t// in\n    tag_71:\n      mload(0x40)\n      tag_75\n      swap2\n      swap1\n      tag_26\n      jump\t// in\n    tag_75:\n      mload(0x40)\n      dup1\n      swap2\n      sub\n      swap1\n      return\n        /* \"admin.sol\":3050:3216  function checkIfAdmin(address _adminAddress) public view returns(bool){... */\n    tag_15:\n      tag_76\n      0x04\n      dup1\n      calldatasize\n      sub\n      dup2\n      add\n      swap1\n      tag_77\n      swap2\n      swap1\n      tag_37\n      jump\t// in\n    tag_77:\n      tag_78\n      jump\t// in\n    tag_76:\n      mload(0x40)\n      tag_79\n      swap2\n      swap1\n      tag_26\n      jump\t// in\n    tag_79:\n      mload(0x40)\n      dup1\n      swap2\n      sub\n      swap1\n      return\n        /* \"admin.sol\":3690:4252  function acceptAdminRequest(address newAdmin) public returns (address newAdminAddress){... */\n    tag_16:\n      tag_80\n      0x04\n      dup1\n      calldatasize\n      sub\n      dup2\n      add\n      swap1\n      tag_81\n      swap2\n      swap1\n      tag_37\n      jump\t// in\n    tag_81:\n      tag_82\n      jump\t// in\n    tag_80:\n      mload(0x40)\n      tag_83\n      swap2\n      swap1\n      tag_30\n      jump\t// in\n    tag_83:\n      mload(0x40)\n      dup1\n      swap2\n      sub\n      swap1\n      return\n        /* \"admin.sol\":4718:5025  function getAdminRequests()public view returns (AdminRequest[] memory){... */\n    tag_17:\n      tag_84\n      tag_85\n      jump\t// in\n    tag_84:\n      mload(0x40)\n      tag_86\n      swap2\n      swap1\n      tag_87\n      jump\t// in\n    tag_86:\n      mload(0x40)\n      dup1\n      swap2\n      sub\n      swap1\n      return\n        /* \"admin.sol\":1447:2615  function createAdminRequest(... */\n    tag_24:\n        /* \"admin.sol\":1693:1697  bool */\n      0x00\n        /* \"admin.sol\":1764:1765  0 */\n      dup1\n        /* \"admin.sol\":1713:1766  adminAddresses[fromAddress].walletAddress==address(0) */\n      0xffffffffffffffffffffffffffffffffffffffff\n      and\n        /* \"admin.sol\":1713:1727  adminAddresses */\n      0x01\n        /* \"admin.sol\":1713:1740  adminAddresses[fromAddress] */\n      0x00\n        /* \"admin.sol\":1728:1739  fromAddress */\n      dup8\n        /* \"admin.sol\":1713:1740  adminAddresses[fromAddress] */\n      0xffffffffffffffffffffffffffffffffffffffff\n      and\n      0xffffffffffffffffffffffffffffffffffffffff\n      and\n      dup2\n      mstore\n      0x20\n      add\n      swap1\n      dup2\n      mstore\n      0x20\n      add\n      0x00\n      keccak256\n        /* \"admin.sol\":1713:1754  adminAddresses[fromAddress].walletAddress */\n      0x04\n      add\n      0x00\n      swap1\n      sload\n      swap1\n      0x0100\n      exp\n      swap1\n      div\n      0xffffffffffffffffffffffffffffffffffffffff\n      and\n        /* \"admin.sol\":1713:1766  adminAddresses[fromAddress].walletAddress==address(0) */\n      0xffffffffffffffffffffffffffffffffffffffff\n      and\n      sub\n        /* \"admin.sol\":1710:2440  if(adminAddresses[fromAddress].walletAddress==address(0)){... */\n      tag_89\n      jumpi\n        /* \"admin.sol\":1782:1798  Date memory date */\n      0x00\n        /* \"admin.sol\":1801:1823  Date(day, month, year) */\n      mload(0x40)\n      dup1\n      0x60\n      add\n      0x40\n      mstore\n      dup1\n        /* \"admin.sol\":1806:1809  day */\n      dup7\n        /* \"admin.sol\":1801:1823  Date(day, month, year) */\n      dup2\n      mstore\n      0x20\n      add\n        /* \"admin.sol\":1811:1816  month */\n      dup6\n        /* \"admin.sol\":1801:1823  Date(day, month, year) */\n      dup2\n      mstore\n      0x20\n      add\n        /* \"admin.sol\":1818:1822  year */\n      dup5\n        /* \"admin.sol\":1801:1823  Date(day, month, year) */\n      dup2\n      mstore\n      pop\n        /* \"admin.sol\":1782:1823  Date memory date = Date(day, month, year) */\n      swap1\n      pop\n        /* \"admin.sol\":1838:1863  AdminType memory newAdmin */\n      0x00\n        /* \"admin.sol\":1866:1880  adminAddresses */\n      0x01\n        /* \"admin.sol\":1866:1893  adminAddresses[fromAddress] */\n      0x00\n        /* \"admin.sol\":1881:1892  fromAddress */\n      dup9\n        /* \"admin.sol\":1866:1893  adminAddresses[fromAddress] */\n      0xffffffffffffffffffffffffffffffffffffffff\n      and\n      0xffffffffffffffffffffffffffffffffffffffff\n      and\n      dup2\n      mstore\n      0x20\n      add\n      swap1\n      dup2\n      mstore\n      0x20\n      add\n      0x00\n      keccak256\n        /* \"admin.sol\":1838:1893  AdminType memory newAdmin = adminAddresses[fromAddress] */\n      mload(0x40)\n      dup1\n      0xe0\n      add\n      0x40\n      mstore\n      swap1\n      dup2\n      0x00\n      dup3\n      add\n      dup1\n      sload\n      tag_90\n      swap1\n      tag_91\n      jump\t// in\n    tag_90:\n      dup1\n      0x1f\n      add\n      0x20\n      dup1\n      swap2\n      div\n      mul\n      0x20\n      add\n      mload(0x40)\n      swap1\n      dup2\n      add\n      0x40\n      mstore\n      dup1\n      swap3\n      swap2\n      swap1\n      dup2\n      dup2\n      mstore\n      0x20\n      add\n      dup3\n      dup1\n      sload\n      tag_92\n      swap1\n      tag_91\n      jump\t// in\n    tag_92:\n      dup1\n      iszero\n      tag_93\n      jumpi\n      dup1\n      0x1f\n      lt\n      tag_94\n      jumpi\n      0x0100\n      dup1\n      dup4\n      sload\n      div\n      mul\n      dup4\n      mstore\n      swap2\n      0x20\n      add\n      swap2\n      jump(tag_93)\n    tag_94:\n      dup3\n      add\n      swap2\n      swap1\n      0x00\n      mstore\n      keccak256(0x00, 0x20)\n      swap1\n    tag_95:\n      dup2\n      sload\n      dup2\n      mstore\n      swap1\n      0x01\n      add\n      swap1\n      0x20\n      add\n      dup1\n      dup4\n      gt\n      tag_95\n      jumpi\n      dup3\n      swap1\n      sub\n      0x1f\n      and\n      dup3\n      add\n      swap2\n    tag_93:\n      pop\n      pop\n      pop\n      pop\n      pop\n      dup2\n      mstore\n      0x20\n      add\n      0x01\n      dup3\n      add\n      dup1\n      sload\n      tag_96\n      swap1\n      tag_91\n      jump\t// in\n    tag_96:\n      dup1\n      0x1f\n      add\n      0x20\n      dup1\n      swap2\n      div\n      mul\n      0x20\n      add\n      mload(0x40)\n      swap1\n      dup2\n      add\n      0x40\n      mstore\n      dup1\n      swap3\n      swap2\n      swap1\n      dup2\n      dup2\n      mstore\n      0x20\n      add\n      dup3\n      dup1\n      sload\n      tag_97\n      swap1\n      tag_91\n      jump\t// in\n    tag_97:\n      dup1\n      iszero\n      tag_98\n      jumpi\n      dup1\n      0x1f\n      lt\n      tag_99\n      jumpi\n      0x0100\n      dup1\n      dup4\n      sload\n      div\n      mul\n      dup4\n      mstore\n      swap2\n      0x20\n      add\n      swap2\n      jump(tag_98)\n    tag_99:\n      dup3\n      add\n      swap2\n      swap1\n      0x00\n      mstore\n      keccak256(0x00, 0x20)\n      swap1\n    tag_100:\n      dup2\n      sload\n      dup2\n      mstore\n      swap1\n      0x01\n      add\n      swap1\n      0x20\n      add\n      dup1\n      dup4\n      gt\n      tag_100\n      jumpi\n      dup3\n      swap1\n      sub\n      0x1f\n      and\n      dup3\n      add\n      swap2\n    tag_98:\n      pop\n      pop\n      pop\n      pop\n      pop\n      dup2\n      mstore\n      0x20\n      add\n      0x02\n      dup3\n      add\n      dup1\n      sload\n      tag_101\n      swap1\n      tag_91\n      jump\t// in\n    tag_101:\n      dup1\n      0x1f\n      add\n      0x20\n      dup1\n      swap2\n      div\n      mul\n      0x20\n      add\n      mload(0x40)\n      swap1\n      dup2\n      add\n      0x40\n      mstore\n      dup1\n      swap3\n      swap2\n      swap1\n      dup2\n      dup2\n      mstore\n      0x20\n      add\n      dup3\n      dup1\n      sload\n      tag_102\n      swap1\n      tag_91\n      jump\t// in\n    tag_102:\n      dup1\n      iszero\n      tag_103\n      jumpi\n      dup1\n      0x1f\n      lt\n      tag_104\n      jumpi\n      0x0100\n      dup1\n      dup4\n      sload\n      div\n      mul\n      dup4\n      mstore\n      swap2\n      0x20\n      add\n      swap2\n      jump(tag_103)\n    tag_104:\n      dup3\n      add\n      swap2\n      swap1\n      0x00\n      mstore\n      keccak256(0x00, 0x20)\n      swap1\n    tag_105:\n      dup2\n      sload\n      dup2\n      mstore\n      swap1\n      0x01\n      add\n      swap1\n      0x20\n      add\n      dup1\n      dup4\n      gt\n      tag_105\n      jumpi\n      dup3\n      swap1\n      sub\n      0x1f\n      and\n      dup3\n      add\n      swap2\n    tag_103:\n      pop\n      pop\n      pop\n      pop\n      pop\n      dup2\n      mstore\n      0x20\n      add\n      0x03\n      dup3\n      add\n      dup1\n      sload\n      tag_106\n      swap1\n      tag_91\n      jump\t// in\n    tag_106:\n      dup1\n      0x1f\n      add\n      0x20\n      dup1\n      swap2\n      div\n      mul\n      0x20\n      add\n      mload(0x40)\n      swap1\n      dup2\n      add\n      0x40\n      mstore\n      dup1\n      swap3\n      swap2\n      swap1\n      dup2\n      dup2\n      mstore\n      0x20\n      add\n      dup3\n      dup1\n      sload\n      tag_107\n      swap1\n      tag_91\n      jump\t// in\n    tag_107:\n      dup1\n      iszero\n      tag_108\n      jumpi\n      dup1\n      0x1f\n      lt\n      tag_109\n      jumpi\n      0x0100\n      dup1\n      dup4\n      sload\n      div\n      mul\n      dup4\n      mstore\n      swap2\n      0x20\n      add\n      swap2\n      jump(tag_108)\n    tag_109:\n      dup3\n      add\n      swap2\n      swap1\n      0x00\n      mstore\n      keccak256(0x00, 0x20)\n      swap1\n    tag_110:\n      dup2\n      sload\n      dup2\n      mstore\n      swap1\n      0x01\n      add\n      swap1\n      0x20\n      add\n      dup1\n      dup4\n      gt\n      tag_110\n      jumpi\n      dup3\n      swap1\n      sub\n      0x1f\n      and\n      dup3\n      add\n      swap2\n    tag_108:\n      pop\n      pop\n      pop\n      pop\n      pop\n      dup2\n      mstore\n      0x20\n      add\n      0x04\n      dup3\n      add\n      0x00\n      swap1\n      sload\n      swap1\n      0x0100\n      exp\n      swap1\n      div\n      0xffffffffffffffffffffffffffffffffffffffff\n      and\n      0xffffffffffffffffffffffffffffffffffffffff\n      and\n      0xffffffffffffffffffffffffffffffffffffffff\n      and\n      dup2\n      mstore\n      0x20\n      add\n      0x05\n      dup3\n      add\n      mload(0x40)\n      dup1\n      0x60\n      add\n      0x40\n      mstore\n      swap1\n      dup2\n      0x00\n      dup3\n      add\n      sload\n      dup2\n      mstore\n      0x20\n      add\n      0x01\n      dup3\n      add\n      sload\n      dup2\n      mstore\n      0x20\n      add\n      0x02\n      dup3\n      add\n      sload\n      dup2\n      mstore\n      pop\n      pop\n      dup2\n      mstore\n      0x20\n      add\n      0x08\n      dup3\n      add\n      0x00\n      swap1\n      sload\n      swap1\n      0x0100\n      exp\n      swap1\n      div\n      0xff\n      and\n      iszero\n      iszero\n      iszero\n      iszero\n      dup2\n      mstore\n      pop\n      pop\n      swap1\n      pop\n        /* \"admin.sol\":1925:1930  fname */\n      dup11\n        /* \"admin.sol\":1908:1916  newAdmin */\n      dup2\n        /* \"admin.sol\":1908:1922  newAdmin.fname */\n      0x00\n      add\n        /* \"admin.sol\":1908:1930  newAdmin.fname = fname */\n      dup2\n      swap1\n      mstore\n      pop\n        /* \"admin.sol\":1962:1967  lname */\n      dup10\n        /* \"admin.sol\":1945:1953  newAdmin */\n      dup2\n        /* \"admin.sol\":1945:1959  newAdmin.lname */\n      0x20\n      add\n        /* \"admin.sol\":1945:1967  newAdmin.lname = lname */\n      dup2\n      swap1\n      mstore\n      pop\n        /* \"admin.sol\":1999:2004  email */\n      dup9\n        /* \"admin.sol\":1982:1990  newAdmin */\n      dup2\n        /* \"admin.sol\":1982:1996  newAdmin.email */\n      0x40\n      add\n        /* \"admin.sol\":1982:2004  newAdmin.email = email */\n      dup2\n      swap1\n      mstore\n      pop\n        /* \"admin.sol\":2039:2047  password */\n      dup8\n        /* \"admin.sol\":2019:2027  newAdmin */\n      dup2\n        /* \"admin.sol\":2019:2036  newAdmin.password */\n      0x60\n      add\n        /* \"admin.sol\":2019:2047  newAdmin.password = password */\n      dup2\n      swap1\n      mstore\n      pop\n        /* \"admin.sol\":2077:2081  date */\n      dup2\n        /* \"admin.sol\":2062:2070  newAdmin */\n      dup2\n        /* \"admin.sol\":2062:2074  newAdmin.DoB */\n      0xa0\n      add\n        /* \"admin.sol\":2062:2081  newAdmin.DoB = date */\n      dup2\n      swap1\n      mstore\n      pop\n        /* \"admin.sol\":2116:2121  false */\n      0x00\n        /* \"admin.sol\":2096:2104  newAdmin */\n      dup2\n        /* \"admin.sol\":2096:2113  newAdmin.verified */\n      0xc0\n      add\n        /* \"admin.sol\":2096:2121  newAdmin.verified = false */\n      swap1\n      iszero\n      iszero\n      swap1\n      dup2\n      iszero\n      iszero\n      dup2\n      mstore\n      pop\n      pop\n        /* \"admin.sol\":2166:2174  newAdmin */\n      dup1\n        /* \"admin.sol\":2136:2150  adminAddresses */\n      0x01\n        /* \"admin.sol\":2136:2163  adminAddresses[fromAddress] */\n      0x00\n        /* \"admin.sol\":2151:2162  fromAddress */\n      dup10\n        /* \"admin.sol\":2136:2163  adminAddresses[fromAddress] */\n      0xffffffffffffffffffffffffffffffffffffffff\n      and\n      0xffffffffffffffffffffffffffffffffffffffff\n      and\n      dup2\n      mstore\n      0x20\n      add\n      swap1\n      dup2\n      mstore\n      0x20\n      add\n      0x00\n      keccak256\n        /* \"admin.sol\":2136:2174  adminAddresses[fromAddress] = newAdmin */\n      0x00\n      dup3\n      add\n      mload\n      dup2\n      0x00\n      add\n      swap1\n      dup2\n      tag_111\n      swap2\n      swap1\n      tag_112\n      jump\t// in\n    tag_111:\n      pop\n      0x20\n      dup3\n      add\n      mload\n      dup2\n      0x01\n      add\n      swap1\n      dup2\n      tag_113\n      swap2\n      swap1\n      tag_112\n      jump\t// in\n    tag_113:\n      pop\n      0x40\n      dup3\n      add\n      mload\n      dup2\n      0x02\n      add\n      swap1\n      dup2\n      tag_114\n      swap2\n      swap1\n      tag_112\n      jump\t// in\n    tag_114:\n      pop\n      0x60\n      dup3\n      add\n      mload\n      dup2\n      0x03\n      add\n      swap1\n      dup2\n      tag_115\n      swap2\n      swap1\n      tag_112\n      jump\t// in\n    tag_115:\n      pop\n      0x80\n      dup3\n      add\n      mload\n      dup2\n      0x04\n      add\n      exp(0x0100, 0x00)\n      dup2\n      sload\n      dup2\n      0xffffffffffffffffffffffffffffffffffffffff\n      mul\n      not\n      and\n      swap1\n      dup4\n      0xffffffffffffffffffffffffffffffffffffffff\n      and\n      mul\n      or\n      swap1\n      sstore\n      pop\n      0xa0\n      dup3\n      add\n      mload\n      dup2\n      0x05\n      add\n      0x00\n      dup3\n      add\n      mload\n      dup2\n      0x00\n      add\n      sstore\n      0x20\n      dup3\n      add\n      mload\n      dup2\n      0x01\n      add\n      sstore\n      0x40\n      dup3\n      add\n      mload\n      dup2\n      0x02\n      add\n      sstore\n      pop\n      pop\n      0xc0\n      dup3\n      add\n      mload\n      dup2\n      0x08\n      add\n      exp(0x0100, 0x00)\n      dup2\n      sload\n      dup2\n      0xff\n      mul\n      not\n      and\n      swap1\n      dup4\n      iszero\n      iszero\n      mul\n      or\n      swap1\n      sstore\n      pop\n      swap1\n      pop\n      pop\n        /* \"admin.sol\":2301:2317  adminRequestkeys */\n      0x02\n        /* \"admin.sol\":2323:2334  fromAddress */\n      dup8\n        /* \"admin.sol\":2301:2335  adminRequestkeys.push(fromAddress) */\n      swap1\n      dup1\n      0x01\n      dup2\n      sload\n      add\n      dup1\n      dup3\n      sstore\n      dup1\n      swap2\n      pop\n      pop\n      0x01\n      swap1\n      sub\n      swap1\n      0x00\n      mstore\n      keccak256(0x00, 0x20)\n      add\n      0x00\n      swap1\n      swap2\n      swap1\n      swap2\n      swap1\n      swap2\n      0x0100\n      exp\n      dup2\n      sload\n      dup2\n      0xffffffffffffffffffffffffffffffffffffffff\n      mul\n      not\n      and\n      swap1\n      dup4\n      0xffffffffffffffffffffffffffffffffffffffff\n      and\n      mul\n      or\n      swap1\n      sstore\n      pop\n        /* \"admin.sol\":2371:2372  1 */\n      0x01\n        /* \"admin.sol\":2350:2367  totalRequestCount */\n      0x05\n      0x00\n        /* \"admin.sol\":2350:2372  totalRequestCount += 1 */\n      dup3\n      dup3\n      sload\n      tag_117\n      swap2\n      swap1\n      tag_118\n      jump\t// in\n    tag_117:\n      swap3\n      pop\n      pop\n      dup2\n      swap1\n      sstore\n      pop\n        /* \"admin.sol\":1767:2440  {... */\n      pop\n      pop\n        /* \"admin.sol\":1710:2440  if(adminAddresses[fromAddress].walletAddress==address(0)){... */\n    tag_89:\n        /* \"admin.sol\":2450:2480  AdminRequest memory newRequest */\n      0x00\n        /* \"admin.sol\":2483:2535  AdminRequest(fromAddress, RequestStatusType.pending) */\n      mload(0x40)\n      dup1\n      0x40\n      add\n      0x40\n      mstore\n      dup1\n        /* \"admin.sol\":2496:2507  fromAddress */\n      dup8\n        /* \"admin.sol\":2483:2535  AdminRequest(fromAddress, RequestStatusType.pending) */\n      0xffffffffffffffffffffffffffffffffffffffff\n      and\n      dup2\n      mstore\n      0x20\n      add\n        /* \"admin.sol\":2509:2534  RequestStatusType.pending */\n      0x00\n        /* \"admin.sol\":2483:2535  AdminRequest(fromAddress, RequestStatusType.pending) */\n      0x02\n      dup2\n      gt\n      iszero\n      tag_119\n      jumpi\n      tag_120\n      tag_121\n      jump\t// in\n    tag_120:\n    tag_119:\n      dup2\n      mstore\n      pop\n        /* \"admin.sol\":2450:2535  AdminRequest memory newRequest = AdminRequest(fromAddress, RequestStatusType.pending) */\n      swap1\n      pop\n        /* \"admin.sol\":2575:2585  newRequest */\n      dup1\n        /* \"admin.sol\":2546:2559  adminRequests */\n      0x03\n        /* \"admin.sol\":2546:2572  adminRequests[fromAddress] */\n      0x00\n        /* \"admin.sol\":2560:2571  fromAddress */\n      dup9\n        /* \"admin.sol\":2546:2572  adminRequests[fromAddress] */\n      0xffffffffffffffffffffffffffffffffffffffff\n      and\n      0xffffffffffffffffffffffffffffffffffffffff\n      and\n      dup2\n      mstore\n      0x20\n      add\n      swap1\n      dup2\n      mstore\n      0x20\n      add\n      0x00\n      keccak256\n        /* \"admin.sol\":2546:2585  adminRequests[fromAddress] = newRequest */\n      0x00\n      dup3\n      add\n      mload\n      dup2\n      0x00\n      add\n      exp(0x0100, 0x00)\n      dup2\n      sload\n      dup2\n      0xffffffffffffffffffffffffffffffffffffffff\n      mul\n      not\n      and\n      swap1\n      dup4\n      0xffffffffffffffffffffffffffffffffffffffff\n      and\n      mul\n      or\n      swap1\n      sstore\n      pop\n      0x20\n      dup3\n      add\n      mload\n      dup2\n      0x00\n      add\n      exp(0x0100, 0x14)\n      dup2\n      sload\n      dup2\n      0xff\n      mul\n      not\n      and\n      swap1\n      dup4\n      0x02\n      dup2\n      gt\n      iszero\n      tag_122\n      jumpi\n      tag_123\n      tag_121\n      jump\t// in\n    tag_123:\n    tag_122:\n      mul\n      or\n      swap1\n      sstore\n      pop\n      swap1\n      pop\n      pop\n        /* \"admin.sol\":2603:2607  true */\n      0x01\n        /* \"admin.sol\":2596:2607  return true */\n      swap2\n      pop\n      pop\n        /* \"admin.sol\":1447:2615  function createAdminRequest(... */\n      swap9\n      swap8\n      pop\n      pop\n      pop\n      pop\n      pop\n      pop\n      pop\n      pop\n      jump\t// out\n        /* \"admin.sol\":813:839  address public masterAdmin */\n    tag_28:\n      0x06\n      0x00\n      swap1\n      sload\n      swap1\n      0x0100\n      exp\n      swap1\n      div\n      0xffffffffffffffffffffffffffffffffffffffff\n      and\n      dup2\n      jump\t// out\n        /* \"admin.sol\":2735:3042  function getAdmins() public view returns (address[] memory) {... */\n    tag_32:\n        /* \"admin.sol\":2777:2793  address[] memory */\n      0x60\n        /* \"admin.sol\":2806:2829  address[] memory admins */\n      0x00\n        /* \"admin.sol\":2846:2861  totalAdminCount */\n      sload(0x04)\n        /* \"admin.sol\":2832:2862  new address[](totalAdminCount) */\n      0xffffffffffffffff\n      dup2\n      gt\n      iszero\n      tag_125\n      jumpi\n      tag_126\n      tag_127\n      jump\t// in\n    tag_126:\n    tag_125:\n      mload(0x40)\n      swap1\n      dup1\n      dup3\n      mstore\n      dup1\n      0x20\n      mul\n      0x20\n      add\n      dup3\n      add\n      0x40\n      mstore\n      dup1\n      iszero\n      tag_128\n      jumpi\n      dup2\n      0x20\n      add\n      0x20\n      dup3\n      mul\n      dup1\n      calldatasize\n      dup4\n      calldatacopy\n      dup1\n      dup3\n      add\n      swap2\n      pop\n      pop\n      swap1\n      pop\n    tag_128:\n      pop\n        /* \"admin.sol\":2806:2862  address[] memory admins = new address[](totalAdminCount) */\n      swap1\n      pop\n        /* \"admin.sol\":2873:2886  uint256 index */\n      0x00\n        /* \"admin.sol\":2906:2912  uint i */\n      dup1\n        /* \"admin.sol\":2901:3011  for (uint i=0;i<totalAdminCount;i++) {... */\n    tag_129:\n        /* \"admin.sol\":2917:2932  totalAdminCount */\n      sload(0x04)\n        /* \"admin.sol\":2915:2916  i */\n      dup2\n        /* \"admin.sol\":2915:2932  i<totalAdminCount */\n      lt\n        /* \"admin.sol\":2901:3011  for (uint i=0;i<totalAdminCount;i++) {... */\n      iszero\n      tag_130\n      jumpi\n        /* \"admin.sol\":2965:2974  adminKeys */\n      0x00\n        /* \"admin.sol\":2975:2976  i */\n      dup2\n        /* \"admin.sol\":2965:2977  adminKeys[i] */\n      dup2\n      sload\n      dup2\n      lt\n      tag_132\n      jumpi\n      tag_133\n      tag_134\n      jump\t// in\n    tag_133:\n    tag_132:\n      swap1\n      0x00\n      mstore\n      keccak256(0x00, 0x20)\n      add\n      0x00\n      swap1\n      sload\n      swap1\n      0x0100\n      exp\n      swap1\n      div\n      0xffffffffffffffffffffffffffffffffffffffff\n      and\n        /* \"admin.sol\":2953:2959  admins */\n      dup4\n        /* \"admin.sol\":2960:2961  i */\n      dup3\n        /* \"admin.sol\":2953:2962  admins[i] */\n      dup2\n      mload\n      dup2\n      lt\n      tag_136\n      jumpi\n      tag_137\n      tag_134\n      jump\t// in\n    tag_137:\n    tag_136:\n      0x20\n      mul\n      0x20\n      add\n      add\n        /* \"admin.sol\":2953:2977  admins[i] = adminKeys[i] */\n      swap1\n      0xffffffffffffffffffffffffffffffffffffffff\n      and\n      swap1\n      dup2\n      0xffffffffffffffffffffffffffffffffffffffff\n      and\n      dup2\n      mstore\n      pop\n      pop\n        /* \"admin.sol\":2992:2999  index++ */\n      dup2\n      dup1\n      tag_138\n      swap1\n      tag_139\n      jump\t// in\n    tag_138:\n      swap3\n      pop\n      pop\n        /* \"admin.sol\":2933:2936  i++ */\n      dup1\n      dup1\n      0x01\n      add\n      swap2\n      pop\n      pop\n        /* \"admin.sol\":2901:3011  for (uint i=0;i<totalAdminCount;i++) {... */\n      jump(tag_129)\n    tag_130:\n      pop\n        /* \"admin.sol\":3028:3034  admins */\n      dup2\n        /* \"admin.sol\":3021:3034  return admins */\n      swap3\n      pop\n      pop\n      pop\n        /* \"admin.sol\":2735:3042  function getAdmins() public view returns (address[] memory) {... */\n      swap1\n      jump\t// out\n        /* \"admin.sol\":534:587  mapping(address => AdminRequest) public adminRequests */\n    tag_38:\n      mstore(0x20, 0x03)\n      dup1\n      0x00\n      mstore\n      keccak256(0x00, 0x40)\n      0x00\n      swap2\n      pop\n      swap1\n      pop\n      dup1\n      0x00\n      add\n      0x00\n      swap1\n      sload\n      swap1\n      0x0100\n      exp\n      swap1\n      div\n      0xffffffffffffffffffffffffffffffffffffffff\n      and\n      swap1\n      dup1\n      0x00\n      add\n      0x14\n      swap1\n      sload\n      swap1\n      0x0100\n      exp\n      swap1\n      div\n      0xff\n      and\n      swap1\n      pop\n      dup3\n      jump\t// out\n        /* \"admin.sol\":436:487  mapping(address => AdminType) public adminAddresses */\n    tag_43:\n      mstore(0x20, 0x01)\n      dup1\n      0x00\n      mstore\n      keccak256(0x00, 0x40)\n      0x00\n      swap2\n      pop\n      swap1\n      pop\n      dup1\n      0x00\n      add\n      dup1\n      sload\n      tag_140\n      swap1\n      tag_91\n      jump\t// in\n    tag_140:\n      dup1\n      0x1f\n      add\n      0x20\n      dup1\n      swap2\n      div\n      mul\n      0x20\n      add\n      mload(0x40)\n      swap1\n      dup2\n      add\n      0x40\n      mstore\n      dup1\n      swap3\n      swap2\n      swap1\n      dup2\n      dup2\n      mstore\n      0x20\n      add\n      dup3\n      dup1\n      sload\n      tag_141\n      swap1\n      tag_91\n      jump\t// in\n    tag_141:\n      dup1\n      iszero\n      tag_142\n      jumpi\n      dup1\n      0x1f\n      lt\n      tag_143\n      jumpi\n      0x0100\n      dup1\n      dup4\n      sload\n      div\n      mul\n      dup4\n      mstore\n      swap2\n      0x20\n      add\n      swap2\n      jump(tag_142)\n    tag_143:\n      dup3\n      add\n      swap2\n      swap1\n      0x00\n      mstore\n      keccak256(0x00, 0x20)\n      swap1\n    tag_144:\n      dup2\n      sload\n      dup2\n      mstore\n      swap1\n      0x01\n      add\n      swap1\n      0x20\n      add\n      dup1\n      dup4\n      gt\n      tag_144\n      jumpi\n      dup3\n      swap1\n      sub\n      0x1f\n      and\n      dup3\n      add\n      swap2\n    tag_142:\n      pop\n      pop\n      pop\n      pop\n      pop\n      swap1\n      dup1\n      0x01\n      add\n      dup1\n      sload\n      tag_145\n      swap1\n      tag_91\n      jump\t// in\n    tag_145:\n      dup1\n      0x1f\n      add\n      0x20\n      dup1\n      swap2\n      div\n      mul\n      0x20\n      add\n      mload(0x40)\n      swap1\n      dup2\n      add\n      0x40\n      mstore\n      dup1\n      swap3\n      swap2\n      swap1\n      dup2\n      dup2\n      mstore\n      0x20\n      add\n      dup3\n      dup1\n      sload\n      tag_146\n      swap1\n      tag_91\n      jump\t// in\n    tag_146:\n      dup1\n      iszero\n      tag_147\n      jumpi\n      dup1\n      0x1f\n      lt\n      tag_148\n      jumpi\n      0x0100\n      dup1\n      dup4\n      sload\n      div\n      mul\n      dup4\n      mstore\n      swap2\n      0x20\n      add\n      swap2\n      jump(tag_147)\n    tag_148:\n      dup3\n      add\n      swap2\n      swap1\n      0x00\n      mstore\n      keccak256(0x00, 0x20)\n      swap1\n    tag_149:\n      dup2\n      sload\n      dup2\n      mstore\n      swap1\n      0x01\n      add\n      swap1\n      0x20\n      add\n      dup1\n      dup4\n      gt\n      tag_149\n      jumpi\n      dup3\n      swap1\n      sub\n      0x1f\n      and\n      dup3\n      add\n      swap2\n    tag_147:\n      pop\n      pop\n      pop\n      pop\n      pop\n      swap1\n      dup1\n      0x02\n      add\n      dup1\n      sload\n      tag_150\n      swap1\n      tag_91\n      jump\t// in\n    tag_150:\n      dup1\n      0x1f\n      add\n      0x20\n      dup1\n      swap2\n      div\n      mul\n      0x20\n      add\n      mload(0x40)\n      swap1\n      dup2\n      add\n      0x40\n      mstore\n      dup1\n      swap3\n      swap2\n      swap1\n      dup2\n      dup2\n      mstore\n      0x20\n      add\n      dup3\n      dup1\n      sload\n      tag_151\n      swap1\n      tag_91\n      jump\t// in\n    tag_151:\n      dup1\n      iszero\n      tag_152\n      jumpi\n      dup1\n      0x1f\n      lt\n      tag_153\n      jumpi\n      0x0100\n      dup1\n      dup4\n      sload\n      div\n      mul\n      dup4\n      mstore\n      swap2\n      0x20\n      add\n      swap2\n      jump(tag_152)\n    tag_153:\n      dup3\n      add\n      swap2\n      swap1\n      0x00\n      mstore\n      keccak256(0x00, 0x20)\n      swap1\n    tag_154:\n      dup2\n      sload\n      dup2\n      mstore\n      swap1\n      0x01\n      add\n      swap1\n      0x20\n      add\n      dup1\n      dup4\n      gt\n      tag_154\n      jumpi\n      dup3\n      swap1\n      sub\n      0x1f\n      and\n      dup3\n      add\n      swap2\n    tag_152:\n      pop\n      pop\n      pop\n      pop\n      pop\n      swap1\n      dup1\n      0x03\n      add\n      dup1\n      sload\n      tag_155\n      swap1\n      tag_91\n      jump\t// in\n    tag_155:\n      dup1\n      0x1f\n      add\n      0x20\n      dup1\n      swap2\n      div\n      mul\n      0x20\n      add\n      mload(0x40)\n      swap1\n      dup2\n      add\n      0x40\n      mstore\n      dup1\n      swap3\n      swap2\n      swap1\n      dup2\n      dup2\n      mstore\n      0x20\n      add\n      dup3\n      dup1\n      sload\n      tag_156\n      swap1\n      tag_91\n      jump\t// in\n    tag_156:\n      dup1\n      iszero\n      tag_157\n      jumpi\n      dup1\n      0x1f\n      lt\n      tag_158\n      jumpi\n      0x0100\n      dup1\n      dup4\n      sload\n      div\n      mul\n      dup4\n      mstore\n      swap2\n      0x20\n      add\n      swap2\n      jump(tag_157)\n    tag_158:\n      dup3\n      add\n      swap2\n      swap1\n      0x00\n      mstore\n      keccak256(0x00, 0x20)\n      swap1\n    tag_159:\n      dup2\n      sload\n      dup2\n      mstore\n      swap1\n      0x01\n      add\n      swap1\n      0x20\n      add\n      dup1\n      dup4\n      gt\n      tag_159\n      jumpi\n      dup3\n      swap1\n      sub\n      0x1f\n      and\n      dup3\n      add\n      swap2\n    tag_157:\n      pop\n      pop\n      pop\n      pop\n      pop\n      swap1\n      dup1\n      0x04\n      add\n      0x00\n      swap1\n      sload\n      swap1\n      0x0100\n      exp\n      swap1\n      div\n      0xffffffffffffffffffffffffffffffffffffffff\n      and\n      swap1\n      dup1\n      0x05\n      add\n      mload(0x40)\n      dup1\n      0x60\n      add\n      0x40\n      mstore\n      swap1\n      dup2\n      0x00\n      dup3\n      add\n      sload\n      dup2\n      mstore\n      0x20\n      add\n      0x01\n      dup3\n      add\n      sload\n      dup2\n      mstore\n      0x20\n      add\n      0x02\n      dup3\n      add\n      sload\n      dup2\n      mstore\n      pop\n      pop\n      swap1\n      dup1\n      0x08\n      add\n      0x00\n      swap1\n      sload\n      swap1\n      0x0100\n      exp\n      swap1\n      div\n      0xff\n      and\n      swap1\n      pop\n      dup8\n      jump\t// out\n        /* \"admin.sol\":2625:2725  function getTotalAdminCount() public view returns (uint256){... */\n    tag_47:\n        /* \"admin.sol\":2676:2683  uint256 */\n      0x00\n        /* \"admin.sol\":2702:2717  totalAdminCount */\n      sload(0x04)\n        /* \"admin.sol\":2695:2717  return totalAdminCount */\n      swap1\n      pop\n        /* \"admin.sol\":2625:2725  function getTotalAdminCount() public view returns (uint256){... */\n      swap1\n      jump\t// out\n        /* \"admin.sol\":4262:4710  function declineAdminRequest(address newAdmin) public returns (address rejectedAddress){... */\n    tag_52:\n        /* \"admin.sol\":4325:4348  address rejectedAddress */\n      0x00\n        /* \"admin.sol\":4380:4391  masterAdmin */\n      0x06\n      0x00\n      swap1\n      sload\n      swap1\n      0x0100\n      exp\n      swap1\n      div\n      0xffffffffffffffffffffffffffffffffffffffff\n      and\n        /* \"admin.sol\":4368:4391  msg.sender==masterAdmin */\n      0xffffffffffffffffffffffffffffffffffffffff\n      and\n        /* \"admin.sol\":4368:4378  msg.sender */\n      caller\n        /* \"admin.sol\":4368:4391  msg.sender==masterAdmin */\n      0xffffffffffffffffffffffffffffffffffffffff\n      and\n      eq\n        /* \"admin.sol\":4368:4443  msg.sender==masterAdmin || bytes(adminAddresses[msg.sender].email).length>0 */\n      dup1\n      tag_162\n      jumpi\n      pop\n        /* \"admin.sol\":4442:4443  0 */\n      0x00\n        /* \"admin.sol\":4401:4415  adminAddresses */\n      0x01\n        /* \"admin.sol\":4401:4427  adminAddresses[msg.sender] */\n      0x00\n        /* \"admin.sol\":4416:4426  msg.sender */\n      caller\n        /* \"admin.sol\":4401:4427  adminAddresses[msg.sender] */\n      0xffffffffffffffffffffffffffffffffffffffff\n      and\n      0xffffffffffffffffffffffffffffffffffffffff\n      and\n      dup2\n      mstore\n      0x20\n      add\n      swap1\n      dup2\n      mstore\n      0x20\n      add\n      0x00\n      keccak256\n        /* \"admin.sol\":4401:4433  adminAddresses[msg.sender].email */\n      0x02\n      add\n        /* \"admin.sol\":4395:4441  bytes(adminAddresses[msg.sender].email).length */\n      dup1\n      sload\n      tag_163\n      swap1\n      tag_91\n      jump\t// in\n    tag_163:\n      swap1\n      pop\n        /* \"admin.sol\":4395:4443  bytes(adminAddresses[msg.sender].email).length>0 */\n      gt\n        /* \"admin.sol\":4368:4443  msg.sender==masterAdmin || bytes(adminAddresses[msg.sender].email).length>0 */\n    tag_162:\n        /* \"admin.sol\":4360:4481  require(msg.sender==masterAdmin || bytes(adminAddresses[msg.sender].email).length>0,\"only master admin can add the user\") */\n      tag_164\n      jumpi\n      mload(0x40)\n      0x08c379a000000000000000000000000000000000000000000000000000000000\n      dup2\n      mstore\n      0x04\n      add\n      tag_165\n      swap1\n      tag_166\n      jump\t// in\n    tag_165:\n      mload(0x40)\n      dup1\n      swap2\n      sub\n      swap1\n      revert\n    tag_164:\n        /* \"admin.sol\":4543:4544  0 */\n      0x00\n        /* \"admin.sol\":4501:4515  adminAddresses */\n      0x01\n        /* \"admin.sol\":4501:4527  adminAddresses[msg.sender] */\n      0x00\n        /* \"admin.sol\":4516:4526  msg.sender */\n      caller\n        /* \"admin.sol\":4501:4527  adminAddresses[msg.sender] */\n      0xffffffffffffffffffffffffffffffffffffffff\n      and\n      0xffffffffffffffffffffffffffffffffffffffff\n      and\n      dup2\n      mstore\n      0x20\n      add\n      swap1\n      dup2\n      mstore\n      0x20\n      add\n      0x00\n      keccak256\n        /* \"admin.sol\":4501:4533  adminAddresses[msg.sender].email */\n      0x02\n      add\n        /* \"admin.sol\":4495:4541  bytes(adminAddresses[msg.sender].email).length */\n      dup1\n      sload\n      tag_167\n      swap1\n      tag_91\n      jump\t// in\n    tag_167:\n      swap1\n      pop\n        /* \"admin.sol\":4495:4544  bytes(adminAddresses[msg.sender].email).length==0 */\n      sub\n        /* \"admin.sol\":4492:4600  if(bytes(adminAddresses[msg.sender].email).length==0){... */\n      tag_168\n      jumpi\n        /* \"admin.sol\":4560:4588  revert(\"user doesn't exist\") */\n      mload(0x40)\n      0x08c379a000000000000000000000000000000000000000000000000000000000\n      dup2\n      mstore\n      0x04\n      add\n      tag_169\n      swap1\n      tag_170\n      jump\t// in\n    tag_169:\n      mload(0x40)\n      dup1\n      swap2\n      sub\n      swap1\n      revert\n        /* \"admin.sol\":4492:4600  if(bytes(adminAddresses[msg.sender].email).length==0){... */\n    tag_168:\n        /* \"admin.sol\":4650:4676  RequestStatusType.rejected */\n      0x02\n        /* \"admin.sol\":4610:4623  adminRequests */\n      0x03\n        /* \"admin.sol\":4610:4633  adminRequests[newAdmin] */\n      0x00\n        /* \"admin.sol\":4624:4632  newAdmin */\n      dup5\n        /* \"admin.sol\":4610:4633  adminRequests[newAdmin] */\n      0xffffffffffffffffffffffffffffffffffffffff\n      and\n      0xffffffffffffffffffffffffffffffffffffffff\n      and\n      dup2\n      mstore\n      0x20\n      add\n      swap1\n      dup2\n      mstore\n      0x20\n      add\n      0x00\n      keccak256\n        /* \"admin.sol\":4610:4647  adminRequests[newAdmin].requestStatus */\n      0x00\n      add\n      0x14\n        /* \"admin.sol\":4610:4676  adminRequests[newAdmin].requestStatus = RequestStatusType.rejected */\n      0x0100\n      exp\n      dup2\n      sload\n      dup2\n      0xff\n      mul\n      not\n      and\n      swap1\n      dup4\n      0x02\n      dup2\n      gt\n      iszero\n      tag_171\n      jumpi\n      tag_172\n      tag_121\n      jump\t// in\n    tag_172:\n    tag_171:\n      mul\n      or\n      swap1\n      sstore\n      pop\n        /* \"admin.sol\":4694:4702  newAdmin */\n      dup2\n        /* \"admin.sol\":4687:4702  return newAdmin */\n      swap1\n      pop\n        /* \"admin.sol\":4262:4710  function declineAdminRequest(address newAdmin) public returns (address rejectedAddress){... */\n      swap2\n      swap1\n      pop\n      jump\t// out\n        /* \"admin.sol\":5033:5126  function getMasterAdmin() public view returns (address){... */\n    tag_55:\n        /* \"admin.sol\":5080:5087  address */\n      0x00\n        /* \"admin.sol\":5107:5118  masterAdmin */\n      0x06\n      0x00\n      swap1\n      sload\n      swap1\n      0x0100\n      exp\n      swap1\n      div\n      0xffffffffffffffffffffffffffffffffffffffff\n      and\n        /* \"admin.sol\":5099:5118  return  masterAdmin */\n      swap1\n      pop\n        /* \"admin.sol\":5033:5126  function getMasterAdmin() public view returns (address){... */\n      swap1\n      jump\t// out\n        /* \"admin.sol\":494:527  address[] public adminRequestkeys */\n    tag_60:\n      0x02\n      dup2\n      dup2\n      sload\n      dup2\n      lt\n      tag_174\n      jumpi\n      0x00\n      dup1\n      revert\n    tag_174:\n      swap1\n      0x00\n      mstore\n      keccak256(0x00, 0x20)\n      add\n      0x00\n      swap2\n      pop\n      sload\n      swap1\n      0x0100\n      exp\n      swap1\n      div\n      0xffffffffffffffffffffffffffffffffffffffff\n      and\n      dup2\n      jump\t// out\n        /* \"admin.sol\":5791:5977  function compareString(string memory str1, string memory str2) public pure returns (bool) {... */\n    tag_65:\n        /* \"admin.sol\":5875:5879  bool */\n      0x00\n        /* \"admin.sol\":5963:5967  str2 */\n      dup2\n        /* \"admin.sol\":5946:5968  abi.encodePacked(str2) */\n      add(0x20, mload(0x40))\n      tag_177\n      swap2\n      swap1\n      tag_178\n      jump\t// in\n    tag_177:\n      mload(0x40)\n      0x20\n      dup2\n      dup4\n      sub\n      sub\n      dup2\n      mstore\n      swap1\n      0x40\n      mstore\n        /* \"admin.sol\":5936:5969  keccak256(abi.encodePacked(str2)) */\n      dup1\n      mload\n      swap1\n      0x20\n      add\n      keccak256\n        /* \"admin.sol\":5926:5930  str1 */\n      dup4\n        /* \"admin.sol\":5909:5931  abi.encodePacked(str1) */\n      add(0x20, mload(0x40))\n      tag_179\n      swap2\n      swap1\n      tag_178\n      jump\t// in\n    tag_179:\n      mload(0x40)\n      0x20\n      dup2\n      dup4\n      sub\n      sub\n      dup2\n      mstore\n      swap1\n      0x40\n      mstore\n        /* \"admin.sol\":5899:5932  keccak256(abi.encodePacked(str1)) */\n      dup1\n      mload\n      swap1\n      0x20\n      add\n      keccak256\n        /* \"admin.sol\":5899:5969  keccak256(abi.encodePacked(str1)) == keccak256(abi.encodePacked(str2)) */\n      eq\n        /* \"admin.sol\":5892:5969  return keccak256(abi.encodePacked(str1)) == keccak256(abi.encodePacked(str2)) */\n      swap1\n      pop\n        /* \"admin.sol\":5791:5977  function compareString(string memory str1, string memory str2) public pure returns (bool) {... */\n      swap3\n      swap2\n      pop\n      pop\n      jump\t// out\n        /* \"admin.sol\":403:429  address[] public adminKeys */\n    tag_69:\n      0x00\n      dup2\n      dup2\n      sload\n      dup2\n      lt\n      tag_180\n      jumpi\n      0x00\n      dup1\n      revert\n    tag_180:\n      swap1\n      0x00\n      mstore\n      keccak256(0x00, 0x20)\n      add\n      0x00\n      swap2\n      pop\n      sload\n      swap1\n      0x0100\n      exp\n      swap1\n      div\n      0xffffffffffffffffffffffffffffffffffffffff\n      and\n      dup2\n      jump\t// out\n        /* \"admin.sol\":3224:3682  function login(string memory email,string memory password,address walletAddress) public view returns (bool){... */\n    tag_74:\n        /* \"admin.sol\":3326:3330  bool */\n      0x00\n        /* \"admin.sol\":3345:3372  checkIfAdmin(walletAddress) */\n      tag_183\n        /* \"admin.sol\":3358:3371  walletAddress */\n      dup3\n        /* \"admin.sol\":3345:3357  checkIfAdmin */\n      tag_78\n        /* \"admin.sol\":3345:3372  checkIfAdmin(walletAddress) */\n      jump\t// in\n    tag_183:\n        /* \"admin.sol\":3342:3652  if(checkIfAdmin(walletAddress)){... */\n      iszero\n      tag_184\n      jumpi\n        /* \"admin.sol\":3413:3469  compareString(adminAddresses[walletAddress].email,email) */\n      tag_185\n        /* \"admin.sol\":3427:3441  adminAddresses */\n      0x01\n        /* \"admin.sol\":3427:3456  adminAddresses[walletAddress] */\n      0x00\n        /* \"admin.sol\":3442:3455  walletAddress */\n      dup5\n        /* \"admin.sol\":3427:3456  adminAddresses[walletAddress] */\n      0xffffffffffffffffffffffffffffffffffffffff\n      and\n      0xffffffffffffffffffffffffffffffffffffffff\n      and\n      dup2\n      mstore\n      0x20\n      add\n      swap1\n      dup2\n      mstore\n      0x20\n      add\n      0x00\n      keccak256\n        /* \"admin.sol\":3427:3462  adminAddresses[walletAddress].email */\n      0x02\n      add\n        /* \"admin.sol\":3413:3469  compareString(adminAddresses[walletAddress].email,email) */\n      dup1\n      sload\n      tag_186\n      swap1\n      tag_91\n      jump\t// in\n    tag_186:\n      dup1\n      0x1f\n      add\n      0x20\n      dup1\n      swap2\n      div\n      mul\n      0x20\n      add\n      mload(0x40)\n      swap1\n      dup2\n      add\n      0x40\n      mstore\n      dup1\n      swap3\n      swap2\n      swap1\n      dup2\n      dup2\n      mstore\n      0x20\n      add\n      dup3\n      dup1\n      sload\n      tag_187\n      swap1\n      tag_91\n      jump\t// in\n    tag_187:\n      dup1\n      iszero\n      tag_188\n      jumpi\n      dup1\n      0x1f\n      lt\n      tag_189\n      jumpi\n      0x0100\n      dup1\n      dup4\n      sload\n      div\n      mul\n      dup4\n      mstore\n      swap2\n      0x20\n      add\n      swap2\n      jump(tag_188)\n    tag_189:\n      dup3\n      add\n      swap2\n      swap1\n      0x00\n      mstore\n      keccak256(0x00, 0x20)\n      swap1\n    tag_190:\n      dup2\n      sload\n      dup2\n      mstore\n      swap1\n      0x01\n      add\n      swap1\n      0x20\n      add\n      dup1\n      dup4\n      gt\n      tag_190\n      jumpi\n      dup3\n      swap1\n      sub\n      0x1f\n      and\n      dup3\n      add\n      swap2\n    tag_188:\n      pop\n      pop\n      pop\n      pop\n      pop\n        /* \"admin.sol\":3463:3468  email */\n      dup6\n        /* \"admin.sol\":3413:3426  compareString */\n      tag_65\n        /* \"admin.sol\":3413:3469  compareString(adminAddresses[walletAddress].email,email) */\n      jump\t// in\n    tag_185:\n        /* \"admin.sol\":3412:3469  !compareString(adminAddresses[walletAddress].email,email) */\n      iszero\n        /* \"admin.sol\":3412:3553  !compareString(adminAddresses[walletAddress].email,email)... */\n      dup1\n      tag_191\n      jumpi\n      pop\n        /* \"admin.sol\":3491:3553  compareString(adminAddresses[walletAddress].password,password) */\n      tag_192\n        /* \"admin.sol\":3505:3519  adminAddresses */\n      0x01\n        /* \"admin.sol\":3505:3534  adminAddresses[walletAddress] */\n      0x00\n        /* \"admin.sol\":3520:3533  walletAddress */\n      dup5\n        /* \"admin.sol\":3505:3534  adminAddresses[walletAddress] */\n      0xffffffffffffffffffffffffffffffffffffffff\n      and\n      0xffffffffffffffffffffffffffffffffffffffff\n      and\n      dup2\n      mstore\n      0x20\n      add\n      swap1\n      dup2\n      mstore\n      0x20\n      add\n      0x00\n      keccak256\n        /* \"admin.sol\":3505:3543  adminAddresses[walletAddress].password */\n      0x03\n      add\n        /* \"admin.sol\":3491:3553  compareString(adminAddresses[walletAddress].password,password) */\n      dup1\n      sload\n      tag_193\n      swap1\n      tag_91\n      jump\t// in\n    tag_193:\n      dup1\n      0x1f\n      add\n      0x20\n      dup1\n      swap2\n      div\n      mul\n      0x20\n      add\n      mload(0x40)\n      swap1\n      dup2\n      add\n      0x40\n      mstore\n      dup1\n      swap3\n      swap2\n      swap1\n      dup2\n      dup2\n      mstore\n      0x20\n      add\n      dup3\n      dup1\n      sload\n      tag_194\n      swap1\n      tag_91\n      jump\t// in\n    tag_194:\n      dup1\n      iszero\n      tag_195\n      jumpi\n      dup1\n      0x1f\n      lt\n      tag_196\n      jumpi\n      0x0100\n      dup1\n      dup4\n      sload\n      div\n      mul\n      dup4\n      mstore\n      swap2\n      0x20\n      add\n      swap2\n      jump(tag_195)\n    tag_196:\n      dup3\n      add\n      swap2\n      swap1\n      0x00\n      mstore\n      keccak256(0x00, 0x20)\n      swap1\n    tag_197:\n      dup2\n      sload\n      dup2\n      mstore\n      swap1\n      0x01\n      add\n      swap1\n      0x20\n      add\n      dup1\n      dup4\n      gt\n      tag_197\n      jumpi\n      dup3\n      swap1\n      sub\n      0x1f\n      and\n      dup3\n      add\n      swap2\n    tag_195:\n      pop\n      pop\n      pop\n      pop\n      pop\n        /* \"admin.sol\":3544:3552  password */\n      dup5\n        /* \"admin.sol\":3491:3504  compareString */\n      tag_65\n        /* \"admin.sol\":3491:3553  compareString(adminAddresses[walletAddress].password,password) */\n      jump\t// in\n    tag_192:\n        /* \"admin.sol\":3490:3553  !compareString(adminAddresses[walletAddress].password,password) */\n      iszero\n        /* \"admin.sol\":3412:3553  !compareString(adminAddresses[walletAddress].email,email)... */\n    tag_191:\n        /* \"admin.sol\":3388:3614  if(... */\n      iszero\n      tag_198\n      jumpi\n        /* \"admin.sol\":3577:3614  revert(\"incorrect email or password\") */\n      mload(0x40)\n      0x08c379a000000000000000000000000000000000000000000000000000000000\n      dup2\n      mstore\n      0x04\n      add\n      tag_199\n      swap1\n      tag_200\n      jump\t// in\n    tag_199:\n      mload(0x40)\n      dup1\n      swap2\n      sub\n      swap1\n      revert\n        /* \"admin.sol\":3388:3614  if(... */\n    tag_198:\n        /* \"admin.sol\":3636:3640  true */\n      0x01\n        /* \"admin.sol\":3629:3640  return true */\n      swap1\n      pop\n      jump(tag_182)\n        /* \"admin.sol\":3342:3652  if(checkIfAdmin(walletAddress)){... */\n    tag_184:\n        /* \"admin.sol\":3669:3674  false */\n      0x00\n        /* \"admin.sol\":3662:3674  return false */\n      swap1\n      pop\n        /* \"admin.sol\":3224:3682  function login(string memory email,string memory password,address walletAddress) public view returns (bool){... */\n    tag_182:\n      swap4\n      swap3\n      pop\n      pop\n      pop\n      jump\t// out\n        /* \"admin.sol\":3050:3216  function checkIfAdmin(address _adminAddress) public view returns(bool){... */\n    tag_78:\n        /* \"admin.sol\":3115:3119  bool */\n      0x00\n        /* \"admin.sol\":3134:3148  adminAddresses */\n      0x01\n        /* \"admin.sol\":3134:3163  adminAddresses[_adminAddress] */\n      0x00\n        /* \"admin.sol\":3149:3162  _adminAddress */\n      dup4\n        /* \"admin.sol\":3134:3163  adminAddresses[_adminAddress] */\n      0xffffffffffffffffffffffffffffffffffffffff\n      and\n      0xffffffffffffffffffffffffffffffffffffffff\n      and\n      dup2\n      mstore\n      0x20\n      add\n      swap1\n      dup2\n      mstore\n      0x20\n      add\n      0x00\n      keccak256\n        /* \"admin.sol\":3134:3172  adminAddresses[_adminAddress].verified */\n      0x08\n      add\n      0x00\n      swap1\n      sload\n      swap1\n      0x0100\n      exp\n      swap1\n      div\n      0xff\n      and\n        /* \"admin.sol\":3131:3185  if(adminAddresses[_adminAddress].verified) return true */\n      iszero\n      tag_202\n      jumpi\n        /* \"admin.sol\":3181:3185  true */\n      0x01\n        /* \"admin.sol\":3174:3185  return true */\n      swap1\n      pop\n      jump(tag_201)\n        /* \"admin.sol\":3131:3185  if(adminAddresses[_adminAddress].verified) return true */\n    tag_202:\n        /* \"admin.sol\":3203:3208  false */\n      0x00\n        /* \"admin.sol\":3196:3208  return false */\n      swap1\n      pop\n        /* \"admin.sol\":3050:3216  function checkIfAdmin(address _adminAddress) public view returns(bool){... */\n    tag_201:\n      swap2\n      swap1\n      pop\n      jump\t// out\n        /* \"admin.sol\":3690:4252  function acceptAdminRequest(address newAdmin) public returns (address newAdminAddress){... */\n    tag_82:\n        /* \"admin.sol\":3752:3775  address newAdminAddress */\n      0x00\n        /* \"admin.sol\":3807:3818  masterAdmin */\n      0x06\n      0x00\n      swap1\n      sload\n      swap1\n      0x0100\n      exp\n      swap1\n      div\n      0xffffffffffffffffffffffffffffffffffffffff\n      and\n        /* \"admin.sol\":3795:3818  msg.sender==masterAdmin */\n      0xffffffffffffffffffffffffffffffffffffffff\n      and\n        /* \"admin.sol\":3795:3805  msg.sender */\n      caller\n        /* \"admin.sol\":3795:3818  msg.sender==masterAdmin */\n      0xffffffffffffffffffffffffffffffffffffffff\n      and\n      eq\n        /* \"admin.sol\":3795:3870  msg.sender==masterAdmin || bytes(adminAddresses[msg.sender].email).length>0 */\n      dup1\n      tag_204\n      jumpi\n      pop\n        /* \"admin.sol\":3869:3870  0 */\n      0x00\n        /* \"admin.sol\":3828:3842  adminAddresses */\n      0x01\n        /* \"admin.sol\":3828:3854  adminAddresses[msg.sender] */\n      0x00\n        /* \"admin.sol\":3843:3853  msg.sender */\n      caller\n        /* \"admin.sol\":3828:3854  adminAddresses[msg.sender] */\n      0xffffffffffffffffffffffffffffffffffffffff\n      and\n      0xffffffffffffffffffffffffffffffffffffffff\n      and\n      dup2\n      mstore\n      0x20\n      add\n      swap1\n      dup2\n      mstore\n      0x20\n      add\n      0x00\n      keccak256\n        /* \"admin.sol\":3828:3860  adminAddresses[msg.sender].email */\n      0x02\n      add\n        /* \"admin.sol\":3822:3868  bytes(adminAddresses[msg.sender].email).length */\n      dup1\n      sload\n      tag_205\n      swap1\n      tag_91\n      jump\t// in\n    tag_205:\n      swap1\n      pop\n        /* \"admin.sol\":3822:3870  bytes(adminAddresses[msg.sender].email).length>0 */\n      gt\n        /* \"admin.sol\":3795:3870  msg.sender==masterAdmin || bytes(adminAddresses[msg.sender].email).length>0 */\n    tag_204:\n        /* \"admin.sol\":3787:3908  require(msg.sender==masterAdmin || bytes(adminAddresses[msg.sender].email).length>0,\"only master admin can add the user\") */\n      tag_206\n      jumpi\n      mload(0x40)\n      0x08c379a000000000000000000000000000000000000000000000000000000000\n      dup2\n      mstore\n      0x04\n      add\n      tag_207\n      swap1\n      tag_166\n      jump\t// in\n    tag_207:\n      mload(0x40)\n      dup1\n      swap2\n      sub\n      swap1\n      revert\n    tag_206:\n        /* \"admin.sol\":3970:3971  0 */\n      0x00\n        /* \"admin.sol\":3928:3942  adminAddresses */\n      0x01\n        /* \"admin.sol\":3928:3954  adminAddresses[msg.sender] */\n      0x00\n        /* \"admin.sol\":3943:3953  msg.sender */\n      caller\n        /* \"admin.sol\":3928:3954  adminAddresses[msg.sender] */\n      0xffffffffffffffffffffffffffffffffffffffff\n      and\n      0xffffffffffffffffffffffffffffffffffffffff\n      and\n      dup2\n      mstore\n      0x20\n      add\n      swap1\n      dup2\n      mstore\n      0x20\n      add\n      0x00\n      keccak256\n        /* \"admin.sol\":3928:3960  adminAddresses[msg.sender].email */\n      0x02\n      add\n        /* \"admin.sol\":3922:3968  bytes(adminAddresses[msg.sender].email).length */\n      dup1\n      sload\n      tag_208\n      swap1\n      tag_91\n      jump\t// in\n    tag_208:\n      swap1\n      pop\n        /* \"admin.sol\":3922:3971  bytes(adminAddresses[msg.sender].email).length==0 */\n      sub\n        /* \"admin.sol\":3919:4027  if(bytes(adminAddresses[msg.sender].email).length==0){... */\n      tag_209\n      jumpi\n        /* \"admin.sol\":3987:4015  revert(\"user doesn't exist\") */\n      mload(0x40)\n      0x08c379a000000000000000000000000000000000000000000000000000000000\n      dup2\n      mstore\n      0x04\n      add\n      tag_210\n      swap1\n      tag_170\n      jump\t// in\n    tag_210:\n      mload(0x40)\n      dup1\n      swap2\n      sub\n      swap1\n      revert\n        /* \"admin.sol\":3919:4027  if(bytes(adminAddresses[msg.sender].email).length==0){... */\n    tag_209:\n        /* \"admin.sol\":4073:4077  true */\n      0x01\n        /* \"admin.sol\":4037:4051  adminAddresses */\n      dup1\n        /* \"admin.sol\":4037:4061  adminAddresses[newAdmin] */\n      0x00\n        /* \"admin.sol\":4052:4060  newAdmin */\n      dup5\n        /* \"admin.sol\":4037:4061  adminAddresses[newAdmin] */\n      0xffffffffffffffffffffffffffffffffffffffff\n      and\n      0xffffffffffffffffffffffffffffffffffffffff\n      and\n      dup2\n      mstore\n      0x20\n      add\n      swap1\n      dup2\n      mstore\n      0x20\n      add\n      0x00\n      keccak256\n        /* \"admin.sol\":4037:4070  adminAddresses[newAdmin].verified */\n      0x08\n      add\n      0x00\n        /* \"admin.sol\":4037:4077  adminAddresses[newAdmin].verified = true */\n      0x0100\n      exp\n      dup2\n      sload\n      dup2\n      0xff\n      mul\n      not\n      and\n      swap1\n      dup4\n      iszero\n      iszero\n      mul\n      or\n      swap1\n      sstore\n      pop\n        /* \"admin.sol\":4128:4154  RequestStatusType.approved */\n      0x01\n        /* \"admin.sol\":4088:4101  adminRequests */\n      0x03\n        /* \"admin.sol\":4088:4111  adminRequests[newAdmin] */\n      0x00\n        /* \"admin.sol\":4102:4110  newAdmin */\n      dup5\n        /* \"admin.sol\":4088:4111  adminRequests[newAdmin] */\n      0xffffffffffffffffffffffffffffffffffffffff\n      and\n      0xffffffffffffffffffffffffffffffffffffffff\n      and\n      dup2\n      mstore\n      0x20\n      add\n      swap1\n      dup2\n      mstore\n      0x20\n      add\n      0x00\n      keccak256\n        /* \"admin.sol\":4088:4125  adminRequests[newAdmin].requestStatus */\n      0x00\n      add\n      0x14\n        /* \"admin.sol\":4088:4154  adminRequests[newAdmin].requestStatus = RequestStatusType.approved */\n      0x0100\n      exp\n      dup2\n      sload\n      dup2\n      0xff\n      mul\n      not\n      and\n      swap1\n      dup4\n      0x02\n      dup2\n      gt\n      iszero\n      tag_211\n      jumpi\n      tag_212\n      tag_121\n      jump\t// in\n    tag_212:\n    tag_211:\n      mul\n      or\n      swap1\n      sstore\n      pop\n        /* \"admin.sol\":4165:4174  adminKeys */\n      0x00\n        /* \"admin.sol\":4180:4188  newAdmin */\n      dup3\n        /* \"admin.sol\":4165:4189  adminKeys.push(newAdmin) */\n      swap1\n      dup1\n      0x01\n      dup2\n      sload\n      add\n      dup1\n      dup3\n      sstore\n      dup1\n      swap2\n      pop\n      pop\n      0x01\n      swap1\n      sub\n      swap1\n      0x00\n      mstore\n      keccak256(0x00, 0x20)\n      add\n      0x00\n      swap1\n      swap2\n      swap1\n      swap2\n      swap1\n      swap2\n      0x0100\n      exp\n      dup2\n      sload\n      dup2\n      0xffffffffffffffffffffffffffffffffffffffff\n      mul\n      not\n      and\n      swap1\n      dup4\n      0xffffffffffffffffffffffffffffffffffffffff\n      and\n      mul\n      or\n      swap1\n      sstore\n      pop\n        /* \"admin.sol\":4217:4218  1 */\n      0x01\n        /* \"admin.sol\":4200:4215  totalAdminCount */\n      0x04\n      0x00\n        /* \"admin.sol\":4200:4218  totalAdminCount+=1 */\n      dup3\n      dup3\n      sload\n      tag_214\n      swap2\n      swap1\n      tag_118\n      jump\t// in\n    tag_214:\n      swap3\n      pop\n      pop\n      dup2\n      swap1\n      sstore\n      pop\n        /* \"admin.sol\":4236:4244  newAdmin */\n      dup2\n        /* \"admin.sol\":4229:4244  return newAdmin */\n      swap1\n      pop\n        /* \"admin.sol\":3690:4252  function acceptAdminRequest(address newAdmin) public returns (address newAdminAddress){... */\n      swap2\n      swap1\n      pop\n      jump\t// out\n        /* \"admin.sol\":4718:5025  function getAdminRequests()public view returns (AdminRequest[] memory){... */\n    tag_85:\n        /* \"admin.sol\":4766:4787  AdminRequest[] memory */\n      0x60\n        /* \"admin.sol\":4799:4829  AdminRequest[] memory requests */\n      0x00\n        /* \"admin.sol\":4851:4868  totalRequestCount */\n      sload(0x05)\n        /* \"admin.sol\":4832:4869  new AdminRequest[](totalRequestCount) */\n      0xffffffffffffffff\n      dup2\n      gt\n      iszero\n      tag_216\n      jumpi\n      tag_217\n      tag_127\n      jump\t// in\n    tag_217:\n    tag_216:\n      mload(0x40)\n      swap1\n      dup1\n      dup3\n      mstore\n      dup1\n      0x20\n      mul\n      0x20\n      add\n      dup3\n      add\n      0x40\n      mstore\n      dup1\n      iszero\n      tag_218\n      jumpi\n      dup2\n      0x20\n      add\n    tag_219:\n      tag_220\n      tag_221\n      jump\t// in\n    tag_220:\n      dup2\n      mstore\n      0x20\n      add\n      swap1\n      0x01\n      swap1\n      sub\n      swap1\n      dup2\n      tag_219\n      jumpi\n      swap1\n      pop\n    tag_218:\n      pop\n        /* \"admin.sol\":4799:4869  AdminRequest[] memory requests = new AdminRequest[](totalRequestCount) */\n      swap1\n      pop\n        /* \"admin.sol\":4884:4890  uint i */\n      0x00\n        /* \"admin.sol\":4880:4992  for(uint i=0;i<totalRequestCount;i++){... */\n    tag_222:\n        /* \"admin.sol\":4895:4912  totalRequestCount */\n      sload(0x05)\n        /* \"admin.sol\":4893:4894  i */\n      dup2\n        /* \"admin.sol\":4893:4912  i<totalRequestCount */\n      lt\n        /* \"admin.sol\":4880:4992  for(uint i=0;i<totalRequestCount;i++){... */\n      iszero\n      tag_223\n      jumpi\n        /* \"admin.sol\":4946:4959  adminRequests */\n      0x03\n        /* \"admin.sol\":4946:4980  adminRequests[adminRequestkeys[i]] */\n      0x00\n        /* \"admin.sol\":4960:4976  adminRequestkeys */\n      0x02\n        /* \"admin.sol\":4977:4978  i */\n      dup4\n        /* \"admin.sol\":4960:4979  adminRequestkeys[i] */\n      dup2\n      sload\n      dup2\n      lt\n      tag_225\n      jumpi\n      tag_226\n      tag_134\n      jump\t// in\n    tag_226:\n    tag_225:\n      swap1\n      0x00\n      mstore\n      keccak256(0x00, 0x20)\n      add\n      0x00\n      swap1\n      sload\n      swap1\n      0x0100\n      exp\n      swap1\n      div\n      0xffffffffffffffffffffffffffffffffffffffff\n      and\n        /* \"admin.sol\":4946:4980  adminRequests[adminRequestkeys[i]] */\n      0xffffffffffffffffffffffffffffffffffffffff\n      and\n      0xffffffffffffffffffffffffffffffffffffffff\n      and\n      dup2\n      mstore\n      0x20\n      add\n      swap1\n      dup2\n      mstore\n      0x20\n      add\n      0x00\n      keccak256\n        /* \"admin.sol\":4932:4980  requests[i] = adminRequests[adminRequestkeys[i]] */\n      mload(0x40)\n      dup1\n      0x40\n      add\n      0x40\n      mstore\n      swap1\n      dup2\n      0x00\n      dup3\n      add\n      0x00\n      swap1\n      sload\n      swap1\n      0x0100\n      exp\n      swap1\n      div\n      0xffffffffffffffffffffffffffffffffffffffff\n      and\n      0xffffffffffffffffffffffffffffffffffffffff\n      and\n      0xffffffffffffffffffffffffffffffffffffffff\n      and\n      dup2\n      mstore\n      0x20\n      add\n      0x00\n      dup3\n      add\n      0x14\n      swap1\n      sload\n      swap1\n      0x0100\n      exp\n      swap1\n      div\n      0xff\n      and\n      0x02\n      dup2\n      gt\n      iszero\n      tag_228\n      jumpi\n      tag_229\n      tag_121\n      jump\t// in\n    tag_229:\n    tag_228:\n      0x02\n      dup2\n      gt\n      iszero\n      tag_230\n      jumpi\n      tag_231\n      tag_121\n      jump\t// in\n    tag_231:\n    tag_230:\n      dup2\n      mstore\n      pop\n      pop\n        /* \"admin.sol\":4932:4940  requests */\n      dup3\n        /* \"admin.sol\":4941:4942  i */\n      dup3\n        /* \"admin.sol\":4932:4943  requests[i] */\n      dup2\n      mload\n      dup2\n      lt\n      tag_232\n      jumpi\n      tag_233\n      tag_134\n      jump\t// in\n    tag_233:\n    tag_232:\n      0x20\n      mul\n      0x20\n      add\n      add\n        /* \"admin.sol\":4932:4980  requests[i] = adminRequests[adminRequestkeys[i]] */\n      dup2\n      swap1\n      mstore\n      pop\n        /* \"admin.sol\":4913:4916  i++ */\n      dup1\n      dup1\n      0x01\n      add\n      swap2\n      pop\n      pop\n        /* \"admin.sol\":4880:4992  for(uint i=0;i<totalRequestCount;i++){... */\n      jump(tag_222)\n    tag_223:\n      pop\n        /* \"admin.sol\":5009:5017  requests */\n      dup1\n        /* \"admin.sol\":5002:5017  return requests */\n      swap2\n      pop\n      pop\n        /* \"admin.sol\":4718:5025  function getAdminRequests()public view returns (AdminRequest[] memory){... */\n      swap1\n      jump\t// out\n    tag_221:\n      mload(0x40)\n      dup1\n      0x40\n      add\n      0x40\n      mstore\n      dup1\n      and(0xffffffffffffffffffffffffffffffffffffffff, 0x00)\n      dup2\n      mstore\n      0x20\n      add\n      0x00\n      0x02\n      dup2\n      gt\n      iszero\n      tag_234\n      jumpi\n      tag_235\n      tag_121\n      jump\t// in\n    tag_235:\n    tag_234:\n      dup2\n      mstore\n      pop\n      swap1\n      jump\t// out\n        /* \"#utility.yul\":7:82   */\n    tag_236:\n        /* \"#utility.yul\":40:46   */\n      0x00\n        /* \"#utility.yul\":73:75   */\n      0x40\n        /* \"#utility.yul\":67:76   */\n      mload\n        /* \"#utility.yul\":57:76   */\n      swap1\n      pop\n        /* \"#utility.yul\":7:82   */\n      swap1\n      jump\t// out\n        /* \"#utility.yul\":88:205   */\n    tag_237:\n        /* \"#utility.yul\":197:198   */\n      0x00\n        /* \"#utility.yul\":194:195   */\n      dup1\n        /* \"#utility.yul\":187:199   */\n      revert\n        /* \"#utility.yul\":211:328   */\n    tag_238:\n        /* \"#utility.yul\":320:321   */\n      0x00\n        /* \"#utility.yul\":317:318   */\n      dup1\n        /* \"#utility.yul\":310:322   */\n      revert\n        /* \"#utility.yul\":334:451   */\n    tag_239:\n        /* \"#utility.yul\":443:444   */\n      0x00\n        /* \"#utility.yul\":440:441   */\n      dup1\n        /* \"#utility.yul\":433:445   */\n      revert\n        /* \"#utility.yul\":457:574   */\n    tag_240:\n        /* \"#utility.yul\":566:567   */\n      0x00\n        /* \"#utility.yul\":563:564   */\n      dup1\n        /* \"#utility.yul\":556:568   */\n      revert\n        /* \"#utility.yul\":580:682   */\n    tag_241:\n        /* \"#utility.yul\":621:627   */\n      0x00\n        /* \"#utility.yul\":672:674   */\n      0x1f\n        /* \"#utility.yul\":668:675   */\n      not\n        /* \"#utility.yul\":663:665   */\n      0x1f\n        /* \"#utility.yul\":656:661   */\n      dup4\n        /* \"#utility.yul\":652:666   */\n      add\n        /* \"#utility.yul\":648:676   */\n      and\n        /* \"#utility.yul\":638:676   */\n      swap1\n      pop\n        /* \"#utility.yul\":580:682   */\n      swap2\n      swap1\n      pop\n      jump\t// out\n        /* \"#utility.yul\":688:868   */\n    tag_127:\n        /* \"#utility.yul\":736:813   */\n      0x4e487b7100000000000000000000000000000000000000000000000000000000\n        /* \"#utility.yul\":733:734   */\n      0x00\n        /* \"#utility.yul\":726:814   */\n      mstore\n        /* \"#utility.yul\":833:837   */\n      0x41\n        /* \"#utility.yul\":830:831   */\n      0x04\n        /* \"#utility.yul\":823:838   */\n      mstore\n        /* \"#utility.yul\":857:861   */\n      0x24\n        /* \"#utility.yul\":854:855   */\n      0x00\n        /* \"#utility.yul\":847:862   */\n      revert\n        /* \"#utility.yul\":874:1155   */\n    tag_242:\n        /* \"#utility.yul\":957:984   */\n      tag_318\n        /* \"#utility.yul\":979:983   */\n      dup3\n        /* \"#utility.yul\":957:984   */\n      tag_241\n      jump\t// in\n    tag_318:\n        /* \"#utility.yul\":949:955   */\n      dup2\n        /* \"#utility.yul\":945:985   */\n      add\n        /* \"#utility.yul\":1087:1093   */\n      dup2\n        /* \"#utility.yul\":1075:1085   */\n      dup2\n        /* \"#utility.yul\":1072:1094   */\n      lt\n        /* \"#utility.yul\":1051:1069   */\n      0xffffffffffffffff\n        /* \"#utility.yul\":1039:1049   */\n      dup3\n        /* \"#utility.yul\":1036:1070   */\n      gt\n        /* \"#utility.yul\":1033:1095   */\n      or\n        /* \"#utility.yul\":1030:1118   */\n      iszero\n      tag_319\n      jumpi\n        /* \"#utility.yul\":1098:1116   */\n      tag_320\n      tag_127\n      jump\t// in\n    tag_320:\n        /* \"#utility.yul\":1030:1118   */\n    tag_319:\n        /* \"#utility.yul\":1138:1148   */\n      dup1\n        /* \"#utility.yul\":1134:1136   */\n      0x40\n        /* \"#utility.yul\":1127:1149   */\n      mstore\n        /* \"#utility.yul\":917:1155   */\n      pop\n        /* \"#utility.yul\":874:1155   */\n      pop\n      pop\n      jump\t// out\n        /* \"#utility.yul\":1161:1290   */\n    tag_243:\n        /* \"#utility.yul\":1195:1201   */\n      0x00\n        /* \"#utility.yul\":1222:1242   */\n      tag_322\n      tag_236\n      jump\t// in\n    tag_322:\n        /* \"#utility.yul\":1212:1242   */\n      swap1\n      pop\n        /* \"#utility.yul\":1251:1284   */\n      tag_323\n        /* \"#utility.yul\":1279:1283   */\n      dup3\n        /* \"#utility.yul\":1271:1277   */\n      dup3\n        /* \"#utility.yul\":1251:1284   */\n      tag_242\n      jump\t// in\n    tag_323:\n        /* \"#utility.yul\":1161:1290   */\n      swap2\n      swap1\n      pop\n      jump\t// out\n        /* \"#utility.yul\":1296:1604   */\n    tag_244:\n        /* \"#utility.yul\":1358:1362   */\n      0x00\n        /* \"#utility.yul\":1448:1466   */\n      0xffffffffffffffff\n        /* \"#utility.yul\":1440:1446   */\n      dup3\n        /* \"#utility.yul\":1437:1467   */\n      gt\n        /* \"#utility.yul\":1434:1490   */\n      iszero\n      tag_325\n      jumpi\n        /* \"#utility.yul\":1470:1488   */\n      tag_326\n      tag_127\n      jump\t// in\n    tag_326:\n        /* \"#utility.yul\":1434:1490   */\n    tag_325:\n        /* \"#utility.yul\":1508:1537   */\n      tag_327\n        /* \"#utility.yul\":1530:1536   */\n      dup3\n        /* \"#utility.yul\":1508:1537   */\n      tag_241\n      jump\t// in\n    tag_327:\n        /* \"#utility.yul\":1500:1537   */\n      swap1\n      pop\n        /* \"#utility.yul\":1592:1596   */\n      0x20\n        /* \"#utility.yul\":1586:1590   */\n      dup2\n        /* \"#utility.yul\":1582:1597   */\n      add\n        /* \"#utility.yul\":1574:1597   */\n      swap1\n      pop\n        /* \"#utility.yul\":1296:1604   */\n      swap2\n      swap1\n      pop\n      jump\t// out\n        /* \"#utility.yul\":1610:1756   */\n    tag_245:\n        /* \"#utility.yul\":1707:1713   */\n      dup3\n        /* \"#utility.yul\":1702:1705   */\n      dup2\n        /* \"#utility.yul\":1697:1700   */\n      dup4\n        /* \"#utility.yul\":1684:1714   */\n      calldatacopy\n        /* \"#utility.yul\":1748:1749   */\n      0x00\n        /* \"#utility.yul\":1739:1745   */\n      dup4\n        /* \"#utility.yul\":1734:1737   */\n      dup4\n        /* \"#utility.yul\":1730:1746   */\n      add\n        /* \"#utility.yul\":1723:1750   */\n      mstore\n        /* \"#utility.yul\":1610:1756   */\n      pop\n      pop\n      pop\n      jump\t// out\n        /* \"#utility.yul\":1762:2187   */\n    tag_246:\n        /* \"#utility.yul\":1840:1845   */\n      0x00\n        /* \"#utility.yul\":1865:1931   */\n      tag_330\n        /* \"#utility.yul\":1881:1930   */\n      tag_331\n        /* \"#utility.yul\":1923:1929   */\n      dup5\n        /* \"#utility.yul\":1881:1930   */\n      tag_244\n      jump\t// in\n    tag_331:\n        /* \"#utility.yul\":1865:1931   */\n      tag_243\n      jump\t// in\n    tag_330:\n        /* \"#utility.yul\":1856:1931   */\n      swap1\n      pop\n        /* \"#utility.yul\":1954:1960   */\n      dup3\n        /* \"#utility.yul\":1947:1952   */\n      dup2\n        /* \"#utility.yul\":1940:1961   */\n      mstore\n        /* \"#utility.yul\":1992:1996   */\n      0x20\n        /* \"#utility.yul\":1985:1990   */\n      dup2\n        /* \"#utility.yul\":1981:1997   */\n      add\n        /* \"#utility.yul\":2030:2033   */\n      dup5\n        /* \"#utility.yul\":2021:2027   */\n      dup5\n        /* \"#utility.yul\":2016:2019   */\n      dup5\n        /* \"#utility.yul\":2012:2028   */\n      add\n        /* \"#utility.yul\":2009:2034   */\n      gt\n        /* \"#utility.yul\":2006:2118   */\n      iszero\n      tag_332\n      jumpi\n        /* \"#utility.yul\":2037:2116   */\n      tag_333\n      tag_240\n      jump\t// in\n    tag_333:\n        /* \"#utility.yul\":2006:2118   */\n    tag_332:\n        /* \"#utility.yul\":2127:2181   */\n      tag_334\n        /* \"#utility.yul\":2174:2180   */\n      dup5\n        /* \"#utility.yul\":2169:2172   */\n      dup3\n        /* \"#utility.yul\":2164:2167   */\n      dup6\n        /* \"#utility.yul\":2127:2181   */\n      tag_245\n      jump\t// in\n    tag_334:\n        /* \"#utility.yul\":1846:2187   */\n      pop\n        /* \"#utility.yul\":1762:2187   */\n      swap4\n      swap3\n      pop\n      pop\n      pop\n      jump\t// out\n        /* \"#utility.yul\":2207:2547   */\n    tag_247:\n        /* \"#utility.yul\":2263:2268   */\n      0x00\n        /* \"#utility.yul\":2312:2315   */\n      dup3\n        /* \"#utility.yul\":2305:2309   */\n      0x1f\n        /* \"#utility.yul\":2297:2303   */\n      dup4\n        /* \"#utility.yul\":2293:2310   */\n      add\n        /* \"#utility.yul\":2289:2316   */\n      slt\n        /* \"#utility.yul\":2279:2401   */\n      tag_336\n      jumpi\n        /* \"#utility.yul\":2320:2399   */\n      tag_337\n      tag_239\n      jump\t// in\n    tag_337:\n        /* \"#utility.yul\":2279:2401   */\n    tag_336:\n        /* \"#utility.yul\":2437:2443   */\n      dup2\n        /* \"#utility.yul\":2424:2444   */\n      calldataload\n        /* \"#utility.yul\":2462:2541   */\n      tag_338\n        /* \"#utility.yul\":2537:2540   */\n      dup5\n        /* \"#utility.yul\":2529:2535   */\n      dup3\n        /* \"#utility.yul\":2522:2526   */\n      0x20\n        /* \"#utility.yul\":2514:2520   */\n      dup7\n        /* \"#utility.yul\":2510:2527   */\n      add\n        /* \"#utility.yul\":2462:2541   */\n      tag_246\n      jump\t// in\n    tag_338:\n        /* \"#utility.yul\":2453:2541   */\n      swap2\n      pop\n        /* \"#utility.yul\":2269:2547   */\n      pop\n        /* \"#utility.yul\":2207:2547   */\n      swap3\n      swap2\n      pop\n      pop\n      jump\t// out\n        /* \"#utility.yul\":2553:2679   */\n    tag_248:\n        /* \"#utility.yul\":2590:2597   */\n      0x00\n        /* \"#utility.yul\":2630:2672   */\n      0xffffffffffffffffffffffffffffffffffffffff\n        /* \"#utility.yul\":2623:2628   */\n      dup3\n        /* \"#utility.yul\":2619:2673   */\n      and\n        /* \"#utility.yul\":2608:2673   */\n      swap1\n      pop\n        /* \"#utility.yul\":2553:2679   */\n      swap2\n      swap1\n      pop\n      jump\t// out\n        /* \"#utility.yul\":2685:2781   */\n    tag_249:\n        /* \"#utility.yul\":2722:2729   */\n      0x00\n        /* \"#utility.yul\":2751:2775   */\n      tag_341\n        /* \"#utility.yul\":2769:2774   */\n      dup3\n        /* \"#utility.yul\":2751:2775   */\n      tag_248\n      jump\t// in\n    tag_341:\n        /* \"#utility.yul\":2740:2775   */\n      swap1\n      pop\n        /* \"#utility.yul\":2685:2781   */\n      swap2\n      swap1\n      pop\n      jump\t// out\n        /* \"#utility.yul\":2787:2909   */\n    tag_250:\n        /* \"#utility.yul\":2860:2884   */\n      tag_343\n        /* \"#utility.yul\":2878:2883   */\n      dup2\n        /* \"#utility.yul\":2860:2884   */\n      tag_249\n      jump\t// in\n    tag_343:\n        /* \"#utility.yul\":2853:2858   */\n      dup2\n        /* \"#utility.yul\":2850:2885   */\n      eq\n        /* \"#utility.yul\":2840:2903   */\n      tag_344\n      jumpi\n        /* \"#utility.yul\":2899:2900   */\n      0x00\n        /* \"#utility.yul\":2896:2897   */\n      dup1\n        /* \"#utility.yul\":2889:2901   */\n      revert\n        /* \"#utility.yul\":2840:2903   */\n    tag_344:\n        /* \"#utility.yul\":2787:2909   */\n      pop\n      jump\t// out\n        /* \"#utility.yul\":2915:3054   */\n    tag_251:\n        /* \"#utility.yul\":2961:2966   */\n      0x00\n        /* \"#utility.yul\":2999:3005   */\n      dup2\n        /* \"#utility.yul\":2986:3006   */\n      calldataload\n        /* \"#utility.yul\":2977:3006   */\n      swap1\n      pop\n        /* \"#utility.yul\":3015:3048   */\n      tag_346\n        /* \"#utility.yul\":3042:3047   */\n      dup2\n        /* \"#utility.yul\":3015:3048   */\n      tag_250\n      jump\t// in\n    tag_346:\n        /* \"#utility.yul\":2915:3054   */\n      swap3\n      swap2\n      pop\n      pop\n      jump\t// out\n        /* \"#utility.yul\":3060:3137   */\n    tag_252:\n        /* \"#utility.yul\":3097:3104   */\n      0x00\n        /* \"#utility.yul\":3126:3131   */\n      dup2\n        /* \"#utility.yul\":3115:3131   */\n      swap1\n      pop\n        /* \"#utility.yul\":3060:3137   */\n      swap2\n      swap1\n      pop\n      jump\t// out\n        /* \"#utility.yul\":3143:3265   */\n    tag_253:\n        /* \"#utility.yul\":3216:3240   */\n      tag_349\n        /* \"#utility.yul\":3234:3239   */\n      dup2\n        /* \"#utility.yul\":3216:3240   */\n      tag_252\n      jump\t// in\n    tag_349:\n        /* \"#utility.yul\":3209:3214   */\n      dup2\n        /* \"#utility.yul\":3206:3241   */\n      eq\n        /* \"#utility.yul\":3196:3259   */\n      tag_350\n      jumpi\n        /* \"#utility.yul\":3255:3256   */\n      0x00\n        /* \"#utility.yul\":3252:3253   */\n      dup1\n        /* \"#utility.yul\":3245:3257   */\n      revert\n        /* \"#utility.yul\":3196:3259   */\n    tag_350:\n        /* \"#utility.yul\":3143:3265   */\n      pop\n      jump\t// out\n        /* \"#utility.yul\":3271:3410   */\n    tag_254:\n        /* \"#utility.yul\":3317:3322   */\n      0x00\n        /* \"#utility.yul\":3355:3361   */\n      dup2\n        /* \"#utility.yul\":3342:3362   */\n      calldataload\n        /* \"#utility.yul\":3333:3362   */\n      swap1\n      pop\n        /* \"#utility.yul\":3371:3404   */\n      tag_352\n        /* \"#utility.yul\":3398:3403   */\n      dup2\n        /* \"#utility.yul\":3371:3404   */\n      tag_253\n      jump\t// in\n    tag_352:\n        /* \"#utility.yul\":3271:3410   */\n      swap3\n      swap2\n      pop\n      pop\n      jump\t// out\n        /* \"#utility.yul\":3416:5485   */\n    tag_23:\n        /* \"#utility.yul\":3578:3584   */\n      0x00\n        /* \"#utility.yul\":3586:3592   */\n      dup1\n        /* \"#utility.yul\":3594:3600   */\n      0x00\n        /* \"#utility.yul\":3602:3608   */\n      dup1\n        /* \"#utility.yul\":3610:3616   */\n      0x00\n        /* \"#utility.yul\":3618:3624   */\n      dup1\n        /* \"#utility.yul\":3626:3632   */\n      0x00\n        /* \"#utility.yul\":3634:3640   */\n      dup1\n        /* \"#utility.yul\":3683:3686   */\n      0x0100\n        /* \"#utility.yul\":3671:3680   */\n      dup10\n        /* \"#utility.yul\":3662:3669   */\n      dup12\n        /* \"#utility.yul\":3658:3681   */\n      sub\n        /* \"#utility.yul\":3654:3687   */\n      slt\n        /* \"#utility.yul\":3651:3771   */\n      iszero\n      tag_354\n      jumpi\n        /* \"#utility.yul\":3690:3769   */\n      tag_355\n      tag_237\n      jump\t// in\n    tag_355:\n        /* \"#utility.yul\":3651:3771   */\n    tag_354:\n        /* \"#utility.yul\":3838:3839   */\n      0x00\n        /* \"#utility.yul\":3827:3836   */\n      dup10\n        /* \"#utility.yul\":3823:3840   */\n      add\n        /* \"#utility.yul\":3810:3841   */\n      calldataload\n        /* \"#utility.yul\":3868:3886   */\n      0xffffffffffffffff\n        /* \"#utility.yul\":3860:3866   */\n      dup2\n        /* \"#utility.yul\":3857:3887   */\n      gt\n        /* \"#utility.yul\":3854:3971   */\n      iszero\n      tag_356\n      jumpi\n        /* \"#utility.yul\":3890:3969   */\n      tag_357\n      tag_238\n      jump\t// in\n    tag_357:\n        /* \"#utility.yul\":3854:3971   */\n    tag_356:\n        /* \"#utility.yul\":3995:4058   */\n      tag_358\n        /* \"#utility.yul\":4050:4057   */\n      dup12\n        /* \"#utility.yul\":4041:4047   */\n      dup3\n        /* \"#utility.yul\":4030:4039   */\n      dup13\n        /* \"#utility.yul\":4026:4048   */\n      add\n        /* \"#utility.yul\":3995:4058   */\n      tag_247\n      jump\t// in\n    tag_358:\n        /* \"#utility.yul\":3985:4058   */\n      swap9\n      pop\n        /* \"#utility.yul\":3781:4068   */\n      pop\n        /* \"#utility.yul\":4135:4137   */\n      0x20\n        /* \"#utility.yul\":4124:4133   */\n      dup10\n        /* \"#utility.yul\":4120:4138   */\n      add\n        /* \"#utility.yul\":4107:4139   */\n      calldataload\n        /* \"#utility.yul\":4166:4184   */\n      0xffffffffffffffff\n        /* \"#utility.yul\":4158:4164   */\n      dup2\n        /* \"#utility.yul\":4155:4185   */\n      gt\n        /* \"#utility.yul\":4152:4269   */\n      iszero\n      tag_359\n      jumpi\n        /* \"#utility.yul\":4188:4267   */\n      tag_360\n      tag_238\n      jump\t// in\n    tag_360:\n        /* \"#utility.yul\":4152:4269   */\n    tag_359:\n        /* \"#utility.yul\":4293:4356   */\n      tag_361\n        /* \"#utility.yul\":4348:4355   */\n      dup12\n        /* \"#utility.yul\":4339:4345   */\n      dup3\n        /* \"#utility.yul\":4328:4337   */\n      dup13\n        /* \"#utility.yul\":4324:4346   */\n      add\n        /* \"#utility.yul\":4293:4356   */\n      tag_247\n      jump\t// in\n    tag_361:\n        /* \"#utility.yul\":4283:4356   */\n      swap8\n      pop\n        /* \"#utility.yul\":4078:4366   */\n      pop\n        /* \"#utility.yul\":4433:4435   */\n      0x40\n        /* \"#utility.yul\":4422:4431   */\n      dup10\n        /* \"#utility.yul\":4418:4436   */\n      add\n        /* \"#utility.yul\":4405:4437   */\n      calldataload\n        /* \"#utility.yul\":4464:4482   */\n      0xffffffffffffffff\n        /* \"#utility.yul\":4456:4462   */\n      dup2\n        /* \"#utility.yul\":4453:4483   */\n      gt\n        /* \"#utility.yul\":4450:4567   */\n      iszero\n      tag_362\n      jumpi\n        /* \"#utility.yul\":4486:4565   */\n      tag_363\n      tag_238\n      jump\t// in\n    tag_363:\n        /* \"#utility.yul\":4450:4567   */\n    tag_362:\n        /* \"#utility.yul\":4591:4654   */\n      tag_364\n        /* \"#utility.yul\":4646:4653   */\n      dup12\n        /* \"#utility.yul\":4637:4643   */\n      dup3\n        /* \"#utility.yul\":4626:4635   */\n      dup13\n        /* \"#utility.yul\":4622:4644   */\n      add\n        /* \"#utility.yul\":4591:4654   */\n      tag_247\n      jump\t// in\n    tag_364:\n        /* \"#utility.yul\":4581:4654   */\n      swap7\n      pop\n        /* \"#utility.yul\":4376:4664   */\n      pop\n        /* \"#utility.yul\":4731:4733   */\n      0x60\n        /* \"#utility.yul\":4720:4729   */\n      dup10\n        /* \"#utility.yul\":4716:4734   */\n      add\n        /* \"#utility.yul\":4703:4735   */\n      calldataload\n        /* \"#utility.yul\":4762:4780   */\n      0xffffffffffffffff\n        /* \"#utility.yul\":4754:4760   */\n      dup2\n        /* \"#utility.yul\":4751:4781   */\n      gt\n        /* \"#utility.yul\":4748:4865   */\n      iszero\n      tag_365\n      jumpi\n        /* \"#utility.yul\":4784:4863   */\n      tag_366\n      tag_238\n      jump\t// in\n    tag_366:\n        /* \"#utility.yul\":4748:4865   */\n    tag_365:\n        /* \"#utility.yul\":4889:4952   */\n      tag_367\n        /* \"#utility.yul\":4944:4951   */\n      dup12\n        /* \"#utility.yul\":4935:4941   */\n      dup3\n        /* \"#utility.yul\":4924:4933   */\n      dup13\n        /* \"#utility.yul\":4920:4942   */\n      add\n        /* \"#utility.yul\":4889:4952   */\n      tag_247\n      jump\t// in\n    tag_367:\n        /* \"#utility.yul\":4879:4952   */\n      swap6\n      pop\n        /* \"#utility.yul\":4674:4962   */\n      pop\n        /* \"#utility.yul\":5001:5004   */\n      0x80\n        /* \"#utility.yul\":5028:5081   */\n      tag_368\n        /* \"#utility.yul\":5073:5080   */\n      dup12\n        /* \"#utility.yul\":5064:5070   */\n      dup3\n        /* \"#utility.yul\":5053:5062   */\n      dup13\n        /* \"#utility.yul\":5049:5071   */\n      add\n        /* \"#utility.yul\":5028:5081   */\n      tag_251\n      jump\t// in\n    tag_368:\n        /* \"#utility.yul\":5018:5081   */\n      swap5\n      pop\n        /* \"#utility.yul\":4972:5091   */\n      pop\n        /* \"#utility.yul\":5130:5133   */\n      0xa0\n        /* \"#utility.yul\":5157:5210   */\n      tag_369\n        /* \"#utility.yul\":5202:5209   */\n      dup12\n        /* \"#utility.yul\":5193:5199   */\n      dup3\n        /* \"#utility.yul\":5182:5191   */\n      dup13\n        /* \"#utility.yul\":5178:5200   */\n      add\n        /* \"#utility.yul\":5157:5210   */\n      tag_254\n      jump\t// in\n    tag_369:\n        /* \"#utility.yul\":5147:5210   */\n      swap4\n      pop\n        /* \"#utility.yul\":5101:5220   */\n      pop\n        /* \"#utility.yul\":5259:5262   */\n      0xc0\n        /* \"#utility.yul\":5286:5339   */\n      tag_370\n        /* \"#utility.yul\":5331:5338   */\n      dup12\n        /* \"#utility.yul\":5322:5328   */\n      dup3\n        /* \"#utility.yul\":5311:5320   */\n      dup13\n        /* \"#utility.yul\":5307:5329   */\n      add\n        /* \"#utility.yul\":5286:5339   */\n      tag_254\n      jump\t// in\n    tag_370:\n        /* \"#utility.yul\":5276:5339   */\n      swap3\n      pop\n        /* \"#utility.yul\":5230:5349   */\n      pop\n        /* \"#utility.yul\":5388:5391   */\n      0xe0\n        /* \"#utility.yul\":5415:5468   */\n      tag_371\n        /* \"#utility.yul\":5460:5467   */\n      dup12\n        /* \"#utility.yul\":5451:5457   */\n      dup3\n        /* \"#utility.yul\":5440:5449   */\n      dup13\n        /* \"#utility.yul\":5436:5458   */\n      add\n        /* \"#utility.yul\":5415:5468   */\n      tag_254\n      jump\t// in\n    tag_371:\n        /* \"#utility.yul\":5405:5468   */\n      swap2\n      pop\n        /* \"#utility.yul\":5359:5478   */\n      pop\n        /* \"#utility.yul\":3416:5485   */\n      swap3\n      swap6\n      swap9\n      pop\n      swap3\n      swap6\n      swap9\n      swap1\n      swap4\n      swap7\n      pop\n      jump\t// out\n        /* \"#utility.yul\":5491:5581   */\n    tag_255:\n        /* \"#utility.yul\":5525:5532   */\n      0x00\n        /* \"#utility.yul\":5568:5573   */\n      dup2\n        /* \"#utility.yul\":5561:5574   */\n      iszero\n        /* \"#utility.yul\":5554:5575   */\n      iszero\n        /* \"#utility.yul\":5543:5575   */\n      swap1\n      pop\n        /* \"#utility.yul\":5491:5581   */\n      swap2\n      swap1\n      pop\n      jump\t// out\n        /* \"#utility.yul\":5587:5696   */\n    tag_256:\n        /* \"#utility.yul\":5668:5689   */\n      tag_374\n        /* \"#utility.yul\":5683:5688   */\n      dup2\n        /* \"#utility.yul\":5668:5689   */\n      tag_255\n      jump\t// in\n    tag_374:\n        /* \"#utility.yul\":5663:5666   */\n      dup3\n        /* \"#utility.yul\":5656:5690   */\n      mstore\n        /* \"#utility.yul\":5587:5696   */\n      pop\n      pop\n      jump\t// out\n        /* \"#utility.yul\":5702:5912   */\n    tag_26:\n        /* \"#utility.yul\":5789:5793   */\n      0x00\n        /* \"#utility.yul\":5827:5829   */\n      0x20\n        /* \"#utility.yul\":5816:5825   */\n      dup3\n        /* \"#utility.yul\":5812:5830   */\n      add\n        /* \"#utility.yul\":5804:5830   */\n      swap1\n      pop\n        /* \"#utility.yul\":5840:5905   */\n      tag_376\n        /* \"#utility.yul\":5902:5903   */\n      0x00\n        /* \"#utility.yul\":5891:5900   */\n      dup4\n        /* \"#utility.yul\":5887:5904   */\n      add\n        /* \"#utility.yul\":5878:5884   */\n      dup5\n        /* \"#utility.yul\":5840:5905   */\n      tag_256\n      jump\t// in\n    tag_376:\n        /* \"#utility.yul\":5702:5912   */\n      swap3\n      swap2\n      pop\n      pop\n      jump\t// out\n        /* \"#utility.yul\":5918:6036   */\n    tag_257:\n        /* \"#utility.yul\":6005:6029   */\n      tag_378\n        /* \"#utility.yul\":6023:6028   */\n      dup2\n        /* \"#utility.yul\":6005:6029   */\n      tag_249\n      jump\t// in\n    tag_378:\n        /* \"#utility.yul\":6000:6003   */\n      dup3\n        /* \"#utility.yul\":5993:6030   */\n      mstore\n        /* \"#utility.yul\":5918:6036   */\n      pop\n      pop\n      jump\t// out\n        /* \"#utility.yul\":6042:6264   */\n    tag_30:\n        /* \"#utility.yul\":6135:6139   */\n      0x00\n        /* \"#utility.yul\":6173:6175   */\n      0x20\n        /* \"#utility.yul\":6162:6171   */\n      dup3\n        /* \"#utility.yul\":6158:6176   */\n      add\n        /* \"#utility.yul\":6150:6176   */\n      swap1\n      pop\n        /* \"#utility.yul\":6186:6257   */\n      tag_380\n        /* \"#utility.yul\":6254:6255   */\n      0x00\n        /* \"#utility.yul\":6243:6252   */\n      dup4\n        /* \"#utility.yul\":6239:6256   */\n      add\n        /* \"#utility.yul\":6230:6236   */\n      dup5\n        /* \"#utility.yul\":6186:6257   */\n      tag_257\n      jump\t// in\n    tag_380:\n        /* \"#utility.yul\":6042:6264   */\n      swap3\n      swap2\n      pop\n      pop\n      jump\t// out\n        /* \"#utility.yul\":6270:6384   */\n    tag_258:\n        /* \"#utility.yul\":6337:6343   */\n      0x00\n        /* \"#utility.yul\":6371:6376   */\n      dup2\n        /* \"#utility.yul\":6365:6377   */\n      mload\n        /* \"#utility.yul\":6355:6377   */\n      swap1\n      pop\n        /* \"#utility.yul\":6270:6384   */\n      swap2\n      swap1\n      pop\n      jump\t// out\n        /* \"#utility.yul\":6390:6574   */\n    tag_259:\n        /* \"#utility.yul\":6489:6500   */\n      0x00\n        /* \"#utility.yul\":6523:6529   */\n      dup3\n        /* \"#utility.yul\":6518:6521   */\n      dup3\n        /* \"#utility.yul\":6511:6530   */\n      mstore\n        /* \"#utility.yul\":6563:6567   */\n      0x20\n        /* \"#utility.yul\":6558:6561   */\n      dup3\n        /* \"#utility.yul\":6554:6568   */\n      add\n        /* \"#utility.yul\":6539:6568   */\n      swap1\n      pop\n        /* \"#utility.yul\":6390:6574   */\n      swap3\n      swap2\n      pop\n      pop\n      jump\t// out\n        /* \"#utility.yul\":6580:6712   */\n    tag_260:\n        /* \"#utility.yul\":6647:6651   */\n      0x00\n        /* \"#utility.yul\":6670:6673   */\n      dup2\n        /* \"#utility.yul\":6662:6673   */\n      swap1\n      pop\n        /* \"#utility.yul\":6700:6704   */\n      0x20\n        /* \"#utility.yul\":6695:6698   */\n      dup3\n        /* \"#utility.yul\":6691:6705   */\n      add\n        /* \"#utility.yul\":6683:6705   */\n      swap1\n      pop\n        /* \"#utility.yul\":6580:6712   */\n      swap2\n      swap1\n      pop\n      jump\t// out\n        /* \"#utility.yul\":6718:6826   */\n    tag_261:\n        /* \"#utility.yul\":6795:6819   */\n      tag_385\n        /* \"#utility.yul\":6813:6818   */\n      dup2\n        /* \"#utility.yul\":6795:6819   */\n      tag_249\n      jump\t// in\n    tag_385:\n        /* \"#utility.yul\":6790:6793   */\n      dup3\n        /* \"#utility.yul\":6783:6820   */\n      mstore\n        /* \"#utility.yul\":6718:6826   */\n      pop\n      pop\n      jump\t// out\n        /* \"#utility.yul\":6832:7011   */\n    tag_262:\n        /* \"#utility.yul\":6901:6911   */\n      0x00\n        /* \"#utility.yul\":6922:6968   */\n      tag_387\n        /* \"#utility.yul\":6964:6967   */\n      dup4\n        /* \"#utility.yul\":6956:6962   */\n      dup4\n        /* \"#utility.yul\":6922:6968   */\n      tag_261\n      jump\t// in\n    tag_387:\n        /* \"#utility.yul\":7000:7004   */\n      0x20\n        /* \"#utility.yul\":6995:6998   */\n      dup4\n        /* \"#utility.yul\":6991:7005   */\n      add\n        /* \"#utility.yul\":6977:7005   */\n      swap1\n      pop\n        /* \"#utility.yul\":6832:7011   */\n      swap3\n      swap2\n      pop\n      pop\n      jump\t// out\n        /* \"#utility.yul\":7017:7130   */\n    tag_263:\n        /* \"#utility.yul\":7087:7091   */\n      0x00\n        /* \"#utility.yul\":7119:7123   */\n      0x20\n        /* \"#utility.yul\":7114:7117   */\n      dup3\n        /* \"#utility.yul\":7110:7124   */\n      add\n        /* \"#utility.yul\":7102:7124   */\n      swap1\n      pop\n        /* \"#utility.yul\":7017:7130   */\n      swap2\n      swap1\n      pop\n      jump\t// out\n        /* \"#utility.yul\":7166:7898   */\n    tag_264:\n        /* \"#utility.yul\":7285:7288   */\n      0x00\n        /* \"#utility.yul\":7314:7368   */\n      tag_390\n        /* \"#utility.yul\":7362:7367   */\n      dup3\n        /* \"#utility.yul\":7314:7368   */\n      tag_258\n      jump\t// in\n    tag_390:\n        /* \"#utility.yul\":7384:7470   */\n      tag_391\n        /* \"#utility.yul\":7463:7469   */\n      dup2\n        /* \"#utility.yul\":7458:7461   */\n      dup6\n        /* \"#utility.yul\":7384:7470   */\n      tag_259\n      jump\t// in\n    tag_391:\n        /* \"#utility.yul\":7377:7470   */\n      swap4\n      pop\n        /* \"#utility.yul\":7494:7550   */\n      tag_392\n        /* \"#utility.yul\":7544:7549   */\n      dup4\n        /* \"#utility.yul\":7494:7550   */\n      tag_260\n      jump\t// in\n    tag_392:\n        /* \"#utility.yul\":7573:7580   */\n      dup1\n        /* \"#utility.yul\":7604:7605   */\n      0x00\n        /* \"#utility.yul\":7589:7873   */\n    tag_393:\n        /* \"#utility.yul\":7614:7620   */\n      dup4\n        /* \"#utility.yul\":7611:7612   */\n      dup2\n        /* \"#utility.yul\":7608:7621   */\n      lt\n        /* \"#utility.yul\":7589:7873   */\n      iszero\n      tag_395\n      jumpi\n        /* \"#utility.yul\":7690:7696   */\n      dup2\n        /* \"#utility.yul\":7684:7697   */\n      mload\n        /* \"#utility.yul\":7717:7780   */\n      tag_396\n        /* \"#utility.yul\":7776:7779   */\n      dup9\n        /* \"#utility.yul\":7761:7774   */\n      dup3\n        /* \"#utility.yul\":7717:7780   */\n      tag_262\n      jump\t// in\n    tag_396:\n        /* \"#utility.yul\":7710:7780   */\n      swap8\n      pop\n        /* \"#utility.yul\":7803:7863   */\n      tag_397\n        /* \"#utility.yul\":7856:7862   */\n      dup4\n        /* \"#utility.yul\":7803:7863   */\n      tag_263\n      jump\t// in\n    tag_397:\n        /* \"#utility.yul\":7793:7863   */\n      swap3\n      pop\n        /* \"#utility.yul\":7649:7873   */\n      pop\n        /* \"#utility.yul\":7636:7637   */\n      0x01\n        /* \"#utility.yul\":7633:7634   */\n      dup2\n        /* \"#utility.yul\":7629:7638   */\n      add\n        /* \"#utility.yul\":7624:7638   */\n      swap1\n      pop\n        /* \"#utility.yul\":7589:7873   */\n      jump(tag_393)\n    tag_395:\n        /* \"#utility.yul\":7593:7607   */\n      pop\n        /* \"#utility.yul\":7889:7892   */\n      dup6\n        /* \"#utility.yul\":7882:7892   */\n      swap4\n      pop\n        /* \"#utility.yul\":7290:7898   */\n      pop\n      pop\n      pop\n        /* \"#utility.yul\":7166:7898   */\n      swap3\n      swap2\n      pop\n      pop\n      jump\t// out\n        /* \"#utility.yul\":7904:8277   */\n    tag_34:\n        /* \"#utility.yul\":8047:8051   */\n      0x00\n        /* \"#utility.yul\":8085:8087   */\n      0x20\n        /* \"#utility.yul\":8074:8083   */\n      dup3\n        /* \"#utility.yul\":8070:8088   */\n      add\n        /* \"#utility.yul\":8062:8088   */\n      swap1\n      pop\n        /* \"#utility.yul\":8134:8143   */\n      dup2\n        /* \"#utility.yul\":8128:8132   */\n      dup2\n        /* \"#utility.yul\":8124:8144   */\n      sub\n        /* \"#utility.yul\":8120:8121   */\n      0x00\n        /* \"#utility.yul\":8109:8118   */\n      dup4\n        /* \"#utility.yul\":8105:8122   */\n      add\n        /* \"#utility.yul\":8098:8145   */\n      mstore\n        /* \"#utility.yul\":8162:8270   */\n      tag_399\n        /* \"#utility.yul\":8265:8269   */\n      dup2\n        /* \"#utility.yul\":8256:8262   */\n      dup5\n        /* \"#utility.yul\":8162:8270   */\n      tag_264\n      jump\t// in\n    tag_399:\n        /* \"#utility.yul\":8154:8270   */\n      swap1\n      pop\n        /* \"#utility.yul\":7904:8277   */\n      swap3\n      swap2\n      pop\n      pop\n      jump\t// out\n        /* \"#utility.yul\":8283:8612   */\n    tag_37:\n        /* \"#utility.yul\":8342:8348   */\n      0x00\n        /* \"#utility.yul\":8391:8393   */\n      0x20\n        /* \"#utility.yul\":8379:8388   */\n      dup3\n        /* \"#utility.yul\":8370:8377   */\n      dup5\n        /* \"#utility.yul\":8366:8389   */\n      sub\n        /* \"#utility.yul\":8362:8394   */\n      slt\n        /* \"#utility.yul\":8359:8478   */\n      iszero\n      tag_401\n      jumpi\n        /* \"#utility.yul\":8397:8476   */\n      tag_402\n      tag_237\n      jump\t// in\n    tag_402:\n        /* \"#utility.yul\":8359:8478   */\n    tag_401:\n        /* \"#utility.yul\":8517:8518   */\n      0x00\n        /* \"#utility.yul\":8542:8595   */\n      tag_403\n        /* \"#utility.yul\":8587:8594   */\n      dup5\n        /* \"#utility.yul\":8578:8584   */\n      dup3\n        /* \"#utility.yul\":8567:8576   */\n      dup6\n        /* \"#utility.yul\":8563:8585   */\n      add\n        /* \"#utility.yul\":8542:8595   */\n      tag_251\n      jump\t// in\n    tag_403:\n        /* \"#utility.yul\":8532:8595   */\n      swap2\n      pop\n        /* \"#utility.yul\":8488:8605   */\n      pop\n        /* \"#utility.yul\":8283:8612   */\n      swap3\n      swap2\n      pop\n      pop\n      jump\t// out\n        /* \"#utility.yul\":8618:8798   */\n    tag_121:\n        /* \"#utility.yul\":8666:8743   */\n      0x4e487b7100000000000000000000000000000000000000000000000000000000\n        /* \"#utility.yul\":8663:8664   */\n      0x00\n        /* \"#utility.yul\":8656:8744   */\n      mstore\n        /* \"#utility.yul\":8763:8767   */\n      0x21\n        /* \"#utility.yul\":8760:8761   */\n      0x04\n        /* \"#utility.yul\":8753:8768   */\n      mstore\n        /* \"#utility.yul\":8787:8791   */\n      0x24\n        /* \"#utility.yul\":8784:8785   */\n      0x00\n        /* \"#utility.yul\":8777:8792   */\n      revert\n        /* \"#utility.yul\":8804:8929   */\n    tag_265:\n        /* \"#utility.yul\":8897:8898   */\n      0x03\n        /* \"#utility.yul\":8890:8895   */\n      dup2\n        /* \"#utility.yul\":8887:8899   */\n      lt\n        /* \"#utility.yul\":8877:8923   */\n      tag_406\n      jumpi\n        /* \"#utility.yul\":8903:8921   */\n      tag_407\n      tag_121\n      jump\t// in\n    tag_407:\n        /* \"#utility.yul\":8877:8923   */\n    tag_406:\n        /* \"#utility.yul\":8804:8929   */\n      pop\n      jump\t// out\n        /* \"#utility.yul\":8935:9086   */\n    tag_266:\n        /* \"#utility.yul\":8992:8999   */\n      0x00\n        /* \"#utility.yul\":9021:9026   */\n      dup2\n        /* \"#utility.yul\":9010:9026   */\n      swap1\n      pop\n        /* \"#utility.yul\":9027:9080   */\n      tag_409\n        /* \"#utility.yul\":9074:9079   */\n      dup3\n        /* \"#utility.yul\":9027:9080   */\n      tag_265\n      jump\t// in\n    tag_409:\n        /* \"#utility.yul\":8935:9086   */\n      swap2\n      swap1\n      pop\n      jump\t// out\n        /* \"#utility.yul\":9092:9243   */\n    tag_267:\n        /* \"#utility.yul\":9160:9169   */\n      0x00\n        /* \"#utility.yul\":9193:9237   */\n      tag_411\n        /* \"#utility.yul\":9231:9236   */\n      dup3\n        /* \"#utility.yul\":9193:9237   */\n      tag_266\n      jump\t// in\n    tag_411:\n        /* \"#utility.yul\":9180:9237   */\n      swap1\n      pop\n        /* \"#utility.yul\":9092:9243   */\n      swap2\n      swap1\n      pop\n      jump\t// out\n        /* \"#utility.yul\":9249:9416   */\n    tag_268:\n        /* \"#utility.yul\":9354:9409   */\n      tag_413\n        /* \"#utility.yul\":9403:9408   */\n      dup2\n        /* \"#utility.yul\":9354:9409   */\n      tag_267\n      jump\t// in\n    tag_413:\n        /* \"#utility.yul\":9349:9352   */\n      dup3\n        /* \"#utility.yul\":9342:9410   */\n      mstore\n        /* \"#utility.yul\":9249:9416   */\n      pop\n      pop\n      jump\t// out\n        /* \"#utility.yul\":9422:9790   */\n    tag_40:\n        /* \"#utility.yul\":9561:9565   */\n      0x00\n        /* \"#utility.yul\":9599:9601   */\n      0x40\n        /* \"#utility.yul\":9588:9597   */\n      dup3\n        /* \"#utility.yul\":9584:9602   */\n      add\n        /* \"#utility.yul\":9576:9602   */\n      swap1\n      pop\n        /* \"#utility.yul\":9612:9683   */\n      tag_415\n        /* \"#utility.yul\":9680:9681   */\n      0x00\n        /* \"#utility.yul\":9669:9678   */\n      dup4\n        /* \"#utility.yul\":9665:9682   */\n      add\n        /* \"#utility.yul\":9656:9662   */\n      dup6\n        /* \"#utility.yul\":9612:9683   */\n      tag_257\n      jump\t// in\n    tag_415:\n        /* \"#utility.yul\":9693:9783   */\n      tag_416\n        /* \"#utility.yul\":9779:9781   */\n      0x20\n        /* \"#utility.yul\":9768:9777   */\n      dup4\n        /* \"#utility.yul\":9764:9782   */\n      add\n        /* \"#utility.yul\":9755:9761   */\n      dup5\n        /* \"#utility.yul\":9693:9783   */\n      tag_268\n      jump\t// in\n    tag_416:\n        /* \"#utility.yul\":9422:9790   */\n      swap4\n      swap3\n      pop\n      pop\n      pop\n      jump\t// out\n        /* \"#utility.yul\":9796:9895   */\n    tag_269:\n        /* \"#utility.yul\":9848:9854   */\n      0x00\n        /* \"#utility.yul\":9882:9887   */\n      dup2\n        /* \"#utility.yul\":9876:9888   */\n      mload\n        /* \"#utility.yul\":9866:9888   */\n      swap1\n      pop\n        /* \"#utility.yul\":9796:9895   */\n      swap2\n      swap1\n      pop\n      jump\t// out\n        /* \"#utility.yul\":9901:10070   */\n    tag_270:\n        /* \"#utility.yul\":9985:9996   */\n      0x00\n        /* \"#utility.yul\":10019:10025   */\n      dup3\n        /* \"#utility.yul\":10014:10017   */\n      dup3\n        /* \"#utility.yul\":10007:10026   */\n      mstore\n        /* \"#utility.yul\":10059:10063   */\n      0x20\n        /* \"#utility.yul\":10054:10057   */\n      dup3\n        /* \"#utility.yul\":10050:10064   */\n      add\n        /* \"#utility.yul\":10035:10064   */\n      swap1\n      pop\n        /* \"#utility.yul\":9901:10070   */\n      swap3\n      swap2\n      pop\n      pop\n      jump\t// out\n        /* \"#utility.yul\":10076:10322   */\n    tag_271:\n        /* \"#utility.yul\":10157:10158   */\n      0x00\n        /* \"#utility.yul\":10167:10280   */\n    tag_420:\n        /* \"#utility.yul\":10181:10187   */\n      dup4\n        /* \"#utility.yul\":10178:10179   */\n      dup2\n        /* \"#utility.yul\":10175:10188   */\n      lt\n        /* \"#utility.yul\":10167:10280   */\n      iszero\n      tag_422\n      jumpi\n        /* \"#utility.yul\":10266:10267   */\n      dup1\n        /* \"#utility.yul\":10261:10264   */\n      dup3\n        /* \"#utility.yul\":10257:10268   */\n      add\n        /* \"#utility.yul\":10251:10269   */\n      mload\n        /* \"#utility.yul\":10247:10248   */\n      dup2\n        /* \"#utility.yul\":10242:10245   */\n      dup5\n        /* \"#utility.yul\":10238:10249   */\n      add\n        /* \"#utility.yul\":10231:10270   */\n      mstore\n        /* \"#utility.yul\":10203:10205   */\n      0x20\n        /* \"#utility.yul\":10200:10201   */\n      dup2\n        /* \"#utility.yul\":10196:10206   */\n      add\n        /* \"#utility.yul\":10191:10206   */\n      swap1\n      pop\n        /* \"#utility.yul\":10167:10280   */\n      jump(tag_420)\n    tag_422:\n        /* \"#utility.yul\":10314:10315   */\n      0x00\n        /* \"#utility.yul\":10305:10311   */\n      dup5\n        /* \"#utility.yul\":10300:10303   */\n      dup5\n        /* \"#utility.yul\":10296:10312   */\n      add\n        /* \"#utility.yul\":10289:10316   */\n      mstore\n        /* \"#utility.yul\":10138:10322   */\n      pop\n        /* \"#utility.yul\":10076:10322   */\n      pop\n      pop\n      pop\n      jump\t// out\n        /* \"#utility.yul\":10328:10705   */\n    tag_272:\n        /* \"#utility.yul\":10416:10419   */\n      0x00\n        /* \"#utility.yul\":10444:10483   */\n      tag_424\n        /* \"#utility.yul\":10477:10482   */\n      dup3\n        /* \"#utility.yul\":10444:10483   */\n      tag_269\n      jump\t// in\n    tag_424:\n        /* \"#utility.yul\":10499:10570   */\n      tag_425\n        /* \"#utility.yul\":10563:10569   */\n      dup2\n        /* \"#utility.yul\":10558:10561   */\n      dup6\n        /* \"#utility.yul\":10499:10570   */\n      tag_270\n      jump\t// in\n    tag_425:\n        /* \"#utility.yul\":10492:10570   */\n      swap4\n      pop\n        /* \"#utility.yul\":10579:10644   */\n      tag_426\n        /* \"#utility.yul\":10637:10643   */\n      dup2\n        /* \"#utility.yul\":10632:10635   */\n      dup6\n        /* \"#utility.yul\":10625:10629   */\n      0x20\n        /* \"#utility.yul\":10618:10623   */\n      dup7\n        /* \"#utility.yul\":10614:10630   */\n      add\n        /* \"#utility.yul\":10579:10644   */\n      tag_271\n      jump\t// in\n    tag_426:\n        /* \"#utility.yul\":10669:10698   */\n      tag_427\n        /* \"#utility.yul\":10691:10697   */\n      dup2\n        /* \"#utility.yul\":10669:10698   */\n      tag_241\n      jump\t// in\n    tag_427:\n        /* \"#utility.yul\":10664:10667   */\n      dup5\n        /* \"#utility.yul\":10660:10699   */\n      add\n        /* \"#utility.yul\":10653:10699   */\n      swap2\n      pop\n        /* \"#utility.yul\":10420:10705   */\n      pop\n        /* \"#utility.yul\":10328:10705   */\n      swap3\n      swap2\n      pop\n      pop\n      jump\t// out\n        /* \"#utility.yul\":10711:10819   */\n    tag_273:\n        /* \"#utility.yul\":10788:10812   */\n      tag_429\n        /* \"#utility.yul\":10806:10811   */\n      dup2\n        /* \"#utility.yul\":10788:10812   */\n      tag_252\n      jump\t// in\n    tag_429:\n        /* \"#utility.yul\":10783:10786   */\n      dup3\n        /* \"#utility.yul\":10776:10813   */\n      mstore\n        /* \"#utility.yul\":10711:10819   */\n      pop\n      pop\n      jump\t// out\n        /* \"#utility.yul\":10871:11543   */\n    tag_274:\n        /* \"#utility.yul\":11008:11012   */\n      0x60\n        /* \"#utility.yul\":11003:11006   */\n      dup3\n        /* \"#utility.yul\":10999:11013   */\n      add\n        /* \"#utility.yul\":11095:11099   */\n      0x00\n        /* \"#utility.yul\":11088:11093   */\n      dup3\n        /* \"#utility.yul\":11084:11100   */\n      add\n        /* \"#utility.yul\":11078:11101   */\n      mload\n        /* \"#utility.yul\":11114:11177   */\n      tag_431\n        /* \"#utility.yul\":11171:11175   */\n      0x00\n        /* \"#utility.yul\":11166:11169   */\n      dup6\n        /* \"#utility.yul\":11162:11176   */\n      add\n        /* \"#utility.yul\":11148:11160   */\n      dup3\n        /* \"#utility.yul\":11114:11177   */\n      tag_273\n      jump\t// in\n    tag_431:\n        /* \"#utility.yul\":11023:11187   */\n      pop\n        /* \"#utility.yul\":11270:11274   */\n      0x20\n        /* \"#utility.yul\":11263:11268   */\n      dup3\n        /* \"#utility.yul\":11259:11275   */\n      add\n        /* \"#utility.yul\":11253:11276   */\n      mload\n        /* \"#utility.yul\":11289:11352   */\n      tag_432\n        /* \"#utility.yul\":11346:11350   */\n      0x20\n        /* \"#utility.yul\":11341:11344   */\n      dup6\n        /* \"#utility.yul\":11337:11351   */\n      add\n        /* \"#utility.yul\":11323:11335   */\n      dup3\n        /* \"#utility.yul\":11289:11352   */\n      tag_273\n      jump\t// in\n    tag_432:\n        /* \"#utility.yul\":11197:11362   */\n      pop\n        /* \"#utility.yul\":11444:11448   */\n      0x40\n        /* \"#utility.yul\":11437:11442   */\n      dup3\n        /* \"#utility.yul\":11433:11449   */\n      add\n        /* \"#utility.yul\":11427:11450   */\n      mload\n        /* \"#utility.yul\":11463:11526   */\n      tag_433\n        /* \"#utility.yul\":11520:11524   */\n      0x40\n        /* \"#utility.yul\":11515:11518   */\n      dup6\n        /* \"#utility.yul\":11511:11525   */\n      add\n        /* \"#utility.yul\":11497:11509   */\n      dup3\n        /* \"#utility.yul\":11463:11526   */\n      tag_273\n      jump\t// in\n    tag_433:\n        /* \"#utility.yul\":11372:11536   */\n      pop\n        /* \"#utility.yul\":10977:11543   */\n      pop\n        /* \"#utility.yul\":10871:11543   */\n      pop\n      pop\n      jump\t// out\n        /* \"#utility.yul\":11549:12867   */\n    tag_45:\n        /* \"#utility.yul\":11924:11928   */\n      0x00\n        /* \"#utility.yul\":11962:11965   */\n      0x0120\n        /* \"#utility.yul\":11951:11960   */\n      dup3\n        /* \"#utility.yul\":11947:11966   */\n      add\n        /* \"#utility.yul\":11939:11966   */\n      swap1\n      pop\n        /* \"#utility.yul\":12012:12021   */\n      dup2\n        /* \"#utility.yul\":12006:12010   */\n      dup2\n        /* \"#utility.yul\":12002:12022   */\n      sub\n        /* \"#utility.yul\":11998:11999   */\n      0x00\n        /* \"#utility.yul\":11987:11996   */\n      dup4\n        /* \"#utility.yul\":11983:12000   */\n      add\n        /* \"#utility.yul\":11976:12023   */\n      mstore\n        /* \"#utility.yul\":12040:12118   */\n      tag_435\n        /* \"#utility.yul\":12113:12117   */\n      dup2\n        /* \"#utility.yul\":12104:12110   */\n      dup11\n        /* \"#utility.yul\":12040:12118   */\n      tag_272\n      jump\t// in\n    tag_435:\n        /* \"#utility.yul\":12032:12118   */\n      swap1\n      pop\n        /* \"#utility.yul\":12165:12174   */\n      dup2\n        /* \"#utility.yul\":12159:12163   */\n      dup2\n        /* \"#utility.yul\":12155:12175   */\n      sub\n        /* \"#utility.yul\":12150:12152   */\n      0x20\n        /* \"#utility.yul\":12139:12148   */\n      dup4\n        /* \"#utility.yul\":12135:12153   */\n      add\n        /* \"#utility.yul\":12128:12176   */\n      mstore\n        /* \"#utility.yul\":12193:12271   */\n      tag_436\n        /* \"#utility.yul\":12266:12270   */\n      dup2\n        /* \"#utility.yul\":12257:12263   */\n      dup10\n        /* \"#utility.yul\":12193:12271   */\n      tag_272\n      jump\t// in\n    tag_436:\n        /* \"#utility.yul\":12185:12271   */\n      swap1\n      pop\n        /* \"#utility.yul\":12318:12327   */\n      dup2\n        /* \"#utility.yul\":12312:12316   */\n      dup2\n        /* \"#utility.yul\":12308:12328   */\n      sub\n        /* \"#utility.yul\":12303:12305   */\n      0x40\n        /* \"#utility.yul\":12292:12301   */\n      dup4\n        /* \"#utility.yul\":12288:12306   */\n      add\n        /* \"#utility.yul\":12281:12329   */\n      mstore\n        /* \"#utility.yul\":12346:12424   */\n      tag_437\n        /* \"#utility.yul\":12419:12423   */\n      dup2\n        /* \"#utility.yul\":12410:12416   */\n      dup9\n        /* \"#utility.yul\":12346:12424   */\n      tag_272\n      jump\t// in\n    tag_437:\n        /* \"#utility.yul\":12338:12424   */\n      swap1\n      pop\n        /* \"#utility.yul\":12471:12480   */\n      dup2\n        /* \"#utility.yul\":12465:12469   */\n      dup2\n        /* \"#utility.yul\":12461:12481   */\n      sub\n        /* \"#utility.yul\":12456:12458   */\n      0x60\n        /* \"#utility.yul\":12445:12454   */\n      dup4\n        /* \"#utility.yul\":12441:12459   */\n      add\n        /* \"#utility.yul\":12434:12482   */\n      mstore\n        /* \"#utility.yul\":12499:12577   */\n      tag_438\n        /* \"#utility.yul\":12572:12576   */\n      dup2\n        /* \"#utility.yul\":12563:12569   */\n      dup8\n        /* \"#utility.yul\":12499:12577   */\n      tag_272\n      jump\t// in\n    tag_438:\n        /* \"#utility.yul\":12491:12577   */\n      swap1\n      pop\n        /* \"#utility.yul\":12587:12660   */\n      tag_439\n        /* \"#utility.yul\":12655:12658   */\n      0x80\n        /* \"#utility.yul\":12644:12653   */\n      dup4\n        /* \"#utility.yul\":12640:12659   */\n      add\n        /* \"#utility.yul\":12631:12637   */\n      dup7\n        /* \"#utility.yul\":12587:12660   */\n      tag_257\n      jump\t// in\n    tag_439:\n        /* \"#utility.yul\":12670:12783   */\n      tag_440\n        /* \"#utility.yul\":12778:12781   */\n      0xa0\n        /* \"#utility.yul\":12767:12776   */\n      dup4\n        /* \"#utility.yul\":12763:12782   */\n      add\n        /* \"#utility.yul\":12754:12760   */\n      dup6\n        /* \"#utility.yul\":12670:12783   */\n      tag_274\n      jump\t// in\n    tag_440:\n        /* \"#utility.yul\":12793:12860   */\n      tag_441\n        /* \"#utility.yul\":12855:12858   */\n      0x0100\n        /* \"#utility.yul\":12844:12853   */\n      dup4\n        /* \"#utility.yul\":12840:12859   */\n      add\n        /* \"#utility.yul\":12831:12837   */\n      dup5\n        /* \"#utility.yul\":12793:12860   */\n      tag_256\n      jump\t// in\n    tag_441:\n        /* \"#utility.yul\":11549:12867   */\n      swap9\n      swap8\n      pop\n      pop\n      pop\n      pop\n      pop\n      pop\n      pop\n      pop\n      jump\t// out\n        /* \"#utility.yul\":12873:12991   */\n    tag_275:\n        /* \"#utility.yul\":12960:12984   */\n      tag_443\n        /* \"#utility.yul\":12978:12983   */\n      dup2\n        /* \"#utility.yul\":12960:12984   */\n      tag_252\n      jump\t// in\n    tag_443:\n        /* \"#utility.yul\":12955:12958   */\n      dup3\n        /* \"#utility.yul\":12948:12985   */\n      mstore\n        /* \"#utility.yul\":12873:12991   */\n      pop\n      pop\n      jump\t// out\n        /* \"#utility.yul\":12997:13219   */\n    tag_49:\n        /* \"#utility.yul\":13090:13094   */\n      0x00\n        /* \"#utility.yul\":13128:13130   */\n      0x20\n        /* \"#utility.yul\":13117:13126   */\n      dup3\n        /* \"#utility.yul\":13113:13131   */\n      add\n        /* \"#utility.yul\":13105:13131   */\n      swap1\n      pop\n        /* \"#utility.yul\":13141:13212   */\n      tag_445\n        /* \"#utility.yul\":13209:13210   */\n      0x00\n        /* \"#utility.yul\":13198:13207   */\n      dup4\n        /* \"#utility.yul\":13194:13211   */\n      add\n        /* \"#utility.yul\":13185:13191   */\n      dup5\n        /* \"#utility.yul\":13141:13212   */\n      tag_275\n      jump\t// in\n    tag_445:\n        /* \"#utility.yul\":12997:13219   */\n      swap3\n      swap2\n      pop\n      pop\n      jump\t// out\n        /* \"#utility.yul\":13225:13554   */\n    tag_59:\n        /* \"#utility.yul\":13284:13290   */\n      0x00\n        /* \"#utility.yul\":13333:13335   */\n      0x20\n        /* \"#utility.yul\":13321:13330   */\n      dup3\n        /* \"#utility.yul\":13312:13319   */\n      dup5\n        /* \"#utility.yul\":13308:13331   */\n      sub\n        /* \"#utility.yul\":13304:13336   */\n      slt\n        /* \"#utility.yul\":13301:13420   */\n      iszero\n      tag_447\n      jumpi\n        /* \"#utility.yul\":13339:13418   */\n      tag_448\n      tag_237\n      jump\t// in\n    tag_448:\n        /* \"#utility.yul\":13301:13420   */\n    tag_447:\n        /* \"#utility.yul\":13459:13460   */\n      0x00\n        /* \"#utility.yul\":13484:13537   */\n      tag_449\n        /* \"#utility.yul\":13529:13536   */\n      dup5\n        /* \"#utility.yul\":13520:13526   */\n      dup3\n        /* \"#utility.yul\":13509:13518   */\n      dup6\n        /* \"#utility.yul\":13505:13527   */\n      add\n        /* \"#utility.yul\":13484:13537   */\n      tag_254\n      jump\t// in\n    tag_449:\n        /* \"#utility.yul\":13474:13537   */\n      swap2\n      pop\n        /* \"#utility.yul\":13430:13547   */\n      pop\n        /* \"#utility.yul\":13225:13554   */\n      swap3\n      swap2\n      pop\n      pop\n      jump\t// out\n        /* \"#utility.yul\":13560:14394   */\n    tag_64:\n        /* \"#utility.yul\":13648:13654   */\n      0x00\n        /* \"#utility.yul\":13656:13662   */\n      dup1\n        /* \"#utility.yul\":13705:13707   */\n      0x40\n        /* \"#utility.yul\":13693:13702   */\n      dup4\n        /* \"#utility.yul\":13684:13691   */\n      dup6\n        /* \"#utility.yul\":13680:13703   */\n      sub\n        /* \"#utility.yul\":13676:13708   */\n      slt\n        /* \"#utility.yul\":13673:13792   */\n      iszero\n      tag_451\n      jumpi\n        /* \"#utility.yul\":13711:13790   */\n      tag_452\n      tag_237\n      jump\t// in\n    tag_452:\n        /* \"#utility.yul\":13673:13792   */\n    tag_451:\n        /* \"#utility.yul\":13859:13860   */\n      0x00\n        /* \"#utility.yul\":13848:13857   */\n      dup4\n        /* \"#utility.yul\":13844:13861   */\n      add\n        /* \"#utility.yul\":13831:13862   */\n      calldataload\n        /* \"#utility.yul\":13889:13907   */\n      0xffffffffffffffff\n        /* \"#utility.yul\":13881:13887   */\n      dup2\n        /* \"#utility.yul\":13878:13908   */\n      gt\n        /* \"#utility.yul\":13875:13992   */\n      iszero\n      tag_453\n      jumpi\n        /* \"#utility.yul\":13911:13990   */\n      tag_454\n      tag_238\n      jump\t// in\n    tag_454:\n        /* \"#utility.yul\":13875:13992   */\n    tag_453:\n        /* \"#utility.yul\":14016:14079   */\n      tag_455\n        /* \"#utility.yul\":14071:14078   */\n      dup6\n        /* \"#utility.yul\":14062:14068   */\n      dup3\n        /* \"#utility.yul\":14051:14060   */\n      dup7\n        /* \"#utility.yul\":14047:14069   */\n      add\n        /* \"#utility.yul\":14016:14079   */\n      tag_247\n      jump\t// in\n    tag_455:\n        /* \"#utility.yul\":14006:14079   */\n      swap3\n      pop\n        /* \"#utility.yul\":13802:14089   */\n      pop\n        /* \"#utility.yul\":14156:14158   */\n      0x20\n        /* \"#utility.yul\":14145:14154   */\n      dup4\n        /* \"#utility.yul\":14141:14159   */\n      add\n        /* \"#utility.yul\":14128:14160   */\n      calldataload\n        /* \"#utility.yul\":14187:14205   */\n      0xffffffffffffffff\n        /* \"#utility.yul\":14179:14185   */\n      dup2\n        /* \"#utility.yul\":14176:14206   */\n      gt\n        /* \"#utility.yul\":14173:14290   */\n      iszero\n      tag_456\n      jumpi\n        /* \"#utility.yul\":14209:14288   */\n      tag_457\n      tag_238\n      jump\t// in\n    tag_457:\n        /* \"#utility.yul\":14173:14290   */\n    tag_456:\n        /* \"#utility.yul\":14314:14377   */\n      tag_458\n        /* \"#utility.yul\":14369:14376   */\n      dup6\n        /* \"#utility.yul\":14360:14366   */\n      dup3\n        /* \"#utility.yul\":14349:14358   */\n      dup7\n        /* \"#utility.yul\":14345:14367   */\n      add\n        /* \"#utility.yul\":14314:14377   */\n      tag_247\n      jump\t// in\n    tag_458:\n        /* \"#utility.yul\":14304:14377   */\n      swap2\n      pop\n        /* \"#utility.yul\":14099:14387   */\n      pop\n        /* \"#utility.yul\":13560:14394   */\n      swap3\n      pop\n      swap3\n      swap1\n      pop\n      jump\t// out\n        /* \"#utility.yul\":14400:15379   */\n    tag_73:\n        /* \"#utility.yul\":14497:14503   */\n      0x00\n        /* \"#utility.yul\":14505:14511   */\n      dup1\n        /* \"#utility.yul\":14513:14519   */\n      0x00\n        /* \"#utility.yul\":14562:14564   */\n      0x60\n        /* \"#utility.yul\":14550:14559   */\n      dup5\n        /* \"#utility.yul\":14541:14548   */\n      dup7\n        /* \"#utility.yul\":14537:14560   */\n      sub\n        /* \"#utility.yul\":14533:14565   */\n      slt\n        /* \"#utility.yul\":14530:14649   */\n      iszero\n      tag_460\n      jumpi\n        /* \"#utility.yul\":14568:14647   */\n      tag_461\n      tag_237\n      jump\t// in\n    tag_461:\n        /* \"#utility.yul\":14530:14649   */\n    tag_460:\n        /* \"#utility.yul\":14716:14717   */\n      0x00\n        /* \"#utility.yul\":14705:14714   */\n      dup5\n        /* \"#utility.yul\":14701:14718   */\n      add\n        /* \"#utility.yul\":14688:14719   */\n      calldataload\n        /* \"#utility.yul\":14746:14764   */\n      0xffffffffffffffff\n        /* \"#utility.yul\":14738:14744   */\n      dup2\n        /* \"#utility.yul\":14735:14765   */\n      gt\n        /* \"#utility.yul\":14732:14849   */\n      iszero\n      tag_462\n      jumpi\n        /* \"#utility.yul\":14768:14847   */\n      tag_463\n      tag_238\n      jump\t// in\n    tag_463:\n        /* \"#utility.yul\":14732:14849   */\n    tag_462:\n        /* \"#utility.yul\":14873:14936   */\n      tag_464\n        /* \"#utility.yul\":14928:14935   */\n      dup7\n        /* \"#utility.yul\":14919:14925   */\n      dup3\n        /* \"#utility.yul\":14908:14917   */\n      dup8\n        /* \"#utility.yul\":14904:14926   */\n      add\n        /* \"#utility.yul\":14873:14936   */\n      tag_247\n      jump\t// in\n    tag_464:\n        /* \"#utility.yul\":14863:14936   */\n      swap4\n      pop\n        /* \"#utility.yul\":14659:14946   */\n      pop\n        /* \"#utility.yul\":15013:15015   */\n      0x20\n        /* \"#utility.yul\":15002:15011   */\n      dup5\n        /* \"#utility.yul\":14998:15016   */\n      add\n        /* \"#utility.yul\":14985:15017   */\n      calldataload\n        /* \"#utility.yul\":15044:15062   */\n      0xffffffffffffffff\n        /* \"#utility.yul\":15036:15042   */\n      dup2\n        /* \"#utility.yul\":15033:15063   */\n      gt\n        /* \"#utility.yul\":15030:15147   */\n      iszero\n      tag_465\n      jumpi\n        /* \"#utility.yul\":15066:15145   */\n      tag_466\n      tag_238\n      jump\t// in\n    tag_466:\n        /* \"#utility.yul\":15030:15147   */\n    tag_465:\n        /* \"#utility.yul\":15171:15234   */\n      tag_467\n        /* \"#utility.yul\":15226:15233   */\n      dup7\n        /* \"#utility.yul\":15217:15223   */\n      dup3\n        /* \"#utility.yul\":15206:15215   */\n      dup8\n        /* \"#utility.yul\":15202:15224   */\n      add\n        /* \"#utility.yul\":15171:15234   */\n      tag_247\n      jump\t// in\n    tag_467:\n        /* \"#utility.yul\":15161:15234   */\n      swap3\n      pop\n        /* \"#utility.yul\":14956:15244   */\n      pop\n        /* \"#utility.yul\":15283:15285   */\n      0x40\n        /* \"#utility.yul\":15309:15362   */\n      tag_468\n        /* \"#utility.yul\":15354:15361   */\n      dup7\n        /* \"#utility.yul\":15345:15351   */\n      dup3\n        /* \"#utility.yul\":15334:15343   */\n      dup8\n        /* \"#utility.yul\":15330:15352   */\n      add\n        /* \"#utility.yul\":15309:15362   */\n      tag_251\n      jump\t// in\n    tag_468:\n        /* \"#utility.yul\":15299:15362   */\n      swap2\n      pop\n        /* \"#utility.yul\":15254:15372   */\n      pop\n        /* \"#utility.yul\":14400:15379   */\n      swap3\n      pop\n      swap3\n      pop\n      swap3\n      jump\t// out\n        /* \"#utility.yul\":15385:15528   */\n    tag_276:\n        /* \"#utility.yul\":15481:15487   */\n      0x00\n        /* \"#utility.yul\":15515:15520   */\n      dup2\n        /* \"#utility.yul\":15509:15521   */\n      mload\n        /* \"#utility.yul\":15499:15521   */\n      swap1\n      pop\n        /* \"#utility.yul\":15385:15528   */\n      swap2\n      swap1\n      pop\n      jump\t// out\n        /* \"#utility.yul\":15534:15747   */\n    tag_277:\n        /* \"#utility.yul\":15662:15673   */\n      0x00\n        /* \"#utility.yul\":15696:15702   */\n      dup3\n        /* \"#utility.yul\":15691:15694   */\n      dup3\n        /* \"#utility.yul\":15684:15703   */\n      mstore\n        /* \"#utility.yul\":15736:15740   */\n      0x20\n        /* \"#utility.yul\":15731:15734   */\n      dup3\n        /* \"#utility.yul\":15727:15741   */\n      add\n        /* \"#utility.yul\":15712:15741   */\n      swap1\n      pop\n        /* \"#utility.yul\":15534:15747   */\n      swap3\n      swap2\n      pop\n      pop\n      jump\t// out\n        /* \"#utility.yul\":15753:15914   */\n    tag_278:\n        /* \"#utility.yul\":15849:15853   */\n      0x00\n        /* \"#utility.yul\":15872:15875   */\n      dup2\n        /* \"#utility.yul\":15864:15875   */\n      swap1\n      pop\n        /* \"#utility.yul\":15902:15906   */\n      0x20\n        /* \"#utility.yul\":15897:15900   */\n      dup3\n        /* \"#utility.yul\":15893:15907   */\n      add\n        /* \"#utility.yul\":15885:15907   */\n      swap1\n      pop\n        /* \"#utility.yul\":15753:15914   */\n      swap2\n      swap1\n      pop\n      jump\t// out\n        /* \"#utility.yul\":15920:16077   */\n    tag_279:\n        /* \"#utility.yul\":16015:16070   */\n      tag_473\n        /* \"#utility.yul\":16064:16069   */\n      dup2\n        /* \"#utility.yul\":16015:16070   */\n      tag_267\n      jump\t// in\n    tag_473:\n        /* \"#utility.yul\":16010:16013   */\n      dup3\n        /* \"#utility.yul\":16003:16071   */\n      mstore\n        /* \"#utility.yul\":15920:16077   */\n      pop\n      pop\n      jump\t// out\n        /* \"#utility.yul\":16145:16686   */\n    tag_280:\n        /* \"#utility.yul\":16290:16294   */\n      0x40\n        /* \"#utility.yul\":16285:16288   */\n      dup3\n        /* \"#utility.yul\":16281:16295   */\n      add\n        /* \"#utility.yul\":16386:16390   */\n      0x00\n        /* \"#utility.yul\":16379:16384   */\n      dup3\n        /* \"#utility.yul\":16375:16391   */\n      add\n        /* \"#utility.yul\":16369:16392   */\n      mload\n        /* \"#utility.yul\":16405:16468   */\n      tag_475\n        /* \"#utility.yul\":16462:16466   */\n      0x00\n        /* \"#utility.yul\":16457:16460   */\n      dup6\n        /* \"#utility.yul\":16453:16467   */\n      add\n        /* \"#utility.yul\":16439:16451   */\n      dup3\n        /* \"#utility.yul\":16405:16468   */\n      tag_261\n      jump\t// in\n    tag_475:\n        /* \"#utility.yul\":16305:16478   */\n      pop\n        /* \"#utility.yul\":16569:16573   */\n      0x20\n        /* \"#utility.yul\":16562:16567   */\n      dup3\n        /* \"#utility.yul\":16558:16574   */\n      add\n        /* \"#utility.yul\":16552:16575   */\n      mload\n        /* \"#utility.yul\":16588:16669   */\n      tag_476\n        /* \"#utility.yul\":16663:16667   */\n      0x20\n        /* \"#utility.yul\":16658:16661   */\n      dup6\n        /* \"#utility.yul\":16654:16668   */\n      add\n        /* \"#utility.yul\":16640:16652   */\n      dup3\n        /* \"#utility.yul\":16588:16669   */\n      tag_279\n      jump\t// in\n    tag_476:\n        /* \"#utility.yul\":16488:16679   */\n      pop\n        /* \"#utility.yul\":16259:16686   */\n      pop\n        /* \"#utility.yul\":16145:16686   */\n      pop\n      pop\n      jump\t// out\n        /* \"#utility.yul\":16692:16987   */\n    tag_281:\n        /* \"#utility.yul\":16819:16829   */\n      0x00\n        /* \"#utility.yul\":16840:16944   */\n      tag_478\n        /* \"#utility.yul\":16940:16943   */\n      dup4\n        /* \"#utility.yul\":16932:16938   */\n      dup4\n        /* \"#utility.yul\":16840:16944   */\n      tag_280\n      jump\t// in\n    tag_478:\n        /* \"#utility.yul\":16976:16980   */\n      0x40\n        /* \"#utility.yul\":16971:16974   */\n      dup4\n        /* \"#utility.yul\":16967:16981   */\n      add\n        /* \"#utility.yul\":16953:16981   */\n      swap1\n      pop\n        /* \"#utility.yul\":16692:16987   */\n      swap3\n      swap2\n      pop\n      pop\n      jump\t// out\n        /* \"#utility.yul\":16993:17135   */\n    tag_282:\n        /* \"#utility.yul\":17092:17096   */\n      0x00\n        /* \"#utility.yul\":17124:17128   */\n      0x20\n        /* \"#utility.yul\":17119:17122   */\n      dup3\n        /* \"#utility.yul\":17115:17129   */\n      add\n        /* \"#utility.yul\":17107:17129   */\n      swap1\n      pop\n        /* \"#utility.yul\":16993:17135   */\n      swap2\n      swap1\n      pop\n      jump\t// out\n        /* \"#utility.yul\":17207:18171   */\n    tag_283:\n        /* \"#utility.yul\":17384:17387   */\n      0x00\n        /* \"#utility.yul\":17413:17496   */\n      tag_481\n        /* \"#utility.yul\":17490:17495   */\n      dup3\n        /* \"#utility.yul\":17413:17496   */\n      tag_276\n      jump\t// in\n    tag_481:\n        /* \"#utility.yul\":17512:17627   */\n      tag_482\n        /* \"#utility.yul\":17620:17626   */\n      dup2\n        /* \"#utility.yul\":17615:17618   */\n      dup6\n        /* \"#utility.yul\":17512:17627   */\n      tag_277\n      jump\t// in\n    tag_482:\n        /* \"#utility.yul\":17505:17627   */\n      swap4\n      pop\n        /* \"#utility.yul\":17651:17736   */\n      tag_483\n        /* \"#utility.yul\":17730:17735   */\n      dup4\n        /* \"#utility.yul\":17651:17736   */\n      tag_278\n      jump\t// in\n    tag_483:\n        /* \"#utility.yul\":17759:17766   */\n      dup1\n        /* \"#utility.yul\":17790:17791   */\n      0x00\n        /* \"#utility.yul\":17775:18146   */\n    tag_484:\n        /* \"#utility.yul\":17800:17806   */\n      dup4\n        /* \"#utility.yul\":17797:17798   */\n      dup2\n        /* \"#utility.yul\":17794:17807   */\n      lt\n        /* \"#utility.yul\":17775:18146   */\n      iszero\n      tag_486\n      jumpi\n        /* \"#utility.yul\":17876:17882   */\n      dup2\n        /* \"#utility.yul\":17870:17883   */\n      mload\n        /* \"#utility.yul\":17903:18024   */\n      tag_487\n        /* \"#utility.yul\":18020:18023   */\n      dup9\n        /* \"#utility.yul\":18005:18018   */\n      dup3\n        /* \"#utility.yul\":17903:18024   */\n      tag_281\n      jump\t// in\n    tag_487:\n        /* \"#utility.yul\":17896:18024   */\n      swap8\n      pop\n        /* \"#utility.yul\":18047:18136   */\n      tag_488\n        /* \"#utility.yul\":18129:18135   */\n      dup4\n        /* \"#utility.yul\":18047:18136   */\n      tag_282\n      jump\t// in\n    tag_488:\n        /* \"#utility.yul\":18037:18136   */\n      swap3\n      pop\n        /* \"#utility.yul\":17835:18146   */\n      pop\n        /* \"#utility.yul\":17822:17823   */\n      0x01\n        /* \"#utility.yul\":17819:17820   */\n      dup2\n        /* \"#utility.yul\":17815:17824   */\n      add\n        /* \"#utility.yul\":17810:17824   */\n      swap1\n      pop\n        /* \"#utility.yul\":17775:18146   */\n      jump(tag_484)\n    tag_486:\n        /* \"#utility.yul\":17779:17793   */\n      pop\n        /* \"#utility.yul\":18162:18165   */\n      dup6\n        /* \"#utility.yul\":18155:18165   */\n      swap4\n      pop\n        /* \"#utility.yul\":17389:18171   */\n      pop\n      pop\n      pop\n        /* \"#utility.yul\":17207:18171   */\n      swap3\n      swap2\n      pop\n      pop\n      jump\t// out\n        /* \"#utility.yul\":18177:18666   */\n    tag_87:\n        /* \"#utility.yul\":18378:18382   */\n      0x00\n        /* \"#utility.yul\":18416:18418   */\n      0x20\n        /* \"#utility.yul\":18405:18414   */\n      dup3\n        /* \"#utility.yul\":18401:18419   */\n      add\n        /* \"#utility.yul\":18393:18419   */\n      swap1\n      pop\n        /* \"#utility.yul\":18465:18474   */\n      dup2\n        /* \"#utility.yul\":18459:18463   */\n      dup2\n        /* \"#utility.yul\":18455:18475   */\n      sub\n        /* \"#utility.yul\":18451:18452   */\n      0x00\n        /* \"#utility.yul\":18440:18449   */\n      dup4\n        /* \"#utility.yul\":18436:18453   */\n      add\n        /* \"#utility.yul\":18429:18476   */\n      mstore\n        /* \"#utility.yul\":18493:18659   */\n      tag_490\n        /* \"#utility.yul\":18654:18658   */\n      dup2\n        /* \"#utility.yul\":18645:18651   */\n      dup5\n        /* \"#utility.yul\":18493:18659   */\n      tag_283\n      jump\t// in\n    tag_490:\n        /* \"#utility.yul\":18485:18659   */\n      swap1\n      pop\n        /* \"#utility.yul\":18177:18666   */\n      swap3\n      swap2\n      pop\n      pop\n      jump\t// out\n        /* \"#utility.yul\":18672:18852   */\n    tag_284:\n        /* \"#utility.yul\":18720:18797   */\n      0x4e487b7100000000000000000000000000000000000000000000000000000000\n        /* \"#utility.yul\":18717:18718   */\n      0x00\n        /* \"#utility.yul\":18710:18798   */\n      mstore\n        /* \"#utility.yul\":18817:18821   */\n      0x22\n        /* \"#utility.yul\":18814:18815   */\n      0x04\n        /* \"#utility.yul\":18807:18822   */\n      mstore\n        /* \"#utility.yul\":18841:18845   */\n      0x24\n        /* \"#utility.yul\":18838:18839   */\n      0x00\n        /* \"#utility.yul\":18831:18846   */\n      revert\n        /* \"#utility.yul\":18858:19178   */\n    tag_91:\n        /* \"#utility.yul\":18902:18908   */\n      0x00\n        /* \"#utility.yul\":18939:18940   */\n      0x02\n        /* \"#utility.yul\":18933:18937   */\n      dup3\n        /* \"#utility.yul\":18929:18941   */\n      div\n        /* \"#utility.yul\":18919:18941   */\n      swap1\n      pop\n        /* \"#utility.yul\":18986:18987   */\n      0x01\n        /* \"#utility.yul\":18980:18984   */\n      dup3\n        /* \"#utility.yul\":18976:18988   */\n      and\n        /* \"#utility.yul\":19007:19025   */\n      dup1\n        /* \"#utility.yul\":18997:19078   */\n      tag_493\n      jumpi\n        /* \"#utility.yul\":19063:19067   */\n      0x7f\n        /* \"#utility.yul\":19055:19061   */\n      dup3\n        /* \"#utility.yul\":19051:19068   */\n      and\n        /* \"#utility.yul\":19041:19068   */\n      swap2\n      pop\n        /* \"#utility.yul\":18997:19078   */\n    tag_493:\n        /* \"#utility.yul\":19125:19127   */\n      0x20\n        /* \"#utility.yul\":19117:19123   */\n      dup3\n        /* \"#utility.yul\":19114:19128   */\n      lt\n        /* \"#utility.yul\":19094:19112   */\n      dup2\n        /* \"#utility.yul\":19091:19129   */\n      sub\n        /* \"#utility.yul\":19088:19172   */\n      tag_494\n      jumpi\n        /* \"#utility.yul\":19144:19162   */\n      tag_495\n      tag_284\n      jump\t// in\n    tag_495:\n        /* \"#utility.yul\":19088:19172   */\n    tag_494:\n        /* \"#utility.yul\":18909:19178   */\n      pop\n        /* \"#utility.yul\":18858:19178   */\n      swap2\n      swap1\n      pop\n      jump\t// out\n        /* \"#utility.yul\":19184:19325   */\n    tag_285:\n        /* \"#utility.yul\":19233:19237   */\n      0x00\n        /* \"#utility.yul\":19256:19259   */\n      dup2\n        /* \"#utility.yul\":19248:19259   */\n      swap1\n      pop\n        /* \"#utility.yul\":19279:19282   */\n      dup2\n        /* \"#utility.yul\":19276:19277   */\n      0x00\n        /* \"#utility.yul\":19269:19283   */\n      mstore\n        /* \"#utility.yul\":19313:19317   */\n      0x20\n        /* \"#utility.yul\":19310:19311   */\n      0x00\n        /* \"#utility.yul\":19300:19318   */\n      keccak256\n        /* \"#utility.yul\":19292:19318   */\n      swap1\n      pop\n        /* \"#utility.yul\":19184:19325   */\n      swap2\n      swap1\n      pop\n      jump\t// out\n        /* \"#utility.yul\":19331:19424   */\n    tag_286:\n        /* \"#utility.yul\":19368:19374   */\n      0x00\n        /* \"#utility.yul\":19415:19417   */\n      0x20\n        /* \"#utility.yul\":19410:19412   */\n      0x1f\n        /* \"#utility.yul\":19403:19408   */\n      dup4\n        /* \"#utility.yul\":19399:19413   */\n      add\n        /* \"#utility.yul\":19395:19418   */\n      div\n        /* \"#utility.yul\":19385:19418   */\n      swap1\n      pop\n        /* \"#utility.yul\":19331:19424   */\n      swap2\n      swap1\n      pop\n      jump\t// out\n        /* \"#utility.yul\":19430:19537   */\n    tag_287:\n        /* \"#utility.yul\":19474:19482   */\n      0x00\n        /* \"#utility.yul\":19524:19529   */\n      dup3\n        /* \"#utility.yul\":19518:19522   */\n      dup3\n        /* \"#utility.yul\":19514:19530   */\n      shl\n        /* \"#utility.yul\":19493:19530   */\n      swap1\n      pop\n        /* \"#utility.yul\":19430:19537   */\n      swap3\n      swap2\n      pop\n      pop\n      jump\t// out\n        /* \"#utility.yul\":19543:19936   */\n    tag_288:\n        /* \"#utility.yul\":19612:19618   */\n      0x00\n        /* \"#utility.yul\":19662:19663   */\n      0x08\n        /* \"#utility.yul\":19650:19660   */\n      dup4\n        /* \"#utility.yul\":19646:19664   */\n      mul\n        /* \"#utility.yul\":19685:19782   */\n      tag_500\n        /* \"#utility.yul\":19715:19781   */\n      0xffffffffffffffffffffffffffffffffffffffffffffffffffffffffffffffff\n        /* \"#utility.yul\":19704:19713   */\n      dup3\n        /* \"#utility.yul\":19685:19782   */\n      tag_287\n      jump\t// in\n    tag_500:\n        /* \"#utility.yul\":19803:19842   */\n      tag_501\n        /* \"#utility.yul\":19833:19841   */\n      dup7\n        /* \"#utility.yul\":19822:19831   */\n      dup4\n        /* \"#utility.yul\":19803:19842   */\n      tag_287\n      jump\t// in\n    tag_501:\n        /* \"#utility.yul\":19791:19842   */\n      swap6\n      pop\n        /* \"#utility.yul\":19875:19879   */\n      dup1\n        /* \"#utility.yul\":19871:19880   */\n      not\n        /* \"#utility.yul\":19864:19869   */\n      dup5\n        /* \"#utility.yul\":19860:19881   */\n      and\n        /* \"#utility.yul\":19851:19881   */\n      swap4\n      pop\n        /* \"#utility.yul\":19924:19928   */\n      dup1\n        /* \"#utility.yul\":19914:19922   */\n      dup7\n        /* \"#utility.yul\":19910:19929   */\n      and\n        /* \"#utility.yul\":19903:19908   */\n      dup5\n        /* \"#utility.yul\":19900:19930   */\n      or\n        /* \"#utility.yul\":19890:19930   */\n      swap3\n      pop\n        /* \"#utility.yul\":19619:19936   */\n      pop\n      pop\n        /* \"#utility.yul\":19543:19936   */\n      swap4\n      swap3\n      pop\n      pop\n      pop\n      jump\t// out\n        /* \"#utility.yul\":19942:20002   */\n    tag_289:\n        /* \"#utility.yul\":19970:19973   */\n      0x00\n        /* \"#utility.yul\":19991:19996   */\n      dup2\n        /* \"#utility.yul\":19984:19996   */\n      swap1\n      pop\n        /* \"#utility.yul\":19942:20002   */\n      swap2\n      swap1\n      pop\n      jump\t// out\n        /* \"#utility.yul\":20008:20150   */\n    tag_290:\n        /* \"#utility.yul\":20058:20067   */\n      0x00\n        /* \"#utility.yul\":20091:20144   */\n      tag_504\n        /* \"#utility.yul\":20109:20143   */\n      tag_505\n        /* \"#utility.yul\":20118:20142   */\n      tag_506\n        /* \"#utility.yul\":20136:20141   */\n      dup5\n        /* \"#utility.yul\":20118:20142   */\n      tag_252\n      jump\t// in\n    tag_506:\n        /* \"#utility.yul\":20109:20143   */\n      tag_289\n      jump\t// in\n    tag_505:\n        /* \"#utility.yul\":20091:20144   */\n      tag_252\n      jump\t// in\n    tag_504:\n        /* \"#utility.yul\":20078:20144   */\n      swap1\n      pop\n        /* \"#utility.yul\":20008:20150   */\n      swap2\n      swap1\n      pop\n      jump\t// out\n        /* \"#utility.yul\":20156:20231   */\n    tag_291:\n        /* \"#utility.yul\":20199:20202   */\n      0x00\n        /* \"#utility.yul\":20220:20225   */\n      dup2\n        /* \"#utility.yul\":20213:20225   */\n      swap1\n      pop\n        /* \"#utility.yul\":20156:20231   */\n      swap2\n      swap1\n      pop\n      jump\t// out\n        /* \"#utility.yul\":20237:20506   */\n    tag_292:\n        /* \"#utility.yul\":20347:20386   */\n      tag_509\n        /* \"#utility.yul\":20378:20385   */\n      dup4\n        /* \"#utility.yul\":20347:20386   */\n      tag_290\n      jump\t// in\n    tag_509:\n        /* \"#utility.yul\":20408:20499   */\n      tag_510\n        /* \"#utility.yul\":20457:20498   */\n      tag_511\n        /* \"#utility.yul\":20481:20497   */\n      dup3\n        /* \"#utility.yul\":20457:20498   */\n      tag_291\n      jump\t// in\n    tag_511:\n        /* \"#utility.yul\":20449:20455   */\n      dup5\n        /* \"#utility.yul\":20442:20446   */\n      dup5\n        /* \"#utility.yul\":20436:20447   */\n      sload\n        /* \"#utility.yul\":20408:20499   */\n      tag_288\n      jump\t// in\n    tag_510:\n        /* \"#utility.yul\":20402:20406   */\n      dup3\n        /* \"#utility.yul\":20395:20500   */\n      sstore\n        /* \"#utility.yul\":20313:20506   */\n      pop\n        /* \"#utility.yul\":20237:20506   */\n      pop\n      pop\n      pop\n      jump\t// out\n        /* \"#utility.yul\":20512:20585   */\n    tag_293:\n        /* \"#utility.yul\":20557:20560   */\n      0x00\n        /* \"#utility.yul\":20512:20585   */\n      swap1\n      jump\t// out\n        /* \"#utility.yul\":20591:20780   */\n    tag_294:\n        /* \"#utility.yul\":20668:20700   */\n      tag_514\n      tag_293\n      jump\t// in\n    tag_514:\n        /* \"#utility.yul\":20709:20774   */\n      tag_515\n        /* \"#utility.yul\":20767:20773   */\n      dup2\n        /* \"#utility.yul\":20759:20765   */\n      dup5\n        /* \"#utility.yul\":20753:20757   */\n      dup5\n        /* \"#utility.yul\":20709:20774   */\n      tag_292\n      jump\t// in\n    tag_515:\n        /* \"#utility.yul\":20644:20780   */\n      pop\n        /* \"#utility.yul\":20591:20780   */\n      pop\n      pop\n      jump\t// out\n        /* \"#utility.yul\":20786:20972   */\n    tag_295:\n        /* \"#utility.yul\":20846:20966   */\n    tag_517:\n        /* \"#utility.yul\":20863:20866   */\n      dup2\n        /* \"#utility.yul\":20856:20861   */\n      dup2\n        /* \"#utility.yul\":20853:20867   */\n      lt\n        /* \"#utility.yul\":20846:20966   */\n      iszero\n      tag_519\n      jumpi\n        /* \"#utility.yul\":20917:20956   */\n      tag_520\n        /* \"#utility.yul\":20954:20955   */\n      0x00\n        /* \"#utility.yul\":20947:20952   */\n      dup3\n        /* \"#utility.yul\":20917:20956   */\n      tag_294\n      jump\t// in\n    tag_520:\n        /* \"#utility.yul\":20890:20891   */\n      0x01\n        /* \"#utility.yul\":20883:20888   */\n      dup2\n        /* \"#utility.yul\":20879:20892   */\n      add\n        /* \"#utility.yul\":20870:20892   */\n      swap1\n      pop\n        /* \"#utility.yul\":20846:20966   */\n      jump(tag_517)\n    tag_519:\n        /* \"#utility.yul\":20786:20972   */\n      pop\n      pop\n      jump\t// out\n        /* \"#utility.yul\":20978:21521   */\n    tag_296:\n        /* \"#utility.yul\":21079:21081   */\n      0x1f\n        /* \"#utility.yul\":21074:21077   */\n      dup3\n        /* \"#utility.yul\":21071:21082   */\n      gt\n        /* \"#utility.yul\":21068:21514   */\n      iszero\n      tag_522\n      jumpi\n        /* \"#utility.yul\":21113:21151   */\n      tag_523\n        /* \"#utility.yul\":21145:21150   */\n      dup2\n        /* \"#utility.yul\":21113:21151   */\n      tag_285\n      jump\t// in\n    tag_523:\n        /* \"#utility.yul\":21197:21226   */\n      tag_524\n        /* \"#utility.yul\":21215:21225   */\n      dup5\n        /* \"#utility.yul\":21197:21226   */\n      tag_286\n      jump\t// in\n    tag_524:\n        /* \"#utility.yul\":21187:21195   */\n      dup2\n        /* \"#utility.yul\":21183:21227   */\n      add\n        /* \"#utility.yul\":21380:21382   */\n      0x20\n        /* \"#utility.yul\":21368:21378   */\n      dup6\n        /* \"#utility.yul\":21365:21383   */\n      lt\n        /* \"#utility.yul\":21362:21411   */\n      iszero\n      tag_525\n      jumpi\n        /* \"#utility.yul\":21401:21409   */\n      dup2\n        /* \"#utility.yul\":21386:21409   */\n      swap1\n      pop\n        /* \"#utility.yul\":21362:21411   */\n    tag_525:\n        /* \"#utility.yul\":21424:21504   */\n      tag_526\n        /* \"#utility.yul\":21480:21502   */\n      tag_527\n        /* \"#utility.yul\":21498:21501   */\n      dup6\n        /* \"#utility.yul\":21480:21502   */\n      tag_286\n      jump\t// in\n    tag_527:\n        /* \"#utility.yul\":21470:21478   */\n      dup4\n        /* \"#utility.yul\":21466:21503   */\n      add\n        /* \"#utility.yul\":21453:21464   */\n      dup3\n        /* \"#utility.yul\":21424:21504   */\n      tag_295\n      jump\t// in\n    tag_526:\n        /* \"#utility.yul\":21083:21514   */\n      pop\n      pop\n        /* \"#utility.yul\":21068:21514   */\n    tag_522:\n        /* \"#utility.yul\":20978:21521   */\n      pop\n      pop\n      pop\n      jump\t// out\n        /* \"#utility.yul\":21527:21644   */\n    tag_297:\n        /* \"#utility.yul\":21581:21589   */\n      0x00\n        /* \"#utility.yul\":21631:21636   */\n      dup3\n        /* \"#utility.yul\":21625:21629   */\n      dup3\n        /* \"#utility.yul\":21621:21637   */\n      shr\n        /* \"#utility.yul\":21600:21637   */\n      swap1\n      pop\n        /* \"#utility.yul\":21527:21644   */\n      swap3\n      swap2\n      pop\n      pop\n      jump\t// out\n        /* \"#utility.yul\":21650:21819   */\n    tag_298:\n        /* \"#utility.yul\":21694:21700   */\n      0x00\n        /* \"#utility.yul\":21727:21778   */\n      tag_530\n        /* \"#utility.yul\":21775:21776   */\n      0x00\n        /* \"#utility.yul\":21771:21777   */\n      not\n        /* \"#utility.yul\":21763:21768   */\n      dup5\n        /* \"#utility.yul\":21760:21761   */\n      0x08\n        /* \"#utility.yul\":21756:21769   */\n      mul\n        /* \"#utility.yul\":21727:21778   */\n      tag_297\n      jump\t// in\n    tag_530:\n        /* \"#utility.yul\":21723:21779   */\n      not\n        /* \"#utility.yul\":21808:21812   */\n      dup1\n        /* \"#utility.yul\":21802:21806   */\n      dup4\n        /* \"#utility.yul\":21798:21813   */\n      and\n        /* \"#utility.yul\":21788:21813   */\n      swap2\n      pop\n        /* \"#utility.yul\":21701:21819   */\n      pop\n        /* \"#utility.yul\":21650:21819   */\n      swap3\n      swap2\n      pop\n      pop\n      jump\t// out\n        /* \"#utility.yul\":21824:22119   */\n    tag_299:\n        /* \"#utility.yul\":21900:21904   */\n      0x00\n        /* \"#utility.yul\":22046:22075   */\n      tag_532\n        /* \"#utility.yul\":22071:22074   */\n      dup4\n        /* \"#utility.yul\":22065:22069   */\n      dup4\n        /* \"#utility.yul\":22046:22075   */\n      tag_298\n      jump\t// in\n    tag_532:\n        /* \"#utility.yul\":22038:22075   */\n      swap2\n      pop\n        /* \"#utility.yul\":22108:22111   */\n      dup3\n        /* \"#utility.yul\":22105:22106   */\n      0x02\n        /* \"#utility.yul\":22101:22112   */\n      mul\n        /* \"#utility.yul\":22095:22099   */\n      dup3\n        /* \"#utility.yul\":22092:22113   */\n      or\n        /* \"#utility.yul\":22084:22113   */\n      swap1\n      pop\n        /* \"#utility.yul\":21824:22119   */\n      swap3\n      swap2\n      pop\n      pop\n      jump\t// out\n        /* \"#utility.yul\":22124:23519   */\n    tag_112:\n        /* \"#utility.yul\":22241:22278   */\n      tag_534\n        /* \"#utility.yul\":22274:22277   */\n      dup3\n        /* \"#utility.yul\":22241:22278   */\n      tag_269\n      jump\t// in\n    tag_534:\n        /* \"#utility.yul\":22343:22361   */\n      0xffffffffffffffff\n        /* \"#utility.yul\":22335:22341   */\n      dup2\n        /* \"#utility.yul\":22332:22362   */\n      gt\n        /* \"#utility.yul\":22329:22385   */\n      iszero\n      tag_535\n      jumpi\n        /* \"#utility.yul\":22365:22383   */\n      tag_536\n      tag_127\n      jump\t// in\n    tag_536:\n        /* \"#utility.yul\":22329:22385   */\n    tag_535:\n        /* \"#utility.yul\":22409:22447   */\n      tag_537\n        /* \"#utility.yul\":22441:22445   */\n      dup3\n        /* \"#utility.yul\":22435:22446   */\n      sload\n        /* \"#utility.yul\":22409:22447   */\n      tag_91\n      jump\t// in\n    tag_537:\n        /* \"#utility.yul\":22494:22561   */\n      tag_538\n        /* \"#utility.yul\":22554:22560   */\n      dup3\n        /* \"#utility.yul\":22546:22552   */\n      dup3\n        /* \"#utility.yul\":22540:22544   */\n      dup6\n        /* \"#utility.yul\":22494:22561   */\n      tag_296\n      jump\t// in\n    tag_538:\n        /* \"#utility.yul\":22588:22589   */\n      0x00\n        /* \"#utility.yul\":22612:22616   */\n      0x20\n        /* \"#utility.yul\":22599:22616   */\n      swap1\n      pop\n        /* \"#utility.yul\":22644:22646   */\n      0x1f\n        /* \"#utility.yul\":22636:22642   */\n      dup4\n        /* \"#utility.yul\":22633:22647   */\n      gt\n        /* \"#utility.yul\":22661:22662   */\n      0x01\n        /* \"#utility.yul\":22656:23274   */\n      dup2\n      eq\n      tag_540\n      jumpi\n        /* \"#utility.yul\":23318:23319   */\n      0x00\n        /* \"#utility.yul\":23335:23341   */\n      dup5\n        /* \"#utility.yul\":23332:23409   */\n      iszero\n      tag_541\n      jumpi\n        /* \"#utility.yul\":23384:23393   */\n      dup3\n        /* \"#utility.yul\":23379:23382   */\n      dup8\n        /* \"#utility.yul\":23375:23394   */\n      add\n        /* \"#utility.yul\":23369:23395   */\n      mload\n        /* \"#utility.yul\":23360:23395   */\n      swap1\n      pop\n        /* \"#utility.yul\":23332:23409   */\n    tag_541:\n        /* \"#utility.yul\":23435:23502   */\n      tag_542\n        /* \"#utility.yul\":23495:23501   */\n      dup6\n        /* \"#utility.yul\":23488:23493   */\n      dup3\n        /* \"#utility.yul\":23435:23502   */\n      tag_299\n      jump\t// in\n    tag_542:\n        /* \"#utility.yul\":23429:23433   */\n      dup7\n        /* \"#utility.yul\":23422:23503   */\n      sstore\n        /* \"#utility.yul\":23291:23513   */\n      pop\n        /* \"#utility.yul\":22626:23513   */\n      jump(tag_539)\n        /* \"#utility.yul\":22656:23274   */\n    tag_540:\n        /* \"#utility.yul\":22708:22712   */\n      0x1f\n        /* \"#utility.yul\":22704:22713   */\n      not\n        /* \"#utility.yul\":22696:22702   */\n      dup5\n        /* \"#utility.yul\":22692:22714   */\n      and\n        /* \"#utility.yul\":22742:22779   */\n      tag_543\n        /* \"#utility.yul\":22774:22778   */\n      dup7\n        /* \"#utility.yul\":22742:22779   */\n      tag_285\n      jump\t// in\n    tag_543:\n        /* \"#utility.yul\":22801:22802   */\n      0x00\n        /* \"#utility.yul\":22815:23023   */\n    tag_544:\n        /* \"#utility.yul\":22829:22836   */\n      dup3\n        /* \"#utility.yul\":22826:22827   */\n      dup2\n        /* \"#utility.yul\":22823:22837   */\n      lt\n        /* \"#utility.yul\":22815:23023   */\n      iszero\n      tag_546\n      jumpi\n        /* \"#utility.yul\":22908:22917   */\n      dup5\n        /* \"#utility.yul\":22903:22906   */\n      dup10\n        /* \"#utility.yul\":22899:22918   */\n      add\n        /* \"#utility.yul\":22893:22919   */\n      mload\n        /* \"#utility.yul\":22885:22891   */\n      dup3\n        /* \"#utility.yul\":22878:22920   */\n      sstore\n        /* \"#utility.yul\":22959:22960   */\n      0x01\n        /* \"#utility.yul\":22951:22957   */\n      dup3\n        /* \"#utility.yul\":22947:22961   */\n      add\n        /* \"#utility.yul\":22937:22961   */\n      swap2\n      pop\n        /* \"#utility.yul\":23006:23008   */\n      0x20\n        /* \"#utility.yul\":22995:23004   */\n      dup6\n        /* \"#utility.yul\":22991:23009   */\n      add\n        /* \"#utility.yul\":22978:23009   */\n      swap5\n      pop\n        /* \"#utility.yul\":22852:22856   */\n      0x20\n        /* \"#utility.yul\":22849:22850   */\n      dup2\n        /* \"#utility.yul\":22845:22857   */\n      add\n        /* \"#utility.yul\":22840:22857   */\n      swap1\n      pop\n        /* \"#utility.yul\":22815:23023   */\n      jump(tag_544)\n    tag_546:\n        /* \"#utility.yul\":23051:23057   */\n      dup7\n        /* \"#utility.yul\":23042:23049   */\n      dup4\n        /* \"#utility.yul\":23039:23058   */\n      lt\n        /* \"#utility.yul\":23036:23215   */\n      iszero\n      tag_547\n      jumpi\n        /* \"#utility.yul\":23109:23118   */\n      dup5\n        /* \"#utility.yul\":23104:23107   */\n      dup10\n        /* \"#utility.yul\":23100:23119   */\n      add\n        /* \"#utility.yul\":23094:23120   */\n      mload\n        /* \"#utility.yul\":23152:23200   */\n      tag_548\n        /* \"#utility.yul\":23194:23198   */\n      0x1f\n        /* \"#utility.yul\":23186:23192   */\n      dup10\n        /* \"#utility.yul\":23182:23199   */\n      and\n        /* \"#utility.yul\":23171:23180   */\n      dup3\n        /* \"#utility.yul\":23152:23200   */\n      tag_298\n      jump\t// in\n    tag_548:\n        /* \"#utility.yul\":23144:23150   */\n      dup4\n        /* \"#utility.yul\":23137:23201   */\n      sstore\n        /* \"#utility.yul\":23059:23215   */\n      pop\n        /* \"#utility.yul\":23036:23215   */\n    tag_547:\n        /* \"#utility.yul\":23261:23262   */\n      0x01\n        /* \"#utility.yul\":23257:23258   */\n      0x02\n        /* \"#utility.yul\":23249:23255   */\n      dup9\n        /* \"#utility.yul\":23245:23259   */\n      mul\n        /* \"#utility.yul\":23241:23263   */\n      add\n        /* \"#utility.yul\":23235:23239   */\n      dup9\n        /* \"#utility.yul\":23228:23264   */\n      sstore\n        /* \"#utility.yul\":22663:23274   */\n      pop\n      pop\n      pop\n        /* \"#utility.yul\":22626:23513   */\n    tag_539:\n      pop\n        /* \"#utility.yul\":22216:23519   */\n      pop\n      pop\n      pop\n        /* \"#utility.yul\":22124:23519   */\n      pop\n      pop\n      jump\t// out\n        /* \"#utility.yul\":23525:23705   */\n    tag_300:\n        /* \"#utility.yul\":23573:23650   */\n      0x4e487b7100000000000000000000000000000000000000000000000000000000\n        /* \"#utility.yul\":23570:23571   */\n      0x00\n        /* \"#utility.yul\":23563:23651   */\n      mstore\n        /* \"#utility.yul\":23670:23674   */\n      0x11\n        /* \"#utility.yul\":23667:23668   */\n      0x04\n        /* \"#utility.yul\":23660:23675   */\n      mstore\n        /* \"#utility.yul\":23694:23698   */\n      0x24\n        /* \"#utility.yul\":23691:23692   */\n      0x00\n        /* \"#utility.yul\":23684:23699   */\n      revert\n        /* \"#utility.yul\":23711:23902   */\n    tag_118:\n        /* \"#utility.yul\":23751:23754   */\n      0x00\n        /* \"#utility.yul\":23770:23790   */\n      tag_551\n        /* \"#utility.yul\":23788:23789   */\n      dup3\n        /* \"#utility.yul\":23770:23790   */\n      tag_252\n      jump\t// in\n    tag_551:\n        /* \"#utility.yul\":23765:23790   */\n      swap2\n      pop\n        /* \"#utility.yul\":23804:23824   */\n      tag_552\n        /* \"#utility.yul\":23822:23823   */\n      dup4\n        /* \"#utility.yul\":23804:23824   */\n      tag_252\n      jump\t// in\n    tag_552:\n        /* \"#utility.yul\":23799:23824   */\n      swap3\n      pop\n        /* \"#utility.yul\":23847:23848   */\n      dup3\n        /* \"#utility.yul\":23844:23845   */\n      dup3\n        /* \"#utility.yul\":23840:23849   */\n      add\n        /* \"#utility.yul\":23833:23849   */\n      swap1\n      pop\n        /* \"#utility.yul\":23868:23871   */\n      dup1\n        /* \"#utility.yul\":23865:23866   */\n      dup3\n        /* \"#utility.yul\":23862:23872   */\n      gt\n        /* \"#utility.yul\":23859:23895   */\n      iszero\n      tag_553\n      jumpi\n        /* \"#utility.yul\":23875:23893   */\n      tag_554\n      tag_300\n      jump\t// in\n    tag_554:\n        /* \"#utility.yul\":23859:23895   */\n    tag_553:\n        /* \"#utility.yul\":23711:23902   */\n      swap3\n      swap2\n      pop\n      pop\n      jump\t// out\n        /* \"#utility.yul\":23908:24088   */\n    tag_134:\n        /* \"#utility.yul\":23956:24033   */\n      0x4e487b7100000000000000000000000000000000000000000000000000000000\n        /* \"#utility.yul\":23953:23954   */\n      0x00\n        /* \"#utility.yul\":23946:24034   */\n      mstore\n        /* \"#utility.yul\":24053:24057   */\n      0x32\n        /* \"#utility.yul\":24050:24051   */\n      0x04\n        /* \"#utility.yul\":24043:24058   */\n      mstore\n        /* \"#utility.yul\":24077:24081   */\n      0x24\n        /* \"#utility.yul\":24074:24075   */\n      0x00\n        /* \"#utility.yul\":24067:24082   */\n      revert\n        /* \"#utility.yul\":24094:24327   */\n    tag_139:\n        /* \"#utility.yul\":24133:24136   */\n      0x00\n        /* \"#utility.yul\":24156:24180   */\n      tag_557\n        /* \"#utility.yul\":24174:24179   */\n      dup3\n        /* \"#utility.yul\":24156:24180   */\n      tag_252\n      jump\t// in\n    tag_557:\n        /* \"#utility.yul\":24147:24180   */\n      swap2\n      pop\n        /* \"#utility.yul\":24202:24268   */\n      0xffffffffffffffffffffffffffffffffffffffffffffffffffffffffffffffff\n        /* \"#utility.yul\":24195:24200   */\n      dup3\n        /* \"#utility.yul\":24192:24269   */\n      sub\n        /* \"#utility.yul\":24189:24292   */\n      tag_558\n      jumpi\n        /* \"#utility.yul\":24272:24290   */\n      tag_559\n      tag_300\n      jump\t// in\n    tag_559:\n        /* \"#utility.yul\":24189:24292   */\n    tag_558:\n        /* \"#utility.yul\":24319:24320   */\n      0x01\n        /* \"#utility.yul\":24312:24317   */\n      dup3\n        /* \"#utility.yul\":24308:24321   */\n      add\n        /* \"#utility.yul\":24301:24321   */\n      swap1\n      pop\n        /* \"#utility.yul\":24094:24327   */\n      swap2\n      swap1\n      pop\n      jump\t// out\n        /* \"#utility.yul\":24333:24554   */\n    tag_301:\n        /* \"#utility.yul\":24473:24507   */\n      0x6f6e6c79206d61737465722061646d696e2063616e2061646420746865207573\n        /* \"#utility.yul\":24469:24470   */\n      0x00\n        /* \"#utility.yul\":24461:24467   */\n      dup3\n        /* \"#utility.yul\":24457:24471   */\n      add\n        /* \"#utility.yul\":24450:24508   */\n      mstore\n        /* \"#utility.yul\":24542:24546   */\n      0x6572000000000000000000000000000000000000000000000000000000000000\n        /* \"#utility.yul\":24537:24539   */\n      0x20\n        /* \"#utility.yul\":24529:24535   */\n      dup3\n        /* \"#utility.yul\":24525:24540   */\n      add\n        /* \"#utility.yul\":24518:24547   */\n      mstore\n        /* \"#utility.yul\":24333:24554   */\n      pop\n      jump\t// out\n        /* \"#utility.yul\":24560:24926   */\n    tag_302:\n        /* \"#utility.yul\":24702:24705   */\n      0x00\n        /* \"#utility.yul\":24723:24790   */\n      tag_562\n        /* \"#utility.yul\":24787:24789   */\n      0x22\n        /* \"#utility.yul\":24782:24785   */\n      dup4\n        /* \"#utility.yul\":24723:24790   */\n      tag_270\n      jump\t// in\n    tag_562:\n        /* \"#utility.yul\":24716:24790   */\n      swap2\n      pop\n        /* \"#utility.yul\":24799:24892   */\n      tag_563\n        /* \"#utility.yul\":24888:24891   */\n      dup3\n        /* \"#utility.yul\":24799:24892   */\n      tag_301\n      jump\t// in\n    tag_563:\n        /* \"#utility.yul\":24917:24919   */\n      0x40\n        /* \"#utility.yul\":24912:24915   */\n      dup3\n        /* \"#utility.yul\":24908:24920   */\n      add\n        /* \"#utility.yul\":24901:24920   */\n      swap1\n      pop\n        /* \"#utility.yul\":24560:24926   */\n      swap2\n      swap1\n      pop\n      jump\t// out\n        /* \"#utility.yul\":24932:25351   */\n    tag_166:\n        /* \"#utility.yul\":25098:25102   */\n      0x00\n        /* \"#utility.yul\":25136:25138   */\n      0x20\n        /* \"#utility.yul\":25125:25134   */\n      dup3\n        /* \"#utility.yul\":25121:25139   */\n      add\n        /* \"#utility.yul\":25113:25139   */\n      swap1\n      pop\n        /* \"#utility.yul\":25185:25194   */\n      dup2\n        /* \"#utility.yul\":25179:25183   */\n      dup2\n        /* \"#utility.yul\":25175:25195   */\n      sub\n        /* \"#utility.yul\":25171:25172   */\n      0x00\n        /* \"#utility.yul\":25160:25169   */\n      dup4\n        /* \"#utility.yul\":25156:25173   */\n      add\n        /* \"#utility.yul\":25149:25196   */\n      mstore\n        /* \"#utility.yul\":25213:25344   */\n      tag_565\n        /* \"#utility.yul\":25339:25343   */\n      dup2\n        /* \"#utility.yul\":25213:25344   */\n      tag_302\n      jump\t// in\n    tag_565:\n        /* \"#utility.yul\":25205:25344   */\n      swap1\n      pop\n        /* \"#utility.yul\":24932:25351   */\n      swap2\n      swap1\n      pop\n      jump\t// out\n        /* \"#utility.yul\":25357:25525   */\n    tag_303:\n        /* \"#utility.yul\":25497:25517   */\n      0x7573657220646f65736e27742065786973740000000000000000000000000000\n        /* \"#utility.yul\":25493:25494   */\n      0x00\n        /* \"#utility.yul\":25485:25491   */\n      dup3\n        /* \"#utility.yul\":25481:25495   */\n      add\n        /* \"#utility.yul\":25474:25518   */\n      mstore\n        /* \"#utility.yul\":25357:25525   */\n      pop\n      jump\t// out\n        /* \"#utility.yul\":25531:25897   */\n    tag_304:\n        /* \"#utility.yul\":25673:25676   */\n      0x00\n        /* \"#utility.yul\":25694:25761   */\n      tag_568\n        /* \"#utility.yul\":25758:25760   */\n      0x12\n        /* \"#utility.yul\":25753:25756   */\n      dup4\n        /* \"#utility.yul\":25694:25761   */\n      tag_270\n      jump\t// in\n    tag_568:\n        /* \"#utility.yul\":25687:25761   */\n      swap2\n      pop\n        /* \"#utility.yul\":25770:25863   */\n      tag_569\n        /* \"#utility.yul\":25859:25862   */\n      dup3\n        /* \"#utility.yul\":25770:25863   */\n      tag_303\n      jump\t// in\n    tag_569:\n        /* \"#utility.yul\":25888:25890   */\n      0x20\n        /* \"#utility.yul\":25883:25886   */\n      dup3\n        /* \"#utility.yul\":25879:25891   */\n      add\n        /* \"#utility.yul\":25872:25891   */\n      swap1\n      pop\n        /* \"#utility.yul\":25531:25897   */\n      swap2\n      swap1\n      pop\n      jump\t// out\n        /* \"#utility.yul\":25903:26322   */\n    tag_170:\n        /* \"#utility.yul\":26069:26073   */\n      0x00\n        /* \"#utility.yul\":26107:26109   */\n      0x20\n        /* \"#utility.yul\":26096:26105   */\n      dup3\n        /* \"#utility.yul\":26092:26110   */\n      add\n        /* \"#utility.yul\":26084:26110   */\n      swap1\n      pop\n        /* \"#utility.yul\":26156:26165   */\n      dup2\n        /* \"#utility.yul\":26150:26154   */\n      dup2\n        /* \"#utility.yul\":26146:26166   */\n      sub\n        /* \"#utility.yul\":26142:26143   */\n      0x00\n        /* \"#utility.yul\":26131:26140   */\n      dup4\n        /* \"#utility.yul\":26127:26144   */\n      add\n        /* \"#utility.yul\":26120:26167   */\n      mstore\n        /* \"#utility.yul\":26184:26315   */\n      tag_571\n        /* \"#utility.yul\":26310:26314   */\n      dup2\n        /* \"#utility.yul\":26184:26315   */\n      tag_304\n      jump\t// in\n    tag_571:\n        /* \"#utility.yul\":26176:26315   */\n      swap1\n      pop\n        /* \"#utility.yul\":25903:26322   */\n      swap2\n      swap1\n      pop\n      jump\t// out\n        /* \"#utility.yul\":26328:26476   */\n    tag_305:\n        /* \"#utility.yul\":26430:26441   */\n      0x00\n        /* \"#utility.yul\":26467:26470   */\n      dup2\n        /* \"#utility.yul\":26452:26470   */\n      swap1\n      pop\n        /* \"#utility.yul\":26328:26476   */\n      swap3\n      swap2\n      pop\n      pop\n      jump\t// out\n        /* \"#utility.yul\":26482:26872   */\n    tag_306:\n        /* \"#utility.yul\":26588:26591   */\n      0x00\n        /* \"#utility.yul\":26616:26655   */\n      tag_574\n        /* \"#utility.yul\":26649:26654   */\n      dup3\n        /* \"#utility.yul\":26616:26655   */\n      tag_269\n      jump\t// in\n    tag_574:\n        /* \"#utility.yul\":26671:26760   */\n      tag_575\n        /* \"#utility.yul\":26753:26759   */\n      dup2\n        /* \"#utility.yul\":26748:26751   */\n      dup6\n        /* \"#utility.yul\":26671:26760   */\n      tag_305\n      jump\t// in\n    tag_575:\n        /* \"#utility.yul\":26664:26760   */\n      swap4\n      pop\n        /* \"#utility.yul\":26769:26834   */\n      tag_576\n        /* \"#utility.yul\":26827:26833   */\n      dup2\n        /* \"#utility.yul\":26822:26825   */\n      dup6\n        /* \"#utility.yul\":26815:26819   */\n      0x20\n        /* \"#utility.yul\":26808:26813   */\n      dup7\n        /* \"#utility.yul\":26804:26820   */\n      add\n        /* \"#utility.yul\":26769:26834   */\n      tag_271\n      jump\t// in\n    tag_576:\n        /* \"#utility.yul\":26859:26865   */\n      dup1\n        /* \"#utility.yul\":26854:26857   */\n      dup5\n        /* \"#utility.yul\":26850:26866   */\n      add\n        /* \"#utility.yul\":26843:26866   */\n      swap2\n      pop\n        /* \"#utility.yul\":26592:26872   */\n      pop\n        /* \"#utility.yul\":26482:26872   */\n      swap3\n      swap2\n      pop\n      pop\n      jump\t// out\n        /* \"#utility.yul\":26878:27153   */\n    tag_178:\n        /* \"#utility.yul\":27010:27013   */\n      0x00\n        /* \"#utility.yul\":27032:27127   */\n      tag_578\n        /* \"#utility.yul\":27123:27126   */\n      dup3\n        /* \"#utility.yul\":27114:27120   */\n      dup5\n        /* \"#utility.yul\":27032:27127   */\n      tag_306\n      jump\t// in\n    tag_578:\n        /* \"#utility.yul\":27025:27127   */\n      swap2\n      pop\n        /* \"#utility.yul\":27144:27147   */\n      dup2\n        /* \"#utility.yul\":27137:27147   */\n      swap1\n      pop\n        /* \"#utility.yul\":26878:27153   */\n      swap3\n      swap2\n      pop\n      pop\n      jump\t// out\n        /* \"#utility.yul\":27159:27336   */\n    tag_307:\n        /* \"#utility.yul\":27299:27328   */\n      0x696e636f727265637420656d61696c206f722070617373776f72640000000000\n        /* \"#utility.yul\":27295:27296   */\n      0x00\n        /* \"#utility.yul\":27287:27293   */\n      dup3\n        /* \"#utility.yul\":27283:27297   */\n      add\n        /* \"#utility.yul\":27276:27329   */\n      mstore\n        /* \"#utility.yul\":27159:27336   */\n      pop\n      jump\t// out\n        /* \"#utility.yul\":27342:27708   */\n    tag_308:\n        /* \"#utility.yul\":27484:27487   */\n      0x00\n        /* \"#utility.yul\":27505:27572   */\n      tag_581\n        /* \"#utility.yul\":27569:27571   */\n      0x1b\n        /* \"#utility.yul\":27564:27567   */\n      dup4\n        /* \"#utility.yul\":27505:27572   */\n      tag_270\n      jump\t// in\n    tag_581:\n        /* \"#utility.yul\":27498:27572   */\n      swap2\n      pop\n        /* \"#utility.yul\":27581:27674   */\n      tag_582\n        /* \"#utility.yul\":27670:27673   */\n      dup3\n        /* \"#utility.yul\":27581:27674   */\n      tag_307\n      jump\t// in\n    tag_582:\n        /* \"#utility.yul\":27699:27701   */\n      0x20\n        /* \"#utility.yul\":27694:27697   */\n      dup3\n        /* \"#utility.yul\":27690:27702   */\n      add\n        /* \"#utility.yul\":27683:27702   */\n      swap1\n      pop\n        /* \"#utility.yul\":27342:27708   */\n      swap2\n      swap1\n      pop\n      jump\t// out\n        /* \"#utility.yul\":27714:28133   */\n    tag_200:\n        /* \"#utility.yul\":27880:27884   */\n      0x00\n        /* \"#utility.yul\":27918:27920   */\n      0x20\n        /* \"#utility.yul\":27907:27916   */\n      dup3\n        /* \"#utility.yul\":27903:27921   */\n      add\n        /* \"#utility.yul\":27895:27921   */\n      swap1\n      pop\n        /* \"#utility.yul\":27967:27976   */\n      dup2\n        /* \"#utility.yul\":27961:27965   */\n      dup2\n        /* \"#utility.yul\":27957:27977   */\n      sub\n        /* \"#utility.yul\":27953:27954   */\n      0x00\n        /* \"#utility.yul\":27942:27951   */\n      dup4\n        /* \"#utility.yul\":27938:27955   */\n      add\n        /* \"#utility.yul\":27931:27978   */\n      mstore\n        /* \"#utility.yul\":27995:28126   */\n      tag_584\n        /* \"#utility.yul\":28121:28125   */\n      dup2\n        /* \"#utility.yul\":27995:28126   */\n      tag_308\n      jump\t// in\n    tag_584:\n        /* \"#utility.yul\":27987:28126   */\n      swap1\n      pop\n        /* \"#utility.yul\":27714:28133   */\n      swap2\n      swap1\n      pop\n      jump\t// out\n\n    auxdata: 0xa2646970667358221220b8a7d17867bd84a519c2a98479f8eba1956c1e16d8fdc1aa0416b1e227fa843564736f6c63430008160033\n}\n",
				"bytecode": {
					"linkReferences": {},
					"object": "60806040525f6004555f600555348015610017575f80fd5b503360065f6101000a81548173ffffffffffffffffffffffffffffffffffffffff021916908373ffffffffffffffffffffffffffffffffffffffff160217905550600160048190555061265d8061006d5f395ff3fe608060405234801561000f575f80fd5b50600436106100f3575f3560e01c80636a228aba11610095578063d0e9381211610064578063d0e93812146102c6578063d9fa9c1a146102f6578063dca2c3e414610326578063e5a43c7c14610356576100f3565b80636a228aba1461021857806372f305eb1461023657806375b8318714610266578063aff125f614610296576100f3565b80633c48aa79116100d15780633c48aa79146101635780634ed38faf146101945780636438176c146101ca57806367e1cde0146101e8576100f3565b8063239d6933146100f75780632a68f64e1461012757806331ae450b14610145575b5f80fd5b610111600480360381019061010c9190611a1b565b610374565b60405161011e9190611b56565b60405180910390f35b61012f610a2f565b60405161013c9190611b7e565b60405180910390f35b61014d610a54565b60405161015a9190611c4e565b60405180910390f35b61017d60048036038101906101789190611c6e565b610b5d565b60405161018b929190611d0c565b60405180910390f35b6101ae60048036038101906101a99190611c6e565b610ba8565b6040516101c19796959493929190611dfc565b60405180910390f35b6101d2610e50565b6040516101df9190611e96565b60405180910390f35b61020260048036038101906101fd9190611c6e565b610e59565b60405161020f9190611b7e565b60405180910390f35b61022061103d565b60405161022d9190611b7e565b60405180910390f35b610250600480360381019061024b9190611eaf565b611065565b60405161025d9190611b7e565b60405180910390f35b610280600480360381019061027b9190611eda565b6110a0565b60405161028d9190611b56565b60405180910390f35b6102b060048036038101906102ab9190611eaf565b6110f8565b6040516102bd9190611b7e565b60405180910390f35b6102e060048036038101906102db9190611f50565b611132565b6040516102ed9190611b56565b60405180910390f35b610310600480360381019061030b9190611c6e565b61133e565b60405161031d9190611b56565b60405180910390f35b610340600480360381019061033b9190611c6e565b6113a3565b60405161034d9190611b7e565b60405180910390f35b61035e611656565b60405161036b91906120bc565b60405180910390f35b5f8073ffffffffffffffffffffffffffffffffffffffff1660015f8773ffffffffffffffffffffffffffffffffffffffff1673ffffffffffffffffffffffffffffffffffffffff1681526020019081526020015f206004015f9054906101000a900473ffffffffffffffffffffffffffffffffffffffff1673ffffffffffffffffffffffffffffffffffffffff160361092a575f60405180606001604052808681526020018581526020018481525090505f60015f8873ffffffffffffffffffffffffffffffffffffffff1673ffffffffffffffffffffffffffffffffffffffff1681526020019081526020015f206040518060e00160405290815f8201805461047d90612109565b80601f01602080910402602001604051908101604052809291908181526020018280546104a990612109565b80156104f45780601f106104cb576101008083540402835291602001916104f4565b820191905f5260205f20905b8154815290600101906020018083116104d757829003601f168201915b5050505050815260200160018201805461050d90612109565b80601f016020809104026020016040519081016040528092919081815260200182805461053990612109565b80156105845780601f1061055b57610100808354040283529160200191610584565b820191905f5260205f20905b81548152906001019060200180831161056757829003601f168201915b5050505050815260200160028201805461059d90612109565b80601f01602080910402602001604051908101604052809291908181526020018280546105c990612109565b80156106145780601f106105eb57610100808354040283529160200191610614565b820191905f5260205f20905b8154815290600101906020018083116105f757829003601f168201915b5050505050815260200160038201805461062d90612109565b80601f016020809104026020016040519081016040528092919081815260200182805461065990612109565b80156106a45780601f1061067b576101008083540402835291602001916106a4565b820191905f5260205f20905b81548152906001019060200180831161068757829003601f168201915b50505050508152602001600482015f9054906101000a900473ffffffffffffffffffffffffffffffffffffffff1673ffffffffffffffffffffffffffffffffffffffff1673ffffffffffffffffffffffffffffffffffffffff168152602001600582016040518060600160405290815f8201548152602001600182015481526020016002820154815250508152602001600882015f9054906101000a900460ff16151515158152505090508a815f0181905250898160200181905250888160400181905250878160600181905250818160a001819052505f8160c00190151590811515815250508060015f8973ffffffffffffffffffffffffffffffffffffffff1673ffffffffffffffffffffffffffffffffffffffff1681526020019081526020015f205f820151815f0190816107dc91906122d6565b5060208201518160010190816107f291906122d6565b50604082015181600201908161080891906122d6565b50606082015181600301908161081e91906122d6565b506080820151816004015f6101000a81548173ffffffffffffffffffffffffffffffffffffffff021916908373ffffffffffffffffffffffffffffffffffffffff16021790555060a0820151816005015f820151815f01556020820151816001015560408201518160020155505060c0820151816008015f6101000a81548160ff021916908315150217905550905050600287908060018154018082558091505060019003905f5260205f20015f9091909190916101000a81548173ffffffffffffffffffffffffffffffffffffffff021916908373ffffffffffffffffffffffffffffffffffffffff160217905550600160055f82825461092091906123d2565b9250508190555050505b5f60405180604001604052808773ffffffffffffffffffffffffffffffffffffffff1681526020015f600281111561096557610964611c99565b5b81525090508060035f8873ffffffffffffffffffffffffffffffffffffffff1673ffffffffffffffffffffffffffffffffffffffff1681526020019081526020015f205f820151815f015f6101000a81548173ffffffffffffffffffffffffffffffffffffffff021916908373ffffffffffffffffffffffffffffffffffffffff1602179055506020820151815f0160146101000a81548160ff02191690836002811115610a1657610a15611c99565b5b0217905550905050600191505098975050505050505050565b60065f9054906101000a900473ffffffffffffffffffffffffffffffffffffffff1681565b60605f60045467ffffffffffffffff811115610a7357610a7261186a565b5b604051908082528060200260200182016040528015610aa15781602001602082028036833780820191505090505b5090505f805b600454811015610b54575f8181548110610ac457610ac3612405565b5b905f5260205f20015f9054906101000a900473ffffffffffffffffffffffffffffffffffffffff16838281518110610aff57610afe612405565b5b602002602001019073ffffffffffffffffffffffffffffffffffffffff16908173ffffffffffffffffffffffffffffffffffffffff16815250508180610b4490612432565b9250508080600101915050610aa7565b50819250505090565b6003602052805f5260405f205f91509050805f015f9054906101000a900473ffffffffffffffffffffffffffffffffffffffff1690805f0160149054906101000a900460ff16905082565b6001602052805f5260405f205f91509050805f018054610bc790612109565b80601f0160208091040260200160405190810160405280929190818152602001828054610bf390612109565b8015610c3e5780601f10610c1557610100808354040283529160200191610c3e565b820191905f5260205f20905b815481529060010190602001808311610c2157829003601f168201915b505050505090806001018054610c5390612109565b80601f0160208091040260200160405190810160405280929190818152602001828054610c7f90612109565b8015610cca5780601f10610ca157610100808354040283529160200191610cca565b820191905f5260205f20905b815481529060010190602001808311610cad57829003601f168201915b505050505090806002018054610cdf90612109565b80601f0160208091040260200160405190810160405280929190818152602001828054610d0b90612109565b8015610d565780601f10610d2d57610100808354040283529160200191610d56565b820191905f5260205f20905b815481529060010190602001808311610d3957829003601f168201915b505050505090806003018054610d6b90612109565b80601f0160208091040260200160405190810160405280929190818152602001828054610d9790612109565b8015610de25780601f10610db957610100808354040283529160200191610de2565b820191905f5260205f20905b815481529060010190602001808311610dc557829003601f168201915b505050505090806004015f9054906101000a900473ffffffffffffffffffffffffffffffffffffffff1690806005016040518060600160405290815f82015481526020016001820154815260200160028201548152505090806008015f9054906101000a900460ff16905087565b5f600454905090565b5f60065f9054906101000a900473ffffffffffffffffffffffffffffffffffffffff1673ffffffffffffffffffffffffffffffffffffffff163373ffffffffffffffffffffffffffffffffffffffff161480610f0057505f60015f3373ffffffffffffffffffffffffffffffffffffffff1673ffffffffffffffffffffffffffffffffffffffff1681526020019081526020015f206002018054610efc90612109565b9050115b610f3f576040517f08c379a0000000000000000000000000000000000000000000000000000000008152600401610f36906124e9565b60405180910390fd5b5f60015f3373ffffffffffffffffffffffffffffffffffffffff1673ffffffffffffffffffffffffffffffffffffffff1681526020019081526020015f206002018054610f8b90612109565b905003610fcd576040517f08c379a0000000000000000000000000000000000000000000000000000000008152600401610fc490612551565b60405180910390fd5b600260035f8473ffffffffffffffffffffffffffffffffffffffff1673ffffffffffffffffffffffffffffffffffffffff1681526020019081526020015f205f0160146101000a81548160ff021916908360028111156110305761102f611c99565b5b0217905550819050919050565b5f60065f9054906101000a900473ffffffffffffffffffffffffffffffffffffffff16905090565b60028181548110611074575f80fd5b905f5260205f20015f915054906101000a900473ffffffffffffffffffffffffffffffffffffffff1681565b5f816040516020016110b291906125a9565b60405160208183030381529060405280519060200120836040516020016110d991906125a9565b6040516020818303038152906040528051906020012014905092915050565b5f8181548110611106575f80fd5b905f5260205f20015f915054906101000a900473ffffffffffffffffffffffffffffffffffffffff1681565b5f61113c8261133e565b156113335761121160015f8473ffffffffffffffffffffffffffffffffffffffff1673ffffffffffffffffffffffffffffffffffffffff1681526020019081526020015f20600201805461118f90612109565b80601f01602080910402602001604051908101604052809291908181526020018280546111bb90612109565b80156112065780601f106111dd57610100808354040283529160200191611206565b820191905f5260205f20905b8154815290600101906020018083116111e957829003601f168201915b5050505050856110a0565b15806112ea57506112e860015f8473ffffffffffffffffffffffffffffffffffffffff1673ffffffffffffffffffffffffffffffffffffffff1681526020019081526020015f20600301805461126690612109565b80601f016020809104026020016040519081016040528092919081815260200182805461129290612109565b80156112dd5780601f106112b4576101008083540402835291602001916112dd565b820191905f5260205f20905b8154815290600101906020018083116112c057829003601f168201915b5050505050846110a0565b155b1561132a576040517f08c379a000000000000000000000000000000000000000000000000000000000815260040161132190612609565b60405180910390fd5b60019050611337565b5f90505b9392505050565b5f60015f8373ffffffffffffffffffffffffffffffffffffffff1673ffffffffffffffffffffffffffffffffffffffff1681526020019081526020015f206008015f9054906101000a900460ff161561139a576001905061139e565b5f90505b919050565b5f60065f9054906101000a900473ffffffffffffffffffffffffffffffffffffffff1673ffffffffffffffffffffffffffffffffffffffff163373ffffffffffffffffffffffffffffffffffffffff16148061144a57505f60015f3373ffffffffffffffffffffffffffffffffffffffff1673ffffffffffffffffffffffffffffffffffffffff1681526020019081526020015f20600201805461144690612109565b9050115b611489576040517f08c379a0000000000000000000000000000000000000000000000000000000008152600401611480906124e9565b60405180910390fd5b5f60015f3373ffffffffffffffffffffffffffffffffffffffff1673ffffffffffffffffffffffffffffffffffffffff1681526020019081526020015f2060020180546114d590612109565b905003611517576040517f08c379a000000000000000000000000000000000000000000000000000000000815260040161150e90612551565b60405180910390fd5b6001805f8473ffffffffffffffffffffffffffffffffffffffff1673ffffffffffffffffffffffffffffffffffffffff1681526020019081526020015f206008015f6101000a81548160ff021916908315150217905550600160035f8473ffffffffffffffffffffffffffffffffffffffff1673ffffffffffffffffffffffffffffffffffffffff1681526020019081526020015f205f0160146101000a81548160ff021916908360028111156115d1576115d0611c99565b5b02179055505f82908060018154018082558091505060019003905f5260205f20015f9091909190916101000a81548173ffffffffffffffffffffffffffffffffffffffff021916908373ffffffffffffffffffffffffffffffffffffffff160217905550600160045f82825461164791906123d2565b92505081905550819050919050565b60605f60055467ffffffffffffffff8111156116755761167461186a565b5b6040519080825280602002602001820160405280156116ae57816020015b61169b611801565b8152602001906001900390816116935790505b5090505f5b6005548110156117f95760035f600283815481106116d4576116d3612405565b5b905f5260205f20015f9054906101000a900473ffffffffffffffffffffffffffffffffffffffff1673ffffffffffffffffffffffffffffffffffffffff1673ffffffffffffffffffffffffffffffffffffffff1681526020019081526020015f206040518060400160405290815f82015f9054906101000a900473ffffffffffffffffffffffffffffffffffffffff1673ffffffffffffffffffffffffffffffffffffffff1673ffffffffffffffffffffffffffffffffffffffff1681526020015f820160149054906101000a900460ff1660028111156117b8576117b7611c99565b5b60028111156117ca576117c9611c99565b5b815250508282815181106117e1576117e0612405565b5b602002602001018190525080806001019150506116b3565b508091505090565b60405180604001604052805f73ffffffffffffffffffffffffffffffffffffffff1681526020015f600281111561183b5761183a611c99565b5b81525090565b5f604051905090565b5f80fd5b5f80fd5b5f80fd5b5f80fd5b5f601f19601f8301169050919050565b7f4e487b71000000000000000000000000000000000000000000000000000000005f52604160045260245ffd5b6118a08261185a565b810181811067ffffffffffffffff821117156118bf576118be61186a565b5b80604052505050565b5f6118d1611841565b90506118dd8282611897565b919050565b5f67ffffffffffffffff8211156118fc576118fb61186a565b5b6119058261185a565b9050602081019050919050565b828183375f83830152505050565b5f61193261192d846118e2565b6118c8565b90508281526020810184848401111561194e5761194d611856565b5b611959848285611912565b509392505050565b5f82601f83011261197557611974611852565b5b8135611985848260208601611920565b91505092915050565b5f73ffffffffffffffffffffffffffffffffffffffff82169050919050565b5f6119b78261198e565b9050919050565b6119c7816119ad565b81146119d1575f80fd5b50565b5f813590506119e2816119be565b92915050565b5f819050919050565b6119fa816119e8565b8114611a04575f80fd5b50565b5f81359050611a15816119f1565b92915050565b5f805f805f805f80610100898b031215611a3857611a3761184a565b5b5f89013567ffffffffffffffff811115611a5557611a5461184e565b5b611a618b828c01611961565b985050602089013567ffffffffffffffff811115611a8257611a8161184e565b5b611a8e8b828c01611961565b975050604089013567ffffffffffffffff811115611aaf57611aae61184e565b5b611abb8b828c01611961565b965050606089013567ffffffffffffffff811115611adc57611adb61184e565b5b611ae88b828c01611961565b9550506080611af98b828c016119d4565b94505060a0611b0a8b828c01611a07565b93505060c0611b1b8b828c01611a07565b92505060e0611b2c8b828c01611a07565b9150509295985092959890939650565b5f8115159050919050565b611b5081611b3c565b82525050565b5f602082019050611b695f830184611b47565b92915050565b611b78816119ad565b82525050565b5f602082019050611b915f830184611b6f565b92915050565b5f81519050919050565b5f82825260208201905092915050565b5f819050602082019050919050565b611bc9816119ad565b82525050565b5f611bda8383611bc0565b60208301905092915050565b5f602082019050919050565b5f611bfc82611b97565b611c068185611ba1565b9350611c1183611bb1565b805f5b83811015611c41578151611c288882611bcf565b9750611c3383611be6565b925050600181019050611c14565b5085935050505092915050565b5f6020820190508181035f830152611c668184611bf2565b905092915050565b5f60208284031215611c8357611c8261184a565b5b5f611c90848285016119d4565b91505092915050565b7f4e487b71000000000000000000000000000000000000000000000000000000005f52602160045260245ffd5b60038110611cd757611cd6611c99565b5b50565b5f819050611ce782611cc6565b919050565b5f611cf682611cda565b9050919050565b611d0681611cec565b82525050565b5f604082019050611d1f5f830185611b6f565b611d2c6020830184611cfd565b9392505050565b5f81519050919050565b5f82825260208201905092915050565b5f5b83811015611d6a578082015181840152602081019050611d4f565b5f8484015250505050565b5f611d7f82611d33565b611d898185611d3d565b9350611d99818560208601611d4d565b611da28161185a565b840191505092915050565b611db6816119e8565b82525050565b606082015f820151611dd05f850182611dad565b506020820151611de36020850182611dad565b506040820151611df66040850182611dad565b50505050565b5f610120820190508181035f830152611e15818a611d75565b90508181036020830152611e298189611d75565b90508181036040830152611e3d8188611d75565b90508181036060830152611e518187611d75565b9050611e606080830186611b6f565b611e6d60a0830185611dbc565b611e7b610100830184611b47565b98975050505050505050565b611e90816119e8565b82525050565b5f602082019050611ea95f830184611e87565b92915050565b5f60208284031215611ec457611ec361184a565b5b5f611ed184828501611a07565b91505092915050565b5f8060408385031215611ef057611eef61184a565b5b5f83013567ffffffffffffffff811115611f0d57611f0c61184e565b5b611f1985828601611961565b925050602083013567ffffffffffffffff811115611f3a57611f3961184e565b5b611f4685828601611961565b9150509250929050565b5f805f60608486031215611f6757611f6661184a565b5b5f84013567ffffffffffffffff811115611f8457611f8361184e565b5b611f9086828701611961565b935050602084013567ffffffffffffffff811115611fb157611fb061184e565b5b611fbd86828701611961565b9250506040611fce868287016119d4565b9150509250925092565b5f81519050919050565b5f82825260208201905092915050565b5f819050602082019050919050565b61200a81611cec565b82525050565b604082015f8201516120245f850182611bc0565b5060208201516120376020850182612001565b50505050565b5f6120488383612010565b60408301905092915050565b5f602082019050919050565b5f61206a82611fd8565b6120748185611fe2565b935061207f83611ff2565b805f5b838110156120af578151612096888261203d565b97506120a183612054565b925050600181019050612082565b5085935050505092915050565b5f6020820190508181035f8301526120d48184612060565b905092915050565b7f4e487b71000000000000000000000000000000000000000000000000000000005f52602260045260245ffd5b5f600282049050600182168061212057607f821691505b602082108103612133576121326120dc565b5b50919050565b5f819050815f5260205f209050919050565b5f6020601f8301049050919050565b5f82821b905092915050565b5f600883026121957fffffffffffffffffffffffffffffffffffffffffffffffffffffffffffffffff8261215a565b61219f868361215a565b95508019841693508086168417925050509392505050565b5f819050919050565b5f6121da6121d56121d0846119e8565b6121b7565b6119e8565b9050919050565b5f819050919050565b6121f3836121c0565b6122076121ff826121e1565b848454612166565b825550505050565b5f90565b61221b61220f565b6122268184846121ea565b505050565b5b818110156122495761223e5f82612213565b60018101905061222c565b5050565b601f82111561228e5761225f81612139565b6122688461214b565b81016020851015612277578190505b61228b6122838561214b565b83018261222b565b50505b505050565b5f82821c905092915050565b5f6122ae5f1984600802612293565b1980831691505092915050565b5f6122c6838361229f565b9150826002028217905092915050565b6122df82611d33565b67ffffffffffffffff8111156122f8576122f761186a565b5b6123028254612109565b61230d82828561224d565b5f60209050601f83116001811461233e575f841561232c578287015190505b61233685826122bb565b86555061239d565b601f19841661234c86612139565b5f5b828110156123735784890151825560018201915060208501945060208101905061234e565b86831015612390578489015161238c601f89168261229f565b8355505b6001600288020188555050505b505050505050565b7f4e487b71000000000000000000000000000000000000000000000000000000005f52601160045260245ffd5b5f6123dc826119e8565b91506123e7836119e8565b92508282019050808211156123ff576123fe6123a5565b5b92915050565b7f4e487b71000000000000000000000000000000000000000000000000000000005f52603260045260245ffd5b5f61243c826119e8565b91507fffffffffffffffffffffffffffffffffffffffffffffffffffffffffffffffff820361246e5761246d6123a5565b5b600182019050919050565b7f6f6e6c79206d61737465722061646d696e2063616e20616464207468652075735f8201527f6572000000000000000000000000000000000000000000000000000000000000602082015250565b5f6124d3602283611d3d565b91506124de82612479565b604082019050919050565b5f6020820190508181035f830152612500816124c7565b9050919050565b7f7573657220646f65736e277420657869737400000000000000000000000000005f82015250565b5f61253b601283611d3d565b915061254682612507565b602082019050919050565b5f6020820190508181035f8301526125688161252f565b9050919050565b5f81905092915050565b5f61258382611d33565b61258d818561256f565b935061259d818560208601611d4d565b80840191505092915050565b5f6125b48284612579565b915081905092915050565b7f696e636f727265637420656d61696c206f722070617373776f726400000000005f82015250565b5f6125f3601b83611d3d565b91506125fe826125bf565b602082019050919050565b5f6020820190508181035f830152612620816125e7565b905091905056fea2646970667358221220b8a7d17867bd84a519c2a98479f8eba1956c1e16d8fdc1aa0416b1e227fa843564736f6c63430008160033",
					"opcodes": "PUSH1 0x80 PUSH1 0x40 MSTORE PUSH0 PUSH1 0x4 SSTORE PUSH0 PUSH1 0x5 SSTORE CALLVALUE DUP1 ISZERO PUSH2 0x17 JUMPI PUSH0 DUP1 REVERT JUMPDEST POP CALLER PUSH1 0x6 PUSH0 PUSH2 0x100 EXP DUP2 SLOAD DUP2 PUSH20 0xFFFFFFFFFFFFFFFFFFFFFFFFFFFFFFFFFFFFFFFF MUL NOT AND SWAP1 DUP4 PUSH20 0xFFFFFFFFFFFFFFFFFFFFFFFFFFFFFFFFFFFFFFFF AND MUL OR SWAP1 SSTORE POP PUSH1 0x1 PUSH1 0x4 DUP2 SWAP1 SSTORE POP PUSH2 0x265D DUP1 PUSH2 0x6D PUSH0 CODECOPY PUSH0 RETURN INVALID PUSH1 0x80 PUSH1 0x40 MSTORE CALLVALUE DUP1 ISZERO PUSH2 0xF JUMPI PUSH0 DUP1 REVERT JUMPDEST POP PUSH1 0x4 CALLDATASIZE LT PUSH2 0xF3 JUMPI PUSH0 CALLDATALOAD PUSH1 0xE0 SHR DUP1 PUSH4 0x6A228ABA GT PUSH2 0x95 JUMPI DUP1 PUSH4 0xD0E93812 GT PUSH2 0x64 JUMPI DUP1 PUSH4 0xD0E93812 EQ PUSH2 0x2C6 JUMPI DUP1 PUSH4 0xD9FA9C1A EQ PUSH2 0x2F6 JUMPI DUP1 PUSH4 0xDCA2C3E4 EQ PUSH2 0x326 JUMPI DUP1 PUSH4 0xE5A43C7C EQ PUSH2 0x356 JUMPI PUSH2 0xF3 JUMP JUMPDEST DUP1 PUSH4 0x6A228ABA EQ PUSH2 0x218 JUMPI DUP1 PUSH4 0x72F305EB EQ PUSH2 0x236 JUMPI DUP1 PUSH4 0x75B83187 EQ PUSH2 0x266 JUMPI DUP1 PUSH4 0xAFF125F6 EQ PUSH2 0x296 JUMPI PUSH2 0xF3 JUMP JUMPDEST DUP1 PUSH4 0x3C48AA79 GT PUSH2 0xD1 JUMPI DUP1 PUSH4 0x3C48AA79 EQ PUSH2 0x163 JUMPI DUP1 PUSH4 0x4ED38FAF EQ PUSH2 0x194 JUMPI DUP1 PUSH4 0x6438176C EQ PUSH2 0x1CA JUMPI DUP1 PUSH4 0x67E1CDE0 EQ PUSH2 0x1E8 JUMPI PUSH2 0xF3 JUMP JUMPDEST DUP1 PUSH4 0x239D6933 EQ PUSH2 0xF7 JUMPI DUP1 PUSH4 0x2A68F64E EQ PUSH2 0x127 JUMPI DUP1 PUSH4 0x31AE450B EQ PUSH2 0x145 JUMPI JUMPDEST PUSH0 DUP1 REVERT JUMPDEST PUSH2 0x111 PUSH1 0x4 DUP1 CALLDATASIZE SUB DUP2 ADD SWAP1 PUSH2 0x10C SWAP2 SWAP1 PUSH2 0x1A1B JUMP JUMPDEST PUSH2 0x374 JUMP JUMPDEST PUSH1 0x40 MLOAD PUSH2 0x11E SWAP2 SWAP1 PUSH2 0x1B56 JUMP JUMPDEST PUSH1 0x40 MLOAD DUP1 SWAP2 SUB SWAP1 RETURN JUMPDEST PUSH2 0x12F PUSH2 0xA2F JUMP JUMPDEST PUSH1 0x40 MLOAD PUSH2 0x13C SWAP2 SWAP1 PUSH2 0x1B7E JUMP JUMPDEST PUSH1 0x40 MLOAD DUP1 SWAP2 SUB SWAP1 RETURN JUMPDEST PUSH2 0x14D PUSH2 0xA54 JUMP JUMPDEST PUSH1 0x40 MLOAD PUSH2 0x15A SWAP2 SWAP1 PUSH2 0x1C4E JUMP JUMPDEST PUSH1 0x40 MLOAD DUP1 SWAP2 SUB SWAP1 RETURN JUMPDEST PUSH2 0x17D PUSH1 0x4 DUP1 CALLDATASIZE SUB DUP2 ADD SWAP1 PUSH2 0x178 SWAP2 SWAP1 PUSH2 0x1C6E JUMP JUMPDEST PUSH2 0xB5D JUMP JUMPDEST PUSH1 0x40 MLOAD PUSH2 0x18B SWAP3 SWAP2 SWAP1 PUSH2 0x1D0C JUMP JUMPDEST PUSH1 0x40 MLOAD DUP1 SWAP2 SUB SWAP1 RETURN JUMPDEST PUSH2 0x1AE PUSH1 0x4 DUP1 CALLDATASIZE SUB DUP2 ADD SWAP1 PUSH2 0x1A9 SWAP2 SWAP1 PUSH2 0x1C6E JUMP JUMPDEST PUSH2 0xBA8 JUMP JUMPDEST PUSH1 0x40 MLOAD PUSH2 0x1C1 SWAP8 SWAP7 SWAP6 SWAP5 SWAP4 SWAP3 SWAP2 SWAP1 PUSH2 0x1DFC JUMP JUMPDEST PUSH1 0x40 MLOAD DUP1 SWAP2 SUB SWAP1 RETURN JUMPDEST PUSH2 0x1D2 PUSH2 0xE50 JUMP JUMPDEST PUSH1 0x40 MLOAD PUSH2 0x1DF SWAP2 SWAP1 PUSH2 0x1E96 JUMP JUMPDEST PUSH1 0x40 MLOAD DUP1 SWAP2 SUB SWAP1 RETURN JUMPDEST PUSH2 0x202 PUSH1 0x4 DUP1 CALLDATASIZE SUB DUP2 ADD SWAP1 PUSH2 0x1FD SWAP2 SWAP1 PUSH2 0x1C6E JUMP JUMPDEST PUSH2 0xE59 JUMP JUMPDEST PUSH1 0x40 MLOAD PUSH2 0x20F SWAP2 SWAP1 PUSH2 0x1B7E JUMP JUMPDEST PUSH1 0x40 MLOAD DUP1 SWAP2 SUB SWAP1 RETURN JUMPDEST PUSH2 0x220 PUSH2 0x103D JUMP JUMPDEST PUSH1 0x40 MLOAD PUSH2 0x22D SWAP2 SWAP1 PUSH2 0x1B7E JUMP JUMPDEST PUSH1 0x40 MLOAD DUP1 SWAP2 SUB SWAP1 RETURN JUMPDEST PUSH2 0x250 PUSH1 0x4 DUP1 CALLDATASIZE SUB DUP2 ADD SWAP1 PUSH2 0x24B SWAP2 SWAP1 PUSH2 0x1EAF JUMP JUMPDEST PUSH2 0x1065 JUMP JUMPDEST PUSH1 0x40 MLOAD PUSH2 0x25D SWAP2 SWAP1 PUSH2 0x1B7E JUMP JUMPDEST PUSH1 0x40 MLOAD DUP1 SWAP2 SUB SWAP1 RETURN JUMPDEST PUSH2 0x280 PUSH1 0x4 DUP1 CALLDATASIZE SUB DUP2 ADD SWAP1 PUSH2 0x27B SWAP2 SWAP1 PUSH2 0x1EDA JUMP JUMPDEST PUSH2 0x10A0 JUMP JUMPDEST PUSH1 0x40 MLOAD PUSH2 0x28D SWAP2 SWAP1 PUSH2 0x1B56 JUMP JUMPDEST PUSH1 0x40 MLOAD DUP1 SWAP2 SUB SWAP1 RETURN JUMPDEST PUSH2 0x2B0 PUSH1 0x4 DUP1 CALLDATASIZE SUB DUP2 ADD SWAP1 PUSH2 0x2AB SWAP2 SWAP1 PUSH2 0x1EAF JUMP JUMPDEST PUSH2 0x10F8 JUMP JUMPDEST PUSH1 0x40 MLOAD PUSH2 0x2BD SWAP2 SWAP1 PUSH2 0x1B7E JUMP JUMPDEST PUSH1 0x40 MLOAD DUP1 SWAP2 SUB SWAP1 RETURN JUMPDEST PUSH2 0x2E0 PUSH1 0x4 DUP1 CALLDATASIZE SUB DUP2 ADD SWAP1 PUSH2 0x2DB SWAP2 SWAP1 PUSH2 0x1F50 JUMP JUMPDEST PUSH2 0x1132 JUMP JUMPDEST PUSH1 0x40 MLOAD PUSH2 0x2ED SWAP2 SWAP1 PUSH2 0x1B56 JUMP JUMPDEST PUSH1 0x40 MLOAD DUP1 SWAP2 SUB SWAP1 RETURN JUMPDEST PUSH2 0x310 PUSH1 0x4 DUP1 CALLDATASIZE SUB DUP2 ADD SWAP1 PUSH2 0x30B SWAP2 SWAP1 PUSH2 0x1C6E JUMP JUMPDEST PUSH2 0x133E JUMP JUMPDEST PUSH1 0x40 MLOAD PUSH2 0x31D SWAP2 SWAP1 PUSH2 0x1B56 JUMP JUMPDEST PUSH1 0x40 MLOAD DUP1 SWAP2 SUB SWAP1 RETURN JUMPDEST PUSH2 0x340 PUSH1 0x4 DUP1 CALLDATASIZE SUB DUP2 ADD SWAP1 PUSH2 0x33B SWAP2 SWAP1 PUSH2 0x1C6E JUMP JUMPDEST PUSH2 0x13A3 JUMP JUMPDEST PUSH1 0x40 MLOAD PUSH2 0x34D SWAP2 SWAP1 PUSH2 0x1B7E JUMP JUMPDEST PUSH1 0x40 MLOAD DUP1 SWAP2 SUB SWAP1 RETURN JUMPDEST PUSH2 0x35E PUSH2 0x1656 JUMP JUMPDEST PUSH1 0x40 MLOAD PUSH2 0x36B SWAP2 SWAP1 PUSH2 0x20BC JUMP JUMPDEST PUSH1 0x40 MLOAD DUP1 SWAP2 SUB SWAP1 RETURN JUMPDEST PUSH0 DUP1 PUSH20 0xFFFFFFFFFFFFFFFFFFFFFFFFFFFFFFFFFFFFFFFF AND PUSH1 0x1 PUSH0 DUP8 PUSH20 0xFFFFFFFFFFFFFFFFFFFFFFFFFFFFFFFFFFFFFFFF AND PUSH20 0xFFFFFFFFFFFFFFFFFFFFFFFFFFFFFFFFFFFFFFFF AND DUP2 MSTORE PUSH1 0x20 ADD SWAP1 DUP2 MSTORE PUSH1 0x20 ADD PUSH0 KECCAK256 PUSH1 0x4 ADD PUSH0 SWAP1 SLOAD SWAP1 PUSH2 0x100 EXP SWAP1 DIV PUSH20 0xFFFFFFFFFFFFFFFFFFFFFFFFFFFFFFFFFFFFFFFF AND PUSH20 0xFFFFFFFFFFFFFFFFFFFFFFFFFFFFFFFFFFFFFFFF AND SUB PUSH2 0x92A JUMPI PUSH0 PUSH1 0x40 MLOAD DUP1 PUSH1 0x60 ADD PUSH1 0x40 MSTORE DUP1 DUP7 DUP2 MSTORE PUSH1 0x20 ADD DUP6 DUP2 MSTORE PUSH1 0x20 ADD DUP5 DUP2 MSTORE POP SWAP1 POP PUSH0 PUSH1 0x1 PUSH0 DUP9 PUSH20 0xFFFFFFFFFFFFFFFFFFFFFFFFFFFFFFFFFFFFFFFF AND PUSH20 0xFFFFFFFFFFFFFFFFFFFFFFFFFFFFFFFFFFFFFFFF AND DUP2 MSTORE PUSH1 0x20 ADD SWAP1 DUP2 MSTORE PUSH1 0x20 ADD PUSH0 KECCAK256 PUSH1 0x40 MLOAD DUP1 PUSH1 0xE0 ADD PUSH1 0x40 MSTORE SWAP1 DUP2 PUSH0 DUP3 ADD DUP1 SLOAD PUSH2 0x47D SWAP1 PUSH2 0x2109 JUMP JUMPDEST DUP1 PUSH1 0x1F ADD PUSH1 0x20 DUP1 SWAP2 DIV MUL PUSH1 0x20 ADD PUSH1 0x40 MLOAD SWAP1 DUP2 ADD PUSH1 0x40 MSTORE DUP1 SWAP3 SWAP2 SWAP1 DUP2 DUP2 MSTORE PUSH1 0x20 ADD DUP3 DUP1 SLOAD PUSH2 0x4A9 SWAP1 PUSH2 0x2109 JUMP JUMPDEST DUP1 ISZERO PUSH2 0x4F4 JUMPI DUP1 PUSH1 0x1F LT PUSH2 0x4CB JUMPI PUSH2 0x100 DUP1 DUP4 SLOAD DIV MUL DUP4 MSTORE SWAP2 PUSH1 0x20 ADD SWAP2 PUSH2 0x4F4 JUMP JUMPDEST DUP3 ADD SWAP2 SWAP1 PUSH0 MSTORE PUSH1 0x20 PUSH0 KECCAK256 SWAP1 JUMPDEST DUP2 SLOAD DUP2 MSTORE SWAP1 PUSH1 0x1 ADD SWAP1 PUSH1 0x20 ADD DUP1 DUP4 GT PUSH2 0x4D7 JUMPI DUP3 SWAP1 SUB PUSH1 0x1F AND DUP3 ADD SWAP2 JUMPDEST POP POP POP POP POP DUP2 MSTORE PUSH1 0x20 ADD PUSH1 0x1 DUP3 ADD DUP1 SLOAD PUSH2 0x50D SWAP1 PUSH2 0x2109 JUMP JUMPDEST DUP1 PUSH1 0x1F ADD PUSH1 0x20 DUP1 SWAP2 DIV MUL PUSH1 0x20 ADD PUSH1 0x40 MLOAD SWAP1 DUP2 ADD PUSH1 0x40 MSTORE DUP1 SWAP3 SWAP2 SWAP1 DUP2 DUP2 MSTORE PUSH1 0x20 ADD DUP3 DUP1 SLOAD PUSH2 0x539 SWAP1 PUSH2 0x2109 JUMP JUMPDEST DUP1 ISZERO PUSH2 0x584 JUMPI DUP1 PUSH1 0x1F LT PUSH2 0x55B JUMPI PUSH2 0x100 DUP1 DUP4 SLOAD DIV MUL DUP4 MSTORE SWAP2 PUSH1 0x20 ADD SWAP2 PUSH2 0x584 JUMP JUMPDEST DUP3 ADD SWAP2 SWAP1 PUSH0 MSTORE PUSH1 0x20 PUSH0 KECCAK256 SWAP1 JUMPDEST DUP2 SLOAD DUP2 MSTORE SWAP1 PUSH1 0x1 ADD SWAP1 PUSH1 0x20 ADD DUP1 DUP4 GT PUSH2 0x567 JUMPI DUP3 SWAP1 SUB PUSH1 0x1F AND DUP3 ADD SWAP2 JUMPDEST POP POP POP POP POP DUP2 MSTORE PUSH1 0x20 ADD PUSH1 0x2 DUP3 ADD DUP1 SLOAD PUSH2 0x59D SWAP1 PUSH2 0x2109 JUMP JUMPDEST DUP1 PUSH1 0x1F ADD PUSH1 0x20 DUP1 SWAP2 DIV MUL PUSH1 0x20 ADD PUSH1 0x40 MLOAD SWAP1 DUP2 ADD PUSH1 0x40 MSTORE DUP1 SWAP3 SWAP2 SWAP1 DUP2 DUP2 MSTORE PUSH1 0x20 ADD DUP3 DUP1 SLOAD PUSH2 0x5C9 SWAP1 PUSH2 0x2109 JUMP JUMPDEST DUP1 ISZERO PUSH2 0x614 JUMPI DUP1 PUSH1 0x1F LT PUSH2 0x5EB JUMPI PUSH2 0x100 DUP1 DUP4 SLOAD DIV MUL DUP4 MSTORE SWAP2 PUSH1 0x20 ADD SWAP2 PUSH2 0x614 JUMP JUMPDEST DUP3 ADD SWAP2 SWAP1 PUSH0 MSTORE PUSH1 0x20 PUSH0 KECCAK256 SWAP1 JUMPDEST DUP2 SLOAD DUP2 MSTORE SWAP1 PUSH1 0x1 ADD SWAP1 PUSH1 0x20 ADD DUP1 DUP4 GT PUSH2 0x5F7 JUMPI DUP3 SWAP1 SUB PUSH1 0x1F AND DUP3 ADD SWAP2 JUMPDEST POP POP POP POP POP DUP2 MSTORE PUSH1 0x20 ADD PUSH1 0x3 DUP3 ADD DUP1 SLOAD PUSH2 0x62D SWAP1 PUSH2 0x2109 JUMP JUMPDEST DUP1 PUSH1 0x1F ADD PUSH1 0x20 DUP1 SWAP2 DIV MUL PUSH1 0x20 ADD PUSH1 0x40 MLOAD SWAP1 DUP2 ADD PUSH1 0x40 MSTORE DUP1 SWAP3 SWAP2 SWAP1 DUP2 DUP2 MSTORE PUSH1 0x20 ADD DUP3 DUP1 SLOAD PUSH2 0x659 SWAP1 PUSH2 0x2109 JUMP JUMPDEST DUP1 ISZERO PUSH2 0x6A4 JUMPI DUP1 PUSH1 0x1F LT PUSH2 0x67B JUMPI PUSH2 0x100 DUP1 DUP4 SLOAD DIV MUL DUP4 MSTORE SWAP2 PUSH1 0x20 ADD SWAP2 PUSH2 0x6A4 JUMP JUMPDEST DUP3 ADD SWAP2 SWAP1 PUSH0 MSTORE PUSH1 0x20 PUSH0 KECCAK256 SWAP1 JUMPDEST DUP2 SLOAD DUP2 MSTORE SWAP1 PUSH1 0x1 ADD SWAP1 PUSH1 0x20 ADD DUP1 DUP4 GT PUSH2 0x687 JUMPI DUP3 SWAP1 SUB PUSH1 0x1F AND DUP3 ADD SWAP2 JUMPDEST POP POP POP POP POP DUP2 MSTORE PUSH1 0x20 ADD PUSH1 0x4 DUP3 ADD PUSH0 SWAP1 SLOAD SWAP1 PUSH2 0x100 EXP SWAP1 DIV PUSH20 0xFFFFFFFFFFFFFFFFFFFFFFFFFFFFFFFFFFFFFFFF AND PUSH20 0xFFFFFFFFFFFFFFFFFFFFFFFFFFFFFFFFFFFFFFFF AND PUSH20 0xFFFFFFFFFFFFFFFFFFFFFFFFFFFFFFFFFFFFFFFF AND DUP2 MSTORE PUSH1 0x20 ADD PUSH1 0x5 DUP3 ADD PUSH1 0x40 MLOAD DUP1 PUSH1 0x60 ADD PUSH1 0x40 MSTORE SWAP1 DUP2 PUSH0 DUP3 ADD SLOAD DUP2 MSTORE PUSH1 0x20 ADD PUSH1 0x1 DUP3 ADD SLOAD DUP2 MSTORE PUSH1 0x20 ADD PUSH1 0x2 DUP3 ADD SLOAD DUP2 MSTORE POP POP DUP2 MSTORE PUSH1 0x20 ADD PUSH1 0x8 DUP3 ADD PUSH0 SWAP1 SLOAD SWAP1 PUSH2 0x100 EXP SWAP1 DIV PUSH1 0xFF AND ISZERO ISZERO ISZERO ISZERO DUP2 MSTORE POP POP SWAP1 POP DUP11 DUP2 PUSH0 ADD DUP2 SWAP1 MSTORE POP DUP10 DUP2 PUSH1 0x20 ADD DUP2 SWAP1 MSTORE POP DUP9 DUP2 PUSH1 0x40 ADD DUP2 SWAP1 MSTORE POP DUP8 DUP2 PUSH1 0x60 ADD DUP2 SWAP1 MSTORE POP DUP2 DUP2 PUSH1 0xA0 ADD DUP2 SWAP1 MSTORE POP PUSH0 DUP2 PUSH1 0xC0 ADD SWAP1 ISZERO ISZERO SWAP1 DUP2 ISZERO ISZERO DUP2 MSTORE POP POP DUP1 PUSH1 0x1 PUSH0 DUP10 PUSH20 0xFFFFFFFFFFFFFFFFFFFFFFFFFFFFFFFFFFFFFFFF AND PUSH20 0xFFFFFFFFFFFFFFFFFFFFFFFFFFFFFFFFFFFFFFFF AND DUP2 MSTORE PUSH1 0x20 ADD SWAP1 DUP2 MSTORE PUSH1 0x20 ADD PUSH0 KECCAK256 PUSH0 DUP3 ADD MLOAD DUP2 PUSH0 ADD SWAP1 DUP2 PUSH2 0x7DC SWAP2 SWAP1 PUSH2 0x22D6 JUMP JUMPDEST POP PUSH1 0x20 DUP3 ADD MLOAD DUP2 PUSH1 0x1 ADD SWAP1 DUP2 PUSH2 0x7F2 SWAP2 SWAP1 PUSH2 0x22D6 JUMP JUMPDEST POP PUSH1 0x40 DUP3 ADD MLOAD DUP2 PUSH1 0x2 ADD SWAP1 DUP2 PUSH2 0x808 SWAP2 SWAP1 PUSH2 0x22D6 JUMP JUMPDEST POP PUSH1 0x60 DUP3 ADD MLOAD DUP2 PUSH1 0x3 ADD SWAP1 DUP2 PUSH2 0x81E SWAP2 SWAP1 PUSH2 0x22D6 JUMP JUMPDEST POP PUSH1 0x80 DUP3 ADD MLOAD DUP2 PUSH1 0x4 ADD PUSH0 PUSH2 0x100 EXP DUP2 SLOAD DUP2 PUSH20 0xFFFFFFFFFFFFFFFFFFFFFFFFFFFFFFFFFFFFFFFF MUL NOT AND SWAP1 DUP4 PUSH20 0xFFFFFFFFFFFFFFFFFFFFFFFFFFFFFFFFFFFFFFFF AND MUL OR SWAP1 SSTORE POP PUSH1 0xA0 DUP3 ADD MLOAD DUP2 PUSH1 0x5 ADD PUSH0 DUP3 ADD MLOAD DUP2 PUSH0 ADD SSTORE PUSH1 0x20 DUP3 ADD MLOAD DUP2 PUSH1 0x1 ADD SSTORE PUSH1 0x40 DUP3 ADD MLOAD DUP2 PUSH1 0x2 ADD SSTORE POP POP PUSH1 0xC0 DUP3 ADD MLOAD DUP2 PUSH1 0x8 ADD PUSH0 PUSH2 0x100 EXP DUP2 SLOAD DUP2 PUSH1 0xFF MUL NOT AND SWAP1 DUP4 ISZERO ISZERO MUL OR SWAP1 SSTORE POP SWAP1 POP POP PUSH1 0x2 DUP8 SWAP1 DUP1 PUSH1 0x1 DUP2 SLOAD ADD DUP1 DUP3 SSTORE DUP1 SWAP2 POP POP PUSH1 0x1 SWAP1 SUB SWAP1 PUSH0 MSTORE PUSH1 0x20 PUSH0 KECCAK256 ADD PUSH0 SWAP1 SWAP2 SWAP1 SWAP2 SWAP1 SWAP2 PUSH2 0x100 EXP DUP2 SLOAD DUP2 PUSH20 0xFFFFFFFFFFFFFFFFFFFFFFFFFFFFFFFFFFFFFFFF MUL NOT AND SWAP1 DUP4 PUSH20 0xFFFFFFFFFFFFFFFFFFFFFFFFFFFFFFFFFFFFFFFF AND MUL OR SWAP1 SSTORE POP PUSH1 0x1 PUSH1 0x5 PUSH0 DUP3 DUP3 SLOAD PUSH2 0x920 SWAP2 SWAP1 PUSH2 0x23D2 JUMP JUMPDEST SWAP3 POP POP DUP2 SWAP1 SSTORE POP POP POP JUMPDEST PUSH0 PUSH1 0x40 MLOAD DUP1 PUSH1 0x40 ADD PUSH1 0x40 MSTORE DUP1 DUP8 PUSH20 0xFFFFFFFFFFFFFFFFFFFFFFFFFFFFFFFFFFFFFFFF AND DUP2 MSTORE PUSH1 0x20 ADD PUSH0 PUSH1 0x2 DUP2 GT ISZERO PUSH2 0x965 JUMPI PUSH2 0x964 PUSH2 0x1C99 JUMP JUMPDEST JUMPDEST DUP2 MSTORE POP SWAP1 POP DUP1 PUSH1 0x3 PUSH0 DUP9 PUSH20 0xFFFFFFFFFFFFFFFFFFFFFFFFFFFFFFFFFFFFFFFF AND PUSH20 0xFFFFFFFFFFFFFFFFFFFFFFFFFFFFFFFFFFFFFFFF AND DUP2 MSTORE PUSH1 0x20 ADD SWAP1 DUP2 MSTORE PUSH1 0x20 ADD PUSH0 KECCAK256 PUSH0 DUP3 ADD MLOAD DUP2 PUSH0 ADD PUSH0 PUSH2 0x100 EXP DUP2 SLOAD DUP2 PUSH20 0xFFFFFFFFFFFFFFFFFFFFFFFFFFFFFFFFFFFFFFFF MUL NOT AND SWAP1 DUP4 PUSH20 0xFFFFFFFFFFFFFFFFFFFFFFFFFFFFFFFFFFFFFFFF AND MUL OR SWAP1 SSTORE POP PUSH1 0x20 DUP3 ADD MLOAD DUP2 PUSH0 ADD PUSH1 0x14 PUSH2 0x100 EXP DUP2 SLOAD DUP2 PUSH1 0xFF MUL NOT AND SWAP1 DUP4 PUSH1 0x2 DUP2 GT ISZERO PUSH2 0xA16 JUMPI PUSH2 0xA15 PUSH2 0x1C99 JUMP JUMPDEST JUMPDEST MUL OR SWAP1 SSTORE POP SWAP1 POP POP PUSH1 0x1 SWAP2 POP POP SWAP9 SWAP8 POP POP POP POP POP POP POP POP JUMP JUMPDEST PUSH1 0x6 PUSH0 SWAP1 SLOAD SWAP1 PUSH2 0x100 EXP SWAP1 DIV PUSH20 0xFFFFFFFFFFFFFFFFFFFFFFFFFFFFFFFFFFFFFFFF AND DUP2 JUMP JUMPDEST PUSH1 0x60 PUSH0 PUSH1 0x4 SLOAD PUSH8 0xFFFFFFFFFFFFFFFF DUP2 GT ISZERO PUSH2 0xA73 JUMPI PUSH2 0xA72 PUSH2 0x186A JUMP JUMPDEST JUMPDEST PUSH1 0x40 MLOAD SWAP1 DUP1 DUP3 MSTORE DUP1 PUSH1 0x20 MUL PUSH1 0x20 ADD DUP3 ADD PUSH1 0x40 MSTORE DUP1 ISZERO PUSH2 0xAA1 JUMPI DUP2 PUSH1 0x20 ADD PUSH1 0x20 DUP3 MUL DUP1 CALLDATASIZE DUP4 CALLDATACOPY DUP1 DUP3 ADD SWAP2 POP POP SWAP1 POP JUMPDEST POP SWAP1 POP PUSH0 DUP1 JUMPDEST PUSH1 0x4 SLOAD DUP2 LT ISZERO PUSH2 0xB54 JUMPI PUSH0 DUP2 DUP2 SLOAD DUP2 LT PUSH2 0xAC4 JUMPI PUSH2 0xAC3 PUSH2 0x2405 JUMP JUMPDEST JUMPDEST SWAP1 PUSH0 MSTORE PUSH1 0x20 PUSH0 KECCAK256 ADD PUSH0 SWAP1 SLOAD SWAP1 PUSH2 0x100 EXP SWAP1 DIV PUSH20 0xFFFFFFFFFFFFFFFFFFFFFFFFFFFFFFFFFFFFFFFF AND DUP4 DUP3 DUP2 MLOAD DUP2 LT PUSH2 0xAFF JUMPI PUSH2 0xAFE PUSH2 0x2405 JUMP JUMPDEST JUMPDEST PUSH1 0x20 MUL PUSH1 0x20 ADD ADD SWAP1 PUSH20 0xFFFFFFFFFFFFFFFFFFFFFFFFFFFFFFFFFFFFFFFF AND SWAP1 DUP2 PUSH20 0xFFFFFFFFFFFFFFFFFFFFFFFFFFFFFFFFFFFFFFFF AND DUP2 MSTORE POP POP DUP2 DUP1 PUSH2 0xB44 SWAP1 PUSH2 0x2432 JUMP JUMPDEST SWAP3 POP POP DUP1 DUP1 PUSH1 0x1 ADD SWAP2 POP POP PUSH2 0xAA7 JUMP JUMPDEST POP DUP2 SWAP3 POP POP POP SWAP1 JUMP JUMPDEST PUSH1 0x3 PUSH1 0x20 MSTORE DUP1 PUSH0 MSTORE PUSH1 0x40 PUSH0 KECCAK256 PUSH0 SWAP2 POP SWAP1 POP DUP1 PUSH0 ADD PUSH0 SWAP1 SLOAD SWAP1 PUSH2 0x100 EXP SWAP1 DIV PUSH20 0xFFFFFFFFFFFFFFFFFFFFFFFFFFFFFFFFFFFFFFFF AND SWAP1 DUP1 PUSH0 ADD PUSH1 0x14 SWAP1 SLOAD SWAP1 PUSH2 0x100 EXP SWAP1 DIV PUSH1 0xFF AND SWAP1 POP DUP3 JUMP JUMPDEST PUSH1 0x1 PUSH1 0x20 MSTORE DUP1 PUSH0 MSTORE PUSH1 0x40 PUSH0 KECCAK256 PUSH0 SWAP2 POP SWAP1 POP DUP1 PUSH0 ADD DUP1 SLOAD PUSH2 0xBC7 SWAP1 PUSH2 0x2109 JUMP JUMPDEST DUP1 PUSH1 0x1F ADD PUSH1 0x20 DUP1 SWAP2 DIV MUL PUSH1 0x20 ADD PUSH1 0x40 MLOAD SWAP1 DUP2 ADD PUSH1 0x40 MSTORE DUP1 SWAP3 SWAP2 SWAP1 DUP2 DUP2 MSTORE PUSH1 0x20 ADD DUP3 DUP1 SLOAD PUSH2 0xBF3 SWAP1 PUSH2 0x2109 JUMP JUMPDEST DUP1 ISZERO PUSH2 0xC3E JUMPI DUP1 PUSH1 0x1F LT PUSH2 0xC15 JUMPI PUSH2 0x100 DUP1 DUP4 SLOAD DIV MUL DUP4 MSTORE SWAP2 PUSH1 0x20 ADD SWAP2 PUSH2 0xC3E JUMP JUMPDEST DUP3 ADD SWAP2 SWAP1 PUSH0 MSTORE PUSH1 0x20 PUSH0 KECCAK256 SWAP1 JUMPDEST DUP2 SLOAD DUP2 MSTORE SWAP1 PUSH1 0x1 ADD SWAP1 PUSH1 0x20 ADD DUP1 DUP4 GT PUSH2 0xC21 JUMPI DUP3 SWAP1 SUB PUSH1 0x1F AND DUP3 ADD SWAP2 JUMPDEST POP POP POP POP POP SWAP1 DUP1 PUSH1 0x1 ADD DUP1 SLOAD PUSH2 0xC53 SWAP1 PUSH2 0x2109 JUMP JUMPDEST DUP1 PUSH1 0x1F ADD PUSH1 0x20 DUP1 SWAP2 DIV MUL PUSH1 0x20 ADD PUSH1 0x40 MLOAD SWAP1 DUP2 ADD PUSH1 0x40 MSTORE DUP1 SWAP3 SWAP2 SWAP1 DUP2 DUP2 MSTORE PUSH1 0x20 ADD DUP3 DUP1 SLOAD PUSH2 0xC7F SWAP1 PUSH2 0x2109 JUMP JUMPDEST DUP1 ISZERO PUSH2 0xCCA JUMPI DUP1 PUSH1 0x1F LT PUSH2 0xCA1 JUMPI PUSH2 0x100 DUP1 DUP4 SLOAD DIV MUL DUP4 MSTORE SWAP2 PUSH1 0x20 ADD SWAP2 PUSH2 0xCCA JUMP JUMPDEST DUP3 ADD SWAP2 SWAP1 PUSH0 MSTORE PUSH1 0x20 PUSH0 KECCAK256 SWAP1 JUMPDEST DUP2 SLOAD DUP2 MSTORE SWAP1 PUSH1 0x1 ADD SWAP1 PUSH1 0x20 ADD DUP1 DUP4 GT PUSH2 0xCAD JUMPI DUP3 SWAP1 SUB PUSH1 0x1F AND DUP3 ADD SWAP2 JUMPDEST POP POP POP POP POP SWAP1 DUP1 PUSH1 0x2 ADD DUP1 SLOAD PUSH2 0xCDF SWAP1 PUSH2 0x2109 JUMP JUMPDEST DUP1 PUSH1 0x1F ADD PUSH1 0x20 DUP1 SWAP2 DIV MUL PUSH1 0x20 ADD PUSH1 0x40 MLOAD SWAP1 DUP2 ADD PUSH1 0x40 MSTORE DUP1 SWAP3 SWAP2 SWAP1 DUP2 DUP2 MSTORE PUSH1 0x20 ADD DUP3 DUP1 SLOAD PUSH2 0xD0B SWAP1 PUSH2 0x2109 JUMP JUMPDEST DUP1 ISZERO PUSH2 0xD56 JUMPI DUP1 PUSH1 0x1F LT PUSH2 0xD2D JUMPI PUSH2 0x100 DUP1 DUP4 SLOAD DIV MUL DUP4 MSTORE SWAP2 PUSH1 0x20 ADD SWAP2 PUSH2 0xD56 JUMP JUMPDEST DUP3 ADD SWAP2 SWAP1 PUSH0 MSTORE PUSH1 0x20 PUSH0 KECCAK256 SWAP1 JUMPDEST DUP2 SLOAD DUP2 MSTORE SWAP1 PUSH1 0x1 ADD SWAP1 PUSH1 0x20 ADD DUP1 DUP4 GT PUSH2 0xD39 JUMPI DUP3 SWAP1 SUB PUSH1 0x1F AND DUP3 ADD SWAP2 JUMPDEST POP POP POP POP POP SWAP1 DUP1 PUSH1 0x3 ADD DUP1 SLOAD PUSH2 0xD6B SWAP1 PUSH2 0x2109 JUMP JUMPDEST DUP1 PUSH1 0x1F ADD PUSH1 0x20 DUP1 SWAP2 DIV MUL PUSH1 0x20 ADD PUSH1 0x40 MLOAD SWAP1 DUP2 ADD PUSH1 0x40 MSTORE DUP1 SWAP3 SWAP2 SWAP1 DUP2 DUP2 MSTORE PUSH1 0x20 ADD DUP3 DUP1 SLOAD PUSH2 0xD97 SWAP1 PUSH2 0x2109 JUMP JUMPDEST DUP1 ISZERO PUSH2 0xDE2 JUMPI DUP1 PUSH1 0x1F LT PUSH2 0xDB9 JUMPI PUSH2 0x100 DUP1 DUP4 SLOAD DIV MUL DUP4 MSTORE SWAP2 PUSH1 0x20 ADD SWAP2 PUSH2 0xDE2 JUMP JUMPDEST DUP3 ADD SWAP2 SWAP1 PUSH0 MSTORE PUSH1 0x20 PUSH0 KECCAK256 SWAP1 JUMPDEST DUP2 SLOAD DUP2 MSTORE SWAP1 PUSH1 0x1 ADD SWAP1 PUSH1 0x20 ADD DUP1 DUP4 GT PUSH2 0xDC5 JUMPI DUP3 SWAP1 SUB PUSH1 0x1F AND DUP3 ADD SWAP2 JUMPDEST POP POP POP POP POP SWAP1 DUP1 PUSH1 0x4 ADD PUSH0 SWAP1 SLOAD SWAP1 PUSH2 0x100 EXP SWAP1 DIV PUSH20 0xFFFFFFFFFFFFFFFFFFFFFFFFFFFFFFFFFFFFFFFF AND SWAP1 DUP1 PUSH1 0x5 ADD PUSH1 0x40 MLOAD DUP1 PUSH1 0x60 ADD PUSH1 0x40 MSTORE SWAP1 DUP2 PUSH0 DUP3 ADD SLOAD DUP2 MSTORE PUSH1 0x20 ADD PUSH1 0x1 DUP3 ADD SLOAD DUP2 MSTORE PUSH1 0x20 ADD PUSH1 0x2 DUP3 ADD SLOAD DUP2 MSTORE POP POP SWAP1 DUP1 PUSH1 0x8 ADD PUSH0 SWAP1 SLOAD SWAP1 PUSH2 0x100 EXP SWAP1 DIV PUSH1 0xFF AND SWAP1 POP DUP8 JUMP JUMPDEST PUSH0 PUSH1 0x4 SLOAD SWAP1 POP SWAP1 JUMP JUMPDEST PUSH0 PUSH1 0x6 PUSH0 SWAP1 SLOAD SWAP1 PUSH2 0x100 EXP SWAP1 DIV PUSH20 0xFFFFFFFFFFFFFFFFFFFFFFFFFFFFFFFFFFFFFFFF AND PUSH20 0xFFFFFFFFFFFFFFFFFFFFFFFFFFFFFFFFFFFFFFFF AND CALLER PUSH20 0xFFFFFFFFFFFFFFFFFFFFFFFFFFFFFFFFFFFFFFFF AND EQ DUP1 PUSH2 0xF00 JUMPI POP PUSH0 PUSH1 0x1 PUSH0 CALLER PUSH20 0xFFFFFFFFFFFFFFFFFFFFFFFFFFFFFFFFFFFFFFFF AND PUSH20 0xFFFFFFFFFFFFFFFFFFFFFFFFFFFFFFFFFFFFFFFF AND DUP2 MSTORE PUSH1 0x20 ADD SWAP1 DUP2 MSTORE PUSH1 0x20 ADD PUSH0 KECCAK256 PUSH1 0x2 ADD DUP1 SLOAD PUSH2 0xEFC SWAP1 PUSH2 0x2109 JUMP JUMPDEST SWAP1 POP GT JUMPDEST PUSH2 0xF3F JUMPI PUSH1 0x40 MLOAD PUSH32 0x8C379A000000000000000000000000000000000000000000000000000000000 DUP2 MSTORE PUSH1 0x4 ADD PUSH2 0xF36 SWAP1 PUSH2 0x24E9 JUMP JUMPDEST PUSH1 0x40 MLOAD DUP1 SWAP2 SUB SWAP1 REVERT JUMPDEST PUSH0 PUSH1 0x1 PUSH0 CALLER PUSH20 0xFFFFFFFFFFFFFFFFFFFFFFFFFFFFFFFFFFFFFFFF AND PUSH20 0xFFFFFFFFFFFFFFFFFFFFFFFFFFFFFFFFFFFFFFFF AND DUP2 MSTORE PUSH1 0x20 ADD SWAP1 DUP2 MSTORE PUSH1 0x20 ADD PUSH0 KECCAK256 PUSH1 0x2 ADD DUP1 SLOAD PUSH2 0xF8B SWAP1 PUSH2 0x2109 JUMP JUMPDEST SWAP1 POP SUB PUSH2 0xFCD JUMPI PUSH1 0x40 MLOAD PUSH32 0x8C379A000000000000000000000000000000000000000000000000000000000 DUP2 MSTORE PUSH1 0x4 ADD PUSH2 0xFC4 SWAP1 PUSH2 0x2551 JUMP JUMPDEST PUSH1 0x40 MLOAD DUP1 SWAP2 SUB SWAP1 REVERT JUMPDEST PUSH1 0x2 PUSH1 0x3 PUSH0 DUP5 PUSH20 0xFFFFFFFFFFFFFFFFFFFFFFFFFFFFFFFFFFFFFFFF AND PUSH20 0xFFFFFFFFFFFFFFFFFFFFFFFFFFFFFFFFFFFFFFFF AND DUP2 MSTORE PUSH1 0x20 ADD SWAP1 DUP2 MSTORE PUSH1 0x20 ADD PUSH0 KECCAK256 PUSH0 ADD PUSH1 0x14 PUSH2 0x100 EXP DUP2 SLOAD DUP2 PUSH1 0xFF MUL NOT AND SWAP1 DUP4 PUSH1 0x2 DUP2 GT ISZERO PUSH2 0x1030 JUMPI PUSH2 0x102F PUSH2 0x1C99 JUMP JUMPDEST JUMPDEST MUL OR SWAP1 SSTORE POP DUP2 SWAP1 POP SWAP2 SWAP1 POP JUMP JUMPDEST PUSH0 PUSH1 0x6 PUSH0 SWAP1 SLOAD SWAP1 PUSH2 0x100 EXP SWAP1 DIV PUSH20 0xFFFFFFFFFFFFFFFFFFFFFFFFFFFFFFFFFFFFFFFF AND SWAP1 POP SWAP1 JUMP JUMPDEST PUSH1 0x2 DUP2 DUP2 SLOAD DUP2 LT PUSH2 0x1074 JUMPI PUSH0 DUP1 REVERT JUMPDEST SWAP1 PUSH0 MSTORE PUSH1 0x20 PUSH0 KECCAK256 ADD PUSH0 SWAP2 POP SLOAD SWAP1 PUSH2 0x100 EXP SWAP1 DIV PUSH20 0xFFFFFFFFFFFFFFFFFFFFFFFFFFFFFFFFFFFFFFFF AND DUP2 JUMP JUMPDEST PUSH0 DUP2 PUSH1 0x40 MLOAD PUSH1 0x20 ADD PUSH2 0x10B2 SWAP2 SWAP1 PUSH2 0x25A9 JUMP JUMPDEST PUSH1 0x40 MLOAD PUSH1 0x20 DUP2 DUP4 SUB SUB DUP2 MSTORE SWAP1 PUSH1 0x40 MSTORE DUP1 MLOAD SWAP1 PUSH1 0x20 ADD KECCAK256 DUP4 PUSH1 0x40 MLOAD PUSH1 0x20 ADD PUSH2 0x10D9 SWAP2 SWAP1 PUSH2 0x25A9 JUMP JUMPDEST PUSH1 0x40 MLOAD PUSH1 0x20 DUP2 DUP4 SUB SUB DUP2 MSTORE SWAP1 PUSH1 0x40 MSTORE DUP1 MLOAD SWAP1 PUSH1 0x20 ADD KECCAK256 EQ SWAP1 POP SWAP3 SWAP2 POP POP JUMP JUMPDEST PUSH0 DUP2 DUP2 SLOAD DUP2 LT PUSH2 0x1106 JUMPI PUSH0 DUP1 REVERT JUMPDEST SWAP1 PUSH0 MSTORE PUSH1 0x20 PUSH0 KECCAK256 ADD PUSH0 SWAP2 POP SLOAD SWAP1 PUSH2 0x100 EXP SWAP1 DIV PUSH20 0xFFFFFFFFFFFFFFFFFFFFFFFFFFFFFFFFFFFFFFFF AND DUP2 JUMP JUMPDEST PUSH0 PUSH2 0x113C DUP3 PUSH2 0x133E JUMP JUMPDEST ISZERO PUSH2 0x1333 JUMPI PUSH2 0x1211 PUSH1 0x1 PUSH0 DUP5 PUSH20 0xFFFFFFFFFFFFFFFFFFFFFFFFFFFFFFFFFFFFFFFF AND PUSH20 0xFFFFFFFFFFFFFFFFFFFFFFFFFFFFFFFFFFFFFFFF AND DUP2 MSTORE PUSH1 0x20 ADD SWAP1 DUP2 MSTORE PUSH1 0x20 ADD PUSH0 KECCAK256 PUSH1 0x2 ADD DUP1 SLOAD PUSH2 0x118F SWAP1 PUSH2 0x2109 JUMP JUMPDEST DUP1 PUSH1 0x1F ADD PUSH1 0x20 DUP1 SWAP2 DIV MUL PUSH1 0x20 ADD PUSH1 0x40 MLOAD SWAP1 DUP2 ADD PUSH1 0x40 MSTORE DUP1 SWAP3 SWAP2 SWAP1 DUP2 DUP2 MSTORE PUSH1 0x20 ADD DUP3 DUP1 SLOAD PUSH2 0x11BB SWAP1 PUSH2 0x2109 JUMP JUMPDEST DUP1 ISZERO PUSH2 0x1206 JUMPI DUP1 PUSH1 0x1F LT PUSH2 0x11DD JUMPI PUSH2 0x100 DUP1 DUP4 SLOAD DIV MUL DUP4 MSTORE SWAP2 PUSH1 0x20 ADD SWAP2 PUSH2 0x1206 JUMP JUMPDEST DUP3 ADD SWAP2 SWAP1 PUSH0 MSTORE PUSH1 0x20 PUSH0 KECCAK256 SWAP1 JUMPDEST DUP2 SLOAD DUP2 MSTORE SWAP1 PUSH1 0x1 ADD SWAP1 PUSH1 0x20 ADD DUP1 DUP4 GT PUSH2 0x11E9 JUMPI DUP3 SWAP1 SUB PUSH1 0x1F AND DUP3 ADD SWAP2 JUMPDEST POP POP POP POP POP DUP6 PUSH2 0x10A0 JUMP JUMPDEST ISZERO DUP1 PUSH2 0x12EA JUMPI POP PUSH2 0x12E8 PUSH1 0x1 PUSH0 DUP5 PUSH20 0xFFFFFFFFFFFFFFFFFFFFFFFFFFFFFFFFFFFFFFFF AND PUSH20 0xFFFFFFFFFFFFFFFFFFFFFFFFFFFFFFFFFFFFFFFF AND DUP2 MSTORE PUSH1 0x20 ADD SWAP1 DUP2 MSTORE PUSH1 0x20 ADD PUSH0 KECCAK256 PUSH1 0x3 ADD DUP1 SLOAD PUSH2 0x1266 SWAP1 PUSH2 0x2109 JUMP JUMPDEST DUP1 PUSH1 0x1F ADD PUSH1 0x20 DUP1 SWAP2 DIV MUL PUSH1 0x20 ADD PUSH1 0x40 MLOAD SWAP1 DUP2 ADD PUSH1 0x40 MSTORE DUP1 SWAP3 SWAP2 SWAP1 DUP2 DUP2 MSTORE PUSH1 0x20 ADD DUP3 DUP1 SLOAD PUSH2 0x1292 SWAP1 PUSH2 0x2109 JUMP JUMPDEST DUP1 ISZERO PUSH2 0x12DD JUMPI DUP1 PUSH1 0x1F LT PUSH2 0x12B4 JUMPI PUSH2 0x100 DUP1 DUP4 SLOAD DIV MUL DUP4 MSTORE SWAP2 PUSH1 0x20 ADD SWAP2 PUSH2 0x12DD JUMP JUMPDEST DUP3 ADD SWAP2 SWAP1 PUSH0 MSTORE PUSH1 0x20 PUSH0 KECCAK256 SWAP1 JUMPDEST DUP2 SLOAD DUP2 MSTORE SWAP1 PUSH1 0x1 ADD SWAP1 PUSH1 0x20 ADD DUP1 DUP4 GT PUSH2 0x12C0 JUMPI DUP3 SWAP1 SUB PUSH1 0x1F AND DUP3 ADD SWAP2 JUMPDEST POP POP POP POP POP DUP5 PUSH2 0x10A0 JUMP JUMPDEST ISZERO JUMPDEST ISZERO PUSH2 0x132A JUMPI PUSH1 0x40 MLOAD PUSH32 0x8C379A000000000000000000000000000000000000000000000000000000000 DUP2 MSTORE PUSH1 0x4 ADD PUSH2 0x1321 SWAP1 PUSH2 0x2609 JUMP JUMPDEST PUSH1 0x40 MLOAD DUP1 SWAP2 SUB SWAP1 REVERT JUMPDEST PUSH1 0x1 SWAP1 POP PUSH2 0x1337 JUMP JUMPDEST PUSH0 SWAP1 POP JUMPDEST SWAP4 SWAP3 POP POP POP JUMP JUMPDEST PUSH0 PUSH1 0x1 PUSH0 DUP4 PUSH20 0xFFFFFFFFFFFFFFFFFFFFFFFFFFFFFFFFFFFFFFFF AND PUSH20 0xFFFFFFFFFFFFFFFFFFFFFFFFFFFFFFFFFFFFFFFF AND DUP2 MSTORE PUSH1 0x20 ADD SWAP1 DUP2 MSTORE PUSH1 0x20 ADD PUSH0 KECCAK256 PUSH1 0x8 ADD PUSH0 SWAP1 SLOAD SWAP1 PUSH2 0x100 EXP SWAP1 DIV PUSH1 0xFF AND ISZERO PUSH2 0x139A JUMPI PUSH1 0x1 SWAP1 POP PUSH2 0x139E JUMP JUMPDEST PUSH0 SWAP1 POP JUMPDEST SWAP2 SWAP1 POP JUMP JUMPDEST PUSH0 PUSH1 0x6 PUSH0 SWAP1 SLOAD SWAP1 PUSH2 0x100 EXP SWAP1 DIV PUSH20 0xFFFFFFFFFFFFFFFFFFFFFFFFFFFFFFFFFFFFFFFF AND PUSH20 0xFFFFFFFFFFFFFFFFFFFFFFFFFFFFFFFFFFFFFFFF AND CALLER PUSH20 0xFFFFFFFFFFFFFFFFFFFFFFFFFFFFFFFFFFFFFFFF AND EQ DUP1 PUSH2 0x144A JUMPI POP PUSH0 PUSH1 0x1 PUSH0 CALLER PUSH20 0xFFFFFFFFFFFFFFFFFFFFFFFFFFFFFFFFFFFFFFFF AND PUSH20 0xFFFFFFFFFFFFFFFFFFFFFFFFFFFFFFFFFFFFFFFF AND DUP2 MSTORE PUSH1 0x20 ADD SWAP1 DUP2 MSTORE PUSH1 0x20 ADD PUSH0 KECCAK256 PUSH1 0x2 ADD DUP1 SLOAD PUSH2 0x1446 SWAP1 PUSH2 0x2109 JUMP JUMPDEST SWAP1 POP GT JUMPDEST PUSH2 0x1489 JUMPI PUSH1 0x40 MLOAD PUSH32 0x8C379A000000000000000000000000000000000000000000000000000000000 DUP2 MSTORE PUSH1 0x4 ADD PUSH2 0x1480 SWAP1 PUSH2 0x24E9 JUMP JUMPDEST PUSH1 0x40 MLOAD DUP1 SWAP2 SUB SWAP1 REVERT JUMPDEST PUSH0 PUSH1 0x1 PUSH0 CALLER PUSH20 0xFFFFFFFFFFFFFFFFFFFFFFFFFFFFFFFFFFFFFFFF AND PUSH20 0xFFFFFFFFFFFFFFFFFFFFFFFFFFFFFFFFFFFFFFFF AND DUP2 MSTORE PUSH1 0x20 ADD SWAP1 DUP2 MSTORE PUSH1 0x20 ADD PUSH0 KECCAK256 PUSH1 0x2 ADD DUP1 SLOAD PUSH2 0x14D5 SWAP1 PUSH2 0x2109 JUMP JUMPDEST SWAP1 POP SUB PUSH2 0x1517 JUMPI PUSH1 0x40 MLOAD PUSH32 0x8C379A000000000000000000000000000000000000000000000000000000000 DUP2 MSTORE PUSH1 0x4 ADD PUSH2 0x150E SWAP1 PUSH2 0x2551 JUMP JUMPDEST PUSH1 0x40 MLOAD DUP1 SWAP2 SUB SWAP1 REVERT JUMPDEST PUSH1 0x1 DUP1 PUSH0 DUP5 PUSH20 0xFFFFFFFFFFFFFFFFFFFFFFFFFFFFFFFFFFFFFFFF AND PUSH20 0xFFFFFFFFFFFFFFFFFFFFFFFFFFFFFFFFFFFFFFFF AND DUP2 MSTORE PUSH1 0x20 ADD SWAP1 DUP2 MSTORE PUSH1 0x20 ADD PUSH0 KECCAK256 PUSH1 0x8 ADD PUSH0 PUSH2 0x100 EXP DUP2 SLOAD DUP2 PUSH1 0xFF MUL NOT AND SWAP1 DUP4 ISZERO ISZERO MUL OR SWAP1 SSTORE POP PUSH1 0x1 PUSH1 0x3 PUSH0 DUP5 PUSH20 0xFFFFFFFFFFFFFFFFFFFFFFFFFFFFFFFFFFFFFFFF AND PUSH20 0xFFFFFFFFFFFFFFFFFFFFFFFFFFFFFFFFFFFFFFFF AND DUP2 MSTORE PUSH1 0x20 ADD SWAP1 DUP2 MSTORE PUSH1 0x20 ADD PUSH0 KECCAK256 PUSH0 ADD PUSH1 0x14 PUSH2 0x100 EXP DUP2 SLOAD DUP2 PUSH1 0xFF MUL NOT AND SWAP1 DUP4 PUSH1 0x2 DUP2 GT ISZERO PUSH2 0x15D1 JUMPI PUSH2 0x15D0 PUSH2 0x1C99 JUMP JUMPDEST JUMPDEST MUL OR SWAP1 SSTORE POP PUSH0 DUP3 SWAP1 DUP1 PUSH1 0x1 DUP2 SLOAD ADD DUP1 DUP3 SSTORE DUP1 SWAP2 POP POP PUSH1 0x1 SWAP1 SUB SWAP1 PUSH0 MSTORE PUSH1 0x20 PUSH0 KECCAK256 ADD PUSH0 SWAP1 SWAP2 SWAP1 SWAP2 SWAP1 SWAP2 PUSH2 0x100 EXP DUP2 SLOAD DUP2 PUSH20 0xFFFFFFFFFFFFFFFFFFFFFFFFFFFFFFFFFFFFFFFF MUL NOT AND SWAP1 DUP4 PUSH20 0xFFFFFFFFFFFFFFFFFFFFFFFFFFFFFFFFFFFFFFFF AND MUL OR SWAP1 SSTORE POP PUSH1 0x1 PUSH1 0x4 PUSH0 DUP3 DUP3 SLOAD PUSH2 0x1647 SWAP2 SWAP1 PUSH2 0x23D2 JUMP JUMPDEST SWAP3 POP POP DUP2 SWAP1 SSTORE POP DUP2 SWAP1 POP SWAP2 SWAP1 POP JUMP JUMPDEST PUSH1 0x60 PUSH0 PUSH1 0x5 SLOAD PUSH8 0xFFFFFFFFFFFFFFFF DUP2 GT ISZERO PUSH2 0x1675 JUMPI PUSH2 0x1674 PUSH2 0x186A JUMP JUMPDEST JUMPDEST PUSH1 0x40 MLOAD SWAP1 DUP1 DUP3 MSTORE DUP1 PUSH1 0x20 MUL PUSH1 0x20 ADD DUP3 ADD PUSH1 0x40 MSTORE DUP1 ISZERO PUSH2 0x16AE JUMPI DUP2 PUSH1 0x20 ADD JUMPDEST PUSH2 0x169B PUSH2 0x1801 JUMP JUMPDEST DUP2 MSTORE PUSH1 0x20 ADD SWAP1 PUSH1 0x1 SWAP1 SUB SWAP1 DUP2 PUSH2 0x1693 JUMPI SWAP1 POP JUMPDEST POP SWAP1 POP PUSH0 JUMPDEST PUSH1 0x5 SLOAD DUP2 LT ISZERO PUSH2 0x17F9 JUMPI PUSH1 0x3 PUSH0 PUSH1 0x2 DUP4 DUP2 SLOAD DUP2 LT PUSH2 0x16D4 JUMPI PUSH2 0x16D3 PUSH2 0x2405 JUMP JUMPDEST JUMPDEST SWAP1 PUSH0 MSTORE PUSH1 0x20 PUSH0 KECCAK256 ADD PUSH0 SWAP1 SLOAD SWAP1 PUSH2 0x100 EXP SWAP1 DIV PUSH20 0xFFFFFFFFFFFFFFFFFFFFFFFFFFFFFFFFFFFFFFFF AND PUSH20 0xFFFFFFFFFFFFFFFFFFFFFFFFFFFFFFFFFFFFFFFF AND PUSH20 0xFFFFFFFFFFFFFFFFFFFFFFFFFFFFFFFFFFFFFFFF AND DUP2 MSTORE PUSH1 0x20 ADD SWAP1 DUP2 MSTORE PUSH1 0x20 ADD PUSH0 KECCAK256 PUSH1 0x40 MLOAD DUP1 PUSH1 0x40 ADD PUSH1 0x40 MSTORE SWAP1 DUP2 PUSH0 DUP3 ADD PUSH0 SWAP1 SLOAD SWAP1 PUSH2 0x100 EXP SWAP1 DIV PUSH20 0xFFFFFFFFFFFFFFFFFFFFFFFFFFFFFFFFFFFFFFFF AND PUSH20 0xFFFFFFFFFFFFFFFFFFFFFFFFFFFFFFFFFFFFFFFF AND PUSH20 0xFFFFFFFFFFFFFFFFFFFFFFFFFFFFFFFFFFFFFFFF AND DUP2 MSTORE PUSH1 0x20 ADD PUSH0 DUP3 ADD PUSH1 0x14 SWAP1 SLOAD SWAP1 PUSH2 0x100 EXP SWAP1 DIV PUSH1 0xFF AND PUSH1 0x2 DUP2 GT ISZERO PUSH2 0x17B8 JUMPI PUSH2 0x17B7 PUSH2 0x1C99 JUMP JUMPDEST JUMPDEST PUSH1 0x2 DUP2 GT ISZERO PUSH2 0x17CA JUMPI PUSH2 0x17C9 PUSH2 0x1C99 JUMP JUMPDEST JUMPDEST DUP2 MSTORE POP POP DUP3 DUP3 DUP2 MLOAD DUP2 LT PUSH2 0x17E1 JUMPI PUSH2 0x17E0 PUSH2 0x2405 JUMP JUMPDEST JUMPDEST PUSH1 0x20 MUL PUSH1 0x20 ADD ADD DUP2 SWAP1 MSTORE POP DUP1 DUP1 PUSH1 0x1 ADD SWAP2 POP POP PUSH2 0x16B3 JUMP JUMPDEST POP DUP1 SWAP2 POP POP SWAP1 JUMP JUMPDEST PUSH1 0x40 MLOAD DUP1 PUSH1 0x40 ADD PUSH1 0x40 MSTORE DUP1 PUSH0 PUSH20 0xFFFFFFFFFFFFFFFFFFFFFFFFFFFFFFFFFFFFFFFF AND DUP2 MSTORE PUSH1 0x20 ADD PUSH0 PUSH1 0x2 DUP2 GT ISZERO PUSH2 0x183B JUMPI PUSH2 0x183A PUSH2 0x1C99 JUMP JUMPDEST JUMPDEST DUP2 MSTORE POP SWAP1 JUMP JUMPDEST PUSH0 PUSH1 0x40 MLOAD SWAP1 POP SWAP1 JUMP JUMPDEST PUSH0 DUP1 REVERT JUMPDEST PUSH0 DUP1 REVERT JUMPDEST PUSH0 DUP1 REVERT JUMPDEST PUSH0 DUP1 REVERT JUMPDEST PUSH0 PUSH1 0x1F NOT PUSH1 0x1F DUP4 ADD AND SWAP1 POP SWAP2 SWAP1 POP JUMP JUMPDEST PUSH32 0x4E487B7100000000000000000000000000000000000000000000000000000000 PUSH0 MSTORE PUSH1 0x41 PUSH1 0x4 MSTORE PUSH1 0x24 PUSH0 REVERT JUMPDEST PUSH2 0x18A0 DUP3 PUSH2 0x185A JUMP JUMPDEST DUP2 ADD DUP2 DUP2 LT PUSH8 0xFFFFFFFFFFFFFFFF DUP3 GT OR ISZERO PUSH2 0x18BF JUMPI PUSH2 0x18BE PUSH2 0x186A JUMP JUMPDEST JUMPDEST DUP1 PUSH1 0x40 MSTORE POP POP POP JUMP JUMPDEST PUSH0 PUSH2 0x18D1 PUSH2 0x1841 JUMP JUMPDEST SWAP1 POP PUSH2 0x18DD DUP3 DUP3 PUSH2 0x1897 JUMP JUMPDEST SWAP2 SWAP1 POP JUMP JUMPDEST PUSH0 PUSH8 0xFFFFFFFFFFFFFFFF DUP3 GT ISZERO PUSH2 0x18FC JUMPI PUSH2 0x18FB PUSH2 0x186A JUMP JUMPDEST JUMPDEST PUSH2 0x1905 DUP3 PUSH2 0x185A JUMP JUMPDEST SWAP1 POP PUSH1 0x20 DUP2 ADD SWAP1 POP SWAP2 SWAP1 POP JUMP JUMPDEST DUP3 DUP2 DUP4 CALLDATACOPY PUSH0 DUP4 DUP4 ADD MSTORE POP POP POP JUMP JUMPDEST PUSH0 PUSH2 0x1932 PUSH2 0x192D DUP5 PUSH2 0x18E2 JUMP JUMPDEST PUSH2 0x18C8 JUMP JUMPDEST SWAP1 POP DUP3 DUP2 MSTORE PUSH1 0x20 DUP2 ADD DUP5 DUP5 DUP5 ADD GT ISZERO PUSH2 0x194E JUMPI PUSH2 0x194D PUSH2 0x1856 JUMP JUMPDEST JUMPDEST PUSH2 0x1959 DUP5 DUP3 DUP6 PUSH2 0x1912 JUMP JUMPDEST POP SWAP4 SWAP3 POP POP POP JUMP JUMPDEST PUSH0 DUP3 PUSH1 0x1F DUP4 ADD SLT PUSH2 0x1975 JUMPI PUSH2 0x1974 PUSH2 0x1852 JUMP JUMPDEST JUMPDEST DUP2 CALLDATALOAD PUSH2 0x1985 DUP5 DUP3 PUSH1 0x20 DUP7 ADD PUSH2 0x1920 JUMP JUMPDEST SWAP2 POP POP SWAP3 SWAP2 POP POP JUMP JUMPDEST PUSH0 PUSH20 0xFFFFFFFFFFFFFFFFFFFFFFFFFFFFFFFFFFFFFFFF DUP3 AND SWAP1 POP SWAP2 SWAP1 POP JUMP JUMPDEST PUSH0 PUSH2 0x19B7 DUP3 PUSH2 0x198E JUMP JUMPDEST SWAP1 POP SWAP2 SWAP1 POP JUMP JUMPDEST PUSH2 0x19C7 DUP2 PUSH2 0x19AD JUMP JUMPDEST DUP2 EQ PUSH2 0x19D1 JUMPI PUSH0 DUP1 REVERT JUMPDEST POP JUMP JUMPDEST PUSH0 DUP2 CALLDATALOAD SWAP1 POP PUSH2 0x19E2 DUP2 PUSH2 0x19BE JUMP JUMPDEST SWAP3 SWAP2 POP POP JUMP JUMPDEST PUSH0 DUP2 SWAP1 POP SWAP2 SWAP1 POP JUMP JUMPDEST PUSH2 0x19FA DUP2 PUSH2 0x19E8 JUMP JUMPDEST DUP2 EQ PUSH2 0x1A04 JUMPI PUSH0 DUP1 REVERT JUMPDEST POP JUMP JUMPDEST PUSH0 DUP2 CALLDATALOAD SWAP1 POP PUSH2 0x1A15 DUP2 PUSH2 0x19F1 JUMP JUMPDEST SWAP3 SWAP2 POP POP JUMP JUMPDEST PUSH0 DUP1 PUSH0 DUP1 PUSH0 DUP1 PUSH0 DUP1 PUSH2 0x100 DUP10 DUP12 SUB SLT ISZERO PUSH2 0x1A38 JUMPI PUSH2 0x1A37 PUSH2 0x184A JUMP JUMPDEST JUMPDEST PUSH0 DUP10 ADD CALLDATALOAD PUSH8 0xFFFFFFFFFFFFFFFF DUP2 GT ISZERO PUSH2 0x1A55 JUMPI PUSH2 0x1A54 PUSH2 0x184E JUMP JUMPDEST JUMPDEST PUSH2 0x1A61 DUP12 DUP3 DUP13 ADD PUSH2 0x1961 JUMP JUMPDEST SWAP9 POP POP PUSH1 0x20 DUP10 ADD CALLDATALOAD PUSH8 0xFFFFFFFFFFFFFFFF DUP2 GT ISZERO PUSH2 0x1A82 JUMPI PUSH2 0x1A81 PUSH2 0x184E JUMP JUMPDEST JUMPDEST PUSH2 0x1A8E DUP12 DUP3 DUP13 ADD PUSH2 0x1961 JUMP JUMPDEST SWAP8 POP POP PUSH1 0x40 DUP10 ADD CALLDATALOAD PUSH8 0xFFFFFFFFFFFFFFFF DUP2 GT ISZERO PUSH2 0x1AAF JUMPI PUSH2 0x1AAE PUSH2 0x184E JUMP JUMPDEST JUMPDEST PUSH2 0x1ABB DUP12 DUP3 DUP13 ADD PUSH2 0x1961 JUMP JUMPDEST SWAP7 POP POP PUSH1 0x60 DUP10 ADD CALLDATALOAD PUSH8 0xFFFFFFFFFFFFFFFF DUP2 GT ISZERO PUSH2 0x1ADC JUMPI PUSH2 0x1ADB PUSH2 0x184E JUMP JUMPDEST JUMPDEST PUSH2 0x1AE8 DUP12 DUP3 DUP13 ADD PUSH2 0x1961 JUMP JUMPDEST SWAP6 POP POP PUSH1 0x80 PUSH2 0x1AF9 DUP12 DUP3 DUP13 ADD PUSH2 0x19D4 JUMP JUMPDEST SWAP5 POP POP PUSH1 0xA0 PUSH2 0x1B0A DUP12 DUP3 DUP13 ADD PUSH2 0x1A07 JUMP JUMPDEST SWAP4 POP POP PUSH1 0xC0 PUSH2 0x1B1B DUP12 DUP3 DUP13 ADD PUSH2 0x1A07 JUMP JUMPDEST SWAP3 POP POP PUSH1 0xE0 PUSH2 0x1B2C DUP12 DUP3 DUP13 ADD PUSH2 0x1A07 JUMP JUMPDEST SWAP2 POP POP SWAP3 SWAP6 SWAP9 POP SWAP3 SWAP6 SWAP9 SWAP1 SWAP4 SWAP7 POP JUMP JUMPDEST PUSH0 DUP2 ISZERO ISZERO SWAP1 POP SWAP2 SWAP1 POP JUMP JUMPDEST PUSH2 0x1B50 DUP2 PUSH2 0x1B3C JUMP JUMPDEST DUP3 MSTORE POP POP JUMP JUMPDEST PUSH0 PUSH1 0x20 DUP3 ADD SWAP1 POP PUSH2 0x1B69 PUSH0 DUP4 ADD DUP5 PUSH2 0x1B47 JUMP JUMPDEST SWAP3 SWAP2 POP POP JUMP JUMPDEST PUSH2 0x1B78 DUP2 PUSH2 0x19AD JUMP JUMPDEST DUP3 MSTORE POP POP JUMP JUMPDEST PUSH0 PUSH1 0x20 DUP3 ADD SWAP1 POP PUSH2 0x1B91 PUSH0 DUP4 ADD DUP5 PUSH2 0x1B6F JUMP JUMPDEST SWAP3 SWAP2 POP POP JUMP JUMPDEST PUSH0 DUP2 MLOAD SWAP1 POP SWAP2 SWAP1 POP JUMP JUMPDEST PUSH0 DUP3 DUP3 MSTORE PUSH1 0x20 DUP3 ADD SWAP1 POP SWAP3 SWAP2 POP POP JUMP JUMPDEST PUSH0 DUP2 SWAP1 POP PUSH1 0x20 DUP3 ADD SWAP1 POP SWAP2 SWAP1 POP JUMP JUMPDEST PUSH2 0x1BC9 DUP2 PUSH2 0x19AD JUMP JUMPDEST DUP3 MSTORE POP POP JUMP JUMPDEST PUSH0 PUSH2 0x1BDA DUP4 DUP4 PUSH2 0x1BC0 JUMP JUMPDEST PUSH1 0x20 DUP4 ADD SWAP1 POP SWAP3 SWAP2 POP POP JUMP JUMPDEST PUSH0 PUSH1 0x20 DUP3 ADD SWAP1 POP SWAP2 SWAP1 POP JUMP JUMPDEST PUSH0 PUSH2 0x1BFC DUP3 PUSH2 0x1B97 JUMP JUMPDEST PUSH2 0x1C06 DUP2 DUP6 PUSH2 0x1BA1 JUMP JUMPDEST SWAP4 POP PUSH2 0x1C11 DUP4 PUSH2 0x1BB1 JUMP JUMPDEST DUP1 PUSH0 JUMPDEST DUP4 DUP2 LT ISZERO PUSH2 0x1C41 JUMPI DUP2 MLOAD PUSH2 0x1C28 DUP9 DUP3 PUSH2 0x1BCF JUMP JUMPDEST SWAP8 POP PUSH2 0x1C33 DUP4 PUSH2 0x1BE6 JUMP JUMPDEST SWAP3 POP POP PUSH1 0x1 DUP2 ADD SWAP1 POP PUSH2 0x1C14 JUMP JUMPDEST POP DUP6 SWAP4 POP POP POP POP SWAP3 SWAP2 POP POP JUMP JUMPDEST PUSH0 PUSH1 0x20 DUP3 ADD SWAP1 POP DUP2 DUP2 SUB PUSH0 DUP4 ADD MSTORE PUSH2 0x1C66 DUP2 DUP5 PUSH2 0x1BF2 JUMP JUMPDEST SWAP1 POP SWAP3 SWAP2 POP POP JUMP JUMPDEST PUSH0 PUSH1 0x20 DUP3 DUP5 SUB SLT ISZERO PUSH2 0x1C83 JUMPI PUSH2 0x1C82 PUSH2 0x184A JUMP JUMPDEST JUMPDEST PUSH0 PUSH2 0x1C90 DUP5 DUP3 DUP6 ADD PUSH2 0x19D4 JUMP JUMPDEST SWAP2 POP POP SWAP3 SWAP2 POP POP JUMP JUMPDEST PUSH32 0x4E487B7100000000000000000000000000000000000000000000000000000000 PUSH0 MSTORE PUSH1 0x21 PUSH1 0x4 MSTORE PUSH1 0x24 PUSH0 REVERT JUMPDEST PUSH1 0x3 DUP2 LT PUSH2 0x1CD7 JUMPI PUSH2 0x1CD6 PUSH2 0x1C99 JUMP JUMPDEST JUMPDEST POP JUMP JUMPDEST PUSH0 DUP2 SWAP1 POP PUSH2 0x1CE7 DUP3 PUSH2 0x1CC6 JUMP JUMPDEST SWAP2 SWAP1 POP JUMP JUMPDEST PUSH0 PUSH2 0x1CF6 DUP3 PUSH2 0x1CDA JUMP JUMPDEST SWAP1 POP SWAP2 SWAP1 POP JUMP JUMPDEST PUSH2 0x1D06 DUP2 PUSH2 0x1CEC JUMP JUMPDEST DUP3 MSTORE POP POP JUMP JUMPDEST PUSH0 PUSH1 0x40 DUP3 ADD SWAP1 POP PUSH2 0x1D1F PUSH0 DUP4 ADD DUP6 PUSH2 0x1B6F JUMP JUMPDEST PUSH2 0x1D2C PUSH1 0x20 DUP4 ADD DUP5 PUSH2 0x1CFD JUMP JUMPDEST SWAP4 SWAP3 POP POP POP JUMP JUMPDEST PUSH0 DUP2 MLOAD SWAP1 POP SWAP2 SWAP1 POP JUMP JUMPDEST PUSH0 DUP3 DUP3 MSTORE PUSH1 0x20 DUP3 ADD SWAP1 POP SWAP3 SWAP2 POP POP JUMP JUMPDEST PUSH0 JUMPDEST DUP4 DUP2 LT ISZERO PUSH2 0x1D6A JUMPI DUP1 DUP3 ADD MLOAD DUP2 DUP5 ADD MSTORE PUSH1 0x20 DUP2 ADD SWAP1 POP PUSH2 0x1D4F JUMP JUMPDEST PUSH0 DUP5 DUP5 ADD MSTORE POP POP POP POP JUMP JUMPDEST PUSH0 PUSH2 0x1D7F DUP3 PUSH2 0x1D33 JUMP JUMPDEST PUSH2 0x1D89 DUP2 DUP6 PUSH2 0x1D3D JUMP JUMPDEST SWAP4 POP PUSH2 0x1D99 DUP2 DUP6 PUSH1 0x20 DUP7 ADD PUSH2 0x1D4D JUMP JUMPDEST PUSH2 0x1DA2 DUP2 PUSH2 0x185A JUMP JUMPDEST DUP5 ADD SWAP2 POP POP SWAP3 SWAP2 POP POP JUMP JUMPDEST PUSH2 0x1DB6 DUP2 PUSH2 0x19E8 JUMP JUMPDEST DUP3 MSTORE POP POP JUMP JUMPDEST PUSH1 0x60 DUP3 ADD PUSH0 DUP3 ADD MLOAD PUSH2 0x1DD0 PUSH0 DUP6 ADD DUP3 PUSH2 0x1DAD JUMP JUMPDEST POP PUSH1 0x20 DUP3 ADD MLOAD PUSH2 0x1DE3 PUSH1 0x20 DUP6 ADD DUP3 PUSH2 0x1DAD JUMP JUMPDEST POP PUSH1 0x40 DUP3 ADD MLOAD PUSH2 0x1DF6 PUSH1 0x40 DUP6 ADD DUP3 PUSH2 0x1DAD JUMP JUMPDEST POP POP POP POP JUMP JUMPDEST PUSH0 PUSH2 0x120 DUP3 ADD SWAP1 POP DUP2 DUP2 SUB PUSH0 DUP4 ADD MSTORE PUSH2 0x1E15 DUP2 DUP11 PUSH2 0x1D75 JUMP JUMPDEST SWAP1 POP DUP2 DUP2 SUB PUSH1 0x20 DUP4 ADD MSTORE PUSH2 0x1E29 DUP2 DUP10 PUSH2 0x1D75 JUMP JUMPDEST SWAP1 POP DUP2 DUP2 SUB PUSH1 0x40 DUP4 ADD MSTORE PUSH2 0x1E3D DUP2 DUP9 PUSH2 0x1D75 JUMP JUMPDEST SWAP1 POP DUP2 DUP2 SUB PUSH1 0x60 DUP4 ADD MSTORE PUSH2 0x1E51 DUP2 DUP8 PUSH2 0x1D75 JUMP JUMPDEST SWAP1 POP PUSH2 0x1E60 PUSH1 0x80 DUP4 ADD DUP7 PUSH2 0x1B6F JUMP JUMPDEST PUSH2 0x1E6D PUSH1 0xA0 DUP4 ADD DUP6 PUSH2 0x1DBC JUMP JUMPDEST PUSH2 0x1E7B PUSH2 0x100 DUP4 ADD DUP5 PUSH2 0x1B47 JUMP JUMPDEST SWAP9 SWAP8 POP POP POP POP POP POP POP POP JUMP JUMPDEST PUSH2 0x1E90 DUP2 PUSH2 0x19E8 JUMP JUMPDEST DUP3 MSTORE POP POP JUMP JUMPDEST PUSH0 PUSH1 0x20 DUP3 ADD SWAP1 POP PUSH2 0x1EA9 PUSH0 DUP4 ADD DUP5 PUSH2 0x1E87 JUMP JUMPDEST SWAP3 SWAP2 POP POP JUMP JUMPDEST PUSH0 PUSH1 0x20 DUP3 DUP5 SUB SLT ISZERO PUSH2 0x1EC4 JUMPI PUSH2 0x1EC3 PUSH2 0x184A JUMP JUMPDEST JUMPDEST PUSH0 PUSH2 0x1ED1 DUP5 DUP3 DUP6 ADD PUSH2 0x1A07 JUMP JUMPDEST SWAP2 POP POP SWAP3 SWAP2 POP POP JUMP JUMPDEST PUSH0 DUP1 PUSH1 0x40 DUP4 DUP6 SUB SLT ISZERO PUSH2 0x1EF0 JUMPI PUSH2 0x1EEF PUSH2 0x184A JUMP JUMPDEST JUMPDEST PUSH0 DUP4 ADD CALLDATALOAD PUSH8 0xFFFFFFFFFFFFFFFF DUP2 GT ISZERO PUSH2 0x1F0D JUMPI PUSH2 0x1F0C PUSH2 0x184E JUMP JUMPDEST JUMPDEST PUSH2 0x1F19 DUP6 DUP3 DUP7 ADD PUSH2 0x1961 JUMP JUMPDEST SWAP3 POP POP PUSH1 0x20 DUP4 ADD CALLDATALOAD PUSH8 0xFFFFFFFFFFFFFFFF DUP2 GT ISZERO PUSH2 0x1F3A JUMPI PUSH2 0x1F39 PUSH2 0x184E JUMP JUMPDEST JUMPDEST PUSH2 0x1F46 DUP6 DUP3 DUP7 ADD PUSH2 0x1961 JUMP JUMPDEST SWAP2 POP POP SWAP3 POP SWAP3 SWAP1 POP JUMP JUMPDEST PUSH0 DUP1 PUSH0 PUSH1 0x60 DUP5 DUP7 SUB SLT ISZERO PUSH2 0x1F67 JUMPI PUSH2 0x1F66 PUSH2 0x184A JUMP JUMPDEST JUMPDEST PUSH0 DUP5 ADD CALLDATALOAD PUSH8 0xFFFFFFFFFFFFFFFF DUP2 GT ISZERO PUSH2 0x1F84 JUMPI PUSH2 0x1F83 PUSH2 0x184E JUMP JUMPDEST JUMPDEST PUSH2 0x1F90 DUP7 DUP3 DUP8 ADD PUSH2 0x1961 JUMP JUMPDEST SWAP4 POP POP PUSH1 0x20 DUP5 ADD CALLDATALOAD PUSH8 0xFFFFFFFFFFFFFFFF DUP2 GT ISZERO PUSH2 0x1FB1 JUMPI PUSH2 0x1FB0 PUSH2 0x184E JUMP JUMPDEST JUMPDEST PUSH2 0x1FBD DUP7 DUP3 DUP8 ADD PUSH2 0x1961 JUMP JUMPDEST SWAP3 POP POP PUSH1 0x40 PUSH2 0x1FCE DUP7 DUP3 DUP8 ADD PUSH2 0x19D4 JUMP JUMPDEST SWAP2 POP POP SWAP3 POP SWAP3 POP SWAP3 JUMP JUMPDEST PUSH0 DUP2 MLOAD SWAP1 POP SWAP2 SWAP1 POP JUMP JUMPDEST PUSH0 DUP3 DUP3 MSTORE PUSH1 0x20 DUP3 ADD SWAP1 POP SWAP3 SWAP2 POP POP JUMP JUMPDEST PUSH0 DUP2 SWAP1 POP PUSH1 0x20 DUP3 ADD SWAP1 POP SWAP2 SWAP1 POP JUMP JUMPDEST PUSH2 0x200A DUP2 PUSH2 0x1CEC JUMP JUMPDEST DUP3 MSTORE POP POP JUMP JUMPDEST PUSH1 0x40 DUP3 ADD PUSH0 DUP3 ADD MLOAD PUSH2 0x2024 PUSH0 DUP6 ADD DUP3 PUSH2 0x1BC0 JUMP JUMPDEST POP PUSH1 0x20 DUP3 ADD MLOAD PUSH2 0x2037 PUSH1 0x20 DUP6 ADD DUP3 PUSH2 0x2001 JUMP JUMPDEST POP POP POP POP JUMP JUMPDEST PUSH0 PUSH2 0x2048 DUP4 DUP4 PUSH2 0x2010 JUMP JUMPDEST PUSH1 0x40 DUP4 ADD SWAP1 POP SWAP3 SWAP2 POP POP JUMP JUMPDEST PUSH0 PUSH1 0x20 DUP3 ADD SWAP1 POP SWAP2 SWAP1 POP JUMP JUMPDEST PUSH0 PUSH2 0x206A DUP3 PUSH2 0x1FD8 JUMP JUMPDEST PUSH2 0x2074 DUP2 DUP6 PUSH2 0x1FE2 JUMP JUMPDEST SWAP4 POP PUSH2 0x207F DUP4 PUSH2 0x1FF2 JUMP JUMPDEST DUP1 PUSH0 JUMPDEST DUP4 DUP2 LT ISZERO PUSH2 0x20AF JUMPI DUP2 MLOAD PUSH2 0x2096 DUP9 DUP3 PUSH2 0x203D JUMP JUMPDEST SWAP8 POP PUSH2 0x20A1 DUP4 PUSH2 0x2054 JUMP JUMPDEST SWAP3 POP POP PUSH1 0x1 DUP2 ADD SWAP1 POP PUSH2 0x2082 JUMP JUMPDEST POP DUP6 SWAP4 POP POP POP POP SWAP3 SWAP2 POP POP JUMP JUMPDEST PUSH0 PUSH1 0x20 DUP3 ADD SWAP1 POP DUP2 DUP2 SUB PUSH0 DUP4 ADD MSTORE PUSH2 0x20D4 DUP2 DUP5 PUSH2 0x2060 JUMP JUMPDEST SWAP1 POP SWAP3 SWAP2 POP POP JUMP JUMPDEST PUSH32 0x4E487B7100000000000000000000000000000000000000000000000000000000 PUSH0 MSTORE PUSH1 0x22 PUSH1 0x4 MSTORE PUSH1 0x24 PUSH0 REVERT JUMPDEST PUSH0 PUSH1 0x2 DUP3 DIV SWAP1 POP PUSH1 0x1 DUP3 AND DUP1 PUSH2 0x2120 JUMPI PUSH1 0x7F DUP3 AND SWAP2 POP JUMPDEST PUSH1 0x20 DUP3 LT DUP2 SUB PUSH2 0x2133 JUMPI PUSH2 0x2132 PUSH2 0x20DC JUMP JUMPDEST JUMPDEST POP SWAP2 SWAP1 POP JUMP JUMPDEST PUSH0 DUP2 SWAP1 POP DUP2 PUSH0 MSTORE PUSH1 0x20 PUSH0 KECCAK256 SWAP1 POP SWAP2 SWAP1 POP JUMP JUMPDEST PUSH0 PUSH1 0x20 PUSH1 0x1F DUP4 ADD DIV SWAP1 POP SWAP2 SWAP1 POP JUMP JUMPDEST PUSH0 DUP3 DUP3 SHL SWAP1 POP SWAP3 SWAP2 POP POP JUMP JUMPDEST PUSH0 PUSH1 0x8 DUP4 MUL PUSH2 0x2195 PUSH32 0xFFFFFFFFFFFFFFFFFFFFFFFFFFFFFFFFFFFFFFFFFFFFFFFFFFFFFFFFFFFFFFFF DUP3 PUSH2 0x215A JUMP JUMPDEST PUSH2 0x219F DUP7 DUP4 PUSH2 0x215A JUMP JUMPDEST SWAP6 POP DUP1 NOT DUP5 AND SWAP4 POP DUP1 DUP7 AND DUP5 OR SWAP3 POP POP POP SWAP4 SWAP3 POP POP POP JUMP JUMPDEST PUSH0 DUP2 SWAP1 POP SWAP2 SWAP1 POP JUMP JUMPDEST PUSH0 PUSH2 0x21DA PUSH2 0x21D5 PUSH2 0x21D0 DUP5 PUSH2 0x19E8 JUMP JUMPDEST PUSH2 0x21B7 JUMP JUMPDEST PUSH2 0x19E8 JUMP JUMPDEST SWAP1 POP SWAP2 SWAP1 POP JUMP JUMPDEST PUSH0 DUP2 SWAP1 POP SWAP2 SWAP1 POP JUMP JUMPDEST PUSH2 0x21F3 DUP4 PUSH2 0x21C0 JUMP JUMPDEST PUSH2 0x2207 PUSH2 0x21FF DUP3 PUSH2 0x21E1 JUMP JUMPDEST DUP5 DUP5 SLOAD PUSH2 0x2166 JUMP JUMPDEST DUP3 SSTORE POP POP POP POP JUMP JUMPDEST PUSH0 SWAP1 JUMP JUMPDEST PUSH2 0x221B PUSH2 0x220F JUMP JUMPDEST PUSH2 0x2226 DUP2 DUP5 DUP5 PUSH2 0x21EA JUMP JUMPDEST POP POP POP JUMP JUMPDEST JUMPDEST DUP2 DUP2 LT ISZERO PUSH2 0x2249 JUMPI PUSH2 0x223E PUSH0 DUP3 PUSH2 0x2213 JUMP JUMPDEST PUSH1 0x1 DUP2 ADD SWAP1 POP PUSH2 0x222C JUMP JUMPDEST POP POP JUMP JUMPDEST PUSH1 0x1F DUP3 GT ISZERO PUSH2 0x228E JUMPI PUSH2 0x225F DUP2 PUSH2 0x2139 JUMP JUMPDEST PUSH2 0x2268 DUP5 PUSH2 0x214B JUMP JUMPDEST DUP2 ADD PUSH1 0x20 DUP6 LT ISZERO PUSH2 0x2277 JUMPI DUP2 SWAP1 POP JUMPDEST PUSH2 0x228B PUSH2 0x2283 DUP6 PUSH2 0x214B JUMP JUMPDEST DUP4 ADD DUP3 PUSH2 0x222B JUMP JUMPDEST POP POP JUMPDEST POP POP POP JUMP JUMPDEST PUSH0 DUP3 DUP3 SHR SWAP1 POP SWAP3 SWAP2 POP POP JUMP JUMPDEST PUSH0 PUSH2 0x22AE PUSH0 NOT DUP5 PUSH1 0x8 MUL PUSH2 0x2293 JUMP JUMPDEST NOT DUP1 DUP4 AND SWAP2 POP POP SWAP3 SWAP2 POP POP JUMP JUMPDEST PUSH0 PUSH2 0x22C6 DUP4 DUP4 PUSH2 0x229F JUMP JUMPDEST SWAP2 POP DUP3 PUSH1 0x2 MUL DUP3 OR SWAP1 POP SWAP3 SWAP2 POP POP JUMP JUMPDEST PUSH2 0x22DF DUP3 PUSH2 0x1D33 JUMP JUMPDEST PUSH8 0xFFFFFFFFFFFFFFFF DUP2 GT ISZERO PUSH2 0x22F8 JUMPI PUSH2 0x22F7 PUSH2 0x186A JUMP JUMPDEST JUMPDEST PUSH2 0x2302 DUP3 SLOAD PUSH2 0x2109 JUMP JUMPDEST PUSH2 0x230D DUP3 DUP3 DUP6 PUSH2 0x224D JUMP JUMPDEST PUSH0 PUSH1 0x20 SWAP1 POP PUSH1 0x1F DUP4 GT PUSH1 0x1 DUP2 EQ PUSH2 0x233E JUMPI PUSH0 DUP5 ISZERO PUSH2 0x232C JUMPI DUP3 DUP8 ADD MLOAD SWAP1 POP JUMPDEST PUSH2 0x2336 DUP6 DUP3 PUSH2 0x22BB JUMP JUMPDEST DUP7 SSTORE POP PUSH2 0x239D JUMP JUMPDEST PUSH1 0x1F NOT DUP5 AND PUSH2 0x234C DUP7 PUSH2 0x2139 JUMP JUMPDEST PUSH0 JUMPDEST DUP3 DUP2 LT ISZERO PUSH2 0x2373 JUMPI DUP5 DUP10 ADD MLOAD DUP3 SSTORE PUSH1 0x1 DUP3 ADD SWAP2 POP PUSH1 0x20 DUP6 ADD SWAP5 POP PUSH1 0x20 DUP2 ADD SWAP1 POP PUSH2 0x234E JUMP JUMPDEST DUP7 DUP4 LT ISZERO PUSH2 0x2390 JUMPI DUP5 DUP10 ADD MLOAD PUSH2 0x238C PUSH1 0x1F DUP10 AND DUP3 PUSH2 0x229F JUMP JUMPDEST DUP4 SSTORE POP JUMPDEST PUSH1 0x1 PUSH1 0x2 DUP9 MUL ADD DUP9 SSTORE POP POP POP JUMPDEST POP POP POP POP POP POP JUMP JUMPDEST PUSH32 0x4E487B7100000000000000000000000000000000000000000000000000000000 PUSH0 MSTORE PUSH1 0x11 PUSH1 0x4 MSTORE PUSH1 0x24 PUSH0 REVERT JUMPDEST PUSH0 PUSH2 0x23DC DUP3 PUSH2 0x19E8 JUMP JUMPDEST SWAP2 POP PUSH2 0x23E7 DUP4 PUSH2 0x19E8 JUMP JUMPDEST SWAP3 POP DUP3 DUP3 ADD SWAP1 POP DUP1 DUP3 GT ISZERO PUSH2 0x23FF JUMPI PUSH2 0x23FE PUSH2 0x23A5 JUMP JUMPDEST JUMPDEST SWAP3 SWAP2 POP POP JUMP JUMPDEST PUSH32 0x4E487B7100000000000000000000000000000000000000000000000000000000 PUSH0 MSTORE PUSH1 0x32 PUSH1 0x4 MSTORE PUSH1 0x24 PUSH0 REVERT JUMPDEST PUSH0 PUSH2 0x243C DUP3 PUSH2 0x19E8 JUMP JUMPDEST SWAP2 POP PUSH32 0xFFFFFFFFFFFFFFFFFFFFFFFFFFFFFFFFFFFFFFFFFFFFFFFFFFFFFFFFFFFFFFFF DUP3 SUB PUSH2 0x246E JUMPI PUSH2 0x246D PUSH2 0x23A5 JUMP JUMPDEST JUMPDEST PUSH1 0x1 DUP3 ADD SWAP1 POP SWAP2 SWAP1 POP JUMP JUMPDEST PUSH32 0x6F6E6C79206D61737465722061646D696E2063616E2061646420746865207573 PUSH0 DUP3 ADD MSTORE PUSH32 0x6572000000000000000000000000000000000000000000000000000000000000 PUSH1 0x20 DUP3 ADD MSTORE POP JUMP JUMPDEST PUSH0 PUSH2 0x24D3 PUSH1 0x22 DUP4 PUSH2 0x1D3D JUMP JUMPDEST SWAP2 POP PUSH2 0x24DE DUP3 PUSH2 0x2479 JUMP JUMPDEST PUSH1 0x40 DUP3 ADD SWAP1 POP SWAP2 SWAP1 POP JUMP JUMPDEST PUSH0 PUSH1 0x20 DUP3 ADD SWAP1 POP DUP2 DUP2 SUB PUSH0 DUP4 ADD MSTORE PUSH2 0x2500 DUP2 PUSH2 0x24C7 JUMP JUMPDEST SWAP1 POP SWAP2 SWAP1 POP JUMP JUMPDEST PUSH32 0x7573657220646F65736E27742065786973740000000000000000000000000000 PUSH0 DUP3 ADD MSTORE POP JUMP JUMPDEST PUSH0 PUSH2 0x253B PUSH1 0x12 DUP4 PUSH2 0x1D3D JUMP JUMPDEST SWAP2 POP PUSH2 0x2546 DUP3 PUSH2 0x2507 JUMP JUMPDEST PUSH1 0x20 DUP3 ADD SWAP1 POP SWAP2 SWAP1 POP JUMP JUMPDEST PUSH0 PUSH1 0x20 DUP3 ADD SWAP1 POP DUP2 DUP2 SUB PUSH0 DUP4 ADD MSTORE PUSH2 0x2568 DUP2 PUSH2 0x252F JUMP JUMPDEST SWAP1 POP SWAP2 SWAP1 POP JUMP JUMPDEST PUSH0 DUP2 SWAP1 POP SWAP3 SWAP2 POP POP JUMP JUMPDEST PUSH0 PUSH2 0x2583 DUP3 PUSH2 0x1D33 JUMP JUMPDEST PUSH2 0x258D DUP2 DUP6 PUSH2 0x256F JUMP JUMPDEST SWAP4 POP PUSH2 0x259D DUP2 DUP6 PUSH1 0x20 DUP7 ADD PUSH2 0x1D4D JUMP JUMPDEST DUP1 DUP5 ADD SWAP2 POP POP SWAP3 SWAP2 POP POP JUMP JUMPDEST PUSH0 PUSH2 0x25B4 DUP3 DUP5 PUSH2 0x2579 JUMP JUMPDEST SWAP2 POP DUP2 SWAP1 POP SWAP3 SWAP2 POP POP JUMP JUMPDEST PUSH32 0x696E636F727265637420656D61696C206F722070617373776F72640000000000 PUSH0 DUP3 ADD MSTORE POP JUMP JUMPDEST PUSH0 PUSH2 0x25F3 PUSH1 0x1B DUP4 PUSH2 0x1D3D JUMP JUMPDEST SWAP2 POP PUSH2 0x25FE DUP3 PUSH2 0x25BF JUMP JUMPDEST PUSH1 0x20 DUP3 ADD SWAP1 POP SWAP2 SWAP1 POP JUMP JUMPDEST PUSH0 PUSH1 0x20 DUP3 ADD SWAP1 POP DUP2 DUP2 SUB PUSH0 DUP4 ADD MSTORE PUSH2 0x2620 DUP2 PUSH2 0x25E7 JUMP JUMPDEST SWAP1 POP SWAP2 SWAP1 POP JUMP INVALID LOG2 PUSH5 0x6970667358 0x22 SLT KECCAK256 0xB8 0xA7 0xD1 PUSH25 0x67BD84A519C2A98479F8EBA1956C1E16D8FDC1AA0416B1E227 STATICCALL DUP5 CALLDATALOAD PUSH5 0x736F6C6343 STOP ADDMOD AND STOP CALLER "
				},
				"gasEstimates": {
					"creation": {
						"codeDepositCost": "1964200",
						"executionCost": "58464",
						"totalCost": "2022664"
					},
					"external": {
						"acceptAdminRequest(address)": "infinite",
						"adminAddresses(address)": "infinite",
						"adminKeys(uint256)": "5032",
						"adminRequestkeys(uint256)": "4989",
						"adminRequests(address)": "infinite",
						"checkIfAdmin(address)": "2951",
						"compareString(string,string)": "infinite",
						"createAdminRequest(string,string,string,string,address,uint256,uint256,uint256)": "infinite",
						"declineAdminRequest(address)": "infinite",
						"getAdminRequests()": "infinite",
						"getAdmins()": "infinite",
						"getMasterAdmin()": "2538",
						"getTotalAdminCount()": "2499",
						"login(string,string,address)": "infinite",
						"masterAdmin()": "2554"
					},
					"internal": {
						"char(bytes1)": "infinite",
						"toAsciiString(address)": "infinite"
					}
				},
				"methodIdentifiers": {
					"acceptAdminRequest(address)": "dca2c3e4",
					"adminAddresses(address)": "4ed38faf",
					"adminKeys(uint256)": "aff125f6",
					"adminRequestkeys(uint256)": "72f305eb",
					"adminRequests(address)": "3c48aa79",
					"checkIfAdmin(address)": "d9fa9c1a",
					"compareString(string,string)": "75b83187",
					"createAdminRequest(string,string,string,string,address,uint256,uint256,uint256)": "239d6933",
					"declineAdminRequest(address)": "67e1cde0",
					"getAdminRequests()": "e5a43c7c",
					"getAdmins()": "31ae450b",
					"getMasterAdmin()": "6a228aba",
					"getTotalAdminCount()": "6438176c",
					"login(string,string,address)": "d0e93812",
					"masterAdmin()": "2a68f64e"
				}
			},
			"storageLayout": {
				"storage": [
					{
						"astId": 28,
						"contract": "admin.sol:Admin",
						"label": "adminKeys",
						"offset": 0,
						"slot": "0",
						"type": "t_array(t_address)dyn_storage"
					},
					{
						"astId": 33,
						"contract": "admin.sol:Admin",
						"label": "adminAddresses",
						"offset": 0,
						"slot": "1",
						"type": "t_mapping(t_address,t_struct(AdminType)95_storage)"
					},
					{
						"astId": 36,
						"contract": "admin.sol:Admin",
						"label": "adminRequestkeys",
						"offset": 0,
						"slot": "2",
						"type": "t_array(t_address)dyn_storage"
					},
					{
						"astId": 41,
						"contract": "admin.sol:Admin",
						"label": "adminRequests",
						"offset": 0,
						"slot": "3",
						"type": "t_mapping(t_address,t_struct(AdminRequest)101_storage)"
					},
					{
						"astId": 44,
						"contract": "admin.sol:Admin",
						"label": "totalAdminCount",
						"offset": 0,
						"slot": "4",
						"type": "t_uint256"
					},
					{
						"astId": 47,
						"contract": "admin.sol:Admin",
						"label": "totalRequestCount",
						"offset": 0,
						"slot": "5",
						"type": "t_uint256"
					},
					{
						"astId": 65,
						"contract": "admin.sol:Admin",
						"label": "masterAdmin",
						"offset": 0,
						"slot": "6",
						"type": "t_address"
					}
				],
				"types": {
					"t_address": {
						"encoding": "inplace",
						"label": "address",
						"numberOfBytes": "20"
					},
					"t_array(t_address)dyn_storage": {
						"base": "t_address",
						"encoding": "dynamic_array",
						"label": "address[]",
						"numberOfBytes": "32"
					},
					"t_bool": {
						"encoding": "inplace",
						"label": "bool",
						"numberOfBytes": "1"
					},
					"t_enum(RequestStatusType)63": {
						"encoding": "inplace",
						"label": "enum Admin.RequestStatusType",
						"numberOfBytes": "1"
					},
					"t_mapping(t_address,t_struct(AdminRequest)101_storage)": {
						"encoding": "mapping",
						"key": "t_address",
						"label": "mapping(address => struct Admin.AdminRequest)",
						"numberOfBytes": "32",
						"value": "t_struct(AdminRequest)101_storage"
					},
					"t_mapping(t_address,t_struct(AdminType)95_storage)": {
						"encoding": "mapping",
						"key": "t_address",
						"label": "mapping(address => struct Admin.AdminType)",
						"numberOfBytes": "32",
						"value": "t_struct(AdminType)95_storage"
					},
					"t_string_storage": {
						"encoding": "bytes",
						"label": "string",
						"numberOfBytes": "32"
					},
					"t_struct(AdminRequest)101_storage": {
						"encoding": "inplace",
						"label": "struct Admin.AdminRequest",
						"members": [
							{
								"astId": 97,
								"contract": "admin.sol:Admin",
								"label": "walletAddress",
								"offset": 0,
								"slot": "0",
								"type": "t_address"
							},
							{
								"astId": 100,
								"contract": "admin.sol:Admin",
								"label": "requestStatus",
								"offset": 20,
								"slot": "0",
								"type": "t_enum(RequestStatusType)63"
							}
						],
						"numberOfBytes": "32"
					},
					"t_struct(AdminType)95_storage": {
						"encoding": "inplace",
						"label": "struct Admin.AdminType",
						"members": [
							{
								"astId": 81,
								"contract": "admin.sol:Admin",
								"label": "fname",
								"offset": 0,
								"slot": "0",
								"type": "t_string_storage"
							},
							{
								"astId": 83,
								"contract": "admin.sol:Admin",
								"label": "lname",
								"offset": 0,
								"slot": "1",
								"type": "t_string_storage"
							},
							{
								"astId": 85,
								"contract": "admin.sol:Admin",
								"label": "email",
								"offset": 0,
								"slot": "2",
								"type": "t_string_storage"
							},
							{
								"astId": 87,
								"contract": "admin.sol:Admin",
								"label": "password",
								"offset": 0,
								"slot": "3",
								"type": "t_string_storage"
							},
							{
								"astId": 89,
								"contract": "admin.sol:Admin",
								"label": "walletAddress",
								"offset": 0,
								"slot": "4",
								"type": "t_address"
							},
							{
								"astId": 92,
								"contract": "admin.sol:Admin",
								"label": "DoB",
								"offset": 0,
								"slot": "5",
								"type": "t_struct(Date)72_storage"
							},
							{
								"astId": 94,
								"contract": "admin.sol:Admin",
								"label": "verified",
								"offset": 0,
								"slot": "8",
								"type": "t_bool"
							}
						],
						"numberOfBytes": "288"
					},
					"t_struct(Date)72_storage": {
						"encoding": "inplace",
						"label": "struct Admin.Date",
						"members": [
							{
								"astId": 67,
								"contract": "admin.sol:Admin",
								"label": "date",
								"offset": 0,
								"slot": "0",
								"type": "t_uint256"
							},
							{
								"astId": 69,
								"contract": "admin.sol:Admin",
								"label": "month",
								"offset": 0,
								"slot": "1",
								"type": "t_uint256"
							},
							{
								"astId": 71,
								"contract": "admin.sol:Admin",
								"label": "year",
								"offset": 0,
								"slot": "2",
								"type": "t_uint256"
							}
						],
						"numberOfBytes": "96"
					},
					"t_uint256": {
						"encoding": "inplace",
						"label": "uint256",
						"numberOfBytes": "32"
					}
				}
			},
			"userdoc": {
				"kind": "user",
				"methods": {},
				"version": 1
			}
		}
	}
}