{
	"patient.sol": {
		"Patient": {
			"abi": [
				{
					"inputs": [
						{
							"internalType": "address",
							"name": "workerAddress",
							"type": "address"
						}
					],
					"stateMutability": "nonpayable",
					"type": "constructor"
				},
				{
					"anonymous": false,
					"inputs": [
						{
							"indexed": false,
							"internalType": "address",
							"name": "patientAddress",
							"type": "address"
						},
						{
							"indexed": false,
							"internalType": "string",
							"name": "name",
							"type": "string"
						},
						{
							"indexed": false,
							"internalType": "uint256",
							"name": "age",
							"type": "uint256"
						}
					],
					"name": "PatientAccepted",
					"type": "event"
				},
				{
					"anonymous": false,
					"inputs": [
						{
							"indexed": false,
							"internalType": "uint256",
							"name": "totalPatients",
							"type": "uint256"
						},
						{
							"indexed": false,
							"internalType": "string",
							"name": "email",
							"type": "string"
						}
					],
					"name": "PatientCreated",
					"type": "event"
				},
				{
					"anonymous": false,
					"inputs": [
						{
							"indexed": false,
							"internalType": "address",
							"name": "patientAddress",
							"type": "address"
						}
					],
					"name": "PatientDeleted",
					"type": "event"
				},
				{
					"anonymous": false,
					"inputs": [
						{
							"indexed": false,
							"internalType": "address",
							"name": "patietnAddress",
							"type": "address"
						}
					],
					"name": "PatientUpdated",
					"type": "event"
				},
				{
					"anonymous": false,
					"inputs": [
						{
							"indexed": false,
							"internalType": "address",
							"name": "patientAddress",
							"type": "address"
						},
						{
							"indexed": false,
							"internalType": "bool",
							"name": "status",
							"type": "bool"
						}
					],
					"name": "PatientVerified",
					"type": "event"
				},
				{
					"inputs": [
						{
							"internalType": "string",
							"name": "str1",
							"type": "string"
						},
						{
							"internalType": "string",
							"name": "str2",
							"type": "string"
						}
					],
					"name": "compareString",
					"outputs": [
						{
							"internalType": "bool",
							"name": "",
							"type": "bool"
						}
					],
					"stateMutability": "pure",
					"type": "function"
				},
				{
					"inputs": [
						{
							"internalType": "string",
							"name": "fname",
							"type": "string"
						},
						{
							"internalType": "string",
							"name": "lname",
							"type": "string"
						},
						{
							"internalType": "string",
							"name": "email",
							"type": "string"
						},
						{
							"internalType": "string",
							"name": "password",
							"type": "string"
						},
						{
							"internalType": "uint256",
							"name": "day",
							"type": "uint256"
						},
						{
							"internalType": "uint256",
							"name": "month",
							"type": "uint256"
						},
						{
							"internalType": "uint256",
							"name": "year",
							"type": "uint256"
						},
						{
							"internalType": "string",
							"name": "location",
							"type": "string"
						},
						{
							"internalType": "address",
							"name": "patientAddress",
							"type": "address"
						}
					],
					"name": "createPatient",
					"outputs": [
						{
							"internalType": "bool",
							"name": "",
							"type": "bool"
						}
					],
					"stateMutability": "nonpayable",
					"type": "function"
				},
				{
					"inputs": [
						{
							"internalType": "address",
							"name": "_patientId",
							"type": "address"
						}
					],
					"name": "deletePatient",
					"outputs": [],
					"stateMutability": "nonpayable",
					"type": "function"
				},
				{
					"inputs": [],
					"name": "getAllPatient",
					"outputs": [
						{
							"components": [
								{
									"internalType": "string",
									"name": "fname",
									"type": "string"
								},
								{
									"internalType": "string",
									"name": "lname",
									"type": "string"
								},
								{
									"internalType": "string",
									"name": "email",
									"type": "string"
								},
								{
									"internalType": "string",
									"name": "password",
									"type": "string"
								},
								{
									"internalType": "string",
									"name": "location",
									"type": "string"
								},
								{
									"components": [
										{
											"internalType": "uint256",
											"name": "date",
											"type": "uint256"
										},
										{
											"internalType": "uint256",
											"name": "month",
											"type": "uint256"
										},
										{
											"internalType": "uint256",
											"name": "year",
											"type": "uint256"
										}
									],
									"internalType": "struct Patient.Date",
									"name": "DoB",
									"type": "tuple"
								},
								{
									"internalType": "address",
									"name": "walletAddress",
									"type": "address"
								},
								{
									"internalType": "bool",
									"name": "verfiedEmailAddress",
									"type": "bool"
								}
							],
							"internalType": "struct Patient.PatientType[]",
							"name": "",
							"type": "tuple[]"
						}
					],
					"stateMutability": "view",
					"type": "function"
				},
				{
					"inputs": [
						{
							"internalType": "address",
							"name": "patientAddress",
							"type": "address"
						}
					],
					"name": "getPatient",
					"outputs": [
						{
							"components": [
								{
									"internalType": "string",
									"name": "fname",
									"type": "string"
								},
								{
									"internalType": "string",
									"name": "lname",
									"type": "string"
								},
								{
									"internalType": "string",
									"name": "email",
									"type": "string"
								},
								{
									"internalType": "string",
									"name": "password",
									"type": "string"
								},
								{
									"internalType": "string",
									"name": "location",
									"type": "string"
								},
								{
									"components": [
										{
											"internalType": "uint256",
											"name": "date",
											"type": "uint256"
										},
										{
											"internalType": "uint256",
											"name": "month",
											"type": "uint256"
										},
										{
											"internalType": "uint256",
											"name": "year",
											"type": "uint256"
										}
									],
									"internalType": "struct Patient.Date",
									"name": "DoB",
									"type": "tuple"
								},
								{
									"internalType": "address",
									"name": "walletAddress",
									"type": "address"
								},
								{
									"internalType": "bool",
									"name": "verfiedEmailAddress",
									"type": "bool"
								}
							],
							"internalType": "struct Patient.PatientType",
							"name": "",
							"type": "tuple"
						}
					],
					"stateMutability": "view",
					"type": "function"
				},
				{
					"inputs": [
						{
							"internalType": "address",
							"name": "",
							"type": "address"
						}
					],
					"name": "patientDeleteRequests",
					"outputs": [
						{
							"internalType": "uint256",
							"name": "requestedTimestamp",
							"type": "uint256"
						},
						{
							"internalType": "uint256",
							"name": "modifiedTimestamp",
							"type": "uint256"
						},
						{
							"internalType": "enum Patient.status",
							"name": "requestStatus",
							"type": "uint8"
						},
						{
							"internalType": "address",
							"name": "patientAddress",
							"type": "address"
						},
						{
							"internalType": "string",
							"name": "reason",
							"type": "string"
						}
					],
					"stateMutability": "view",
					"type": "function"
				},
				{
					"inputs": [
						{
							"internalType": "uint256",
							"name": "",
							"type": "uint256"
						}
					],
					"name": "patientKeys",
					"outputs": [
						{
							"internalType": "address",
							"name": "",
							"type": "address"
						}
					],
					"stateMutability": "view",
					"type": "function"
				},
				{
					"inputs": [
						{
							"internalType": "address",
							"name": "",
							"type": "address"
						}
					],
					"name": "patients",
					"outputs": [
						{
							"internalType": "string",
							"name": "fname",
							"type": "string"
						},
						{
							"internalType": "string",
							"name": "lname",
							"type": "string"
						},
						{
							"internalType": "string",
							"name": "email",
							"type": "string"
						},
						{
							"internalType": "string",
							"name": "password",
							"type": "string"
						},
						{
							"internalType": "string",
							"name": "location",
							"type": "string"
						},
						{
							"components": [
								{
									"internalType": "uint256",
									"name": "date",
									"type": "uint256"
								},
								{
									"internalType": "uint256",
									"name": "month",
									"type": "uint256"
								},
								{
									"internalType": "uint256",
									"name": "year",
									"type": "uint256"
								}
							],
							"internalType": "struct Patient.Date",
							"name": "DoB",
							"type": "tuple"
						},
						{
							"internalType": "address",
							"name": "walletAddress",
							"type": "address"
						},
						{
							"internalType": "bool",
							"name": "verfiedEmailAddress",
							"type": "bool"
						}
					],
					"stateMutability": "view",
					"type": "function"
				},
				{
					"inputs": [
						{
							"internalType": "address",
							"name": "_patientId",
							"type": "address"
						}
					],
					"name": "updatePatient",
					"outputs": [
						{
							"internalType": "bool",
							"name": "",
							"type": "bool"
						}
					],
					"stateMutability": "nonpayable",
					"type": "function"
				},
				{
					"inputs": [],
					"name": "verifyPatientEmail",
					"outputs": [
						{
							"internalType": "bool",
							"name": "",
							"type": "bool"
						}
					],
					"stateMutability": "nonpayable",
					"type": "function"
				}
			],
			"devdoc": {
				"kind": "dev",
				"methods": {},
				"version": 1
			},
			"evm": {
				"assembly": "    /* \"patient.sol\":82:3613  contract Patient {... */\n  mstore(0x40, 0x80)\n    /* \"patient.sol\":803:892  constructor(address workerAddress){... */\n  callvalue\n  dup1\n  iszero\n  tag_1\n  jumpi\n  0x00\n  dup1\n  revert\ntag_1:\n  pop\n  mload(0x40)\n  sub(codesize, bytecodeSize)\n  dup1\n  bytecodeSize\n  dup4\n  codecopy\n  dup2\n  dup2\n  add\n  0x40\n  mstore\n  dup2\n  add\n  swap1\n  tag_2\n  swap2\n  swap1\n  tag_3\n  jump\t// in\ntag_2:\n    /* \"patient.sol\":871:884  workerAddress */\n  dup1\n    /* \"patient.sol\":847:861  workerContract */\n  0x00\n  dup1\n    /* \"patient.sol\":847:885  workerContract = Worker(workerAddress) */\n  0x0100\n  exp\n  dup2\n  sload\n  dup2\n  0xffffffffffffffffffffffffffffffffffffffff\n  mul\n  not\n  and\n  swap1\n  dup4\n  0xffffffffffffffffffffffffffffffffffffffff\n  and\n  mul\n  or\n  swap1\n  sstore\n  pop\n    /* \"patient.sol\":803:892  constructor(address workerAddress){... */\n  pop\n    /* \"patient.sol\":82:3613  contract Patient {... */\n  jump(tag_6)\n    /* \"#utility.yul\":88:205   */\ntag_8:\n    /* \"#utility.yul\":197:198   */\n  0x00\n    /* \"#utility.yul\":194:195   */\n  dup1\n    /* \"#utility.yul\":187:199   */\n  revert\n    /* \"#utility.yul\":334:460   */\ntag_10:\n    /* \"#utility.yul\":371:378   */\n  0x00\n    /* \"#utility.yul\":411:453   */\n  0xffffffffffffffffffffffffffffffffffffffff\n    /* \"#utility.yul\":404:409   */\n  dup3\n    /* \"#utility.yul\":400:454   */\n  and\n    /* \"#utility.yul\":389:454   */\n  swap1\n  pop\n    /* \"#utility.yul\":334:460   */\n  swap2\n  swap1\n  pop\n  jump\t// out\n    /* \"#utility.yul\":466:562   */\ntag_11:\n    /* \"#utility.yul\":503:510   */\n  0x00\n    /* \"#utility.yul\":532:556   */\n  tag_20\n    /* \"#utility.yul\":550:555   */\n  dup3\n    /* \"#utility.yul\":532:556   */\n  tag_10\n  jump\t// in\ntag_20:\n    /* \"#utility.yul\":521:556   */\n  swap1\n  pop\n    /* \"#utility.yul\":466:562   */\n  swap2\n  swap1\n  pop\n  jump\t// out\n    /* \"#utility.yul\":568:690   */\ntag_12:\n    /* \"#utility.yul\":641:665   */\n  tag_22\n    /* \"#utility.yul\":659:664   */\n  dup2\n    /* \"#utility.yul\":641:665   */\n  tag_11\n  jump\t// in\ntag_22:\n    /* \"#utility.yul\":634:639   */\n  dup2\n    /* \"#utility.yul\":631:666   */\n  eq\n    /* \"#utility.yul\":621:684   */\n  tag_23\n  jumpi\n    /* \"#utility.yul\":680:681   */\n  0x00\n    /* \"#utility.yul\":677:678   */\n  dup1\n    /* \"#utility.yul\":670:682   */\n  revert\n    /* \"#utility.yul\":621:684   */\ntag_23:\n    /* \"#utility.yul\":568:690   */\n  pop\n  jump\t// out\n    /* \"#utility.yul\":696:839   */\ntag_13:\n    /* \"#utility.yul\":753:758   */\n  0x00\n    /* \"#utility.yul\":784:790   */\n  dup2\n    /* \"#utility.yul\":778:791   */\n  mload\n    /* \"#utility.yul\":769:791   */\n  swap1\n  pop\n    /* \"#utility.yul\":800:833   */\n  tag_25\n    /* \"#utility.yul\":827:832   */\n  dup2\n    /* \"#utility.yul\":800:833   */\n  tag_12\n  jump\t// in\ntag_25:\n    /* \"#utility.yul\":696:839   */\n  swap3\n  swap2\n  pop\n  pop\n  jump\t// out\n    /* \"#utility.yul\":845:1196   */\ntag_3:\n    /* \"#utility.yul\":915:921   */\n  0x00\n    /* \"#utility.yul\":964:966   */\n  0x20\n    /* \"#utility.yul\":952:961   */\n  dup3\n    /* \"#utility.yul\":943:950   */\n  dup5\n    /* \"#utility.yul\":939:962   */\n  sub\n    /* \"#utility.yul\":935:967   */\n  slt\n    /* \"#utility.yul\":932:1051   */\n  iszero\n  tag_27\n  jumpi\n    /* \"#utility.yul\":970:1049   */\n  tag_28\n  tag_8\n  jump\t// in\ntag_28:\n    /* \"#utility.yul\":932:1051   */\ntag_27:\n    /* \"#utility.yul\":1090:1091   */\n  0x00\n    /* \"#utility.yul\":1115:1179   */\n  tag_29\n    /* \"#utility.yul\":1171:1178   */\n  dup5\n    /* \"#utility.yul\":1162:1168   */\n  dup3\n    /* \"#utility.yul\":1151:1160   */\n  dup6\n    /* \"#utility.yul\":1147:1169   */\n  add\n    /* \"#utility.yul\":1115:1179   */\n  tag_13\n  jump\t// in\ntag_29:\n    /* \"#utility.yul\":1105:1179   */\n  swap2\n  pop\n    /* \"#utility.yul\":1061:1189   */\n  pop\n    /* \"#utility.yul\":845:1196   */\n  swap3\n  swap2\n  pop\n  pop\n  jump\t// out\n    /* \"patient.sol\":82:3613  contract Patient {... */\ntag_6:\n  dataSize(sub_0)\n  dup1\n  dataOffset(sub_0)\n  0x00\n  codecopy\n  0x00\n  return\nstop\n\nsub_0: assembly {\n        /* \"patient.sol\":82:3613  contract Patient {... */\n      mstore(0x40, 0x80)\n      callvalue\n      dup1\n      iszero\n      tag_1\n      jumpi\n      0x00\n      dup1\n      revert\n    tag_1:\n      pop\n      jumpi(tag_2, lt(calldatasize, 0x04))\n      shr(0xe0, calldataload(0x00))\n      dup1\n      0x8c8350fd\n      gt\n      tag_13\n      jumpi\n      dup1\n      0x8c8350fd\n      eq\n      tag_8\n      jumpi\n      dup1\n      0x96e4e141\n      eq\n      tag_9\n      jumpi\n      dup1\n      0xb5368e20\n      eq\n      tag_10\n      jumpi\n      dup1\n      0xb7997777\n      eq\n      tag_11\n      jumpi\n      dup1\n      0xe7480f72\n      eq\n      tag_12\n      jumpi\n      jump(tag_2)\n    tag_13:\n      dup1\n      0x02513ed2\n      eq\n      tag_3\n      jumpi\n      dup1\n      0x0869cfbc\n      eq\n      tag_4\n      jumpi\n      dup1\n      0x1b45309c\n      eq\n      tag_5\n      jumpi\n      dup1\n      0x7535917a\n      eq\n      tag_6\n      jumpi\n      dup1\n      0x75b83187\n      eq\n      tag_7\n      jumpi\n    tag_2:\n      0x00\n      dup1\n      revert\n        /* \"patient.sol\":3031:3177  function deletePatient(address _patientId) external isWorker {... */\n    tag_3:\n      tag_14\n      0x04\n      dup1\n      calldatasize\n      sub\n      dup2\n      add\n      swap1\n      tag_15\n      swap2\n      swap1\n      tag_16\n      jump\t// in\n    tag_15:\n      tag_17\n      jump\t// in\n    tag_14:\n      stop\n        /* \"patient.sol\":1241:1288  mapping(address => PatientType) public patients */\n    tag_4:\n      tag_18\n      0x04\n      dup1\n      calldatasize\n      sub\n      dup2\n      add\n      swap1\n      tag_19\n      swap2\n      swap1\n      tag_16\n      jump\t// in\n    tag_19:\n      tag_20\n      jump\t// in\n    tag_18:\n      mload(0x40)\n      tag_21\n      swap9\n      swap8\n      swap7\n      swap6\n      swap5\n      swap4\n      swap3\n      swap2\n      swap1\n      tag_22\n      jump\t// in\n    tag_21:\n      mload(0x40)\n      dup1\n      swap2\n      sub\n      swap1\n      return\n        /* \"patient.sol\":2653:2793  function updatePatient(address _patientId) public isOwner returns(bool){... */\n    tag_5:\n      tag_23\n      0x04\n      dup1\n      calldatasize\n      sub\n      dup2\n      add\n      swap1\n      tag_24\n      swap2\n      swap1\n      tag_16\n      jump\t// in\n    tag_24:\n      tag_25\n      jump\t// in\n    tag_23:\n      mload(0x40)\n      tag_26\n      swap2\n      swap1\n      tag_27\n      jump\t// in\n    tag_26:\n      mload(0x40)\n      dup1\n      swap2\n      sub\n      swap1\n      return\n        /* \"patient.sol\":1859:2647  function createPatient(... */\n    tag_6:\n      tag_28\n      0x04\n      dup1\n      calldatasize\n      sub\n      dup2\n      add\n      swap1\n      tag_29\n      swap2\n      swap1\n      tag_30\n      jump\t// in\n    tag_29:\n      tag_31\n      jump\t// in\n    tag_28:\n      mload(0x40)\n      tag_32\n      swap2\n      swap1\n      tag_27\n      jump\t// in\n    tag_32:\n      mload(0x40)\n      dup1\n      swap2\n      sub\n      swap1\n      return\n        /* \"patient.sol\":1669:1853  function compareString(string memory str1, string memory str2) public pure returns (bool) {... */\n    tag_7:\n      tag_33\n      0x04\n      dup1\n      calldatasize\n      sub\n      dup2\n      add\n      swap1\n      tag_34\n      swap2\n      swap1\n      tag_35\n      jump\t// in\n    tag_34:\n      tag_36\n      jump\t// in\n    tag_33:\n      mload(0x40)\n      tag_37\n      swap2\n      swap1\n      tag_27\n      jump\t// in\n    tag_37:\n      mload(0x40)\n      dup1\n      swap2\n      sub\n      swap1\n      return\n        /* \"patient.sol\":3324:3611  function getAllPatient() public view returns(PatientType[] memory) {... */\n    tag_8:\n      tag_38\n      tag_39\n      jump\t// in\n    tag_38:\n      mload(0x40)\n      tag_40\n      swap2\n      swap1\n      tag_41\n      jump\t// in\n    tag_40:\n      mload(0x40)\n      dup1\n      swap2\n      sub\n      swap1\n      return\n        /* \"patient.sol\":1192:1235  mapping(uint => address) public patientKeys */\n    tag_9:\n      tag_42\n      0x04\n      dup1\n      calldatasize\n      sub\n      dup2\n      add\n      swap1\n      tag_43\n      swap2\n      swap1\n      tag_44\n      jump\t// in\n    tag_43:\n      tag_45\n      jump\t// in\n    tag_42:\n      mload(0x40)\n      tag_46\n      swap2\n      swap1\n      tag_47\n      jump\t// in\n    tag_46:\n      mload(0x40)\n      dup1\n      swap2\n      sub\n      swap1\n      return\n        /* \"patient.sol\":3183:3318  function getPatient(address patientAddress) external view returns (PatientType memory) {... */\n    tag_10:\n      tag_48\n      0x04\n      dup1\n      calldatasize\n      sub\n      dup2\n      add\n      swap1\n      tag_49\n      swap2\n      swap1\n      tag_16\n      jump\t// in\n    tag_49:\n      tag_50\n      jump\t// in\n    tag_48:\n      mload(0x40)\n      tag_51\n      swap2\n      swap1\n      tag_52\n      jump\t// in\n    tag_51:\n      mload(0x40)\n      dup1\n      swap2\n      sub\n      swap1\n      return\n        /* \"patient.sol\":1294:1361  mapping(address=>PatientDeleteRequest) public patientDeleteRequests */\n    tag_11:\n      tag_53\n      0x04\n      dup1\n      calldatasize\n      sub\n      dup2\n      add\n      swap1\n      tag_54\n      swap2\n      swap1\n      tag_16\n      jump\t// in\n    tag_54:\n      tag_55\n      jump\t// in\n    tag_53:\n      mload(0x40)\n      tag_56\n      swap6\n      swap5\n      swap4\n      swap3\n      swap2\n      swap1\n      tag_57\n      jump\t// in\n    tag_56:\n      mload(0x40)\n      dup1\n      swap2\n      sub\n      swap1\n      return\n        /* \"patient.sol\":2799:3025  function verifyPatientEmail() public isOwner returns(bool){... */\n    tag_12:\n      tag_58\n      tag_59\n      jump\t// in\n    tag_58:\n      mload(0x40)\n      tag_60\n      swap2\n      swap1\n      tag_27\n      jump\t// in\n    tag_60:\n      mload(0x40)\n      dup1\n      swap2\n      sub\n      swap1\n      return\n        /* \"patient.sol\":3031:3177  function deletePatient(address _patientId) external isWorker {... */\n    tag_17:\n        /* \"patient.sol\":935:949  workerContract */\n      0x00\n      dup1\n      sload\n      swap1\n      0x0100\n      exp\n      swap1\n      div\n      0xffffffffffffffffffffffffffffffffffffffff\n      and\n        /* \"patient.sol\":935:963  workerContract.checkIfWorker */\n      0xffffffffffffffffffffffffffffffffffffffff\n      and\n      0xf7bea9f3\n        /* \"patient.sol\":964:974  msg.sender */\n      caller\n        /* \"patient.sol\":935:975  workerContract.checkIfWorker(msg.sender) */\n      mload(0x40)\n      dup3\n      0xffffffff\n      and\n      0xe0\n      shl\n      dup2\n      mstore\n      0x04\n      add\n      tag_62\n      swap2\n      swap1\n      tag_47\n      jump\t// in\n    tag_62:\n      0x20\n      mload(0x40)\n      dup1\n      dup4\n      sub\n      dup2\n      dup7\n      gas\n      staticcall\n      iszero\n      dup1\n      iszero\n      tag_64\n      jumpi\n      returndatasize\n      0x00\n      dup1\n      returndatacopy\n      revert(0x00, returndatasize)\n    tag_64:\n      pop\n      pop\n      pop\n      pop\n      mload(0x40)\n      returndatasize\n      not(0x1f)\n      0x1f\n      dup3\n      add\n      and\n      dup3\n      add\n      dup1\n      0x40\n      mstore\n      pop\n      dup2\n      add\n      swap1\n      tag_65\n      swap2\n      swap1\n      tag_66\n      jump\t// in\n    tag_65:\n        /* \"patient.sol\":927:1013  require(workerContract.checkIfWorker(msg.sender),\"only worker can access the feature\") */\n      tag_67\n      jumpi\n      mload(0x40)\n      0x08c379a000000000000000000000000000000000000000000000000000000000\n      dup2\n      mstore\n      0x04\n      add\n      tag_68\n      swap1\n      tag_69\n      jump\t// in\n    tag_68:\n      mload(0x40)\n      dup1\n      swap2\n      sub\n      swap1\n      revert\n    tag_67:\n        /* \"patient.sol\":3109:3117  patients */\n      0x03\n        /* \"patient.sol\":3109:3129  patients[_patientId] */\n      0x00\n        /* \"patient.sol\":3118:3128  _patientId */\n      dup3\n        /* \"patient.sol\":3109:3129  patients[_patientId] */\n      0xffffffffffffffffffffffffffffffffffffffff\n      and\n      0xffffffffffffffffffffffffffffffffffffffff\n      and\n      dup2\n      mstore\n      0x20\n      add\n      swap1\n      dup2\n      mstore\n      0x20\n      add\n      0x00\n      keccak256\n      0x00\n        /* \"patient.sol\":3102:3129  delete patients[_patientId] */\n      dup1\n      dup3\n      add\n      0x00\n      tag_71\n      swap2\n      swap1\n      tag_72\n      jump\t// in\n    tag_71:\n      0x01\n      dup3\n      add\n      0x00\n      tag_73\n      swap2\n      swap1\n      tag_72\n      jump\t// in\n    tag_73:\n      0x02\n      dup3\n      add\n      0x00\n      tag_74\n      swap2\n      swap1\n      tag_72\n      jump\t// in\n    tag_74:\n      0x03\n      dup3\n      add\n      0x00\n      tag_75\n      swap2\n      swap1\n      tag_72\n      jump\t// in\n    tag_75:\n      0x04\n      dup3\n      add\n      0x00\n      tag_76\n      swap2\n      swap1\n      tag_72\n      jump\t// in\n    tag_76:\n      0x05\n      dup3\n      add\n      0x00\n      dup1\n      dup3\n      add\n      0x00\n      swap1\n      sstore\n      0x01\n      dup3\n      add\n      0x00\n      swap1\n      sstore\n      0x02\n      dup3\n      add\n      0x00\n      swap1\n      sstore\n      pop\n      pop\n      0x08\n      dup3\n      add\n      exp(0x0100, 0x00)\n      dup2\n      sload\n      swap1\n      0xffffffffffffffffffffffffffffffffffffffff\n      mul\n      not\n      and\n      swap1\n      sstore\n      0x08\n      dup3\n      add\n      exp(0x0100, 0x14)\n      dup2\n      sload\n      swap1\n      0xff\n      mul\n      not\n      and\n      swap1\n      sstore\n      pop\n      pop\n        /* \"patient.sol\":3144:3170  PatientDeleted(_patientId) */\n      0xde39be920c3839f8060bf8f49fef3956f673e91b0c3bd11a980fd926b25b8dc6\n        /* \"patient.sol\":3159:3169  _patientId */\n      dup2\n        /* \"patient.sol\":3144:3170  PatientDeleted(_patientId) */\n      mload(0x40)\n      tag_77\n      swap2\n      swap1\n      tag_47\n      jump\t// in\n    tag_77:\n      mload(0x40)\n      dup1\n      swap2\n      sub\n      swap1\n      log1\n        /* \"patient.sol\":3031:3177  function deletePatient(address _patientId) external isWorker {... */\n      pop\n      jump\t// out\n        /* \"patient.sol\":1241:1288  mapping(address => PatientType) public patients */\n    tag_20:\n      mstore(0x20, 0x03)\n      dup1\n      0x00\n      mstore\n      keccak256(0x00, 0x40)\n      0x00\n      swap2\n      pop\n      swap1\n      pop\n      dup1\n      0x00\n      add\n      dup1\n      sload\n      tag_78\n      swap1\n      tag_79\n      jump\t// in\n    tag_78:\n      dup1\n      0x1f\n      add\n      0x20\n      dup1\n      swap2\n      div\n      mul\n      0x20\n      add\n      mload(0x40)\n      swap1\n      dup2\n      add\n      0x40\n      mstore\n      dup1\n      swap3\n      swap2\n      swap1\n      dup2\n      dup2\n      mstore\n      0x20\n      add\n      dup3\n      dup1\n      sload\n      tag_80\n      swap1\n      tag_79\n      jump\t// in\n    tag_80:\n      dup1\n      iszero\n      tag_81\n      jumpi\n      dup1\n      0x1f\n      lt\n      tag_82\n      jumpi\n      0x0100\n      dup1\n      dup4\n      sload\n      div\n      mul\n      dup4\n      mstore\n      swap2\n      0x20\n      add\n      swap2\n      jump(tag_81)\n    tag_82:\n      dup3\n      add\n      swap2\n      swap1\n      0x00\n      mstore\n      keccak256(0x00, 0x20)\n      swap1\n    tag_83:\n      dup2\n      sload\n      dup2\n      mstore\n      swap1\n      0x01\n      add\n      swap1\n      0x20\n      add\n      dup1\n      dup4\n      gt\n      tag_83\n      jumpi\n      dup3\n      swap1\n      sub\n      0x1f\n      and\n      dup3\n      add\n      swap2\n    tag_81:\n      pop\n      pop\n      pop\n      pop\n      pop\n      swap1\n      dup1\n      0x01\n      add\n      dup1\n      sload\n      tag_84\n      swap1\n      tag_79\n      jump\t// in\n    tag_84:\n      dup1\n      0x1f\n      add\n      0x20\n      dup1\n      swap2\n      div\n      mul\n      0x20\n      add\n      mload(0x40)\n      swap1\n      dup2\n      add\n      0x40\n      mstore\n      dup1\n      swap3\n      swap2\n      swap1\n      dup2\n      dup2\n      mstore\n      0x20\n      add\n      dup3\n      dup1\n      sload\n      tag_85\n      swap1\n      tag_79\n      jump\t// in\n    tag_85:\n      dup1\n      iszero\n      tag_86\n      jumpi\n      dup1\n      0x1f\n      lt\n      tag_87\n      jumpi\n      0x0100\n      dup1\n      dup4\n      sload\n      div\n      mul\n      dup4\n      mstore\n      swap2\n      0x20\n      add\n      swap2\n      jump(tag_86)\n    tag_87:\n      dup3\n      add\n      swap2\n      swap1\n      0x00\n      mstore\n      keccak256(0x00, 0x20)\n      swap1\n    tag_88:\n      dup2\n      sload\n      dup2\n      mstore\n      swap1\n      0x01\n      add\n      swap1\n      0x20\n      add\n      dup1\n      dup4\n      gt\n      tag_88\n      jumpi\n      dup3\n      swap1\n      sub\n      0x1f\n      and\n      dup3\n      add\n      swap2\n    tag_86:\n      pop\n      pop\n      pop\n      pop\n      pop\n      swap1\n      dup1\n      0x02\n      add\n      dup1\n      sload\n      tag_89\n      swap1\n      tag_79\n      jump\t// in\n    tag_89:\n      dup1\n      0x1f\n      add\n      0x20\n      dup1\n      swap2\n      div\n      mul\n      0x20\n      add\n      mload(0x40)\n      swap1\n      dup2\n      add\n      0x40\n      mstore\n      dup1\n      swap3\n      swap2\n      swap1\n      dup2\n      dup2\n      mstore\n      0x20\n      add\n      dup3\n      dup1\n      sload\n      tag_90\n      swap1\n      tag_79\n      jump\t// in\n    tag_90:\n      dup1\n      iszero\n      tag_91\n      jumpi\n      dup1\n      0x1f\n      lt\n      tag_92\n      jumpi\n      0x0100\n      dup1\n      dup4\n      sload\n      div\n      mul\n      dup4\n      mstore\n      swap2\n      0x20\n      add\n      swap2\n      jump(tag_91)\n    tag_92:\n      dup3\n      add\n      swap2\n      swap1\n      0x00\n      mstore\n      keccak256(0x00, 0x20)\n      swap1\n    tag_93:\n      dup2\n      sload\n      dup2\n      mstore\n      swap1\n      0x01\n      add\n      swap1\n      0x20\n      add\n      dup1\n      dup4\n      gt\n      tag_93\n      jumpi\n      dup3\n      swap1\n      sub\n      0x1f\n      and\n      dup3\n      add\n      swap2\n    tag_91:\n      pop\n      pop\n      pop\n      pop\n      pop\n      swap1\n      dup1\n      0x03\n      add\n      dup1\n      sload\n      tag_94\n      swap1\n      tag_79\n      jump\t// in\n    tag_94:\n      dup1\n      0x1f\n      add\n      0x20\n      dup1\n      swap2\n      div\n      mul\n      0x20\n      add\n      mload(0x40)\n      swap1\n      dup2\n      add\n      0x40\n      mstore\n      dup1\n      swap3\n      swap2\n      swap1\n      dup2\n      dup2\n      mstore\n      0x20\n      add\n      dup3\n      dup1\n      sload\n      tag_95\n      swap1\n      tag_79\n      jump\t// in\n    tag_95:\n      dup1\n      iszero\n      tag_96\n      jumpi\n      dup1\n      0x1f\n      lt\n      tag_97\n      jumpi\n      0x0100\n      dup1\n      dup4\n      sload\n      div\n      mul\n      dup4\n      mstore\n      swap2\n      0x20\n      add\n      swap2\n      jump(tag_96)\n    tag_97:\n      dup3\n      add\n      swap2\n      swap1\n      0x00\n      mstore\n      keccak256(0x00, 0x20)\n      swap1\n    tag_98:\n      dup2\n      sload\n      dup2\n      mstore\n      swap1\n      0x01\n      add\n      swap1\n      0x20\n      add\n      dup1\n      dup4\n      gt\n      tag_98\n      jumpi\n      dup3\n      swap1\n      sub\n      0x1f\n      and\n      dup3\n      add\n      swap2\n    tag_96:\n      pop\n      pop\n      pop\n      pop\n      pop\n      swap1\n      dup1\n      0x04\n      add\n      dup1\n      sload\n      tag_99\n      swap1\n      tag_79\n      jump\t// in\n    tag_99:\n      dup1\n      0x1f\n      add\n      0x20\n      dup1\n      swap2\n      div\n      mul\n      0x20\n      add\n      mload(0x40)\n      swap1\n      dup2\n      add\n      0x40\n      mstore\n      dup1\n      swap3\n      swap2\n      swap1\n      dup2\n      dup2\n      mstore\n      0x20\n      add\n      dup3\n      dup1\n      sload\n      tag_100\n      swap1\n      tag_79\n      jump\t// in\n    tag_100:\n      dup1\n      iszero\n      tag_101\n      jumpi\n      dup1\n      0x1f\n      lt\n      tag_102\n      jumpi\n      0x0100\n      dup1\n      dup4\n      sload\n      div\n      mul\n      dup4\n      mstore\n      swap2\n      0x20\n      add\n      swap2\n      jump(tag_101)\n    tag_102:\n      dup3\n      add\n      swap2\n      swap1\n      0x00\n      mstore\n      keccak256(0x00, 0x20)\n      swap1\n    tag_103:\n      dup2\n      sload\n      dup2\n      mstore\n      swap1\n      0x01\n      add\n      swap1\n      0x20\n      add\n      dup1\n      dup4\n      gt\n      tag_103\n      jumpi\n      dup3\n      swap1\n      sub\n      0x1f\n      and\n      dup3\n      add\n      swap2\n    tag_101:\n      pop\n      pop\n      pop\n      pop\n      pop\n      swap1\n      dup1\n      0x05\n      add\n      mload(0x40)\n      dup1\n      0x60\n      add\n      0x40\n      mstore\n      swap1\n      dup2\n      0x00\n      dup3\n      add\n      sload\n      dup2\n      mstore\n      0x20\n      add\n      0x01\n      dup3\n      add\n      sload\n      dup2\n      mstore\n      0x20\n      add\n      0x02\n      dup3\n      add\n      sload\n      dup2\n      mstore\n      pop\n      pop\n      swap1\n      dup1\n      0x08\n      add\n      0x00\n      swap1\n      sload\n      swap1\n      0x0100\n      exp\n      swap1\n      div\n      0xffffffffffffffffffffffffffffffffffffffff\n      and\n      swap1\n      dup1\n      0x08\n      add\n      0x14\n      swap1\n      sload\n      swap1\n      0x0100\n      exp\n      swap1\n      div\n      0xff\n      and\n      swap1\n      pop\n      dup9\n      jump\t// out\n        /* \"patient.sol\":2653:2793  function updatePatient(address _patientId) public isOwner returns(bool){... */\n    tag_25:\n        /* \"patient.sol\":2719:2723  bool */\n      0x00\n        /* \"patient.sol\":1085:1093  patients */\n      0x03\n        /* \"patient.sol\":1085:1105  patients[msg.sender] */\n      0x00\n        /* \"patient.sol\":1094:1104  msg.sender */\n      caller\n        /* \"patient.sol\":1085:1105  patients[msg.sender] */\n      0xffffffffffffffffffffffffffffffffffffffff\n      and\n      0xffffffffffffffffffffffffffffffffffffffff\n      and\n      dup2\n      mstore\n      0x20\n      add\n      swap1\n      dup2\n      mstore\n      0x20\n      add\n      0x00\n      keccak256\n        /* \"patient.sol\":1085:1119  patients[msg.sender].walletAddress */\n      0x08\n      add\n      0x00\n      swap1\n      sload\n      swap1\n      0x0100\n      exp\n      swap1\n      div\n      0xffffffffffffffffffffffffffffffffffffffff\n      and\n        /* \"patient.sol\":1073:1119  msg.sender==patients[msg.sender].walletAddress */\n      0xffffffffffffffffffffffffffffffffffffffff\n      and\n        /* \"patient.sol\":1073:1083  msg.sender */\n      caller\n        /* \"patient.sol\":1073:1119  msg.sender==patients[msg.sender].walletAddress */\n      0xffffffffffffffffffffffffffffffffffffffff\n      and\n      eq\n        /* \"patient.sol\":1065:1163  require(msg.sender==patients[msg.sender].walletAddress,\"user doesn't own the resource to access.\") */\n      tag_105\n      jumpi\n      mload(0x40)\n      0x08c379a000000000000000000000000000000000000000000000000000000000\n      dup2\n      mstore\n      0x04\n      add\n      tag_106\n      swap1\n      tag_107\n      jump\t// in\n    tag_106:\n      mload(0x40)\n      dup1\n      swap2\n      sub\n      swap1\n      revert\n    tag_105:\n        /* \"patient.sol\":2739:2765  PatientUpdated(_patientId) */\n      0xfa5f927b53f620bcafa0ade5e255c4cc32ae798da7f282749aac6c5620f4e0ac\n        /* \"patient.sol\":2754:2764  _patientId */\n      dup3\n        /* \"patient.sol\":2739:2765  PatientUpdated(_patientId) */\n      mload(0x40)\n      tag_109\n      swap2\n      swap1\n      tag_47\n      jump\t// in\n    tag_109:\n      mload(0x40)\n      dup1\n      swap2\n      sub\n      swap1\n      log1\n        /* \"patient.sol\":2782:2786  true */\n      0x01\n        /* \"patient.sol\":2775:2786  return true */\n      swap1\n      pop\n        /* \"patient.sol\":2653:2793  function updatePatient(address _patientId) public isOwner returns(bool){... */\n      swap2\n      swap1\n      pop\n      jump\t// out\n        /* \"patient.sol\":1859:2647  function createPatient(... */\n    tag_31:\n        /* \"patient.sol\":2113:2117  bool */\n      0x00\n        /* \"patient.sol\":2132:2184  compareString(email, patients[patientAddress].email) */\n      tag_111\n        /* \"patient.sol\":2146:2151  email */\n      dup9\n        /* \"patient.sol\":2153:2161  patients */\n      0x03\n        /* \"patient.sol\":2153:2177  patients[patientAddress] */\n      0x00\n        /* \"patient.sol\":2162:2176  patientAddress */\n      dup6\n        /* \"patient.sol\":2153:2177  patients[patientAddress] */\n      0xffffffffffffffffffffffffffffffffffffffff\n      and\n      0xffffffffffffffffffffffffffffffffffffffff\n      and\n      dup2\n      mstore\n      0x20\n      add\n      swap1\n      dup2\n      mstore\n      0x20\n      add\n      0x00\n      keccak256\n        /* \"patient.sol\":2153:2183  patients[patientAddress].email */\n      0x02\n      add\n        /* \"patient.sol\":2132:2184  compareString(email, patients[patientAddress].email) */\n      dup1\n      sload\n      tag_112\n      swap1\n      tag_79\n      jump\t// in\n    tag_112:\n      dup1\n      0x1f\n      add\n      0x20\n      dup1\n      swap2\n      div\n      mul\n      0x20\n      add\n      mload(0x40)\n      swap1\n      dup2\n      add\n      0x40\n      mstore\n      dup1\n      swap3\n      swap2\n      swap1\n      dup2\n      dup2\n      mstore\n      0x20\n      add\n      dup3\n      dup1\n      sload\n      tag_113\n      swap1\n      tag_79\n      jump\t// in\n    tag_113:\n      dup1\n      iszero\n      tag_114\n      jumpi\n      dup1\n      0x1f\n      lt\n      tag_115\n      jumpi\n      0x0100\n      dup1\n      dup4\n      sload\n      div\n      mul\n      dup4\n      mstore\n      swap2\n      0x20\n      add\n      swap2\n      jump(tag_114)\n    tag_115:\n      dup3\n      add\n      swap2\n      swap1\n      0x00\n      mstore\n      keccak256(0x00, 0x20)\n      swap1\n    tag_116:\n      dup2\n      sload\n      dup2\n      mstore\n      swap1\n      0x01\n      add\n      swap1\n      0x20\n      add\n      dup1\n      dup4\n      gt\n      tag_116\n      jumpi\n      dup3\n      swap1\n      sub\n      0x1f\n      and\n      dup3\n      add\n      swap2\n    tag_114:\n      pop\n      pop\n      pop\n      pop\n      pop\n        /* \"patient.sol\":2132:2145  compareString */\n      tag_36\n        /* \"patient.sol\":2132:2184  compareString(email, patients[patientAddress].email) */\n      jump\t// in\n    tag_111:\n        /* \"patient.sol\":2129:2259  if(compareString(email, patients[patientAddress].email)){... */\n      iszero\n      tag_117\n      jumpi\n        /* \"patient.sol\":2199:2248  revert(\"patient with given email already exists\") */\n      mload(0x40)\n      0x08c379a000000000000000000000000000000000000000000000000000000000\n      dup2\n      mstore\n      0x04\n      add\n      tag_118\n      swap1\n      tag_119\n      jump\t// in\n    tag_118:\n      mload(0x40)\n      dup1\n      swap2\n      sub\n      swap1\n      revert\n        /* \"patient.sol\":2129:2259  if(compareString(email, patients[patientAddress].email)){... */\n    tag_117:\n        /* \"patient.sol\":2268:2284  Date memory date */\n      0x00\n        /* \"patient.sol\":2287:2307  Date(day,month,year) */\n      mload(0x40)\n      dup1\n      0x60\n      add\n      0x40\n      mstore\n      dup1\n        /* \"patient.sol\":2292:2295  day */\n      dup9\n        /* \"patient.sol\":2287:2307  Date(day,month,year) */\n      dup2\n      mstore\n      0x20\n      add\n        /* \"patient.sol\":2296:2301  month */\n      dup8\n        /* \"patient.sol\":2287:2307  Date(day,month,year) */\n      dup2\n      mstore\n      0x20\n      add\n        /* \"patient.sol\":2302:2306  year */\n      dup7\n        /* \"patient.sol\":2287:2307  Date(day,month,year) */\n      dup2\n      mstore\n      pop\n        /* \"patient.sol\":2268:2307  Date memory date = Date(day,month,year) */\n      swap1\n      pop\n        /* \"patient.sol\":2417:2431  patientAddress */\n      dup3\n        /* \"patient.sol\":2388:2399  patientKeys */\n      0x02\n        /* \"patient.sol\":2388:2414  patientKeys[totalPatients] */\n      0x00\n        /* \"patient.sol\":2400:2413  totalPatients */\n      sload(0x01)\n        /* \"patient.sol\":2388:2414  patientKeys[totalPatients] */\n      dup2\n      mstore\n      0x20\n      add\n      swap1\n      dup2\n      mstore\n      0x20\n      add\n      0x00\n      keccak256\n      0x00\n        /* \"patient.sol\":2388:2431  patientKeys[totalPatients] = patientAddress */\n      0x0100\n      exp\n      dup2\n      sload\n      dup2\n      0xffffffffffffffffffffffffffffffffffffffff\n      mul\n      not\n      and\n      swap1\n      dup4\n      0xffffffffffffffffffffffffffffffffffffffff\n      and\n      mul\n      or\n      swap1\n      sstore\n      pop\n        /* \"patient.sol\":2456:2457  1 */\n      0x01\n        /* \"patient.sol\":2441:2454  totalPatients */\n      dup1\n      0x00\n        /* \"patient.sol\":2441:2457  totalPatients+=1 */\n      dup3\n      dup3\n      sload\n      tag_120\n      swap2\n      swap1\n      tag_121\n      jump\t// in\n    tag_120:\n      swap3\n      pop\n      pop\n      dup2\n      swap1\n      sstore\n      pop\n        /* \"patient.sol\":2494:2568  PatientType(fname,lname,email,password,location,date,patientAddress,false) */\n      mload(0x40)\n      dup1\n      0x0100\n      add\n      0x40\n      mstore\n      dup1\n        /* \"patient.sol\":2506:2511  fname */\n      dup13\n        /* \"patient.sol\":2494:2568  PatientType(fname,lname,email,password,location,date,patientAddress,false) */\n      dup2\n      mstore\n      0x20\n      add\n        /* \"patient.sol\":2512:2517  lname */\n      dup12\n        /* \"patient.sol\":2494:2568  PatientType(fname,lname,email,password,location,date,patientAddress,false) */\n      dup2\n      mstore\n      0x20\n      add\n        /* \"patient.sol\":2518:2523  email */\n      dup11\n        /* \"patient.sol\":2494:2568  PatientType(fname,lname,email,password,location,date,patientAddress,false) */\n      dup2\n      mstore\n      0x20\n      add\n        /* \"patient.sol\":2524:2532  password */\n      dup10\n        /* \"patient.sol\":2494:2568  PatientType(fname,lname,email,password,location,date,patientAddress,false) */\n      dup2\n      mstore\n      0x20\n      add\n        /* \"patient.sol\":2533:2541  location */\n      dup6\n        /* \"patient.sol\":2494:2568  PatientType(fname,lname,email,password,location,date,patientAddress,false) */\n      dup2\n      mstore\n      0x20\n      add\n        /* \"patient.sol\":2542:2546  date */\n      dup3\n        /* \"patient.sol\":2494:2568  PatientType(fname,lname,email,password,location,date,patientAddress,false) */\n      dup2\n      mstore\n      0x20\n      add\n        /* \"patient.sol\":2547:2561  patientAddress */\n      dup5\n        /* \"patient.sol\":2494:2568  PatientType(fname,lname,email,password,location,date,patientAddress,false) */\n      0xffffffffffffffffffffffffffffffffffffffff\n      and\n      dup2\n      mstore\n      0x20\n      add\n        /* \"patient.sol\":2562:2567  false */\n      0x00\n        /* \"patient.sol\":2494:2568  PatientType(fname,lname,email,password,location,date,patientAddress,false) */\n      iszero\n      iszero\n      dup2\n      mstore\n      pop\n        /* \"patient.sol\":2467:2475  patients */\n      0x03\n        /* \"patient.sol\":2467:2491  patients[patientAddress] */\n      0x00\n        /* \"patient.sol\":2476:2490  patientAddress */\n      dup6\n        /* \"patient.sol\":2467:2491  patients[patientAddress] */\n      0xffffffffffffffffffffffffffffffffffffffff\n      and\n      0xffffffffffffffffffffffffffffffffffffffff\n      and\n      dup2\n      mstore\n      0x20\n      add\n      swap1\n      dup2\n      mstore\n      0x20\n      add\n      0x00\n      keccak256\n        /* \"patient.sol\":2467:2568  patients[patientAddress] = PatientType(fname,lname,email,password,location,date,patientAddress,false) */\n      0x00\n      dup3\n      add\n      mload\n      dup2\n      0x00\n      add\n      swap1\n      dup2\n      tag_122\n      swap2\n      swap1\n      tag_123\n      jump\t// in\n    tag_122:\n      pop\n      0x20\n      dup3\n      add\n      mload\n      dup2\n      0x01\n      add\n      swap1\n      dup2\n      tag_124\n      swap2\n      swap1\n      tag_123\n      jump\t// in\n    tag_124:\n      pop\n      0x40\n      dup3\n      add\n      mload\n      dup2\n      0x02\n      add\n      swap1\n      dup2\n      tag_125\n      swap2\n      swap1\n      tag_123\n      jump\t// in\n    tag_125:\n      pop\n      0x60\n      dup3\n      add\n      mload\n      dup2\n      0x03\n      add\n      swap1\n      dup2\n      tag_126\n      swap2\n      swap1\n      tag_123\n      jump\t// in\n    tag_126:\n      pop\n      0x80\n      dup3\n      add\n      mload\n      dup2\n      0x04\n      add\n      swap1\n      dup2\n      tag_127\n      swap2\n      swap1\n      tag_123\n      jump\t// in\n    tag_127:\n      pop\n      0xa0\n      dup3\n      add\n      mload\n      dup2\n      0x05\n      add\n      0x00\n      dup3\n      add\n      mload\n      dup2\n      0x00\n      add\n      sstore\n      0x20\n      dup3\n      add\n      mload\n      dup2\n      0x01\n      add\n      sstore\n      0x40\n      dup3\n      add\n      mload\n      dup2\n      0x02\n      add\n      sstore\n      pop\n      pop\n      0xc0\n      dup3\n      add\n      mload\n      dup2\n      0x08\n      add\n      exp(0x0100, 0x00)\n      dup2\n      sload\n      dup2\n      0xffffffffffffffffffffffffffffffffffffffff\n      mul\n      not\n      and\n      swap1\n      dup4\n      0xffffffffffffffffffffffffffffffffffffffff\n      and\n      mul\n      or\n      swap1\n      sstore\n      pop\n      0xe0\n      dup3\n      add\n      mload\n      dup2\n      0x08\n      add\n      exp(0x0100, 0x14)\n      dup2\n      sload\n      dup2\n      0xff\n      mul\n      not\n      and\n      swap1\n      dup4\n      iszero\n      iszero\n      mul\n      or\n      swap1\n      sstore\n      pop\n      swap1\n      pop\n      pop\n        /* \"patient.sol\":2583:2619  PatientCreated(totalPatients, email) */\n      0x134fda0ae4fafca781b872311cca14ccbfaf969fd15c52f58e9a93de5d231807\n        /* \"patient.sol\":2598:2611  totalPatients */\n      sload(0x01)\n        /* \"patient.sol\":2613:2618  email */\n      dup11\n        /* \"patient.sol\":2583:2619  PatientCreated(totalPatients, email) */\n      mload(0x40)\n      tag_128\n      swap3\n      swap2\n      swap1\n      tag_129\n      jump\t// in\n    tag_128:\n      mload(0x40)\n      dup1\n      swap2\n      sub\n      swap1\n      log1\n        /* \"patient.sol\":2636:2640  true */\n      0x01\n        /* \"patient.sol\":2629:2640  return true */\n      swap2\n      pop\n      pop\n        /* \"patient.sol\":1859:2647  function createPatient(... */\n      swap10\n      swap9\n      pop\n      pop\n      pop\n      pop\n      pop\n      pop\n      pop\n      pop\n      pop\n      jump\t// out\n        /* \"patient.sol\":1669:1853  function compareString(string memory str1, string memory str2) public pure returns (bool) {... */\n    tag_36:\n        /* \"patient.sol\":1753:1757  bool */\n      0x00\n        /* \"patient.sol\":1840:1844  str2 */\n      dup2\n        /* \"patient.sol\":1823:1845  abi.encodePacked(str2) */\n      add(0x20, mload(0x40))\n      tag_131\n      swap2\n      swap1\n      tag_132\n      jump\t// in\n    tag_131:\n      mload(0x40)\n      0x20\n      dup2\n      dup4\n      sub\n      sub\n      dup2\n      mstore\n      swap1\n      0x40\n      mstore\n        /* \"patient.sol\":1813:1846  keccak256(abi.encodePacked(str2)) */\n      dup1\n      mload\n      swap1\n      0x20\n      add\n      keccak256\n        /* \"patient.sol\":1803:1807  str1 */\n      dup4\n        /* \"patient.sol\":1786:1808  abi.encodePacked(str1) */\n      add(0x20, mload(0x40))\n      tag_133\n      swap2\n      swap1\n      tag_132\n      jump\t// in\n    tag_133:\n      mload(0x40)\n      0x20\n      dup2\n      dup4\n      sub\n      sub\n      dup2\n      mstore\n      swap1\n      0x40\n      mstore\n        /* \"patient.sol\":1776:1809  keccak256(abi.encodePacked(str1)) */\n      dup1\n      mload\n      swap1\n      0x20\n      add\n      keccak256\n        /* \"patient.sol\":1776:1846  keccak256(abi.encodePacked(str1)) == keccak256(abi.encodePacked(str2)) */\n      eq\n        /* \"patient.sol\":1769:1846  return keccak256(abi.encodePacked(str1)) == keccak256(abi.encodePacked(str2)) */\n      swap1\n      pop\n        /* \"patient.sol\":1669:1853  function compareString(string memory str1, string memory str2) public pure returns (bool) {... */\n      swap3\n      swap2\n      pop\n      pop\n      jump\t// out\n        /* \"patient.sol\":3324:3611  function getAllPatient() public view returns(PatientType[] memory) {... */\n    tag_39:\n        /* \"patient.sol\":3369:3389  PatientType[] memory */\n      0x60\n        /* \"patient.sol\":3401:3433  PatientType[] memory allPatients */\n      0x00\n        /* \"patient.sol\":3454:3467  totalPatients */\n      sload(0x01)\n        /* \"patient.sol\":3436:3468  new PatientType[](totalPatients) */\n      0xffffffffffffffff\n      dup2\n      gt\n      iszero\n      tag_135\n      jumpi\n      tag_136\n      tag_137\n      jump\t// in\n    tag_136:\n    tag_135:\n      mload(0x40)\n      swap1\n      dup1\n      dup3\n      mstore\n      dup1\n      0x20\n      mul\n      0x20\n      add\n      dup3\n      add\n      0x40\n      mstore\n      dup1\n      iszero\n      tag_138\n      jumpi\n      dup2\n      0x20\n      add\n    tag_139:\n      tag_140\n      tag_141\n      jump\t// in\n    tag_140:\n      dup2\n      mstore\n      0x20\n      add\n      swap1\n      0x01\n      swap1\n      sub\n      swap1\n      dup2\n      tag_139\n      jumpi\n      swap1\n      pop\n    tag_138:\n      pop\n        /* \"patient.sol\":3401:3468  PatientType[] memory allPatients = new PatientType[](totalPatients) */\n      swap1\n      pop\n        /* \"patient.sol\":3482:3488  uint i */\n      0x00\n        /* \"patient.sol\":3478:3577  for(uint i=0;i<totalPatients;i++){... */\n    tag_142:\n        /* \"patient.sol\":3493:3506  totalPatients */\n      sload(0x01)\n        /* \"patient.sol\":3491:3492  i */\n      dup2\n        /* \"patient.sol\":3491:3506  i<totalPatients */\n      lt\n        /* \"patient.sol\":3478:3577  for(uint i=0;i<totalPatients;i++){... */\n      iszero\n      tag_143\n      jumpi\n        /* \"patient.sol\":3542:3550  patients */\n      0x03\n        /* \"patient.sol\":3542:3566  patients[patientKeys[i]] */\n      0x00\n        /* \"patient.sol\":3551:3562  patientKeys */\n      0x02\n        /* \"patient.sol\":3551:3565  patientKeys[i] */\n      0x00\n        /* \"patient.sol\":3563:3564  i */\n      dup5\n        /* \"patient.sol\":3551:3565  patientKeys[i] */\n      dup2\n      mstore\n      0x20\n      add\n      swap1\n      dup2\n      mstore\n      0x20\n      add\n      0x00\n      keccak256\n      0x00\n      swap1\n      sload\n      swap1\n      0x0100\n      exp\n      swap1\n      div\n      0xffffffffffffffffffffffffffffffffffffffff\n      and\n        /* \"patient.sol\":3542:3566  patients[patientKeys[i]] */\n      0xffffffffffffffffffffffffffffffffffffffff\n      and\n      0xffffffffffffffffffffffffffffffffffffffff\n      and\n      dup2\n      mstore\n      0x20\n      add\n      swap1\n      dup2\n      mstore\n      0x20\n      add\n      0x00\n      keccak256\n        /* \"patient.sol\":3525:3566  allPatients[i] = patients[patientKeys[i]] */\n      mload(0x40)\n      dup1\n      0x0100\n      add\n      0x40\n      mstore\n      swap1\n      dup2\n      0x00\n      dup3\n      add\n      dup1\n      sload\n      tag_145\n      swap1\n      tag_79\n      jump\t// in\n    tag_145:\n      dup1\n      0x1f\n      add\n      0x20\n      dup1\n      swap2\n      div\n      mul\n      0x20\n      add\n      mload(0x40)\n      swap1\n      dup2\n      add\n      0x40\n      mstore\n      dup1\n      swap3\n      swap2\n      swap1\n      dup2\n      dup2\n      mstore\n      0x20\n      add\n      dup3\n      dup1\n      sload\n      tag_146\n      swap1\n      tag_79\n      jump\t// in\n    tag_146:\n      dup1\n      iszero\n      tag_147\n      jumpi\n      dup1\n      0x1f\n      lt\n      tag_148\n      jumpi\n      0x0100\n      dup1\n      dup4\n      sload\n      div\n      mul\n      dup4\n      mstore\n      swap2\n      0x20\n      add\n      swap2\n      jump(tag_147)\n    tag_148:\n      dup3\n      add\n      swap2\n      swap1\n      0x00\n      mstore\n      keccak256(0x00, 0x20)\n      swap1\n    tag_149:\n      dup2\n      sload\n      dup2\n      mstore\n      swap1\n      0x01\n      add\n      swap1\n      0x20\n      add\n      dup1\n      dup4\n      gt\n      tag_149\n      jumpi\n      dup3\n      swap1\n      sub\n      0x1f\n      and\n      dup3\n      add\n      swap2\n    tag_147:\n      pop\n      pop\n      pop\n      pop\n      pop\n      dup2\n      mstore\n      0x20\n      add\n      0x01\n      dup3\n      add\n      dup1\n      sload\n      tag_150\n      swap1\n      tag_79\n      jump\t// in\n    tag_150:\n      dup1\n      0x1f\n      add\n      0x20\n      dup1\n      swap2\n      div\n      mul\n      0x20\n      add\n      mload(0x40)\n      swap1\n      dup2\n      add\n      0x40\n      mstore\n      dup1\n      swap3\n      swap2\n      swap1\n      dup2\n      dup2\n      mstore\n      0x20\n      add\n      dup3\n      dup1\n      sload\n      tag_151\n      swap1\n      tag_79\n      jump\t// in\n    tag_151:\n      dup1\n      iszero\n      tag_152\n      jumpi\n      dup1\n      0x1f\n      lt\n      tag_153\n      jumpi\n      0x0100\n      dup1\n      dup4\n      sload\n      div\n      mul\n      dup4\n      mstore\n      swap2\n      0x20\n      add\n      swap2\n      jump(tag_152)\n    tag_153:\n      dup3\n      add\n      swap2\n      swap1\n      0x00\n      mstore\n      keccak256(0x00, 0x20)\n      swap1\n    tag_154:\n      dup2\n      sload\n      dup2\n      mstore\n      swap1\n      0x01\n      add\n      swap1\n      0x20\n      add\n      dup1\n      dup4\n      gt\n      tag_154\n      jumpi\n      dup3\n      swap1\n      sub\n      0x1f\n      and\n      dup3\n      add\n      swap2\n    tag_152:\n      pop\n      pop\n      pop\n      pop\n      pop\n      dup2\n      mstore\n      0x20\n      add\n      0x02\n      dup3\n      add\n      dup1\n      sload\n      tag_155\n      swap1\n      tag_79\n      jump\t// in\n    tag_155:\n      dup1\n      0x1f\n      add\n      0x20\n      dup1\n      swap2\n      div\n      mul\n      0x20\n      add\n      mload(0x40)\n      swap1\n      dup2\n      add\n      0x40\n      mstore\n      dup1\n      swap3\n      swap2\n      swap1\n      dup2\n      dup2\n      mstore\n      0x20\n      add\n      dup3\n      dup1\n      sload\n      tag_156\n      swap1\n      tag_79\n      jump\t// in\n    tag_156:\n      dup1\n      iszero\n      tag_157\n      jumpi\n      dup1\n      0x1f\n      lt\n      tag_158\n      jumpi\n      0x0100\n      dup1\n      dup4\n      sload\n      div\n      mul\n      dup4\n      mstore\n      swap2\n      0x20\n      add\n      swap2\n      jump(tag_157)\n    tag_158:\n      dup3\n      add\n      swap2\n      swap1\n      0x00\n      mstore\n      keccak256(0x00, 0x20)\n      swap1\n    tag_159:\n      dup2\n      sload\n      dup2\n      mstore\n      swap1\n      0x01\n      add\n      swap1\n      0x20\n      add\n      dup1\n      dup4\n      gt\n      tag_159\n      jumpi\n      dup3\n      swap1\n      sub\n      0x1f\n      and\n      dup3\n      add\n      swap2\n    tag_157:\n      pop\n      pop\n      pop\n      pop\n      pop\n      dup2\n      mstore\n      0x20\n      add\n      0x03\n      dup3\n      add\n      dup1\n      sload\n      tag_160\n      swap1\n      tag_79\n      jump\t// in\n    tag_160:\n      dup1\n      0x1f\n      add\n      0x20\n      dup1\n      swap2\n      div\n      mul\n      0x20\n      add\n      mload(0x40)\n      swap1\n      dup2\n      add\n      0x40\n      mstore\n      dup1\n      swap3\n      swap2\n      swap1\n      dup2\n      dup2\n      mstore\n      0x20\n      add\n      dup3\n      dup1\n      sload\n      tag_161\n      swap1\n      tag_79\n      jump\t// in\n    tag_161:\n      dup1\n      iszero\n      tag_162\n      jumpi\n      dup1\n      0x1f\n      lt\n      tag_163\n      jumpi\n      0x0100\n      dup1\n      dup4\n      sload\n      div\n      mul\n      dup4\n      mstore\n      swap2\n      0x20\n      add\n      swap2\n      jump(tag_162)\n    tag_163:\n      dup3\n      add\n      swap2\n      swap1\n      0x00\n      mstore\n      keccak256(0x00, 0x20)\n      swap1\n    tag_164:\n      dup2\n      sload\n      dup2\n      mstore\n      swap1\n      0x01\n      add\n      swap1\n      0x20\n      add\n      dup1\n      dup4\n      gt\n      tag_164\n      jumpi\n      dup3\n      swap1\n      sub\n      0x1f\n      and\n      dup3\n      add\n      swap2\n    tag_162:\n      pop\n      pop\n      pop\n      pop\n      pop\n      dup2\n      mstore\n      0x20\n      add\n      0x04\n      dup3\n      add\n      dup1\n      sload\n      tag_165\n      swap1\n      tag_79\n      jump\t// in\n    tag_165:\n      dup1\n      0x1f\n      add\n      0x20\n      dup1\n      swap2\n      div\n      mul\n      0x20\n      add\n      mload(0x40)\n      swap1\n      dup2\n      add\n      0x40\n      mstore\n      dup1\n      swap3\n      swap2\n      swap1\n      dup2\n      dup2\n      mstore\n      0x20\n      add\n      dup3\n      dup1\n      sload\n      tag_166\n      swap1\n      tag_79\n      jump\t// in\n    tag_166:\n      dup1\n      iszero\n      tag_167\n      jumpi\n      dup1\n      0x1f\n      lt\n      tag_168\n      jumpi\n      0x0100\n      dup1\n      dup4\n      sload\n      div\n      mul\n      dup4\n      mstore\n      swap2\n      0x20\n      add\n      swap2\n      jump(tag_167)\n    tag_168:\n      dup3\n      add\n      swap2\n      swap1\n      0x00\n      mstore\n      keccak256(0x00, 0x20)\n      swap1\n    tag_169:\n      dup2\n      sload\n      dup2\n      mstore\n      swap1\n      0x01\n      add\n      swap1\n      0x20\n      add\n      dup1\n      dup4\n      gt\n      tag_169\n      jumpi\n      dup3\n      swap1\n      sub\n      0x1f\n      and\n      dup3\n      add\n      swap2\n    tag_167:\n      pop\n      pop\n      pop\n      pop\n      pop\n      dup2\n      mstore\n      0x20\n      add\n      0x05\n      dup3\n      add\n      mload(0x40)\n      dup1\n      0x60\n      add\n      0x40\n      mstore\n      swap1\n      dup2\n      0x00\n      dup3\n      add\n      sload\n      dup2\n      mstore\n      0x20\n      add\n      0x01\n      dup3\n      add\n      sload\n      dup2\n      mstore\n      0x20\n      add\n      0x02\n      dup3\n      add\n      sload\n      dup2\n      mstore\n      pop\n      pop\n      dup2\n      mstore\n      0x20\n      add\n      0x08\n      dup3\n      add\n      0x00\n      swap1\n      sload\n      swap1\n      0x0100\n      exp\n      swap1\n      div\n      0xffffffffffffffffffffffffffffffffffffffff\n      and\n      0xffffffffffffffffffffffffffffffffffffffff\n      and\n      0xffffffffffffffffffffffffffffffffffffffff\n      and\n      dup2\n      mstore\n      0x20\n      add\n      0x08\n      dup3\n      add\n      0x14\n      swap1\n      sload\n      swap1\n      0x0100\n      exp\n      swap1\n      div\n      0xff\n      and\n      iszero\n      iszero\n      iszero\n      iszero\n      dup2\n      mstore\n      pop\n      pop\n        /* \"patient.sol\":3525:3536  allPatients */\n      dup3\n        /* \"patient.sol\":3537:3538  i */\n      dup3\n        /* \"patient.sol\":3525:3539  allPatients[i] */\n      dup2\n      mload\n      dup2\n      lt\n      tag_170\n      jumpi\n      tag_171\n      tag_172\n      jump\t// in\n    tag_171:\n    tag_170:\n      0x20\n      mul\n      0x20\n      add\n      add\n        /* \"patient.sol\":3525:3566  allPatients[i] = patients[patientKeys[i]] */\n      dup2\n      swap1\n      mstore\n      pop\n        /* \"patient.sol\":3507:3510  i++ */\n      dup1\n      dup1\n      0x01\n      add\n      swap2\n      pop\n      pop\n        /* \"patient.sol\":3478:3577  for(uint i=0;i<totalPatients;i++){... */\n      jump(tag_142)\n    tag_143:\n      pop\n        /* \"patient.sol\":3593:3604  allPatients */\n      dup1\n        /* \"patient.sol\":3586:3604  return allPatients */\n      swap2\n      pop\n      pop\n        /* \"patient.sol\":3324:3611  function getAllPatient() public view returns(PatientType[] memory) {... */\n      swap1\n      jump\t// out\n        /* \"patient.sol\":1192:1235  mapping(uint => address) public patientKeys */\n    tag_45:\n      mstore(0x20, 0x02)\n      dup1\n      0x00\n      mstore\n      keccak256(0x00, 0x40)\n      0x00\n      swap2\n      pop\n      sload\n      swap1\n      0x0100\n      exp\n      swap1\n      div\n      0xffffffffffffffffffffffffffffffffffffffff\n      and\n      dup2\n      jump\t// out\n        /* \"patient.sol\":3183:3318  function getPatient(address patientAddress) external view returns (PatientType memory) {... */\n    tag_50:\n        /* \"patient.sol\":3250:3268  PatientType memory */\n      tag_173\n      tag_141\n      jump\t// in\n    tag_173:\n        /* \"patient.sol\":3287:3295  patients */\n      0x03\n        /* \"patient.sol\":3287:3311  patients[patientAddress] */\n      0x00\n        /* \"patient.sol\":3296:3310  patientAddress */\n      dup4\n        /* \"patient.sol\":3287:3311  patients[patientAddress] */\n      0xffffffffffffffffffffffffffffffffffffffff\n      and\n      0xffffffffffffffffffffffffffffffffffffffff\n      and\n      dup2\n      mstore\n      0x20\n      add\n      swap1\n      dup2\n      mstore\n      0x20\n      add\n      0x00\n      keccak256\n        /* \"patient.sol\":3280:3311  return patients[patientAddress] */\n      mload(0x40)\n      dup1\n      0x0100\n      add\n      0x40\n      mstore\n      swap1\n      dup2\n      0x00\n      dup3\n      add\n      dup1\n      sload\n      tag_175\n      swap1\n      tag_79\n      jump\t// in\n    tag_175:\n      dup1\n      0x1f\n      add\n      0x20\n      dup1\n      swap2\n      div\n      mul\n      0x20\n      add\n      mload(0x40)\n      swap1\n      dup2\n      add\n      0x40\n      mstore\n      dup1\n      swap3\n      swap2\n      swap1\n      dup2\n      dup2\n      mstore\n      0x20\n      add\n      dup3\n      dup1\n      sload\n      tag_176\n      swap1\n      tag_79\n      jump\t// in\n    tag_176:\n      dup1\n      iszero\n      tag_177\n      jumpi\n      dup1\n      0x1f\n      lt\n      tag_178\n      jumpi\n      0x0100\n      dup1\n      dup4\n      sload\n      div\n      mul\n      dup4\n      mstore\n      swap2\n      0x20\n      add\n      swap2\n      jump(tag_177)\n    tag_178:\n      dup3\n      add\n      swap2\n      swap1\n      0x00\n      mstore\n      keccak256(0x00, 0x20)\n      swap1\n    tag_179:\n      dup2\n      sload\n      dup2\n      mstore\n      swap1\n      0x01\n      add\n      swap1\n      0x20\n      add\n      dup1\n      dup4\n      gt\n      tag_179\n      jumpi\n      dup3\n      swap1\n      sub\n      0x1f\n      and\n      dup3\n      add\n      swap2\n    tag_177:\n      pop\n      pop\n      pop\n      pop\n      pop\n      dup2\n      mstore\n      0x20\n      add\n      0x01\n      dup3\n      add\n      dup1\n      sload\n      tag_180\n      swap1\n      tag_79\n      jump\t// in\n    tag_180:\n      dup1\n      0x1f\n      add\n      0x20\n      dup1\n      swap2\n      div\n      mul\n      0x20\n      add\n      mload(0x40)\n      swap1\n      dup2\n      add\n      0x40\n      mstore\n      dup1\n      swap3\n      swap2\n      swap1\n      dup2\n      dup2\n      mstore\n      0x20\n      add\n      dup3\n      dup1\n      sload\n      tag_181\n      swap1\n      tag_79\n      jump\t// in\n    tag_181:\n      dup1\n      iszero\n      tag_182\n      jumpi\n      dup1\n      0x1f\n      lt\n      tag_183\n      jumpi\n      0x0100\n      dup1\n      dup4\n      sload\n      div\n      mul\n      dup4\n      mstore\n      swap2\n      0x20\n      add\n      swap2\n      jump(tag_182)\n    tag_183:\n      dup3\n      add\n      swap2\n      swap1\n      0x00\n      mstore\n      keccak256(0x00, 0x20)\n      swap1\n    tag_184:\n      dup2\n      sload\n      dup2\n      mstore\n      swap1\n      0x01\n      add\n      swap1\n      0x20\n      add\n      dup1\n      dup4\n      gt\n      tag_184\n      jumpi\n      dup3\n      swap1\n      sub\n      0x1f\n      and\n      dup3\n      add\n      swap2\n    tag_182:\n      pop\n      pop\n      pop\n      pop\n      pop\n      dup2\n      mstore\n      0x20\n      add\n      0x02\n      dup3\n      add\n      dup1\n      sload\n      tag_185\n      swap1\n      tag_79\n      jump\t// in\n    tag_185:\n      dup1\n      0x1f\n      add\n      0x20\n      dup1\n      swap2\n      div\n      mul\n      0x20\n      add\n      mload(0x40)\n      swap1\n      dup2\n      add\n      0x40\n      mstore\n      dup1\n      swap3\n      swap2\n      swap1\n      dup2\n      dup2\n      mstore\n      0x20\n      add\n      dup3\n      dup1\n      sload\n      tag_186\n      swap1\n      tag_79\n      jump\t// in\n    tag_186:\n      dup1\n      iszero\n      tag_187\n      jumpi\n      dup1\n      0x1f\n      lt\n      tag_188\n      jumpi\n      0x0100\n      dup1\n      dup4\n      sload\n      div\n      mul\n      dup4\n      mstore\n      swap2\n      0x20\n      add\n      swap2\n      jump(tag_187)\n    tag_188:\n      dup3\n      add\n      swap2\n      swap1\n      0x00\n      mstore\n      keccak256(0x00, 0x20)\n      swap1\n    tag_189:\n      dup2\n      sload\n      dup2\n      mstore\n      swap1\n      0x01\n      add\n      swap1\n      0x20\n      add\n      dup1\n      dup4\n      gt\n      tag_189\n      jumpi\n      dup3\n      swap1\n      sub\n      0x1f\n      and\n      dup3\n      add\n      swap2\n    tag_187:\n      pop\n      pop\n      pop\n      pop\n      pop\n      dup2\n      mstore\n      0x20\n      add\n      0x03\n      dup3\n      add\n      dup1\n      sload\n      tag_190\n      swap1\n      tag_79\n      jump\t// in\n    tag_190:\n      dup1\n      0x1f\n      add\n      0x20\n      dup1\n      swap2\n      div\n      mul\n      0x20\n      add\n      mload(0x40)\n      swap1\n      dup2\n      add\n      0x40\n      mstore\n      dup1\n      swap3\n      swap2\n      swap1\n      dup2\n      dup2\n      mstore\n      0x20\n      add\n      dup3\n      dup1\n      sload\n      tag_191\n      swap1\n      tag_79\n      jump\t// in\n    tag_191:\n      dup1\n      iszero\n      tag_192\n      jumpi\n      dup1\n      0x1f\n      lt\n      tag_193\n      jumpi\n      0x0100\n      dup1\n      dup4\n      sload\n      div\n      mul\n      dup4\n      mstore\n      swap2\n      0x20\n      add\n      swap2\n      jump(tag_192)\n    tag_193:\n      dup3\n      add\n      swap2\n      swap1\n      0x00\n      mstore\n      keccak256(0x00, 0x20)\n      swap1\n    tag_194:\n      dup2\n      sload\n      dup2\n      mstore\n      swap1\n      0x01\n      add\n      swap1\n      0x20\n      add\n      dup1\n      dup4\n      gt\n      tag_194\n      jumpi\n      dup3\n      swap1\n      sub\n      0x1f\n      and\n      dup3\n      add\n      swap2\n    tag_192:\n      pop\n      pop\n      pop\n      pop\n      pop\n      dup2\n      mstore\n      0x20\n      add\n      0x04\n      dup3\n      add\n      dup1\n      sload\n      tag_195\n      swap1\n      tag_79\n      jump\t// in\n    tag_195:\n      dup1\n      0x1f\n      add\n      0x20\n      dup1\n      swap2\n      div\n      mul\n      0x20\n      add\n      mload(0x40)\n      swap1\n      dup2\n      add\n      0x40\n      mstore\n      dup1\n      swap3\n      swap2\n      swap1\n      dup2\n      dup2\n      mstore\n      0x20\n      add\n      dup3\n      dup1\n      sload\n      tag_196\n      swap1\n      tag_79\n      jump\t// in\n    tag_196:\n      dup1\n      iszero\n      tag_197\n      jumpi\n      dup1\n      0x1f\n      lt\n      tag_198\n      jumpi\n      0x0100\n      dup1\n      dup4\n      sload\n      div\n      mul\n      dup4\n      mstore\n      swap2\n      0x20\n      add\n      swap2\n      jump(tag_197)\n    tag_198:\n      dup3\n      add\n      swap2\n      swap1\n      0x00\n      mstore\n      keccak256(0x00, 0x20)\n      swap1\n    tag_199:\n      dup2\n      sload\n      dup2\n      mstore\n      swap1\n      0x01\n      add\n      swap1\n      0x20\n      add\n      dup1\n      dup4\n      gt\n      tag_199\n      jumpi\n      dup3\n      swap1\n      sub\n      0x1f\n      and\n      dup3\n      add\n      swap2\n    tag_197:\n      pop\n      pop\n      pop\n      pop\n      pop\n      dup2\n      mstore\n      0x20\n      add\n      0x05\n      dup3\n      add\n      mload(0x40)\n      dup1\n      0x60\n      add\n      0x40\n      mstore\n      swap1\n      dup2\n      0x00\n      dup3\n      add\n      sload\n      dup2\n      mstore\n      0x20\n      add\n      0x01\n      dup3\n      add\n      sload\n      dup2\n      mstore\n      0x20\n      add\n      0x02\n      dup3\n      add\n      sload\n      dup2\n      mstore\n      pop\n      pop\n      dup2\n      mstore\n      0x20\n      add\n      0x08\n      dup3\n      add\n      0x00\n      swap1\n      sload\n      swap1\n      0x0100\n      exp\n      swap1\n      div\n      0xffffffffffffffffffffffffffffffffffffffff\n      and\n      0xffffffffffffffffffffffffffffffffffffffff\n      and\n      0xffffffffffffffffffffffffffffffffffffffff\n      and\n      dup2\n      mstore\n      0x20\n      add\n      0x08\n      dup3\n      add\n      0x14\n      swap1\n      sload\n      swap1\n      0x0100\n      exp\n      swap1\n      div\n      0xff\n      and\n      iszero\n      iszero\n      iszero\n      iszero\n      dup2\n      mstore\n      pop\n      pop\n      swap1\n      pop\n        /* \"patient.sol\":3183:3318  function getPatient(address patientAddress) external view returns (PatientType memory) {... */\n      swap2\n      swap1\n      pop\n      jump\t// out\n        /* \"patient.sol\":1294:1361  mapping(address=>PatientDeleteRequest) public patientDeleteRequests */\n    tag_55:\n      mstore(0x20, 0x04)\n      dup1\n      0x00\n      mstore\n      keccak256(0x00, 0x40)\n      0x00\n      swap2\n      pop\n      swap1\n      pop\n      dup1\n      0x00\n      add\n      sload\n      swap1\n      dup1\n      0x01\n      add\n      sload\n      swap1\n      dup1\n      0x02\n      add\n      0x00\n      swap1\n      sload\n      swap1\n      0x0100\n      exp\n      swap1\n      div\n      0xff\n      and\n      swap1\n      dup1\n      0x02\n      add\n      0x01\n      swap1\n      sload\n      swap1\n      0x0100\n      exp\n      swap1\n      div\n      0xffffffffffffffffffffffffffffffffffffffff\n      and\n      swap1\n      dup1\n      0x03\n      add\n      dup1\n      sload\n      tag_200\n      swap1\n      tag_79\n      jump\t// in\n    tag_200:\n      dup1\n      0x1f\n      add\n      0x20\n      dup1\n      swap2\n      div\n      mul\n      0x20\n      add\n      mload(0x40)\n      swap1\n      dup2\n      add\n      0x40\n      mstore\n      dup1\n      swap3\n      swap2\n      swap1\n      dup2\n      dup2\n      mstore\n      0x20\n      add\n      dup3\n      dup1\n      sload\n      tag_201\n      swap1\n      tag_79\n      jump\t// in\n    tag_201:\n      dup1\n      iszero\n      tag_202\n      jumpi\n      dup1\n      0x1f\n      lt\n      tag_203\n      jumpi\n      0x0100\n      dup1\n      dup4\n      sload\n      div\n      mul\n      dup4\n      mstore\n      swap2\n      0x20\n      add\n      swap2\n      jump(tag_202)\n    tag_203:\n      dup3\n      add\n      swap2\n      swap1\n      0x00\n      mstore\n      keccak256(0x00, 0x20)\n      swap1\n    tag_204:\n      dup2\n      sload\n      dup2\n      mstore\n      swap1\n      0x01\n      add\n      swap1\n      0x20\n      add\n      dup1\n      dup4\n      gt\n      tag_204\n      jumpi\n      dup3\n      swap1\n      sub\n      0x1f\n      and\n      dup3\n      add\n      swap2\n    tag_202:\n      pop\n      pop\n      pop\n      pop\n      pop\n      swap1\n      pop\n      dup6\n      jump\t// out\n        /* \"patient.sol\":2799:3025  function verifyPatientEmail() public isOwner returns(bool){... */\n    tag_59:\n        /* \"patient.sol\":2852:2856  bool */\n      0x00\n        /* \"patient.sol\":1085:1093  patients */\n      0x03\n        /* \"patient.sol\":1085:1105  patients[msg.sender] */\n      0x00\n        /* \"patient.sol\":1094:1104  msg.sender */\n      caller\n        /* \"patient.sol\":1085:1105  patients[msg.sender] */\n      0xffffffffffffffffffffffffffffffffffffffff\n      and\n      0xffffffffffffffffffffffffffffffffffffffff\n      and\n      dup2\n      mstore\n      0x20\n      add\n      swap1\n      dup2\n      mstore\n      0x20\n      add\n      0x00\n      keccak256\n        /* \"patient.sol\":1085:1119  patients[msg.sender].walletAddress */\n      0x08\n      add\n      0x00\n      swap1\n      sload\n      swap1\n      0x0100\n      exp\n      swap1\n      div\n      0xffffffffffffffffffffffffffffffffffffffff\n      and\n        /* \"patient.sol\":1073:1119  msg.sender==patients[msg.sender].walletAddress */\n      0xffffffffffffffffffffffffffffffffffffffff\n      and\n        /* \"patient.sol\":1073:1083  msg.sender */\n      caller\n        /* \"patient.sol\":1073:1119  msg.sender==patients[msg.sender].walletAddress */\n      0xffffffffffffffffffffffffffffffffffffffff\n      and\n      eq\n        /* \"patient.sol\":1065:1163  require(msg.sender==patients[msg.sender].walletAddress,\"user doesn't own the resource to access.\") */\n      tag_206\n      jumpi\n      mload(0x40)\n      0x08c379a000000000000000000000000000000000000000000000000000000000\n      dup2\n      mstore\n      0x04\n      add\n      tag_207\n      swap1\n      tag_107\n      jump\t// in\n    tag_207:\n      mload(0x40)\n      dup1\n      swap2\n      sub\n      swap1\n      revert\n    tag_206:\n        /* \"patient.sol\":2910:2914  true */\n      0x01\n        /* \"patient.sol\":2867:2875  patients */\n      0x03\n        /* \"patient.sol\":2867:2887  patients[msg.sender] */\n      0x00\n        /* \"patient.sol\":2876:2886  msg.sender */\n      caller\n        /* \"patient.sol\":2867:2887  patients[msg.sender] */\n      0xffffffffffffffffffffffffffffffffffffffff\n      and\n      0xffffffffffffffffffffffffffffffffffffffff\n      and\n      dup2\n      mstore\n      0x20\n      add\n      swap1\n      dup2\n      mstore\n      0x20\n      add\n      0x00\n      keccak256\n        /* \"patient.sol\":2867:2907  patients[msg.sender].verfiedEmailAddress */\n      0x08\n      add\n      0x14\n        /* \"patient.sol\":2867:2914  patients[msg.sender].verfiedEmailAddress = true */\n      0x0100\n      exp\n      dup2\n      sload\n      dup2\n      0xff\n      mul\n      not\n      and\n      swap1\n      dup4\n      iszero\n      iszero\n      mul\n      or\n      swap1\n      sstore\n      pop\n        /* \"patient.sol\":2929:2997  PatientVerified(msg.sender,patients[msg.sender].verfiedEmailAddress) */\n      0x6d7efac66baccbd68bfc53844f2ff4c001783697b68cf36876811f2c96f16e12\n        /* \"patient.sol\":2945:2955  msg.sender */\n      caller\n        /* \"patient.sol\":2956:2964  patients */\n      0x03\n        /* \"patient.sol\":2956:2976  patients[msg.sender] */\n      0x00\n        /* \"patient.sol\":2965:2975  msg.sender */\n      caller\n        /* \"patient.sol\":2956:2976  patients[msg.sender] */\n      0xffffffffffffffffffffffffffffffffffffffff\n      and\n      0xffffffffffffffffffffffffffffffffffffffff\n      and\n      dup2\n      mstore\n      0x20\n      add\n      swap1\n      dup2\n      mstore\n      0x20\n      add\n      0x00\n      keccak256\n        /* \"patient.sol\":2956:2996  patients[msg.sender].verfiedEmailAddress */\n      0x08\n      add\n      0x14\n      swap1\n      sload\n      swap1\n      0x0100\n      exp\n      swap1\n      div\n      0xff\n      and\n        /* \"patient.sol\":2929:2997  PatientVerified(msg.sender,patients[msg.sender].verfiedEmailAddress) */\n      mload(0x40)\n      tag_209\n      swap3\n      swap2\n      swap1\n      tag_210\n      jump\t// in\n    tag_209:\n      mload(0x40)\n      dup1\n      swap2\n      sub\n      swap1\n      log1\n        /* \"patient.sol\":3014:3018  true */\n      0x01\n        /* \"patient.sol\":3007:3018  return true */\n      swap1\n      pop\n        /* \"patient.sol\":2799:3025  function verifyPatientEmail() public isOwner returns(bool){... */\n      swap1\n      jump\t// out\n    tag_72:\n      pop\n      dup1\n      sload\n      tag_211\n      swap1\n      tag_79\n      jump\t// in\n    tag_211:\n      0x00\n      dup3\n      sstore\n      dup1\n      0x1f\n      lt\n      tag_213\n      jumpi\n      pop\n      jump(tag_212)\n    tag_213:\n      0x1f\n      add\n      0x20\n      swap1\n      div\n      swap1\n      0x00\n      mstore\n      keccak256(0x00, 0x20)\n      swap1\n      dup2\n      add\n      swap1\n      tag_214\n      swap2\n      swap1\n      tag_215\n      jump\t// in\n    tag_214:\n    tag_212:\n      pop\n      jump\t// out\n    tag_141:\n      mload(0x40)\n      dup1\n      0x0100\n      add\n      0x40\n      mstore\n      dup1\n      0x60\n      dup2\n      mstore\n      0x20\n      add\n      0x60\n      dup2\n      mstore\n      0x20\n      add\n      0x60\n      dup2\n      mstore\n      0x20\n      add\n      0x60\n      dup2\n      mstore\n      0x20\n      add\n      0x60\n      dup2\n      mstore\n      0x20\n      add\n      tag_216\n      tag_217\n      jump\t// in\n    tag_216:\n      dup2\n      mstore\n      0x20\n      add\n      and(0xffffffffffffffffffffffffffffffffffffffff, 0x00)\n      dup2\n      mstore\n      0x20\n      add\n      iszero(iszero(0x00))\n      dup2\n      mstore\n      pop\n      swap1\n      jump\t// out\n    tag_215:\n    tag_218:\n      dup1\n      dup3\n      gt\n      iszero\n      tag_219\n      jumpi\n      0x00\n      dup2\n      0x00\n      swap1\n      sstore\n      pop\n      0x01\n      add\n      jump(tag_218)\n    tag_219:\n      pop\n      swap1\n      jump\t// out\n    tag_217:\n      mload(0x40)\n      dup1\n      0x60\n      add\n      0x40\n      mstore\n      dup1\n      0x00\n      dup2\n      mstore\n      0x20\n      add\n      0x00\n      dup2\n      mstore\n      0x20\n      add\n      0x00\n      dup2\n      mstore\n      pop\n      swap1\n      jump\t// out\n        /* \"#utility.yul\":7:82   */\n    tag_220:\n        /* \"#utility.yul\":40:46   */\n      0x00\n        /* \"#utility.yul\":73:75   */\n      0x40\n        /* \"#utility.yul\":67:76   */\n      mload\n        /* \"#utility.yul\":57:76   */\n      swap1\n      pop\n        /* \"#utility.yul\":7:82   */\n      swap1\n      jump\t// out\n        /* \"#utility.yul\":88:205   */\n    tag_221:\n        /* \"#utility.yul\":197:198   */\n      0x00\n        /* \"#utility.yul\":194:195   */\n      dup1\n        /* \"#utility.yul\":187:199   */\n      revert\n        /* \"#utility.yul\":211:328   */\n    tag_222:\n        /* \"#utility.yul\":320:321   */\n      0x00\n        /* \"#utility.yul\":317:318   */\n      dup1\n        /* \"#utility.yul\":310:322   */\n      revert\n        /* \"#utility.yul\":334:460   */\n    tag_223:\n        /* \"#utility.yul\":371:378   */\n      0x00\n        /* \"#utility.yul\":411:453   */\n      0xffffffffffffffffffffffffffffffffffffffff\n        /* \"#utility.yul\":404:409   */\n      dup3\n        /* \"#utility.yul\":400:454   */\n      and\n        /* \"#utility.yul\":389:454   */\n      swap1\n      pop\n        /* \"#utility.yul\":334:460   */\n      swap2\n      swap1\n      pop\n      jump\t// out\n        /* \"#utility.yul\":466:562   */\n    tag_224:\n        /* \"#utility.yul\":503:510   */\n      0x00\n        /* \"#utility.yul\":532:556   */\n      tag_300\n        /* \"#utility.yul\":550:555   */\n      dup3\n        /* \"#utility.yul\":532:556   */\n      tag_223\n      jump\t// in\n    tag_300:\n        /* \"#utility.yul\":521:556   */\n      swap1\n      pop\n        /* \"#utility.yul\":466:562   */\n      swap2\n      swap1\n      pop\n      jump\t// out\n        /* \"#utility.yul\":568:690   */\n    tag_225:\n        /* \"#utility.yul\":641:665   */\n      tag_302\n        /* \"#utility.yul\":659:664   */\n      dup2\n        /* \"#utility.yul\":641:665   */\n      tag_224\n      jump\t// in\n    tag_302:\n        /* \"#utility.yul\":634:639   */\n      dup2\n        /* \"#utility.yul\":631:666   */\n      eq\n        /* \"#utility.yul\":621:684   */\n      tag_303\n      jumpi\n        /* \"#utility.yul\":680:681   */\n      0x00\n        /* \"#utility.yul\":677:678   */\n      dup1\n        /* \"#utility.yul\":670:682   */\n      revert\n        /* \"#utility.yul\":621:684   */\n    tag_303:\n        /* \"#utility.yul\":568:690   */\n      pop\n      jump\t// out\n        /* \"#utility.yul\":696:835   */\n    tag_226:\n        /* \"#utility.yul\":742:747   */\n      0x00\n        /* \"#utility.yul\":780:786   */\n      dup2\n        /* \"#utility.yul\":767:787   */\n      calldataload\n        /* \"#utility.yul\":758:787   */\n      swap1\n      pop\n        /* \"#utility.yul\":796:829   */\n      tag_305\n        /* \"#utility.yul\":823:828   */\n      dup2\n        /* \"#utility.yul\":796:829   */\n      tag_225\n      jump\t// in\n    tag_305:\n        /* \"#utility.yul\":696:835   */\n      swap3\n      swap2\n      pop\n      pop\n      jump\t// out\n        /* \"#utility.yul\":841:1170   */\n    tag_16:\n        /* \"#utility.yul\":900:906   */\n      0x00\n        /* \"#utility.yul\":949:951   */\n      0x20\n        /* \"#utility.yul\":937:946   */\n      dup3\n        /* \"#utility.yul\":928:935   */\n      dup5\n        /* \"#utility.yul\":924:947   */\n      sub\n        /* \"#utility.yul\":920:952   */\n      slt\n        /* \"#utility.yul\":917:1036   */\n      iszero\n      tag_307\n      jumpi\n        /* \"#utility.yul\":955:1034   */\n      tag_308\n      tag_221\n      jump\t// in\n    tag_308:\n        /* \"#utility.yul\":917:1036   */\n    tag_307:\n        /* \"#utility.yul\":1075:1076   */\n      0x00\n        /* \"#utility.yul\":1100:1153   */\n      tag_309\n        /* \"#utility.yul\":1145:1152   */\n      dup5\n        /* \"#utility.yul\":1136:1142   */\n      dup3\n        /* \"#utility.yul\":1125:1134   */\n      dup6\n        /* \"#utility.yul\":1121:1143   */\n      add\n        /* \"#utility.yul\":1100:1153   */\n      tag_226\n      jump\t// in\n    tag_309:\n        /* \"#utility.yul\":1090:1153   */\n      swap2\n      pop\n        /* \"#utility.yul\":1046:1163   */\n      pop\n        /* \"#utility.yul\":841:1170   */\n      swap3\n      swap2\n      pop\n      pop\n      jump\t// out\n        /* \"#utility.yul\":1176:1275   */\n    tag_227:\n        /* \"#utility.yul\":1228:1234   */\n      0x00\n        /* \"#utility.yul\":1262:1267   */\n      dup2\n        /* \"#utility.yul\":1256:1268   */\n      mload\n        /* \"#utility.yul\":1246:1268   */\n      swap1\n      pop\n        /* \"#utility.yul\":1176:1275   */\n      swap2\n      swap1\n      pop\n      jump\t// out\n        /* \"#utility.yul\":1281:1450   */\n    tag_228:\n        /* \"#utility.yul\":1365:1376   */\n      0x00\n        /* \"#utility.yul\":1399:1405   */\n      dup3\n        /* \"#utility.yul\":1394:1397   */\n      dup3\n        /* \"#utility.yul\":1387:1406   */\n      mstore\n        /* \"#utility.yul\":1439:1443   */\n      0x20\n        /* \"#utility.yul\":1434:1437   */\n      dup3\n        /* \"#utility.yul\":1430:1444   */\n      add\n        /* \"#utility.yul\":1415:1444   */\n      swap1\n      pop\n        /* \"#utility.yul\":1281:1450   */\n      swap3\n      swap2\n      pop\n      pop\n      jump\t// out\n        /* \"#utility.yul\":1456:1702   */\n    tag_229:\n        /* \"#utility.yul\":1537:1538   */\n      0x00\n        /* \"#utility.yul\":1547:1660   */\n    tag_313:\n        /* \"#utility.yul\":1561:1567   */\n      dup4\n        /* \"#utility.yul\":1558:1559   */\n      dup2\n        /* \"#utility.yul\":1555:1568   */\n      lt\n        /* \"#utility.yul\":1547:1660   */\n      iszero\n      tag_315\n      jumpi\n        /* \"#utility.yul\":1646:1647   */\n      dup1\n        /* \"#utility.yul\":1641:1644   */\n      dup3\n        /* \"#utility.yul\":1637:1648   */\n      add\n        /* \"#utility.yul\":1631:1649   */\n      mload\n        /* \"#utility.yul\":1627:1628   */\n      dup2\n        /* \"#utility.yul\":1622:1625   */\n      dup5\n        /* \"#utility.yul\":1618:1629   */\n      add\n        /* \"#utility.yul\":1611:1650   */\n      mstore\n        /* \"#utility.yul\":1583:1585   */\n      0x20\n        /* \"#utility.yul\":1580:1581   */\n      dup2\n        /* \"#utility.yul\":1576:1586   */\n      add\n        /* \"#utility.yul\":1571:1586   */\n      swap1\n      pop\n        /* \"#utility.yul\":1547:1660   */\n      jump(tag_313)\n    tag_315:\n        /* \"#utility.yul\":1694:1695   */\n      0x00\n        /* \"#utility.yul\":1685:1691   */\n      dup5\n        /* \"#utility.yul\":1680:1683   */\n      dup5\n        /* \"#utility.yul\":1676:1692   */\n      add\n        /* \"#utility.yul\":1669:1696   */\n      mstore\n        /* \"#utility.yul\":1518:1702   */\n      pop\n        /* \"#utility.yul\":1456:1702   */\n      pop\n      pop\n      pop\n      jump\t// out\n        /* \"#utility.yul\":1708:1810   */\n    tag_230:\n        /* \"#utility.yul\":1749:1755   */\n      0x00\n        /* \"#utility.yul\":1800:1802   */\n      0x1f\n        /* \"#utility.yul\":1796:1803   */\n      not\n        /* \"#utility.yul\":1791:1793   */\n      0x1f\n        /* \"#utility.yul\":1784:1789   */\n      dup4\n        /* \"#utility.yul\":1780:1794   */\n      add\n        /* \"#utility.yul\":1776:1804   */\n      and\n        /* \"#utility.yul\":1766:1804   */\n      swap1\n      pop\n        /* \"#utility.yul\":1708:1810   */\n      swap2\n      swap1\n      pop\n      jump\t// out\n        /* \"#utility.yul\":1816:2193   */\n    tag_231:\n        /* \"#utility.yul\":1904:1907   */\n      0x00\n        /* \"#utility.yul\":1932:1971   */\n      tag_318\n        /* \"#utility.yul\":1965:1970   */\n      dup3\n        /* \"#utility.yul\":1932:1971   */\n      tag_227\n      jump\t// in\n    tag_318:\n        /* \"#utility.yul\":1987:2058   */\n      tag_319\n        /* \"#utility.yul\":2051:2057   */\n      dup2\n        /* \"#utility.yul\":2046:2049   */\n      dup6\n        /* \"#utility.yul\":1987:2058   */\n      tag_228\n      jump\t// in\n    tag_319:\n        /* \"#utility.yul\":1980:2058   */\n      swap4\n      pop\n        /* \"#utility.yul\":2067:2132   */\n      tag_320\n        /* \"#utility.yul\":2125:2131   */\n      dup2\n        /* \"#utility.yul\":2120:2123   */\n      dup6\n        /* \"#utility.yul\":2113:2117   */\n      0x20\n        /* \"#utility.yul\":2106:2111   */\n      dup7\n        /* \"#utility.yul\":2102:2118   */\n      add\n        /* \"#utility.yul\":2067:2132   */\n      tag_229\n      jump\t// in\n    tag_320:\n        /* \"#utility.yul\":2157:2186   */\n      tag_321\n        /* \"#utility.yul\":2179:2185   */\n      dup2\n        /* \"#utility.yul\":2157:2186   */\n      tag_230\n      jump\t// in\n    tag_321:\n        /* \"#utility.yul\":2152:2155   */\n      dup5\n        /* \"#utility.yul\":2148:2187   */\n      add\n        /* \"#utility.yul\":2141:2187   */\n      swap2\n      pop\n        /* \"#utility.yul\":1908:2193   */\n      pop\n        /* \"#utility.yul\":1816:2193   */\n      swap3\n      swap2\n      pop\n      pop\n      jump\t// out\n        /* \"#utility.yul\":2199:2276   */\n    tag_232:\n        /* \"#utility.yul\":2236:2243   */\n      0x00\n        /* \"#utility.yul\":2265:2270   */\n      dup2\n        /* \"#utility.yul\":2254:2270   */\n      swap1\n      pop\n        /* \"#utility.yul\":2199:2276   */\n      swap2\n      swap1\n      pop\n      jump\t// out\n        /* \"#utility.yul\":2282:2390   */\n    tag_233:\n        /* \"#utility.yul\":2359:2383   */\n      tag_324\n        /* \"#utility.yul\":2377:2382   */\n      dup2\n        /* \"#utility.yul\":2359:2383   */\n      tag_232\n      jump\t// in\n    tag_324:\n        /* \"#utility.yul\":2354:2357   */\n      dup3\n        /* \"#utility.yul\":2347:2384   */\n      mstore\n        /* \"#utility.yul\":2282:2390   */\n      pop\n      pop\n      jump\t// out\n        /* \"#utility.yul\":2446:3118   */\n    tag_234:\n        /* \"#utility.yul\":2583:2587   */\n      0x60\n        /* \"#utility.yul\":2578:2581   */\n      dup3\n        /* \"#utility.yul\":2574:2588   */\n      add\n        /* \"#utility.yul\":2670:2674   */\n      0x00\n        /* \"#utility.yul\":2663:2668   */\n      dup3\n        /* \"#utility.yul\":2659:2675   */\n      add\n        /* \"#utility.yul\":2653:2676   */\n      mload\n        /* \"#utility.yul\":2689:2752   */\n      tag_326\n        /* \"#utility.yul\":2746:2750   */\n      0x00\n        /* \"#utility.yul\":2741:2744   */\n      dup6\n        /* \"#utility.yul\":2737:2751   */\n      add\n        /* \"#utility.yul\":2723:2735   */\n      dup3\n        /* \"#utility.yul\":2689:2752   */\n      tag_233\n      jump\t// in\n    tag_326:\n        /* \"#utility.yul\":2598:2762   */\n      pop\n        /* \"#utility.yul\":2845:2849   */\n      0x20\n        /* \"#utility.yul\":2838:2843   */\n      dup3\n        /* \"#utility.yul\":2834:2850   */\n      add\n        /* \"#utility.yul\":2828:2851   */\n      mload\n        /* \"#utility.yul\":2864:2927   */\n      tag_327\n        /* \"#utility.yul\":2921:2925   */\n      0x20\n        /* \"#utility.yul\":2916:2919   */\n      dup6\n        /* \"#utility.yul\":2912:2926   */\n      add\n        /* \"#utility.yul\":2898:2910   */\n      dup3\n        /* \"#utility.yul\":2864:2927   */\n      tag_233\n      jump\t// in\n    tag_327:\n        /* \"#utility.yul\":2772:2937   */\n      pop\n        /* \"#utility.yul\":3019:3023   */\n      0x40\n        /* \"#utility.yul\":3012:3017   */\n      dup3\n        /* \"#utility.yul\":3008:3024   */\n      add\n        /* \"#utility.yul\":3002:3025   */\n      mload\n        /* \"#utility.yul\":3038:3101   */\n      tag_328\n        /* \"#utility.yul\":3095:3099   */\n      0x40\n        /* \"#utility.yul\":3090:3093   */\n      dup6\n        /* \"#utility.yul\":3086:3100   */\n      add\n        /* \"#utility.yul\":3072:3084   */\n      dup3\n        /* \"#utility.yul\":3038:3101   */\n      tag_233\n      jump\t// in\n    tag_328:\n        /* \"#utility.yul\":2947:3111   */\n      pop\n        /* \"#utility.yul\":2552:3118   */\n      pop\n        /* \"#utility.yul\":2446:3118   */\n      pop\n      pop\n      jump\t// out\n        /* \"#utility.yul\":3124:3242   */\n    tag_235:\n        /* \"#utility.yul\":3211:3235   */\n      tag_330\n        /* \"#utility.yul\":3229:3234   */\n      dup2\n        /* \"#utility.yul\":3211:3235   */\n      tag_224\n      jump\t// in\n    tag_330:\n        /* \"#utility.yul\":3206:3209   */\n      dup3\n        /* \"#utility.yul\":3199:3236   */\n      mstore\n        /* \"#utility.yul\":3124:3242   */\n      pop\n      pop\n      jump\t// out\n        /* \"#utility.yul\":3248:3338   */\n    tag_236:\n        /* \"#utility.yul\":3282:3289   */\n      0x00\n        /* \"#utility.yul\":3325:3330   */\n      dup2\n        /* \"#utility.yul\":3318:3331   */\n      iszero\n        /* \"#utility.yul\":3311:3332   */\n      iszero\n        /* \"#utility.yul\":3300:3332   */\n      swap1\n      pop\n        /* \"#utility.yul\":3248:3338   */\n      swap2\n      swap1\n      pop\n      jump\t// out\n        /* \"#utility.yul\":3344:3453   */\n    tag_237:\n        /* \"#utility.yul\":3425:3446   */\n      tag_333\n        /* \"#utility.yul\":3440:3445   */\n      dup2\n        /* \"#utility.yul\":3425:3446   */\n      tag_236\n      jump\t// in\n    tag_333:\n        /* \"#utility.yul\":3420:3423   */\n      dup3\n        /* \"#utility.yul\":3413:3447   */\n      mstore\n        /* \"#utility.yul\":3344:3453   */\n      pop\n      pop\n      jump\t// out\n        /* \"#utility.yul\":3459:4979   */\n    tag_22:\n        /* \"#utility.yul\":3882:3886   */\n      0x00\n        /* \"#utility.yul\":3920:3923   */\n      0x0140\n        /* \"#utility.yul\":3909:3918   */\n      dup3\n        /* \"#utility.yul\":3905:3924   */\n      add\n        /* \"#utility.yul\":3897:3924   */\n      swap1\n      pop\n        /* \"#utility.yul\":3970:3979   */\n      dup2\n        /* \"#utility.yul\":3964:3968   */\n      dup2\n        /* \"#utility.yul\":3960:3980   */\n      sub\n        /* \"#utility.yul\":3956:3957   */\n      0x00\n        /* \"#utility.yul\":3945:3954   */\n      dup4\n        /* \"#utility.yul\":3941:3958   */\n      add\n        /* \"#utility.yul\":3934:3981   */\n      mstore\n        /* \"#utility.yul\":3998:4076   */\n      tag_335\n        /* \"#utility.yul\":4071:4075   */\n      dup2\n        /* \"#utility.yul\":4062:4068   */\n      dup12\n        /* \"#utility.yul\":3998:4076   */\n      tag_231\n      jump\t// in\n    tag_335:\n        /* \"#utility.yul\":3990:4076   */\n      swap1\n      pop\n        /* \"#utility.yul\":4123:4132   */\n      dup2\n        /* \"#utility.yul\":4117:4121   */\n      dup2\n        /* \"#utility.yul\":4113:4133   */\n      sub\n        /* \"#utility.yul\":4108:4110   */\n      0x20\n        /* \"#utility.yul\":4097:4106   */\n      dup4\n        /* \"#utility.yul\":4093:4111   */\n      add\n        /* \"#utility.yul\":4086:4134   */\n      mstore\n        /* \"#utility.yul\":4151:4229   */\n      tag_336\n        /* \"#utility.yul\":4224:4228   */\n      dup2\n        /* \"#utility.yul\":4215:4221   */\n      dup11\n        /* \"#utility.yul\":4151:4229   */\n      tag_231\n      jump\t// in\n    tag_336:\n        /* \"#utility.yul\":4143:4229   */\n      swap1\n      pop\n        /* \"#utility.yul\":4276:4285   */\n      dup2\n        /* \"#utility.yul\":4270:4274   */\n      dup2\n        /* \"#utility.yul\":4266:4286   */\n      sub\n        /* \"#utility.yul\":4261:4263   */\n      0x40\n        /* \"#utility.yul\":4250:4259   */\n      dup4\n        /* \"#utility.yul\":4246:4264   */\n      add\n        /* \"#utility.yul\":4239:4287   */\n      mstore\n        /* \"#utility.yul\":4304:4382   */\n      tag_337\n        /* \"#utility.yul\":4377:4381   */\n      dup2\n        /* \"#utility.yul\":4368:4374   */\n      dup10\n        /* \"#utility.yul\":4304:4382   */\n      tag_231\n      jump\t// in\n    tag_337:\n        /* \"#utility.yul\":4296:4382   */\n      swap1\n      pop\n        /* \"#utility.yul\":4429:4438   */\n      dup2\n        /* \"#utility.yul\":4423:4427   */\n      dup2\n        /* \"#utility.yul\":4419:4439   */\n      sub\n        /* \"#utility.yul\":4414:4416   */\n      0x60\n        /* \"#utility.yul\":4403:4412   */\n      dup4\n        /* \"#utility.yul\":4399:4417   */\n      add\n        /* \"#utility.yul\":4392:4440   */\n      mstore\n        /* \"#utility.yul\":4457:4535   */\n      tag_338\n        /* \"#utility.yul\":4530:4534   */\n      dup2\n        /* \"#utility.yul\":4521:4527   */\n      dup9\n        /* \"#utility.yul\":4457:4535   */\n      tag_231\n      jump\t// in\n    tag_338:\n        /* \"#utility.yul\":4449:4535   */\n      swap1\n      pop\n        /* \"#utility.yul\":4583:4592   */\n      dup2\n        /* \"#utility.yul\":4577:4581   */\n      dup2\n        /* \"#utility.yul\":4573:4593   */\n      sub\n        /* \"#utility.yul\":4567:4570   */\n      0x80\n        /* \"#utility.yul\":4556:4565   */\n      dup4\n        /* \"#utility.yul\":4552:4571   */\n      add\n        /* \"#utility.yul\":4545:4594   */\n      mstore\n        /* \"#utility.yul\":4611:4689   */\n      tag_339\n        /* \"#utility.yul\":4684:4688   */\n      dup2\n        /* \"#utility.yul\":4675:4681   */\n      dup8\n        /* \"#utility.yul\":4611:4689   */\n      tag_231\n      jump\t// in\n    tag_339:\n        /* \"#utility.yul\":4603:4689   */\n      swap1\n      pop\n        /* \"#utility.yul\":4699:4812   */\n      tag_340\n        /* \"#utility.yul\":4807:4810   */\n      0xa0\n        /* \"#utility.yul\":4796:4805   */\n      dup4\n        /* \"#utility.yul\":4792:4811   */\n      add\n        /* \"#utility.yul\":4783:4789   */\n      dup7\n        /* \"#utility.yul\":4699:4812   */\n      tag_234\n      jump\t// in\n    tag_340:\n        /* \"#utility.yul\":4822:4895   */\n      tag_341\n        /* \"#utility.yul\":4890:4893   */\n      0x0100\n        /* \"#utility.yul\":4879:4888   */\n      dup4\n        /* \"#utility.yul\":4875:4894   */\n      add\n        /* \"#utility.yul\":4866:4872   */\n      dup6\n        /* \"#utility.yul\":4822:4895   */\n      tag_235\n      jump\t// in\n    tag_341:\n        /* \"#utility.yul\":4905:4972   */\n      tag_342\n        /* \"#utility.yul\":4967:4970   */\n      0x0120\n        /* \"#utility.yul\":4956:4965   */\n      dup4\n        /* \"#utility.yul\":4952:4971   */\n      add\n        /* \"#utility.yul\":4943:4949   */\n      dup5\n        /* \"#utility.yul\":4905:4972   */\n      tag_237\n      jump\t// in\n    tag_342:\n        /* \"#utility.yul\":3459:4979   */\n      swap10\n      swap9\n      pop\n      pop\n      pop\n      pop\n      pop\n      pop\n      pop\n      pop\n      pop\n      jump\t// out\n        /* \"#utility.yul\":4985:5195   */\n    tag_27:\n        /* \"#utility.yul\":5072:5076   */\n      0x00\n        /* \"#utility.yul\":5110:5112   */\n      0x20\n        /* \"#utility.yul\":5099:5108   */\n      dup3\n        /* \"#utility.yul\":5095:5113   */\n      add\n        /* \"#utility.yul\":5087:5113   */\n      swap1\n      pop\n        /* \"#utility.yul\":5123:5188   */\n      tag_344\n        /* \"#utility.yul\":5185:5186   */\n      0x00\n        /* \"#utility.yul\":5174:5183   */\n      dup4\n        /* \"#utility.yul\":5170:5187   */\n      add\n        /* \"#utility.yul\":5161:5167   */\n      dup5\n        /* \"#utility.yul\":5123:5188   */\n      tag_237\n      jump\t// in\n    tag_344:\n        /* \"#utility.yul\":4985:5195   */\n      swap3\n      swap2\n      pop\n      pop\n      jump\t// out\n        /* \"#utility.yul\":5201:5318   */\n    tag_238:\n        /* \"#utility.yul\":5310:5311   */\n      0x00\n        /* \"#utility.yul\":5307:5308   */\n      dup1\n        /* \"#utility.yul\":5300:5312   */\n      revert\n        /* \"#utility.yul\":5324:5441   */\n    tag_239:\n        /* \"#utility.yul\":5433:5434   */\n      0x00\n        /* \"#utility.yul\":5430:5431   */\n      dup1\n        /* \"#utility.yul\":5423:5435   */\n      revert\n        /* \"#utility.yul\":5447:5627   */\n    tag_137:\n        /* \"#utility.yul\":5495:5572   */\n      0x4e487b7100000000000000000000000000000000000000000000000000000000\n        /* \"#utility.yul\":5492:5493   */\n      0x00\n        /* \"#utility.yul\":5485:5573   */\n      mstore\n        /* \"#utility.yul\":5592:5596   */\n      0x41\n        /* \"#utility.yul\":5589:5590   */\n      0x04\n        /* \"#utility.yul\":5582:5597   */\n      mstore\n        /* \"#utility.yul\":5616:5620   */\n      0x24\n        /* \"#utility.yul\":5613:5614   */\n      0x00\n        /* \"#utility.yul\":5606:5621   */\n      revert\n        /* \"#utility.yul\":5633:5914   */\n    tag_240:\n        /* \"#utility.yul\":5716:5743   */\n      tag_349\n        /* \"#utility.yul\":5738:5742   */\n      dup3\n        /* \"#utility.yul\":5716:5743   */\n      tag_230\n      jump\t// in\n    tag_349:\n        /* \"#utility.yul\":5708:5714   */\n      dup2\n        /* \"#utility.yul\":5704:5744   */\n      add\n        /* \"#utility.yul\":5846:5852   */\n      dup2\n        /* \"#utility.yul\":5834:5844   */\n      dup2\n        /* \"#utility.yul\":5831:5853   */\n      lt\n        /* \"#utility.yul\":5810:5828   */\n      0xffffffffffffffff\n        /* \"#utility.yul\":5798:5808   */\n      dup3\n        /* \"#utility.yul\":5795:5829   */\n      gt\n        /* \"#utility.yul\":5792:5854   */\n      or\n        /* \"#utility.yul\":5789:5877   */\n      iszero\n      tag_350\n      jumpi\n        /* \"#utility.yul\":5857:5875   */\n      tag_351\n      tag_137\n      jump\t// in\n    tag_351:\n        /* \"#utility.yul\":5789:5877   */\n    tag_350:\n        /* \"#utility.yul\":5897:5907   */\n      dup1\n        /* \"#utility.yul\":5893:5895   */\n      0x40\n        /* \"#utility.yul\":5886:5908   */\n      mstore\n        /* \"#utility.yul\":5676:5914   */\n      pop\n        /* \"#utility.yul\":5633:5914   */\n      pop\n      pop\n      jump\t// out\n        /* \"#utility.yul\":5920:6049   */\n    tag_241:\n        /* \"#utility.yul\":5954:5960   */\n      0x00\n        /* \"#utility.yul\":5981:6001   */\n      tag_353\n      tag_220\n      jump\t// in\n    tag_353:\n        /* \"#utility.yul\":5971:6001   */\n      swap1\n      pop\n        /* \"#utility.yul\":6010:6043   */\n      tag_354\n        /* \"#utility.yul\":6038:6042   */\n      dup3\n        /* \"#utility.yul\":6030:6036   */\n      dup3\n        /* \"#utility.yul\":6010:6043   */\n      tag_240\n      jump\t// in\n    tag_354:\n        /* \"#utility.yul\":5920:6049   */\n      swap2\n      swap1\n      pop\n      jump\t// out\n        /* \"#utility.yul\":6055:6363   */\n    tag_242:\n        /* \"#utility.yul\":6117:6121   */\n      0x00\n        /* \"#utility.yul\":6207:6225   */\n      0xffffffffffffffff\n        /* \"#utility.yul\":6199:6205   */\n      dup3\n        /* \"#utility.yul\":6196:6226   */\n      gt\n        /* \"#utility.yul\":6193:6249   */\n      iszero\n      tag_356\n      jumpi\n        /* \"#utility.yul\":6229:6247   */\n      tag_357\n      tag_137\n      jump\t// in\n    tag_357:\n        /* \"#utility.yul\":6193:6249   */\n    tag_356:\n        /* \"#utility.yul\":6267:6296   */\n      tag_358\n        /* \"#utility.yul\":6289:6295   */\n      dup3\n        /* \"#utility.yul\":6267:6296   */\n      tag_230\n      jump\t// in\n    tag_358:\n        /* \"#utility.yul\":6259:6296   */\n      swap1\n      pop\n        /* \"#utility.yul\":6351:6355   */\n      0x20\n        /* \"#utility.yul\":6345:6349   */\n      dup2\n        /* \"#utility.yul\":6341:6356   */\n      add\n        /* \"#utility.yul\":6333:6356   */\n      swap1\n      pop\n        /* \"#utility.yul\":6055:6363   */\n      swap2\n      swap1\n      pop\n      jump\t// out\n        /* \"#utility.yul\":6369:6515   */\n    tag_243:\n        /* \"#utility.yul\":6466:6472   */\n      dup3\n        /* \"#utility.yul\":6461:6464   */\n      dup2\n        /* \"#utility.yul\":6456:6459   */\n      dup4\n        /* \"#utility.yul\":6443:6473   */\n      calldatacopy\n        /* \"#utility.yul\":6507:6508   */\n      0x00\n        /* \"#utility.yul\":6498:6504   */\n      dup4\n        /* \"#utility.yul\":6493:6496   */\n      dup4\n        /* \"#utility.yul\":6489:6505   */\n      add\n        /* \"#utility.yul\":6482:6509   */\n      mstore\n        /* \"#utility.yul\":6369:6515   */\n      pop\n      pop\n      pop\n      jump\t// out\n        /* \"#utility.yul\":6521:6946   */\n    tag_244:\n        /* \"#utility.yul\":6599:6604   */\n      0x00\n        /* \"#utility.yul\":6624:6690   */\n      tag_361\n        /* \"#utility.yul\":6640:6689   */\n      tag_362\n        /* \"#utility.yul\":6682:6688   */\n      dup5\n        /* \"#utility.yul\":6640:6689   */\n      tag_242\n      jump\t// in\n    tag_362:\n        /* \"#utility.yul\":6624:6690   */\n      tag_241\n      jump\t// in\n    tag_361:\n        /* \"#utility.yul\":6615:6690   */\n      swap1\n      pop\n        /* \"#utility.yul\":6713:6719   */\n      dup3\n        /* \"#utility.yul\":6706:6711   */\n      dup2\n        /* \"#utility.yul\":6699:6720   */\n      mstore\n        /* \"#utility.yul\":6751:6755   */\n      0x20\n        /* \"#utility.yul\":6744:6749   */\n      dup2\n        /* \"#utility.yul\":6740:6756   */\n      add\n        /* \"#utility.yul\":6789:6792   */\n      dup5\n        /* \"#utility.yul\":6780:6786   */\n      dup5\n        /* \"#utility.yul\":6775:6778   */\n      dup5\n        /* \"#utility.yul\":6771:6787   */\n      add\n        /* \"#utility.yul\":6768:6793   */\n      gt\n        /* \"#utility.yul\":6765:6877   */\n      iszero\n      tag_363\n      jumpi\n        /* \"#utility.yul\":6796:6875   */\n      tag_364\n      tag_239\n      jump\t// in\n    tag_364:\n        /* \"#utility.yul\":6765:6877   */\n    tag_363:\n        /* \"#utility.yul\":6886:6940   */\n      tag_365\n        /* \"#utility.yul\":6933:6939   */\n      dup5\n        /* \"#utility.yul\":6928:6931   */\n      dup3\n        /* \"#utility.yul\":6923:6926   */\n      dup6\n        /* \"#utility.yul\":6886:6940   */\n      tag_243\n      jump\t// in\n    tag_365:\n        /* \"#utility.yul\":6605:6946   */\n      pop\n        /* \"#utility.yul\":6521:6946   */\n      swap4\n      swap3\n      pop\n      pop\n      pop\n      jump\t// out\n        /* \"#utility.yul\":6966:7306   */\n    tag_245:\n        /* \"#utility.yul\":7022:7027   */\n      0x00\n        /* \"#utility.yul\":7071:7074   */\n      dup3\n        /* \"#utility.yul\":7064:7068   */\n      0x1f\n        /* \"#utility.yul\":7056:7062   */\n      dup4\n        /* \"#utility.yul\":7052:7069   */\n      add\n        /* \"#utility.yul\":7048:7075   */\n      slt\n        /* \"#utility.yul\":7038:7160   */\n      tag_367\n      jumpi\n        /* \"#utility.yul\":7079:7158   */\n      tag_368\n      tag_238\n      jump\t// in\n    tag_368:\n        /* \"#utility.yul\":7038:7160   */\n    tag_367:\n        /* \"#utility.yul\":7196:7202   */\n      dup2\n        /* \"#utility.yul\":7183:7203   */\n      calldataload\n        /* \"#utility.yul\":7221:7300   */\n      tag_369\n        /* \"#utility.yul\":7296:7299   */\n      dup5\n        /* \"#utility.yul\":7288:7294   */\n      dup3\n        /* \"#utility.yul\":7281:7285   */\n      0x20\n        /* \"#utility.yul\":7273:7279   */\n      dup7\n        /* \"#utility.yul\":7269:7286   */\n      add\n        /* \"#utility.yul\":7221:7300   */\n      tag_244\n      jump\t// in\n    tag_369:\n        /* \"#utility.yul\":7212:7300   */\n      swap2\n      pop\n        /* \"#utility.yul\":7028:7306   */\n      pop\n        /* \"#utility.yul\":6966:7306   */\n      swap3\n      swap2\n      pop\n      pop\n      jump\t// out\n        /* \"#utility.yul\":7312:7434   */\n    tag_246:\n        /* \"#utility.yul\":7385:7409   */\n      tag_371\n        /* \"#utility.yul\":7403:7408   */\n      dup2\n        /* \"#utility.yul\":7385:7409   */\n      tag_232\n      jump\t// in\n    tag_371:\n        /* \"#utility.yul\":7378:7383   */\n      dup2\n        /* \"#utility.yul\":7375:7410   */\n      eq\n        /* \"#utility.yul\":7365:7428   */\n      tag_372\n      jumpi\n        /* \"#utility.yul\":7424:7425   */\n      0x00\n        /* \"#utility.yul\":7421:7422   */\n      dup1\n        /* \"#utility.yul\":7414:7426   */\n      revert\n        /* \"#utility.yul\":7365:7428   */\n    tag_372:\n        /* \"#utility.yul\":7312:7434   */\n      pop\n      jump\t// out\n        /* \"#utility.yul\":7440:7579   */\n    tag_247:\n        /* \"#utility.yul\":7486:7491   */\n      0x00\n        /* \"#utility.yul\":7524:7530   */\n      dup2\n        /* \"#utility.yul\":7511:7531   */\n      calldataload\n        /* \"#utility.yul\":7502:7531   */\n      swap1\n      pop\n        /* \"#utility.yul\":7540:7573   */\n      tag_374\n        /* \"#utility.yul\":7567:7572   */\n      dup2\n        /* \"#utility.yul\":7540:7573   */\n      tag_246\n      jump\t// in\n    tag_374:\n        /* \"#utility.yul\":7440:7579   */\n      swap3\n      swap2\n      pop\n      pop\n      jump\t// out\n        /* \"#utility.yul\":7585:9980   */\n    tag_30:\n        /* \"#utility.yul\":7766:7772   */\n      0x00\n        /* \"#utility.yul\":7774:7780   */\n      dup1\n        /* \"#utility.yul\":7782:7788   */\n      0x00\n        /* \"#utility.yul\":7790:7796   */\n      dup1\n        /* \"#utility.yul\":7798:7804   */\n      0x00\n        /* \"#utility.yul\":7806:7812   */\n      dup1\n        /* \"#utility.yul\":7814:7820   */\n      0x00\n        /* \"#utility.yul\":7822:7828   */\n      dup1\n        /* \"#utility.yul\":7830:7836   */\n      0x00\n        /* \"#utility.yul\":7879:7882   */\n      0x0120\n        /* \"#utility.yul\":7867:7876   */\n      dup11\n        /* \"#utility.yul\":7858:7865   */\n      dup13\n        /* \"#utility.yul\":7854:7877   */\n      sub\n        /* \"#utility.yul\":7850:7883   */\n      slt\n        /* \"#utility.yul\":7847:7967   */\n      iszero\n      tag_376\n      jumpi\n        /* \"#utility.yul\":7886:7965   */\n      tag_377\n      tag_221\n      jump\t// in\n    tag_377:\n        /* \"#utility.yul\":7847:7967   */\n    tag_376:\n        /* \"#utility.yul\":8034:8035   */\n      0x00\n        /* \"#utility.yul\":8023:8032   */\n      dup11\n        /* \"#utility.yul\":8019:8036   */\n      add\n        /* \"#utility.yul\":8006:8037   */\n      calldataload\n        /* \"#utility.yul\":8064:8082   */\n      0xffffffffffffffff\n        /* \"#utility.yul\":8056:8062   */\n      dup2\n        /* \"#utility.yul\":8053:8083   */\n      gt\n        /* \"#utility.yul\":8050:8167   */\n      iszero\n      tag_378\n      jumpi\n        /* \"#utility.yul\":8086:8165   */\n      tag_379\n      tag_222\n      jump\t// in\n    tag_379:\n        /* \"#utility.yul\":8050:8167   */\n    tag_378:\n        /* \"#utility.yul\":8191:8254   */\n      tag_380\n        /* \"#utility.yul\":8246:8253   */\n      dup13\n        /* \"#utility.yul\":8237:8243   */\n      dup3\n        /* \"#utility.yul\":8226:8235   */\n      dup14\n        /* \"#utility.yul\":8222:8244   */\n      add\n        /* \"#utility.yul\":8191:8254   */\n      tag_245\n      jump\t// in\n    tag_380:\n        /* \"#utility.yul\":8181:8254   */\n      swap10\n      pop\n        /* \"#utility.yul\":7977:8264   */\n      pop\n        /* \"#utility.yul\":8331:8333   */\n      0x20\n        /* \"#utility.yul\":8320:8329   */\n      dup11\n        /* \"#utility.yul\":8316:8334   */\n      add\n        /* \"#utility.yul\":8303:8335   */\n      calldataload\n        /* \"#utility.yul\":8362:8380   */\n      0xffffffffffffffff\n        /* \"#utility.yul\":8354:8360   */\n      dup2\n        /* \"#utility.yul\":8351:8381   */\n      gt\n        /* \"#utility.yul\":8348:8465   */\n      iszero\n      tag_381\n      jumpi\n        /* \"#utility.yul\":8384:8463   */\n      tag_382\n      tag_222\n      jump\t// in\n    tag_382:\n        /* \"#utility.yul\":8348:8465   */\n    tag_381:\n        /* \"#utility.yul\":8489:8552   */\n      tag_383\n        /* \"#utility.yul\":8544:8551   */\n      dup13\n        /* \"#utility.yul\":8535:8541   */\n      dup3\n        /* \"#utility.yul\":8524:8533   */\n      dup14\n        /* \"#utility.yul\":8520:8542   */\n      add\n        /* \"#utility.yul\":8489:8552   */\n      tag_245\n      jump\t// in\n    tag_383:\n        /* \"#utility.yul\":8479:8552   */\n      swap9\n      pop\n        /* \"#utility.yul\":8274:8562   */\n      pop\n        /* \"#utility.yul\":8629:8631   */\n      0x40\n        /* \"#utility.yul\":8618:8627   */\n      dup11\n        /* \"#utility.yul\":8614:8632   */\n      add\n        /* \"#utility.yul\":8601:8633   */\n      calldataload\n        /* \"#utility.yul\":8660:8678   */\n      0xffffffffffffffff\n        /* \"#utility.yul\":8652:8658   */\n      dup2\n        /* \"#utility.yul\":8649:8679   */\n      gt\n        /* \"#utility.yul\":8646:8763   */\n      iszero\n      tag_384\n      jumpi\n        /* \"#utility.yul\":8682:8761   */\n      tag_385\n      tag_222\n      jump\t// in\n    tag_385:\n        /* \"#utility.yul\":8646:8763   */\n    tag_384:\n        /* \"#utility.yul\":8787:8850   */\n      tag_386\n        /* \"#utility.yul\":8842:8849   */\n      dup13\n        /* \"#utility.yul\":8833:8839   */\n      dup3\n        /* \"#utility.yul\":8822:8831   */\n      dup14\n        /* \"#utility.yul\":8818:8840   */\n      add\n        /* \"#utility.yul\":8787:8850   */\n      tag_245\n      jump\t// in\n    tag_386:\n        /* \"#utility.yul\":8777:8850   */\n      swap8\n      pop\n        /* \"#utility.yul\":8572:8860   */\n      pop\n        /* \"#utility.yul\":8927:8929   */\n      0x60\n        /* \"#utility.yul\":8916:8925   */\n      dup11\n        /* \"#utility.yul\":8912:8930   */\n      add\n        /* \"#utility.yul\":8899:8931   */\n      calldataload\n        /* \"#utility.yul\":8958:8976   */\n      0xffffffffffffffff\n        /* \"#utility.yul\":8950:8956   */\n      dup2\n        /* \"#utility.yul\":8947:8977   */\n      gt\n        /* \"#utility.yul\":8944:9061   */\n      iszero\n      tag_387\n      jumpi\n        /* \"#utility.yul\":8980:9059   */\n      tag_388\n      tag_222\n      jump\t// in\n    tag_388:\n        /* \"#utility.yul\":8944:9061   */\n    tag_387:\n        /* \"#utility.yul\":9085:9148   */\n      tag_389\n        /* \"#utility.yul\":9140:9147   */\n      dup13\n        /* \"#utility.yul\":9131:9137   */\n      dup3\n        /* \"#utility.yul\":9120:9129   */\n      dup14\n        /* \"#utility.yul\":9116:9138   */\n      add\n        /* \"#utility.yul\":9085:9148   */\n      tag_245\n      jump\t// in\n    tag_389:\n        /* \"#utility.yul\":9075:9148   */\n      swap7\n      pop\n        /* \"#utility.yul\":8870:9158   */\n      pop\n        /* \"#utility.yul\":9197:9200   */\n      0x80\n        /* \"#utility.yul\":9224:9277   */\n      tag_390\n        /* \"#utility.yul\":9269:9276   */\n      dup13\n        /* \"#utility.yul\":9260:9266   */\n      dup3\n        /* \"#utility.yul\":9249:9258   */\n      dup14\n        /* \"#utility.yul\":9245:9267   */\n      add\n        /* \"#utility.yul\":9224:9277   */\n      tag_247\n      jump\t// in\n    tag_390:\n        /* \"#utility.yul\":9214:9277   */\n      swap6\n      pop\n        /* \"#utility.yul\":9168:9287   */\n      pop\n        /* \"#utility.yul\":9326:9329   */\n      0xa0\n        /* \"#utility.yul\":9353:9406   */\n      tag_391\n        /* \"#utility.yul\":9398:9405   */\n      dup13\n        /* \"#utility.yul\":9389:9395   */\n      dup3\n        /* \"#utility.yul\":9378:9387   */\n      dup14\n        /* \"#utility.yul\":9374:9396   */\n      add\n        /* \"#utility.yul\":9353:9406   */\n      tag_247\n      jump\t// in\n    tag_391:\n        /* \"#utility.yul\":9343:9406   */\n      swap5\n      pop\n        /* \"#utility.yul\":9297:9416   */\n      pop\n        /* \"#utility.yul\":9455:9458   */\n      0xc0\n        /* \"#utility.yul\":9482:9535   */\n      tag_392\n        /* \"#utility.yul\":9527:9534   */\n      dup13\n        /* \"#utility.yul\":9518:9524   */\n      dup3\n        /* \"#utility.yul\":9507:9516   */\n      dup14\n        /* \"#utility.yul\":9503:9525   */\n      add\n        /* \"#utility.yul\":9482:9535   */\n      tag_247\n      jump\t// in\n    tag_392:\n        /* \"#utility.yul\":9472:9535   */\n      swap4\n      pop\n        /* \"#utility.yul\":9426:9545   */\n      pop\n        /* \"#utility.yul\":9612:9615   */\n      0xe0\n        /* \"#utility.yul\":9601:9610   */\n      dup11\n        /* \"#utility.yul\":9597:9616   */\n      add\n        /* \"#utility.yul\":9584:9617   */\n      calldataload\n        /* \"#utility.yul\":9644:9662   */\n      0xffffffffffffffff\n        /* \"#utility.yul\":9636:9642   */\n      dup2\n        /* \"#utility.yul\":9633:9663   */\n      gt\n        /* \"#utility.yul\":9630:9747   */\n      iszero\n      tag_393\n      jumpi\n        /* \"#utility.yul\":9666:9745   */\n      tag_394\n      tag_222\n      jump\t// in\n    tag_394:\n        /* \"#utility.yul\":9630:9747   */\n    tag_393:\n        /* \"#utility.yul\":9771:9834   */\n      tag_395\n        /* \"#utility.yul\":9826:9833   */\n      dup13\n        /* \"#utility.yul\":9817:9823   */\n      dup3\n        /* \"#utility.yul\":9806:9815   */\n      dup14\n        /* \"#utility.yul\":9802:9824   */\n      add\n        /* \"#utility.yul\":9771:9834   */\n      tag_245\n      jump\t// in\n    tag_395:\n        /* \"#utility.yul\":9761:9834   */\n      swap3\n      pop\n        /* \"#utility.yul\":9555:9844   */\n      pop\n        /* \"#utility.yul\":9883:9886   */\n      0x0100\n        /* \"#utility.yul\":9910:9963   */\n      tag_396\n        /* \"#utility.yul\":9955:9962   */\n      dup13\n        /* \"#utility.yul\":9946:9952   */\n      dup3\n        /* \"#utility.yul\":9935:9944   */\n      dup14\n        /* \"#utility.yul\":9931:9953   */\n      add\n        /* \"#utility.yul\":9910:9963   */\n      tag_226\n      jump\t// in\n    tag_396:\n        /* \"#utility.yul\":9900:9963   */\n      swap2\n      pop\n        /* \"#utility.yul\":9854:9973   */\n      pop\n        /* \"#utility.yul\":7585:9980   */\n      swap3\n      swap6\n      swap9\n      pop\n      swap3\n      swap6\n      swap9\n      pop\n      swap3\n      swap6\n      swap9\n      jump\t// out\n        /* \"#utility.yul\":9986:10820   */\n    tag_35:\n        /* \"#utility.yul\":10074:10080   */\n      0x00\n        /* \"#utility.yul\":10082:10088   */\n      dup1\n        /* \"#utility.yul\":10131:10133   */\n      0x40\n        /* \"#utility.yul\":10119:10128   */\n      dup4\n        /* \"#utility.yul\":10110:10117   */\n      dup6\n        /* \"#utility.yul\":10106:10129   */\n      sub\n        /* \"#utility.yul\":10102:10134   */\n      slt\n        /* \"#utility.yul\":10099:10218   */\n      iszero\n      tag_398\n      jumpi\n        /* \"#utility.yul\":10137:10216   */\n      tag_399\n      tag_221\n      jump\t// in\n    tag_399:\n        /* \"#utility.yul\":10099:10218   */\n    tag_398:\n        /* \"#utility.yul\":10285:10286   */\n      0x00\n        /* \"#utility.yul\":10274:10283   */\n      dup4\n        /* \"#utility.yul\":10270:10287   */\n      add\n        /* \"#utility.yul\":10257:10288   */\n      calldataload\n        /* \"#utility.yul\":10315:10333   */\n      0xffffffffffffffff\n        /* \"#utility.yul\":10307:10313   */\n      dup2\n        /* \"#utility.yul\":10304:10334   */\n      gt\n        /* \"#utility.yul\":10301:10418   */\n      iszero\n      tag_400\n      jumpi\n        /* \"#utility.yul\":10337:10416   */\n      tag_401\n      tag_222\n      jump\t// in\n    tag_401:\n        /* \"#utility.yul\":10301:10418   */\n    tag_400:\n        /* \"#utility.yul\":10442:10505   */\n      tag_402\n        /* \"#utility.yul\":10497:10504   */\n      dup6\n        /* \"#utility.yul\":10488:10494   */\n      dup3\n        /* \"#utility.yul\":10477:10486   */\n      dup7\n        /* \"#utility.yul\":10473:10495   */\n      add\n        /* \"#utility.yul\":10442:10505   */\n      tag_245\n      jump\t// in\n    tag_402:\n        /* \"#utility.yul\":10432:10505   */\n      swap3\n      pop\n        /* \"#utility.yul\":10228:10515   */\n      pop\n        /* \"#utility.yul\":10582:10584   */\n      0x20\n        /* \"#utility.yul\":10571:10580   */\n      dup4\n        /* \"#utility.yul\":10567:10585   */\n      add\n        /* \"#utility.yul\":10554:10586   */\n      calldataload\n        /* \"#utility.yul\":10613:10631   */\n      0xffffffffffffffff\n        /* \"#utility.yul\":10605:10611   */\n      dup2\n        /* \"#utility.yul\":10602:10632   */\n      gt\n        /* \"#utility.yul\":10599:10716   */\n      iszero\n      tag_403\n      jumpi\n        /* \"#utility.yul\":10635:10714   */\n      tag_404\n      tag_222\n      jump\t// in\n    tag_404:\n        /* \"#utility.yul\":10599:10716   */\n    tag_403:\n        /* \"#utility.yul\":10740:10803   */\n      tag_405\n        /* \"#utility.yul\":10795:10802   */\n      dup6\n        /* \"#utility.yul\":10786:10792   */\n      dup3\n        /* \"#utility.yul\":10775:10784   */\n      dup7\n        /* \"#utility.yul\":10771:10793   */\n      add\n        /* \"#utility.yul\":10740:10803   */\n      tag_245\n      jump\t// in\n    tag_405:\n        /* \"#utility.yul\":10730:10803   */\n      swap2\n      pop\n        /* \"#utility.yul\":10525:10813   */\n      pop\n        /* \"#utility.yul\":9986:10820   */\n      swap3\n      pop\n      swap3\n      swap1\n      pop\n      jump\t// out\n        /* \"#utility.yul\":10826:10967   */\n    tag_248:\n        /* \"#utility.yul\":10920:10926   */\n      0x00\n        /* \"#utility.yul\":10954:10959   */\n      dup2\n        /* \"#utility.yul\":10948:10960   */\n      mload\n        /* \"#utility.yul\":10938:10960   */\n      swap1\n      pop\n        /* \"#utility.yul\":10826:10967   */\n      swap2\n      swap1\n      pop\n      jump\t// out\n        /* \"#utility.yul\":10973:11184   */\n    tag_249:\n        /* \"#utility.yul\":11099:11110   */\n      0x00\n        /* \"#utility.yul\":11133:11139   */\n      dup3\n        /* \"#utility.yul\":11128:11131   */\n      dup3\n        /* \"#utility.yul\":11121:11140   */\n      mstore\n        /* \"#utility.yul\":11173:11177   */\n      0x20\n        /* \"#utility.yul\":11168:11171   */\n      dup3\n        /* \"#utility.yul\":11164:11178   */\n      add\n        /* \"#utility.yul\":11149:11178   */\n      swap1\n      pop\n        /* \"#utility.yul\":10973:11184   */\n      swap3\n      swap2\n      pop\n      pop\n      jump\t// out\n        /* \"#utility.yul\":11190:11349   */\n    tag_250:\n        /* \"#utility.yul\":11284:11288   */\n      0x00\n        /* \"#utility.yul\":11307:11310   */\n      dup2\n        /* \"#utility.yul\":11299:11310   */\n      swap1\n      pop\n        /* \"#utility.yul\":11337:11341   */\n      0x20\n        /* \"#utility.yul\":11332:11335   */\n      dup3\n        /* \"#utility.yul\":11328:11342   */\n      add\n        /* \"#utility.yul\":11320:11342   */\n      swap1\n      pop\n        /* \"#utility.yul\":11190:11349   */\n      swap2\n      swap1\n      pop\n      jump\t// out\n        /* \"#utility.yul\":11355:11514   */\n    tag_251:\n        /* \"#utility.yul\":11429:11440   */\n      0x00\n        /* \"#utility.yul\":11463:11469   */\n      dup3\n        /* \"#utility.yul\":11458:11461   */\n      dup3\n        /* \"#utility.yul\":11451:11470   */\n      mstore\n        /* \"#utility.yul\":11503:11507   */\n      0x20\n        /* \"#utility.yul\":11498:11501   */\n      dup3\n        /* \"#utility.yul\":11494:11508   */\n      add\n        /* \"#utility.yul\":11479:11508   */\n      swap1\n      pop\n        /* \"#utility.yul\":11355:11514   */\n      swap3\n      swap2\n      pop\n      pop\n      jump\t// out\n        /* \"#utility.yul\":11520:11877   */\n    tag_252:\n        /* \"#utility.yul\":11598:11601   */\n      0x00\n        /* \"#utility.yul\":11626:11665   */\n      tag_411\n        /* \"#utility.yul\":11659:11664   */\n      dup3\n        /* \"#utility.yul\":11626:11665   */\n      tag_227\n      jump\t// in\n    tag_411:\n        /* \"#utility.yul\":11681:11742   */\n      tag_412\n        /* \"#utility.yul\":11735:11741   */\n      dup2\n        /* \"#utility.yul\":11730:11733   */\n      dup6\n        /* \"#utility.yul\":11681:11742   */\n      tag_251\n      jump\t// in\n    tag_412:\n        /* \"#utility.yul\":11674:11742   */\n      swap4\n      pop\n        /* \"#utility.yul\":11751:11816   */\n      tag_413\n        /* \"#utility.yul\":11809:11815   */\n      dup2\n        /* \"#utility.yul\":11804:11807   */\n      dup6\n        /* \"#utility.yul\":11797:11801   */\n      0x20\n        /* \"#utility.yul\":11790:11795   */\n      dup7\n        /* \"#utility.yul\":11786:11802   */\n      add\n        /* \"#utility.yul\":11751:11816   */\n      tag_229\n      jump\t// in\n    tag_413:\n        /* \"#utility.yul\":11841:11870   */\n      tag_414\n        /* \"#utility.yul\":11863:11869   */\n      dup2\n        /* \"#utility.yul\":11841:11870   */\n      tag_230\n      jump\t// in\n    tag_414:\n        /* \"#utility.yul\":11836:11839   */\n      dup5\n        /* \"#utility.yul\":11832:11871   */\n      add\n        /* \"#utility.yul\":11825:11871   */\n      swap2\n      pop\n        /* \"#utility.yul\":11602:11877   */\n      pop\n        /* \"#utility.yul\":11520:11877   */\n      swap3\n      swap2\n      pop\n      pop\n      jump\t// out\n        /* \"#utility.yul\":11933:12595   */\n    tag_253:\n        /* \"#utility.yul\":12060:12064   */\n      0x60\n        /* \"#utility.yul\":12055:12058   */\n      dup3\n        /* \"#utility.yul\":12051:12065   */\n      add\n        /* \"#utility.yul\":12147:12151   */\n      0x00\n        /* \"#utility.yul\":12140:12145   */\n      dup3\n        /* \"#utility.yul\":12136:12152   */\n      add\n        /* \"#utility.yul\":12130:12153   */\n      mload\n        /* \"#utility.yul\":12166:12229   */\n      tag_416\n        /* \"#utility.yul\":12223:12227   */\n      0x00\n        /* \"#utility.yul\":12218:12221   */\n      dup6\n        /* \"#utility.yul\":12214:12228   */\n      add\n        /* \"#utility.yul\":12200:12212   */\n      dup3\n        /* \"#utility.yul\":12166:12229   */\n      tag_233\n      jump\t// in\n    tag_416:\n        /* \"#utility.yul\":12075:12239   */\n      pop\n        /* \"#utility.yul\":12322:12326   */\n      0x20\n        /* \"#utility.yul\":12315:12320   */\n      dup3\n        /* \"#utility.yul\":12311:12327   */\n      add\n        /* \"#utility.yul\":12305:12328   */\n      mload\n        /* \"#utility.yul\":12341:12404   */\n      tag_417\n        /* \"#utility.yul\":12398:12402   */\n      0x20\n        /* \"#utility.yul\":12393:12396   */\n      dup6\n        /* \"#utility.yul\":12389:12403   */\n      add\n        /* \"#utility.yul\":12375:12387   */\n      dup3\n        /* \"#utility.yul\":12341:12404   */\n      tag_233\n      jump\t// in\n    tag_417:\n        /* \"#utility.yul\":12249:12414   */\n      pop\n        /* \"#utility.yul\":12496:12500   */\n      0x40\n        /* \"#utility.yul\":12489:12494   */\n      dup3\n        /* \"#utility.yul\":12485:12501   */\n      add\n        /* \"#utility.yul\":12479:12502   */\n      mload\n        /* \"#utility.yul\":12515:12578   */\n      tag_418\n        /* \"#utility.yul\":12572:12576   */\n      0x40\n        /* \"#utility.yul\":12567:12570   */\n      dup6\n        /* \"#utility.yul\":12563:12577   */\n      add\n        /* \"#utility.yul\":12549:12561   */\n      dup3\n        /* \"#utility.yul\":12515:12578   */\n      tag_233\n      jump\t// in\n    tag_418:\n        /* \"#utility.yul\":12424:12588   */\n      pop\n        /* \"#utility.yul\":12029:12595   */\n      pop\n        /* \"#utility.yul\":11933:12595   */\n      pop\n      pop\n      jump\t// out\n        /* \"#utility.yul\":12601:12709   */\n    tag_254:\n        /* \"#utility.yul\":12678:12702   */\n      tag_420\n        /* \"#utility.yul\":12696:12701   */\n      dup2\n        /* \"#utility.yul\":12678:12702   */\n      tag_224\n      jump\t// in\n    tag_420:\n        /* \"#utility.yul\":12673:12676   */\n      dup3\n        /* \"#utility.yul\":12666:12703   */\n      mstore\n        /* \"#utility.yul\":12601:12709   */\n      pop\n      pop\n      jump\t// out\n        /* \"#utility.yul\":12715:12814   */\n    tag_255:\n        /* \"#utility.yul\":12786:12807   */\n      tag_422\n        /* \"#utility.yul\":12801:12806   */\n      dup2\n        /* \"#utility.yul\":12786:12807   */\n      tag_236\n      jump\t// in\n    tag_422:\n        /* \"#utility.yul\":12781:12784   */\n      dup3\n        /* \"#utility.yul\":12774:12808   */\n      mstore\n        /* \"#utility.yul\":12715:12814   */\n      pop\n      pop\n      jump\t// out\n        /* \"#utility.yul\":12884:14886   */\n    tag_256:\n        /* \"#utility.yul\":12997:13000   */\n      0x00\n        /* \"#utility.yul\":13033:13039   */\n      0x0140\n        /* \"#utility.yul\":13028:13031   */\n      dup4\n        /* \"#utility.yul\":13024:13040   */\n      add\n        /* \"#utility.yul\":13123:13127   */\n      0x00\n        /* \"#utility.yul\":13116:13121   */\n      dup4\n        /* \"#utility.yul\":13112:13128   */\n      add\n        /* \"#utility.yul\":13106:13129   */\n      mload\n        /* \"#utility.yul\":13176:13179   */\n      dup5\n        /* \"#utility.yul\":13170:13174   */\n      dup3\n        /* \"#utility.yul\":13166:13180   */\n      sub\n        /* \"#utility.yul\":13159:13163   */\n      0x00\n        /* \"#utility.yul\":13154:13157   */\n      dup7\n        /* \"#utility.yul\":13150:13164   */\n      add\n        /* \"#utility.yul\":13143:13181   */\n      mstore\n        /* \"#utility.yul\":13202:13275   */\n      tag_424\n        /* \"#utility.yul\":13270:13274   */\n      dup3\n        /* \"#utility.yul\":13256:13268   */\n      dup3\n        /* \"#utility.yul\":13202:13275   */\n      tag_252\n      jump\t// in\n    tag_424:\n        /* \"#utility.yul\":13194:13275   */\n      swap2\n      pop\n        /* \"#utility.yul\":13050:13286   */\n      pop\n        /* \"#utility.yul\":13369:13373   */\n      0x20\n        /* \"#utility.yul\":13362:13367   */\n      dup4\n        /* \"#utility.yul\":13358:13374   */\n      add\n        /* \"#utility.yul\":13352:13375   */\n      mload\n        /* \"#utility.yul\":13422:13425   */\n      dup5\n        /* \"#utility.yul\":13416:13420   */\n      dup3\n        /* \"#utility.yul\":13412:13426   */\n      sub\n        /* \"#utility.yul\":13405:13409   */\n      0x20\n        /* \"#utility.yul\":13400:13403   */\n      dup7\n        /* \"#utility.yul\":13396:13410   */\n      add\n        /* \"#utility.yul\":13389:13427   */\n      mstore\n        /* \"#utility.yul\":13448:13521   */\n      tag_425\n        /* \"#utility.yul\":13516:13520   */\n      dup3\n        /* \"#utility.yul\":13502:13514   */\n      dup3\n        /* \"#utility.yul\":13448:13521   */\n      tag_252\n      jump\t// in\n    tag_425:\n        /* \"#utility.yul\":13440:13521   */\n      swap2\n      pop\n        /* \"#utility.yul\":13296:13532   */\n      pop\n        /* \"#utility.yul\":13615:13619   */\n      0x40\n        /* \"#utility.yul\":13608:13613   */\n      dup4\n        /* \"#utility.yul\":13604:13620   */\n      add\n        /* \"#utility.yul\":13598:13621   */\n      mload\n        /* \"#utility.yul\":13668:13671   */\n      dup5\n        /* \"#utility.yul\":13662:13666   */\n      dup3\n        /* \"#utility.yul\":13658:13672   */\n      sub\n        /* \"#utility.yul\":13651:13655   */\n      0x40\n        /* \"#utility.yul\":13646:13649   */\n      dup7\n        /* \"#utility.yul\":13642:13656   */\n      add\n        /* \"#utility.yul\":13635:13673   */\n      mstore\n        /* \"#utility.yul\":13694:13767   */\n      tag_426\n        /* \"#utility.yul\":13762:13766   */\n      dup3\n        /* \"#utility.yul\":13748:13760   */\n      dup3\n        /* \"#utility.yul\":13694:13767   */\n      tag_252\n      jump\t// in\n    tag_426:\n        /* \"#utility.yul\":13686:13767   */\n      swap2\n      pop\n        /* \"#utility.yul\":13542:13778   */\n      pop\n        /* \"#utility.yul\":13864:13868   */\n      0x60\n        /* \"#utility.yul\":13857:13862   */\n      dup4\n        /* \"#utility.yul\":13853:13869   */\n      add\n        /* \"#utility.yul\":13847:13870   */\n      mload\n        /* \"#utility.yul\":13917:13920   */\n      dup5\n        /* \"#utility.yul\":13911:13915   */\n      dup3\n        /* \"#utility.yul\":13907:13921   */\n      sub\n        /* \"#utility.yul\":13900:13904   */\n      0x60\n        /* \"#utility.yul\":13895:13898   */\n      dup7\n        /* \"#utility.yul\":13891:13905   */\n      add\n        /* \"#utility.yul\":13884:13922   */\n      mstore\n        /* \"#utility.yul\":13943:14016   */\n      tag_427\n        /* \"#utility.yul\":14011:14015   */\n      dup3\n        /* \"#utility.yul\":13997:14009   */\n      dup3\n        /* \"#utility.yul\":13943:14016   */\n      tag_252\n      jump\t// in\n    tag_427:\n        /* \"#utility.yul\":13935:14016   */\n      swap2\n      pop\n        /* \"#utility.yul\":13788:14027   */\n      pop\n        /* \"#utility.yul\":14113:14117   */\n      0x80\n        /* \"#utility.yul\":14106:14111   */\n      dup4\n        /* \"#utility.yul\":14102:14118   */\n      add\n        /* \"#utility.yul\":14096:14119   */\n      mload\n        /* \"#utility.yul\":14166:14169   */\n      dup5\n        /* \"#utility.yul\":14160:14164   */\n      dup3\n        /* \"#utility.yul\":14156:14170   */\n      sub\n        /* \"#utility.yul\":14149:14153   */\n      0x80\n        /* \"#utility.yul\":14144:14147   */\n      dup7\n        /* \"#utility.yul\":14140:14154   */\n      add\n        /* \"#utility.yul\":14133:14171   */\n      mstore\n        /* \"#utility.yul\":14192:14265   */\n      tag_428\n        /* \"#utility.yul\":14260:14264   */\n      dup3\n        /* \"#utility.yul\":14246:14258   */\n      dup3\n        /* \"#utility.yul\":14192:14265   */\n      tag_252\n      jump\t// in\n    tag_428:\n        /* \"#utility.yul\":14184:14265   */\n      swap2\n      pop\n        /* \"#utility.yul\":14037:14276   */\n      pop\n        /* \"#utility.yul\":14357:14361   */\n      0xa0\n        /* \"#utility.yul\":14350:14355   */\n      dup4\n        /* \"#utility.yul\":14346:14362   */\n      add\n        /* \"#utility.yul\":14340:14363   */\n      mload\n        /* \"#utility.yul\":14376:14479   */\n      tag_429\n        /* \"#utility.yul\":14473:14477   */\n      0xa0\n        /* \"#utility.yul\":14468:14471   */\n      dup7\n        /* \"#utility.yul\":14464:14478   */\n      add\n        /* \"#utility.yul\":14450:14462   */\n      dup3\n        /* \"#utility.yul\":14376:14479   */\n      tag_253\n      jump\t// in\n    tag_429:\n        /* \"#utility.yul\":14286:14489   */\n      pop\n        /* \"#utility.yul\":14580:14584   */\n      0xc0\n        /* \"#utility.yul\":14573:14578   */\n      dup4\n        /* \"#utility.yul\":14569:14585   */\n      add\n        /* \"#utility.yul\":14563:14586   */\n      mload\n        /* \"#utility.yul\":14599:14664   */\n      tag_430\n        /* \"#utility.yul\":14656:14662   */\n      0x0100\n        /* \"#utility.yul\":14651:14654   */\n      dup7\n        /* \"#utility.yul\":14647:14663   */\n      add\n        /* \"#utility.yul\":14633:14645   */\n      dup3\n        /* \"#utility.yul\":14599:14664   */\n      tag_254\n      jump\t// in\n    tag_430:\n        /* \"#utility.yul\":14499:14674   */\n      pop\n        /* \"#utility.yul\":14771:14775   */\n      0xe0\n        /* \"#utility.yul\":14764:14769   */\n      dup4\n        /* \"#utility.yul\":14760:14776   */\n      add\n        /* \"#utility.yul\":14754:14777   */\n      mload\n        /* \"#utility.yul\":14790:14849   */\n      tag_431\n        /* \"#utility.yul\":14841:14847   */\n      0x0120\n        /* \"#utility.yul\":14836:14839   */\n      dup7\n        /* \"#utility.yul\":14832:14848   */\n      add\n        /* \"#utility.yul\":14818:14830   */\n      dup3\n        /* \"#utility.yul\":14790:14849   */\n      tag_255\n      jump\t// in\n    tag_431:\n        /* \"#utility.yul\":14684:14859   */\n      pop\n        /* \"#utility.yul\":14876:14880   */\n      dup1\n        /* \"#utility.yul\":14869:14880   */\n      swap2\n      pop\n        /* \"#utility.yul\":13002:14886   */\n      pop\n        /* \"#utility.yul\":12884:14886   */\n      swap3\n      swap2\n      pop\n      pop\n      jump\t// out\n        /* \"#utility.yul\":14892:15156   */\n    tag_257:\n        /* \"#utility.yul\":15015:15025   */\n      0x00\n        /* \"#utility.yul\":15050:15150   */\n      tag_433\n        /* \"#utility.yul\":15146:15149   */\n      dup4\n        /* \"#utility.yul\":15138:15144   */\n      dup4\n        /* \"#utility.yul\":15050:15150   */\n      tag_256\n      jump\t// in\n    tag_433:\n        /* \"#utility.yul\":15036:15150   */\n      swap1\n      pop\n        /* \"#utility.yul\":14892:15156   */\n      swap3\n      swap2\n      pop\n      pop\n      jump\t// out\n        /* \"#utility.yul\":15162:15302   */\n    tag_258:\n        /* \"#utility.yul\":15259:15263   */\n      0x00\n        /* \"#utility.yul\":15291:15295   */\n      0x20\n        /* \"#utility.yul\":15286:15289   */\n      dup3\n        /* \"#utility.yul\":15282:15296   */\n      add\n        /* \"#utility.yul\":15274:15296   */\n      swap1\n      pop\n        /* \"#utility.yul\":15162:15302   */\n      swap2\n      swap1\n      pop\n      jump\t// out\n        /* \"#utility.yul\":15376:16503   */\n    tag_259:\n        /* \"#utility.yul\":15549:15552   */\n      0x00\n        /* \"#utility.yul\":15578:15659   */\n      tag_436\n        /* \"#utility.yul\":15653:15658   */\n      dup3\n        /* \"#utility.yul\":15578:15659   */\n      tag_248\n      jump\t// in\n    tag_436:\n        /* \"#utility.yul\":15675:15788   */\n      tag_437\n        /* \"#utility.yul\":15781:15787   */\n      dup2\n        /* \"#utility.yul\":15776:15779   */\n      dup6\n        /* \"#utility.yul\":15675:15788   */\n      tag_249\n      jump\t// in\n    tag_437:\n        /* \"#utility.yul\":15668:15788   */\n      swap4\n      pop\n        /* \"#utility.yul\":15814:15817   */\n      dup4\n        /* \"#utility.yul\":15859:15863   */\n      0x20\n        /* \"#utility.yul\":15851:15857   */\n      dup3\n        /* \"#utility.yul\":15847:15864   */\n      mul\n        /* \"#utility.yul\":15842:15845   */\n      dup6\n        /* \"#utility.yul\":15838:15865   */\n      add\n        /* \"#utility.yul\":15889:15972   */\n      tag_438\n        /* \"#utility.yul\":15966:15971   */\n      dup6\n        /* \"#utility.yul\":15889:15972   */\n      tag_250\n      jump\t// in\n    tag_438:\n        /* \"#utility.yul\":15995:16002   */\n      dup1\n        /* \"#utility.yul\":16026:16027   */\n      0x00\n        /* \"#utility.yul\":16011:16458   */\n    tag_439:\n        /* \"#utility.yul\":16036:16042   */\n      dup6\n        /* \"#utility.yul\":16033:16034   */\n      dup2\n        /* \"#utility.yul\":16030:16043   */\n      lt\n        /* \"#utility.yul\":16011:16458   */\n      iszero\n      tag_441\n      jumpi\n        /* \"#utility.yul\":16107:16116   */\n      dup5\n        /* \"#utility.yul\":16101:16105   */\n      dup5\n        /* \"#utility.yul\":16097:16117   */\n      sub\n        /* \"#utility.yul\":16092:16095   */\n      dup10\n        /* \"#utility.yul\":16085:16118   */\n      mstore\n        /* \"#utility.yul\":16158:16164   */\n      dup2\n        /* \"#utility.yul\":16152:16165   */\n      mload\n        /* \"#utility.yul\":16186:16304   */\n      tag_442\n        /* \"#utility.yul\":16299:16303   */\n      dup6\n        /* \"#utility.yul\":16284:16297   */\n      dup3\n        /* \"#utility.yul\":16186:16304   */\n      tag_257\n      jump\t// in\n    tag_442:\n        /* \"#utility.yul\":16178:16304   */\n      swap5\n      pop\n        /* \"#utility.yul\":16327:16414   */\n      tag_443\n        /* \"#utility.yul\":16407:16413   */\n      dup4\n        /* \"#utility.yul\":16327:16414   */\n      tag_258\n      jump\t// in\n    tag_443:\n        /* \"#utility.yul\":16317:16414   */\n      swap3\n      pop\n        /* \"#utility.yul\":16443:16447   */\n      0x20\n        /* \"#utility.yul\":16438:16441   */\n      dup11\n        /* \"#utility.yul\":16434:16448   */\n      add\n        /* \"#utility.yul\":16427:16448   */\n      swap10\n      pop\n        /* \"#utility.yul\":16071:16458   */\n      pop\n        /* \"#utility.yul\":16058:16059   */\n      0x01\n        /* \"#utility.yul\":16055:16056   */\n      dup2\n        /* \"#utility.yul\":16051:16060   */\n      add\n        /* \"#utility.yul\":16046:16060   */\n      swap1\n      pop\n        /* \"#utility.yul\":16011:16458   */\n      jump(tag_439)\n    tag_441:\n        /* \"#utility.yul\":16015:16029   */\n      pop\n        /* \"#utility.yul\":16474:16478   */\n      dup3\n        /* \"#utility.yul\":16467:16478   */\n      swap8\n      pop\n        /* \"#utility.yul\":16494:16497   */\n      dup8\n        /* \"#utility.yul\":16487:16497   */\n      swap6\n      pop\n        /* \"#utility.yul\":15554:16503   */\n      pop\n      pop\n      pop\n      pop\n      pop\n        /* \"#utility.yul\":15376:16503   */\n      swap3\n      swap2\n      pop\n      pop\n      jump\t// out\n        /* \"#utility.yul\":16509:16990   */\n    tag_41:\n        /* \"#utility.yul\":16706:16710   */\n      0x00\n        /* \"#utility.yul\":16744:16746   */\n      0x20\n        /* \"#utility.yul\":16733:16742   */\n      dup3\n        /* \"#utility.yul\":16729:16747   */\n      add\n        /* \"#utility.yul\":16721:16747   */\n      swap1\n      pop\n        /* \"#utility.yul\":16793:16802   */\n      dup2\n        /* \"#utility.yul\":16787:16791   */\n      dup2\n        /* \"#utility.yul\":16783:16803   */\n      sub\n        /* \"#utility.yul\":16779:16780   */\n      0x00\n        /* \"#utility.yul\":16768:16777   */\n      dup4\n        /* \"#utility.yul\":16764:16781   */\n      add\n        /* \"#utility.yul\":16757:16804   */\n      mstore\n        /* \"#utility.yul\":16821:16983   */\n      tag_445\n        /* \"#utility.yul\":16978:16982   */\n      dup2\n        /* \"#utility.yul\":16969:16975   */\n      dup5\n        /* \"#utility.yul\":16821:16983   */\n      tag_259\n      jump\t// in\n    tag_445:\n        /* \"#utility.yul\":16813:16983   */\n      swap1\n      pop\n        /* \"#utility.yul\":16509:16990   */\n      swap3\n      swap2\n      pop\n      pop\n      jump\t// out\n        /* \"#utility.yul\":16996:17325   */\n    tag_44:\n        /* \"#utility.yul\":17055:17061   */\n      0x00\n        /* \"#utility.yul\":17104:17106   */\n      0x20\n        /* \"#utility.yul\":17092:17101   */\n      dup3\n        /* \"#utility.yul\":17083:17090   */\n      dup5\n        /* \"#utility.yul\":17079:17102   */\n      sub\n        /* \"#utility.yul\":17075:17107   */\n      slt\n        /* \"#utility.yul\":17072:17191   */\n      iszero\n      tag_447\n      jumpi\n        /* \"#utility.yul\":17110:17189   */\n      tag_448\n      tag_221\n      jump\t// in\n    tag_448:\n        /* \"#utility.yul\":17072:17191   */\n    tag_447:\n        /* \"#utility.yul\":17230:17231   */\n      0x00\n        /* \"#utility.yul\":17255:17308   */\n      tag_449\n        /* \"#utility.yul\":17300:17307   */\n      dup5\n        /* \"#utility.yul\":17291:17297   */\n      dup3\n        /* \"#utility.yul\":17280:17289   */\n      dup6\n        /* \"#utility.yul\":17276:17298   */\n      add\n        /* \"#utility.yul\":17255:17308   */\n      tag_247\n      jump\t// in\n    tag_449:\n        /* \"#utility.yul\":17245:17308   */\n      swap2\n      pop\n        /* \"#utility.yul\":17201:17318   */\n      pop\n        /* \"#utility.yul\":16996:17325   */\n      swap3\n      swap2\n      pop\n      pop\n      jump\t// out\n        /* \"#utility.yul\":17331:17553   */\n    tag_47:\n        /* \"#utility.yul\":17424:17428   */\n      0x00\n        /* \"#utility.yul\":17462:17464   */\n      0x20\n        /* \"#utility.yul\":17451:17460   */\n      dup3\n        /* \"#utility.yul\":17447:17465   */\n      add\n        /* \"#utility.yul\":17439:17465   */\n      swap1\n      pop\n        /* \"#utility.yul\":17475:17546   */\n      tag_451\n        /* \"#utility.yul\":17543:17544   */\n      0x00\n        /* \"#utility.yul\":17532:17541   */\n      dup4\n        /* \"#utility.yul\":17528:17545   */\n      add\n        /* \"#utility.yul\":17519:17525   */\n      dup5\n        /* \"#utility.yul\":17475:17546   */\n      tag_235\n      jump\t// in\n    tag_451:\n        /* \"#utility.yul\":17331:17553   */\n      swap3\n      swap2\n      pop\n      pop\n      jump\t// out\n        /* \"#utility.yul\":17623:19635   */\n    tag_260:\n        /* \"#utility.yul\":17746:17749   */\n      0x00\n        /* \"#utility.yul\":17782:17788   */\n      0x0140\n        /* \"#utility.yul\":17777:17780   */\n      dup4\n        /* \"#utility.yul\":17773:17789   */\n      add\n        /* \"#utility.yul\":17872:17876   */\n      0x00\n        /* \"#utility.yul\":17865:17870   */\n      dup4\n        /* \"#utility.yul\":17861:17877   */\n      add\n        /* \"#utility.yul\":17855:17878   */\n      mload\n        /* \"#utility.yul\":17925:17928   */\n      dup5\n        /* \"#utility.yul\":17919:17923   */\n      dup3\n        /* \"#utility.yul\":17915:17929   */\n      sub\n        /* \"#utility.yul\":17908:17912   */\n      0x00\n        /* \"#utility.yul\":17903:17906   */\n      dup7\n        /* \"#utility.yul\":17899:17913   */\n      add\n        /* \"#utility.yul\":17892:17930   */\n      mstore\n        /* \"#utility.yul\":17951:18024   */\n      tag_453\n        /* \"#utility.yul\":18019:18023   */\n      dup3\n        /* \"#utility.yul\":18005:18017   */\n      dup3\n        /* \"#utility.yul\":17951:18024   */\n      tag_252\n      jump\t// in\n    tag_453:\n        /* \"#utility.yul\":17943:18024   */\n      swap2\n      pop\n        /* \"#utility.yul\":17799:18035   */\n      pop\n        /* \"#utility.yul\":18118:18122   */\n      0x20\n        /* \"#utility.yul\":18111:18116   */\n      dup4\n        /* \"#utility.yul\":18107:18123   */\n      add\n        /* \"#utility.yul\":18101:18124   */\n      mload\n        /* \"#utility.yul\":18171:18174   */\n      dup5\n        /* \"#utility.yul\":18165:18169   */\n      dup3\n        /* \"#utility.yul\":18161:18175   */\n      sub\n        /* \"#utility.yul\":18154:18158   */\n      0x20\n        /* \"#utility.yul\":18149:18152   */\n      dup7\n        /* \"#utility.yul\":18145:18159   */\n      add\n        /* \"#utility.yul\":18138:18176   */\n      mstore\n        /* \"#utility.yul\":18197:18270   */\n      tag_454\n        /* \"#utility.yul\":18265:18269   */\n      dup3\n        /* \"#utility.yul\":18251:18263   */\n      dup3\n        /* \"#utility.yul\":18197:18270   */\n      tag_252\n      jump\t// in\n    tag_454:\n        /* \"#utility.yul\":18189:18270   */\n      swap2\n      pop\n        /* \"#utility.yul\":18045:18281   */\n      pop\n        /* \"#utility.yul\":18364:18368   */\n      0x40\n        /* \"#utility.yul\":18357:18362   */\n      dup4\n        /* \"#utility.yul\":18353:18369   */\n      add\n        /* \"#utility.yul\":18347:18370   */\n      mload\n        /* \"#utility.yul\":18417:18420   */\n      dup5\n        /* \"#utility.yul\":18411:18415   */\n      dup3\n        /* \"#utility.yul\":18407:18421   */\n      sub\n        /* \"#utility.yul\":18400:18404   */\n      0x40\n        /* \"#utility.yul\":18395:18398   */\n      dup7\n        /* \"#utility.yul\":18391:18405   */\n      add\n        /* \"#utility.yul\":18384:18422   */\n      mstore\n        /* \"#utility.yul\":18443:18516   */\n      tag_455\n        /* \"#utility.yul\":18511:18515   */\n      dup3\n        /* \"#utility.yul\":18497:18509   */\n      dup3\n        /* \"#utility.yul\":18443:18516   */\n      tag_252\n      jump\t// in\n    tag_455:\n        /* \"#utility.yul\":18435:18516   */\n      swap2\n      pop\n        /* \"#utility.yul\":18291:18527   */\n      pop\n        /* \"#utility.yul\":18613:18617   */\n      0x60\n        /* \"#utility.yul\":18606:18611   */\n      dup4\n        /* \"#utility.yul\":18602:18618   */\n      add\n        /* \"#utility.yul\":18596:18619   */\n      mload\n        /* \"#utility.yul\":18666:18669   */\n      dup5\n        /* \"#utility.yul\":18660:18664   */\n      dup3\n        /* \"#utility.yul\":18656:18670   */\n      sub\n        /* \"#utility.yul\":18649:18653   */\n      0x60\n        /* \"#utility.yul\":18644:18647   */\n      dup7\n        /* \"#utility.yul\":18640:18654   */\n      add\n        /* \"#utility.yul\":18633:18671   */\n      mstore\n        /* \"#utility.yul\":18692:18765   */\n      tag_456\n        /* \"#utility.yul\":18760:18764   */\n      dup3\n        /* \"#utility.yul\":18746:18758   */\n      dup3\n        /* \"#utility.yul\":18692:18765   */\n      tag_252\n      jump\t// in\n    tag_456:\n        /* \"#utility.yul\":18684:18765   */\n      swap2\n      pop\n        /* \"#utility.yul\":18537:18776   */\n      pop\n        /* \"#utility.yul\":18862:18866   */\n      0x80\n        /* \"#utility.yul\":18855:18860   */\n      dup4\n        /* \"#utility.yul\":18851:18867   */\n      add\n        /* \"#utility.yul\":18845:18868   */\n      mload\n        /* \"#utility.yul\":18915:18918   */\n      dup5\n        /* \"#utility.yul\":18909:18913   */\n      dup3\n        /* \"#utility.yul\":18905:18919   */\n      sub\n        /* \"#utility.yul\":18898:18902   */\n      0x80\n        /* \"#utility.yul\":18893:18896   */\n      dup7\n        /* \"#utility.yul\":18889:18903   */\n      add\n        /* \"#utility.yul\":18882:18920   */\n      mstore\n        /* \"#utility.yul\":18941:19014   */\n      tag_457\n        /* \"#utility.yul\":19009:19013   */\n      dup3\n        /* \"#utility.yul\":18995:19007   */\n      dup3\n        /* \"#utility.yul\":18941:19014   */\n      tag_252\n      jump\t// in\n    tag_457:\n        /* \"#utility.yul\":18933:19014   */\n      swap2\n      pop\n        /* \"#utility.yul\":18786:19025   */\n      pop\n        /* \"#utility.yul\":19106:19110   */\n      0xa0\n        /* \"#utility.yul\":19099:19104   */\n      dup4\n        /* \"#utility.yul\":19095:19111   */\n      add\n        /* \"#utility.yul\":19089:19112   */\n      mload\n        /* \"#utility.yul\":19125:19228   */\n      tag_458\n        /* \"#utility.yul\":19222:19226   */\n      0xa0\n        /* \"#utility.yul\":19217:19220   */\n      dup7\n        /* \"#utility.yul\":19213:19227   */\n      add\n        /* \"#utility.yul\":19199:19211   */\n      dup3\n        /* \"#utility.yul\":19125:19228   */\n      tag_253\n      jump\t// in\n    tag_458:\n        /* \"#utility.yul\":19035:19238   */\n      pop\n        /* \"#utility.yul\":19329:19333   */\n      0xc0\n        /* \"#utility.yul\":19322:19327   */\n      dup4\n        /* \"#utility.yul\":19318:19334   */\n      add\n        /* \"#utility.yul\":19312:19335   */\n      mload\n        /* \"#utility.yul\":19348:19413   */\n      tag_459\n        /* \"#utility.yul\":19405:19411   */\n      0x0100\n        /* \"#utility.yul\":19400:19403   */\n      dup7\n        /* \"#utility.yul\":19396:19412   */\n      add\n        /* \"#utility.yul\":19382:19394   */\n      dup3\n        /* \"#utility.yul\":19348:19413   */\n      tag_254\n      jump\t// in\n    tag_459:\n        /* \"#utility.yul\":19248:19423   */\n      pop\n        /* \"#utility.yul\":19520:19524   */\n      0xe0\n        /* \"#utility.yul\":19513:19518   */\n      dup4\n        /* \"#utility.yul\":19509:19525   */\n      add\n        /* \"#utility.yul\":19503:19526   */\n      mload\n        /* \"#utility.yul\":19539:19598   */\n      tag_460\n        /* \"#utility.yul\":19590:19596   */\n      0x0120\n        /* \"#utility.yul\":19585:19588   */\n      dup7\n        /* \"#utility.yul\":19581:19597   */\n      add\n        /* \"#utility.yul\":19567:19579   */\n      dup3\n        /* \"#utility.yul\":19539:19598   */\n      tag_255\n      jump\t// in\n    tag_460:\n        /* \"#utility.yul\":19433:19608   */\n      pop\n        /* \"#utility.yul\":19625:19629   */\n      dup1\n        /* \"#utility.yul\":19618:19629   */\n      swap2\n      pop\n        /* \"#utility.yul\":17751:19635   */\n      pop\n        /* \"#utility.yul\":17623:19635   */\n      swap3\n      swap2\n      pop\n      pop\n      jump\t// out\n        /* \"#utility.yul\":19641:20022   */\n    tag_52:\n        /* \"#utility.yul\":19788:19792   */\n      0x00\n        /* \"#utility.yul\":19826:19828   */\n      0x20\n        /* \"#utility.yul\":19815:19824   */\n      dup3\n        /* \"#utility.yul\":19811:19829   */\n      add\n        /* \"#utility.yul\":19803:19829   */\n      swap1\n      pop\n        /* \"#utility.yul\":19875:19884   */\n      dup2\n        /* \"#utility.yul\":19869:19873   */\n      dup2\n        /* \"#utility.yul\":19865:19885   */\n      sub\n        /* \"#utility.yul\":19861:19862   */\n      0x00\n        /* \"#utility.yul\":19850:19859   */\n      dup4\n        /* \"#utility.yul\":19846:19863   */\n      add\n        /* \"#utility.yul\":19839:19886   */\n      mstore\n        /* \"#utility.yul\":19903:20015   */\n      tag_462\n        /* \"#utility.yul\":20010:20014   */\n      dup2\n        /* \"#utility.yul\":20001:20007   */\n      dup5\n        /* \"#utility.yul\":19903:20015   */\n      tag_260\n      jump\t// in\n    tag_462:\n        /* \"#utility.yul\":19895:20015   */\n      swap1\n      pop\n        /* \"#utility.yul\":19641:20022   */\n      swap3\n      swap2\n      pop\n      pop\n      jump\t// out\n        /* \"#utility.yul\":20028:20146   */\n    tag_261:\n        /* \"#utility.yul\":20115:20139   */\n      tag_464\n        /* \"#utility.yul\":20133:20138   */\n      dup2\n        /* \"#utility.yul\":20115:20139   */\n      tag_232\n      jump\t// in\n    tag_464:\n        /* \"#utility.yul\":20110:20113   */\n      dup3\n        /* \"#utility.yul\":20103:20140   */\n      mstore\n        /* \"#utility.yul\":20028:20146   */\n      pop\n      pop\n      jump\t// out\n        /* \"#utility.yul\":20152:20332   */\n    tag_262:\n        /* \"#utility.yul\":20200:20277   */\n      0x4e487b7100000000000000000000000000000000000000000000000000000000\n        /* \"#utility.yul\":20197:20198   */\n      0x00\n        /* \"#utility.yul\":20190:20278   */\n      mstore\n        /* \"#utility.yul\":20297:20301   */\n      0x21\n        /* \"#utility.yul\":20294:20295   */\n      0x04\n        /* \"#utility.yul\":20287:20302   */\n      mstore\n        /* \"#utility.yul\":20321:20325   */\n      0x24\n        /* \"#utility.yul\":20318:20319   */\n      0x00\n        /* \"#utility.yul\":20311:20326   */\n      revert\n        /* \"#utility.yul\":20338:20452   */\n    tag_263:\n        /* \"#utility.yul\":20420:20421   */\n      0x03\n        /* \"#utility.yul\":20413:20418   */\n      dup2\n        /* \"#utility.yul\":20410:20422   */\n      lt\n        /* \"#utility.yul\":20400:20446   */\n      tag_467\n      jumpi\n        /* \"#utility.yul\":20426:20444   */\n      tag_468\n      tag_262\n      jump\t// in\n    tag_468:\n        /* \"#utility.yul\":20400:20446   */\n    tag_467:\n        /* \"#utility.yul\":20338:20452   */\n      pop\n      jump\t// out\n        /* \"#utility.yul\":20458:20587   */\n    tag_264:\n        /* \"#utility.yul\":20504:20511   */\n      0x00\n        /* \"#utility.yul\":20533:20538   */\n      dup2\n        /* \"#utility.yul\":20522:20538   */\n      swap1\n      pop\n        /* \"#utility.yul\":20539:20581   */\n      tag_470\n        /* \"#utility.yul\":20575:20580   */\n      dup3\n        /* \"#utility.yul\":20539:20581   */\n      tag_263\n      jump\t// in\n    tag_470:\n        /* \"#utility.yul\":20458:20587   */\n      swap2\n      swap1\n      pop\n      jump\t// out\n        /* \"#utility.yul\":20593:20722   */\n    tag_265:\n        /* \"#utility.yul\":20650:20659   */\n      0x00\n        /* \"#utility.yul\":20683:20716   */\n      tag_472\n        /* \"#utility.yul\":20710:20715   */\n      dup3\n        /* \"#utility.yul\":20683:20716   */\n      tag_264\n      jump\t// in\n    tag_472:\n        /* \"#utility.yul\":20670:20716   */\n      swap1\n      pop\n        /* \"#utility.yul\":20593:20722   */\n      swap2\n      swap1\n      pop\n      jump\t// out\n        /* \"#utility.yul\":20728:20873   */\n    tag_266:\n        /* \"#utility.yul\":20822:20866   */\n      tag_474\n        /* \"#utility.yul\":20860:20865   */\n      dup2\n        /* \"#utility.yul\":20822:20866   */\n      tag_265\n      jump\t// in\n    tag_474:\n        /* \"#utility.yul\":20817:20820   */\n      dup3\n        /* \"#utility.yul\":20810:20867   */\n      mstore\n        /* \"#utility.yul\":20728:20873   */\n      pop\n      pop\n      jump\t// out\n        /* \"#utility.yul\":20879:21648   */\n    tag_57:\n        /* \"#utility.yul\":21111:21115   */\n      0x00\n        /* \"#utility.yul\":21149:21152   */\n      0xa0\n        /* \"#utility.yul\":21138:21147   */\n      dup3\n        /* \"#utility.yul\":21134:21153   */\n      add\n        /* \"#utility.yul\":21126:21153   */\n      swap1\n      pop\n        /* \"#utility.yul\":21163:21234   */\n      tag_476\n        /* \"#utility.yul\":21231:21232   */\n      0x00\n        /* \"#utility.yul\":21220:21229   */\n      dup4\n        /* \"#utility.yul\":21216:21233   */\n      add\n        /* \"#utility.yul\":21207:21213   */\n      dup9\n        /* \"#utility.yul\":21163:21234   */\n      tag_261\n      jump\t// in\n    tag_476:\n        /* \"#utility.yul\":21244:21316   */\n      tag_477\n        /* \"#utility.yul\":21312:21314   */\n      0x20\n        /* \"#utility.yul\":21301:21310   */\n      dup4\n        /* \"#utility.yul\":21297:21315   */\n      add\n        /* \"#utility.yul\":21288:21294   */\n      dup8\n        /* \"#utility.yul\":21244:21316   */\n      tag_261\n      jump\t// in\n    tag_477:\n        /* \"#utility.yul\":21326:21405   */\n      tag_478\n        /* \"#utility.yul\":21401:21403   */\n      0x40\n        /* \"#utility.yul\":21390:21399   */\n      dup4\n        /* \"#utility.yul\":21386:21404   */\n      add\n        /* \"#utility.yul\":21377:21383   */\n      dup7\n        /* \"#utility.yul\":21326:21405   */\n      tag_266\n      jump\t// in\n    tag_478:\n        /* \"#utility.yul\":21415:21487   */\n      tag_479\n        /* \"#utility.yul\":21483:21485   */\n      0x60\n        /* \"#utility.yul\":21472:21481   */\n      dup4\n        /* \"#utility.yul\":21468:21486   */\n      add\n        /* \"#utility.yul\":21459:21465   */\n      dup6\n        /* \"#utility.yul\":21415:21487   */\n      tag_235\n      jump\t// in\n    tag_479:\n        /* \"#utility.yul\":21535:21544   */\n      dup2\n        /* \"#utility.yul\":21529:21533   */\n      dup2\n        /* \"#utility.yul\":21525:21545   */\n      sub\n        /* \"#utility.yul\":21519:21522   */\n      0x80\n        /* \"#utility.yul\":21508:21517   */\n      dup4\n        /* \"#utility.yul\":21504:21523   */\n      add\n        /* \"#utility.yul\":21497:21546   */\n      mstore\n        /* \"#utility.yul\":21563:21641   */\n      tag_480\n        /* \"#utility.yul\":21636:21640   */\n      dup2\n        /* \"#utility.yul\":21627:21633   */\n      dup5\n        /* \"#utility.yul\":21563:21641   */\n      tag_231\n      jump\t// in\n    tag_480:\n        /* \"#utility.yul\":21555:21641   */\n      swap1\n      pop\n        /* \"#utility.yul\":20879:21648   */\n      swap7\n      swap6\n      pop\n      pop\n      pop\n      pop\n      pop\n      pop\n      jump\t// out\n        /* \"#utility.yul\":21654:21770   */\n    tag_267:\n        /* \"#utility.yul\":21724:21745   */\n      tag_482\n        /* \"#utility.yul\":21739:21744   */\n      dup2\n        /* \"#utility.yul\":21724:21745   */\n      tag_236\n      jump\t// in\n    tag_482:\n        /* \"#utility.yul\":21717:21722   */\n      dup2\n        /* \"#utility.yul\":21714:21746   */\n      eq\n        /* \"#utility.yul\":21704:21764   */\n      tag_483\n      jumpi\n        /* \"#utility.yul\":21760:21761   */\n      0x00\n        /* \"#utility.yul\":21757:21758   */\n      dup1\n        /* \"#utility.yul\":21750:21762   */\n      revert\n        /* \"#utility.yul\":21704:21764   */\n    tag_483:\n        /* \"#utility.yul\":21654:21770   */\n      pop\n      jump\t// out\n        /* \"#utility.yul\":21776:21913   */\n    tag_268:\n        /* \"#utility.yul\":21830:21835   */\n      0x00\n        /* \"#utility.yul\":21861:21867   */\n      dup2\n        /* \"#utility.yul\":21855:21868   */\n      mload\n        /* \"#utility.yul\":21846:21868   */\n      swap1\n      pop\n        /* \"#utility.yul\":21877:21907   */\n      tag_485\n        /* \"#utility.yul\":21901:21906   */\n      dup2\n        /* \"#utility.yul\":21877:21907   */\n      tag_267\n      jump\t// in\n    tag_485:\n        /* \"#utility.yul\":21776:21913   */\n      swap3\n      swap2\n      pop\n      pop\n      jump\t// out\n        /* \"#utility.yul\":21919:22264   */\n    tag_66:\n        /* \"#utility.yul\":21986:21992   */\n      0x00\n        /* \"#utility.yul\":22035:22037   */\n      0x20\n        /* \"#utility.yul\":22023:22032   */\n      dup3\n        /* \"#utility.yul\":22014:22021   */\n      dup5\n        /* \"#utility.yul\":22010:22033   */\n      sub\n        /* \"#utility.yul\":22006:22038   */\n      slt\n        /* \"#utility.yul\":22003:22122   */\n      iszero\n      tag_487\n      jumpi\n        /* \"#utility.yul\":22041:22120   */\n      tag_488\n      tag_221\n      jump\t// in\n    tag_488:\n        /* \"#utility.yul\":22003:22122   */\n    tag_487:\n        /* \"#utility.yul\":22161:22162   */\n      0x00\n        /* \"#utility.yul\":22186:22247   */\n      tag_489\n        /* \"#utility.yul\":22239:22246   */\n      dup5\n        /* \"#utility.yul\":22230:22236   */\n      dup3\n        /* \"#utility.yul\":22219:22228   */\n      dup6\n        /* \"#utility.yul\":22215:22237   */\n      add\n        /* \"#utility.yul\":22186:22247   */\n      tag_268\n      jump\t// in\n    tag_489:\n        /* \"#utility.yul\":22176:22247   */\n      swap2\n      pop\n        /* \"#utility.yul\":22132:22257   */\n      pop\n        /* \"#utility.yul\":21919:22264   */\n      swap3\n      swap2\n      pop\n      pop\n      jump\t// out\n        /* \"#utility.yul\":22270:22491   */\n    tag_269:\n        /* \"#utility.yul\":22410:22444   */\n      0x6f6e6c7920776f726b65722063616e2061636365737320746865206665617475\n        /* \"#utility.yul\":22406:22407   */\n      0x00\n        /* \"#utility.yul\":22398:22404   */\n      dup3\n        /* \"#utility.yul\":22394:22408   */\n      add\n        /* \"#utility.yul\":22387:22445   */\n      mstore\n        /* \"#utility.yul\":22479:22483   */\n      0x7265000000000000000000000000000000000000000000000000000000000000\n        /* \"#utility.yul\":22474:22476   */\n      0x20\n        /* \"#utility.yul\":22466:22472   */\n      dup3\n        /* \"#utility.yul\":22462:22477   */\n      add\n        /* \"#utility.yul\":22455:22484   */\n      mstore\n        /* \"#utility.yul\":22270:22491   */\n      pop\n      jump\t// out\n        /* \"#utility.yul\":22497:22863   */\n    tag_270:\n        /* \"#utility.yul\":22639:22642   */\n      0x00\n        /* \"#utility.yul\":22660:22727   */\n      tag_492\n        /* \"#utility.yul\":22724:22726   */\n      0x22\n        /* \"#utility.yul\":22719:22722   */\n      dup4\n        /* \"#utility.yul\":22660:22727   */\n      tag_228\n      jump\t// in\n    tag_492:\n        /* \"#utility.yul\":22653:22727   */\n      swap2\n      pop\n        /* \"#utility.yul\":22736:22829   */\n      tag_493\n        /* \"#utility.yul\":22825:22828   */\n      dup3\n        /* \"#utility.yul\":22736:22829   */\n      tag_269\n      jump\t// in\n    tag_493:\n        /* \"#utility.yul\":22854:22856   */\n      0x40\n        /* \"#utility.yul\":22849:22852   */\n      dup3\n        /* \"#utility.yul\":22845:22857   */\n      add\n        /* \"#utility.yul\":22838:22857   */\n      swap1\n      pop\n        /* \"#utility.yul\":22497:22863   */\n      swap2\n      swap1\n      pop\n      jump\t// out\n        /* \"#utility.yul\":22869:23288   */\n    tag_69:\n        /* \"#utility.yul\":23035:23039   */\n      0x00\n        /* \"#utility.yul\":23073:23075   */\n      0x20\n        /* \"#utility.yul\":23062:23071   */\n      dup3\n        /* \"#utility.yul\":23058:23076   */\n      add\n        /* \"#utility.yul\":23050:23076   */\n      swap1\n      pop\n        /* \"#utility.yul\":23122:23131   */\n      dup2\n        /* \"#utility.yul\":23116:23120   */\n      dup2\n        /* \"#utility.yul\":23112:23132   */\n      sub\n        /* \"#utility.yul\":23108:23109   */\n      0x00\n        /* \"#utility.yul\":23097:23106   */\n      dup4\n        /* \"#utility.yul\":23093:23110   */\n      add\n        /* \"#utility.yul\":23086:23133   */\n      mstore\n        /* \"#utility.yul\":23150:23281   */\n      tag_495\n        /* \"#utility.yul\":23276:23280   */\n      dup2\n        /* \"#utility.yul\":23150:23281   */\n      tag_270\n      jump\t// in\n    tag_495:\n        /* \"#utility.yul\":23142:23281   */\n      swap1\n      pop\n        /* \"#utility.yul\":22869:23288   */\n      swap2\n      swap1\n      pop\n      jump\t// out\n        /* \"#utility.yul\":23294:23474   */\n    tag_271:\n        /* \"#utility.yul\":23342:23419   */\n      0x4e487b7100000000000000000000000000000000000000000000000000000000\n        /* \"#utility.yul\":23339:23340   */\n      0x00\n        /* \"#utility.yul\":23332:23420   */\n      mstore\n        /* \"#utility.yul\":23439:23443   */\n      0x22\n        /* \"#utility.yul\":23436:23437   */\n      0x04\n        /* \"#utility.yul\":23429:23444   */\n      mstore\n        /* \"#utility.yul\":23463:23467   */\n      0x24\n        /* \"#utility.yul\":23460:23461   */\n      0x00\n        /* \"#utility.yul\":23453:23468   */\n      revert\n        /* \"#utility.yul\":23480:23800   */\n    tag_79:\n        /* \"#utility.yul\":23524:23530   */\n      0x00\n        /* \"#utility.yul\":23561:23562   */\n      0x02\n        /* \"#utility.yul\":23555:23559   */\n      dup3\n        /* \"#utility.yul\":23551:23563   */\n      div\n        /* \"#utility.yul\":23541:23563   */\n      swap1\n      pop\n        /* \"#utility.yul\":23608:23609   */\n      0x01\n        /* \"#utility.yul\":23602:23606   */\n      dup3\n        /* \"#utility.yul\":23598:23610   */\n      and\n        /* \"#utility.yul\":23629:23647   */\n      dup1\n        /* \"#utility.yul\":23619:23700   */\n      tag_498\n      jumpi\n        /* \"#utility.yul\":23685:23689   */\n      0x7f\n        /* \"#utility.yul\":23677:23683   */\n      dup3\n        /* \"#utility.yul\":23673:23690   */\n      and\n        /* \"#utility.yul\":23663:23690   */\n      swap2\n      pop\n        /* \"#utility.yul\":23619:23700   */\n    tag_498:\n        /* \"#utility.yul\":23747:23749   */\n      0x20\n        /* \"#utility.yul\":23739:23745   */\n      dup3\n        /* \"#utility.yul\":23736:23750   */\n      lt\n        /* \"#utility.yul\":23716:23734   */\n      dup2\n        /* \"#utility.yul\":23713:23751   */\n      sub\n        /* \"#utility.yul\":23710:23794   */\n      tag_499\n      jumpi\n        /* \"#utility.yul\":23766:23784   */\n      tag_500\n      tag_271\n      jump\t// in\n    tag_500:\n        /* \"#utility.yul\":23710:23794   */\n    tag_499:\n        /* \"#utility.yul\":23531:23800   */\n      pop\n        /* \"#utility.yul\":23480:23800   */\n      swap2\n      swap1\n      pop\n      jump\t// out\n        /* \"#utility.yul\":23806:24033   */\n    tag_272:\n        /* \"#utility.yul\":23946:23980   */\n      0x7573657220646f65736e2774206f776e20746865207265736f7572636520746f\n        /* \"#utility.yul\":23942:23943   */\n      0x00\n        /* \"#utility.yul\":23934:23940   */\n      dup3\n        /* \"#utility.yul\":23930:23944   */\n      add\n        /* \"#utility.yul\":23923:23981   */\n      mstore\n        /* \"#utility.yul\":24015:24025   */\n      0x206163636573732e000000000000000000000000000000000000000000000000\n        /* \"#utility.yul\":24010:24012   */\n      0x20\n        /* \"#utility.yul\":24002:24008   */\n      dup3\n        /* \"#utility.yul\":23998:24013   */\n      add\n        /* \"#utility.yul\":23991:24026   */\n      mstore\n        /* \"#utility.yul\":23806:24033   */\n      pop\n      jump\t// out\n        /* \"#utility.yul\":24039:24405   */\n    tag_273:\n        /* \"#utility.yul\":24181:24184   */\n      0x00\n        /* \"#utility.yul\":24202:24269   */\n      tag_503\n        /* \"#utility.yul\":24266:24268   */\n      0x28\n        /* \"#utility.yul\":24261:24264   */\n      dup4\n        /* \"#utility.yul\":24202:24269   */\n      tag_228\n      jump\t// in\n    tag_503:\n        /* \"#utility.yul\":24195:24269   */\n      swap2\n      pop\n        /* \"#utility.yul\":24278:24371   */\n      tag_504\n        /* \"#utility.yul\":24367:24370   */\n      dup3\n        /* \"#utility.yul\":24278:24371   */\n      tag_272\n      jump\t// in\n    tag_504:\n        /* \"#utility.yul\":24396:24398   */\n      0x40\n        /* \"#utility.yul\":24391:24394   */\n      dup3\n        /* \"#utility.yul\":24387:24399   */\n      add\n        /* \"#utility.yul\":24380:24399   */\n      swap1\n      pop\n        /* \"#utility.yul\":24039:24405   */\n      swap2\n      swap1\n      pop\n      jump\t// out\n        /* \"#utility.yul\":24411:24830   */\n    tag_107:\n        /* \"#utility.yul\":24577:24581   */\n      0x00\n        /* \"#utility.yul\":24615:24617   */\n      0x20\n        /* \"#utility.yul\":24604:24613   */\n      dup3\n        /* \"#utility.yul\":24600:24618   */\n      add\n        /* \"#utility.yul\":24592:24618   */\n      swap1\n      pop\n        /* \"#utility.yul\":24664:24673   */\n      dup2\n        /* \"#utility.yul\":24658:24662   */\n      dup2\n        /* \"#utility.yul\":24654:24674   */\n      sub\n        /* \"#utility.yul\":24650:24651   */\n      0x00\n        /* \"#utility.yul\":24639:24648   */\n      dup4\n        /* \"#utility.yul\":24635:24652   */\n      add\n        /* \"#utility.yul\":24628:24675   */\n      mstore\n        /* \"#utility.yul\":24692:24823   */\n      tag_506\n        /* \"#utility.yul\":24818:24822   */\n      dup2\n        /* \"#utility.yul\":24692:24823   */\n      tag_273\n      jump\t// in\n    tag_506:\n        /* \"#utility.yul\":24684:24823   */\n      swap1\n      pop\n        /* \"#utility.yul\":24411:24830   */\n      swap2\n      swap1\n      pop\n      jump\t// out\n        /* \"#utility.yul\":24836:25062   */\n    tag_274:\n        /* \"#utility.yul\":24976:25010   */\n      0x70617469656e74207769746820676976656e20656d61696c20616c7265616479\n        /* \"#utility.yul\":24972:24973   */\n      0x00\n        /* \"#utility.yul\":24964:24970   */\n      dup3\n        /* \"#utility.yul\":24960:24974   */\n      add\n        /* \"#utility.yul\":24953:25011   */\n      mstore\n        /* \"#utility.yul\":25045:25054   */\n      0x2065786973747300000000000000000000000000000000000000000000000000\n        /* \"#utility.yul\":25040:25042   */\n      0x20\n        /* \"#utility.yul\":25032:25038   */\n      dup3\n        /* \"#utility.yul\":25028:25043   */\n      add\n        /* \"#utility.yul\":25021:25055   */\n      mstore\n        /* \"#utility.yul\":24836:25062   */\n      pop\n      jump\t// out\n        /* \"#utility.yul\":25068:25434   */\n    tag_275:\n        /* \"#utility.yul\":25210:25213   */\n      0x00\n        /* \"#utility.yul\":25231:25298   */\n      tag_509\n        /* \"#utility.yul\":25295:25297   */\n      0x27\n        /* \"#utility.yul\":25290:25293   */\n      dup4\n        /* \"#utility.yul\":25231:25298   */\n      tag_228\n      jump\t// in\n    tag_509:\n        /* \"#utility.yul\":25224:25298   */\n      swap2\n      pop\n        /* \"#utility.yul\":25307:25400   */\n      tag_510\n        /* \"#utility.yul\":25396:25399   */\n      dup3\n        /* \"#utility.yul\":25307:25400   */\n      tag_274\n      jump\t// in\n    tag_510:\n        /* \"#utility.yul\":25425:25427   */\n      0x40\n        /* \"#utility.yul\":25420:25423   */\n      dup3\n        /* \"#utility.yul\":25416:25428   */\n      add\n        /* \"#utility.yul\":25409:25428   */\n      swap1\n      pop\n        /* \"#utility.yul\":25068:25434   */\n      swap2\n      swap1\n      pop\n      jump\t// out\n        /* \"#utility.yul\":25440:25859   */\n    tag_119:\n        /* \"#utility.yul\":25606:25610   */\n      0x00\n        /* \"#utility.yul\":25644:25646   */\n      0x20\n        /* \"#utility.yul\":25633:25642   */\n      dup3\n        /* \"#utility.yul\":25629:25647   */\n      add\n        /* \"#utility.yul\":25621:25647   */\n      swap1\n      pop\n        /* \"#utility.yul\":25693:25702   */\n      dup2\n        /* \"#utility.yul\":25687:25691   */\n      dup2\n        /* \"#utility.yul\":25683:25703   */\n      sub\n        /* \"#utility.yul\":25679:25680   */\n      0x00\n        /* \"#utility.yul\":25668:25677   */\n      dup4\n        /* \"#utility.yul\":25664:25681   */\n      add\n        /* \"#utility.yul\":25657:25704   */\n      mstore\n        /* \"#utility.yul\":25721:25852   */\n      tag_512\n        /* \"#utility.yul\":25847:25851   */\n      dup2\n        /* \"#utility.yul\":25721:25852   */\n      tag_275\n      jump\t// in\n    tag_512:\n        /* \"#utility.yul\":25713:25852   */\n      swap1\n      pop\n        /* \"#utility.yul\":25440:25859   */\n      swap2\n      swap1\n      pop\n      jump\t// out\n        /* \"#utility.yul\":25865:26045   */\n    tag_276:\n        /* \"#utility.yul\":25913:25990   */\n      0x4e487b7100000000000000000000000000000000000000000000000000000000\n        /* \"#utility.yul\":25910:25911   */\n      0x00\n        /* \"#utility.yul\":25903:25991   */\n      mstore\n        /* \"#utility.yul\":26010:26014   */\n      0x11\n        /* \"#utility.yul\":26007:26008   */\n      0x04\n        /* \"#utility.yul\":26000:26015   */\n      mstore\n        /* \"#utility.yul\":26034:26038   */\n      0x24\n        /* \"#utility.yul\":26031:26032   */\n      0x00\n        /* \"#utility.yul\":26024:26039   */\n      revert\n        /* \"#utility.yul\":26051:26242   */\n    tag_121:\n        /* \"#utility.yul\":26091:26094   */\n      0x00\n        /* \"#utility.yul\":26110:26130   */\n      tag_515\n        /* \"#utility.yul\":26128:26129   */\n      dup3\n        /* \"#utility.yul\":26110:26130   */\n      tag_232\n      jump\t// in\n    tag_515:\n        /* \"#utility.yul\":26105:26130   */\n      swap2\n      pop\n        /* \"#utility.yul\":26144:26164   */\n      tag_516\n        /* \"#utility.yul\":26162:26163   */\n      dup4\n        /* \"#utility.yul\":26144:26164   */\n      tag_232\n      jump\t// in\n    tag_516:\n        /* \"#utility.yul\":26139:26164   */\n      swap3\n      pop\n        /* \"#utility.yul\":26187:26188   */\n      dup3\n        /* \"#utility.yul\":26184:26185   */\n      dup3\n        /* \"#utility.yul\":26180:26189   */\n      add\n        /* \"#utility.yul\":26173:26189   */\n      swap1\n      pop\n        /* \"#utility.yul\":26208:26211   */\n      dup1\n        /* \"#utility.yul\":26205:26206   */\n      dup3\n        /* \"#utility.yul\":26202:26212   */\n      gt\n        /* \"#utility.yul\":26199:26235   */\n      iszero\n      tag_517\n      jumpi\n        /* \"#utility.yul\":26215:26233   */\n      tag_518\n      tag_276\n      jump\t// in\n    tag_518:\n        /* \"#utility.yul\":26199:26235   */\n    tag_517:\n        /* \"#utility.yul\":26051:26242   */\n      swap3\n      swap2\n      pop\n      pop\n      jump\t// out\n        /* \"#utility.yul\":26248:26389   */\n    tag_277:\n        /* \"#utility.yul\":26297:26301   */\n      0x00\n        /* \"#utility.yul\":26320:26323   */\n      dup2\n        /* \"#utility.yul\":26312:26323   */\n      swap1\n      pop\n        /* \"#utility.yul\":26343:26346   */\n      dup2\n        /* \"#utility.yul\":26340:26341   */\n      0x00\n        /* \"#utility.yul\":26333:26347   */\n      mstore\n        /* \"#utility.yul\":26377:26381   */\n      0x20\n        /* \"#utility.yul\":26374:26375   */\n      0x00\n        /* \"#utility.yul\":26364:26382   */\n      keccak256\n        /* \"#utility.yul\":26356:26382   */\n      swap1\n      pop\n        /* \"#utility.yul\":26248:26389   */\n      swap2\n      swap1\n      pop\n      jump\t// out\n        /* \"#utility.yul\":26395:26488   */\n    tag_278:\n        /* \"#utility.yul\":26432:26438   */\n      0x00\n        /* \"#utility.yul\":26479:26481   */\n      0x20\n        /* \"#utility.yul\":26474:26476   */\n      0x1f\n        /* \"#utility.yul\":26467:26472   */\n      dup4\n        /* \"#utility.yul\":26463:26477   */\n      add\n        /* \"#utility.yul\":26459:26482   */\n      div\n        /* \"#utility.yul\":26449:26482   */\n      swap1\n      pop\n        /* \"#utility.yul\":26395:26488   */\n      swap2\n      swap1\n      pop\n      jump\t// out\n        /* \"#utility.yul\":26494:26601   */\n    tag_279:\n        /* \"#utility.yul\":26538:26546   */\n      0x00\n        /* \"#utility.yul\":26588:26593   */\n      dup3\n        /* \"#utility.yul\":26582:26586   */\n      dup3\n        /* \"#utility.yul\":26578:26594   */\n      shl\n        /* \"#utility.yul\":26557:26594   */\n      swap1\n      pop\n        /* \"#utility.yul\":26494:26601   */\n      swap3\n      swap2\n      pop\n      pop\n      jump\t// out\n        /* \"#utility.yul\":26607:27000   */\n    tag_280:\n        /* \"#utility.yul\":26676:26682   */\n      0x00\n        /* \"#utility.yul\":26726:26727   */\n      0x08\n        /* \"#utility.yul\":26714:26724   */\n      dup4\n        /* \"#utility.yul\":26710:26728   */\n      mul\n        /* \"#utility.yul\":26749:26846   */\n      tag_523\n        /* \"#utility.yul\":26779:26845   */\n      0xffffffffffffffffffffffffffffffffffffffffffffffffffffffffffffffff\n        /* \"#utility.yul\":26768:26777   */\n      dup3\n        /* \"#utility.yul\":26749:26846   */\n      tag_279\n      jump\t// in\n    tag_523:\n        /* \"#utility.yul\":26867:26906   */\n      tag_524\n        /* \"#utility.yul\":26897:26905   */\n      dup7\n        /* \"#utility.yul\":26886:26895   */\n      dup4\n        /* \"#utility.yul\":26867:26906   */\n      tag_279\n      jump\t// in\n    tag_524:\n        /* \"#utility.yul\":26855:26906   */\n      swap6\n      pop\n        /* \"#utility.yul\":26939:26943   */\n      dup1\n        /* \"#utility.yul\":26935:26944   */\n      not\n        /* \"#utility.yul\":26928:26933   */\n      dup5\n        /* \"#utility.yul\":26924:26945   */\n      and\n        /* \"#utility.yul\":26915:26945   */\n      swap4\n      pop\n        /* \"#utility.yul\":26988:26992   */\n      dup1\n        /* \"#utility.yul\":26978:26986   */\n      dup7\n        /* \"#utility.yul\":26974:26993   */\n      and\n        /* \"#utility.yul\":26967:26972   */\n      dup5\n        /* \"#utility.yul\":26964:26994   */\n      or\n        /* \"#utility.yul\":26954:26994   */\n      swap3\n      pop\n        /* \"#utility.yul\":26683:27000   */\n      pop\n      pop\n        /* \"#utility.yul\":26607:27000   */\n      swap4\n      swap3\n      pop\n      pop\n      pop\n      jump\t// out\n        /* \"#utility.yul\":27006:27066   */\n    tag_281:\n        /* \"#utility.yul\":27034:27037   */\n      0x00\n        /* \"#utility.yul\":27055:27060   */\n      dup2\n        /* \"#utility.yul\":27048:27060   */\n      swap1\n      pop\n        /* \"#utility.yul\":27006:27066   */\n      swap2\n      swap1\n      pop\n      jump\t// out\n        /* \"#utility.yul\":27072:27214   */\n    tag_282:\n        /* \"#utility.yul\":27122:27131   */\n      0x00\n        /* \"#utility.yul\":27155:27208   */\n      tag_527\n        /* \"#utility.yul\":27173:27207   */\n      tag_528\n        /* \"#utility.yul\":27182:27206   */\n      tag_529\n        /* \"#utility.yul\":27200:27205   */\n      dup5\n        /* \"#utility.yul\":27182:27206   */\n      tag_232\n      jump\t// in\n    tag_529:\n        /* \"#utility.yul\":27173:27207   */\n      tag_281\n      jump\t// in\n    tag_528:\n        /* \"#utility.yul\":27155:27208   */\n      tag_232\n      jump\t// in\n    tag_527:\n        /* \"#utility.yul\":27142:27208   */\n      swap1\n      pop\n        /* \"#utility.yul\":27072:27214   */\n      swap2\n      swap1\n      pop\n      jump\t// out\n        /* \"#utility.yul\":27220:27295   */\n    tag_283:\n        /* \"#utility.yul\":27263:27266   */\n      0x00\n        /* \"#utility.yul\":27284:27289   */\n      dup2\n        /* \"#utility.yul\":27277:27289   */\n      swap1\n      pop\n        /* \"#utility.yul\":27220:27295   */\n      swap2\n      swap1\n      pop\n      jump\t// out\n        /* \"#utility.yul\":27301:27570   */\n    tag_284:\n        /* \"#utility.yul\":27411:27450   */\n      tag_532\n        /* \"#utility.yul\":27442:27449   */\n      dup4\n        /* \"#utility.yul\":27411:27450   */\n      tag_282\n      jump\t// in\n    tag_532:\n        /* \"#utility.yul\":27472:27563   */\n      tag_533\n        /* \"#utility.yul\":27521:27562   */\n      tag_534\n        /* \"#utility.yul\":27545:27561   */\n      dup3\n        /* \"#utility.yul\":27521:27562   */\n      tag_283\n      jump\t// in\n    tag_534:\n        /* \"#utility.yul\":27513:27519   */\n      dup5\n        /* \"#utility.yul\":27506:27510   */\n      dup5\n        /* \"#utility.yul\":27500:27511   */\n      sload\n        /* \"#utility.yul\":27472:27563   */\n      tag_280\n      jump\t// in\n    tag_533:\n        /* \"#utility.yul\":27466:27470   */\n      dup3\n        /* \"#utility.yul\":27459:27564   */\n      sstore\n        /* \"#utility.yul\":27377:27570   */\n      pop\n        /* \"#utility.yul\":27301:27570   */\n      pop\n      pop\n      pop\n      jump\t// out\n        /* \"#utility.yul\":27576:27649   */\n    tag_285:\n        /* \"#utility.yul\":27621:27624   */\n      0x00\n        /* \"#utility.yul\":27576:27649   */\n      swap1\n      jump\t// out\n        /* \"#utility.yul\":27655:27844   */\n    tag_286:\n        /* \"#utility.yul\":27732:27764   */\n      tag_537\n      tag_285\n      jump\t// in\n    tag_537:\n        /* \"#utility.yul\":27773:27838   */\n      tag_538\n        /* \"#utility.yul\":27831:27837   */\n      dup2\n        /* \"#utility.yul\":27823:27829   */\n      dup5\n        /* \"#utility.yul\":27817:27821   */\n      dup5\n        /* \"#utility.yul\":27773:27838   */\n      tag_284\n      jump\t// in\n    tag_538:\n        /* \"#utility.yul\":27708:27844   */\n      pop\n        /* \"#utility.yul\":27655:27844   */\n      pop\n      pop\n      jump\t// out\n        /* \"#utility.yul\":27850:28036   */\n    tag_287:\n        /* \"#utility.yul\":27910:28030   */\n    tag_540:\n        /* \"#utility.yul\":27927:27930   */\n      dup2\n        /* \"#utility.yul\":27920:27925   */\n      dup2\n        /* \"#utility.yul\":27917:27931   */\n      lt\n        /* \"#utility.yul\":27910:28030   */\n      iszero\n      tag_542\n      jumpi\n        /* \"#utility.yul\":27981:28020   */\n      tag_543\n        /* \"#utility.yul\":28018:28019   */\n      0x00\n        /* \"#utility.yul\":28011:28016   */\n      dup3\n        /* \"#utility.yul\":27981:28020   */\n      tag_286\n      jump\t// in\n    tag_543:\n        /* \"#utility.yul\":27954:27955   */\n      0x01\n        /* \"#utility.yul\":27947:27952   */\n      dup2\n        /* \"#utility.yul\":27943:27956   */\n      add\n        /* \"#utility.yul\":27934:27956   */\n      swap1\n      pop\n        /* \"#utility.yul\":27910:28030   */\n      jump(tag_540)\n    tag_542:\n        /* \"#utility.yul\":27850:28036   */\n      pop\n      pop\n      jump\t// out\n        /* \"#utility.yul\":28042:28585   */\n    tag_288:\n        /* \"#utility.yul\":28143:28145   */\n      0x1f\n        /* \"#utility.yul\":28138:28141   */\n      dup3\n        /* \"#utility.yul\":28135:28146   */\n      gt\n        /* \"#utility.yul\":28132:28578   */\n      iszero\n      tag_545\n      jumpi\n        /* \"#utility.yul\":28177:28215   */\n      tag_546\n        /* \"#utility.yul\":28209:28214   */\n      dup2\n        /* \"#utility.yul\":28177:28215   */\n      tag_277\n      jump\t// in\n    tag_546:\n        /* \"#utility.yul\":28261:28290   */\n      tag_547\n        /* \"#utility.yul\":28279:28289   */\n      dup5\n        /* \"#utility.yul\":28261:28290   */\n      tag_278\n      jump\t// in\n    tag_547:\n        /* \"#utility.yul\":28251:28259   */\n      dup2\n        /* \"#utility.yul\":28247:28291   */\n      add\n        /* \"#utility.yul\":28444:28446   */\n      0x20\n        /* \"#utility.yul\":28432:28442   */\n      dup6\n        /* \"#utility.yul\":28429:28447   */\n      lt\n        /* \"#utility.yul\":28426:28475   */\n      iszero\n      tag_548\n      jumpi\n        /* \"#utility.yul\":28465:28473   */\n      dup2\n        /* \"#utility.yul\":28450:28473   */\n      swap1\n      pop\n        /* \"#utility.yul\":28426:28475   */\n    tag_548:\n        /* \"#utility.yul\":28488:28568   */\n      tag_549\n        /* \"#utility.yul\":28544:28566   */\n      tag_550\n        /* \"#utility.yul\":28562:28565   */\n      dup6\n        /* \"#utility.yul\":28544:28566   */\n      tag_278\n      jump\t// in\n    tag_550:\n        /* \"#utility.yul\":28534:28542   */\n      dup4\n        /* \"#utility.yul\":28530:28567   */\n      add\n        /* \"#utility.yul\":28517:28528   */\n      dup3\n        /* \"#utility.yul\":28488:28568   */\n      tag_287\n      jump\t// in\n    tag_549:\n        /* \"#utility.yul\":28147:28578   */\n      pop\n      pop\n        /* \"#utility.yul\":28132:28578   */\n    tag_545:\n        /* \"#utility.yul\":28042:28585   */\n      pop\n      pop\n      pop\n      jump\t// out\n        /* \"#utility.yul\":28591:28708   */\n    tag_289:\n        /* \"#utility.yul\":28645:28653   */\n      0x00\n        /* \"#utility.yul\":28695:28700   */\n      dup3\n        /* \"#utility.yul\":28689:28693   */\n      dup3\n        /* \"#utility.yul\":28685:28701   */\n      shr\n        /* \"#utility.yul\":28664:28701   */\n      swap1\n      pop\n        /* \"#utility.yul\":28591:28708   */\n      swap3\n      swap2\n      pop\n      pop\n      jump\t// out\n        /* \"#utility.yul\":28714:28883   */\n    tag_290:\n        /* \"#utility.yul\":28758:28764   */\n      0x00\n        /* \"#utility.yul\":28791:28842   */\n      tag_553\n        /* \"#utility.yul\":28839:28840   */\n      0x00\n        /* \"#utility.yul\":28835:28841   */\n      not\n        /* \"#utility.yul\":28827:28832   */\n      dup5\n        /* \"#utility.yul\":28824:28825   */\n      0x08\n        /* \"#utility.yul\":28820:28833   */\n      mul\n        /* \"#utility.yul\":28791:28842   */\n      tag_289\n      jump\t// in\n    tag_553:\n        /* \"#utility.yul\":28787:28843   */\n      not\n        /* \"#utility.yul\":28872:28876   */\n      dup1\n        /* \"#utility.yul\":28866:28870   */\n      dup4\n        /* \"#utility.yul\":28862:28877   */\n      and\n        /* \"#utility.yul\":28852:28877   */\n      swap2\n      pop\n        /* \"#utility.yul\":28765:28883   */\n      pop\n        /* \"#utility.yul\":28714:28883   */\n      swap3\n      swap2\n      pop\n      pop\n      jump\t// out\n        /* \"#utility.yul\":28888:29183   */\n    tag_291:\n        /* \"#utility.yul\":28964:28968   */\n      0x00\n        /* \"#utility.yul\":29110:29139   */\n      tag_555\n        /* \"#utility.yul\":29135:29138   */\n      dup4\n        /* \"#utility.yul\":29129:29133   */\n      dup4\n        /* \"#utility.yul\":29110:29139   */\n      tag_290\n      jump\t// in\n    tag_555:\n        /* \"#utility.yul\":29102:29139   */\n      swap2\n      pop\n        /* \"#utility.yul\":29172:29175   */\n      dup3\n        /* \"#utility.yul\":29169:29170   */\n      0x02\n        /* \"#utility.yul\":29165:29176   */\n      mul\n        /* \"#utility.yul\":29159:29163   */\n      dup3\n        /* \"#utility.yul\":29156:29177   */\n      or\n        /* \"#utility.yul\":29148:29177   */\n      swap1\n      pop\n        /* \"#utility.yul\":28888:29183   */\n      swap3\n      swap2\n      pop\n      pop\n      jump\t// out\n        /* \"#utility.yul\":29188:30583   */\n    tag_123:\n        /* \"#utility.yul\":29305:29342   */\n      tag_557\n        /* \"#utility.yul\":29338:29341   */\n      dup3\n        /* \"#utility.yul\":29305:29342   */\n      tag_227\n      jump\t// in\n    tag_557:\n        /* \"#utility.yul\":29407:29425   */\n      0xffffffffffffffff\n        /* \"#utility.yul\":29399:29405   */\n      dup2\n        /* \"#utility.yul\":29396:29426   */\n      gt\n        /* \"#utility.yul\":29393:29449   */\n      iszero\n      tag_558\n      jumpi\n        /* \"#utility.yul\":29429:29447   */\n      tag_559\n      tag_137\n      jump\t// in\n    tag_559:\n        /* \"#utility.yul\":29393:29449   */\n    tag_558:\n        /* \"#utility.yul\":29473:29511   */\n      tag_560\n        /* \"#utility.yul\":29505:29509   */\n      dup3\n        /* \"#utility.yul\":29499:29510   */\n      sload\n        /* \"#utility.yul\":29473:29511   */\n      tag_79\n      jump\t// in\n    tag_560:\n        /* \"#utility.yul\":29558:29625   */\n      tag_561\n        /* \"#utility.yul\":29618:29624   */\n      dup3\n        /* \"#utility.yul\":29610:29616   */\n      dup3\n        /* \"#utility.yul\":29604:29608   */\n      dup6\n        /* \"#utility.yul\":29558:29625   */\n      tag_288\n      jump\t// in\n    tag_561:\n        /* \"#utility.yul\":29652:29653   */\n      0x00\n        /* \"#utility.yul\":29676:29680   */\n      0x20\n        /* \"#utility.yul\":29663:29680   */\n      swap1\n      pop\n        /* \"#utility.yul\":29708:29710   */\n      0x1f\n        /* \"#utility.yul\":29700:29706   */\n      dup4\n        /* \"#utility.yul\":29697:29711   */\n      gt\n        /* \"#utility.yul\":29725:29726   */\n      0x01\n        /* \"#utility.yul\":29720:30338   */\n      dup2\n      eq\n      tag_563\n      jumpi\n        /* \"#utility.yul\":30382:30383   */\n      0x00\n        /* \"#utility.yul\":30399:30405   */\n      dup5\n        /* \"#utility.yul\":30396:30473   */\n      iszero\n      tag_564\n      jumpi\n        /* \"#utility.yul\":30448:30457   */\n      dup3\n        /* \"#utility.yul\":30443:30446   */\n      dup8\n        /* \"#utility.yul\":30439:30458   */\n      add\n        /* \"#utility.yul\":30433:30459   */\n      mload\n        /* \"#utility.yul\":30424:30459   */\n      swap1\n      pop\n        /* \"#utility.yul\":30396:30473   */\n    tag_564:\n        /* \"#utility.yul\":30499:30566   */\n      tag_565\n        /* \"#utility.yul\":30559:30565   */\n      dup6\n        /* \"#utility.yul\":30552:30557   */\n      dup3\n        /* \"#utility.yul\":30499:30566   */\n      tag_291\n      jump\t// in\n    tag_565:\n        /* \"#utility.yul\":30493:30497   */\n      dup7\n        /* \"#utility.yul\":30486:30567   */\n      sstore\n        /* \"#utility.yul\":30355:30577   */\n      pop\n        /* \"#utility.yul\":29690:30577   */\n      jump(tag_562)\n        /* \"#utility.yul\":29720:30338   */\n    tag_563:\n        /* \"#utility.yul\":29772:29776   */\n      0x1f\n        /* \"#utility.yul\":29768:29777   */\n      not\n        /* \"#utility.yul\":29760:29766   */\n      dup5\n        /* \"#utility.yul\":29756:29778   */\n      and\n        /* \"#utility.yul\":29806:29843   */\n      tag_566\n        /* \"#utility.yul\":29838:29842   */\n      dup7\n        /* \"#utility.yul\":29806:29843   */\n      tag_277\n      jump\t// in\n    tag_566:\n        /* \"#utility.yul\":29865:29866   */\n      0x00\n        /* \"#utility.yul\":29879:30087   */\n    tag_567:\n        /* \"#utility.yul\":29893:29900   */\n      dup3\n        /* \"#utility.yul\":29890:29891   */\n      dup2\n        /* \"#utility.yul\":29887:29901   */\n      lt\n        /* \"#utility.yul\":29879:30087   */\n      iszero\n      tag_569\n      jumpi\n        /* \"#utility.yul\":29972:29981   */\n      dup5\n        /* \"#utility.yul\":29967:29970   */\n      dup10\n        /* \"#utility.yul\":29963:29982   */\n      add\n        /* \"#utility.yul\":29957:29983   */\n      mload\n        /* \"#utility.yul\":29949:29955   */\n      dup3\n        /* \"#utility.yul\":29942:29984   */\n      sstore\n        /* \"#utility.yul\":30023:30024   */\n      0x01\n        /* \"#utility.yul\":30015:30021   */\n      dup3\n        /* \"#utility.yul\":30011:30025   */\n      add\n        /* \"#utility.yul\":30001:30025   */\n      swap2\n      pop\n        /* \"#utility.yul\":30070:30072   */\n      0x20\n        /* \"#utility.yul\":30059:30068   */\n      dup6\n        /* \"#utility.yul\":30055:30073   */\n      add\n        /* \"#utility.yul\":30042:30073   */\n      swap5\n      pop\n        /* \"#utility.yul\":29916:29920   */\n      0x20\n        /* \"#utility.yul\":29913:29914   */\n      dup2\n        /* \"#utility.yul\":29909:29921   */\n      add\n        /* \"#utility.yul\":29904:29921   */\n      swap1\n      pop\n        /* \"#utility.yul\":29879:30087   */\n      jump(tag_567)\n    tag_569:\n        /* \"#utility.yul\":30115:30121   */\n      dup7\n        /* \"#utility.yul\":30106:30113   */\n      dup4\n        /* \"#utility.yul\":30103:30122   */\n      lt\n        /* \"#utility.yul\":30100:30279   */\n      iszero\n      tag_570\n      jumpi\n        /* \"#utility.yul\":30173:30182   */\n      dup5\n        /* \"#utility.yul\":30168:30171   */\n      dup10\n        /* \"#utility.yul\":30164:30183   */\n      add\n        /* \"#utility.yul\":30158:30184   */\n      mload\n        /* \"#utility.yul\":30216:30264   */\n      tag_571\n        /* \"#utility.yul\":30258:30262   */\n      0x1f\n        /* \"#utility.yul\":30250:30256   */\n      dup10\n        /* \"#utility.yul\":30246:30263   */\n      and\n        /* \"#utility.yul\":30235:30244   */\n      dup3\n        /* \"#utility.yul\":30216:30264   */\n      tag_290\n      jump\t// in\n    tag_571:\n        /* \"#utility.yul\":30208:30214   */\n      dup4\n        /* \"#utility.yul\":30201:30265   */\n      sstore\n        /* \"#utility.yul\":30123:30279   */\n      pop\n        /* \"#utility.yul\":30100:30279   */\n    tag_570:\n        /* \"#utility.yul\":30325:30326   */\n      0x01\n        /* \"#utility.yul\":30321:30322   */\n      0x02\n        /* \"#utility.yul\":30313:30319   */\n      dup9\n        /* \"#utility.yul\":30309:30323   */\n      mul\n        /* \"#utility.yul\":30305:30327   */\n      add\n        /* \"#utility.yul\":30299:30303   */\n      dup9\n        /* \"#utility.yul\":30292:30328   */\n      sstore\n        /* \"#utility.yul\":29727:30338   */\n      pop\n      pop\n      pop\n        /* \"#utility.yul\":29690:30577   */\n    tag_562:\n      pop\n        /* \"#utility.yul\":29280:30583   */\n      pop\n      pop\n      pop\n        /* \"#utility.yul\":29188:30583   */\n      pop\n      pop\n      jump\t// out\n        /* \"#utility.yul\":30589:31012   */\n    tag_129:\n        /* \"#utility.yul\":30730:30734   */\n      0x00\n        /* \"#utility.yul\":30768:30770   */\n      0x40\n        /* \"#utility.yul\":30757:30766   */\n      dup3\n        /* \"#utility.yul\":30753:30771   */\n      add\n        /* \"#utility.yul\":30745:30771   */\n      swap1\n      pop\n        /* \"#utility.yul\":30781:30852   */\n      tag_573\n        /* \"#utility.yul\":30849:30850   */\n      0x00\n        /* \"#utility.yul\":30838:30847   */\n      dup4\n        /* \"#utility.yul\":30834:30851   */\n      add\n        /* \"#utility.yul\":30825:30831   */\n      dup6\n        /* \"#utility.yul\":30781:30852   */\n      tag_261\n      jump\t// in\n    tag_573:\n        /* \"#utility.yul\":30899:30908   */\n      dup2\n        /* \"#utility.yul\":30893:30897   */\n      dup2\n        /* \"#utility.yul\":30889:30909   */\n      sub\n        /* \"#utility.yul\":30884:30886   */\n      0x20\n        /* \"#utility.yul\":30873:30882   */\n      dup4\n        /* \"#utility.yul\":30869:30887   */\n      add\n        /* \"#utility.yul\":30862:30910   */\n      mstore\n        /* \"#utility.yul\":30927:31005   */\n      tag_574\n        /* \"#utility.yul\":31000:31004   */\n      dup2\n        /* \"#utility.yul\":30991:30997   */\n      dup5\n        /* \"#utility.yul\":30927:31005   */\n      tag_231\n      jump\t// in\n    tag_574:\n        /* \"#utility.yul\":30919:31005   */\n      swap1\n      pop\n        /* \"#utility.yul\":30589:31012   */\n      swap4\n      swap3\n      pop\n      pop\n      pop\n      jump\t// out\n        /* \"#utility.yul\":31018:31166   */\n    tag_292:\n        /* \"#utility.yul\":31120:31131   */\n      0x00\n        /* \"#utility.yul\":31157:31160   */\n      dup2\n        /* \"#utility.yul\":31142:31160   */\n      swap1\n      pop\n        /* \"#utility.yul\":31018:31166   */\n      swap3\n      swap2\n      pop\n      pop\n      jump\t// out\n        /* \"#utility.yul\":31172:31562   */\n    tag_293:\n        /* \"#utility.yul\":31278:31281   */\n      0x00\n        /* \"#utility.yul\":31306:31345   */\n      tag_577\n        /* \"#utility.yul\":31339:31344   */\n      dup3\n        /* \"#utility.yul\":31306:31345   */\n      tag_227\n      jump\t// in\n    tag_577:\n        /* \"#utility.yul\":31361:31450   */\n      tag_578\n        /* \"#utility.yul\":31443:31449   */\n      dup2\n        /* \"#utility.yul\":31438:31441   */\n      dup6\n        /* \"#utility.yul\":31361:31450   */\n      tag_292\n      jump\t// in\n    tag_578:\n        /* \"#utility.yul\":31354:31450   */\n      swap4\n      pop\n        /* \"#utility.yul\":31459:31524   */\n      tag_579\n        /* \"#utility.yul\":31517:31523   */\n      dup2\n        /* \"#utility.yul\":31512:31515   */\n      dup6\n        /* \"#utility.yul\":31505:31509   */\n      0x20\n        /* \"#utility.yul\":31498:31503   */\n      dup7\n        /* \"#utility.yul\":31494:31510   */\n      add\n        /* \"#utility.yul\":31459:31524   */\n      tag_229\n      jump\t// in\n    tag_579:\n        /* \"#utility.yul\":31549:31555   */\n      dup1\n        /* \"#utility.yul\":31544:31547   */\n      dup5\n        /* \"#utility.yul\":31540:31556   */\n      add\n        /* \"#utility.yul\":31533:31556   */\n      swap2\n      pop\n        /* \"#utility.yul\":31282:31562   */\n      pop\n        /* \"#utility.yul\":31172:31562   */\n      swap3\n      swap2\n      pop\n      pop\n      jump\t// out\n        /* \"#utility.yul\":31568:31843   */\n    tag_132:\n        /* \"#utility.yul\":31700:31703   */\n      0x00\n        /* \"#utility.yul\":31722:31817   */\n      tag_581\n        /* \"#utility.yul\":31813:31816   */\n      dup3\n        /* \"#utility.yul\":31804:31810   */\n      dup5\n        /* \"#utility.yul\":31722:31817   */\n      tag_293\n      jump\t// in\n    tag_581:\n        /* \"#utility.yul\":31715:31817   */\n      swap2\n      pop\n        /* \"#utility.yul\":31834:31837   */\n      dup2\n        /* \"#utility.yul\":31827:31837   */\n      swap1\n      pop\n        /* \"#utility.yul\":31568:31843   */\n      swap3\n      swap2\n      pop\n      pop\n      jump\t// out\n        /* \"#utility.yul\":31849:32029   */\n    tag_172:\n        /* \"#utility.yul\":31897:31974   */\n      0x4e487b7100000000000000000000000000000000000000000000000000000000\n        /* \"#utility.yul\":31894:31895   */\n      0x00\n        /* \"#utility.yul\":31887:31975   */\n      mstore\n        /* \"#utility.yul\":31994:31998   */\n      0x32\n        /* \"#utility.yul\":31991:31992   */\n      0x04\n        /* \"#utility.yul\":31984:31999   */\n      mstore\n        /* \"#utility.yul\":32018:32022   */\n      0x24\n        /* \"#utility.yul\":32015:32016   */\n      0x00\n        /* \"#utility.yul\":32008:32023   */\n      revert\n        /* \"#utility.yul\":32035:32355   */\n    tag_210:\n        /* \"#utility.yul\":32150:32154   */\n      0x00\n        /* \"#utility.yul\":32188:32190   */\n      0x40\n        /* \"#utility.yul\":32177:32186   */\n      dup3\n        /* \"#utility.yul\":32173:32191   */\n      add\n        /* \"#utility.yul\":32165:32191   */\n      swap1\n      pop\n        /* \"#utility.yul\":32201:32272   */\n      tag_584\n        /* \"#utility.yul\":32269:32270   */\n      0x00\n        /* \"#utility.yul\":32258:32267   */\n      dup4\n        /* \"#utility.yul\":32254:32271   */\n      add\n        /* \"#utility.yul\":32245:32251   */\n      dup6\n        /* \"#utility.yul\":32201:32272   */\n      tag_235\n      jump\t// in\n    tag_584:\n        /* \"#utility.yul\":32282:32348   */\n      tag_585\n        /* \"#utility.yul\":32344:32346   */\n      0x20\n        /* \"#utility.yul\":32333:32342   */\n      dup4\n        /* \"#utility.yul\":32329:32347   */\n      add\n        /* \"#utility.yul\":32320:32326   */\n      dup5\n        /* \"#utility.yul\":32282:32348   */\n      tag_237\n      jump\t// in\n    tag_585:\n        /* \"#utility.yul\":32035:32355   */\n      swap4\n      swap3\n      pop\n      pop\n      pop\n      jump\t// out\n\n    auxdata: 0xa2646970667358221220c86303af8d2c80333f353307c41d0c4c097ce45005e1f2a6dc283b446df2a85664736f6c63430008160033\n}\n",
				"bytecode": {
					"linkReferences": {},
					"object": "608060405234801562000010575f80fd5b5060405162002952380380620029528339818101604052810190620000369190620000e1565b805f806101000a81548173ffffffffffffffffffffffffffffffffffffffff021916908373ffffffffffffffffffffffffffffffffffffffff1602179055505062000111565b5f80fd5b5f73ffffffffffffffffffffffffffffffffffffffff82169050919050565b5f620000ab8262000080565b9050919050565b620000bd816200009f565b8114620000c8575f80fd5b50565b5f81519050620000db81620000b2565b92915050565b5f60208284031215620000f957620000f86200007c565b5b5f6200010884828501620000cb565b91505092915050565b612833806200011f5f395ff3fe608060405234801561000f575f80fd5b506004361061009c575f3560e01c80638c8350fd116100645780638c8350fd1461018357806396e4e141146101a1578063b5368e20146101d1578063b799777714610201578063e7480f72146102355761009c565b806302513ed2146100a05780630869cfbc146100bc5780631b45309c146100f35780637535917a1461012357806375b8318714610153575b5f80fd5b6100ba60048036038101906100b591906118a2565b610253565b005b6100d660048036038101906100d191906118a2565b610442565b6040516100ea9897969594939291906119d8565b60405180910390f35b61010d600480360381019061010891906118a2565b610777565b60405161011a9190611a79565b60405180910390f35b61013d60048036038101906101389190611be8565b610885565b60405161014a9190611a79565b60405180910390f35b61016d60048036038101906101689190611d38565b610bf5565b60405161017a9190611a79565b60405180910390f35b61018b610c4d565b6040516101989190611fda565b60405180910390f35b6101bb60048036038101906101b69190611ffa565b6110d0565b6040516101c89190612025565b60405180910390f35b6101eb60048036038101906101e691906118a2565b611100565b6040516101f89190612109565b60405180910390f35b61021b600480360381019061021691906118a2565b6114c8565b60405161022c9594939291906121ab565b60405180910390f35b61023d6115ac565b60405161024a9190611a79565b60405180910390f35b5f8054906101000a900473ffffffffffffffffffffffffffffffffffffffff1673ffffffffffffffffffffffffffffffffffffffff1663f7bea9f3336040518263ffffffff1660e01b81526004016102ab9190612025565b602060405180830381865afa1580156102c6573d5f803e3d5ffd5b505050506040513d601f19601f820116820180604052508101906102ea919061222d565b610329576040517f08c379a0000000000000000000000000000000000000000000000000000000008152600401610320906122c8565b60405180910390fd5b60035f8273ffffffffffffffffffffffffffffffffffffffff1673ffffffffffffffffffffffffffffffffffffffff1681526020019081526020015f205f8082015f6103759190611760565b600182015f6103849190611760565b600282015f6103939190611760565b600382015f6103a29190611760565b600482015f6103b19190611760565b600582015f8082015f9055600182015f9055600282015f90555050600882015f6101000a81549073ffffffffffffffffffffffffffffffffffffffff02191690556008820160146101000a81549060ff021916905550507fde39be920c3839f8060bf8f49fef3956f673e91b0c3bd11a980fd926b25b8dc6816040516104379190612025565b60405180910390a150565b6003602052805f5260405f205f91509050805f01805461046190612313565b80601f016020809104026020016040519081016040528092919081815260200182805461048d90612313565b80156104d85780601f106104af576101008083540402835291602001916104d8565b820191905f5260205f20905b8154815290600101906020018083116104bb57829003601f168201915b5050505050908060010180546104ed90612313565b80601f016020809104026020016040519081016040528092919081815260200182805461051990612313565b80156105645780601f1061053b57610100808354040283529160200191610564565b820191905f5260205f20905b81548152906001019060200180831161054757829003601f168201915b50505050509080600201805461057990612313565b80601f01602080910402602001604051908101604052809291908181526020018280546105a590612313565b80156105f05780601f106105c7576101008083540402835291602001916105f0565b820191905f5260205f20905b8154815290600101906020018083116105d357829003601f168201915b50505050509080600301805461060590612313565b80601f016020809104026020016040519081016040528092919081815260200182805461063190612313565b801561067c5780601f106106535761010080835404028352916020019161067c565b820191905f5260205f20905b81548152906001019060200180831161065f57829003601f168201915b50505050509080600401805461069190612313565b80601f01602080910402602001604051908101604052809291908181526020018280546106bd90612313565b80156107085780601f106106df57610100808354040283529160200191610708565b820191905f5260205f20905b8154815290600101906020018083116106eb57829003601f168201915b505050505090806005016040518060600160405290815f82015481526020016001820154815260200160028201548152505090806008015f9054906101000a900473ffffffffffffffffffffffffffffffffffffffff16908060080160149054906101000a900460ff16905088565b5f60035f3373ffffffffffffffffffffffffffffffffffffffff1673ffffffffffffffffffffffffffffffffffffffff1681526020019081526020015f206008015f9054906101000a900473ffffffffffffffffffffffffffffffffffffffff1673ffffffffffffffffffffffffffffffffffffffff163373ffffffffffffffffffffffffffffffffffffffff1614610845576040517f08c379a000000000000000000000000000000000000000000000000000000000815260040161083c906123b3565b60405180910390fd5b7ffa5f927b53f620bcafa0ade5e255c4cc32ae798da7f282749aac6c5620f4e0ac826040516108749190612025565b60405180910390a160019050919050565b5f6109568860035f8573ffffffffffffffffffffffffffffffffffffffff1673ffffffffffffffffffffffffffffffffffffffff1681526020019081526020015f2060020180546108d590612313565b80601f016020809104026020016040519081016040528092919081815260200182805461090190612313565b801561094c5780601f106109235761010080835404028352916020019161094c565b820191905f5260205f20905b81548152906001019060200180831161092f57829003601f168201915b5050505050610bf5565b15610996576040517f08c379a000000000000000000000000000000000000000000000000000000000815260040161098d90612441565b60405180910390fd5b5f60405180606001604052808881526020018781526020018681525090508260025f60015481526020019081526020015f205f6101000a81548173ffffffffffffffffffffffffffffffffffffffff021916908373ffffffffffffffffffffffffffffffffffffffff1602179055506001805f828254610a16919061248c565b925050819055506040518061010001604052808c81526020018b81526020018a81526020018981526020018581526020018281526020018473ffffffffffffffffffffffffffffffffffffffff1681526020015f151581525060035f8573ffffffffffffffffffffffffffffffffffffffff1673ffffffffffffffffffffffffffffffffffffffff1681526020019081526020015f205f820151815f019081610abf919061265c565b506020820151816001019081610ad5919061265c565b506040820151816002019081610aeb919061265c565b506060820151816003019081610b01919061265c565b506080820151816004019081610b17919061265c565b5060a0820151816005015f820151815f01556020820151816001015560408201518160020155505060c0820151816008015f6101000a81548173ffffffffffffffffffffffffffffffffffffffff021916908373ffffffffffffffffffffffffffffffffffffffff16021790555060e08201518160080160146101000a81548160ff0219169083151502179055509050507f134fda0ae4fafca781b872311cca14ccbfaf969fd15c52f58e9a93de5d2318076001548a604051610bdb92919061272b565b60405180910390a160019150509998505050505050505050565b5f81604051602001610c079190612793565b6040516020818303038152906040528051906020012083604051602001610c2e9190612793565b6040516020818303038152906040528051906020012014905092915050565b60605f60015467ffffffffffffffff811115610c6c57610c6b611a9a565b5b604051908082528060200260200182016040528015610ca557816020015b610c9261179d565b815260200190600190039081610c8a5790505b5090505f5b6001548110156110c85760035f60025f8481526020019081526020015f205f9054906101000a900473ffffffffffffffffffffffffffffffffffffffff1673ffffffffffffffffffffffffffffffffffffffff1673ffffffffffffffffffffffffffffffffffffffff1681526020019081526020015f20604051806101000160405290815f82018054610d3c90612313565b80601f0160208091040260200160405190810160405280929190818152602001828054610d6890612313565b8015610db35780601f10610d8a57610100808354040283529160200191610db3565b820191905f5260205f20905b815481529060010190602001808311610d9657829003601f168201915b50505050508152602001600182018054610dcc90612313565b80601f0160208091040260200160405190810160405280929190818152602001828054610df890612313565b8015610e435780601f10610e1a57610100808354040283529160200191610e43565b820191905f5260205f20905b815481529060010190602001808311610e2657829003601f168201915b50505050508152602001600282018054610e5c90612313565b80601f0160208091040260200160405190810160405280929190818152602001828054610e8890612313565b8015610ed35780601f10610eaa57610100808354040283529160200191610ed3565b820191905f5260205f20905b815481529060010190602001808311610eb657829003601f168201915b50505050508152602001600382018054610eec90612313565b80601f0160208091040260200160405190810160405280929190818152602001828054610f1890612313565b8015610f635780601f10610f3a57610100808354040283529160200191610f63565b820191905f5260205f20905b815481529060010190602001808311610f4657829003601f168201915b50505050508152602001600482018054610f7c90612313565b80601f0160208091040260200160405190810160405280929190818152602001828054610fa890612313565b8015610ff35780601f10610fca57610100808354040283529160200191610ff3565b820191905f5260205f20905b815481529060010190602001808311610fd657829003601f168201915b50505050508152602001600582016040518060600160405290815f8201548152602001600182015481526020016002820154815250508152602001600882015f9054906101000a900473ffffffffffffffffffffffffffffffffffffffff1673ffffffffffffffffffffffffffffffffffffffff1673ffffffffffffffffffffffffffffffffffffffff1681526020016008820160149054906101000a900460ff1615151515815250508282815181106110b0576110af6127a9565b5b60200260200101819052508080600101915050610caa565b508091505090565b6002602052805f5260405f205f915054906101000a900473ffffffffffffffffffffffffffffffffffffffff1681565b61110861179d565b60035f8373ffffffffffffffffffffffffffffffffffffffff1673ffffffffffffffffffffffffffffffffffffffff1681526020019081526020015f20604051806101000160405290815f8201805461116090612313565b80601f016020809104026020016040519081016040528092919081815260200182805461118c90612313565b80156111d75780601f106111ae576101008083540402835291602001916111d7565b820191905f5260205f20905b8154815290600101906020018083116111ba57829003601f168201915b505050505081526020016001820180546111f090612313565b80601f016020809104026020016040519081016040528092919081815260200182805461121c90612313565b80156112675780601f1061123e57610100808354040283529160200191611267565b820191905f5260205f20905b81548152906001019060200180831161124a57829003601f168201915b5050505050815260200160028201805461128090612313565b80601f01602080910402602001604051908101604052809291908181526020018280546112ac90612313565b80156112f75780601f106112ce576101008083540402835291602001916112f7565b820191905f5260205f20905b8154815290600101906020018083116112da57829003601f168201915b5050505050815260200160038201805461131090612313565b80601f016020809104026020016040519081016040528092919081815260200182805461133c90612313565b80156113875780601f1061135e57610100808354040283529160200191611387565b820191905f5260205f20905b81548152906001019060200180831161136a57829003601f168201915b505050505081526020016004820180546113a090612313565b80601f01602080910402602001604051908101604052809291908181526020018280546113cc90612313565b80156114175780601f106113ee57610100808354040283529160200191611417565b820191905f5260205f20905b8154815290600101906020018083116113fa57829003601f168201915b50505050508152602001600582016040518060600160405290815f8201548152602001600182015481526020016002820154815250508152602001600882015f9054906101000a900473ffffffffffffffffffffffffffffffffffffffff1673ffffffffffffffffffffffffffffffffffffffff1673ffffffffffffffffffffffffffffffffffffffff1681526020016008820160149054906101000a900460ff1615151515815250509050919050565b6004602052805f5260405f205f91509050805f015490806001015490806002015f9054906101000a900460ff16908060020160019054906101000a900473ffffffffffffffffffffffffffffffffffffffff169080600301805461152b90612313565b80601f016020809104026020016040519081016040528092919081815260200182805461155790612313565b80156115a25780601f10611579576101008083540402835291602001916115a2565b820191905f5260205f20905b81548152906001019060200180831161158557829003601f168201915b5050505050905085565b5f60035f3373ffffffffffffffffffffffffffffffffffffffff1673ffffffffffffffffffffffffffffffffffffffff1681526020019081526020015f206008015f9054906101000a900473ffffffffffffffffffffffffffffffffffffffff1673ffffffffffffffffffffffffffffffffffffffff163373ffffffffffffffffffffffffffffffffffffffff161461167a576040517f08c379a0000000000000000000000000000000000000000000000000000000008152600401611671906123b3565b60405180910390fd5b600160035f3373ffffffffffffffffffffffffffffffffffffffff1673ffffffffffffffffffffffffffffffffffffffff1681526020019081526020015f2060080160146101000a81548160ff0219169083151502179055507f6d7efac66baccbd68bfc53844f2ff4c001783697b68cf36876811f2c96f16e123360035f3373ffffffffffffffffffffffffffffffffffffffff1673ffffffffffffffffffffffffffffffffffffffff1681526020019081526020015f2060080160149054906101000a900460ff166040516117519291906127d6565b60405180910390a16001905090565b50805461176c90612313565b5f825580601f1061177d575061179a565b601f0160209004905f5260205f209081019061179991906117fe565b5b50565b60405180610100016040528060608152602001606081526020016060815260200160608152602001606081526020016117d4611819565b81526020015f73ffffffffffffffffffffffffffffffffffffffff1681526020015f151581525090565b5b80821115611815575f815f9055506001016117ff565b5090565b60405180606001604052805f81526020015f81526020015f81525090565b5f604051905090565b5f80fd5b5f80fd5b5f73ffffffffffffffffffffffffffffffffffffffff82169050919050565b5f61187182611848565b9050919050565b61188181611867565b811461188b575f80fd5b50565b5f8135905061189c81611878565b92915050565b5f602082840312156118b7576118b6611840565b5b5f6118c48482850161188e565b91505092915050565b5f81519050919050565b5f82825260208201905092915050565b5f5b838110156119045780820151818401526020810190506118e9565b5f8484015250505050565b5f601f19601f8301169050919050565b5f611929826118cd565b61193381856118d7565b93506119438185602086016118e7565b61194c8161190f565b840191505092915050565b5f819050919050565b61196981611957565b82525050565b606082015f8201516119835f850182611960565b5060208201516119966020850182611960565b5060408201516119a96040850182611960565b50505050565b6119b881611867565b82525050565b5f8115159050919050565b6119d2816119be565b82525050565b5f610140820190508181035f8301526119f1818b61191f565b90508181036020830152611a05818a61191f565b90508181036040830152611a19818961191f565b90508181036060830152611a2d818861191f565b90508181036080830152611a41818761191f565b9050611a5060a083018661196f565b611a5e6101008301856119af565b611a6c6101208301846119c9565b9998505050505050505050565b5f602082019050611a8c5f8301846119c9565b92915050565b5f80fd5b5f80fd5b7f4e487b71000000000000000000000000000000000000000000000000000000005f52604160045260245ffd5b611ad08261190f565b810181811067ffffffffffffffff82111715611aef57611aee611a9a565b5b80604052505050565b5f611b01611837565b9050611b0d8282611ac7565b919050565b5f67ffffffffffffffff821115611b2c57611b2b611a9a565b5b611b358261190f565b9050602081019050919050565b828183375f83830152505050565b5f611b62611b5d84611b12565b611af8565b905082815260208101848484011115611b7e57611b7d611a96565b5b611b89848285611b42565b509392505050565b5f82601f830112611ba557611ba4611a92565b5b8135611bb5848260208601611b50565b91505092915050565b611bc781611957565b8114611bd1575f80fd5b50565b5f81359050611be281611bbe565b92915050565b5f805f805f805f805f6101208a8c031215611c0657611c05611840565b5b5f8a013567ffffffffffffffff811115611c2357611c22611844565b5b611c2f8c828d01611b91565b99505060208a013567ffffffffffffffff811115611c5057611c4f611844565b5b611c5c8c828d01611b91565b98505060408a013567ffffffffffffffff811115611c7d57611c7c611844565b5b611c898c828d01611b91565b97505060608a013567ffffffffffffffff811115611caa57611ca9611844565b5b611cb68c828d01611b91565b9650506080611cc78c828d01611bd4565b95505060a0611cd88c828d01611bd4565b94505060c0611ce98c828d01611bd4565b93505060e08a013567ffffffffffffffff811115611d0a57611d09611844565b5b611d168c828d01611b91565b925050610100611d288c828d0161188e565b9150509295985092959850929598565b5f8060408385031215611d4e57611d4d611840565b5b5f83013567ffffffffffffffff811115611d6b57611d6a611844565b5b611d7785828601611b91565b925050602083013567ffffffffffffffff811115611d9857611d97611844565b5b611da485828601611b91565b9150509250929050565b5f81519050919050565b5f82825260208201905092915050565b5f819050602082019050919050565b5f82825260208201905092915050565b5f611df1826118cd565b611dfb8185611dd7565b9350611e0b8185602086016118e7565b611e148161190f565b840191505092915050565b606082015f820151611e335f850182611960565b506020820151611e466020850182611960565b506040820151611e596040850182611960565b50505050565b611e6881611867565b82525050565b611e77816119be565b82525050565b5f61014083015f8301518482035f860152611e988282611de7565b91505060208301518482036020860152611eb28282611de7565b91505060408301518482036040860152611ecc8282611de7565b91505060608301518482036060860152611ee68282611de7565b91505060808301518482036080860152611f008282611de7565b91505060a0830151611f1560a0860182611e1f565b5060c0830151611f29610100860182611e5f565b5060e0830151611f3d610120860182611e6e565b508091505092915050565b5f611f538383611e7d565b905092915050565b5f602082019050919050565b5f611f7182611dae565b611f7b8185611db8565b935083602082028501611f8d85611dc8565b805f5b85811015611fc85784840389528151611fa98582611f48565b9450611fb483611f5b565b925060208a01995050600181019050611f90565b50829750879550505050505092915050565b5f6020820190508181035f830152611ff28184611f67565b905092915050565b5f6020828403121561200f5761200e611840565b5b5f61201c84828501611bd4565b91505092915050565b5f6020820190506120385f8301846119af565b92915050565b5f61014083015f8301518482035f8601526120598282611de7565b915050602083015184820360208601526120738282611de7565b9150506040830151848203604086015261208d8282611de7565b915050606083015184820360608601526120a78282611de7565b915050608083015184820360808601526120c18282611de7565b91505060a08301516120d660a0860182611e1f565b5060c08301516120ea610100860182611e5f565b5060e08301516120fe610120860182611e6e565b508091505092915050565b5f6020820190508181035f830152612121818461203e565b905092915050565b61213281611957565b82525050565b7f4e487b71000000000000000000000000000000000000000000000000000000005f52602160045260245ffd5b6003811061217657612175612138565b5b50565b5f81905061218682612165565b919050565b5f61219582612179565b9050919050565b6121a58161218b565b82525050565b5f60a0820190506121be5f830188612129565b6121cb6020830187612129565b6121d8604083018661219c565b6121e560608301856119af565b81810360808301526121f7818461191f565b90509695505050505050565b61220c816119be565b8114612216575f80fd5b50565b5f8151905061222781612203565b92915050565b5f6020828403121561224257612241611840565b5b5f61224f84828501612219565b91505092915050565b7f6f6e6c7920776f726b65722063616e20616363657373207468652066656174755f8201527f7265000000000000000000000000000000000000000000000000000000000000602082015250565b5f6122b26022836118d7565b91506122bd82612258565b604082019050919050565b5f6020820190508181035f8301526122df816122a6565b9050919050565b7f4e487b71000000000000000000000000000000000000000000000000000000005f52602260045260245ffd5b5f600282049050600182168061232a57607f821691505b60208210810361233d5761233c6122e6565b5b50919050565b7f7573657220646f65736e2774206f776e20746865207265736f7572636520746f5f8201527f206163636573732e000000000000000000000000000000000000000000000000602082015250565b5f61239d6028836118d7565b91506123a882612343565b604082019050919050565b5f6020820190508181035f8301526123ca81612391565b9050919050565b7f70617469656e74207769746820676976656e20656d61696c20616c72656164795f8201527f2065786973747300000000000000000000000000000000000000000000000000602082015250565b5f61242b6027836118d7565b9150612436826123d1565b604082019050919050565b5f6020820190508181035f8301526124588161241f565b9050919050565b7f4e487b71000000000000000000000000000000000000000000000000000000005f52601160045260245ffd5b5f61249682611957565b91506124a183611957565b92508282019050808211156124b9576124b861245f565b5b92915050565b5f819050815f5260205f209050919050565b5f6020601f8301049050919050565b5f82821b905092915050565b5f6008830261251b7fffffffffffffffffffffffffffffffffffffffffffffffffffffffffffffffff826124e0565b61252586836124e0565b95508019841693508086168417925050509392505050565b5f819050919050565b5f61256061255b61255684611957565b61253d565b611957565b9050919050565b5f819050919050565b61257983612546565b61258d61258582612567565b8484546124ec565b825550505050565b5f90565b6125a1612595565b6125ac818484612570565b505050565b5b818110156125cf576125c45f82612599565b6001810190506125b2565b5050565b601f821115612614576125e5816124bf565b6125ee846124d1565b810160208510156125fd578190505b612611612609856124d1565b8301826125b1565b50505b505050565b5f82821c905092915050565b5f6126345f1984600802612619565b1980831691505092915050565b5f61264c8383612625565b9150826002028217905092915050565b612665826118cd565b67ffffffffffffffff81111561267e5761267d611a9a565b5b6126888254612313565b6126938282856125d3565b5f60209050601f8311600181146126c4575f84156126b2578287015190505b6126bc8582612641565b865550612723565b601f1984166126d2866124bf565b5f5b828110156126f9578489015182556001820191506020850194506020810190506126d4565b868310156127165784890151612712601f891682612625565b8355505b6001600288020188555050505b505050505050565b5f60408201905061273e5f830185612129565b8181036020830152612750818461191f565b90509392505050565b5f81905092915050565b5f61276d826118cd565b6127778185612759565b93506127878185602086016118e7565b80840191505092915050565b5f61279e8284612763565b915081905092915050565b7f4e487b71000000000000000000000000000000000000000000000000000000005f52603260045260245ffd5b5f6040820190506127e95f8301856119af565b6127f660208301846119c9565b939250505056fea2646970667358221220c86303af8d2c80333f353307c41d0c4c097ce45005e1f2a6dc283b446df2a85664736f6c63430008160033",
					"opcodes": "PUSH1 0x80 PUSH1 0x40 MSTORE CALLVALUE DUP1 ISZERO PUSH3 0x10 JUMPI PUSH0 DUP1 REVERT JUMPDEST POP PUSH1 0x40 MLOAD PUSH3 0x2952 CODESIZE SUB DUP1 PUSH3 0x2952 DUP4 CODECOPY DUP2 DUP2 ADD PUSH1 0x40 MSTORE DUP2 ADD SWAP1 PUSH3 0x36 SWAP2 SWAP1 PUSH3 0xE1 JUMP JUMPDEST DUP1 PUSH0 DUP1 PUSH2 0x100 EXP DUP2 SLOAD DUP2 PUSH20 0xFFFFFFFFFFFFFFFFFFFFFFFFFFFFFFFFFFFFFFFF MUL NOT AND SWAP1 DUP4 PUSH20 0xFFFFFFFFFFFFFFFFFFFFFFFFFFFFFFFFFFFFFFFF AND MUL OR SWAP1 SSTORE POP POP PUSH3 0x111 JUMP JUMPDEST PUSH0 DUP1 REVERT JUMPDEST PUSH0 PUSH20 0xFFFFFFFFFFFFFFFFFFFFFFFFFFFFFFFFFFFFFFFF DUP3 AND SWAP1 POP SWAP2 SWAP1 POP JUMP JUMPDEST PUSH0 PUSH3 0xAB DUP3 PUSH3 0x80 JUMP JUMPDEST SWAP1 POP SWAP2 SWAP1 POP JUMP JUMPDEST PUSH3 0xBD DUP2 PUSH3 0x9F JUMP JUMPDEST DUP2 EQ PUSH3 0xC8 JUMPI PUSH0 DUP1 REVERT JUMPDEST POP JUMP JUMPDEST PUSH0 DUP2 MLOAD SWAP1 POP PUSH3 0xDB DUP2 PUSH3 0xB2 JUMP JUMPDEST SWAP3 SWAP2 POP POP JUMP JUMPDEST PUSH0 PUSH1 0x20 DUP3 DUP5 SUB SLT ISZERO PUSH3 0xF9 JUMPI PUSH3 0xF8 PUSH3 0x7C JUMP JUMPDEST JUMPDEST PUSH0 PUSH3 0x108 DUP5 DUP3 DUP6 ADD PUSH3 0xCB JUMP JUMPDEST SWAP2 POP POP SWAP3 SWAP2 POP POP JUMP JUMPDEST PUSH2 0x2833 DUP1 PUSH3 0x11F PUSH0 CODECOPY PUSH0 RETURN INVALID PUSH1 0x80 PUSH1 0x40 MSTORE CALLVALUE DUP1 ISZERO PUSH2 0xF JUMPI PUSH0 DUP1 REVERT JUMPDEST POP PUSH1 0x4 CALLDATASIZE LT PUSH2 0x9C JUMPI PUSH0 CALLDATALOAD PUSH1 0xE0 SHR DUP1 PUSH4 0x8C8350FD GT PUSH2 0x64 JUMPI DUP1 PUSH4 0x8C8350FD EQ PUSH2 0x183 JUMPI DUP1 PUSH4 0x96E4E141 EQ PUSH2 0x1A1 JUMPI DUP1 PUSH4 0xB5368E20 EQ PUSH2 0x1D1 JUMPI DUP1 PUSH4 0xB7997777 EQ PUSH2 0x201 JUMPI DUP1 PUSH4 0xE7480F72 EQ PUSH2 0x235 JUMPI PUSH2 0x9C JUMP JUMPDEST DUP1 PUSH4 0x2513ED2 EQ PUSH2 0xA0 JUMPI DUP1 PUSH4 0x869CFBC EQ PUSH2 0xBC JUMPI DUP1 PUSH4 0x1B45309C EQ PUSH2 0xF3 JUMPI DUP1 PUSH4 0x7535917A EQ PUSH2 0x123 JUMPI DUP1 PUSH4 0x75B83187 EQ PUSH2 0x153 JUMPI JUMPDEST PUSH0 DUP1 REVERT JUMPDEST PUSH2 0xBA PUSH1 0x4 DUP1 CALLDATASIZE SUB DUP2 ADD SWAP1 PUSH2 0xB5 SWAP2 SWAP1 PUSH2 0x18A2 JUMP JUMPDEST PUSH2 0x253 JUMP JUMPDEST STOP JUMPDEST PUSH2 0xD6 PUSH1 0x4 DUP1 CALLDATASIZE SUB DUP2 ADD SWAP1 PUSH2 0xD1 SWAP2 SWAP1 PUSH2 0x18A2 JUMP JUMPDEST PUSH2 0x442 JUMP JUMPDEST PUSH1 0x40 MLOAD PUSH2 0xEA SWAP9 SWAP8 SWAP7 SWAP6 SWAP5 SWAP4 SWAP3 SWAP2 SWAP1 PUSH2 0x19D8 JUMP JUMPDEST PUSH1 0x40 MLOAD DUP1 SWAP2 SUB SWAP1 RETURN JUMPDEST PUSH2 0x10D PUSH1 0x4 DUP1 CALLDATASIZE SUB DUP2 ADD SWAP1 PUSH2 0x108 SWAP2 SWAP1 PUSH2 0x18A2 JUMP JUMPDEST PUSH2 0x777 JUMP JUMPDEST PUSH1 0x40 MLOAD PUSH2 0x11A SWAP2 SWAP1 PUSH2 0x1A79 JUMP JUMPDEST PUSH1 0x40 MLOAD DUP1 SWAP2 SUB SWAP1 RETURN JUMPDEST PUSH2 0x13D PUSH1 0x4 DUP1 CALLDATASIZE SUB DUP2 ADD SWAP1 PUSH2 0x138 SWAP2 SWAP1 PUSH2 0x1BE8 JUMP JUMPDEST PUSH2 0x885 JUMP JUMPDEST PUSH1 0x40 MLOAD PUSH2 0x14A SWAP2 SWAP1 PUSH2 0x1A79 JUMP JUMPDEST PUSH1 0x40 MLOAD DUP1 SWAP2 SUB SWAP1 RETURN JUMPDEST PUSH2 0x16D PUSH1 0x4 DUP1 CALLDATASIZE SUB DUP2 ADD SWAP1 PUSH2 0x168 SWAP2 SWAP1 PUSH2 0x1D38 JUMP JUMPDEST PUSH2 0xBF5 JUMP JUMPDEST PUSH1 0x40 MLOAD PUSH2 0x17A SWAP2 SWAP1 PUSH2 0x1A79 JUMP JUMPDEST PUSH1 0x40 MLOAD DUP1 SWAP2 SUB SWAP1 RETURN JUMPDEST PUSH2 0x18B PUSH2 0xC4D JUMP JUMPDEST PUSH1 0x40 MLOAD PUSH2 0x198 SWAP2 SWAP1 PUSH2 0x1FDA JUMP JUMPDEST PUSH1 0x40 MLOAD DUP1 SWAP2 SUB SWAP1 RETURN JUMPDEST PUSH2 0x1BB PUSH1 0x4 DUP1 CALLDATASIZE SUB DUP2 ADD SWAP1 PUSH2 0x1B6 SWAP2 SWAP1 PUSH2 0x1FFA JUMP JUMPDEST PUSH2 0x10D0 JUMP JUMPDEST PUSH1 0x40 MLOAD PUSH2 0x1C8 SWAP2 SWAP1 PUSH2 0x2025 JUMP JUMPDEST PUSH1 0x40 MLOAD DUP1 SWAP2 SUB SWAP1 RETURN JUMPDEST PUSH2 0x1EB PUSH1 0x4 DUP1 CALLDATASIZE SUB DUP2 ADD SWAP1 PUSH2 0x1E6 SWAP2 SWAP1 PUSH2 0x18A2 JUMP JUMPDEST PUSH2 0x1100 JUMP JUMPDEST PUSH1 0x40 MLOAD PUSH2 0x1F8 SWAP2 SWAP1 PUSH2 0x2109 JUMP JUMPDEST PUSH1 0x40 MLOAD DUP1 SWAP2 SUB SWAP1 RETURN JUMPDEST PUSH2 0x21B PUSH1 0x4 DUP1 CALLDATASIZE SUB DUP2 ADD SWAP1 PUSH2 0x216 SWAP2 SWAP1 PUSH2 0x18A2 JUMP JUMPDEST PUSH2 0x14C8 JUMP JUMPDEST PUSH1 0x40 MLOAD PUSH2 0x22C SWAP6 SWAP5 SWAP4 SWAP3 SWAP2 SWAP1 PUSH2 0x21AB JUMP JUMPDEST PUSH1 0x40 MLOAD DUP1 SWAP2 SUB SWAP1 RETURN JUMPDEST PUSH2 0x23D PUSH2 0x15AC JUMP JUMPDEST PUSH1 0x40 MLOAD PUSH2 0x24A SWAP2 SWAP1 PUSH2 0x1A79 JUMP JUMPDEST PUSH1 0x40 MLOAD DUP1 SWAP2 SUB SWAP1 RETURN JUMPDEST PUSH0 DUP1 SLOAD SWAP1 PUSH2 0x100 EXP SWAP1 DIV PUSH20 0xFFFFFFFFFFFFFFFFFFFFFFFFFFFFFFFFFFFFFFFF AND PUSH20 0xFFFFFFFFFFFFFFFFFFFFFFFFFFFFFFFFFFFFFFFF AND PUSH4 0xF7BEA9F3 CALLER PUSH1 0x40 MLOAD DUP3 PUSH4 0xFFFFFFFF AND PUSH1 0xE0 SHL DUP2 MSTORE PUSH1 0x4 ADD PUSH2 0x2AB SWAP2 SWAP1 PUSH2 0x2025 JUMP JUMPDEST PUSH1 0x20 PUSH1 0x40 MLOAD DUP1 DUP4 SUB DUP2 DUP7 GAS STATICCALL ISZERO DUP1 ISZERO PUSH2 0x2C6 JUMPI RETURNDATASIZE PUSH0 DUP1 RETURNDATACOPY RETURNDATASIZE PUSH0 REVERT JUMPDEST POP POP POP POP PUSH1 0x40 MLOAD RETURNDATASIZE PUSH1 0x1F NOT PUSH1 0x1F DUP3 ADD AND DUP3 ADD DUP1 PUSH1 0x40 MSTORE POP DUP2 ADD SWAP1 PUSH2 0x2EA SWAP2 SWAP1 PUSH2 0x222D JUMP JUMPDEST PUSH2 0x329 JUMPI PUSH1 0x40 MLOAD PUSH32 0x8C379A000000000000000000000000000000000000000000000000000000000 DUP2 MSTORE PUSH1 0x4 ADD PUSH2 0x320 SWAP1 PUSH2 0x22C8 JUMP JUMPDEST PUSH1 0x40 MLOAD DUP1 SWAP2 SUB SWAP1 REVERT JUMPDEST PUSH1 0x3 PUSH0 DUP3 PUSH20 0xFFFFFFFFFFFFFFFFFFFFFFFFFFFFFFFFFFFFFFFF AND PUSH20 0xFFFFFFFFFFFFFFFFFFFFFFFFFFFFFFFFFFFFFFFF AND DUP2 MSTORE PUSH1 0x20 ADD SWAP1 DUP2 MSTORE PUSH1 0x20 ADD PUSH0 KECCAK256 PUSH0 DUP1 DUP3 ADD PUSH0 PUSH2 0x375 SWAP2 SWAP1 PUSH2 0x1760 JUMP JUMPDEST PUSH1 0x1 DUP3 ADD PUSH0 PUSH2 0x384 SWAP2 SWAP1 PUSH2 0x1760 JUMP JUMPDEST PUSH1 0x2 DUP3 ADD PUSH0 PUSH2 0x393 SWAP2 SWAP1 PUSH2 0x1760 JUMP JUMPDEST PUSH1 0x3 DUP3 ADD PUSH0 PUSH2 0x3A2 SWAP2 SWAP1 PUSH2 0x1760 JUMP JUMPDEST PUSH1 0x4 DUP3 ADD PUSH0 PUSH2 0x3B1 SWAP2 SWAP1 PUSH2 0x1760 JUMP JUMPDEST PUSH1 0x5 DUP3 ADD PUSH0 DUP1 DUP3 ADD PUSH0 SWAP1 SSTORE PUSH1 0x1 DUP3 ADD PUSH0 SWAP1 SSTORE PUSH1 0x2 DUP3 ADD PUSH0 SWAP1 SSTORE POP POP PUSH1 0x8 DUP3 ADD PUSH0 PUSH2 0x100 EXP DUP2 SLOAD SWAP1 PUSH20 0xFFFFFFFFFFFFFFFFFFFFFFFFFFFFFFFFFFFFFFFF MUL NOT AND SWAP1 SSTORE PUSH1 0x8 DUP3 ADD PUSH1 0x14 PUSH2 0x100 EXP DUP2 SLOAD SWAP1 PUSH1 0xFF MUL NOT AND SWAP1 SSTORE POP POP PUSH32 0xDE39BE920C3839F8060BF8F49FEF3956F673E91B0C3BD11A980FD926B25B8DC6 DUP2 PUSH1 0x40 MLOAD PUSH2 0x437 SWAP2 SWAP1 PUSH2 0x2025 JUMP JUMPDEST PUSH1 0x40 MLOAD DUP1 SWAP2 SUB SWAP1 LOG1 POP JUMP JUMPDEST PUSH1 0x3 PUSH1 0x20 MSTORE DUP1 PUSH0 MSTORE PUSH1 0x40 PUSH0 KECCAK256 PUSH0 SWAP2 POP SWAP1 POP DUP1 PUSH0 ADD DUP1 SLOAD PUSH2 0x461 SWAP1 PUSH2 0x2313 JUMP JUMPDEST DUP1 PUSH1 0x1F ADD PUSH1 0x20 DUP1 SWAP2 DIV MUL PUSH1 0x20 ADD PUSH1 0x40 MLOAD SWAP1 DUP2 ADD PUSH1 0x40 MSTORE DUP1 SWAP3 SWAP2 SWAP1 DUP2 DUP2 MSTORE PUSH1 0x20 ADD DUP3 DUP1 SLOAD PUSH2 0x48D SWAP1 PUSH2 0x2313 JUMP JUMPDEST DUP1 ISZERO PUSH2 0x4D8 JUMPI DUP1 PUSH1 0x1F LT PUSH2 0x4AF JUMPI PUSH2 0x100 DUP1 DUP4 SLOAD DIV MUL DUP4 MSTORE SWAP2 PUSH1 0x20 ADD SWAP2 PUSH2 0x4D8 JUMP JUMPDEST DUP3 ADD SWAP2 SWAP1 PUSH0 MSTORE PUSH1 0x20 PUSH0 KECCAK256 SWAP1 JUMPDEST DUP2 SLOAD DUP2 MSTORE SWAP1 PUSH1 0x1 ADD SWAP1 PUSH1 0x20 ADD DUP1 DUP4 GT PUSH2 0x4BB JUMPI DUP3 SWAP1 SUB PUSH1 0x1F AND DUP3 ADD SWAP2 JUMPDEST POP POP POP POP POP SWAP1 DUP1 PUSH1 0x1 ADD DUP1 SLOAD PUSH2 0x4ED SWAP1 PUSH2 0x2313 JUMP JUMPDEST DUP1 PUSH1 0x1F ADD PUSH1 0x20 DUP1 SWAP2 DIV MUL PUSH1 0x20 ADD PUSH1 0x40 MLOAD SWAP1 DUP2 ADD PUSH1 0x40 MSTORE DUP1 SWAP3 SWAP2 SWAP1 DUP2 DUP2 MSTORE PUSH1 0x20 ADD DUP3 DUP1 SLOAD PUSH2 0x519 SWAP1 PUSH2 0x2313 JUMP JUMPDEST DUP1 ISZERO PUSH2 0x564 JUMPI DUP1 PUSH1 0x1F LT PUSH2 0x53B JUMPI PUSH2 0x100 DUP1 DUP4 SLOAD DIV MUL DUP4 MSTORE SWAP2 PUSH1 0x20 ADD SWAP2 PUSH2 0x564 JUMP JUMPDEST DUP3 ADD SWAP2 SWAP1 PUSH0 MSTORE PUSH1 0x20 PUSH0 KECCAK256 SWAP1 JUMPDEST DUP2 SLOAD DUP2 MSTORE SWAP1 PUSH1 0x1 ADD SWAP1 PUSH1 0x20 ADD DUP1 DUP4 GT PUSH2 0x547 JUMPI DUP3 SWAP1 SUB PUSH1 0x1F AND DUP3 ADD SWAP2 JUMPDEST POP POP POP POP POP SWAP1 DUP1 PUSH1 0x2 ADD DUP1 SLOAD PUSH2 0x579 SWAP1 PUSH2 0x2313 JUMP JUMPDEST DUP1 PUSH1 0x1F ADD PUSH1 0x20 DUP1 SWAP2 DIV MUL PUSH1 0x20 ADD PUSH1 0x40 MLOAD SWAP1 DUP2 ADD PUSH1 0x40 MSTORE DUP1 SWAP3 SWAP2 SWAP1 DUP2 DUP2 MSTORE PUSH1 0x20 ADD DUP3 DUP1 SLOAD PUSH2 0x5A5 SWAP1 PUSH2 0x2313 JUMP JUMPDEST DUP1 ISZERO PUSH2 0x5F0 JUMPI DUP1 PUSH1 0x1F LT PUSH2 0x5C7 JUMPI PUSH2 0x100 DUP1 DUP4 SLOAD DIV MUL DUP4 MSTORE SWAP2 PUSH1 0x20 ADD SWAP2 PUSH2 0x5F0 JUMP JUMPDEST DUP3 ADD SWAP2 SWAP1 PUSH0 MSTORE PUSH1 0x20 PUSH0 KECCAK256 SWAP1 JUMPDEST DUP2 SLOAD DUP2 MSTORE SWAP1 PUSH1 0x1 ADD SWAP1 PUSH1 0x20 ADD DUP1 DUP4 GT PUSH2 0x5D3 JUMPI DUP3 SWAP1 SUB PUSH1 0x1F AND DUP3 ADD SWAP2 JUMPDEST POP POP POP POP POP SWAP1 DUP1 PUSH1 0x3 ADD DUP1 SLOAD PUSH2 0x605 SWAP1 PUSH2 0x2313 JUMP JUMPDEST DUP1 PUSH1 0x1F ADD PUSH1 0x20 DUP1 SWAP2 DIV MUL PUSH1 0x20 ADD PUSH1 0x40 MLOAD SWAP1 DUP2 ADD PUSH1 0x40 MSTORE DUP1 SWAP3 SWAP2 SWAP1 DUP2 DUP2 MSTORE PUSH1 0x20 ADD DUP3 DUP1 SLOAD PUSH2 0x631 SWAP1 PUSH2 0x2313 JUMP JUMPDEST DUP1 ISZERO PUSH2 0x67C JUMPI DUP1 PUSH1 0x1F LT PUSH2 0x653 JUMPI PUSH2 0x100 DUP1 DUP4 SLOAD DIV MUL DUP4 MSTORE SWAP2 PUSH1 0x20 ADD SWAP2 PUSH2 0x67C JUMP JUMPDEST DUP3 ADD SWAP2 SWAP1 PUSH0 MSTORE PUSH1 0x20 PUSH0 KECCAK256 SWAP1 JUMPDEST DUP2 SLOAD DUP2 MSTORE SWAP1 PUSH1 0x1 ADD SWAP1 PUSH1 0x20 ADD DUP1 DUP4 GT PUSH2 0x65F JUMPI DUP3 SWAP1 SUB PUSH1 0x1F AND DUP3 ADD SWAP2 JUMPDEST POP POP POP POP POP SWAP1 DUP1 PUSH1 0x4 ADD DUP1 SLOAD PUSH2 0x691 SWAP1 PUSH2 0x2313 JUMP JUMPDEST DUP1 PUSH1 0x1F ADD PUSH1 0x20 DUP1 SWAP2 DIV MUL PUSH1 0x20 ADD PUSH1 0x40 MLOAD SWAP1 DUP2 ADD PUSH1 0x40 MSTORE DUP1 SWAP3 SWAP2 SWAP1 DUP2 DUP2 MSTORE PUSH1 0x20 ADD DUP3 DUP1 SLOAD PUSH2 0x6BD SWAP1 PUSH2 0x2313 JUMP JUMPDEST DUP1 ISZERO PUSH2 0x708 JUMPI DUP1 PUSH1 0x1F LT PUSH2 0x6DF JUMPI PUSH2 0x100 DUP1 DUP4 SLOAD DIV MUL DUP4 MSTORE SWAP2 PUSH1 0x20 ADD SWAP2 PUSH2 0x708 JUMP JUMPDEST DUP3 ADD SWAP2 SWAP1 PUSH0 MSTORE PUSH1 0x20 PUSH0 KECCAK256 SWAP1 JUMPDEST DUP2 SLOAD DUP2 MSTORE SWAP1 PUSH1 0x1 ADD SWAP1 PUSH1 0x20 ADD DUP1 DUP4 GT PUSH2 0x6EB JUMPI DUP3 SWAP1 SUB PUSH1 0x1F AND DUP3 ADD SWAP2 JUMPDEST POP POP POP POP POP SWAP1 DUP1 PUSH1 0x5 ADD PUSH1 0x40 MLOAD DUP1 PUSH1 0x60 ADD PUSH1 0x40 MSTORE SWAP1 DUP2 PUSH0 DUP3 ADD SLOAD DUP2 MSTORE PUSH1 0x20 ADD PUSH1 0x1 DUP3 ADD SLOAD DUP2 MSTORE PUSH1 0x20 ADD PUSH1 0x2 DUP3 ADD SLOAD DUP2 MSTORE POP POP SWAP1 DUP1 PUSH1 0x8 ADD PUSH0 SWAP1 SLOAD SWAP1 PUSH2 0x100 EXP SWAP1 DIV PUSH20 0xFFFFFFFFFFFFFFFFFFFFFFFFFFFFFFFFFFFFFFFF AND SWAP1 DUP1 PUSH1 0x8 ADD PUSH1 0x14 SWAP1 SLOAD SWAP1 PUSH2 0x100 EXP SWAP1 DIV PUSH1 0xFF AND SWAP1 POP DUP9 JUMP JUMPDEST PUSH0 PUSH1 0x3 PUSH0 CALLER PUSH20 0xFFFFFFFFFFFFFFFFFFFFFFFFFFFFFFFFFFFFFFFF AND PUSH20 0xFFFFFFFFFFFFFFFFFFFFFFFFFFFFFFFFFFFFFFFF AND DUP2 MSTORE PUSH1 0x20 ADD SWAP1 DUP2 MSTORE PUSH1 0x20 ADD PUSH0 KECCAK256 PUSH1 0x8 ADD PUSH0 SWAP1 SLOAD SWAP1 PUSH2 0x100 EXP SWAP1 DIV PUSH20 0xFFFFFFFFFFFFFFFFFFFFFFFFFFFFFFFFFFFFFFFF AND PUSH20 0xFFFFFFFFFFFFFFFFFFFFFFFFFFFFFFFFFFFFFFFF AND CALLER PUSH20 0xFFFFFFFFFFFFFFFFFFFFFFFFFFFFFFFFFFFFFFFF AND EQ PUSH2 0x845 JUMPI PUSH1 0x40 MLOAD PUSH32 0x8C379A000000000000000000000000000000000000000000000000000000000 DUP2 MSTORE PUSH1 0x4 ADD PUSH2 0x83C SWAP1 PUSH2 0x23B3 JUMP JUMPDEST PUSH1 0x40 MLOAD DUP1 SWAP2 SUB SWAP1 REVERT JUMPDEST PUSH32 0xFA5F927B53F620BCAFA0ADE5E255C4CC32AE798DA7F282749AAC6C5620F4E0AC DUP3 PUSH1 0x40 MLOAD PUSH2 0x874 SWAP2 SWAP1 PUSH2 0x2025 JUMP JUMPDEST PUSH1 0x40 MLOAD DUP1 SWAP2 SUB SWAP1 LOG1 PUSH1 0x1 SWAP1 POP SWAP2 SWAP1 POP JUMP JUMPDEST PUSH0 PUSH2 0x956 DUP9 PUSH1 0x3 PUSH0 DUP6 PUSH20 0xFFFFFFFFFFFFFFFFFFFFFFFFFFFFFFFFFFFFFFFF AND PUSH20 0xFFFFFFFFFFFFFFFFFFFFFFFFFFFFFFFFFFFFFFFF AND DUP2 MSTORE PUSH1 0x20 ADD SWAP1 DUP2 MSTORE PUSH1 0x20 ADD PUSH0 KECCAK256 PUSH1 0x2 ADD DUP1 SLOAD PUSH2 0x8D5 SWAP1 PUSH2 0x2313 JUMP JUMPDEST DUP1 PUSH1 0x1F ADD PUSH1 0x20 DUP1 SWAP2 DIV MUL PUSH1 0x20 ADD PUSH1 0x40 MLOAD SWAP1 DUP2 ADD PUSH1 0x40 MSTORE DUP1 SWAP3 SWAP2 SWAP1 DUP2 DUP2 MSTORE PUSH1 0x20 ADD DUP3 DUP1 SLOAD PUSH2 0x901 SWAP1 PUSH2 0x2313 JUMP JUMPDEST DUP1 ISZERO PUSH2 0x94C JUMPI DUP1 PUSH1 0x1F LT PUSH2 0x923 JUMPI PUSH2 0x100 DUP1 DUP4 SLOAD DIV MUL DUP4 MSTORE SWAP2 PUSH1 0x20 ADD SWAP2 PUSH2 0x94C JUMP JUMPDEST DUP3 ADD SWAP2 SWAP1 PUSH0 MSTORE PUSH1 0x20 PUSH0 KECCAK256 SWAP1 JUMPDEST DUP2 SLOAD DUP2 MSTORE SWAP1 PUSH1 0x1 ADD SWAP1 PUSH1 0x20 ADD DUP1 DUP4 GT PUSH2 0x92F JUMPI DUP3 SWAP1 SUB PUSH1 0x1F AND DUP3 ADD SWAP2 JUMPDEST POP POP POP POP POP PUSH2 0xBF5 JUMP JUMPDEST ISZERO PUSH2 0x996 JUMPI PUSH1 0x40 MLOAD PUSH32 0x8C379A000000000000000000000000000000000000000000000000000000000 DUP2 MSTORE PUSH1 0x4 ADD PUSH2 0x98D SWAP1 PUSH2 0x2441 JUMP JUMPDEST PUSH1 0x40 MLOAD DUP1 SWAP2 SUB SWAP1 REVERT JUMPDEST PUSH0 PUSH1 0x40 MLOAD DUP1 PUSH1 0x60 ADD PUSH1 0x40 MSTORE DUP1 DUP9 DUP2 MSTORE PUSH1 0x20 ADD DUP8 DUP2 MSTORE PUSH1 0x20 ADD DUP7 DUP2 MSTORE POP SWAP1 POP DUP3 PUSH1 0x2 PUSH0 PUSH1 0x1 SLOAD DUP2 MSTORE PUSH1 0x20 ADD SWAP1 DUP2 MSTORE PUSH1 0x20 ADD PUSH0 KECCAK256 PUSH0 PUSH2 0x100 EXP DUP2 SLOAD DUP2 PUSH20 0xFFFFFFFFFFFFFFFFFFFFFFFFFFFFFFFFFFFFFFFF MUL NOT AND SWAP1 DUP4 PUSH20 0xFFFFFFFFFFFFFFFFFFFFFFFFFFFFFFFFFFFFFFFF AND MUL OR SWAP1 SSTORE POP PUSH1 0x1 DUP1 PUSH0 DUP3 DUP3 SLOAD PUSH2 0xA16 SWAP2 SWAP1 PUSH2 0x248C JUMP JUMPDEST SWAP3 POP POP DUP2 SWAP1 SSTORE POP PUSH1 0x40 MLOAD DUP1 PUSH2 0x100 ADD PUSH1 0x40 MSTORE DUP1 DUP13 DUP2 MSTORE PUSH1 0x20 ADD DUP12 DUP2 MSTORE PUSH1 0x20 ADD DUP11 DUP2 MSTORE PUSH1 0x20 ADD DUP10 DUP2 MSTORE PUSH1 0x20 ADD DUP6 DUP2 MSTORE PUSH1 0x20 ADD DUP3 DUP2 MSTORE PUSH1 0x20 ADD DUP5 PUSH20 0xFFFFFFFFFFFFFFFFFFFFFFFFFFFFFFFFFFFFFFFF AND DUP2 MSTORE PUSH1 0x20 ADD PUSH0 ISZERO ISZERO DUP2 MSTORE POP PUSH1 0x3 PUSH0 DUP6 PUSH20 0xFFFFFFFFFFFFFFFFFFFFFFFFFFFFFFFFFFFFFFFF AND PUSH20 0xFFFFFFFFFFFFFFFFFFFFFFFFFFFFFFFFFFFFFFFF AND DUP2 MSTORE PUSH1 0x20 ADD SWAP1 DUP2 MSTORE PUSH1 0x20 ADD PUSH0 KECCAK256 PUSH0 DUP3 ADD MLOAD DUP2 PUSH0 ADD SWAP1 DUP2 PUSH2 0xABF SWAP2 SWAP1 PUSH2 0x265C JUMP JUMPDEST POP PUSH1 0x20 DUP3 ADD MLOAD DUP2 PUSH1 0x1 ADD SWAP1 DUP2 PUSH2 0xAD5 SWAP2 SWAP1 PUSH2 0x265C JUMP JUMPDEST POP PUSH1 0x40 DUP3 ADD MLOAD DUP2 PUSH1 0x2 ADD SWAP1 DUP2 PUSH2 0xAEB SWAP2 SWAP1 PUSH2 0x265C JUMP JUMPDEST POP PUSH1 0x60 DUP3 ADD MLOAD DUP2 PUSH1 0x3 ADD SWAP1 DUP2 PUSH2 0xB01 SWAP2 SWAP1 PUSH2 0x265C JUMP JUMPDEST POP PUSH1 0x80 DUP3 ADD MLOAD DUP2 PUSH1 0x4 ADD SWAP1 DUP2 PUSH2 0xB17 SWAP2 SWAP1 PUSH2 0x265C JUMP JUMPDEST POP PUSH1 0xA0 DUP3 ADD MLOAD DUP2 PUSH1 0x5 ADD PUSH0 DUP3 ADD MLOAD DUP2 PUSH0 ADD SSTORE PUSH1 0x20 DUP3 ADD MLOAD DUP2 PUSH1 0x1 ADD SSTORE PUSH1 0x40 DUP3 ADD MLOAD DUP2 PUSH1 0x2 ADD SSTORE POP POP PUSH1 0xC0 DUP3 ADD MLOAD DUP2 PUSH1 0x8 ADD PUSH0 PUSH2 0x100 EXP DUP2 SLOAD DUP2 PUSH20 0xFFFFFFFFFFFFFFFFFFFFFFFFFFFFFFFFFFFFFFFF MUL NOT AND SWAP1 DUP4 PUSH20 0xFFFFFFFFFFFFFFFFFFFFFFFFFFFFFFFFFFFFFFFF AND MUL OR SWAP1 SSTORE POP PUSH1 0xE0 DUP3 ADD MLOAD DUP2 PUSH1 0x8 ADD PUSH1 0x14 PUSH2 0x100 EXP DUP2 SLOAD DUP2 PUSH1 0xFF MUL NOT AND SWAP1 DUP4 ISZERO ISZERO MUL OR SWAP1 SSTORE POP SWAP1 POP POP PUSH32 0x134FDA0AE4FAFCA781B872311CCA14CCBFAF969FD15C52F58E9A93DE5D231807 PUSH1 0x1 SLOAD DUP11 PUSH1 0x40 MLOAD PUSH2 0xBDB SWAP3 SWAP2 SWAP1 PUSH2 0x272B JUMP JUMPDEST PUSH1 0x40 MLOAD DUP1 SWAP2 SUB SWAP1 LOG1 PUSH1 0x1 SWAP2 POP POP SWAP10 SWAP9 POP POP POP POP POP POP POP POP POP JUMP JUMPDEST PUSH0 DUP2 PUSH1 0x40 MLOAD PUSH1 0x20 ADD PUSH2 0xC07 SWAP2 SWAP1 PUSH2 0x2793 JUMP JUMPDEST PUSH1 0x40 MLOAD PUSH1 0x20 DUP2 DUP4 SUB SUB DUP2 MSTORE SWAP1 PUSH1 0x40 MSTORE DUP1 MLOAD SWAP1 PUSH1 0x20 ADD KECCAK256 DUP4 PUSH1 0x40 MLOAD PUSH1 0x20 ADD PUSH2 0xC2E SWAP2 SWAP1 PUSH2 0x2793 JUMP JUMPDEST PUSH1 0x40 MLOAD PUSH1 0x20 DUP2 DUP4 SUB SUB DUP2 MSTORE SWAP1 PUSH1 0x40 MSTORE DUP1 MLOAD SWAP1 PUSH1 0x20 ADD KECCAK256 EQ SWAP1 POP SWAP3 SWAP2 POP POP JUMP JUMPDEST PUSH1 0x60 PUSH0 PUSH1 0x1 SLOAD PUSH8 0xFFFFFFFFFFFFFFFF DUP2 GT ISZERO PUSH2 0xC6C JUMPI PUSH2 0xC6B PUSH2 0x1A9A JUMP JUMPDEST JUMPDEST PUSH1 0x40 MLOAD SWAP1 DUP1 DUP3 MSTORE DUP1 PUSH1 0x20 MUL PUSH1 0x20 ADD DUP3 ADD PUSH1 0x40 MSTORE DUP1 ISZERO PUSH2 0xCA5 JUMPI DUP2 PUSH1 0x20 ADD JUMPDEST PUSH2 0xC92 PUSH2 0x179D JUMP JUMPDEST DUP2 MSTORE PUSH1 0x20 ADD SWAP1 PUSH1 0x1 SWAP1 SUB SWAP1 DUP2 PUSH2 0xC8A JUMPI SWAP1 POP JUMPDEST POP SWAP1 POP PUSH0 JUMPDEST PUSH1 0x1 SLOAD DUP2 LT ISZERO PUSH2 0x10C8 JUMPI PUSH1 0x3 PUSH0 PUSH1 0x2 PUSH0 DUP5 DUP2 MSTORE PUSH1 0x20 ADD SWAP1 DUP2 MSTORE PUSH1 0x20 ADD PUSH0 KECCAK256 PUSH0 SWAP1 SLOAD SWAP1 PUSH2 0x100 EXP SWAP1 DIV PUSH20 0xFFFFFFFFFFFFFFFFFFFFFFFFFFFFFFFFFFFFFFFF AND PUSH20 0xFFFFFFFFFFFFFFFFFFFFFFFFFFFFFFFFFFFFFFFF AND PUSH20 0xFFFFFFFFFFFFFFFFFFFFFFFFFFFFFFFFFFFFFFFF AND DUP2 MSTORE PUSH1 0x20 ADD SWAP1 DUP2 MSTORE PUSH1 0x20 ADD PUSH0 KECCAK256 PUSH1 0x40 MLOAD DUP1 PUSH2 0x100 ADD PUSH1 0x40 MSTORE SWAP1 DUP2 PUSH0 DUP3 ADD DUP1 SLOAD PUSH2 0xD3C SWAP1 PUSH2 0x2313 JUMP JUMPDEST DUP1 PUSH1 0x1F ADD PUSH1 0x20 DUP1 SWAP2 DIV MUL PUSH1 0x20 ADD PUSH1 0x40 MLOAD SWAP1 DUP2 ADD PUSH1 0x40 MSTORE DUP1 SWAP3 SWAP2 SWAP1 DUP2 DUP2 MSTORE PUSH1 0x20 ADD DUP3 DUP1 SLOAD PUSH2 0xD68 SWAP1 PUSH2 0x2313 JUMP JUMPDEST DUP1 ISZERO PUSH2 0xDB3 JUMPI DUP1 PUSH1 0x1F LT PUSH2 0xD8A JUMPI PUSH2 0x100 DUP1 DUP4 SLOAD DIV MUL DUP4 MSTORE SWAP2 PUSH1 0x20 ADD SWAP2 PUSH2 0xDB3 JUMP JUMPDEST DUP3 ADD SWAP2 SWAP1 PUSH0 MSTORE PUSH1 0x20 PUSH0 KECCAK256 SWAP1 JUMPDEST DUP2 SLOAD DUP2 MSTORE SWAP1 PUSH1 0x1 ADD SWAP1 PUSH1 0x20 ADD DUP1 DUP4 GT PUSH2 0xD96 JUMPI DUP3 SWAP1 SUB PUSH1 0x1F AND DUP3 ADD SWAP2 JUMPDEST POP POP POP POP POP DUP2 MSTORE PUSH1 0x20 ADD PUSH1 0x1 DUP3 ADD DUP1 SLOAD PUSH2 0xDCC SWAP1 PUSH2 0x2313 JUMP JUMPDEST DUP1 PUSH1 0x1F ADD PUSH1 0x20 DUP1 SWAP2 DIV MUL PUSH1 0x20 ADD PUSH1 0x40 MLOAD SWAP1 DUP2 ADD PUSH1 0x40 MSTORE DUP1 SWAP3 SWAP2 SWAP1 DUP2 DUP2 MSTORE PUSH1 0x20 ADD DUP3 DUP1 SLOAD PUSH2 0xDF8 SWAP1 PUSH2 0x2313 JUMP JUMPDEST DUP1 ISZERO PUSH2 0xE43 JUMPI DUP1 PUSH1 0x1F LT PUSH2 0xE1A JUMPI PUSH2 0x100 DUP1 DUP4 SLOAD DIV MUL DUP4 MSTORE SWAP2 PUSH1 0x20 ADD SWAP2 PUSH2 0xE43 JUMP JUMPDEST DUP3 ADD SWAP2 SWAP1 PUSH0 MSTORE PUSH1 0x20 PUSH0 KECCAK256 SWAP1 JUMPDEST DUP2 SLOAD DUP2 MSTORE SWAP1 PUSH1 0x1 ADD SWAP1 PUSH1 0x20 ADD DUP1 DUP4 GT PUSH2 0xE26 JUMPI DUP3 SWAP1 SUB PUSH1 0x1F AND DUP3 ADD SWAP2 JUMPDEST POP POP POP POP POP DUP2 MSTORE PUSH1 0x20 ADD PUSH1 0x2 DUP3 ADD DUP1 SLOAD PUSH2 0xE5C SWAP1 PUSH2 0x2313 JUMP JUMPDEST DUP1 PUSH1 0x1F ADD PUSH1 0x20 DUP1 SWAP2 DIV MUL PUSH1 0x20 ADD PUSH1 0x40 MLOAD SWAP1 DUP2 ADD PUSH1 0x40 MSTORE DUP1 SWAP3 SWAP2 SWAP1 DUP2 DUP2 MSTORE PUSH1 0x20 ADD DUP3 DUP1 SLOAD PUSH2 0xE88 SWAP1 PUSH2 0x2313 JUMP JUMPDEST DUP1 ISZERO PUSH2 0xED3 JUMPI DUP1 PUSH1 0x1F LT PUSH2 0xEAA JUMPI PUSH2 0x100 DUP1 DUP4 SLOAD DIV MUL DUP4 MSTORE SWAP2 PUSH1 0x20 ADD SWAP2 PUSH2 0xED3 JUMP JUMPDEST DUP3 ADD SWAP2 SWAP1 PUSH0 MSTORE PUSH1 0x20 PUSH0 KECCAK256 SWAP1 JUMPDEST DUP2 SLOAD DUP2 MSTORE SWAP1 PUSH1 0x1 ADD SWAP1 PUSH1 0x20 ADD DUP1 DUP4 GT PUSH2 0xEB6 JUMPI DUP3 SWAP1 SUB PUSH1 0x1F AND DUP3 ADD SWAP2 JUMPDEST POP POP POP POP POP DUP2 MSTORE PUSH1 0x20 ADD PUSH1 0x3 DUP3 ADD DUP1 SLOAD PUSH2 0xEEC SWAP1 PUSH2 0x2313 JUMP JUMPDEST DUP1 PUSH1 0x1F ADD PUSH1 0x20 DUP1 SWAP2 DIV MUL PUSH1 0x20 ADD PUSH1 0x40 MLOAD SWAP1 DUP2 ADD PUSH1 0x40 MSTORE DUP1 SWAP3 SWAP2 SWAP1 DUP2 DUP2 MSTORE PUSH1 0x20 ADD DUP3 DUP1 SLOAD PUSH2 0xF18 SWAP1 PUSH2 0x2313 JUMP JUMPDEST DUP1 ISZERO PUSH2 0xF63 JUMPI DUP1 PUSH1 0x1F LT PUSH2 0xF3A JUMPI PUSH2 0x100 DUP1 DUP4 SLOAD DIV MUL DUP4 MSTORE SWAP2 PUSH1 0x20 ADD SWAP2 PUSH2 0xF63 JUMP JUMPDEST DUP3 ADD SWAP2 SWAP1 PUSH0 MSTORE PUSH1 0x20 PUSH0 KECCAK256 SWAP1 JUMPDEST DUP2 SLOAD DUP2 MSTORE SWAP1 PUSH1 0x1 ADD SWAP1 PUSH1 0x20 ADD DUP1 DUP4 GT PUSH2 0xF46 JUMPI DUP3 SWAP1 SUB PUSH1 0x1F AND DUP3 ADD SWAP2 JUMPDEST POP POP POP POP POP DUP2 MSTORE PUSH1 0x20 ADD PUSH1 0x4 DUP3 ADD DUP1 SLOAD PUSH2 0xF7C SWAP1 PUSH2 0x2313 JUMP JUMPDEST DUP1 PUSH1 0x1F ADD PUSH1 0x20 DUP1 SWAP2 DIV MUL PUSH1 0x20 ADD PUSH1 0x40 MLOAD SWAP1 DUP2 ADD PUSH1 0x40 MSTORE DUP1 SWAP3 SWAP2 SWAP1 DUP2 DUP2 MSTORE PUSH1 0x20 ADD DUP3 DUP1 SLOAD PUSH2 0xFA8 SWAP1 PUSH2 0x2313 JUMP JUMPDEST DUP1 ISZERO PUSH2 0xFF3 JUMPI DUP1 PUSH1 0x1F LT PUSH2 0xFCA JUMPI PUSH2 0x100 DUP1 DUP4 SLOAD DIV MUL DUP4 MSTORE SWAP2 PUSH1 0x20 ADD SWAP2 PUSH2 0xFF3 JUMP JUMPDEST DUP3 ADD SWAP2 SWAP1 PUSH0 MSTORE PUSH1 0x20 PUSH0 KECCAK256 SWAP1 JUMPDEST DUP2 SLOAD DUP2 MSTORE SWAP1 PUSH1 0x1 ADD SWAP1 PUSH1 0x20 ADD DUP1 DUP4 GT PUSH2 0xFD6 JUMPI DUP3 SWAP1 SUB PUSH1 0x1F AND DUP3 ADD SWAP2 JUMPDEST POP POP POP POP POP DUP2 MSTORE PUSH1 0x20 ADD PUSH1 0x5 DUP3 ADD PUSH1 0x40 MLOAD DUP1 PUSH1 0x60 ADD PUSH1 0x40 MSTORE SWAP1 DUP2 PUSH0 DUP3 ADD SLOAD DUP2 MSTORE PUSH1 0x20 ADD PUSH1 0x1 DUP3 ADD SLOAD DUP2 MSTORE PUSH1 0x20 ADD PUSH1 0x2 DUP3 ADD SLOAD DUP2 MSTORE POP POP DUP2 MSTORE PUSH1 0x20 ADD PUSH1 0x8 DUP3 ADD PUSH0 SWAP1 SLOAD SWAP1 PUSH2 0x100 EXP SWAP1 DIV PUSH20 0xFFFFFFFFFFFFFFFFFFFFFFFFFFFFFFFFFFFFFFFF AND PUSH20 0xFFFFFFFFFFFFFFFFFFFFFFFFFFFFFFFFFFFFFFFF AND PUSH20 0xFFFFFFFFFFFFFFFFFFFFFFFFFFFFFFFFFFFFFFFF AND DUP2 MSTORE PUSH1 0x20 ADD PUSH1 0x8 DUP3 ADD PUSH1 0x14 SWAP1 SLOAD SWAP1 PUSH2 0x100 EXP SWAP1 DIV PUSH1 0xFF AND ISZERO ISZERO ISZERO ISZERO DUP2 MSTORE POP POP DUP3 DUP3 DUP2 MLOAD DUP2 LT PUSH2 0x10B0 JUMPI PUSH2 0x10AF PUSH2 0x27A9 JUMP JUMPDEST JUMPDEST PUSH1 0x20 MUL PUSH1 0x20 ADD ADD DUP2 SWAP1 MSTORE POP DUP1 DUP1 PUSH1 0x1 ADD SWAP2 POP POP PUSH2 0xCAA JUMP JUMPDEST POP DUP1 SWAP2 POP POP SWAP1 JUMP JUMPDEST PUSH1 0x2 PUSH1 0x20 MSTORE DUP1 PUSH0 MSTORE PUSH1 0x40 PUSH0 KECCAK256 PUSH0 SWAP2 POP SLOAD SWAP1 PUSH2 0x100 EXP SWAP1 DIV PUSH20 0xFFFFFFFFFFFFFFFFFFFFFFFFFFFFFFFFFFFFFFFF AND DUP2 JUMP JUMPDEST PUSH2 0x1108 PUSH2 0x179D JUMP JUMPDEST PUSH1 0x3 PUSH0 DUP4 PUSH20 0xFFFFFFFFFFFFFFFFFFFFFFFFFFFFFFFFFFFFFFFF AND PUSH20 0xFFFFFFFFFFFFFFFFFFFFFFFFFFFFFFFFFFFFFFFF AND DUP2 MSTORE PUSH1 0x20 ADD SWAP1 DUP2 MSTORE PUSH1 0x20 ADD PUSH0 KECCAK256 PUSH1 0x40 MLOAD DUP1 PUSH2 0x100 ADD PUSH1 0x40 MSTORE SWAP1 DUP2 PUSH0 DUP3 ADD DUP1 SLOAD PUSH2 0x1160 SWAP1 PUSH2 0x2313 JUMP JUMPDEST DUP1 PUSH1 0x1F ADD PUSH1 0x20 DUP1 SWAP2 DIV MUL PUSH1 0x20 ADD PUSH1 0x40 MLOAD SWAP1 DUP2 ADD PUSH1 0x40 MSTORE DUP1 SWAP3 SWAP2 SWAP1 DUP2 DUP2 MSTORE PUSH1 0x20 ADD DUP3 DUP1 SLOAD PUSH2 0x118C SWAP1 PUSH2 0x2313 JUMP JUMPDEST DUP1 ISZERO PUSH2 0x11D7 JUMPI DUP1 PUSH1 0x1F LT PUSH2 0x11AE JUMPI PUSH2 0x100 DUP1 DUP4 SLOAD DIV MUL DUP4 MSTORE SWAP2 PUSH1 0x20 ADD SWAP2 PUSH2 0x11D7 JUMP JUMPDEST DUP3 ADD SWAP2 SWAP1 PUSH0 MSTORE PUSH1 0x20 PUSH0 KECCAK256 SWAP1 JUMPDEST DUP2 SLOAD DUP2 MSTORE SWAP1 PUSH1 0x1 ADD SWAP1 PUSH1 0x20 ADD DUP1 DUP4 GT PUSH2 0x11BA JUMPI DUP3 SWAP1 SUB PUSH1 0x1F AND DUP3 ADD SWAP2 JUMPDEST POP POP POP POP POP DUP2 MSTORE PUSH1 0x20 ADD PUSH1 0x1 DUP3 ADD DUP1 SLOAD PUSH2 0x11F0 SWAP1 PUSH2 0x2313 JUMP JUMPDEST DUP1 PUSH1 0x1F ADD PUSH1 0x20 DUP1 SWAP2 DIV MUL PUSH1 0x20 ADD PUSH1 0x40 MLOAD SWAP1 DUP2 ADD PUSH1 0x40 MSTORE DUP1 SWAP3 SWAP2 SWAP1 DUP2 DUP2 MSTORE PUSH1 0x20 ADD DUP3 DUP1 SLOAD PUSH2 0x121C SWAP1 PUSH2 0x2313 JUMP JUMPDEST DUP1 ISZERO PUSH2 0x1267 JUMPI DUP1 PUSH1 0x1F LT PUSH2 0x123E JUMPI PUSH2 0x100 DUP1 DUP4 SLOAD DIV MUL DUP4 MSTORE SWAP2 PUSH1 0x20 ADD SWAP2 PUSH2 0x1267 JUMP JUMPDEST DUP3 ADD SWAP2 SWAP1 PUSH0 MSTORE PUSH1 0x20 PUSH0 KECCAK256 SWAP1 JUMPDEST DUP2 SLOAD DUP2 MSTORE SWAP1 PUSH1 0x1 ADD SWAP1 PUSH1 0x20 ADD DUP1 DUP4 GT PUSH2 0x124A JUMPI DUP3 SWAP1 SUB PUSH1 0x1F AND DUP3 ADD SWAP2 JUMPDEST POP POP POP POP POP DUP2 MSTORE PUSH1 0x20 ADD PUSH1 0x2 DUP3 ADD DUP1 SLOAD PUSH2 0x1280 SWAP1 PUSH2 0x2313 JUMP JUMPDEST DUP1 PUSH1 0x1F ADD PUSH1 0x20 DUP1 SWAP2 DIV MUL PUSH1 0x20 ADD PUSH1 0x40 MLOAD SWAP1 DUP2 ADD PUSH1 0x40 MSTORE DUP1 SWAP3 SWAP2 SWAP1 DUP2 DUP2 MSTORE PUSH1 0x20 ADD DUP3 DUP1 SLOAD PUSH2 0x12AC SWAP1 PUSH2 0x2313 JUMP JUMPDEST DUP1 ISZERO PUSH2 0x12F7 JUMPI DUP1 PUSH1 0x1F LT PUSH2 0x12CE JUMPI PUSH2 0x100 DUP1 DUP4 SLOAD DIV MUL DUP4 MSTORE SWAP2 PUSH1 0x20 ADD SWAP2 PUSH2 0x12F7 JUMP JUMPDEST DUP3 ADD SWAP2 SWAP1 PUSH0 MSTORE PUSH1 0x20 PUSH0 KECCAK256 SWAP1 JUMPDEST DUP2 SLOAD DUP2 MSTORE SWAP1 PUSH1 0x1 ADD SWAP1 PUSH1 0x20 ADD DUP1 DUP4 GT PUSH2 0x12DA JUMPI DUP3 SWAP1 SUB PUSH1 0x1F AND DUP3 ADD SWAP2 JUMPDEST POP POP POP POP POP DUP2 MSTORE PUSH1 0x20 ADD PUSH1 0x3 DUP3 ADD DUP1 SLOAD PUSH2 0x1310 SWAP1 PUSH2 0x2313 JUMP JUMPDEST DUP1 PUSH1 0x1F ADD PUSH1 0x20 DUP1 SWAP2 DIV MUL PUSH1 0x20 ADD PUSH1 0x40 MLOAD SWAP1 DUP2 ADD PUSH1 0x40 MSTORE DUP1 SWAP3 SWAP2 SWAP1 DUP2 DUP2 MSTORE PUSH1 0x20 ADD DUP3 DUP1 SLOAD PUSH2 0x133C SWAP1 PUSH2 0x2313 JUMP JUMPDEST DUP1 ISZERO PUSH2 0x1387 JUMPI DUP1 PUSH1 0x1F LT PUSH2 0x135E JUMPI PUSH2 0x100 DUP1 DUP4 SLOAD DIV MUL DUP4 MSTORE SWAP2 PUSH1 0x20 ADD SWAP2 PUSH2 0x1387 JUMP JUMPDEST DUP3 ADD SWAP2 SWAP1 PUSH0 MSTORE PUSH1 0x20 PUSH0 KECCAK256 SWAP1 JUMPDEST DUP2 SLOAD DUP2 MSTORE SWAP1 PUSH1 0x1 ADD SWAP1 PUSH1 0x20 ADD DUP1 DUP4 GT PUSH2 0x136A JUMPI DUP3 SWAP1 SUB PUSH1 0x1F AND DUP3 ADD SWAP2 JUMPDEST POP POP POP POP POP DUP2 MSTORE PUSH1 0x20 ADD PUSH1 0x4 DUP3 ADD DUP1 SLOAD PUSH2 0x13A0 SWAP1 PUSH2 0x2313 JUMP JUMPDEST DUP1 PUSH1 0x1F ADD PUSH1 0x20 DUP1 SWAP2 DIV MUL PUSH1 0x20 ADD PUSH1 0x40 MLOAD SWAP1 DUP2 ADD PUSH1 0x40 MSTORE DUP1 SWAP3 SWAP2 SWAP1 DUP2 DUP2 MSTORE PUSH1 0x20 ADD DUP3 DUP1 SLOAD PUSH2 0x13CC SWAP1 PUSH2 0x2313 JUMP JUMPDEST DUP1 ISZERO PUSH2 0x1417 JUMPI DUP1 PUSH1 0x1F LT PUSH2 0x13EE JUMPI PUSH2 0x100 DUP1 DUP4 SLOAD DIV MUL DUP4 MSTORE SWAP2 PUSH1 0x20 ADD SWAP2 PUSH2 0x1417 JUMP JUMPDEST DUP3 ADD SWAP2 SWAP1 PUSH0 MSTORE PUSH1 0x20 PUSH0 KECCAK256 SWAP1 JUMPDEST DUP2 SLOAD DUP2 MSTORE SWAP1 PUSH1 0x1 ADD SWAP1 PUSH1 0x20 ADD DUP1 DUP4 GT PUSH2 0x13FA JUMPI DUP3 SWAP1 SUB PUSH1 0x1F AND DUP3 ADD SWAP2 JUMPDEST POP POP POP POP POP DUP2 MSTORE PUSH1 0x20 ADD PUSH1 0x5 DUP3 ADD PUSH1 0x40 MLOAD DUP1 PUSH1 0x60 ADD PUSH1 0x40 MSTORE SWAP1 DUP2 PUSH0 DUP3 ADD SLOAD DUP2 MSTORE PUSH1 0x20 ADD PUSH1 0x1 DUP3 ADD SLOAD DUP2 MSTORE PUSH1 0x20 ADD PUSH1 0x2 DUP3 ADD SLOAD DUP2 MSTORE POP POP DUP2 MSTORE PUSH1 0x20 ADD PUSH1 0x8 DUP3 ADD PUSH0 SWAP1 SLOAD SWAP1 PUSH2 0x100 EXP SWAP1 DIV PUSH20 0xFFFFFFFFFFFFFFFFFFFFFFFFFFFFFFFFFFFFFFFF AND PUSH20 0xFFFFFFFFFFFFFFFFFFFFFFFFFFFFFFFFFFFFFFFF AND PUSH20 0xFFFFFFFFFFFFFFFFFFFFFFFFFFFFFFFFFFFFFFFF AND DUP2 MSTORE PUSH1 0x20 ADD PUSH1 0x8 DUP3 ADD PUSH1 0x14 SWAP1 SLOAD SWAP1 PUSH2 0x100 EXP SWAP1 DIV PUSH1 0xFF AND ISZERO ISZERO ISZERO ISZERO DUP2 MSTORE POP POP SWAP1 POP SWAP2 SWAP1 POP JUMP JUMPDEST PUSH1 0x4 PUSH1 0x20 MSTORE DUP1 PUSH0 MSTORE PUSH1 0x40 PUSH0 KECCAK256 PUSH0 SWAP2 POP SWAP1 POP DUP1 PUSH0 ADD SLOAD SWAP1 DUP1 PUSH1 0x1 ADD SLOAD SWAP1 DUP1 PUSH1 0x2 ADD PUSH0 SWAP1 SLOAD SWAP1 PUSH2 0x100 EXP SWAP1 DIV PUSH1 0xFF AND SWAP1 DUP1 PUSH1 0x2 ADD PUSH1 0x1 SWAP1 SLOAD SWAP1 PUSH2 0x100 EXP SWAP1 DIV PUSH20 0xFFFFFFFFFFFFFFFFFFFFFFFFFFFFFFFFFFFFFFFF AND SWAP1 DUP1 PUSH1 0x3 ADD DUP1 SLOAD PUSH2 0x152B SWAP1 PUSH2 0x2313 JUMP JUMPDEST DUP1 PUSH1 0x1F ADD PUSH1 0x20 DUP1 SWAP2 DIV MUL PUSH1 0x20 ADD PUSH1 0x40 MLOAD SWAP1 DUP2 ADD PUSH1 0x40 MSTORE DUP1 SWAP3 SWAP2 SWAP1 DUP2 DUP2 MSTORE PUSH1 0x20 ADD DUP3 DUP1 SLOAD PUSH2 0x1557 SWAP1 PUSH2 0x2313 JUMP JUMPDEST DUP1 ISZERO PUSH2 0x15A2 JUMPI DUP1 PUSH1 0x1F LT PUSH2 0x1579 JUMPI PUSH2 0x100 DUP1 DUP4 SLOAD DIV MUL DUP4 MSTORE SWAP2 PUSH1 0x20 ADD SWAP2 PUSH2 0x15A2 JUMP JUMPDEST DUP3 ADD SWAP2 SWAP1 PUSH0 MSTORE PUSH1 0x20 PUSH0 KECCAK256 SWAP1 JUMPDEST DUP2 SLOAD DUP2 MSTORE SWAP1 PUSH1 0x1 ADD SWAP1 PUSH1 0x20 ADD DUP1 DUP4 GT PUSH2 0x1585 JUMPI DUP3 SWAP1 SUB PUSH1 0x1F AND DUP3 ADD SWAP2 JUMPDEST POP POP POP POP POP SWAP1 POP DUP6 JUMP JUMPDEST PUSH0 PUSH1 0x3 PUSH0 CALLER PUSH20 0xFFFFFFFFFFFFFFFFFFFFFFFFFFFFFFFFFFFFFFFF AND PUSH20 0xFFFFFFFFFFFFFFFFFFFFFFFFFFFFFFFFFFFFFFFF AND DUP2 MSTORE PUSH1 0x20 ADD SWAP1 DUP2 MSTORE PUSH1 0x20 ADD PUSH0 KECCAK256 PUSH1 0x8 ADD PUSH0 SWAP1 SLOAD SWAP1 PUSH2 0x100 EXP SWAP1 DIV PUSH20 0xFFFFFFFFFFFFFFFFFFFFFFFFFFFFFFFFFFFFFFFF AND PUSH20 0xFFFFFFFFFFFFFFFFFFFFFFFFFFFFFFFFFFFFFFFF AND CALLER PUSH20 0xFFFFFFFFFFFFFFFFFFFFFFFFFFFFFFFFFFFFFFFF AND EQ PUSH2 0x167A JUMPI PUSH1 0x40 MLOAD PUSH32 0x8C379A000000000000000000000000000000000000000000000000000000000 DUP2 MSTORE PUSH1 0x4 ADD PUSH2 0x1671 SWAP1 PUSH2 0x23B3 JUMP JUMPDEST PUSH1 0x40 MLOAD DUP1 SWAP2 SUB SWAP1 REVERT JUMPDEST PUSH1 0x1 PUSH1 0x3 PUSH0 CALLER PUSH20 0xFFFFFFFFFFFFFFFFFFFFFFFFFFFFFFFFFFFFFFFF AND PUSH20 0xFFFFFFFFFFFFFFFFFFFFFFFFFFFFFFFFFFFFFFFF AND DUP2 MSTORE PUSH1 0x20 ADD SWAP1 DUP2 MSTORE PUSH1 0x20 ADD PUSH0 KECCAK256 PUSH1 0x8 ADD PUSH1 0x14 PUSH2 0x100 EXP DUP2 SLOAD DUP2 PUSH1 0xFF MUL NOT AND SWAP1 DUP4 ISZERO ISZERO MUL OR SWAP1 SSTORE POP PUSH32 0x6D7EFAC66BACCBD68BFC53844F2FF4C001783697B68CF36876811F2C96F16E12 CALLER PUSH1 0x3 PUSH0 CALLER PUSH20 0xFFFFFFFFFFFFFFFFFFFFFFFFFFFFFFFFFFFFFFFF AND PUSH20 0xFFFFFFFFFFFFFFFFFFFFFFFFFFFFFFFFFFFFFFFF AND DUP2 MSTORE PUSH1 0x20 ADD SWAP1 DUP2 MSTORE PUSH1 0x20 ADD PUSH0 KECCAK256 PUSH1 0x8 ADD PUSH1 0x14 SWAP1 SLOAD SWAP1 PUSH2 0x100 EXP SWAP1 DIV PUSH1 0xFF AND PUSH1 0x40 MLOAD PUSH2 0x1751 SWAP3 SWAP2 SWAP1 PUSH2 0x27D6 JUMP JUMPDEST PUSH1 0x40 MLOAD DUP1 SWAP2 SUB SWAP1 LOG1 PUSH1 0x1 SWAP1 POP SWAP1 JUMP JUMPDEST POP DUP1 SLOAD PUSH2 0x176C SWAP1 PUSH2 0x2313 JUMP JUMPDEST PUSH0 DUP3 SSTORE DUP1 PUSH1 0x1F LT PUSH2 0x177D JUMPI POP PUSH2 0x179A JUMP JUMPDEST PUSH1 0x1F ADD PUSH1 0x20 SWAP1 DIV SWAP1 PUSH0 MSTORE PUSH1 0x20 PUSH0 KECCAK256 SWAP1 DUP2 ADD SWAP1 PUSH2 0x1799 SWAP2 SWAP1 PUSH2 0x17FE JUMP JUMPDEST JUMPDEST POP JUMP JUMPDEST PUSH1 0x40 MLOAD DUP1 PUSH2 0x100 ADD PUSH1 0x40 MSTORE DUP1 PUSH1 0x60 DUP2 MSTORE PUSH1 0x20 ADD PUSH1 0x60 DUP2 MSTORE PUSH1 0x20 ADD PUSH1 0x60 DUP2 MSTORE PUSH1 0x20 ADD PUSH1 0x60 DUP2 MSTORE PUSH1 0x20 ADD PUSH1 0x60 DUP2 MSTORE PUSH1 0x20 ADD PUSH2 0x17D4 PUSH2 0x1819 JUMP JUMPDEST DUP2 MSTORE PUSH1 0x20 ADD PUSH0 PUSH20 0xFFFFFFFFFFFFFFFFFFFFFFFFFFFFFFFFFFFFFFFF AND DUP2 MSTORE PUSH1 0x20 ADD PUSH0 ISZERO ISZERO DUP2 MSTORE POP SWAP1 JUMP JUMPDEST JUMPDEST DUP1 DUP3 GT ISZERO PUSH2 0x1815 JUMPI PUSH0 DUP2 PUSH0 SWAP1 SSTORE POP PUSH1 0x1 ADD PUSH2 0x17FF JUMP JUMPDEST POP SWAP1 JUMP JUMPDEST PUSH1 0x40 MLOAD DUP1 PUSH1 0x60 ADD PUSH1 0x40 MSTORE DUP1 PUSH0 DUP2 MSTORE PUSH1 0x20 ADD PUSH0 DUP2 MSTORE PUSH1 0x20 ADD PUSH0 DUP2 MSTORE POP SWAP1 JUMP JUMPDEST PUSH0 PUSH1 0x40 MLOAD SWAP1 POP SWAP1 JUMP JUMPDEST PUSH0 DUP1 REVERT JUMPDEST PUSH0 DUP1 REVERT JUMPDEST PUSH0 PUSH20 0xFFFFFFFFFFFFFFFFFFFFFFFFFFFFFFFFFFFFFFFF DUP3 AND SWAP1 POP SWAP2 SWAP1 POP JUMP JUMPDEST PUSH0 PUSH2 0x1871 DUP3 PUSH2 0x1848 JUMP JUMPDEST SWAP1 POP SWAP2 SWAP1 POP JUMP JUMPDEST PUSH2 0x1881 DUP2 PUSH2 0x1867 JUMP JUMPDEST DUP2 EQ PUSH2 0x188B JUMPI PUSH0 DUP1 REVERT JUMPDEST POP JUMP JUMPDEST PUSH0 DUP2 CALLDATALOAD SWAP1 POP PUSH2 0x189C DUP2 PUSH2 0x1878 JUMP JUMPDEST SWAP3 SWAP2 POP POP JUMP JUMPDEST PUSH0 PUSH1 0x20 DUP3 DUP5 SUB SLT ISZERO PUSH2 0x18B7 JUMPI PUSH2 0x18B6 PUSH2 0x1840 JUMP JUMPDEST JUMPDEST PUSH0 PUSH2 0x18C4 DUP5 DUP3 DUP6 ADD PUSH2 0x188E JUMP JUMPDEST SWAP2 POP POP SWAP3 SWAP2 POP POP JUMP JUMPDEST PUSH0 DUP2 MLOAD SWAP1 POP SWAP2 SWAP1 POP JUMP JUMPDEST PUSH0 DUP3 DUP3 MSTORE PUSH1 0x20 DUP3 ADD SWAP1 POP SWAP3 SWAP2 POP POP JUMP JUMPDEST PUSH0 JUMPDEST DUP4 DUP2 LT ISZERO PUSH2 0x1904 JUMPI DUP1 DUP3 ADD MLOAD DUP2 DUP5 ADD MSTORE PUSH1 0x20 DUP2 ADD SWAP1 POP PUSH2 0x18E9 JUMP JUMPDEST PUSH0 DUP5 DUP5 ADD MSTORE POP POP POP POP JUMP JUMPDEST PUSH0 PUSH1 0x1F NOT PUSH1 0x1F DUP4 ADD AND SWAP1 POP SWAP2 SWAP1 POP JUMP JUMPDEST PUSH0 PUSH2 0x1929 DUP3 PUSH2 0x18CD JUMP JUMPDEST PUSH2 0x1933 DUP2 DUP6 PUSH2 0x18D7 JUMP JUMPDEST SWAP4 POP PUSH2 0x1943 DUP2 DUP6 PUSH1 0x20 DUP7 ADD PUSH2 0x18E7 JUMP JUMPDEST PUSH2 0x194C DUP2 PUSH2 0x190F JUMP JUMPDEST DUP5 ADD SWAP2 POP POP SWAP3 SWAP2 POP POP JUMP JUMPDEST PUSH0 DUP2 SWAP1 POP SWAP2 SWAP1 POP JUMP JUMPDEST PUSH2 0x1969 DUP2 PUSH2 0x1957 JUMP JUMPDEST DUP3 MSTORE POP POP JUMP JUMPDEST PUSH1 0x60 DUP3 ADD PUSH0 DUP3 ADD MLOAD PUSH2 0x1983 PUSH0 DUP6 ADD DUP3 PUSH2 0x1960 JUMP JUMPDEST POP PUSH1 0x20 DUP3 ADD MLOAD PUSH2 0x1996 PUSH1 0x20 DUP6 ADD DUP3 PUSH2 0x1960 JUMP JUMPDEST POP PUSH1 0x40 DUP3 ADD MLOAD PUSH2 0x19A9 PUSH1 0x40 DUP6 ADD DUP3 PUSH2 0x1960 JUMP JUMPDEST POP POP POP POP JUMP JUMPDEST PUSH2 0x19B8 DUP2 PUSH2 0x1867 JUMP JUMPDEST DUP3 MSTORE POP POP JUMP JUMPDEST PUSH0 DUP2 ISZERO ISZERO SWAP1 POP SWAP2 SWAP1 POP JUMP JUMPDEST PUSH2 0x19D2 DUP2 PUSH2 0x19BE JUMP JUMPDEST DUP3 MSTORE POP POP JUMP JUMPDEST PUSH0 PUSH2 0x140 DUP3 ADD SWAP1 POP DUP2 DUP2 SUB PUSH0 DUP4 ADD MSTORE PUSH2 0x19F1 DUP2 DUP12 PUSH2 0x191F JUMP JUMPDEST SWAP1 POP DUP2 DUP2 SUB PUSH1 0x20 DUP4 ADD MSTORE PUSH2 0x1A05 DUP2 DUP11 PUSH2 0x191F JUMP JUMPDEST SWAP1 POP DUP2 DUP2 SUB PUSH1 0x40 DUP4 ADD MSTORE PUSH2 0x1A19 DUP2 DUP10 PUSH2 0x191F JUMP JUMPDEST SWAP1 POP DUP2 DUP2 SUB PUSH1 0x60 DUP4 ADD MSTORE PUSH2 0x1A2D DUP2 DUP9 PUSH2 0x191F JUMP JUMPDEST SWAP1 POP DUP2 DUP2 SUB PUSH1 0x80 DUP4 ADD MSTORE PUSH2 0x1A41 DUP2 DUP8 PUSH2 0x191F JUMP JUMPDEST SWAP1 POP PUSH2 0x1A50 PUSH1 0xA0 DUP4 ADD DUP7 PUSH2 0x196F JUMP JUMPDEST PUSH2 0x1A5E PUSH2 0x100 DUP4 ADD DUP6 PUSH2 0x19AF JUMP JUMPDEST PUSH2 0x1A6C PUSH2 0x120 DUP4 ADD DUP5 PUSH2 0x19C9 JUMP JUMPDEST SWAP10 SWAP9 POP POP POP POP POP POP POP POP POP JUMP JUMPDEST PUSH0 PUSH1 0x20 DUP3 ADD SWAP1 POP PUSH2 0x1A8C PUSH0 DUP4 ADD DUP5 PUSH2 0x19C9 JUMP JUMPDEST SWAP3 SWAP2 POP POP JUMP JUMPDEST PUSH0 DUP1 REVERT JUMPDEST PUSH0 DUP1 REVERT JUMPDEST PUSH32 0x4E487B7100000000000000000000000000000000000000000000000000000000 PUSH0 MSTORE PUSH1 0x41 PUSH1 0x4 MSTORE PUSH1 0x24 PUSH0 REVERT JUMPDEST PUSH2 0x1AD0 DUP3 PUSH2 0x190F JUMP JUMPDEST DUP2 ADD DUP2 DUP2 LT PUSH8 0xFFFFFFFFFFFFFFFF DUP3 GT OR ISZERO PUSH2 0x1AEF JUMPI PUSH2 0x1AEE PUSH2 0x1A9A JUMP JUMPDEST JUMPDEST DUP1 PUSH1 0x40 MSTORE POP POP POP JUMP JUMPDEST PUSH0 PUSH2 0x1B01 PUSH2 0x1837 JUMP JUMPDEST SWAP1 POP PUSH2 0x1B0D DUP3 DUP3 PUSH2 0x1AC7 JUMP JUMPDEST SWAP2 SWAP1 POP JUMP JUMPDEST PUSH0 PUSH8 0xFFFFFFFFFFFFFFFF DUP3 GT ISZERO PUSH2 0x1B2C JUMPI PUSH2 0x1B2B PUSH2 0x1A9A JUMP JUMPDEST JUMPDEST PUSH2 0x1B35 DUP3 PUSH2 0x190F JUMP JUMPDEST SWAP1 POP PUSH1 0x20 DUP2 ADD SWAP1 POP SWAP2 SWAP1 POP JUMP JUMPDEST DUP3 DUP2 DUP4 CALLDATACOPY PUSH0 DUP4 DUP4 ADD MSTORE POP POP POP JUMP JUMPDEST PUSH0 PUSH2 0x1B62 PUSH2 0x1B5D DUP5 PUSH2 0x1B12 JUMP JUMPDEST PUSH2 0x1AF8 JUMP JUMPDEST SWAP1 POP DUP3 DUP2 MSTORE PUSH1 0x20 DUP2 ADD DUP5 DUP5 DUP5 ADD GT ISZERO PUSH2 0x1B7E JUMPI PUSH2 0x1B7D PUSH2 0x1A96 JUMP JUMPDEST JUMPDEST PUSH2 0x1B89 DUP5 DUP3 DUP6 PUSH2 0x1B42 JUMP JUMPDEST POP SWAP4 SWAP3 POP POP POP JUMP JUMPDEST PUSH0 DUP3 PUSH1 0x1F DUP4 ADD SLT PUSH2 0x1BA5 JUMPI PUSH2 0x1BA4 PUSH2 0x1A92 JUMP JUMPDEST JUMPDEST DUP2 CALLDATALOAD PUSH2 0x1BB5 DUP5 DUP3 PUSH1 0x20 DUP7 ADD PUSH2 0x1B50 JUMP JUMPDEST SWAP2 POP POP SWAP3 SWAP2 POP POP JUMP JUMPDEST PUSH2 0x1BC7 DUP2 PUSH2 0x1957 JUMP JUMPDEST DUP2 EQ PUSH2 0x1BD1 JUMPI PUSH0 DUP1 REVERT JUMPDEST POP JUMP JUMPDEST PUSH0 DUP2 CALLDATALOAD SWAP1 POP PUSH2 0x1BE2 DUP2 PUSH2 0x1BBE JUMP JUMPDEST SWAP3 SWAP2 POP POP JUMP JUMPDEST PUSH0 DUP1 PUSH0 DUP1 PUSH0 DUP1 PUSH0 DUP1 PUSH0 PUSH2 0x120 DUP11 DUP13 SUB SLT ISZERO PUSH2 0x1C06 JUMPI PUSH2 0x1C05 PUSH2 0x1840 JUMP JUMPDEST JUMPDEST PUSH0 DUP11 ADD CALLDATALOAD PUSH8 0xFFFFFFFFFFFFFFFF DUP2 GT ISZERO PUSH2 0x1C23 JUMPI PUSH2 0x1C22 PUSH2 0x1844 JUMP JUMPDEST JUMPDEST PUSH2 0x1C2F DUP13 DUP3 DUP14 ADD PUSH2 0x1B91 JUMP JUMPDEST SWAP10 POP POP PUSH1 0x20 DUP11 ADD CALLDATALOAD PUSH8 0xFFFFFFFFFFFFFFFF DUP2 GT ISZERO PUSH2 0x1C50 JUMPI PUSH2 0x1C4F PUSH2 0x1844 JUMP JUMPDEST JUMPDEST PUSH2 0x1C5C DUP13 DUP3 DUP14 ADD PUSH2 0x1B91 JUMP JUMPDEST SWAP9 POP POP PUSH1 0x40 DUP11 ADD CALLDATALOAD PUSH8 0xFFFFFFFFFFFFFFFF DUP2 GT ISZERO PUSH2 0x1C7D JUMPI PUSH2 0x1C7C PUSH2 0x1844 JUMP JUMPDEST JUMPDEST PUSH2 0x1C89 DUP13 DUP3 DUP14 ADD PUSH2 0x1B91 JUMP JUMPDEST SWAP8 POP POP PUSH1 0x60 DUP11 ADD CALLDATALOAD PUSH8 0xFFFFFFFFFFFFFFFF DUP2 GT ISZERO PUSH2 0x1CAA JUMPI PUSH2 0x1CA9 PUSH2 0x1844 JUMP JUMPDEST JUMPDEST PUSH2 0x1CB6 DUP13 DUP3 DUP14 ADD PUSH2 0x1B91 JUMP JUMPDEST SWAP7 POP POP PUSH1 0x80 PUSH2 0x1CC7 DUP13 DUP3 DUP14 ADD PUSH2 0x1BD4 JUMP JUMPDEST SWAP6 POP POP PUSH1 0xA0 PUSH2 0x1CD8 DUP13 DUP3 DUP14 ADD PUSH2 0x1BD4 JUMP JUMPDEST SWAP5 POP POP PUSH1 0xC0 PUSH2 0x1CE9 DUP13 DUP3 DUP14 ADD PUSH2 0x1BD4 JUMP JUMPDEST SWAP4 POP POP PUSH1 0xE0 DUP11 ADD CALLDATALOAD PUSH8 0xFFFFFFFFFFFFFFFF DUP2 GT ISZERO PUSH2 0x1D0A JUMPI PUSH2 0x1D09 PUSH2 0x1844 JUMP JUMPDEST JUMPDEST PUSH2 0x1D16 DUP13 DUP3 DUP14 ADD PUSH2 0x1B91 JUMP JUMPDEST SWAP3 POP POP PUSH2 0x100 PUSH2 0x1D28 DUP13 DUP3 DUP14 ADD PUSH2 0x188E JUMP JUMPDEST SWAP2 POP POP SWAP3 SWAP6 SWAP9 POP SWAP3 SWAP6 SWAP9 POP SWAP3 SWAP6 SWAP9 JUMP JUMPDEST PUSH0 DUP1 PUSH1 0x40 DUP4 DUP6 SUB SLT ISZERO PUSH2 0x1D4E JUMPI PUSH2 0x1D4D PUSH2 0x1840 JUMP JUMPDEST JUMPDEST PUSH0 DUP4 ADD CALLDATALOAD PUSH8 0xFFFFFFFFFFFFFFFF DUP2 GT ISZERO PUSH2 0x1D6B JUMPI PUSH2 0x1D6A PUSH2 0x1844 JUMP JUMPDEST JUMPDEST PUSH2 0x1D77 DUP6 DUP3 DUP7 ADD PUSH2 0x1B91 JUMP JUMPDEST SWAP3 POP POP PUSH1 0x20 DUP4 ADD CALLDATALOAD PUSH8 0xFFFFFFFFFFFFFFFF DUP2 GT ISZERO PUSH2 0x1D98 JUMPI PUSH2 0x1D97 PUSH2 0x1844 JUMP JUMPDEST JUMPDEST PUSH2 0x1DA4 DUP6 DUP3 DUP7 ADD PUSH2 0x1B91 JUMP JUMPDEST SWAP2 POP POP SWAP3 POP SWAP3 SWAP1 POP JUMP JUMPDEST PUSH0 DUP2 MLOAD SWAP1 POP SWAP2 SWAP1 POP JUMP JUMPDEST PUSH0 DUP3 DUP3 MSTORE PUSH1 0x20 DUP3 ADD SWAP1 POP SWAP3 SWAP2 POP POP JUMP JUMPDEST PUSH0 DUP2 SWAP1 POP PUSH1 0x20 DUP3 ADD SWAP1 POP SWAP2 SWAP1 POP JUMP JUMPDEST PUSH0 DUP3 DUP3 MSTORE PUSH1 0x20 DUP3 ADD SWAP1 POP SWAP3 SWAP2 POP POP JUMP JUMPDEST PUSH0 PUSH2 0x1DF1 DUP3 PUSH2 0x18CD JUMP JUMPDEST PUSH2 0x1DFB DUP2 DUP6 PUSH2 0x1DD7 JUMP JUMPDEST SWAP4 POP PUSH2 0x1E0B DUP2 DUP6 PUSH1 0x20 DUP7 ADD PUSH2 0x18E7 JUMP JUMPDEST PUSH2 0x1E14 DUP2 PUSH2 0x190F JUMP JUMPDEST DUP5 ADD SWAP2 POP POP SWAP3 SWAP2 POP POP JUMP JUMPDEST PUSH1 0x60 DUP3 ADD PUSH0 DUP3 ADD MLOAD PUSH2 0x1E33 PUSH0 DUP6 ADD DUP3 PUSH2 0x1960 JUMP JUMPDEST POP PUSH1 0x20 DUP3 ADD MLOAD PUSH2 0x1E46 PUSH1 0x20 DUP6 ADD DUP3 PUSH2 0x1960 JUMP JUMPDEST POP PUSH1 0x40 DUP3 ADD MLOAD PUSH2 0x1E59 PUSH1 0x40 DUP6 ADD DUP3 PUSH2 0x1960 JUMP JUMPDEST POP POP POP POP JUMP JUMPDEST PUSH2 0x1E68 DUP2 PUSH2 0x1867 JUMP JUMPDEST DUP3 MSTORE POP POP JUMP JUMPDEST PUSH2 0x1E77 DUP2 PUSH2 0x19BE JUMP JUMPDEST DUP3 MSTORE POP POP JUMP JUMPDEST PUSH0 PUSH2 0x140 DUP4 ADD PUSH0 DUP4 ADD MLOAD DUP5 DUP3 SUB PUSH0 DUP7 ADD MSTORE PUSH2 0x1E98 DUP3 DUP3 PUSH2 0x1DE7 JUMP JUMPDEST SWAP2 POP POP PUSH1 0x20 DUP4 ADD MLOAD DUP5 DUP3 SUB PUSH1 0x20 DUP7 ADD MSTORE PUSH2 0x1EB2 DUP3 DUP3 PUSH2 0x1DE7 JUMP JUMPDEST SWAP2 POP POP PUSH1 0x40 DUP4 ADD MLOAD DUP5 DUP3 SUB PUSH1 0x40 DUP7 ADD MSTORE PUSH2 0x1ECC DUP3 DUP3 PUSH2 0x1DE7 JUMP JUMPDEST SWAP2 POP POP PUSH1 0x60 DUP4 ADD MLOAD DUP5 DUP3 SUB PUSH1 0x60 DUP7 ADD MSTORE PUSH2 0x1EE6 DUP3 DUP3 PUSH2 0x1DE7 JUMP JUMPDEST SWAP2 POP POP PUSH1 0x80 DUP4 ADD MLOAD DUP5 DUP3 SUB PUSH1 0x80 DUP7 ADD MSTORE PUSH2 0x1F00 DUP3 DUP3 PUSH2 0x1DE7 JUMP JUMPDEST SWAP2 POP POP PUSH1 0xA0 DUP4 ADD MLOAD PUSH2 0x1F15 PUSH1 0xA0 DUP7 ADD DUP3 PUSH2 0x1E1F JUMP JUMPDEST POP PUSH1 0xC0 DUP4 ADD MLOAD PUSH2 0x1F29 PUSH2 0x100 DUP7 ADD DUP3 PUSH2 0x1E5F JUMP JUMPDEST POP PUSH1 0xE0 DUP4 ADD MLOAD PUSH2 0x1F3D PUSH2 0x120 DUP7 ADD DUP3 PUSH2 0x1E6E JUMP JUMPDEST POP DUP1 SWAP2 POP POP SWAP3 SWAP2 POP POP JUMP JUMPDEST PUSH0 PUSH2 0x1F53 DUP4 DUP4 PUSH2 0x1E7D JUMP JUMPDEST SWAP1 POP SWAP3 SWAP2 POP POP JUMP JUMPDEST PUSH0 PUSH1 0x20 DUP3 ADD SWAP1 POP SWAP2 SWAP1 POP JUMP JUMPDEST PUSH0 PUSH2 0x1F71 DUP3 PUSH2 0x1DAE JUMP JUMPDEST PUSH2 0x1F7B DUP2 DUP6 PUSH2 0x1DB8 JUMP JUMPDEST SWAP4 POP DUP4 PUSH1 0x20 DUP3 MUL DUP6 ADD PUSH2 0x1F8D DUP6 PUSH2 0x1DC8 JUMP JUMPDEST DUP1 PUSH0 JUMPDEST DUP6 DUP2 LT ISZERO PUSH2 0x1FC8 JUMPI DUP5 DUP5 SUB DUP10 MSTORE DUP2 MLOAD PUSH2 0x1FA9 DUP6 DUP3 PUSH2 0x1F48 JUMP JUMPDEST SWAP5 POP PUSH2 0x1FB4 DUP4 PUSH2 0x1F5B JUMP JUMPDEST SWAP3 POP PUSH1 0x20 DUP11 ADD SWAP10 POP POP PUSH1 0x1 DUP2 ADD SWAP1 POP PUSH2 0x1F90 JUMP JUMPDEST POP DUP3 SWAP8 POP DUP8 SWAP6 POP POP POP POP POP POP SWAP3 SWAP2 POP POP JUMP JUMPDEST PUSH0 PUSH1 0x20 DUP3 ADD SWAP1 POP DUP2 DUP2 SUB PUSH0 DUP4 ADD MSTORE PUSH2 0x1FF2 DUP2 DUP5 PUSH2 0x1F67 JUMP JUMPDEST SWAP1 POP SWAP3 SWAP2 POP POP JUMP JUMPDEST PUSH0 PUSH1 0x20 DUP3 DUP5 SUB SLT ISZERO PUSH2 0x200F JUMPI PUSH2 0x200E PUSH2 0x1840 JUMP JUMPDEST JUMPDEST PUSH0 PUSH2 0x201C DUP5 DUP3 DUP6 ADD PUSH2 0x1BD4 JUMP JUMPDEST SWAP2 POP POP SWAP3 SWAP2 POP POP JUMP JUMPDEST PUSH0 PUSH1 0x20 DUP3 ADD SWAP1 POP PUSH2 0x2038 PUSH0 DUP4 ADD DUP5 PUSH2 0x19AF JUMP JUMPDEST SWAP3 SWAP2 POP POP JUMP JUMPDEST PUSH0 PUSH2 0x140 DUP4 ADD PUSH0 DUP4 ADD MLOAD DUP5 DUP3 SUB PUSH0 DUP7 ADD MSTORE PUSH2 0x2059 DUP3 DUP3 PUSH2 0x1DE7 JUMP JUMPDEST SWAP2 POP POP PUSH1 0x20 DUP4 ADD MLOAD DUP5 DUP3 SUB PUSH1 0x20 DUP7 ADD MSTORE PUSH2 0x2073 DUP3 DUP3 PUSH2 0x1DE7 JUMP JUMPDEST SWAP2 POP POP PUSH1 0x40 DUP4 ADD MLOAD DUP5 DUP3 SUB PUSH1 0x40 DUP7 ADD MSTORE PUSH2 0x208D DUP3 DUP3 PUSH2 0x1DE7 JUMP JUMPDEST SWAP2 POP POP PUSH1 0x60 DUP4 ADD MLOAD DUP5 DUP3 SUB PUSH1 0x60 DUP7 ADD MSTORE PUSH2 0x20A7 DUP3 DUP3 PUSH2 0x1DE7 JUMP JUMPDEST SWAP2 POP POP PUSH1 0x80 DUP4 ADD MLOAD DUP5 DUP3 SUB PUSH1 0x80 DUP7 ADD MSTORE PUSH2 0x20C1 DUP3 DUP3 PUSH2 0x1DE7 JUMP JUMPDEST SWAP2 POP POP PUSH1 0xA0 DUP4 ADD MLOAD PUSH2 0x20D6 PUSH1 0xA0 DUP7 ADD DUP3 PUSH2 0x1E1F JUMP JUMPDEST POP PUSH1 0xC0 DUP4 ADD MLOAD PUSH2 0x20EA PUSH2 0x100 DUP7 ADD DUP3 PUSH2 0x1E5F JUMP JUMPDEST POP PUSH1 0xE0 DUP4 ADD MLOAD PUSH2 0x20FE PUSH2 0x120 DUP7 ADD DUP3 PUSH2 0x1E6E JUMP JUMPDEST POP DUP1 SWAP2 POP POP SWAP3 SWAP2 POP POP JUMP JUMPDEST PUSH0 PUSH1 0x20 DUP3 ADD SWAP1 POP DUP2 DUP2 SUB PUSH0 DUP4 ADD MSTORE PUSH2 0x2121 DUP2 DUP5 PUSH2 0x203E JUMP JUMPDEST SWAP1 POP SWAP3 SWAP2 POP POP JUMP JUMPDEST PUSH2 0x2132 DUP2 PUSH2 0x1957 JUMP JUMPDEST DUP3 MSTORE POP POP JUMP JUMPDEST PUSH32 0x4E487B7100000000000000000000000000000000000000000000000000000000 PUSH0 MSTORE PUSH1 0x21 PUSH1 0x4 MSTORE PUSH1 0x24 PUSH0 REVERT JUMPDEST PUSH1 0x3 DUP2 LT PUSH2 0x2176 JUMPI PUSH2 0x2175 PUSH2 0x2138 JUMP JUMPDEST JUMPDEST POP JUMP JUMPDEST PUSH0 DUP2 SWAP1 POP PUSH2 0x2186 DUP3 PUSH2 0x2165 JUMP JUMPDEST SWAP2 SWAP1 POP JUMP JUMPDEST PUSH0 PUSH2 0x2195 DUP3 PUSH2 0x2179 JUMP JUMPDEST SWAP1 POP SWAP2 SWAP1 POP JUMP JUMPDEST PUSH2 0x21A5 DUP2 PUSH2 0x218B JUMP JUMPDEST DUP3 MSTORE POP POP JUMP JUMPDEST PUSH0 PUSH1 0xA0 DUP3 ADD SWAP1 POP PUSH2 0x21BE PUSH0 DUP4 ADD DUP9 PUSH2 0x2129 JUMP JUMPDEST PUSH2 0x21CB PUSH1 0x20 DUP4 ADD DUP8 PUSH2 0x2129 JUMP JUMPDEST PUSH2 0x21D8 PUSH1 0x40 DUP4 ADD DUP7 PUSH2 0x219C JUMP JUMPDEST PUSH2 0x21E5 PUSH1 0x60 DUP4 ADD DUP6 PUSH2 0x19AF JUMP JUMPDEST DUP2 DUP2 SUB PUSH1 0x80 DUP4 ADD MSTORE PUSH2 0x21F7 DUP2 DUP5 PUSH2 0x191F JUMP JUMPDEST SWAP1 POP SWAP7 SWAP6 POP POP POP POP POP POP JUMP JUMPDEST PUSH2 0x220C DUP2 PUSH2 0x19BE JUMP JUMPDEST DUP2 EQ PUSH2 0x2216 JUMPI PUSH0 DUP1 REVERT JUMPDEST POP JUMP JUMPDEST PUSH0 DUP2 MLOAD SWAP1 POP PUSH2 0x2227 DUP2 PUSH2 0x2203 JUMP JUMPDEST SWAP3 SWAP2 POP POP JUMP JUMPDEST PUSH0 PUSH1 0x20 DUP3 DUP5 SUB SLT ISZERO PUSH2 0x2242 JUMPI PUSH2 0x2241 PUSH2 0x1840 JUMP JUMPDEST JUMPDEST PUSH0 PUSH2 0x224F DUP5 DUP3 DUP6 ADD PUSH2 0x2219 JUMP JUMPDEST SWAP2 POP POP SWAP3 SWAP2 POP POP JUMP JUMPDEST PUSH32 0x6F6E6C7920776F726B65722063616E2061636365737320746865206665617475 PUSH0 DUP3 ADD MSTORE PUSH32 0x7265000000000000000000000000000000000000000000000000000000000000 PUSH1 0x20 DUP3 ADD MSTORE POP JUMP JUMPDEST PUSH0 PUSH2 0x22B2 PUSH1 0x22 DUP4 PUSH2 0x18D7 JUMP JUMPDEST SWAP2 POP PUSH2 0x22BD DUP3 PUSH2 0x2258 JUMP JUMPDEST PUSH1 0x40 DUP3 ADD SWAP1 POP SWAP2 SWAP1 POP JUMP JUMPDEST PUSH0 PUSH1 0x20 DUP3 ADD SWAP1 POP DUP2 DUP2 SUB PUSH0 DUP4 ADD MSTORE PUSH2 0x22DF DUP2 PUSH2 0x22A6 JUMP JUMPDEST SWAP1 POP SWAP2 SWAP1 POP JUMP JUMPDEST PUSH32 0x4E487B7100000000000000000000000000000000000000000000000000000000 PUSH0 MSTORE PUSH1 0x22 PUSH1 0x4 MSTORE PUSH1 0x24 PUSH0 REVERT JUMPDEST PUSH0 PUSH1 0x2 DUP3 DIV SWAP1 POP PUSH1 0x1 DUP3 AND DUP1 PUSH2 0x232A JUMPI PUSH1 0x7F DUP3 AND SWAP2 POP JUMPDEST PUSH1 0x20 DUP3 LT DUP2 SUB PUSH2 0x233D JUMPI PUSH2 0x233C PUSH2 0x22E6 JUMP JUMPDEST JUMPDEST POP SWAP2 SWAP1 POP JUMP JUMPDEST PUSH32 0x7573657220646F65736E2774206F776E20746865207265736F7572636520746F PUSH0 DUP3 ADD MSTORE PUSH32 0x206163636573732E000000000000000000000000000000000000000000000000 PUSH1 0x20 DUP3 ADD MSTORE POP JUMP JUMPDEST PUSH0 PUSH2 0x239D PUSH1 0x28 DUP4 PUSH2 0x18D7 JUMP JUMPDEST SWAP2 POP PUSH2 0x23A8 DUP3 PUSH2 0x2343 JUMP JUMPDEST PUSH1 0x40 DUP3 ADD SWAP1 POP SWAP2 SWAP1 POP JUMP JUMPDEST PUSH0 PUSH1 0x20 DUP3 ADD SWAP1 POP DUP2 DUP2 SUB PUSH0 DUP4 ADD MSTORE PUSH2 0x23CA DUP2 PUSH2 0x2391 JUMP JUMPDEST SWAP1 POP SWAP2 SWAP1 POP JUMP JUMPDEST PUSH32 0x70617469656E74207769746820676976656E20656D61696C20616C7265616479 PUSH0 DUP3 ADD MSTORE PUSH32 0x2065786973747300000000000000000000000000000000000000000000000000 PUSH1 0x20 DUP3 ADD MSTORE POP JUMP JUMPDEST PUSH0 PUSH2 0x242B PUSH1 0x27 DUP4 PUSH2 0x18D7 JUMP JUMPDEST SWAP2 POP PUSH2 0x2436 DUP3 PUSH2 0x23D1 JUMP JUMPDEST PUSH1 0x40 DUP3 ADD SWAP1 POP SWAP2 SWAP1 POP JUMP JUMPDEST PUSH0 PUSH1 0x20 DUP3 ADD SWAP1 POP DUP2 DUP2 SUB PUSH0 DUP4 ADD MSTORE PUSH2 0x2458 DUP2 PUSH2 0x241F JUMP JUMPDEST SWAP1 POP SWAP2 SWAP1 POP JUMP JUMPDEST PUSH32 0x4E487B7100000000000000000000000000000000000000000000000000000000 PUSH0 MSTORE PUSH1 0x11 PUSH1 0x4 MSTORE PUSH1 0x24 PUSH0 REVERT JUMPDEST PUSH0 PUSH2 0x2496 DUP3 PUSH2 0x1957 JUMP JUMPDEST SWAP2 POP PUSH2 0x24A1 DUP4 PUSH2 0x1957 JUMP JUMPDEST SWAP3 POP DUP3 DUP3 ADD SWAP1 POP DUP1 DUP3 GT ISZERO PUSH2 0x24B9 JUMPI PUSH2 0x24B8 PUSH2 0x245F JUMP JUMPDEST JUMPDEST SWAP3 SWAP2 POP POP JUMP JUMPDEST PUSH0 DUP2 SWAP1 POP DUP2 PUSH0 MSTORE PUSH1 0x20 PUSH0 KECCAK256 SWAP1 POP SWAP2 SWAP1 POP JUMP JUMPDEST PUSH0 PUSH1 0x20 PUSH1 0x1F DUP4 ADD DIV SWAP1 POP SWAP2 SWAP1 POP JUMP JUMPDEST PUSH0 DUP3 DUP3 SHL SWAP1 POP SWAP3 SWAP2 POP POP JUMP JUMPDEST PUSH0 PUSH1 0x8 DUP4 MUL PUSH2 0x251B PUSH32 0xFFFFFFFFFFFFFFFFFFFFFFFFFFFFFFFFFFFFFFFFFFFFFFFFFFFFFFFFFFFFFFFF DUP3 PUSH2 0x24E0 JUMP JUMPDEST PUSH2 0x2525 DUP7 DUP4 PUSH2 0x24E0 JUMP JUMPDEST SWAP6 POP DUP1 NOT DUP5 AND SWAP4 POP DUP1 DUP7 AND DUP5 OR SWAP3 POP POP POP SWAP4 SWAP3 POP POP POP JUMP JUMPDEST PUSH0 DUP2 SWAP1 POP SWAP2 SWAP1 POP JUMP JUMPDEST PUSH0 PUSH2 0x2560 PUSH2 0x255B PUSH2 0x2556 DUP5 PUSH2 0x1957 JUMP JUMPDEST PUSH2 0x253D JUMP JUMPDEST PUSH2 0x1957 JUMP JUMPDEST SWAP1 POP SWAP2 SWAP1 POP JUMP JUMPDEST PUSH0 DUP2 SWAP1 POP SWAP2 SWAP1 POP JUMP JUMPDEST PUSH2 0x2579 DUP4 PUSH2 0x2546 JUMP JUMPDEST PUSH2 0x258D PUSH2 0x2585 DUP3 PUSH2 0x2567 JUMP JUMPDEST DUP5 DUP5 SLOAD PUSH2 0x24EC JUMP JUMPDEST DUP3 SSTORE POP POP POP POP JUMP JUMPDEST PUSH0 SWAP1 JUMP JUMPDEST PUSH2 0x25A1 PUSH2 0x2595 JUMP JUMPDEST PUSH2 0x25AC DUP2 DUP5 DUP5 PUSH2 0x2570 JUMP JUMPDEST POP POP POP JUMP JUMPDEST JUMPDEST DUP2 DUP2 LT ISZERO PUSH2 0x25CF JUMPI PUSH2 0x25C4 PUSH0 DUP3 PUSH2 0x2599 JUMP JUMPDEST PUSH1 0x1 DUP2 ADD SWAP1 POP PUSH2 0x25B2 JUMP JUMPDEST POP POP JUMP JUMPDEST PUSH1 0x1F DUP3 GT ISZERO PUSH2 0x2614 JUMPI PUSH2 0x25E5 DUP2 PUSH2 0x24BF JUMP JUMPDEST PUSH2 0x25EE DUP5 PUSH2 0x24D1 JUMP JUMPDEST DUP2 ADD PUSH1 0x20 DUP6 LT ISZERO PUSH2 0x25FD JUMPI DUP2 SWAP1 POP JUMPDEST PUSH2 0x2611 PUSH2 0x2609 DUP6 PUSH2 0x24D1 JUMP JUMPDEST DUP4 ADD DUP3 PUSH2 0x25B1 JUMP JUMPDEST POP POP JUMPDEST POP POP POP JUMP JUMPDEST PUSH0 DUP3 DUP3 SHR SWAP1 POP SWAP3 SWAP2 POP POP JUMP JUMPDEST PUSH0 PUSH2 0x2634 PUSH0 NOT DUP5 PUSH1 0x8 MUL PUSH2 0x2619 JUMP JUMPDEST NOT DUP1 DUP4 AND SWAP2 POP POP SWAP3 SWAP2 POP POP JUMP JUMPDEST PUSH0 PUSH2 0x264C DUP4 DUP4 PUSH2 0x2625 JUMP JUMPDEST SWAP2 POP DUP3 PUSH1 0x2 MUL DUP3 OR SWAP1 POP SWAP3 SWAP2 POP POP JUMP JUMPDEST PUSH2 0x2665 DUP3 PUSH2 0x18CD JUMP JUMPDEST PUSH8 0xFFFFFFFFFFFFFFFF DUP2 GT ISZERO PUSH2 0x267E JUMPI PUSH2 0x267D PUSH2 0x1A9A JUMP JUMPDEST JUMPDEST PUSH2 0x2688 DUP3 SLOAD PUSH2 0x2313 JUMP JUMPDEST PUSH2 0x2693 DUP3 DUP3 DUP6 PUSH2 0x25D3 JUMP JUMPDEST PUSH0 PUSH1 0x20 SWAP1 POP PUSH1 0x1F DUP4 GT PUSH1 0x1 DUP2 EQ PUSH2 0x26C4 JUMPI PUSH0 DUP5 ISZERO PUSH2 0x26B2 JUMPI DUP3 DUP8 ADD MLOAD SWAP1 POP JUMPDEST PUSH2 0x26BC DUP6 DUP3 PUSH2 0x2641 JUMP JUMPDEST DUP7 SSTORE POP PUSH2 0x2723 JUMP JUMPDEST PUSH1 0x1F NOT DUP5 AND PUSH2 0x26D2 DUP7 PUSH2 0x24BF JUMP JUMPDEST PUSH0 JUMPDEST DUP3 DUP2 LT ISZERO PUSH2 0x26F9 JUMPI DUP5 DUP10 ADD MLOAD DUP3 SSTORE PUSH1 0x1 DUP3 ADD SWAP2 POP PUSH1 0x20 DUP6 ADD SWAP5 POP PUSH1 0x20 DUP2 ADD SWAP1 POP PUSH2 0x26D4 JUMP JUMPDEST DUP7 DUP4 LT ISZERO PUSH2 0x2716 JUMPI DUP5 DUP10 ADD MLOAD PUSH2 0x2712 PUSH1 0x1F DUP10 AND DUP3 PUSH2 0x2625 JUMP JUMPDEST DUP4 SSTORE POP JUMPDEST PUSH1 0x1 PUSH1 0x2 DUP9 MUL ADD DUP9 SSTORE POP POP POP JUMPDEST POP POP POP POP POP POP JUMP JUMPDEST PUSH0 PUSH1 0x40 DUP3 ADD SWAP1 POP PUSH2 0x273E PUSH0 DUP4 ADD DUP6 PUSH2 0x2129 JUMP JUMPDEST DUP2 DUP2 SUB PUSH1 0x20 DUP4 ADD MSTORE PUSH2 0x2750 DUP2 DUP5 PUSH2 0x191F JUMP JUMPDEST SWAP1 POP SWAP4 SWAP3 POP POP POP JUMP JUMPDEST PUSH0 DUP2 SWAP1 POP SWAP3 SWAP2 POP POP JUMP JUMPDEST PUSH0 PUSH2 0x276D DUP3 PUSH2 0x18CD JUMP JUMPDEST PUSH2 0x2777 DUP2 DUP6 PUSH2 0x2759 JUMP JUMPDEST SWAP4 POP PUSH2 0x2787 DUP2 DUP6 PUSH1 0x20 DUP7 ADD PUSH2 0x18E7 JUMP JUMPDEST DUP1 DUP5 ADD SWAP2 POP POP SWAP3 SWAP2 POP POP JUMP JUMPDEST PUSH0 PUSH2 0x279E DUP3 DUP5 PUSH2 0x2763 JUMP JUMPDEST SWAP2 POP DUP2 SWAP1 POP SWAP3 SWAP2 POP POP JUMP JUMPDEST PUSH32 0x4E487B7100000000000000000000000000000000000000000000000000000000 PUSH0 MSTORE PUSH1 0x32 PUSH1 0x4 MSTORE PUSH1 0x24 PUSH0 REVERT JUMPDEST PUSH0 PUSH1 0x40 DUP3 ADD SWAP1 POP PUSH2 0x27E9 PUSH0 DUP4 ADD DUP6 PUSH2 0x19AF JUMP JUMPDEST PUSH2 0x27F6 PUSH1 0x20 DUP4 ADD DUP5 PUSH2 0x19C9 JUMP JUMPDEST SWAP4 SWAP3 POP POP POP JUMP INVALID LOG2 PUSH5 0x6970667358 0x22 SLT KECCAK256 0xC8 PUSH4 0x3AF8D2C DUP1 CALLER EXTCODEHASH CALLDATALOAD CALLER SMOD 0xC4 SAR 0xC 0x4C MULMOD PUSH29 0xE45005E1F2A6DC283B446DF2A85664736F6C6343000816003300000000 "
				},
				"gasEstimates": {
					"creation": {
						"codeDepositCost": "2058200",
						"executionCost": "infinite",
						"totalCost": "infinite"
					},
					"external": {
						"compareString(string,string)": "infinite",
						"createPatient(string,string,string,string,uint256,uint256,uint256,string,address)": "infinite",
						"deletePatient(address)": "infinite",
						"getAllPatient()": "infinite",
						"getPatient(address)": "infinite",
						"patientDeleteRequests(address)": "infinite",
						"patientKeys(uint256)": "2849",
						"patients(address)": "infinite",
						"updatePatient(address)": "infinite",
						"verifyPatientEmail()": "infinite"
					}
				},
				"methodIdentifiers": {
					"compareString(string,string)": "75b83187",
					"createPatient(string,string,string,string,uint256,uint256,uint256,string,address)": "7535917a",
					"deletePatient(address)": "02513ed2",
					"getAllPatient()": "8c8350fd",
					"getPatient(address)": "b5368e20",
					"patientDeleteRequests(address)": "b7997777",
					"patientKeys(uint256)": "96e4e141",
					"patients(address)": "0869cfbc",
					"updatePatient(address)": "1b45309c",
					"verifyPatientEmail()": "e7480f72"
				}
			},
			"storageLayout": {
				"storage": [
					{
						"astId": 5,
						"contract": "patient.sol:Patient",
						"label": "workerContract",
						"offset": 0,
						"slot": "0",
						"type": "t_contract(Worker)424"
					},
					{
						"astId": 7,
						"contract": "patient.sol:Patient",
						"label": "totalPatients",
						"offset": 0,
						"slot": "1",
						"type": "t_uint256"
					},
					{
						"astId": 100,
						"contract": "patient.sol:Patient",
						"label": "patientKeys",
						"offset": 0,
						"slot": "2",
						"type": "t_mapping(t_uint256,t_address)"
					},
					{
						"astId": 105,
						"contract": "patient.sol:Patient",
						"label": "patients",
						"offset": 0,
						"slot": "3",
						"type": "t_mapping(t_address,t_struct(PatientType)43_storage)"
					},
					{
						"astId": 110,
						"contract": "patient.sol:Patient",
						"label": "patientDeleteRequests",
						"offset": 0,
						"slot": "4",
						"type": "t_mapping(t_address,t_struct(PatientDeleteRequest)55_storage)"
					}
				],
				"types": {
					"t_address": {
						"encoding": "inplace",
						"label": "address",
						"numberOfBytes": "20"
					},
					"t_bool": {
						"encoding": "inplace",
						"label": "bool",
						"numberOfBytes": "1"
					},
					"t_contract(Worker)424": {
						"encoding": "inplace",
						"label": "contract Worker",
						"numberOfBytes": "20"
					},
					"t_enum(status)11": {
						"encoding": "inplace",
						"label": "enum Patient.status",
						"numberOfBytes": "1"
					},
					"t_mapping(t_address,t_struct(PatientDeleteRequest)55_storage)": {
						"encoding": "mapping",
						"key": "t_address",
						"label": "mapping(address => struct Patient.PatientDeleteRequest)",
						"numberOfBytes": "32",
						"value": "t_struct(PatientDeleteRequest)55_storage"
					},
					"t_mapping(t_address,t_struct(PatientType)43_storage)": {
						"encoding": "mapping",
						"key": "t_address",
						"label": "mapping(address => struct Patient.PatientType)",
						"numberOfBytes": "32",
						"value": "t_struct(PatientType)43_storage"
					},
					"t_mapping(t_uint256,t_address)": {
						"encoding": "mapping",
						"key": "t_uint256",
						"label": "mapping(uint256 => address)",
						"numberOfBytes": "32",
						"value": "t_address"
					},
					"t_string_storage": {
						"encoding": "bytes",
						"label": "string",
						"numberOfBytes": "32"
					},
					"t_struct(Date)18_storage": {
						"encoding": "inplace",
						"label": "struct Patient.Date",
						"members": [
							{
								"astId": 13,
								"contract": "patient.sol:Patient",
								"label": "date",
								"offset": 0,
								"slot": "0",
								"type": "t_uint256"
							},
							{
								"astId": 15,
								"contract": "patient.sol:Patient",
								"label": "month",
								"offset": 0,
								"slot": "1",
								"type": "t_uint256"
							},
							{
								"astId": 17,
								"contract": "patient.sol:Patient",
								"label": "year",
								"offset": 0,
								"slot": "2",
								"type": "t_uint256"
							}
						],
						"numberOfBytes": "96"
					},
					"t_struct(PatientDeleteRequest)55_storage": {
						"encoding": "inplace",
						"label": "struct Patient.PatientDeleteRequest",
						"members": [
							{
								"astId": 45,
								"contract": "patient.sol:Patient",
								"label": "requestedTimestamp",
								"offset": 0,
								"slot": "0",
								"type": "t_uint256"
							},
							{
								"astId": 47,
								"contract": "patient.sol:Patient",
								"label": "modifiedTimestamp",
								"offset": 0,
								"slot": "1",
								"type": "t_uint256"
							},
							{
								"astId": 50,
								"contract": "patient.sol:Patient",
								"label": "requestStatus",
								"offset": 0,
								"slot": "2",
								"type": "t_enum(status)11"
							},
							{
								"astId": 52,
								"contract": "patient.sol:Patient",
								"label": "patientAddress",
								"offset": 1,
								"slot": "2",
								"type": "t_address"
							},
							{
								"astId": 54,
								"contract": "patient.sol:Patient",
								"label": "reason",
								"offset": 0,
								"slot": "3",
								"type": "t_string_storage"
							}
						],
						"numberOfBytes": "128"
					},
					"t_struct(PatientType)43_storage": {
						"encoding": "inplace",
						"label": "struct Patient.PatientType",
						"members": [
							{
								"astId": 27,
								"contract": "patient.sol:Patient",
								"label": "fname",
								"offset": 0,
								"slot": "0",
								"type": "t_string_storage"
							},
							{
								"astId": 29,
								"contract": "patient.sol:Patient",
								"label": "lname",
								"offset": 0,
								"slot": "1",
								"type": "t_string_storage"
							},
							{
								"astId": 31,
								"contract": "patient.sol:Patient",
								"label": "email",
								"offset": 0,
								"slot": "2",
								"type": "t_string_storage"
							},
							{
								"astId": 33,
								"contract": "patient.sol:Patient",
								"label": "password",
								"offset": 0,
								"slot": "3",
								"type": "t_string_storage"
							},
							{
								"astId": 35,
								"contract": "patient.sol:Patient",
								"label": "location",
								"offset": 0,
								"slot": "4",
								"type": "t_string_storage"
							},
							{
								"astId": 38,
								"contract": "patient.sol:Patient",
								"label": "DoB",
								"offset": 0,
								"slot": "5",
								"type": "t_struct(Date)18_storage"
							},
							{
								"astId": 40,
								"contract": "patient.sol:Patient",
								"label": "walletAddress",
								"offset": 0,
								"slot": "8",
								"type": "t_address"
							},
							{
								"astId": 42,
								"contract": "patient.sol:Patient",
								"label": "verfiedEmailAddress",
								"offset": 20,
								"slot": "8",
								"type": "t_bool"
							}
						],
						"numberOfBytes": "288"
					},
					"t_uint256": {
						"encoding": "inplace",
						"label": "uint256",
						"numberOfBytes": "32"
					}
				}
			},
			"userdoc": {
				"kind": "user",
				"methods": {},
				"version": 1
			}
		}
	}
}