{
	"admin.sol": {
		"Admin": {
			"abi": [
				{
					"inputs": [],
					"stateMutability": "nonpayable",
					"type": "constructor"
				},
				{
					"inputs": [
						{
							"internalType": "address",
							"name": "",
							"type": "address"
						}
					],
					"name": "adminAddresses",
					"outputs": [
						{
							"internalType": "bool",
							"name": "",
							"type": "bool"
						}
					],
					"stateMutability": "view",
					"type": "function"
				},
				{
					"inputs": [
						{
							"internalType": "address",
							"name": "newAdmin",
							"type": "address"
						}
					],
					"name": "createAdmin",
					"outputs": [],
					"stateMutability": "nonpayable",
					"type": "function"
				},
				{
					"inputs": [],
					"name": "getAdmins",
					"outputs": [
						{
							"internalType": "address[]",
							"name": "",
							"type": "address[]"
						}
					],
					"stateMutability": "view",
					"type": "function"
				},
				{
					"inputs": [],
					"name": "totalAdminCount",
					"outputs": [
						{
							"internalType": "uint256",
							"name": "",
							"type": "uint256"
						}
					],
					"stateMutability": "view",
					"type": "function"
				}
			],
			"devdoc": {
				"kind": "dev",
				"methods": {},
				"version": 1
			},
			"evm": {
				"assembly": "    /* \"admin.sol\":238:1289  contract Admin{... */\n  mstore(0x40, 0x80)\n    /* \"admin.sol\":378:379  0 */\n  0x00\n    /* \"admin.sol\":359:379  uint totalAdmins = 0 */\n  0x02\n  sstore\n    /* \"admin.sol\":388:537  constructor(){... */\n  callvalue\n  dup1\n  iszero\n  tag_1\n  jumpi\n  0x00\n  dup1\n  revert\ntag_1:\n  pop\n    /* \"admin.sol\":437:447  msg.sender */\n  caller\n    /* \"admin.sol\":412:421  adminKeys */\n  0x00\n    /* \"admin.sol\":412:434  adminKeys[totalAdmins] */\n  dup1\n    /* \"admin.sol\":422:433  totalAdmins */\n  sload(0x02)\n    /* \"admin.sol\":412:434  adminKeys[totalAdmins] */\n  dup2\n  mstore\n  0x20\n  add\n  swap1\n  dup2\n  mstore\n  0x20\n  add\n  0x00\n  keccak256\n  0x00\n    /* \"admin.sol\":412:447  adminKeys[totalAdmins] = msg.sender */\n  0x0100\n  exp\n  dup2\n  sload\n  dup2\n  0xffffffffffffffffffffffffffffffffffffffff\n  mul\n  not\n  and\n  swap1\n  dup4\n  0xffffffffffffffffffffffffffffffffffffffff\n  and\n  mul\n  or\n  swap1\n  sstore\n  pop\n    /* \"admin.sol\":499:503  true */\n  0x01\n    /* \"admin.sol\":458:472  adminAddresses */\n  dup1\n    /* \"admin.sol\":458:496  adminAddresses[adminKeys[totalAdmins]] */\n  0x00\n    /* \"admin.sol\":473:482  adminKeys */\n  dup1\n    /* \"admin.sol\":473:495  adminKeys[totalAdmins] */\n  0x00\n    /* \"admin.sol\":483:494  totalAdmins */\n  sload(0x02)\n    /* \"admin.sol\":473:495  adminKeys[totalAdmins] */\n  dup2\n  mstore\n  0x20\n  add\n  swap1\n  dup2\n  mstore\n  0x20\n  add\n  0x00\n  keccak256\n  0x00\n  swap1\n  sload\n  swap1\n  0x0100\n  exp\n  swap1\n  div\n  0xffffffffffffffffffffffffffffffffffffffff\n  and\n    /* \"admin.sol\":458:496  adminAddresses[adminKeys[totalAdmins]] */\n  0xffffffffffffffffffffffffffffffffffffffff\n  and\n  0xffffffffffffffffffffffffffffffffffffffff\n  and\n  dup2\n  mstore\n  0x20\n  add\n  swap1\n  dup2\n  mstore\n  0x20\n  add\n  0x00\n  keccak256\n  0x00\n    /* \"admin.sol\":458:503  adminAddresses[adminKeys[totalAdmins]] = true */\n  0x0100\n  exp\n  dup2\n  sload\n  dup2\n  0xff\n  mul\n  not\n  and\n  swap1\n  dup4\n  iszero\n  iszero\n  mul\n  or\n  swap1\n  sstore\n  pop\n    /* \"admin.sol\":528:529  1 */\n  0x01\n    /* \"admin.sol\":514:525  totalAdmins */\n  0x02\n    /* \"admin.sol\":514:529  totalAdmins = 1 */\n  dup2\n  swap1\n  sstore\n  pop\n    /* \"admin.sol\":238:1289  contract Admin{... */\n  dataSize(sub_0)\n  dup1\n  dataOffset(sub_0)\n  0x00\n  codecopy\n  0x00\n  return\nstop\n\nsub_0: assembly {\n        /* \"admin.sol\":238:1289  contract Admin{... */\n      mstore(0x40, 0x80)\n      callvalue\n      dup1\n      iszero\n      tag_1\n      jumpi\n      0x00\n      dup1\n      revert\n    tag_1:\n      pop\n      jumpi(tag_2, lt(calldatasize, 0x04))\n      shr(0xe0, calldataload(0x00))\n      dup1\n      0x04020595\n      eq\n      tag_3\n      jumpi\n      dup1\n      0x31ae450b\n      eq\n      tag_4\n      jumpi\n      dup1\n      0x4ed38faf\n      eq\n      tag_5\n      jumpi\n      dup1\n      0xf102291d\n      eq\n      tag_6\n      jumpi\n    tag_2:\n      0x00\n      dup1\n      revert\n        /* \"admin.sol\":545:876  function createAdmin(address newAdmin) public {... */\n    tag_3:\n      tag_7\n      0x04\n      dup1\n      calldatasize\n      sub\n      dup2\n      add\n      swap1\n      tag_8\n      swap2\n      swap1\n      tag_9\n      jump\t// in\n    tag_8:\n      tag_10\n      jump\t// in\n    tag_7:\n      stop\n        /* \"admin.sol\":987:1286  function getAdmins() public view returns (address[] memory) {... */\n    tag_4:\n      tag_11\n      tag_12\n      jump\t// in\n    tag_11:\n      mload(0x40)\n      tag_13\n      swap2\n      swap1\n      tag_14\n      jump\t// in\n    tag_13:\n      mload(0x40)\n      dup1\n      swap2\n      sub\n      swap1\n      return\n        /* \"admin.sol\":308:352  mapping(address=>bool) public adminAddresses */\n    tag_5:\n      tag_15\n      0x04\n      dup1\n      calldatasize\n      sub\n      dup2\n      add\n      swap1\n      tag_16\n      swap2\n      swap1\n      tag_9\n      jump\t// in\n    tag_16:\n      tag_17\n      jump\t// in\n    tag_15:\n      mload(0x40)\n      tag_18\n      swap2\n      swap1\n      tag_19\n      jump\t// in\n    tag_18:\n      mload(0x40)\n      dup1\n      swap2\n      sub\n      swap1\n      return\n        /* \"admin.sol\":884:977  function totalAdminCount() public view returns (uint256){... */\n    tag_6:\n      tag_20\n      tag_21\n      jump\t// in\n    tag_20:\n      mload(0x40)\n      tag_22\n      swap2\n      swap1\n      tag_23\n      jump\t// in\n    tag_22:\n      mload(0x40)\n      dup1\n      swap2\n      sub\n      swap1\n      return\n        /* \"admin.sol\":545:876  function createAdmin(address newAdmin) public {... */\n    tag_10:\n        /* \"admin.sol\":610:624  adminAddresses */\n      0x01\n        /* \"admin.sol\":610:636  adminAddresses[msg.sender] */\n      0x00\n        /* \"admin.sol\":625:635  msg.sender */\n      caller\n        /* \"admin.sol\":610:636  adminAddresses[msg.sender] */\n      0xffffffffffffffffffffffffffffffffffffffff\n      and\n      0xffffffffffffffffffffffffffffffffffffffff\n      and\n      dup2\n      mstore\n      0x20\n      add\n      swap1\n      dup2\n      mstore\n      0x20\n      add\n      0x00\n      keccak256\n      0x00\n      swap1\n      sload\n      swap1\n      0x0100\n      exp\n      swap1\n      div\n      0xff\n      and\n        /* \"admin.sol\":602:671  require(adminAddresses[msg.sender], \"Only admin can add a new admin\") */\n      tag_25\n      jumpi\n      mload(0x40)\n      0x08c379a000000000000000000000000000000000000000000000000000000000\n      dup2\n      mstore\n      0x04\n      add\n      tag_26\n      swap1\n      tag_27\n      jump\t// in\n    tag_26:\n      mload(0x40)\n      dup1\n      swap2\n      sub\n      swap1\n      revert\n    tag_25:\n        /* \"admin.sol\":779:787  newAdmin */\n      dup1\n        /* \"admin.sol\":753:762  adminKeys */\n      0x00\n        /* \"admin.sol\":753:775  adminKeys[totalAdmins] */\n      dup1\n        /* \"admin.sol\":763:774  totalAdmins */\n      sload(0x02)\n        /* \"admin.sol\":753:775  adminKeys[totalAdmins] */\n      dup2\n      mstore\n      0x20\n      add\n      swap1\n      dup2\n      mstore\n      0x20\n      add\n      0x00\n      keccak256\n      0x00\n        /* \"admin.sol\":753:787  adminKeys[totalAdmins] =  newAdmin */\n      0x0100\n      exp\n      dup2\n      sload\n      dup2\n      0xffffffffffffffffffffffffffffffffffffffff\n      mul\n      not\n      and\n      swap1\n      dup4\n      0xffffffffffffffffffffffffffffffffffffffff\n      and\n      mul\n      or\n      swap1\n      sstore\n      pop\n        /* \"admin.sol\":811:812  1 */\n      0x01\n        /* \"admin.sol\":798:809  totalAdmins */\n      0x02\n      0x00\n        /* \"admin.sol\":798:812  totalAdmins+=1 */\n      dup3\n      dup3\n      sload\n      tag_28\n      swap2\n      swap1\n      tag_29\n      jump\t// in\n    tag_28:\n      swap3\n      pop\n      pop\n      dup2\n      swap1\n      sstore\n      pop\n        /* \"admin.sol\":864:868  true */\n      0x01\n        /* \"admin.sol\":823:837  adminAddresses */\n      dup1\n        /* \"admin.sol\":823:861  adminAddresses[adminKeys[totalAdmins]] */\n      0x00\n        /* \"admin.sol\":838:847  adminKeys */\n      dup1\n        /* \"admin.sol\":838:860  adminKeys[totalAdmins] */\n      0x00\n        /* \"admin.sol\":848:859  totalAdmins */\n      sload(0x02)\n        /* \"admin.sol\":838:860  adminKeys[totalAdmins] */\n      dup2\n      mstore\n      0x20\n      add\n      swap1\n      dup2\n      mstore\n      0x20\n      add\n      0x00\n      keccak256\n      0x00\n      swap1\n      sload\n      swap1\n      0x0100\n      exp\n      swap1\n      div\n      0xffffffffffffffffffffffffffffffffffffffff\n      and\n        /* \"admin.sol\":823:861  adminAddresses[adminKeys[totalAdmins]] */\n      0xffffffffffffffffffffffffffffffffffffffff\n      and\n      0xffffffffffffffffffffffffffffffffffffffff\n      and\n      dup2\n      mstore\n      0x20\n      add\n      swap1\n      dup2\n      mstore\n      0x20\n      add\n      0x00\n      keccak256\n      0x00\n        /* \"admin.sol\":823:868  adminAddresses[adminKeys[totalAdmins]] = true */\n      0x0100\n      exp\n      dup2\n      sload\n      dup2\n      0xff\n      mul\n      not\n      and\n      swap1\n      dup4\n      iszero\n      iszero\n      mul\n      or\n      swap1\n      sstore\n      pop\n        /* \"admin.sol\":545:876  function createAdmin(address newAdmin) public {... */\n      pop\n      jump\t// out\n        /* \"admin.sol\":987:1286  function getAdmins() public view returns (address[] memory) {... */\n    tag_12:\n        /* \"admin.sol\":1029:1045  address[] memory */\n      0x60\n        /* \"admin.sol\":1058:1081  address[] memory admins */\n      0x00\n        /* \"admin.sol\":1098:1109  totalAdmins */\n      sload(0x02)\n        /* \"admin.sol\":1084:1110  new address[](totalAdmins) */\n      0xffffffffffffffff\n      dup2\n      gt\n      iszero\n      tag_31\n      jumpi\n      tag_32\n      tag_33\n      jump\t// in\n    tag_32:\n    tag_31:\n      mload(0x40)\n      swap1\n      dup1\n      dup3\n      mstore\n      dup1\n      0x20\n      mul\n      0x20\n      add\n      dup3\n      add\n      0x40\n      mstore\n      dup1\n      iszero\n      tag_34\n      jumpi\n      dup2\n      0x20\n      add\n      0x20\n      dup3\n      mul\n      dup1\n      calldatasize\n      dup4\n      calldatacopy\n      dup1\n      dup3\n      add\n      swap2\n      pop\n      pop\n      swap1\n      pop\n    tag_34:\n      pop\n        /* \"admin.sol\":1058:1110  address[] memory admins = new address[](totalAdmins) */\n      swap1\n      pop\n        /* \"admin.sol\":1121:1134  uint256 index */\n      0x00\n        /* \"admin.sol\":1154:1160  uint i */\n      dup1\n        /* \"admin.sol\":1149:1255  for (uint i=0;i<totalAdmins;i++) {... */\n    tag_35:\n        /* \"admin.sol\":1165:1176  totalAdmins */\n      sload(0x02)\n        /* \"admin.sol\":1163:1164  i */\n      dup2\n        /* \"admin.sol\":1163:1176  i<totalAdmins */\n      lt\n        /* \"admin.sol\":1149:1255  for (uint i=0;i<totalAdmins;i++) {... */\n      iszero\n      tag_36\n      jumpi\n        /* \"admin.sol\":1209:1218  adminKeys */\n      0x00\n        /* \"admin.sol\":1209:1221  adminKeys[i] */\n      dup1\n        /* \"admin.sol\":1219:1220  i */\n      dup3\n        /* \"admin.sol\":1209:1221  adminKeys[i] */\n      dup2\n      mstore\n      0x20\n      add\n      swap1\n      dup2\n      mstore\n      0x20\n      add\n      0x00\n      keccak256\n      0x00\n      swap1\n      sload\n      swap1\n      0x0100\n      exp\n      swap1\n      div\n      0xffffffffffffffffffffffffffffffffffffffff\n      and\n        /* \"admin.sol\":1197:1203  admins */\n      dup4\n        /* \"admin.sol\":1204:1205  i */\n      dup3\n        /* \"admin.sol\":1197:1206  admins[i] */\n      dup2\n      mload\n      dup2\n      lt\n      tag_38\n      jumpi\n      tag_39\n      tag_40\n      jump\t// in\n    tag_39:\n    tag_38:\n      0x20\n      mul\n      0x20\n      add\n      add\n        /* \"admin.sol\":1197:1221  admins[i] = adminKeys[i] */\n      swap1\n      0xffffffffffffffffffffffffffffffffffffffff\n      and\n      swap1\n      dup2\n      0xffffffffffffffffffffffffffffffffffffffff\n      and\n      dup2\n      mstore\n      pop\n      pop\n        /* \"admin.sol\":1236:1243  index++ */\n      dup2\n      dup1\n      tag_41\n      swap1\n      tag_42\n      jump\t// in\n    tag_41:\n      swap3\n      pop\n      pop\n        /* \"admin.sol\":1177:1180  i++ */\n      dup1\n      dup1\n      0x01\n      add\n      swap2\n      pop\n      pop\n        /* \"admin.sol\":1149:1255  for (uint i=0;i<totalAdmins;i++) {... */\n      jump(tag_35)\n    tag_36:\n      pop\n        /* \"admin.sol\":1272:1278  admins */\n      dup2\n        /* \"admin.sol\":1265:1278  return admins */\n      swap3\n      pop\n      pop\n      pop\n        /* \"admin.sol\":987:1286  function getAdmins() public view returns (address[] memory) {... */\n      swap1\n      jump\t// out\n        /* \"admin.sol\":308:352  mapping(address=>bool) public adminAddresses */\n    tag_17:\n      mstore(0x20, 0x01)\n      dup1\n      0x00\n      mstore\n      keccak256(0x00, 0x40)\n      0x00\n      swap2\n      pop\n      sload\n      swap1\n      0x0100\n      exp\n      swap1\n      div\n      0xff\n      and\n      dup2\n      jump\t// out\n        /* \"admin.sol\":884:977  function totalAdminCount() public view returns (uint256){... */\n    tag_21:\n        /* \"admin.sol\":932:939  uint256 */\n      0x00\n        /* \"admin.sol\":958:969  totalAdmins */\n      sload(0x02)\n        /* \"admin.sol\":951:969  return totalAdmins */\n      swap1\n      pop\n        /* \"admin.sol\":884:977  function totalAdminCount() public view returns (uint256){... */\n      swap1\n      jump\t// out\n        /* \"#utility.yul\":88:205   */\n    tag_45:\n        /* \"#utility.yul\":197:198   */\n      0x00\n        /* \"#utility.yul\":194:195   */\n      dup1\n        /* \"#utility.yul\":187:199   */\n      revert\n        /* \"#utility.yul\":334:460   */\n    tag_47:\n        /* \"#utility.yul\":371:378   */\n      0x00\n        /* \"#utility.yul\":411:453   */\n      0xffffffffffffffffffffffffffffffffffffffff\n        /* \"#utility.yul\":404:409   */\n      dup3\n        /* \"#utility.yul\":400:454   */\n      and\n        /* \"#utility.yul\":389:454   */\n      swap1\n      pop\n        /* \"#utility.yul\":334:460   */\n      swap2\n      swap1\n      pop\n      jump\t// out\n        /* \"#utility.yul\":466:562   */\n    tag_48:\n        /* \"#utility.yul\":503:510   */\n      0x00\n        /* \"#utility.yul\":532:556   */\n      tag_72\n        /* \"#utility.yul\":550:555   */\n      dup3\n        /* \"#utility.yul\":532:556   */\n      tag_47\n      jump\t// in\n    tag_72:\n        /* \"#utility.yul\":521:556   */\n      swap1\n      pop\n        /* \"#utility.yul\":466:562   */\n      swap2\n      swap1\n      pop\n      jump\t// out\n        /* \"#utility.yul\":568:690   */\n    tag_49:\n        /* \"#utility.yul\":641:665   */\n      tag_74\n        /* \"#utility.yul\":659:664   */\n      dup2\n        /* \"#utility.yul\":641:665   */\n      tag_48\n      jump\t// in\n    tag_74:\n        /* \"#utility.yul\":634:639   */\n      dup2\n        /* \"#utility.yul\":631:666   */\n      eq\n        /* \"#utility.yul\":621:684   */\n      tag_75\n      jumpi\n        /* \"#utility.yul\":680:681   */\n      0x00\n        /* \"#utility.yul\":677:678   */\n      dup1\n        /* \"#utility.yul\":670:682   */\n      revert\n        /* \"#utility.yul\":621:684   */\n    tag_75:\n        /* \"#utility.yul\":568:690   */\n      pop\n      jump\t// out\n        /* \"#utility.yul\":696:835   */\n    tag_50:\n        /* \"#utility.yul\":742:747   */\n      0x00\n        /* \"#utility.yul\":780:786   */\n      dup2\n        /* \"#utility.yul\":767:787   */\n      calldataload\n        /* \"#utility.yul\":758:787   */\n      swap1\n      pop\n        /* \"#utility.yul\":796:829   */\n      tag_77\n        /* \"#utility.yul\":823:828   */\n      dup2\n        /* \"#utility.yul\":796:829   */\n      tag_49\n      jump\t// in\n    tag_77:\n        /* \"#utility.yul\":696:835   */\n      swap3\n      swap2\n      pop\n      pop\n      jump\t// out\n        /* \"#utility.yul\":841:1170   */\n    tag_9:\n        /* \"#utility.yul\":900:906   */\n      0x00\n        /* \"#utility.yul\":949:951   */\n      0x20\n        /* \"#utility.yul\":937:946   */\n      dup3\n        /* \"#utility.yul\":928:935   */\n      dup5\n        /* \"#utility.yul\":924:947   */\n      sub\n        /* \"#utility.yul\":920:952   */\n      slt\n        /* \"#utility.yul\":917:1036   */\n      iszero\n      tag_79\n      jumpi\n        /* \"#utility.yul\":955:1034   */\n      tag_80\n      tag_45\n      jump\t// in\n    tag_80:\n        /* \"#utility.yul\":917:1036   */\n    tag_79:\n        /* \"#utility.yul\":1075:1076   */\n      0x00\n        /* \"#utility.yul\":1100:1153   */\n      tag_81\n        /* \"#utility.yul\":1145:1152   */\n      dup5\n        /* \"#utility.yul\":1136:1142   */\n      dup3\n        /* \"#utility.yul\":1125:1134   */\n      dup6\n        /* \"#utility.yul\":1121:1143   */\n      add\n        /* \"#utility.yul\":1100:1153   */\n      tag_50\n      jump\t// in\n    tag_81:\n        /* \"#utility.yul\":1090:1153   */\n      swap2\n      pop\n        /* \"#utility.yul\":1046:1163   */\n      pop\n        /* \"#utility.yul\":841:1170   */\n      swap3\n      swap2\n      pop\n      pop\n      jump\t// out\n        /* \"#utility.yul\":1176:1290   */\n    tag_51:\n        /* \"#utility.yul\":1243:1249   */\n      0x00\n        /* \"#utility.yul\":1277:1282   */\n      dup2\n        /* \"#utility.yul\":1271:1283   */\n      mload\n        /* \"#utility.yul\":1261:1283   */\n      swap1\n      pop\n        /* \"#utility.yul\":1176:1290   */\n      swap2\n      swap1\n      pop\n      jump\t// out\n        /* \"#utility.yul\":1296:1480   */\n    tag_52:\n        /* \"#utility.yul\":1395:1406   */\n      0x00\n        /* \"#utility.yul\":1429:1435   */\n      dup3\n        /* \"#utility.yul\":1424:1427   */\n      dup3\n        /* \"#utility.yul\":1417:1436   */\n      mstore\n        /* \"#utility.yul\":1469:1473   */\n      0x20\n        /* \"#utility.yul\":1464:1467   */\n      dup3\n        /* \"#utility.yul\":1460:1474   */\n      add\n        /* \"#utility.yul\":1445:1474   */\n      swap1\n      pop\n        /* \"#utility.yul\":1296:1480   */\n      swap3\n      swap2\n      pop\n      pop\n      jump\t// out\n        /* \"#utility.yul\":1486:1618   */\n    tag_53:\n        /* \"#utility.yul\":1553:1557   */\n      0x00\n        /* \"#utility.yul\":1576:1579   */\n      dup2\n        /* \"#utility.yul\":1568:1579   */\n      swap1\n      pop\n        /* \"#utility.yul\":1606:1610   */\n      0x20\n        /* \"#utility.yul\":1601:1604   */\n      dup3\n        /* \"#utility.yul\":1597:1611   */\n      add\n        /* \"#utility.yul\":1589:1611   */\n      swap1\n      pop\n        /* \"#utility.yul\":1486:1618   */\n      swap2\n      swap1\n      pop\n      jump\t// out\n        /* \"#utility.yul\":1624:1732   */\n    tag_54:\n        /* \"#utility.yul\":1701:1725   */\n      tag_86\n        /* \"#utility.yul\":1719:1724   */\n      dup2\n        /* \"#utility.yul\":1701:1725   */\n      tag_48\n      jump\t// in\n    tag_86:\n        /* \"#utility.yul\":1696:1699   */\n      dup3\n        /* \"#utility.yul\":1689:1726   */\n      mstore\n        /* \"#utility.yul\":1624:1732   */\n      pop\n      pop\n      jump\t// out\n        /* \"#utility.yul\":1738:1917   */\n    tag_55:\n        /* \"#utility.yul\":1807:1817   */\n      0x00\n        /* \"#utility.yul\":1828:1874   */\n      tag_88\n        /* \"#utility.yul\":1870:1873   */\n      dup4\n        /* \"#utility.yul\":1862:1868   */\n      dup4\n        /* \"#utility.yul\":1828:1874   */\n      tag_54\n      jump\t// in\n    tag_88:\n        /* \"#utility.yul\":1906:1910   */\n      0x20\n        /* \"#utility.yul\":1901:1904   */\n      dup4\n        /* \"#utility.yul\":1897:1911   */\n      add\n        /* \"#utility.yul\":1883:1911   */\n      swap1\n      pop\n        /* \"#utility.yul\":1738:1917   */\n      swap3\n      swap2\n      pop\n      pop\n      jump\t// out\n        /* \"#utility.yul\":1923:2036   */\n    tag_56:\n        /* \"#utility.yul\":1993:1997   */\n      0x00\n        /* \"#utility.yul\":2025:2029   */\n      0x20\n        /* \"#utility.yul\":2020:2023   */\n      dup3\n        /* \"#utility.yul\":2016:2030   */\n      add\n        /* \"#utility.yul\":2008:2030   */\n      swap1\n      pop\n        /* \"#utility.yul\":1923:2036   */\n      swap2\n      swap1\n      pop\n      jump\t// out\n        /* \"#utility.yul\":2072:2804   */\n    tag_57:\n        /* \"#utility.yul\":2191:2194   */\n      0x00\n        /* \"#utility.yul\":2220:2274   */\n      tag_91\n        /* \"#utility.yul\":2268:2273   */\n      dup3\n        /* \"#utility.yul\":2220:2274   */\n      tag_51\n      jump\t// in\n    tag_91:\n        /* \"#utility.yul\":2290:2376   */\n      tag_92\n        /* \"#utility.yul\":2369:2375   */\n      dup2\n        /* \"#utility.yul\":2364:2367   */\n      dup6\n        /* \"#utility.yul\":2290:2376   */\n      tag_52\n      jump\t// in\n    tag_92:\n        /* \"#utility.yul\":2283:2376   */\n      swap4\n      pop\n        /* \"#utility.yul\":2400:2456   */\n      tag_93\n        /* \"#utility.yul\":2450:2455   */\n      dup4\n        /* \"#utility.yul\":2400:2456   */\n      tag_53\n      jump\t// in\n    tag_93:\n        /* \"#utility.yul\":2479:2486   */\n      dup1\n        /* \"#utility.yul\":2510:2511   */\n      0x00\n        /* \"#utility.yul\":2495:2779   */\n    tag_94:\n        /* \"#utility.yul\":2520:2526   */\n      dup4\n        /* \"#utility.yul\":2517:2518   */\n      dup2\n        /* \"#utility.yul\":2514:2527   */\n      lt\n        /* \"#utility.yul\":2495:2779   */\n      iszero\n      tag_96\n      jumpi\n        /* \"#utility.yul\":2596:2602   */\n      dup2\n        /* \"#utility.yul\":2590:2603   */\n      mload\n        /* \"#utility.yul\":2623:2686   */\n      tag_97\n        /* \"#utility.yul\":2682:2685   */\n      dup9\n        /* \"#utility.yul\":2667:2680   */\n      dup3\n        /* \"#utility.yul\":2623:2686   */\n      tag_55\n      jump\t// in\n    tag_97:\n        /* \"#utility.yul\":2616:2686   */\n      swap8\n      pop\n        /* \"#utility.yul\":2709:2769   */\n      tag_98\n        /* \"#utility.yul\":2762:2768   */\n      dup4\n        /* \"#utility.yul\":2709:2769   */\n      tag_56\n      jump\t// in\n    tag_98:\n        /* \"#utility.yul\":2699:2769   */\n      swap3\n      pop\n        /* \"#utility.yul\":2555:2779   */\n      pop\n        /* \"#utility.yul\":2542:2543   */\n      0x01\n        /* \"#utility.yul\":2539:2540   */\n      dup2\n        /* \"#utility.yul\":2535:2544   */\n      add\n        /* \"#utility.yul\":2530:2544   */\n      swap1\n      pop\n        /* \"#utility.yul\":2495:2779   */\n      jump(tag_94)\n    tag_96:\n        /* \"#utility.yul\":2499:2513   */\n      pop\n        /* \"#utility.yul\":2795:2798   */\n      dup6\n        /* \"#utility.yul\":2788:2798   */\n      swap4\n      pop\n        /* \"#utility.yul\":2196:2804   */\n      pop\n      pop\n      pop\n        /* \"#utility.yul\":2072:2804   */\n      swap3\n      swap2\n      pop\n      pop\n      jump\t// out\n        /* \"#utility.yul\":2810:3183   */\n    tag_14:\n        /* \"#utility.yul\":2953:2957   */\n      0x00\n        /* \"#utility.yul\":2991:2993   */\n      0x20\n        /* \"#utility.yul\":2980:2989   */\n      dup3\n        /* \"#utility.yul\":2976:2994   */\n      add\n        /* \"#utility.yul\":2968:2994   */\n      swap1\n      pop\n        /* \"#utility.yul\":3040:3049   */\n      dup2\n        /* \"#utility.yul\":3034:3038   */\n      dup2\n        /* \"#utility.yul\":3030:3050   */\n      sub\n        /* \"#utility.yul\":3026:3027   */\n      0x00\n        /* \"#utility.yul\":3015:3024   */\n      dup4\n        /* \"#utility.yul\":3011:3028   */\n      add\n        /* \"#utility.yul\":3004:3051   */\n      mstore\n        /* \"#utility.yul\":3068:3176   */\n      tag_100\n        /* \"#utility.yul\":3171:3175   */\n      dup2\n        /* \"#utility.yul\":3162:3168   */\n      dup5\n        /* \"#utility.yul\":3068:3176   */\n      tag_57\n      jump\t// in\n    tag_100:\n        /* \"#utility.yul\":3060:3176   */\n      swap1\n      pop\n        /* \"#utility.yul\":2810:3183   */\n      swap3\n      swap2\n      pop\n      pop\n      jump\t// out\n        /* \"#utility.yul\":3189:3279   */\n    tag_58:\n        /* \"#utility.yul\":3223:3230   */\n      0x00\n        /* \"#utility.yul\":3266:3271   */\n      dup2\n        /* \"#utility.yul\":3259:3272   */\n      iszero\n        /* \"#utility.yul\":3252:3273   */\n      iszero\n        /* \"#utility.yul\":3241:3273   */\n      swap1\n      pop\n        /* \"#utility.yul\":3189:3279   */\n      swap2\n      swap1\n      pop\n      jump\t// out\n        /* \"#utility.yul\":3285:3394   */\n    tag_59:\n        /* \"#utility.yul\":3366:3387   */\n      tag_103\n        /* \"#utility.yul\":3381:3386   */\n      dup2\n        /* \"#utility.yul\":3366:3387   */\n      tag_58\n      jump\t// in\n    tag_103:\n        /* \"#utility.yul\":3361:3364   */\n      dup3\n        /* \"#utility.yul\":3354:3388   */\n      mstore\n        /* \"#utility.yul\":3285:3394   */\n      pop\n      pop\n      jump\t// out\n        /* \"#utility.yul\":3400:3610   */\n    tag_19:\n        /* \"#utility.yul\":3487:3491   */\n      0x00\n        /* \"#utility.yul\":3525:3527   */\n      0x20\n        /* \"#utility.yul\":3514:3523   */\n      dup3\n        /* \"#utility.yul\":3510:3528   */\n      add\n        /* \"#utility.yul\":3502:3528   */\n      swap1\n      pop\n        /* \"#utility.yul\":3538:3603   */\n      tag_105\n        /* \"#utility.yul\":3600:3601   */\n      0x00\n        /* \"#utility.yul\":3589:3598   */\n      dup4\n        /* \"#utility.yul\":3585:3602   */\n      add\n        /* \"#utility.yul\":3576:3582   */\n      dup5\n        /* \"#utility.yul\":3538:3603   */\n      tag_59\n      jump\t// in\n    tag_105:\n        /* \"#utility.yul\":3400:3610   */\n      swap3\n      swap2\n      pop\n      pop\n      jump\t// out\n        /* \"#utility.yul\":3616:3693   */\n    tag_60:\n        /* \"#utility.yul\":3653:3660   */\n      0x00\n        /* \"#utility.yul\":3682:3687   */\n      dup2\n        /* \"#utility.yul\":3671:3687   */\n      swap1\n      pop\n        /* \"#utility.yul\":3616:3693   */\n      swap2\n      swap1\n      pop\n      jump\t// out\n        /* \"#utility.yul\":3699:3817   */\n    tag_61:\n        /* \"#utility.yul\":3786:3810   */\n      tag_108\n        /* \"#utility.yul\":3804:3809   */\n      dup2\n        /* \"#utility.yul\":3786:3810   */\n      tag_60\n      jump\t// in\n    tag_108:\n        /* \"#utility.yul\":3781:3784   */\n      dup3\n        /* \"#utility.yul\":3774:3811   */\n      mstore\n        /* \"#utility.yul\":3699:3817   */\n      pop\n      pop\n      jump\t// out\n        /* \"#utility.yul\":3823:4045   */\n    tag_23:\n        /* \"#utility.yul\":3916:3920   */\n      0x00\n        /* \"#utility.yul\":3954:3956   */\n      0x20\n        /* \"#utility.yul\":3943:3952   */\n      dup3\n        /* \"#utility.yul\":3939:3957   */\n      add\n        /* \"#utility.yul\":3931:3957   */\n      swap1\n      pop\n        /* \"#utility.yul\":3967:4038   */\n      tag_110\n        /* \"#utility.yul\":4035:4036   */\n      0x00\n        /* \"#utility.yul\":4024:4033   */\n      dup4\n        /* \"#utility.yul\":4020:4037   */\n      add\n        /* \"#utility.yul\":4011:4017   */\n      dup5\n        /* \"#utility.yul\":3967:4038   */\n      tag_61\n      jump\t// in\n    tag_110:\n        /* \"#utility.yul\":3823:4045   */\n      swap3\n      swap2\n      pop\n      pop\n      jump\t// out\n        /* \"#utility.yul\":4051:4220   */\n    tag_62:\n        /* \"#utility.yul\":4135:4146   */\n      0x00\n        /* \"#utility.yul\":4169:4175   */\n      dup3\n        /* \"#utility.yul\":4164:4167   */\n      dup3\n        /* \"#utility.yul\":4157:4176   */\n      mstore\n        /* \"#utility.yul\":4209:4213   */\n      0x20\n        /* \"#utility.yul\":4204:4207   */\n      dup3\n        /* \"#utility.yul\":4200:4214   */\n      add\n        /* \"#utility.yul\":4185:4214   */\n      swap1\n      pop\n        /* \"#utility.yul\":4051:4220   */\n      swap3\n      swap2\n      pop\n      pop\n      jump\t// out\n        /* \"#utility.yul\":4226:4406   */\n    tag_63:\n        /* \"#utility.yul\":4366:4398   */\n      0x4f6e6c792061646d696e2063616e206164642061206e65772061646d696e0000\n        /* \"#utility.yul\":4362:4363   */\n      0x00\n        /* \"#utility.yul\":4354:4360   */\n      dup3\n        /* \"#utility.yul\":4350:4364   */\n      add\n        /* \"#utility.yul\":4343:4399   */\n      mstore\n        /* \"#utility.yul\":4226:4406   */\n      pop\n      jump\t// out\n        /* \"#utility.yul\":4412:4778   */\n    tag_64:\n        /* \"#utility.yul\":4554:4557   */\n      0x00\n        /* \"#utility.yul\":4575:4642   */\n      tag_114\n        /* \"#utility.yul\":4639:4641   */\n      0x1e\n        /* \"#utility.yul\":4634:4637   */\n      dup4\n        /* \"#utility.yul\":4575:4642   */\n      tag_62\n      jump\t// in\n    tag_114:\n        /* \"#utility.yul\":4568:4642   */\n      swap2\n      pop\n        /* \"#utility.yul\":4651:4744   */\n      tag_115\n        /* \"#utility.yul\":4740:4743   */\n      dup3\n        /* \"#utility.yul\":4651:4744   */\n      tag_63\n      jump\t// in\n    tag_115:\n        /* \"#utility.yul\":4769:4771   */\n      0x20\n        /* \"#utility.yul\":4764:4767   */\n      dup3\n        /* \"#utility.yul\":4760:4772   */\n      add\n        /* \"#utility.yul\":4753:4772   */\n      swap1\n      pop\n        /* \"#utility.yul\":4412:4778   */\n      swap2\n      swap1\n      pop\n      jump\t// out\n        /* \"#utility.yul\":4784:5203   */\n    tag_27:\n        /* \"#utility.yul\":4950:4954   */\n      0x00\n        /* \"#utility.yul\":4988:4990   */\n      0x20\n        /* \"#utility.yul\":4977:4986   */\n      dup3\n        /* \"#utility.yul\":4973:4991   */\n      add\n        /* \"#utility.yul\":4965:4991   */\n      swap1\n      pop\n        /* \"#utility.yul\":5037:5046   */\n      dup2\n        /* \"#utility.yul\":5031:5035   */\n      dup2\n        /* \"#utility.yul\":5027:5047   */\n      sub\n        /* \"#utility.yul\":5023:5024   */\n      0x00\n        /* \"#utility.yul\":5012:5021   */\n      dup4\n        /* \"#utility.yul\":5008:5025   */\n      add\n        /* \"#utility.yul\":5001:5048   */\n      mstore\n        /* \"#utility.yul\":5065:5196   */\n      tag_117\n        /* \"#utility.yul\":5191:5195   */\n      dup2\n        /* \"#utility.yul\":5065:5196   */\n      tag_64\n      jump\t// in\n    tag_117:\n        /* \"#utility.yul\":5057:5196   */\n      swap1\n      pop\n        /* \"#utility.yul\":4784:5203   */\n      swap2\n      swap1\n      pop\n      jump\t// out\n        /* \"#utility.yul\":5209:5389   */\n    tag_65:\n        /* \"#utility.yul\":5257:5334   */\n      0x4e487b7100000000000000000000000000000000000000000000000000000000\n        /* \"#utility.yul\":5254:5255   */\n      0x00\n        /* \"#utility.yul\":5247:5335   */\n      mstore\n        /* \"#utility.yul\":5354:5358   */\n      0x11\n        /* \"#utility.yul\":5351:5352   */\n      0x04\n        /* \"#utility.yul\":5344:5359   */\n      mstore\n        /* \"#utility.yul\":5378:5382   */\n      0x24\n        /* \"#utility.yul\":5375:5376   */\n      0x00\n        /* \"#utility.yul\":5368:5383   */\n      revert\n        /* \"#utility.yul\":5395:5586   */\n    tag_29:\n        /* \"#utility.yul\":5435:5438   */\n      0x00\n        /* \"#utility.yul\":5454:5474   */\n      tag_120\n        /* \"#utility.yul\":5472:5473   */\n      dup3\n        /* \"#utility.yul\":5454:5474   */\n      tag_60\n      jump\t// in\n    tag_120:\n        /* \"#utility.yul\":5449:5474   */\n      swap2\n      pop\n        /* \"#utility.yul\":5488:5508   */\n      tag_121\n        /* \"#utility.yul\":5506:5507   */\n      dup4\n        /* \"#utility.yul\":5488:5508   */\n      tag_60\n      jump\t// in\n    tag_121:\n        /* \"#utility.yul\":5483:5508   */\n      swap3\n      pop\n        /* \"#utility.yul\":5531:5532   */\n      dup3\n        /* \"#utility.yul\":5528:5529   */\n      dup3\n        /* \"#utility.yul\":5524:5533   */\n      add\n        /* \"#utility.yul\":5517:5533   */\n      swap1\n      pop\n        /* \"#utility.yul\":5552:5555   */\n      dup1\n        /* \"#utility.yul\":5549:5550   */\n      dup3\n        /* \"#utility.yul\":5546:5556   */\n      gt\n        /* \"#utility.yul\":5543:5579   */\n      iszero\n      tag_122\n      jumpi\n        /* \"#utility.yul\":5559:5577   */\n      tag_123\n      tag_65\n      jump\t// in\n    tag_123:\n        /* \"#utility.yul\":5543:5579   */\n    tag_122:\n        /* \"#utility.yul\":5395:5586   */\n      swap3\n      swap2\n      pop\n      pop\n      jump\t// out\n        /* \"#utility.yul\":5592:5772   */\n    tag_33:\n        /* \"#utility.yul\":5640:5717   */\n      0x4e487b7100000000000000000000000000000000000000000000000000000000\n        /* \"#utility.yul\":5637:5638   */\n      0x00\n        /* \"#utility.yul\":5630:5718   */\n      mstore\n        /* \"#utility.yul\":5737:5741   */\n      0x41\n        /* \"#utility.yul\":5734:5735   */\n      0x04\n        /* \"#utility.yul\":5727:5742   */\n      mstore\n        /* \"#utility.yul\":5761:5765   */\n      0x24\n        /* \"#utility.yul\":5758:5759   */\n      0x00\n        /* \"#utility.yul\":5751:5766   */\n      revert\n        /* \"#utility.yul\":5778:5958   */\n    tag_40:\n        /* \"#utility.yul\":5826:5903   */\n      0x4e487b7100000000000000000000000000000000000000000000000000000000\n        /* \"#utility.yul\":5823:5824   */\n      0x00\n        /* \"#utility.yul\":5816:5904   */\n      mstore\n        /* \"#utility.yul\":5923:5927   */\n      0x32\n        /* \"#utility.yul\":5920:5921   */\n      0x04\n        /* \"#utility.yul\":5913:5928   */\n      mstore\n        /* \"#utility.yul\":5947:5951   */\n      0x24\n        /* \"#utility.yul\":5944:5945   */\n      0x00\n        /* \"#utility.yul\":5937:5952   */\n      revert\n        /* \"#utility.yul\":5964:6197   */\n    tag_42:\n        /* \"#utility.yul\":6003:6006   */\n      0x00\n        /* \"#utility.yul\":6026:6050   */\n      tag_127\n        /* \"#utility.yul\":6044:6049   */\n      dup3\n        /* \"#utility.yul\":6026:6050   */\n      tag_60\n      jump\t// in\n    tag_127:\n        /* \"#utility.yul\":6017:6050   */\n      swap2\n      pop\n        /* \"#utility.yul\":6072:6138   */\n      0xffffffffffffffffffffffffffffffffffffffffffffffffffffffffffffffff\n        /* \"#utility.yul\":6065:6070   */\n      dup3\n        /* \"#utility.yul\":6062:6139   */\n      sub\n        /* \"#utility.yul\":6059:6162   */\n      tag_128\n      jumpi\n        /* \"#utility.yul\":6142:6160   */\n      tag_129\n      tag_65\n      jump\t// in\n    tag_129:\n        /* \"#utility.yul\":6059:6162   */\n    tag_128:\n        /* \"#utility.yul\":6189:6190   */\n      0x01\n        /* \"#utility.yul\":6182:6187   */\n      dup3\n        /* \"#utility.yul\":6178:6191   */\n      add\n        /* \"#utility.yul\":6171:6191   */\n      swap1\n      pop\n        /* \"#utility.yul\":5964:6197   */\n      swap2\n      swap1\n      pop\n      jump\t// out\n\n    auxdata: 0xa264697066735822122086cc1858d36a6b236f25a85091087f32f3168202d31602e39e9323a7afff912064736f6c63430008160033\n}\n",
				"bytecode": {
					"linkReferences": {},
					"object": "60806040525f600255348015610013575f80fd5b50335f8060025481526020019081526020015f205f6101000a81548173ffffffffffffffffffffffffffffffffffffffff021916908373ffffffffffffffffffffffffffffffffffffffff1602179055506001805f805f60025481526020019081526020015f205f9054906101000a900473ffffffffffffffffffffffffffffffffffffffff1673ffffffffffffffffffffffffffffffffffffffff1673ffffffffffffffffffffffffffffffffffffffff1681526020019081526020015f205f6101000a81548160ff02191690831515021790555060016002819055506106e7806100fe5f395ff3fe608060405234801561000f575f80fd5b506004361061004a575f3560e01c8063040205951461004e57806331ae450b1461006a5780634ed38faf14610088578063f102291d146100b8575b5f80fd5b610068600480360381019061006391906103d2565b6100d6565b005b610072610250565b60405161007f91906104b4565b60405180910390f35b6100a2600480360381019061009d91906103d2565b61034e565b6040516100af91906104ee565b60405180910390f35b6100c061036b565b6040516100cd919061051f565b60405180910390f35b60015f3373ffffffffffffffffffffffffffffffffffffffff1673ffffffffffffffffffffffffffffffffffffffff1681526020019081526020015f205f9054906101000a900460ff1661015f576040517f08c379a000000000000000000000000000000000000000000000000000000000815260040161015690610592565b60405180910390fd5b805f8060025481526020019081526020015f205f6101000a81548173ffffffffffffffffffffffffffffffffffffffff021916908373ffffffffffffffffffffffffffffffffffffffff160217905550600160025f8282546101c191906105dd565b925050819055506001805f805f60025481526020019081526020015f205f9054906101000a900473ffffffffffffffffffffffffffffffffffffffff1673ffffffffffffffffffffffffffffffffffffffff1673ffffffffffffffffffffffffffffffffffffffff1681526020019081526020015f205f6101000a81548160ff02191690831515021790555050565b60605f60025467ffffffffffffffff81111561026f5761026e610610565b5b60405190808252806020026020018201604052801561029d5781602001602082028036833780820191505090505b5090505f805b600254811015610345575f808281526020019081526020015f205f9054906101000a900473ffffffffffffffffffffffffffffffffffffffff168382815181106102f0576102ef61063d565b5b602002602001019073ffffffffffffffffffffffffffffffffffffffff16908173ffffffffffffffffffffffffffffffffffffffff168152505081806103359061066a565b92505080806001019150506102a3565b50819250505090565b6001602052805f5260405f205f915054906101000a900460ff1681565b5f600254905090565b5f80fd5b5f73ffffffffffffffffffffffffffffffffffffffff82169050919050565b5f6103a182610378565b9050919050565b6103b181610397565b81146103bb575f80fd5b50565b5f813590506103cc816103a8565b92915050565b5f602082840312156103e7576103e6610374565b5b5f6103f4848285016103be565b91505092915050565b5f81519050919050565b5f82825260208201905092915050565b5f819050602082019050919050565b61042f81610397565b82525050565b5f6104408383610426565b60208301905092915050565b5f602082019050919050565b5f610462826103fd565b61046c8185610407565b935061047783610417565b805f5b838110156104a757815161048e8882610435565b97506104998361044c565b92505060018101905061047a565b5085935050505092915050565b5f6020820190508181035f8301526104cc8184610458565b905092915050565b5f8115159050919050565b6104e8816104d4565b82525050565b5f6020820190506105015f8301846104df565b92915050565b5f819050919050565b61051981610507565b82525050565b5f6020820190506105325f830184610510565b92915050565b5f82825260208201905092915050565b7f4f6e6c792061646d696e2063616e206164642061206e65772061646d696e00005f82015250565b5f61057c601e83610538565b915061058782610548565b602082019050919050565b5f6020820190508181035f8301526105a981610570565b9050919050565b7f4e487b71000000000000000000000000000000000000000000000000000000005f52601160045260245ffd5b5f6105e782610507565b91506105f283610507565b925082820190508082111561060a576106096105b0565b5b92915050565b7f4e487b71000000000000000000000000000000000000000000000000000000005f52604160045260245ffd5b7f4e487b71000000000000000000000000000000000000000000000000000000005f52603260045260245ffd5b5f61067482610507565b91507fffffffffffffffffffffffffffffffffffffffffffffffffffffffffffffffff82036106a6576106a56105b0565b5b60018201905091905056fea264697066735822122086cc1858d36a6b236f25a85091087f32f3168202d31602e39e9323a7afff912064736f6c63430008160033",
					"opcodes": "PUSH1 0x80 PUSH1 0x40 MSTORE PUSH0 PUSH1 0x2 SSTORE CALLVALUE DUP1 ISZERO PUSH2 0x13 JUMPI PUSH0 DUP1 REVERT JUMPDEST POP CALLER PUSH0 DUP1 PUSH1 0x2 SLOAD DUP2 MSTORE PUSH1 0x20 ADD SWAP1 DUP2 MSTORE PUSH1 0x20 ADD PUSH0 KECCAK256 PUSH0 PUSH2 0x100 EXP DUP2 SLOAD DUP2 PUSH20 0xFFFFFFFFFFFFFFFFFFFFFFFFFFFFFFFFFFFFFFFF MUL NOT AND SWAP1 DUP4 PUSH20 0xFFFFFFFFFFFFFFFFFFFFFFFFFFFFFFFFFFFFFFFF AND MUL OR SWAP1 SSTORE POP PUSH1 0x1 DUP1 PUSH0 DUP1 PUSH0 PUSH1 0x2 SLOAD DUP2 MSTORE PUSH1 0x20 ADD SWAP1 DUP2 MSTORE PUSH1 0x20 ADD PUSH0 KECCAK256 PUSH0 SWAP1 SLOAD SWAP1 PUSH2 0x100 EXP SWAP1 DIV PUSH20 0xFFFFFFFFFFFFFFFFFFFFFFFFFFFFFFFFFFFFFFFF AND PUSH20 0xFFFFFFFFFFFFFFFFFFFFFFFFFFFFFFFFFFFFFFFF AND PUSH20 0xFFFFFFFFFFFFFFFFFFFFFFFFFFFFFFFFFFFFFFFF AND DUP2 MSTORE PUSH1 0x20 ADD SWAP1 DUP2 MSTORE PUSH1 0x20 ADD PUSH0 KECCAK256 PUSH0 PUSH2 0x100 EXP DUP2 SLOAD DUP2 PUSH1 0xFF MUL NOT AND SWAP1 DUP4 ISZERO ISZERO MUL OR SWAP1 SSTORE POP PUSH1 0x1 PUSH1 0x2 DUP2 SWAP1 SSTORE POP PUSH2 0x6E7 DUP1 PUSH2 0xFE PUSH0 CODECOPY PUSH0 RETURN INVALID PUSH1 0x80 PUSH1 0x40 MSTORE CALLVALUE DUP1 ISZERO PUSH2 0xF JUMPI PUSH0 DUP1 REVERT JUMPDEST POP PUSH1 0x4 CALLDATASIZE LT PUSH2 0x4A JUMPI PUSH0 CALLDATALOAD PUSH1 0xE0 SHR DUP1 PUSH4 0x4020595 EQ PUSH2 0x4E JUMPI DUP1 PUSH4 0x31AE450B EQ PUSH2 0x6A JUMPI DUP1 PUSH4 0x4ED38FAF EQ PUSH2 0x88 JUMPI DUP1 PUSH4 0xF102291D EQ PUSH2 0xB8 JUMPI JUMPDEST PUSH0 DUP1 REVERT JUMPDEST PUSH2 0x68 PUSH1 0x4 DUP1 CALLDATASIZE SUB DUP2 ADD SWAP1 PUSH2 0x63 SWAP2 SWAP1 PUSH2 0x3D2 JUMP JUMPDEST PUSH2 0xD6 JUMP JUMPDEST STOP JUMPDEST PUSH2 0x72 PUSH2 0x250 JUMP JUMPDEST PUSH1 0x40 MLOAD PUSH2 0x7F SWAP2 SWAP1 PUSH2 0x4B4 JUMP JUMPDEST PUSH1 0x40 MLOAD DUP1 SWAP2 SUB SWAP1 RETURN JUMPDEST PUSH2 0xA2 PUSH1 0x4 DUP1 CALLDATASIZE SUB DUP2 ADD SWAP1 PUSH2 0x9D SWAP2 SWAP1 PUSH2 0x3D2 JUMP JUMPDEST PUSH2 0x34E JUMP JUMPDEST PUSH1 0x40 MLOAD PUSH2 0xAF SWAP2 SWAP1 PUSH2 0x4EE JUMP JUMPDEST PUSH1 0x40 MLOAD DUP1 SWAP2 SUB SWAP1 RETURN JUMPDEST PUSH2 0xC0 PUSH2 0x36B JUMP JUMPDEST PUSH1 0x40 MLOAD PUSH2 0xCD SWAP2 SWAP1 PUSH2 0x51F JUMP JUMPDEST PUSH1 0x40 MLOAD DUP1 SWAP2 SUB SWAP1 RETURN JUMPDEST PUSH1 0x1 PUSH0 CALLER PUSH20 0xFFFFFFFFFFFFFFFFFFFFFFFFFFFFFFFFFFFFFFFF AND PUSH20 0xFFFFFFFFFFFFFFFFFFFFFFFFFFFFFFFFFFFFFFFF AND DUP2 MSTORE PUSH1 0x20 ADD SWAP1 DUP2 MSTORE PUSH1 0x20 ADD PUSH0 KECCAK256 PUSH0 SWAP1 SLOAD SWAP1 PUSH2 0x100 EXP SWAP1 DIV PUSH1 0xFF AND PUSH2 0x15F JUMPI PUSH1 0x40 MLOAD PUSH32 0x8C379A000000000000000000000000000000000000000000000000000000000 DUP2 MSTORE PUSH1 0x4 ADD PUSH2 0x156 SWAP1 PUSH2 0x592 JUMP JUMPDEST PUSH1 0x40 MLOAD DUP1 SWAP2 SUB SWAP1 REVERT JUMPDEST DUP1 PUSH0 DUP1 PUSH1 0x2 SLOAD DUP2 MSTORE PUSH1 0x20 ADD SWAP1 DUP2 MSTORE PUSH1 0x20 ADD PUSH0 KECCAK256 PUSH0 PUSH2 0x100 EXP DUP2 SLOAD DUP2 PUSH20 0xFFFFFFFFFFFFFFFFFFFFFFFFFFFFFFFFFFFFFFFF MUL NOT AND SWAP1 DUP4 PUSH20 0xFFFFFFFFFFFFFFFFFFFFFFFFFFFFFFFFFFFFFFFF AND MUL OR SWAP1 SSTORE POP PUSH1 0x1 PUSH1 0x2 PUSH0 DUP3 DUP3 SLOAD PUSH2 0x1C1 SWAP2 SWAP1 PUSH2 0x5DD JUMP JUMPDEST SWAP3 POP POP DUP2 SWAP1 SSTORE POP PUSH1 0x1 DUP1 PUSH0 DUP1 PUSH0 PUSH1 0x2 SLOAD DUP2 MSTORE PUSH1 0x20 ADD SWAP1 DUP2 MSTORE PUSH1 0x20 ADD PUSH0 KECCAK256 PUSH0 SWAP1 SLOAD SWAP1 PUSH2 0x100 EXP SWAP1 DIV PUSH20 0xFFFFFFFFFFFFFFFFFFFFFFFFFFFFFFFFFFFFFFFF AND PUSH20 0xFFFFFFFFFFFFFFFFFFFFFFFFFFFFFFFFFFFFFFFF AND PUSH20 0xFFFFFFFFFFFFFFFFFFFFFFFFFFFFFFFFFFFFFFFF AND DUP2 MSTORE PUSH1 0x20 ADD SWAP1 DUP2 MSTORE PUSH1 0x20 ADD PUSH0 KECCAK256 PUSH0 PUSH2 0x100 EXP DUP2 SLOAD DUP2 PUSH1 0xFF MUL NOT AND SWAP1 DUP4 ISZERO ISZERO MUL OR SWAP1 SSTORE POP POP JUMP JUMPDEST PUSH1 0x60 PUSH0 PUSH1 0x2 SLOAD PUSH8 0xFFFFFFFFFFFFFFFF DUP2 GT ISZERO PUSH2 0x26F JUMPI PUSH2 0x26E PUSH2 0x610 JUMP JUMPDEST JUMPDEST PUSH1 0x40 MLOAD SWAP1 DUP1 DUP3 MSTORE DUP1 PUSH1 0x20 MUL PUSH1 0x20 ADD DUP3 ADD PUSH1 0x40 MSTORE DUP1 ISZERO PUSH2 0x29D JUMPI DUP2 PUSH1 0x20 ADD PUSH1 0x20 DUP3 MUL DUP1 CALLDATASIZE DUP4 CALLDATACOPY DUP1 DUP3 ADD SWAP2 POP POP SWAP1 POP JUMPDEST POP SWAP1 POP PUSH0 DUP1 JUMPDEST PUSH1 0x2 SLOAD DUP2 LT ISZERO PUSH2 0x345 JUMPI PUSH0 DUP1 DUP3 DUP2 MSTORE PUSH1 0x20 ADD SWAP1 DUP2 MSTORE PUSH1 0x20 ADD PUSH0 KECCAK256 PUSH0 SWAP1 SLOAD SWAP1 PUSH2 0x100 EXP SWAP1 DIV PUSH20 0xFFFFFFFFFFFFFFFFFFFFFFFFFFFFFFFFFFFFFFFF AND DUP4 DUP3 DUP2 MLOAD DUP2 LT PUSH2 0x2F0 JUMPI PUSH2 0x2EF PUSH2 0x63D JUMP JUMPDEST JUMPDEST PUSH1 0x20 MUL PUSH1 0x20 ADD ADD SWAP1 PUSH20 0xFFFFFFFFFFFFFFFFFFFFFFFFFFFFFFFFFFFFFFFF AND SWAP1 DUP2 PUSH20 0xFFFFFFFFFFFFFFFFFFFFFFFFFFFFFFFFFFFFFFFF AND DUP2 MSTORE POP POP DUP2 DUP1 PUSH2 0x335 SWAP1 PUSH2 0x66A JUMP JUMPDEST SWAP3 POP POP DUP1 DUP1 PUSH1 0x1 ADD SWAP2 POP POP PUSH2 0x2A3 JUMP JUMPDEST POP DUP2 SWAP3 POP POP POP SWAP1 JUMP JUMPDEST PUSH1 0x1 PUSH1 0x20 MSTORE DUP1 PUSH0 MSTORE PUSH1 0x40 PUSH0 KECCAK256 PUSH0 SWAP2 POP SLOAD SWAP1 PUSH2 0x100 EXP SWAP1 DIV PUSH1 0xFF AND DUP2 JUMP JUMPDEST PUSH0 PUSH1 0x2 SLOAD SWAP1 POP SWAP1 JUMP JUMPDEST PUSH0 DUP1 REVERT JUMPDEST PUSH0 PUSH20 0xFFFFFFFFFFFFFFFFFFFFFFFFFFFFFFFFFFFFFFFF DUP3 AND SWAP1 POP SWAP2 SWAP1 POP JUMP JUMPDEST PUSH0 PUSH2 0x3A1 DUP3 PUSH2 0x378 JUMP JUMPDEST SWAP1 POP SWAP2 SWAP1 POP JUMP JUMPDEST PUSH2 0x3B1 DUP2 PUSH2 0x397 JUMP JUMPDEST DUP2 EQ PUSH2 0x3BB JUMPI PUSH0 DUP1 REVERT JUMPDEST POP JUMP JUMPDEST PUSH0 DUP2 CALLDATALOAD SWAP1 POP PUSH2 0x3CC DUP2 PUSH2 0x3A8 JUMP JUMPDEST SWAP3 SWAP2 POP POP JUMP JUMPDEST PUSH0 PUSH1 0x20 DUP3 DUP5 SUB SLT ISZERO PUSH2 0x3E7 JUMPI PUSH2 0x3E6 PUSH2 0x374 JUMP JUMPDEST JUMPDEST PUSH0 PUSH2 0x3F4 DUP5 DUP3 DUP6 ADD PUSH2 0x3BE JUMP JUMPDEST SWAP2 POP POP SWAP3 SWAP2 POP POP JUMP JUMPDEST PUSH0 DUP2 MLOAD SWAP1 POP SWAP2 SWAP1 POP JUMP JUMPDEST PUSH0 DUP3 DUP3 MSTORE PUSH1 0x20 DUP3 ADD SWAP1 POP SWAP3 SWAP2 POP POP JUMP JUMPDEST PUSH0 DUP2 SWAP1 POP PUSH1 0x20 DUP3 ADD SWAP1 POP SWAP2 SWAP1 POP JUMP JUMPDEST PUSH2 0x42F DUP2 PUSH2 0x397 JUMP JUMPDEST DUP3 MSTORE POP POP JUMP JUMPDEST PUSH0 PUSH2 0x440 DUP4 DUP4 PUSH2 0x426 JUMP JUMPDEST PUSH1 0x20 DUP4 ADD SWAP1 POP SWAP3 SWAP2 POP POP JUMP JUMPDEST PUSH0 PUSH1 0x20 DUP3 ADD SWAP1 POP SWAP2 SWAP1 POP JUMP JUMPDEST PUSH0 PUSH2 0x462 DUP3 PUSH2 0x3FD JUMP JUMPDEST PUSH2 0x46C DUP2 DUP6 PUSH2 0x407 JUMP JUMPDEST SWAP4 POP PUSH2 0x477 DUP4 PUSH2 0x417 JUMP JUMPDEST DUP1 PUSH0 JUMPDEST DUP4 DUP2 LT ISZERO PUSH2 0x4A7 JUMPI DUP2 MLOAD PUSH2 0x48E DUP9 DUP3 PUSH2 0x435 JUMP JUMPDEST SWAP8 POP PUSH2 0x499 DUP4 PUSH2 0x44C JUMP JUMPDEST SWAP3 POP POP PUSH1 0x1 DUP2 ADD SWAP1 POP PUSH2 0x47A JUMP JUMPDEST POP DUP6 SWAP4 POP POP POP POP SWAP3 SWAP2 POP POP JUMP JUMPDEST PUSH0 PUSH1 0x20 DUP3 ADD SWAP1 POP DUP2 DUP2 SUB PUSH0 DUP4 ADD MSTORE PUSH2 0x4CC DUP2 DUP5 PUSH2 0x458 JUMP JUMPDEST SWAP1 POP SWAP3 SWAP2 POP POP JUMP JUMPDEST PUSH0 DUP2 ISZERO ISZERO SWAP1 POP SWAP2 SWAP1 POP JUMP JUMPDEST PUSH2 0x4E8 DUP2 PUSH2 0x4D4 JUMP JUMPDEST DUP3 MSTORE POP POP JUMP JUMPDEST PUSH0 PUSH1 0x20 DUP3 ADD SWAP1 POP PUSH2 0x501 PUSH0 DUP4 ADD DUP5 PUSH2 0x4DF JUMP JUMPDEST SWAP3 SWAP2 POP POP JUMP JUMPDEST PUSH0 DUP2 SWAP1 POP SWAP2 SWAP1 POP JUMP JUMPDEST PUSH2 0x519 DUP2 PUSH2 0x507 JUMP JUMPDEST DUP3 MSTORE POP POP JUMP JUMPDEST PUSH0 PUSH1 0x20 DUP3 ADD SWAP1 POP PUSH2 0x532 PUSH0 DUP4 ADD DUP5 PUSH2 0x510 JUMP JUMPDEST SWAP3 SWAP2 POP POP JUMP JUMPDEST PUSH0 DUP3 DUP3 MSTORE PUSH1 0x20 DUP3 ADD SWAP1 POP SWAP3 SWAP2 POP POP JUMP JUMPDEST PUSH32 0x4F6E6C792061646D696E2063616E206164642061206E65772061646D696E0000 PUSH0 DUP3 ADD MSTORE POP JUMP JUMPDEST PUSH0 PUSH2 0x57C PUSH1 0x1E DUP4 PUSH2 0x538 JUMP JUMPDEST SWAP2 POP PUSH2 0x587 DUP3 PUSH2 0x548 JUMP JUMPDEST PUSH1 0x20 DUP3 ADD SWAP1 POP SWAP2 SWAP1 POP JUMP JUMPDEST PUSH0 PUSH1 0x20 DUP3 ADD SWAP1 POP DUP2 DUP2 SUB PUSH0 DUP4 ADD MSTORE PUSH2 0x5A9 DUP2 PUSH2 0x570 JUMP JUMPDEST SWAP1 POP SWAP2 SWAP1 POP JUMP JUMPDEST PUSH32 0x4E487B7100000000000000000000000000000000000000000000000000000000 PUSH0 MSTORE PUSH1 0x11 PUSH1 0x4 MSTORE PUSH1 0x24 PUSH0 REVERT JUMPDEST PUSH0 PUSH2 0x5E7 DUP3 PUSH2 0x507 JUMP JUMPDEST SWAP2 POP PUSH2 0x5F2 DUP4 PUSH2 0x507 JUMP JUMPDEST SWAP3 POP DUP3 DUP3 ADD SWAP1 POP DUP1 DUP3 GT ISZERO PUSH2 0x60A JUMPI PUSH2 0x609 PUSH2 0x5B0 JUMP JUMPDEST JUMPDEST SWAP3 SWAP2 POP POP JUMP JUMPDEST PUSH32 0x4E487B7100000000000000000000000000000000000000000000000000000000 PUSH0 MSTORE PUSH1 0x41 PUSH1 0x4 MSTORE PUSH1 0x24 PUSH0 REVERT JUMPDEST PUSH32 0x4E487B7100000000000000000000000000000000000000000000000000000000 PUSH0 MSTORE PUSH1 0x32 PUSH1 0x4 MSTORE PUSH1 0x24 PUSH0 REVERT JUMPDEST PUSH0 PUSH2 0x674 DUP3 PUSH2 0x507 JUMP JUMPDEST SWAP2 POP PUSH32 0xFFFFFFFFFFFFFFFFFFFFFFFFFFFFFFFFFFFFFFFFFFFFFFFFFFFFFFFFFFFFFFFF DUP3 SUB PUSH2 0x6A6 JUMPI PUSH2 0x6A5 PUSH2 0x5B0 JUMP JUMPDEST JUMPDEST PUSH1 0x1 DUP3 ADD SWAP1 POP SWAP2 SWAP1 POP JUMP INVALID LOG2 PUSH5 0x6970667358 0x22 SLT KECCAK256 DUP7 0xCC XOR PC 0xD3 PUSH11 0x6B236F25A85091087F32F3 AND DUP3 MUL 0xD3 AND MUL 0xE3 SWAP15 SWAP4 0x23 0xA7 0xAF SELFDESTRUCT SWAP2 KECCAK256 PUSH5 0x736F6C6343 STOP ADDMOD AND STOP CALLER "
				},
				"gasEstimates": {
					"creation": {
						"codeDepositCost": "353400",
						"executionCost": "82616",
						"totalCost": "436016"
					},
					"external": {
						"adminAddresses(address)": "2855",
						"createAdmin(address)": "infinite",
						"getAdmins()": "infinite",
						"totalAdminCount()": "2476"
					}
				},
				"methodIdentifiers": {
					"adminAddresses(address)": "4ed38faf",
					"createAdmin(address)": "04020595",
					"getAdmins()": "31ae450b",
					"totalAdminCount()": "f102291d"
				}
			},
			"storageLayout": {
				"storage": [
					{
						"astId": 7,
						"contract": "admin.sol:Admin",
						"label": "adminKeys",
						"offset": 0,
						"slot": "0",
						"type": "t_mapping(t_uint256,t_address)"
					},
					{
						"astId": 11,
						"contract": "admin.sol:Admin",
						"label": "adminAddresses",
						"offset": 0,
						"slot": "1",
						"type": "t_mapping(t_address,t_bool)"
					},
					{
						"astId": 14,
						"contract": "admin.sol:Admin",
						"label": "totalAdmins",
						"offset": 0,
						"slot": "2",
						"type": "t_uint256"
					}
				],
				"types": {
					"t_address": {
						"encoding": "inplace",
						"label": "address",
						"numberOfBytes": "20"
					},
					"t_bool": {
						"encoding": "inplace",
						"label": "bool",
						"numberOfBytes": "1"
					},
					"t_mapping(t_address,t_bool)": {
						"encoding": "mapping",
						"key": "t_address",
						"label": "mapping(address => bool)",
						"numberOfBytes": "32",
						"value": "t_bool"
					},
					"t_mapping(t_uint256,t_address)": {
						"encoding": "mapping",
						"key": "t_uint256",
						"label": "mapping(uint256 => address)",
						"numberOfBytes": "32",
						"value": "t_address"
					},
					"t_uint256": {
						"encoding": "inplace",
						"label": "uint256",
						"numberOfBytes": "32"
					}
				}
			},
			"userdoc": {
				"kind": "user",
				"methods": {},
				"version": 1
			}
		}
	}
}