{
	"admin.sol": {
		"Admin": {
			"abi": [
				{
					"inputs": [],
					"stateMutability": "nonpayable",
					"type": "constructor"
				},
				{
					"anonymous": false,
					"inputs": [
						{
							"indexed": false,
							"internalType": "uint256",
							"name": "number",
							"type": "uint256"
						},
						{
							"indexed": false,
							"internalType": "address",
							"name": "data",
							"type": "address"
						}
					],
					"name": "logAddress",
					"type": "event"
				},
				{
					"anonymous": false,
					"inputs": [
						{
							"indexed": false,
							"internalType": "uint256",
							"name": "number",
							"type": "uint256"
						},
						{
							"indexed": false,
							"internalType": "string",
							"name": "data",
							"type": "string"
						}
					],
					"name": "logAdmin",
					"type": "event"
				},
				{
					"inputs": [
						{
							"internalType": "address",
							"name": "newAdmin",
							"type": "address"
						}
					],
					"name": "acceptAdminRequest",
					"outputs": [
						{
							"internalType": "address",
							"name": "newAdminAddress",
							"type": "address"
						}
					],
					"stateMutability": "nonpayable",
					"type": "function"
				},
				{
					"inputs": [
						{
							"internalType": "address",
							"name": "",
							"type": "address"
						}
					],
					"name": "adminAddresses",
					"outputs": [
						{
							"internalType": "string",
							"name": "fname",
							"type": "string"
						},
						{
							"internalType": "string",
							"name": "lname",
							"type": "string"
						},
						{
							"internalType": "string",
							"name": "username",
							"type": "string"
						},
						{
							"internalType": "string",
							"name": "password",
							"type": "string"
						},
						{
							"internalType": "address",
							"name": "walletAddress",
							"type": "address"
						},
						{
							"components": [
								{
									"internalType": "uint256",
									"name": "date",
									"type": "uint256"
								},
								{
									"internalType": "uint256",
									"name": "month",
									"type": "uint256"
								},
								{
									"internalType": "uint256",
									"name": "year",
									"type": "uint256"
								}
							],
							"internalType": "struct Admin.Date",
							"name": "DoB",
							"type": "tuple"
						},
						{
							"internalType": "bool",
							"name": "verified",
							"type": "bool"
						}
					],
					"stateMutability": "view",
					"type": "function"
				},
				{
					"inputs": [
						{
							"internalType": "uint256",
							"name": "",
							"type": "uint256"
						}
					],
					"name": "adminKeys",
					"outputs": [
						{
							"internalType": "address",
							"name": "",
							"type": "address"
						}
					],
					"stateMutability": "view",
					"type": "function"
				},
				{
					"inputs": [
						{
							"internalType": "uint256",
							"name": "",
							"type": "uint256"
						}
					],
					"name": "adminRequestkeys",
					"outputs": [
						{
							"internalType": "address",
							"name": "",
							"type": "address"
						}
					],
					"stateMutability": "view",
					"type": "function"
				},
				{
					"inputs": [
						{
							"internalType": "address",
							"name": "",
							"type": "address"
						}
					],
					"name": "adminRequests",
					"outputs": [
						{
							"internalType": "address",
							"name": "walletAddress",
							"type": "address"
						},
						{
							"internalType": "enum Admin.RequestStatusType",
							"name": "requestStatus",
							"type": "uint8"
						}
					],
					"stateMutability": "view",
					"type": "function"
				},
				{
					"inputs": [
						{
							"internalType": "address",
							"name": "_adminAddress",
							"type": "address"
						}
					],
					"name": "checkIfAdmin",
					"outputs": [
						{
							"internalType": "bool",
							"name": "",
							"type": "bool"
						}
					],
					"stateMutability": "view",
					"type": "function"
				},
				{
					"inputs": [
						{
							"internalType": "string",
							"name": "myString",
							"type": "string"
						}
					],
					"name": "convertString",
					"outputs": [
						{
							"internalType": "bytes32",
							"name": "",
							"type": "bytes32"
						}
					],
					"stateMutability": "pure",
					"type": "function"
				},
				{
					"inputs": [
						{
							"internalType": "string",
							"name": "fname",
							"type": "string"
						},
						{
							"internalType": "string",
							"name": "lname",
							"type": "string"
						},
						{
							"internalType": "string",
							"name": "username",
							"type": "string"
						},
						{
							"internalType": "string",
							"name": "password",
							"type": "string"
						},
						{
							"internalType": "address",
							"name": "fromAddress",
							"type": "address"
						},
						{
							"internalType": "uint256",
							"name": "day",
							"type": "uint256"
						},
						{
							"internalType": "uint256",
							"name": "month",
							"type": "uint256"
						},
						{
							"internalType": "uint256",
							"name": "year",
							"type": "uint256"
						}
					],
					"name": "createAdminRequest",
					"outputs": [
						{
							"internalType": "bool",
							"name": "",
							"type": "bool"
						}
					],
					"stateMutability": "nonpayable",
					"type": "function"
				},
				{
					"inputs": [
						{
							"internalType": "address",
							"name": "newAdmin",
							"type": "address"
						}
					],
					"name": "declineAdminRequest",
					"outputs": [
						{
							"internalType": "address",
							"name": "rejectedAddress",
							"type": "address"
						}
					],
					"stateMutability": "nonpayable",
					"type": "function"
				},
				{
					"inputs": [],
					"name": "getAdminRequests",
					"outputs": [
						{
							"components": [
								{
									"internalType": "address",
									"name": "walletAddress",
									"type": "address"
								},
								{
									"internalType": "enum Admin.RequestStatusType",
									"name": "requestStatus",
									"type": "uint8"
								}
							],
							"internalType": "struct Admin.AdminRequest[]",
							"name": "",
							"type": "tuple[]"
						}
					],
					"stateMutability": "view",
					"type": "function"
				},
				{
					"inputs": [],
					"name": "getAdmins",
					"outputs": [
						{
							"internalType": "address[]",
							"name": "",
							"type": "address[]"
						}
					],
					"stateMutability": "view",
					"type": "function"
				},
				{
					"inputs": [],
					"name": "getMasterAdmin",
					"outputs": [
						{
							"internalType": "address",
							"name": "",
							"type": "address"
						}
					],
					"stateMutability": "view",
					"type": "function"
				},
				{
					"inputs": [],
					"name": "getTotalAdminCount",
					"outputs": [
						{
							"internalType": "uint256",
							"name": "",
							"type": "uint256"
						}
					],
					"stateMutability": "view",
					"type": "function"
				},
				{
					"inputs": [
						{
							"internalType": "string",
							"name": "username",
							"type": "string"
						},
						{
							"internalType": "string",
							"name": "password",
							"type": "string"
						},
						{
							"internalType": "address",
							"name": "walletAddress",
							"type": "address"
						}
					],
					"name": "login",
					"outputs": [
						{
							"internalType": "bool",
							"name": "",
							"type": "bool"
						}
					],
					"stateMutability": "view",
					"type": "function"
				},
				{
					"inputs": [],
					"name": "masterAdmin",
					"outputs": [
						{
							"internalType": "address",
							"name": "",
							"type": "address"
						}
					],
					"stateMutability": "view",
					"type": "function"
				}
			],
			"devdoc": {
				"kind": "dev",
				"methods": {},
				"version": 1
			},
			"evm": {
				"assembly": "    /* \"admin.sol\":200:5072  contract Admin{... */\n  mstore(0x40, 0x80)\n    /* \"admin.sol\":1344:1345  0 */\n  0x00\n    /* \"admin.sol\":1321:1345  uint totalAdminCount = 0 */\n  0x05\n  sstore\n    /* \"admin.sol\":1377:1378  0 */\n  0x00\n    /* \"admin.sol\":1352:1378  uint totalRequestCount = 0 */\n  0x06\n  sstore\n    /* \"admin.sol\":1387:1473  constructor(){... */\n  callvalue\n  dup1\n  iszero\n  tag_1\n  jumpi\n  0x00\n  dup1\n  revert\ntag_1:\n  pop\n    /* \"admin.sol\":1425:1435  msg.sender */\n  caller\n    /* \"admin.sol\":1411:1422  masterAdmin */\n  0x00\n  dup1\n    /* \"admin.sol\":1411:1435  masterAdmin = msg.sender */\n  0x0100\n  exp\n  dup2\n  sload\n  dup2\n  0xffffffffffffffffffffffffffffffffffffffff\n  mul\n  not\n  and\n  swap1\n  dup4\n  0xffffffffffffffffffffffffffffffffffffffff\n  and\n  mul\n  or\n  swap1\n  sstore\n  pop\n    /* \"admin.sol\":1464:1465  1 */\n  0x01\n    /* \"admin.sol\":1446:1461  totalAdminCount */\n  0x05\n    /* \"admin.sol\":1446:1465  totalAdminCount = 1 */\n  dup2\n  swap1\n  sstore\n  pop\n    /* \"admin.sol\":200:5072  contract Admin{... */\n  dataSize(sub_0)\n  dup1\n  dataOffset(sub_0)\n  0x00\n  codecopy\n  0x00\n  return\nstop\n\nsub_0: assembly {\n        /* \"admin.sol\":200:5072  contract Admin{... */\n      mstore(0x40, 0x80)\n      callvalue\n      dup1\n      iszero\n      tag_1\n      jumpi\n      0x00\n      dup1\n      revert\n    tag_1:\n      pop\n      jumpi(tag_2, lt(calldatasize, 0x04))\n      shr(0xe0, calldataload(0x00))\n      dup1\n      0x67e1cde0\n      gt\n      tag_18\n      jumpi\n      dup1\n      0xd0e93812\n      gt\n      tag_19\n      jumpi\n      dup1\n      0xd0e93812\n      eq\n      tag_14\n      jumpi\n      dup1\n      0xd9fa9c1a\n      eq\n      tag_15\n      jumpi\n      dup1\n      0xdca2c3e4\n      eq\n      tag_16\n      jumpi\n      dup1\n      0xe5a43c7c\n      eq\n      tag_17\n      jumpi\n      jump(tag_2)\n    tag_19:\n      dup1\n      0x67e1cde0\n      eq\n      tag_10\n      jumpi\n      dup1\n      0x6a228aba\n      eq\n      tag_11\n      jumpi\n      dup1\n      0x72f305eb\n      eq\n      tag_12\n      jumpi\n      dup1\n      0xaff125f6\n      eq\n      tag_13\n      jumpi\n      jump(tag_2)\n    tag_18:\n      dup1\n      0x3443105e\n      gt\n      tag_20\n      jumpi\n      dup1\n      0x3443105e\n      eq\n      tag_6\n      jumpi\n      dup1\n      0x3c48aa79\n      eq\n      tag_7\n      jumpi\n      dup1\n      0x4ed38faf\n      eq\n      tag_8\n      jumpi\n      dup1\n      0x6438176c\n      eq\n      tag_9\n      jumpi\n      jump(tag_2)\n    tag_20:\n      dup1\n      0x239d6933\n      eq\n      tag_3\n      jumpi\n      dup1\n      0x2a68f64e\n      eq\n      tag_4\n      jumpi\n      dup1\n      0x31ae450b\n      eq\n      tag_5\n      jumpi\n    tag_2:\n      0x00\n      dup1\n      revert\n        /* \"admin.sol\":1481:2313  function createAdminRequest(... */\n    tag_3:\n      tag_21\n      0x04\n      dup1\n      calldatasize\n      sub\n      dup2\n      add\n      swap1\n      tag_22\n      swap2\n      swap1\n      tag_23\n      jump\t// in\n    tag_22:\n      tag_24\n      jump\t// in\n    tag_21:\n      mload(0x40)\n      tag_25\n      swap2\n      swap1\n      tag_26\n      jump\t// in\n    tag_25:\n      mload(0x40)\n      dup1\n      swap2\n      sub\n      swap1\n      return\n        /* \"admin.sol\":559:585  address public masterAdmin */\n    tag_4:\n      tag_27\n      tag_28\n      jump\t// in\n    tag_27:\n      mload(0x40)\n      tag_29\n      swap2\n      swap1\n      tag_30\n      jump\t// in\n    tag_29:\n      mload(0x40)\n      dup1\n      swap2\n      sub\n      swap1\n      return\n        /* \"admin.sol\":2433:2740  function getAdmins() public view returns (address[] memory) {... */\n    tag_5:\n      tag_31\n      tag_32\n      jump\t// in\n    tag_31:\n      mload(0x40)\n      tag_33\n      swap2\n      swap1\n      tag_34\n      jump\t// in\n    tag_33:\n      mload(0x40)\n      dup1\n      swap2\n      sub\n      swap1\n      return\n        /* \"admin.sol\":3428:3598  function convertString(string memory myString) public pure returns (bytes32) {... */\n    tag_6:\n      tag_35\n      0x04\n      dup1\n      calldatasize\n      sub\n      dup2\n      add\n      swap1\n      tag_36\n      swap2\n      swap1\n      tag_37\n      jump\t// in\n    tag_36:\n      tag_38\n      jump\t// in\n    tag_35:\n      mload(0x40)\n      tag_39\n      swap2\n      swap1\n      tag_40\n      jump\t// in\n    tag_39:\n      mload(0x40)\n      dup1\n      swap2\n      sub\n      swap1\n      return\n        /* \"admin.sol\":1261:1314  mapping(address => AdminRequest) public adminRequests */\n    tag_7:\n      tag_41\n      0x04\n      dup1\n      calldatasize\n      sub\n      dup2\n      add\n      swap1\n      tag_42\n      swap2\n      swap1\n      tag_43\n      jump\t// in\n    tag_42:\n      tag_44\n      jump\t// in\n    tag_41:\n      mload(0x40)\n      tag_45\n      swap3\n      swap2\n      swap1\n      tag_46\n      jump\t// in\n    tag_45:\n      mload(0x40)\n      dup1\n      swap2\n      sub\n      swap1\n      return\n        /* \"admin.sol\":1150:1199  mapping(address=>AdminType) public adminAddresses */\n    tag_8:\n      tag_47\n      0x04\n      dup1\n      calldatasize\n      sub\n      dup2\n      add\n      swap1\n      tag_48\n      swap2\n      swap1\n      tag_43\n      jump\t// in\n    tag_48:\n      tag_49\n      jump\t// in\n    tag_47:\n      mload(0x40)\n      tag_50\n      swap8\n      swap7\n      swap6\n      swap5\n      swap4\n      swap3\n      swap2\n      swap1\n      tag_51\n      jump\t// in\n    tag_50:\n      mload(0x40)\n      dup1\n      swap2\n      sub\n      swap1\n      return\n        /* \"admin.sol\":2323:2423  function getTotalAdminCount() public view returns (uint256){... */\n    tag_9:\n      tag_52\n      tag_53\n      jump\t// in\n    tag_52:\n      mload(0x40)\n      tag_54\n      swap2\n      swap1\n      tag_55\n      jump\t// in\n    tag_54:\n      mload(0x40)\n      dup1\n      swap2\n      sub\n      swap1\n      return\n        /* \"admin.sol\":4197:4651  function declineAdminRequest(address newAdmin) public returns (address rejectedAddress){... */\n    tag_10:\n      tag_56\n      0x04\n      dup1\n      calldatasize\n      sub\n      dup2\n      add\n      swap1\n      tag_57\n      swap2\n      swap1\n      tag_43\n      jump\t// in\n    tag_57:\n      tag_58\n      jump\t// in\n    tag_56:\n      mload(0x40)\n      tag_59\n      swap2\n      swap1\n      tag_30\n      jump\t// in\n    tag_59:\n      mload(0x40)\n      dup1\n      swap2\n      sub\n      swap1\n      return\n        /* \"admin.sol\":4974:5067  function getMasterAdmin() public view returns (address){... */\n    tag_11:\n      tag_60\n      tag_61\n      jump\t// in\n    tag_60:\n      mload(0x40)\n      tag_62\n      swap2\n      swap1\n      tag_30\n      jump\t// in\n    tag_62:\n      mload(0x40)\n      dup1\n      swap2\n      sub\n      swap1\n      return\n        /* \"admin.sol\":1206:1254  mapping(uint => address) public adminRequestkeys */\n    tag_12:\n      tag_63\n      0x04\n      dup1\n      calldatasize\n      sub\n      dup2\n      add\n      swap1\n      tag_64\n      swap2\n      swap1\n      tag_65\n      jump\t// in\n    tag_64:\n      tag_66\n      jump\t// in\n    tag_63:\n      mload(0x40)\n      tag_67\n      swap2\n      swap1\n      tag_30\n      jump\t// in\n    tag_67:\n      mload(0x40)\n      dup1\n      swap2\n      sub\n      swap1\n      return\n        /* \"admin.sol\":1102:1143  mapping(uint => address) public adminKeys */\n    tag_13:\n      tag_68\n      0x04\n      dup1\n      calldatasize\n      sub\n      dup2\n      add\n      swap1\n      tag_69\n      swap2\n      swap1\n      tag_65\n      jump\t// in\n    tag_69:\n      tag_70\n      jump\t// in\n    tag_68:\n      mload(0x40)\n      tag_71\n      swap2\n      swap1\n      tag_30\n      jump\t// in\n    tag_71:\n      mload(0x40)\n      dup1\n      swap2\n      sub\n      swap1\n      return\n        /* \"admin.sol\":2922:3420  function login(string memory username,string memory password,address walletAddress) public view returns (bool){... */\n    tag_14:\n      tag_72\n      0x04\n      dup1\n      calldatasize\n      sub\n      dup2\n      add\n      swap1\n      tag_73\n      swap2\n      swap1\n      tag_74\n      jump\t// in\n    tag_73:\n      tag_75\n      jump\t// in\n    tag_72:\n      mload(0x40)\n      tag_76\n      swap2\n      swap1\n      tag_26\n      jump\t// in\n    tag_76:\n      mload(0x40)\n      dup1\n      swap2\n      sub\n      swap1\n      return\n        /* \"admin.sol\":2748:2914  function checkIfAdmin(address _adminAddress) public view returns(bool){... */\n    tag_15:\n      tag_77\n      0x04\n      dup1\n      calldatasize\n      sub\n      dup2\n      add\n      swap1\n      tag_78\n      swap2\n      swap1\n      tag_43\n      jump\t// in\n    tag_78:\n      tag_79\n      jump\t// in\n    tag_77:\n      mload(0x40)\n      tag_80\n      swap2\n      swap1\n      tag_26\n      jump\t// in\n    tag_80:\n      mload(0x40)\n      dup1\n      swap2\n      sub\n      swap1\n      return\n        /* \"admin.sol\":3606:4187  function acceptAdminRequest(address newAdmin) public returns (address newAdminAddress){... */\n    tag_16:\n      tag_81\n      0x04\n      dup1\n      calldatasize\n      sub\n      dup2\n      add\n      swap1\n      tag_82\n      swap2\n      swap1\n      tag_43\n      jump\t// in\n    tag_82:\n      tag_83\n      jump\t// in\n    tag_81:\n      mload(0x40)\n      tag_84\n      swap2\n      swap1\n      tag_30\n      jump\t// in\n    tag_84:\n      mload(0x40)\n      dup1\n      swap2\n      sub\n      swap1\n      return\n        /* \"admin.sol\":4659:4966  function getAdminRequests()public view returns (AdminRequest[] memory){... */\n    tag_17:\n      tag_85\n      tag_86\n      jump\t// in\n    tag_85:\n      mload(0x40)\n      tag_87\n      swap2\n      swap1\n      tag_88\n      jump\t// in\n    tag_87:\n      mload(0x40)\n      dup1\n      swap2\n      sub\n      swap1\n      return\n        /* \"admin.sol\":1481:2313  function createAdminRequest(... */\n    tag_24:\n        /* \"admin.sol\":1730:1734  bool */\n      0x00\n        /* \"admin.sol\":1801:1802  0 */\n      dup1\n        /* \"admin.sol\":1750:1803  adminAddresses[fromAddress].walletAddress==address(0) */\n      0xffffffffffffffffffffffffffffffffffffffff\n      and\n        /* \"admin.sol\":1750:1764  adminAddresses */\n      0x02\n        /* \"admin.sol\":1750:1777  adminAddresses[fromAddress] */\n      0x00\n        /* \"admin.sol\":1765:1776  fromAddress */\n      dup8\n        /* \"admin.sol\":1750:1777  adminAddresses[fromAddress] */\n      0xffffffffffffffffffffffffffffffffffffffff\n      and\n      0xffffffffffffffffffffffffffffffffffffffff\n      and\n      dup2\n      mstore\n      0x20\n      add\n      swap1\n      dup2\n      mstore\n      0x20\n      add\n      0x00\n      keccak256\n        /* \"admin.sol\":1750:1791  adminAddresses[fromAddress].walletAddress */\n      0x04\n      add\n      0x00\n      swap1\n      sload\n      swap1\n      0x0100\n      exp\n      swap1\n      div\n      0xffffffffffffffffffffffffffffffffffffffff\n      and\n        /* \"admin.sol\":1750:1803  adminAddresses[fromAddress].walletAddress==address(0) */\n      0xffffffffffffffffffffffffffffffffffffffff\n      and\n      sub\n        /* \"admin.sol\":1747:2138  if(adminAddresses[fromAddress].walletAddress==address(0)){... */\n      tag_90\n      jumpi\n        /* \"admin.sol\":1819:1835  Date memory date */\n      0x00\n        /* \"admin.sol\":1838:1860  Date(day, month, year) */\n      mload(0x40)\n      dup1\n      0x60\n      add\n      0x40\n      mstore\n      dup1\n        /* \"admin.sol\":1843:1846  day */\n      dup7\n        /* \"admin.sol\":1838:1860  Date(day, month, year) */\n      dup2\n      mstore\n      0x20\n      add\n        /* \"admin.sol\":1848:1853  month */\n      dup6\n        /* \"admin.sol\":1838:1860  Date(day, month, year) */\n      dup2\n      mstore\n      0x20\n      add\n        /* \"admin.sol\":1855:1859  year */\n      dup5\n        /* \"admin.sol\":1838:1860  Date(day, month, year) */\n      dup2\n      mstore\n      pop\n        /* \"admin.sol\":1819:1860  Date memory date = Date(day, month, year) */\n      swap1\n      pop\n        /* \"admin.sol\":1875:1900  AdminType memory newAdmin */\n      0x00\n        /* \"admin.sol\":1903:1972  AdminType(fname, lname, username, password, fromAddress, date, false) */\n      mload(0x40)\n      dup1\n      0xe0\n      add\n      0x40\n      mstore\n      dup1\n        /* \"admin.sol\":1913:1918  fname */\n      dup13\n        /* \"admin.sol\":1903:1972  AdminType(fname, lname, username, password, fromAddress, date, false) */\n      dup2\n      mstore\n      0x20\n      add\n        /* \"admin.sol\":1920:1925  lname */\n      dup12\n        /* \"admin.sol\":1903:1972  AdminType(fname, lname, username, password, fromAddress, date, false) */\n      dup2\n      mstore\n      0x20\n      add\n        /* \"admin.sol\":1927:1935  username */\n      dup11\n        /* \"admin.sol\":1903:1972  AdminType(fname, lname, username, password, fromAddress, date, false) */\n      dup2\n      mstore\n      0x20\n      add\n        /* \"admin.sol\":1937:1945  password */\n      dup10\n        /* \"admin.sol\":1903:1972  AdminType(fname, lname, username, password, fromAddress, date, false) */\n      dup2\n      mstore\n      0x20\n      add\n        /* \"admin.sol\":1947:1958  fromAddress */\n      dup9\n        /* \"admin.sol\":1903:1972  AdminType(fname, lname, username, password, fromAddress, date, false) */\n      0xffffffffffffffffffffffffffffffffffffffff\n      and\n      dup2\n      mstore\n      0x20\n      add\n        /* \"admin.sol\":1960:1964  date */\n      dup4\n        /* \"admin.sol\":1903:1972  AdminType(fname, lname, username, password, fromAddress, date, false) */\n      dup2\n      mstore\n      0x20\n      add\n        /* \"admin.sol\":1966:1971  false */\n      0x00\n        /* \"admin.sol\":1903:1972  AdminType(fname, lname, username, password, fromAddress, date, false) */\n      iszero\n      iszero\n      dup2\n      mstore\n      pop\n        /* \"admin.sol\":1875:1972  AdminType memory newAdmin = AdminType(fname, lname, username, password, fromAddress, date, false) */\n      swap1\n      pop\n        /* \"admin.sol\":2025:2036  fromAddress */\n      dup7\n        /* \"admin.sol\":1987:2003  adminRequestkeys */\n      0x03\n        /* \"admin.sol\":1987:2022  adminRequestkeys[totalRequestCount] */\n      0x00\n        /* \"admin.sol\":2004:2021  totalRequestCount */\n      sload(0x06)\n        /* \"admin.sol\":1987:2022  adminRequestkeys[totalRequestCount] */\n      dup2\n      mstore\n      0x20\n      add\n      swap1\n      dup2\n      mstore\n      0x20\n      add\n      0x00\n      keccak256\n      0x00\n        /* \"admin.sol\":1987:2036  adminRequestkeys[totalRequestCount] = fromAddress */\n      0x0100\n      exp\n      dup2\n      sload\n      dup2\n      0xffffffffffffffffffffffffffffffffffffffff\n      mul\n      not\n      and\n      swap1\n      dup4\n      0xffffffffffffffffffffffffffffffffffffffff\n      and\n      mul\n      or\n      swap1\n      sstore\n      pop\n        /* \"admin.sol\":2072:2073  1 */\n      0x01\n        /* \"admin.sol\":2051:2068  totalRequestCount */\n      0x06\n      0x00\n        /* \"admin.sol\":2051:2073  totalRequestCount += 1 */\n      dup3\n      dup3\n      sload\n      tag_91\n      swap2\n      swap1\n      tag_92\n      jump\t// in\n    tag_91:\n      swap3\n      pop\n      pop\n      dup2\n      swap1\n      sstore\n      pop\n        /* \"admin.sol\":2118:2126  newAdmin */\n      dup1\n        /* \"admin.sol\":2088:2102  adminAddresses */\n      0x02\n        /* \"admin.sol\":2088:2115  adminAddresses[fromAddress] */\n      0x00\n        /* \"admin.sol\":2103:2114  fromAddress */\n      dup10\n        /* \"admin.sol\":2088:2115  adminAddresses[fromAddress] */\n      0xffffffffffffffffffffffffffffffffffffffff\n      and\n      0xffffffffffffffffffffffffffffffffffffffff\n      and\n      dup2\n      mstore\n      0x20\n      add\n      swap1\n      dup2\n      mstore\n      0x20\n      add\n      0x00\n      keccak256\n        /* \"admin.sol\":2088:2126  adminAddresses[fromAddress] = newAdmin */\n      0x00\n      dup3\n      add\n      mload\n      dup2\n      0x00\n      add\n      swap1\n      dup2\n      tag_93\n      swap2\n      swap1\n      tag_94\n      jump\t// in\n    tag_93:\n      pop\n      0x20\n      dup3\n      add\n      mload\n      dup2\n      0x01\n      add\n      swap1\n      dup2\n      tag_95\n      swap2\n      swap1\n      tag_94\n      jump\t// in\n    tag_95:\n      pop\n      0x40\n      dup3\n      add\n      mload\n      dup2\n      0x02\n      add\n      swap1\n      dup2\n      tag_96\n      swap2\n      swap1\n      tag_94\n      jump\t// in\n    tag_96:\n      pop\n      0x60\n      dup3\n      add\n      mload\n      dup2\n      0x03\n      add\n      swap1\n      dup2\n      tag_97\n      swap2\n      swap1\n      tag_94\n      jump\t// in\n    tag_97:\n      pop\n      0x80\n      dup3\n      add\n      mload\n      dup2\n      0x04\n      add\n      exp(0x0100, 0x00)\n      dup2\n      sload\n      dup2\n      0xffffffffffffffffffffffffffffffffffffffff\n      mul\n      not\n      and\n      swap1\n      dup4\n      0xffffffffffffffffffffffffffffffffffffffff\n      and\n      mul\n      or\n      swap1\n      sstore\n      pop\n      0xa0\n      dup3\n      add\n      mload\n      dup2\n      0x05\n      add\n      0x00\n      dup3\n      add\n      mload\n      dup2\n      0x00\n      add\n      sstore\n      0x20\n      dup3\n      add\n      mload\n      dup2\n      0x01\n      add\n      sstore\n      0x40\n      dup3\n      add\n      mload\n      dup2\n      0x02\n      add\n      sstore\n      pop\n      pop\n      0xc0\n      dup3\n      add\n      mload\n      dup2\n      0x08\n      add\n      exp(0x0100, 0x00)\n      dup2\n      sload\n      dup2\n      0xff\n      mul\n      not\n      and\n      swap1\n      dup4\n      iszero\n      iszero\n      mul\n      or\n      swap1\n      sstore\n      pop\n      swap1\n      pop\n      pop\n        /* \"admin.sol\":1804:2138  {... */\n      pop\n      pop\n        /* \"admin.sol\":1747:2138  if(adminAddresses[fromAddress].walletAddress==address(0)){... */\n    tag_90:\n        /* \"admin.sol\":2148:2178  AdminRequest memory newRequest */\n      0x00\n        /* \"admin.sol\":2181:2233  AdminRequest(fromAddress, RequestStatusType.pending) */\n      mload(0x40)\n      dup1\n      0x40\n      add\n      0x40\n      mstore\n      dup1\n        /* \"admin.sol\":2194:2205  fromAddress */\n      dup8\n        /* \"admin.sol\":2181:2233  AdminRequest(fromAddress, RequestStatusType.pending) */\n      0xffffffffffffffffffffffffffffffffffffffff\n      and\n      dup2\n      mstore\n      0x20\n      add\n        /* \"admin.sol\":2207:2232  RequestStatusType.pending */\n      0x00\n        /* \"admin.sol\":2181:2233  AdminRequest(fromAddress, RequestStatusType.pending) */\n      0x02\n      dup2\n      gt\n      iszero\n      tag_98\n      jumpi\n      tag_99\n      tag_100\n      jump\t// in\n    tag_99:\n    tag_98:\n      dup2\n      mstore\n      pop\n        /* \"admin.sol\":2148:2233  AdminRequest memory newRequest = AdminRequest(fromAddress, RequestStatusType.pending) */\n      swap1\n      pop\n        /* \"admin.sol\":2273:2283  newRequest */\n      dup1\n        /* \"admin.sol\":2244:2257  adminRequests */\n      0x04\n        /* \"admin.sol\":2244:2270  adminRequests[fromAddress] */\n      0x00\n        /* \"admin.sol\":2258:2269  fromAddress */\n      dup9\n        /* \"admin.sol\":2244:2270  adminRequests[fromAddress] */\n      0xffffffffffffffffffffffffffffffffffffffff\n      and\n      0xffffffffffffffffffffffffffffffffffffffff\n      and\n      dup2\n      mstore\n      0x20\n      add\n      swap1\n      dup2\n      mstore\n      0x20\n      add\n      0x00\n      keccak256\n        /* \"admin.sol\":2244:2283  adminRequests[fromAddress] = newRequest */\n      0x00\n      dup3\n      add\n      mload\n      dup2\n      0x00\n      add\n      exp(0x0100, 0x00)\n      dup2\n      sload\n      dup2\n      0xffffffffffffffffffffffffffffffffffffffff\n      mul\n      not\n      and\n      swap1\n      dup4\n      0xffffffffffffffffffffffffffffffffffffffff\n      and\n      mul\n      or\n      swap1\n      sstore\n      pop\n      0x20\n      dup3\n      add\n      mload\n      dup2\n      0x00\n      add\n      exp(0x0100, 0x14)\n      dup2\n      sload\n      dup2\n      0xff\n      mul\n      not\n      and\n      swap1\n      dup4\n      0x02\n      dup2\n      gt\n      iszero\n      tag_101\n      jumpi\n      tag_102\n      tag_100\n      jump\t// in\n    tag_102:\n    tag_101:\n      mul\n      or\n      swap1\n      sstore\n      pop\n      swap1\n      pop\n      pop\n        /* \"admin.sol\":2301:2305  true */\n      0x01\n        /* \"admin.sol\":2294:2305  return true */\n      swap2\n      pop\n      pop\n        /* \"admin.sol\":1481:2313  function createAdminRequest(... */\n      swap9\n      swap8\n      pop\n      pop\n      pop\n      pop\n      pop\n      pop\n      pop\n      pop\n      jump\t// out\n        /* \"admin.sol\":559:585  address public masterAdmin */\n    tag_28:\n      0x00\n      dup1\n      sload\n      swap1\n      0x0100\n      exp\n      swap1\n      div\n      0xffffffffffffffffffffffffffffffffffffffff\n      and\n      dup2\n      jump\t// out\n        /* \"admin.sol\":2433:2740  function getAdmins() public view returns (address[] memory) {... */\n    tag_32:\n        /* \"admin.sol\":2475:2491  address[] memory */\n      0x60\n        /* \"admin.sol\":2504:2527  address[] memory admins */\n      0x00\n        /* \"admin.sol\":2544:2559  totalAdminCount */\n      sload(0x05)\n        /* \"admin.sol\":2530:2560  new address[](totalAdminCount) */\n      0xffffffffffffffff\n      dup2\n      gt\n      iszero\n      tag_104\n      jumpi\n      tag_105\n      tag_106\n      jump\t// in\n    tag_105:\n    tag_104:\n      mload(0x40)\n      swap1\n      dup1\n      dup3\n      mstore\n      dup1\n      0x20\n      mul\n      0x20\n      add\n      dup3\n      add\n      0x40\n      mstore\n      dup1\n      iszero\n      tag_107\n      jumpi\n      dup2\n      0x20\n      add\n      0x20\n      dup3\n      mul\n      dup1\n      calldatasize\n      dup4\n      calldatacopy\n      dup1\n      dup3\n      add\n      swap2\n      pop\n      pop\n      swap1\n      pop\n    tag_107:\n      pop\n        /* \"admin.sol\":2504:2560  address[] memory admins = new address[](totalAdminCount) */\n      swap1\n      pop\n        /* \"admin.sol\":2571:2584  uint256 index */\n      0x00\n        /* \"admin.sol\":2604:2610  uint i */\n      dup1\n        /* \"admin.sol\":2599:2709  for (uint i=0;i<totalAdminCount;i++) {... */\n    tag_108:\n        /* \"admin.sol\":2615:2630  totalAdminCount */\n      sload(0x05)\n        /* \"admin.sol\":2613:2614  i */\n      dup2\n        /* \"admin.sol\":2613:2630  i<totalAdminCount */\n      lt\n        /* \"admin.sol\":2599:2709  for (uint i=0;i<totalAdminCount;i++) {... */\n      iszero\n      tag_109\n      jumpi\n        /* \"admin.sol\":2663:2672  adminKeys */\n      0x01\n        /* \"admin.sol\":2663:2675  adminKeys[i] */\n      0x00\n        /* \"admin.sol\":2673:2674  i */\n      dup3\n        /* \"admin.sol\":2663:2675  adminKeys[i] */\n      dup2\n      mstore\n      0x20\n      add\n      swap1\n      dup2\n      mstore\n      0x20\n      add\n      0x00\n      keccak256\n      0x00\n      swap1\n      sload\n      swap1\n      0x0100\n      exp\n      swap1\n      div\n      0xffffffffffffffffffffffffffffffffffffffff\n      and\n        /* \"admin.sol\":2651:2657  admins */\n      dup4\n        /* \"admin.sol\":2658:2659  i */\n      dup3\n        /* \"admin.sol\":2651:2660  admins[i] */\n      dup2\n      mload\n      dup2\n      lt\n      tag_111\n      jumpi\n      tag_112\n      tag_113\n      jump\t// in\n    tag_112:\n    tag_111:\n      0x20\n      mul\n      0x20\n      add\n      add\n        /* \"admin.sol\":2651:2675  admins[i] = adminKeys[i] */\n      swap1\n      0xffffffffffffffffffffffffffffffffffffffff\n      and\n      swap1\n      dup2\n      0xffffffffffffffffffffffffffffffffffffffff\n      and\n      dup2\n      mstore\n      pop\n      pop\n        /* \"admin.sol\":2690:2697  index++ */\n      dup2\n      dup1\n      tag_114\n      swap1\n      tag_115\n      jump\t// in\n    tag_114:\n      swap3\n      pop\n      pop\n        /* \"admin.sol\":2631:2634  i++ */\n      dup1\n      dup1\n      0x01\n      add\n      swap2\n      pop\n      pop\n        /* \"admin.sol\":2599:2709  for (uint i=0;i<totalAdminCount;i++) {... */\n      jump(tag_108)\n    tag_109:\n      pop\n        /* \"admin.sol\":2726:2732  admins */\n      dup2\n        /* \"admin.sol\":2719:2732  return admins */\n      swap3\n      pop\n      pop\n      pop\n        /* \"admin.sol\":2433:2740  function getAdmins() public view returns (address[] memory) {... */\n      swap1\n      jump\t// out\n        /* \"admin.sol\":3428:3598  function convertString(string memory myString) public pure returns (bytes32) {... */\n    tag_38:\n        /* \"admin.sol\":3496:3503  bytes32 */\n      0x00\n        /* \"admin.sol\":3516:3528  bytes32 hash */\n      dup1\n        /* \"admin.sol\":3558:3566  myString */\n      dup3\n        /* \"admin.sol\":3541:3567  abi.encodePacked(myString) */\n      add(0x20, mload(0x40))\n      tag_117\n      swap2\n      swap1\n      tag_118\n      jump\t// in\n    tag_117:\n      mload(0x40)\n      0x20\n      dup2\n      dup4\n      sub\n      sub\n      dup2\n      mstore\n      swap1\n      0x40\n      mstore\n        /* \"admin.sol\":3531:3568  keccak256(abi.encodePacked(myString)) */\n      dup1\n      mload\n      swap1\n      0x20\n      add\n      keccak256\n        /* \"admin.sol\":3516:3568  bytes32 hash = keccak256(abi.encodePacked(myString)) */\n      swap1\n      pop\n        /* \"admin.sol\":3586:3590  hash */\n      dup1\n        /* \"admin.sol\":3579:3590  return hash */\n      swap2\n      pop\n      pop\n        /* \"admin.sol\":3428:3598  function convertString(string memory myString) public pure returns (bytes32) {... */\n      swap2\n      swap1\n      pop\n      jump\t// out\n        /* \"admin.sol\":1261:1314  mapping(address => AdminRequest) public adminRequests */\n    tag_44:\n      mstore(0x20, 0x04)\n      dup1\n      0x00\n      mstore\n      keccak256(0x00, 0x40)\n      0x00\n      swap2\n      pop\n      swap1\n      pop\n      dup1\n      0x00\n      add\n      0x00\n      swap1\n      sload\n      swap1\n      0x0100\n      exp\n      swap1\n      div\n      0xffffffffffffffffffffffffffffffffffffffff\n      and\n      swap1\n      dup1\n      0x00\n      add\n      0x14\n      swap1\n      sload\n      swap1\n      0x0100\n      exp\n      swap1\n      div\n      0xff\n      and\n      swap1\n      pop\n      dup3\n      jump\t// out\n        /* \"admin.sol\":1150:1199  mapping(address=>AdminType) public adminAddresses */\n    tag_49:\n      mstore(0x20, 0x02)\n      dup1\n      0x00\n      mstore\n      keccak256(0x00, 0x40)\n      0x00\n      swap2\n      pop\n      swap1\n      pop\n      dup1\n      0x00\n      add\n      dup1\n      sload\n      tag_119\n      swap1\n      tag_120\n      jump\t// in\n    tag_119:\n      dup1\n      0x1f\n      add\n      0x20\n      dup1\n      swap2\n      div\n      mul\n      0x20\n      add\n      mload(0x40)\n      swap1\n      dup2\n      add\n      0x40\n      mstore\n      dup1\n      swap3\n      swap2\n      swap1\n      dup2\n      dup2\n      mstore\n      0x20\n      add\n      dup3\n      dup1\n      sload\n      tag_121\n      swap1\n      tag_120\n      jump\t// in\n    tag_121:\n      dup1\n      iszero\n      tag_122\n      jumpi\n      dup1\n      0x1f\n      lt\n      tag_123\n      jumpi\n      0x0100\n      dup1\n      dup4\n      sload\n      div\n      mul\n      dup4\n      mstore\n      swap2\n      0x20\n      add\n      swap2\n      jump(tag_122)\n    tag_123:\n      dup3\n      add\n      swap2\n      swap1\n      0x00\n      mstore\n      keccak256(0x00, 0x20)\n      swap1\n    tag_124:\n      dup2\n      sload\n      dup2\n      mstore\n      swap1\n      0x01\n      add\n      swap1\n      0x20\n      add\n      dup1\n      dup4\n      gt\n      tag_124\n      jumpi\n      dup3\n      swap1\n      sub\n      0x1f\n      and\n      dup3\n      add\n      swap2\n    tag_122:\n      pop\n      pop\n      pop\n      pop\n      pop\n      swap1\n      dup1\n      0x01\n      add\n      dup1\n      sload\n      tag_125\n      swap1\n      tag_120\n      jump\t// in\n    tag_125:\n      dup1\n      0x1f\n      add\n      0x20\n      dup1\n      swap2\n      div\n      mul\n      0x20\n      add\n      mload(0x40)\n      swap1\n      dup2\n      add\n      0x40\n      mstore\n      dup1\n      swap3\n      swap2\n      swap1\n      dup2\n      dup2\n      mstore\n      0x20\n      add\n      dup3\n      dup1\n      sload\n      tag_126\n      swap1\n      tag_120\n      jump\t// in\n    tag_126:\n      dup1\n      iszero\n      tag_127\n      jumpi\n      dup1\n      0x1f\n      lt\n      tag_128\n      jumpi\n      0x0100\n      dup1\n      dup4\n      sload\n      div\n      mul\n      dup4\n      mstore\n      swap2\n      0x20\n      add\n      swap2\n      jump(tag_127)\n    tag_128:\n      dup3\n      add\n      swap2\n      swap1\n      0x00\n      mstore\n      keccak256(0x00, 0x20)\n      swap1\n    tag_129:\n      dup2\n      sload\n      dup2\n      mstore\n      swap1\n      0x01\n      add\n      swap1\n      0x20\n      add\n      dup1\n      dup4\n      gt\n      tag_129\n      jumpi\n      dup3\n      swap1\n      sub\n      0x1f\n      and\n      dup3\n      add\n      swap2\n    tag_127:\n      pop\n      pop\n      pop\n      pop\n      pop\n      swap1\n      dup1\n      0x02\n      add\n      dup1\n      sload\n      tag_130\n      swap1\n      tag_120\n      jump\t// in\n    tag_130:\n      dup1\n      0x1f\n      add\n      0x20\n      dup1\n      swap2\n      div\n      mul\n      0x20\n      add\n      mload(0x40)\n      swap1\n      dup2\n      add\n      0x40\n      mstore\n      dup1\n      swap3\n      swap2\n      swap1\n      dup2\n      dup2\n      mstore\n      0x20\n      add\n      dup3\n      dup1\n      sload\n      tag_131\n      swap1\n      tag_120\n      jump\t// in\n    tag_131:\n      dup1\n      iszero\n      tag_132\n      jumpi\n      dup1\n      0x1f\n      lt\n      tag_133\n      jumpi\n      0x0100\n      dup1\n      dup4\n      sload\n      div\n      mul\n      dup4\n      mstore\n      swap2\n      0x20\n      add\n      swap2\n      jump(tag_132)\n    tag_133:\n      dup3\n      add\n      swap2\n      swap1\n      0x00\n      mstore\n      keccak256(0x00, 0x20)\n      swap1\n    tag_134:\n      dup2\n      sload\n      dup2\n      mstore\n      swap1\n      0x01\n      add\n      swap1\n      0x20\n      add\n      dup1\n      dup4\n      gt\n      tag_134\n      jumpi\n      dup3\n      swap1\n      sub\n      0x1f\n      and\n      dup3\n      add\n      swap2\n    tag_132:\n      pop\n      pop\n      pop\n      pop\n      pop\n      swap1\n      dup1\n      0x03\n      add\n      dup1\n      sload\n      tag_135\n      swap1\n      tag_120\n      jump\t// in\n    tag_135:\n      dup1\n      0x1f\n      add\n      0x20\n      dup1\n      swap2\n      div\n      mul\n      0x20\n      add\n      mload(0x40)\n      swap1\n      dup2\n      add\n      0x40\n      mstore\n      dup1\n      swap3\n      swap2\n      swap1\n      dup2\n      dup2\n      mstore\n      0x20\n      add\n      dup3\n      dup1\n      sload\n      tag_136\n      swap1\n      tag_120\n      jump\t// in\n    tag_136:\n      dup1\n      iszero\n      tag_137\n      jumpi\n      dup1\n      0x1f\n      lt\n      tag_138\n      jumpi\n      0x0100\n      dup1\n      dup4\n      sload\n      div\n      mul\n      dup4\n      mstore\n      swap2\n      0x20\n      add\n      swap2\n      jump(tag_137)\n    tag_138:\n      dup3\n      add\n      swap2\n      swap1\n      0x00\n      mstore\n      keccak256(0x00, 0x20)\n      swap1\n    tag_139:\n      dup2\n      sload\n      dup2\n      mstore\n      swap1\n      0x01\n      add\n      swap1\n      0x20\n      add\n      dup1\n      dup4\n      gt\n      tag_139\n      jumpi\n      dup3\n      swap1\n      sub\n      0x1f\n      and\n      dup3\n      add\n      swap2\n    tag_137:\n      pop\n      pop\n      pop\n      pop\n      pop\n      swap1\n      dup1\n      0x04\n      add\n      0x00\n      swap1\n      sload\n      swap1\n      0x0100\n      exp\n      swap1\n      div\n      0xffffffffffffffffffffffffffffffffffffffff\n      and\n      swap1\n      dup1\n      0x05\n      add\n      mload(0x40)\n      dup1\n      0x60\n      add\n      0x40\n      mstore\n      swap1\n      dup2\n      0x00\n      dup3\n      add\n      sload\n      dup2\n      mstore\n      0x20\n      add\n      0x01\n      dup3\n      add\n      sload\n      dup2\n      mstore\n      0x20\n      add\n      0x02\n      dup3\n      add\n      sload\n      dup2\n      mstore\n      pop\n      pop\n      swap1\n      dup1\n      0x08\n      add\n      0x00\n      swap1\n      sload\n      swap1\n      0x0100\n      exp\n      swap1\n      div\n      0xff\n      and\n      swap1\n      pop\n      dup8\n      jump\t// out\n        /* \"admin.sol\":2323:2423  function getTotalAdminCount() public view returns (uint256){... */\n    tag_53:\n        /* \"admin.sol\":2374:2381  uint256 */\n      0x00\n        /* \"admin.sol\":2400:2415  totalAdminCount */\n      sload(0x05)\n        /* \"admin.sol\":2393:2415  return totalAdminCount */\n      swap1\n      pop\n        /* \"admin.sol\":2323:2423  function getTotalAdminCount() public view returns (uint256){... */\n      swap1\n      jump\t// out\n        /* \"admin.sol\":4197:4651  function declineAdminRequest(address newAdmin) public returns (address rejectedAddress){... */\n    tag_58:\n        /* \"admin.sol\":4260:4283  address rejectedAddress */\n      0x00\n        /* \"admin.sol\":4315:4326  masterAdmin */\n      dup1\n      0x00\n      swap1\n      sload\n      swap1\n      0x0100\n      exp\n      swap1\n      div\n      0xffffffffffffffffffffffffffffffffffffffff\n      and\n        /* \"admin.sol\":4303:4326  msg.sender==masterAdmin */\n      0xffffffffffffffffffffffffffffffffffffffff\n      and\n        /* \"admin.sol\":4303:4313  msg.sender */\n      caller\n        /* \"admin.sol\":4303:4326  msg.sender==masterAdmin */\n      0xffffffffffffffffffffffffffffffffffffffff\n      and\n      eq\n        /* \"admin.sol\":4303:4381  msg.sender==masterAdmin || bytes(adminAddresses[msg.sender].username).length>0 */\n      dup1\n      tag_142\n      jumpi\n      pop\n        /* \"admin.sol\":4380:4381  0 */\n      0x00\n        /* \"admin.sol\":4336:4350  adminAddresses */\n      0x02\n        /* \"admin.sol\":4336:4362  adminAddresses[msg.sender] */\n      0x00\n        /* \"admin.sol\":4351:4361  msg.sender */\n      caller\n        /* \"admin.sol\":4336:4362  adminAddresses[msg.sender] */\n      0xffffffffffffffffffffffffffffffffffffffff\n      and\n      0xffffffffffffffffffffffffffffffffffffffff\n      and\n      dup2\n      mstore\n      0x20\n      add\n      swap1\n      dup2\n      mstore\n      0x20\n      add\n      0x00\n      keccak256\n        /* \"admin.sol\":4336:4371  adminAddresses[msg.sender].username */\n      0x02\n      add\n        /* \"admin.sol\":4330:4379  bytes(adminAddresses[msg.sender].username).length */\n      dup1\n      sload\n      tag_143\n      swap1\n      tag_120\n      jump\t// in\n    tag_143:\n      swap1\n      pop\n        /* \"admin.sol\":4330:4381  bytes(adminAddresses[msg.sender].username).length>0 */\n      gt\n        /* \"admin.sol\":4303:4381  msg.sender==masterAdmin || bytes(adminAddresses[msg.sender].username).length>0 */\n    tag_142:\n        /* \"admin.sol\":4295:4419  require(msg.sender==masterAdmin || bytes(adminAddresses[msg.sender].username).length>0,\"only master admin can add the user\") */\n      tag_144\n      jumpi\n      mload(0x40)\n      0x08c379a000000000000000000000000000000000000000000000000000000000\n      dup2\n      mstore\n      0x04\n      add\n      tag_145\n      swap1\n      tag_146\n      jump\t// in\n    tag_145:\n      mload(0x40)\n      dup1\n      swap2\n      sub\n      swap1\n      revert\n    tag_144:\n        /* \"admin.sol\":4484:4485  0 */\n      0x00\n        /* \"admin.sol\":4439:4453  adminAddresses */\n      0x02\n        /* \"admin.sol\":4439:4465  adminAddresses[msg.sender] */\n      0x00\n        /* \"admin.sol\":4454:4464  msg.sender */\n      caller\n        /* \"admin.sol\":4439:4465  adminAddresses[msg.sender] */\n      0xffffffffffffffffffffffffffffffffffffffff\n      and\n      0xffffffffffffffffffffffffffffffffffffffff\n      and\n      dup2\n      mstore\n      0x20\n      add\n      swap1\n      dup2\n      mstore\n      0x20\n      add\n      0x00\n      keccak256\n        /* \"admin.sol\":4439:4474  adminAddresses[msg.sender].username */\n      0x02\n      add\n        /* \"admin.sol\":4433:4482  bytes(adminAddresses[msg.sender].username).length */\n      dup1\n      sload\n      tag_147\n      swap1\n      tag_120\n      jump\t// in\n    tag_147:\n      swap1\n      pop\n        /* \"admin.sol\":4433:4485  bytes(adminAddresses[msg.sender].username).length==0 */\n      sub\n        /* \"admin.sol\":4430:4541  if(bytes(adminAddresses[msg.sender].username).length==0){... */\n      tag_148\n      jumpi\n        /* \"admin.sol\":4501:4529  revert(\"user doesn't exist\") */\n      mload(0x40)\n      0x08c379a000000000000000000000000000000000000000000000000000000000\n      dup2\n      mstore\n      0x04\n      add\n      tag_149\n      swap1\n      tag_150\n      jump\t// in\n    tag_149:\n      mload(0x40)\n      dup1\n      swap2\n      sub\n      swap1\n      revert\n        /* \"admin.sol\":4430:4541  if(bytes(adminAddresses[msg.sender].username).length==0){... */\n    tag_148:\n        /* \"admin.sol\":4591:4617  RequestStatusType.rejected */\n      0x02\n        /* \"admin.sol\":4551:4564  adminRequests */\n      0x04\n        /* \"admin.sol\":4551:4574  adminRequests[newAdmin] */\n      0x00\n        /* \"admin.sol\":4565:4573  newAdmin */\n      dup5\n        /* \"admin.sol\":4551:4574  adminRequests[newAdmin] */\n      0xffffffffffffffffffffffffffffffffffffffff\n      and\n      0xffffffffffffffffffffffffffffffffffffffff\n      and\n      dup2\n      mstore\n      0x20\n      add\n      swap1\n      dup2\n      mstore\n      0x20\n      add\n      0x00\n      keccak256\n        /* \"admin.sol\":4551:4588  adminRequests[newAdmin].requestStatus */\n      0x00\n      add\n      0x14\n        /* \"admin.sol\":4551:4617  adminRequests[newAdmin].requestStatus = RequestStatusType.rejected */\n      0x0100\n      exp\n      dup2\n      sload\n      dup2\n      0xff\n      mul\n      not\n      and\n      swap1\n      dup4\n      0x02\n      dup2\n      gt\n      iszero\n      tag_151\n      jumpi\n      tag_152\n      tag_100\n      jump\t// in\n    tag_152:\n    tag_151:\n      mul\n      or\n      swap1\n      sstore\n      pop\n        /* \"admin.sol\":4635:4643  newAdmin */\n      dup2\n        /* \"admin.sol\":4628:4643  return newAdmin */\n      swap1\n      pop\n        /* \"admin.sol\":4197:4651  function declineAdminRequest(address newAdmin) public returns (address rejectedAddress){... */\n      swap2\n      swap1\n      pop\n      jump\t// out\n        /* \"admin.sol\":4974:5067  function getMasterAdmin() public view returns (address){... */\n    tag_61:\n        /* \"admin.sol\":5021:5028  address */\n      0x00\n        /* \"admin.sol\":5048:5059  masterAdmin */\n      dup1\n      0x00\n      swap1\n      sload\n      swap1\n      0x0100\n      exp\n      swap1\n      div\n      0xffffffffffffffffffffffffffffffffffffffff\n      and\n        /* \"admin.sol\":5040:5059  return  masterAdmin */\n      swap1\n      pop\n        /* \"admin.sol\":4974:5067  function getMasterAdmin() public view returns (address){... */\n      swap1\n      jump\t// out\n        /* \"admin.sol\":1206:1254  mapping(uint => address) public adminRequestkeys */\n    tag_66:\n      mstore(0x20, 0x03)\n      dup1\n      0x00\n      mstore\n      keccak256(0x00, 0x40)\n      0x00\n      swap2\n      pop\n      sload\n      swap1\n      0x0100\n      exp\n      swap1\n      div\n      0xffffffffffffffffffffffffffffffffffffffff\n      and\n      dup2\n      jump\t// out\n        /* \"admin.sol\":1102:1143  mapping(uint => address) public adminKeys */\n    tag_70:\n      mstore(0x20, 0x01)\n      dup1\n      0x00\n      mstore\n      keccak256(0x00, 0x40)\n      0x00\n      swap2\n      pop\n      sload\n      swap1\n      0x0100\n      exp\n      swap1\n      div\n      0xffffffffffffffffffffffffffffffffffffffff\n      and\n      dup2\n      jump\t// out\n        /* \"admin.sol\":2922:3420  function login(string memory username,string memory password,address walletAddress) public view returns (bool){... */\n    tag_75:\n        /* \"admin.sol\":3027:3031  bool */\n      0x00\n        /* \"admin.sol\":3046:3073  checkIfAdmin(walletAddress) */\n      tag_155\n        /* \"admin.sol\":3059:3072  walletAddress */\n      dup3\n        /* \"admin.sol\":3046:3058  checkIfAdmin */\n      tag_79\n        /* \"admin.sol\":3046:3073  checkIfAdmin(walletAddress) */\n      jump\t// in\n    tag_155:\n        /* \"admin.sol\":3043:3390  if(checkIfAdmin(walletAddress)){... */\n      iszero\n      tag_156\n      jumpi\n        /* \"admin.sol\":3167:3190  convertString(username) */\n      tag_157\n        /* \"admin.sol\":3181:3189  username */\n      dup5\n        /* \"admin.sol\":3167:3180  convertString */\n      tag_38\n        /* \"admin.sol\":3167:3190  convertString(username) */\n      jump\t// in\n    tag_157:\n        /* \"admin.sol\":3110:3163  convertString(adminAddresses[walletAddress].username) */\n      tag_158\n        /* \"admin.sol\":3124:3138  adminAddresses */\n      0x02\n        /* \"admin.sol\":3124:3153  adminAddresses[walletAddress] */\n      0x00\n        /* \"admin.sol\":3139:3152  walletAddress */\n      dup6\n        /* \"admin.sol\":3124:3153  adminAddresses[walletAddress] */\n      0xffffffffffffffffffffffffffffffffffffffff\n      and\n      0xffffffffffffffffffffffffffffffffffffffff\n      and\n      dup2\n      mstore\n      0x20\n      add\n      swap1\n      dup2\n      mstore\n      0x20\n      add\n      0x00\n      keccak256\n        /* \"admin.sol\":3124:3162  adminAddresses[walletAddress].username */\n      0x02\n      add\n        /* \"admin.sol\":3110:3163  convertString(adminAddresses[walletAddress].username) */\n      dup1\n      sload\n      tag_159\n      swap1\n      tag_120\n      jump\t// in\n    tag_159:\n      dup1\n      0x1f\n      add\n      0x20\n      dup1\n      swap2\n      div\n      mul\n      0x20\n      add\n      mload(0x40)\n      swap1\n      dup2\n      add\n      0x40\n      mstore\n      dup1\n      swap3\n      swap2\n      swap1\n      dup2\n      dup2\n      mstore\n      0x20\n      add\n      dup3\n      dup1\n      sload\n      tag_160\n      swap1\n      tag_120\n      jump\t// in\n    tag_160:\n      dup1\n      iszero\n      tag_161\n      jumpi\n      dup1\n      0x1f\n      lt\n      tag_162\n      jumpi\n      0x0100\n      dup1\n      dup4\n      sload\n      div\n      mul\n      dup4\n      mstore\n      swap2\n      0x20\n      add\n      swap2\n      jump(tag_161)\n    tag_162:\n      dup3\n      add\n      swap2\n      swap1\n      0x00\n      mstore\n      keccak256(0x00, 0x20)\n      swap1\n    tag_163:\n      dup2\n      sload\n      dup2\n      mstore\n      swap1\n      0x01\n      add\n      swap1\n      0x20\n      add\n      dup1\n      dup4\n      gt\n      tag_163\n      jumpi\n      dup3\n      swap1\n      sub\n      0x1f\n      and\n      dup3\n      add\n      swap2\n    tag_161:\n      pop\n      pop\n      pop\n      pop\n      pop\n        /* \"admin.sol\":3110:3123  convertString */\n      tag_38\n        /* \"admin.sol\":3110:3163  convertString(adminAddresses[walletAddress].username) */\n      jump\t// in\n    tag_158:\n        /* \"admin.sol\":3110:3190  convertString(adminAddresses[walletAddress].username) != convertString(username) */\n      eq\n      iszero\n        /* \"admin.sol\":3110:3288  convertString(adminAddresses[walletAddress].username) != convertString(username)... */\n      dup1\n      tag_164\n      jumpi\n      pop\n        /* \"admin.sol\":3265:3288  convertString(password) */\n      tag_165\n        /* \"admin.sol\":3279:3287  password */\n      dup4\n        /* \"admin.sol\":3265:3278  convertString */\n      tag_38\n        /* \"admin.sol\":3265:3288  convertString(password) */\n      jump\t// in\n    tag_165:\n        /* \"admin.sol\":3210:3263  convertString(adminAddresses[walletAddress].password) */\n      tag_166\n        /* \"admin.sol\":3224:3238  adminAddresses */\n      0x02\n        /* \"admin.sol\":3224:3253  adminAddresses[walletAddress] */\n      0x00\n        /* \"admin.sol\":3239:3252  walletAddress */\n      dup6\n        /* \"admin.sol\":3224:3253  adminAddresses[walletAddress] */\n      0xffffffffffffffffffffffffffffffffffffffff\n      and\n      0xffffffffffffffffffffffffffffffffffffffff\n      and\n      dup2\n      mstore\n      0x20\n      add\n      swap1\n      dup2\n      mstore\n      0x20\n      add\n      0x00\n      keccak256\n        /* \"admin.sol\":3224:3262  adminAddresses[walletAddress].password */\n      0x03\n      add\n        /* \"admin.sol\":3210:3263  convertString(adminAddresses[walletAddress].password) */\n      dup1\n      sload\n      tag_167\n      swap1\n      tag_120\n      jump\t// in\n    tag_167:\n      dup1\n      0x1f\n      add\n      0x20\n      dup1\n      swap2\n      div\n      mul\n      0x20\n      add\n      mload(0x40)\n      swap1\n      dup2\n      add\n      0x40\n      mstore\n      dup1\n      swap3\n      swap2\n      swap1\n      dup2\n      dup2\n      mstore\n      0x20\n      add\n      dup3\n      dup1\n      sload\n      tag_168\n      swap1\n      tag_120\n      jump\t// in\n    tag_168:\n      dup1\n      iszero\n      tag_169\n      jumpi\n      dup1\n      0x1f\n      lt\n      tag_170\n      jumpi\n      0x0100\n      dup1\n      dup4\n      sload\n      div\n      mul\n      dup4\n      mstore\n      swap2\n      0x20\n      add\n      swap2\n      jump(tag_169)\n    tag_170:\n      dup3\n      add\n      swap2\n      swap1\n      0x00\n      mstore\n      keccak256(0x00, 0x20)\n      swap1\n    tag_171:\n      dup2\n      sload\n      dup2\n      mstore\n      swap1\n      0x01\n      add\n      swap1\n      0x20\n      add\n      dup1\n      dup4\n      gt\n      tag_171\n      jumpi\n      dup3\n      swap1\n      sub\n      0x1f\n      and\n      dup3\n      add\n      swap2\n    tag_169:\n      pop\n      pop\n      pop\n      pop\n      pop\n        /* \"admin.sol\":3210:3223  convertString */\n      tag_38\n        /* \"admin.sol\":3210:3263  convertString(adminAddresses[walletAddress].password) */\n      jump\t// in\n    tag_166:\n        /* \"admin.sol\":3210:3288  convertString(adminAddresses[walletAddress].password)!=convertString(password) */\n      eq\n      iszero\n        /* \"admin.sol\":3110:3288  convertString(adminAddresses[walletAddress].username) != convertString(username)... */\n    tag_164:\n        /* \"admin.sol\":3089:3352  if(... */\n      iszero\n      tag_172\n      jumpi\n        /* \"admin.sol\":3312:3352  revert(\"incorrect username or password\") */\n      mload(0x40)\n      0x08c379a000000000000000000000000000000000000000000000000000000000\n      dup2\n      mstore\n      0x04\n      add\n      tag_173\n      swap1\n      tag_174\n      jump\t// in\n    tag_173:\n      mload(0x40)\n      dup1\n      swap2\n      sub\n      swap1\n      revert\n        /* \"admin.sol\":3089:3352  if(... */\n    tag_172:\n        /* \"admin.sol\":3374:3378  true */\n      0x01\n        /* \"admin.sol\":3367:3378  return true */\n      swap1\n      pop\n      jump(tag_154)\n        /* \"admin.sol\":3043:3390  if(checkIfAdmin(walletAddress)){... */\n    tag_156:\n        /* \"admin.sol\":3407:3412  false */\n      0x00\n        /* \"admin.sol\":3400:3412  return false */\n      swap1\n      pop\n        /* \"admin.sol\":2922:3420  function login(string memory username,string memory password,address walletAddress) public view returns (bool){... */\n    tag_154:\n      swap4\n      swap3\n      pop\n      pop\n      pop\n      jump\t// out\n        /* \"admin.sol\":2748:2914  function checkIfAdmin(address _adminAddress) public view returns(bool){... */\n    tag_79:\n        /* \"admin.sol\":2813:2817  bool */\n      0x00\n        /* \"admin.sol\":2832:2846  adminAddresses */\n      0x02\n        /* \"admin.sol\":2832:2861  adminAddresses[_adminAddress] */\n      0x00\n        /* \"admin.sol\":2847:2860  _adminAddress */\n      dup4\n        /* \"admin.sol\":2832:2861  adminAddresses[_adminAddress] */\n      0xffffffffffffffffffffffffffffffffffffffff\n      and\n      0xffffffffffffffffffffffffffffffffffffffff\n      and\n      dup2\n      mstore\n      0x20\n      add\n      swap1\n      dup2\n      mstore\n      0x20\n      add\n      0x00\n      keccak256\n        /* \"admin.sol\":2832:2870  adminAddresses[_adminAddress].verified */\n      0x08\n      add\n      0x00\n      swap1\n      sload\n      swap1\n      0x0100\n      exp\n      swap1\n      div\n      0xff\n      and\n        /* \"admin.sol\":2829:2883  if(adminAddresses[_adminAddress].verified) return true */\n      iszero\n      tag_176\n      jumpi\n        /* \"admin.sol\":2879:2883  true */\n      0x01\n        /* \"admin.sol\":2872:2883  return true */\n      swap1\n      pop\n      jump(tag_175)\n        /* \"admin.sol\":2829:2883  if(adminAddresses[_adminAddress].verified) return true */\n    tag_176:\n        /* \"admin.sol\":2901:2906  false */\n      0x00\n        /* \"admin.sol\":2894:2906  return false */\n      swap1\n      pop\n        /* \"admin.sol\":2748:2914  function checkIfAdmin(address _adminAddress) public view returns(bool){... */\n    tag_175:\n      swap2\n      swap1\n      pop\n      jump\t// out\n        /* \"admin.sol\":3606:4187  function acceptAdminRequest(address newAdmin) public returns (address newAdminAddress){... */\n    tag_83:\n        /* \"admin.sol\":3668:3691  address newAdminAddress */\n      0x00\n        /* \"admin.sol\":3723:3734  masterAdmin */\n      dup1\n      0x00\n      swap1\n      sload\n      swap1\n      0x0100\n      exp\n      swap1\n      div\n      0xffffffffffffffffffffffffffffffffffffffff\n      and\n        /* \"admin.sol\":3711:3734  msg.sender==masterAdmin */\n      0xffffffffffffffffffffffffffffffffffffffff\n      and\n        /* \"admin.sol\":3711:3721  msg.sender */\n      caller\n        /* \"admin.sol\":3711:3734  msg.sender==masterAdmin */\n      0xffffffffffffffffffffffffffffffffffffffff\n      and\n      eq\n        /* \"admin.sol\":3711:3789  msg.sender==masterAdmin || bytes(adminAddresses[msg.sender].username).length>0 */\n      dup1\n      tag_178\n      jumpi\n      pop\n        /* \"admin.sol\":3788:3789  0 */\n      0x00\n        /* \"admin.sol\":3744:3758  adminAddresses */\n      0x02\n        /* \"admin.sol\":3744:3770  adminAddresses[msg.sender] */\n      0x00\n        /* \"admin.sol\":3759:3769  msg.sender */\n      caller\n        /* \"admin.sol\":3744:3770  adminAddresses[msg.sender] */\n      0xffffffffffffffffffffffffffffffffffffffff\n      and\n      0xffffffffffffffffffffffffffffffffffffffff\n      and\n      dup2\n      mstore\n      0x20\n      add\n      swap1\n      dup2\n      mstore\n      0x20\n      add\n      0x00\n      keccak256\n        /* \"admin.sol\":3744:3779  adminAddresses[msg.sender].username */\n      0x02\n      add\n        /* \"admin.sol\":3738:3787  bytes(adminAddresses[msg.sender].username).length */\n      dup1\n      sload\n      tag_179\n      swap1\n      tag_120\n      jump\t// in\n    tag_179:\n      swap1\n      pop\n        /* \"admin.sol\":3738:3789  bytes(adminAddresses[msg.sender].username).length>0 */\n      gt\n        /* \"admin.sol\":3711:3789  msg.sender==masterAdmin || bytes(adminAddresses[msg.sender].username).length>0 */\n    tag_178:\n        /* \"admin.sol\":3703:3827  require(msg.sender==masterAdmin || bytes(adminAddresses[msg.sender].username).length>0,\"only master admin can add the user\") */\n      tag_180\n      jumpi\n      mload(0x40)\n      0x08c379a000000000000000000000000000000000000000000000000000000000\n      dup2\n      mstore\n      0x04\n      add\n      tag_181\n      swap1\n      tag_146\n      jump\t// in\n    tag_181:\n      mload(0x40)\n      dup1\n      swap2\n      sub\n      swap1\n      revert\n    tag_180:\n        /* \"admin.sol\":3892:3893  0 */\n      0x00\n        /* \"admin.sol\":3847:3861  adminAddresses */\n      0x02\n        /* \"admin.sol\":3847:3873  adminAddresses[msg.sender] */\n      0x00\n        /* \"admin.sol\":3862:3872  msg.sender */\n      caller\n        /* \"admin.sol\":3847:3873  adminAddresses[msg.sender] */\n      0xffffffffffffffffffffffffffffffffffffffff\n      and\n      0xffffffffffffffffffffffffffffffffffffffff\n      and\n      dup2\n      mstore\n      0x20\n      add\n      swap1\n      dup2\n      mstore\n      0x20\n      add\n      0x00\n      keccak256\n        /* \"admin.sol\":3847:3882  adminAddresses[msg.sender].username */\n      0x02\n      add\n        /* \"admin.sol\":3841:3890  bytes(adminAddresses[msg.sender].username).length */\n      dup1\n      sload\n      tag_182\n      swap1\n      tag_120\n      jump\t// in\n    tag_182:\n      swap1\n      pop\n        /* \"admin.sol\":3841:3893  bytes(adminAddresses[msg.sender].username).length==0 */\n      sub\n        /* \"admin.sol\":3838:3949  if(bytes(adminAddresses[msg.sender].username).length==0){... */\n      tag_183\n      jumpi\n        /* \"admin.sol\":3909:3937  revert(\"user doesn't exist\") */\n      mload(0x40)\n      0x08c379a000000000000000000000000000000000000000000000000000000000\n      dup2\n      mstore\n      0x04\n      add\n      tag_184\n      swap1\n      tag_150\n      jump\t// in\n    tag_184:\n      mload(0x40)\n      dup1\n      swap2\n      sub\n      swap1\n      revert\n        /* \"admin.sol\":3838:3949  if(bytes(adminAddresses[msg.sender].username).length==0){... */\n    tag_183:\n        /* \"admin.sol\":3995:3999  true */\n      0x01\n        /* \"admin.sol\":3959:3973  adminAddresses */\n      0x02\n        /* \"admin.sol\":3959:3983  adminAddresses[newAdmin] */\n      0x00\n        /* \"admin.sol\":3974:3982  newAdmin */\n      dup5\n        /* \"admin.sol\":3959:3983  adminAddresses[newAdmin] */\n      0xffffffffffffffffffffffffffffffffffffffff\n      and\n      0xffffffffffffffffffffffffffffffffffffffff\n      and\n      dup2\n      mstore\n      0x20\n      add\n      swap1\n      dup2\n      mstore\n      0x20\n      add\n      0x00\n      keccak256\n        /* \"admin.sol\":3959:3992  adminAddresses[newAdmin].verified */\n      0x08\n      add\n      0x00\n        /* \"admin.sol\":3959:3999  adminAddresses[newAdmin].verified = true */\n      0x0100\n      exp\n      dup2\n      sload\n      dup2\n      0xff\n      mul\n      not\n      and\n      swap1\n      dup4\n      iszero\n      iszero\n      mul\n      or\n      swap1\n      sstore\n      pop\n        /* \"admin.sol\":4050:4076  RequestStatusType.approved */\n      0x01\n        /* \"admin.sol\":4010:4023  adminRequests */\n      0x04\n        /* \"admin.sol\":4010:4033  adminRequests[newAdmin] */\n      0x00\n        /* \"admin.sol\":4024:4032  newAdmin */\n      dup5\n        /* \"admin.sol\":4010:4033  adminRequests[newAdmin] */\n      0xffffffffffffffffffffffffffffffffffffffff\n      and\n      0xffffffffffffffffffffffffffffffffffffffff\n      and\n      dup2\n      mstore\n      0x20\n      add\n      swap1\n      dup2\n      mstore\n      0x20\n      add\n      0x00\n      keccak256\n        /* \"admin.sol\":4010:4047  adminRequests[newAdmin].requestStatus */\n      0x00\n      add\n      0x14\n        /* \"admin.sol\":4010:4076  adminRequests[newAdmin].requestStatus = RequestStatusType.approved */\n      0x0100\n      exp\n      dup2\n      sload\n      dup2\n      0xff\n      mul\n      not\n      and\n      swap1\n      dup4\n      0x02\n      dup2\n      gt\n      iszero\n      tag_185\n      jumpi\n      tag_186\n      tag_100\n      jump\t// in\n    tag_186:\n    tag_185:\n      mul\n      or\n      swap1\n      sstore\n      pop\n        /* \"admin.sol\":4116:4124  newAdmin */\n      dup2\n        /* \"admin.sol\":4087:4096  adminKeys */\n      0x01\n        /* \"admin.sol\":4087:4113  adminKeys[totalAdminCount] */\n      0x00\n        /* \"admin.sol\":4097:4112  totalAdminCount */\n      sload(0x05)\n        /* \"admin.sol\":4087:4113  adminKeys[totalAdminCount] */\n      dup2\n      mstore\n      0x20\n      add\n      swap1\n      dup2\n      mstore\n      0x20\n      add\n      0x00\n      keccak256\n      0x00\n        /* \"admin.sol\":4087:4124  adminKeys[totalAdminCount] = newAdmin */\n      0x0100\n      exp\n      dup2\n      sload\n      dup2\n      0xffffffffffffffffffffffffffffffffffffffff\n      mul\n      not\n      and\n      swap1\n      dup4\n      0xffffffffffffffffffffffffffffffffffffffff\n      and\n      mul\n      or\n      swap1\n      sstore\n      pop\n        /* \"admin.sol\":4152:4153  1 */\n      0x01\n        /* \"admin.sol\":4135:4150  totalAdminCount */\n      0x05\n      0x00\n        /* \"admin.sol\":4135:4153  totalAdminCount+=1 */\n      dup3\n      dup3\n      sload\n      tag_187\n      swap2\n      swap1\n      tag_92\n      jump\t// in\n    tag_187:\n      swap3\n      pop\n      pop\n      dup2\n      swap1\n      sstore\n      pop\n        /* \"admin.sol\":4171:4179  newAdmin */\n      dup2\n        /* \"admin.sol\":4164:4179  return newAdmin */\n      swap1\n      pop\n        /* \"admin.sol\":3606:4187  function acceptAdminRequest(address newAdmin) public returns (address newAdminAddress){... */\n      swap2\n      swap1\n      pop\n      jump\t// out\n        /* \"admin.sol\":4659:4966  function getAdminRequests()public view returns (AdminRequest[] memory){... */\n    tag_86:\n        /* \"admin.sol\":4707:4728  AdminRequest[] memory */\n      0x60\n        /* \"admin.sol\":4740:4770  AdminRequest[] memory requests */\n      0x00\n        /* \"admin.sol\":4792:4809  totalRequestCount */\n      sload(0x06)\n        /* \"admin.sol\":4773:4810  new AdminRequest[](totalRequestCount) */\n      0xffffffffffffffff\n      dup2\n      gt\n      iszero\n      tag_189\n      jumpi\n      tag_190\n      tag_106\n      jump\t// in\n    tag_190:\n    tag_189:\n      mload(0x40)\n      swap1\n      dup1\n      dup3\n      mstore\n      dup1\n      0x20\n      mul\n      0x20\n      add\n      dup3\n      add\n      0x40\n      mstore\n      dup1\n      iszero\n      tag_191\n      jumpi\n      dup2\n      0x20\n      add\n    tag_192:\n      tag_193\n      tag_194\n      jump\t// in\n    tag_193:\n      dup2\n      mstore\n      0x20\n      add\n      swap1\n      0x01\n      swap1\n      sub\n      swap1\n      dup2\n      tag_192\n      jumpi\n      swap1\n      pop\n    tag_191:\n      pop\n        /* \"admin.sol\":4740:4810  AdminRequest[] memory requests = new AdminRequest[](totalRequestCount) */\n      swap1\n      pop\n        /* \"admin.sol\":4825:4831  uint i */\n      0x00\n        /* \"admin.sol\":4821:4933  for(uint i=0;i<totalRequestCount;i++){... */\n    tag_195:\n        /* \"admin.sol\":4836:4853  totalRequestCount */\n      sload(0x06)\n        /* \"admin.sol\":4834:4835  i */\n      dup2\n        /* \"admin.sol\":4834:4853  i<totalRequestCount */\n      lt\n        /* \"admin.sol\":4821:4933  for(uint i=0;i<totalRequestCount;i++){... */\n      iszero\n      tag_196\n      jumpi\n        /* \"admin.sol\":4887:4900  adminRequests */\n      0x04\n        /* \"admin.sol\":4887:4921  adminRequests[adminRequestkeys[i]] */\n      0x00\n        /* \"admin.sol\":4901:4917  adminRequestkeys */\n      0x03\n        /* \"admin.sol\":4901:4920  adminRequestkeys[i] */\n      0x00\n        /* \"admin.sol\":4918:4919  i */\n      dup5\n        /* \"admin.sol\":4901:4920  adminRequestkeys[i] */\n      dup2\n      mstore\n      0x20\n      add\n      swap1\n      dup2\n      mstore\n      0x20\n      add\n      0x00\n      keccak256\n      0x00\n      swap1\n      sload\n      swap1\n      0x0100\n      exp\n      swap1\n      div\n      0xffffffffffffffffffffffffffffffffffffffff\n      and\n        /* \"admin.sol\":4887:4921  adminRequests[adminRequestkeys[i]] */\n      0xffffffffffffffffffffffffffffffffffffffff\n      and\n      0xffffffffffffffffffffffffffffffffffffffff\n      and\n      dup2\n      mstore\n      0x20\n      add\n      swap1\n      dup2\n      mstore\n      0x20\n      add\n      0x00\n      keccak256\n        /* \"admin.sol\":4873:4921  requests[i] = adminRequests[adminRequestkeys[i]] */\n      mload(0x40)\n      dup1\n      0x40\n      add\n      0x40\n      mstore\n      swap1\n      dup2\n      0x00\n      dup3\n      add\n      0x00\n      swap1\n      sload\n      swap1\n      0x0100\n      exp\n      swap1\n      div\n      0xffffffffffffffffffffffffffffffffffffffff\n      and\n      0xffffffffffffffffffffffffffffffffffffffff\n      and\n      0xffffffffffffffffffffffffffffffffffffffff\n      and\n      dup2\n      mstore\n      0x20\n      add\n      0x00\n      dup3\n      add\n      0x14\n      swap1\n      sload\n      swap1\n      0x0100\n      exp\n      swap1\n      div\n      0xff\n      and\n      0x02\n      dup2\n      gt\n      iszero\n      tag_198\n      jumpi\n      tag_199\n      tag_100\n      jump\t// in\n    tag_199:\n    tag_198:\n      0x02\n      dup2\n      gt\n      iszero\n      tag_200\n      jumpi\n      tag_201\n      tag_100\n      jump\t// in\n    tag_201:\n    tag_200:\n      dup2\n      mstore\n      pop\n      pop\n        /* \"admin.sol\":4873:4881  requests */\n      dup3\n        /* \"admin.sol\":4882:4883  i */\n      dup3\n        /* \"admin.sol\":4873:4884  requests[i] */\n      dup2\n      mload\n      dup2\n      lt\n      tag_202\n      jumpi\n      tag_203\n      tag_113\n      jump\t// in\n    tag_203:\n    tag_202:\n      0x20\n      mul\n      0x20\n      add\n      add\n        /* \"admin.sol\":4873:4921  requests[i] = adminRequests[adminRequestkeys[i]] */\n      dup2\n      swap1\n      mstore\n      pop\n        /* \"admin.sol\":4854:4857  i++ */\n      dup1\n      dup1\n      0x01\n      add\n      swap2\n      pop\n      pop\n        /* \"admin.sol\":4821:4933  for(uint i=0;i<totalRequestCount;i++){... */\n      jump(tag_195)\n    tag_196:\n      pop\n        /* \"admin.sol\":4950:4958  requests */\n      dup1\n        /* \"admin.sol\":4943:4958  return requests */\n      swap2\n      pop\n      pop\n        /* \"admin.sol\":4659:4966  function getAdminRequests()public view returns (AdminRequest[] memory){... */\n      swap1\n      jump\t// out\n    tag_194:\n      mload(0x40)\n      dup1\n      0x40\n      add\n      0x40\n      mstore\n      dup1\n      and(0xffffffffffffffffffffffffffffffffffffffff, 0x00)\n      dup2\n      mstore\n      0x20\n      add\n      0x00\n      0x02\n      dup2\n      gt\n      iszero\n      tag_204\n      jumpi\n      tag_205\n      tag_100\n      jump\t// in\n    tag_205:\n    tag_204:\n      dup2\n      mstore\n      pop\n      swap1\n      jump\t// out\n        /* \"#utility.yul\":7:82   */\n    tag_206:\n        /* \"#utility.yul\":40:46   */\n      0x00\n        /* \"#utility.yul\":73:75   */\n      0x40\n        /* \"#utility.yul\":67:76   */\n      mload\n        /* \"#utility.yul\":57:76   */\n      swap1\n      pop\n        /* \"#utility.yul\":7:82   */\n      swap1\n      jump\t// out\n        /* \"#utility.yul\":88:205   */\n    tag_207:\n        /* \"#utility.yul\":197:198   */\n      0x00\n        /* \"#utility.yul\":194:195   */\n      dup1\n        /* \"#utility.yul\":187:199   */\n      revert\n        /* \"#utility.yul\":211:328   */\n    tag_208:\n        /* \"#utility.yul\":320:321   */\n      0x00\n        /* \"#utility.yul\":317:318   */\n      dup1\n        /* \"#utility.yul\":310:322   */\n      revert\n        /* \"#utility.yul\":334:451   */\n    tag_209:\n        /* \"#utility.yul\":443:444   */\n      0x00\n        /* \"#utility.yul\":440:441   */\n      dup1\n        /* \"#utility.yul\":433:445   */\n      revert\n        /* \"#utility.yul\":457:574   */\n    tag_210:\n        /* \"#utility.yul\":566:567   */\n      0x00\n        /* \"#utility.yul\":563:564   */\n      dup1\n        /* \"#utility.yul\":556:568   */\n      revert\n        /* \"#utility.yul\":580:682   */\n    tag_211:\n        /* \"#utility.yul\":621:627   */\n      0x00\n        /* \"#utility.yul\":672:674   */\n      0x1f\n        /* \"#utility.yul\":668:675   */\n      not\n        /* \"#utility.yul\":663:665   */\n      0x1f\n        /* \"#utility.yul\":656:661   */\n      dup4\n        /* \"#utility.yul\":652:666   */\n      add\n        /* \"#utility.yul\":648:676   */\n      and\n        /* \"#utility.yul\":638:676   */\n      swap1\n      pop\n        /* \"#utility.yul\":580:682   */\n      swap2\n      swap1\n      pop\n      jump\t// out\n        /* \"#utility.yul\":688:868   */\n    tag_106:\n        /* \"#utility.yul\":736:813   */\n      0x4e487b7100000000000000000000000000000000000000000000000000000000\n        /* \"#utility.yul\":733:734   */\n      0x00\n        /* \"#utility.yul\":726:814   */\n      mstore\n        /* \"#utility.yul\":833:837   */\n      0x41\n        /* \"#utility.yul\":830:831   */\n      0x04\n        /* \"#utility.yul\":823:838   */\n      mstore\n        /* \"#utility.yul\":857:861   */\n      0x24\n        /* \"#utility.yul\":854:855   */\n      0x00\n        /* \"#utility.yul\":847:862   */\n      revert\n        /* \"#utility.yul\":874:1155   */\n    tag_212:\n        /* \"#utility.yul\":957:984   */\n      tag_290\n        /* \"#utility.yul\":979:983   */\n      dup3\n        /* \"#utility.yul\":957:984   */\n      tag_211\n      jump\t// in\n    tag_290:\n        /* \"#utility.yul\":949:955   */\n      dup2\n        /* \"#utility.yul\":945:985   */\n      add\n        /* \"#utility.yul\":1087:1093   */\n      dup2\n        /* \"#utility.yul\":1075:1085   */\n      dup2\n        /* \"#utility.yul\":1072:1094   */\n      lt\n        /* \"#utility.yul\":1051:1069   */\n      0xffffffffffffffff\n        /* \"#utility.yul\":1039:1049   */\n      dup3\n        /* \"#utility.yul\":1036:1070   */\n      gt\n        /* \"#utility.yul\":1033:1095   */\n      or\n        /* \"#utility.yul\":1030:1118   */\n      iszero\n      tag_291\n      jumpi\n        /* \"#utility.yul\":1098:1116   */\n      tag_292\n      tag_106\n      jump\t// in\n    tag_292:\n        /* \"#utility.yul\":1030:1118   */\n    tag_291:\n        /* \"#utility.yul\":1138:1148   */\n      dup1\n        /* \"#utility.yul\":1134:1136   */\n      0x40\n        /* \"#utility.yul\":1127:1149   */\n      mstore\n        /* \"#utility.yul\":917:1155   */\n      pop\n        /* \"#utility.yul\":874:1155   */\n      pop\n      pop\n      jump\t// out\n        /* \"#utility.yul\":1161:1290   */\n    tag_213:\n        /* \"#utility.yul\":1195:1201   */\n      0x00\n        /* \"#utility.yul\":1222:1242   */\n      tag_294\n      tag_206\n      jump\t// in\n    tag_294:\n        /* \"#utility.yul\":1212:1242   */\n      swap1\n      pop\n        /* \"#utility.yul\":1251:1284   */\n      tag_295\n        /* \"#utility.yul\":1279:1283   */\n      dup3\n        /* \"#utility.yul\":1271:1277   */\n      dup3\n        /* \"#utility.yul\":1251:1284   */\n      tag_212\n      jump\t// in\n    tag_295:\n        /* \"#utility.yul\":1161:1290   */\n      swap2\n      swap1\n      pop\n      jump\t// out\n        /* \"#utility.yul\":1296:1604   */\n    tag_214:\n        /* \"#utility.yul\":1358:1362   */\n      0x00\n        /* \"#utility.yul\":1448:1466   */\n      0xffffffffffffffff\n        /* \"#utility.yul\":1440:1446   */\n      dup3\n        /* \"#utility.yul\":1437:1467   */\n      gt\n        /* \"#utility.yul\":1434:1490   */\n      iszero\n      tag_297\n      jumpi\n        /* \"#utility.yul\":1470:1488   */\n      tag_298\n      tag_106\n      jump\t// in\n    tag_298:\n        /* \"#utility.yul\":1434:1490   */\n    tag_297:\n        /* \"#utility.yul\":1508:1537   */\n      tag_299\n        /* \"#utility.yul\":1530:1536   */\n      dup3\n        /* \"#utility.yul\":1508:1537   */\n      tag_211\n      jump\t// in\n    tag_299:\n        /* \"#utility.yul\":1500:1537   */\n      swap1\n      pop\n        /* \"#utility.yul\":1592:1596   */\n      0x20\n        /* \"#utility.yul\":1586:1590   */\n      dup2\n        /* \"#utility.yul\":1582:1597   */\n      add\n        /* \"#utility.yul\":1574:1597   */\n      swap1\n      pop\n        /* \"#utility.yul\":1296:1604   */\n      swap2\n      swap1\n      pop\n      jump\t// out\n        /* \"#utility.yul\":1610:1756   */\n    tag_215:\n        /* \"#utility.yul\":1707:1713   */\n      dup3\n        /* \"#utility.yul\":1702:1705   */\n      dup2\n        /* \"#utility.yul\":1697:1700   */\n      dup4\n        /* \"#utility.yul\":1684:1714   */\n      calldatacopy\n        /* \"#utility.yul\":1748:1749   */\n      0x00\n        /* \"#utility.yul\":1739:1745   */\n      dup4\n        /* \"#utility.yul\":1734:1737   */\n      dup4\n        /* \"#utility.yul\":1730:1746   */\n      add\n        /* \"#utility.yul\":1723:1750   */\n      mstore\n        /* \"#utility.yul\":1610:1756   */\n      pop\n      pop\n      pop\n      jump\t// out\n        /* \"#utility.yul\":1762:2187   */\n    tag_216:\n        /* \"#utility.yul\":1840:1845   */\n      0x00\n        /* \"#utility.yul\":1865:1931   */\n      tag_302\n        /* \"#utility.yul\":1881:1930   */\n      tag_303\n        /* \"#utility.yul\":1923:1929   */\n      dup5\n        /* \"#utility.yul\":1881:1930   */\n      tag_214\n      jump\t// in\n    tag_303:\n        /* \"#utility.yul\":1865:1931   */\n      tag_213\n      jump\t// in\n    tag_302:\n        /* \"#utility.yul\":1856:1931   */\n      swap1\n      pop\n        /* \"#utility.yul\":1954:1960   */\n      dup3\n        /* \"#utility.yul\":1947:1952   */\n      dup2\n        /* \"#utility.yul\":1940:1961   */\n      mstore\n        /* \"#utility.yul\":1992:1996   */\n      0x20\n        /* \"#utility.yul\":1985:1990   */\n      dup2\n        /* \"#utility.yul\":1981:1997   */\n      add\n        /* \"#utility.yul\":2030:2033   */\n      dup5\n        /* \"#utility.yul\":2021:2027   */\n      dup5\n        /* \"#utility.yul\":2016:2019   */\n      dup5\n        /* \"#utility.yul\":2012:2028   */\n      add\n        /* \"#utility.yul\":2009:2034   */\n      gt\n        /* \"#utility.yul\":2006:2118   */\n      iszero\n      tag_304\n      jumpi\n        /* \"#utility.yul\":2037:2116   */\n      tag_305\n      tag_210\n      jump\t// in\n    tag_305:\n        /* \"#utility.yul\":2006:2118   */\n    tag_304:\n        /* \"#utility.yul\":2127:2181   */\n      tag_306\n        /* \"#utility.yul\":2174:2180   */\n      dup5\n        /* \"#utility.yul\":2169:2172   */\n      dup3\n        /* \"#utility.yul\":2164:2167   */\n      dup6\n        /* \"#utility.yul\":2127:2181   */\n      tag_215\n      jump\t// in\n    tag_306:\n        /* \"#utility.yul\":1846:2187   */\n      pop\n        /* \"#utility.yul\":1762:2187   */\n      swap4\n      swap3\n      pop\n      pop\n      pop\n      jump\t// out\n        /* \"#utility.yul\":2207:2547   */\n    tag_217:\n        /* \"#utility.yul\":2263:2268   */\n      0x00\n        /* \"#utility.yul\":2312:2315   */\n      dup3\n        /* \"#utility.yul\":2305:2309   */\n      0x1f\n        /* \"#utility.yul\":2297:2303   */\n      dup4\n        /* \"#utility.yul\":2293:2310   */\n      add\n        /* \"#utility.yul\":2289:2316   */\n      slt\n        /* \"#utility.yul\":2279:2401   */\n      tag_308\n      jumpi\n        /* \"#utility.yul\":2320:2399   */\n      tag_309\n      tag_209\n      jump\t// in\n    tag_309:\n        /* \"#utility.yul\":2279:2401   */\n    tag_308:\n        /* \"#utility.yul\":2437:2443   */\n      dup2\n        /* \"#utility.yul\":2424:2444   */\n      calldataload\n        /* \"#utility.yul\":2462:2541   */\n      tag_310\n        /* \"#utility.yul\":2537:2540   */\n      dup5\n        /* \"#utility.yul\":2529:2535   */\n      dup3\n        /* \"#utility.yul\":2522:2526   */\n      0x20\n        /* \"#utility.yul\":2514:2520   */\n      dup7\n        /* \"#utility.yul\":2510:2527   */\n      add\n        /* \"#utility.yul\":2462:2541   */\n      tag_216\n      jump\t// in\n    tag_310:\n        /* \"#utility.yul\":2453:2541   */\n      swap2\n      pop\n        /* \"#utility.yul\":2269:2547   */\n      pop\n        /* \"#utility.yul\":2207:2547   */\n      swap3\n      swap2\n      pop\n      pop\n      jump\t// out\n        /* \"#utility.yul\":2553:2679   */\n    tag_218:\n        /* \"#utility.yul\":2590:2597   */\n      0x00\n        /* \"#utility.yul\":2630:2672   */\n      0xffffffffffffffffffffffffffffffffffffffff\n        /* \"#utility.yul\":2623:2628   */\n      dup3\n        /* \"#utility.yul\":2619:2673   */\n      and\n        /* \"#utility.yul\":2608:2673   */\n      swap1\n      pop\n        /* \"#utility.yul\":2553:2679   */\n      swap2\n      swap1\n      pop\n      jump\t// out\n        /* \"#utility.yul\":2685:2781   */\n    tag_219:\n        /* \"#utility.yul\":2722:2729   */\n      0x00\n        /* \"#utility.yul\":2751:2775   */\n      tag_313\n        /* \"#utility.yul\":2769:2774   */\n      dup3\n        /* \"#utility.yul\":2751:2775   */\n      tag_218\n      jump\t// in\n    tag_313:\n        /* \"#utility.yul\":2740:2775   */\n      swap1\n      pop\n        /* \"#utility.yul\":2685:2781   */\n      swap2\n      swap1\n      pop\n      jump\t// out\n        /* \"#utility.yul\":2787:2909   */\n    tag_220:\n        /* \"#utility.yul\":2860:2884   */\n      tag_315\n        /* \"#utility.yul\":2878:2883   */\n      dup2\n        /* \"#utility.yul\":2860:2884   */\n      tag_219\n      jump\t// in\n    tag_315:\n        /* \"#utility.yul\":2853:2858   */\n      dup2\n        /* \"#utility.yul\":2850:2885   */\n      eq\n        /* \"#utility.yul\":2840:2903   */\n      tag_316\n      jumpi\n        /* \"#utility.yul\":2899:2900   */\n      0x00\n        /* \"#utility.yul\":2896:2897   */\n      dup1\n        /* \"#utility.yul\":2889:2901   */\n      revert\n        /* \"#utility.yul\":2840:2903   */\n    tag_316:\n        /* \"#utility.yul\":2787:2909   */\n      pop\n      jump\t// out\n        /* \"#utility.yul\":2915:3054   */\n    tag_221:\n        /* \"#utility.yul\":2961:2966   */\n      0x00\n        /* \"#utility.yul\":2999:3005   */\n      dup2\n        /* \"#utility.yul\":2986:3006   */\n      calldataload\n        /* \"#utility.yul\":2977:3006   */\n      swap1\n      pop\n        /* \"#utility.yul\":3015:3048   */\n      tag_318\n        /* \"#utility.yul\":3042:3047   */\n      dup2\n        /* \"#utility.yul\":3015:3048   */\n      tag_220\n      jump\t// in\n    tag_318:\n        /* \"#utility.yul\":2915:3054   */\n      swap3\n      swap2\n      pop\n      pop\n      jump\t// out\n        /* \"#utility.yul\":3060:3137   */\n    tag_222:\n        /* \"#utility.yul\":3097:3104   */\n      0x00\n        /* \"#utility.yul\":3126:3131   */\n      dup2\n        /* \"#utility.yul\":3115:3131   */\n      swap1\n      pop\n        /* \"#utility.yul\":3060:3137   */\n      swap2\n      swap1\n      pop\n      jump\t// out\n        /* \"#utility.yul\":3143:3265   */\n    tag_223:\n        /* \"#utility.yul\":3216:3240   */\n      tag_321\n        /* \"#utility.yul\":3234:3239   */\n      dup2\n        /* \"#utility.yul\":3216:3240   */\n      tag_222\n      jump\t// in\n    tag_321:\n        /* \"#utility.yul\":3209:3214   */\n      dup2\n        /* \"#utility.yul\":3206:3241   */\n      eq\n        /* \"#utility.yul\":3196:3259   */\n      tag_322\n      jumpi\n        /* \"#utility.yul\":3255:3256   */\n      0x00\n        /* \"#utility.yul\":3252:3253   */\n      dup1\n        /* \"#utility.yul\":3245:3257   */\n      revert\n        /* \"#utility.yul\":3196:3259   */\n    tag_322:\n        /* \"#utility.yul\":3143:3265   */\n      pop\n      jump\t// out\n        /* \"#utility.yul\":3271:3410   */\n    tag_224:\n        /* \"#utility.yul\":3317:3322   */\n      0x00\n        /* \"#utility.yul\":3355:3361   */\n      dup2\n        /* \"#utility.yul\":3342:3362   */\n      calldataload\n        /* \"#utility.yul\":3333:3362   */\n      swap1\n      pop\n        /* \"#utility.yul\":3371:3404   */\n      tag_324\n        /* \"#utility.yul\":3398:3403   */\n      dup2\n        /* \"#utility.yul\":3371:3404   */\n      tag_223\n      jump\t// in\n    tag_324:\n        /* \"#utility.yul\":3271:3410   */\n      swap3\n      swap2\n      pop\n      pop\n      jump\t// out\n        /* \"#utility.yul\":3416:5485   */\n    tag_23:\n        /* \"#utility.yul\":3578:3584   */\n      0x00\n        /* \"#utility.yul\":3586:3592   */\n      dup1\n        /* \"#utility.yul\":3594:3600   */\n      0x00\n        /* \"#utility.yul\":3602:3608   */\n      dup1\n        /* \"#utility.yul\":3610:3616   */\n      0x00\n        /* \"#utility.yul\":3618:3624   */\n      dup1\n        /* \"#utility.yul\":3626:3632   */\n      0x00\n        /* \"#utility.yul\":3634:3640   */\n      dup1\n        /* \"#utility.yul\":3683:3686   */\n      0x0100\n        /* \"#utility.yul\":3671:3680   */\n      dup10\n        /* \"#utility.yul\":3662:3669   */\n      dup12\n        /* \"#utility.yul\":3658:3681   */\n      sub\n        /* \"#utility.yul\":3654:3687   */\n      slt\n        /* \"#utility.yul\":3651:3771   */\n      iszero\n      tag_326\n      jumpi\n        /* \"#utility.yul\":3690:3769   */\n      tag_327\n      tag_207\n      jump\t// in\n    tag_327:\n        /* \"#utility.yul\":3651:3771   */\n    tag_326:\n        /* \"#utility.yul\":3838:3839   */\n      0x00\n        /* \"#utility.yul\":3827:3836   */\n      dup10\n        /* \"#utility.yul\":3823:3840   */\n      add\n        /* \"#utility.yul\":3810:3841   */\n      calldataload\n        /* \"#utility.yul\":3868:3886   */\n      0xffffffffffffffff\n        /* \"#utility.yul\":3860:3866   */\n      dup2\n        /* \"#utility.yul\":3857:3887   */\n      gt\n        /* \"#utility.yul\":3854:3971   */\n      iszero\n      tag_328\n      jumpi\n        /* \"#utility.yul\":3890:3969   */\n      tag_329\n      tag_208\n      jump\t// in\n    tag_329:\n        /* \"#utility.yul\":3854:3971   */\n    tag_328:\n        /* \"#utility.yul\":3995:4058   */\n      tag_330\n        /* \"#utility.yul\":4050:4057   */\n      dup12\n        /* \"#utility.yul\":4041:4047   */\n      dup3\n        /* \"#utility.yul\":4030:4039   */\n      dup13\n        /* \"#utility.yul\":4026:4048   */\n      add\n        /* \"#utility.yul\":3995:4058   */\n      tag_217\n      jump\t// in\n    tag_330:\n        /* \"#utility.yul\":3985:4058   */\n      swap9\n      pop\n        /* \"#utility.yul\":3781:4068   */\n      pop\n        /* \"#utility.yul\":4135:4137   */\n      0x20\n        /* \"#utility.yul\":4124:4133   */\n      dup10\n        /* \"#utility.yul\":4120:4138   */\n      add\n        /* \"#utility.yul\":4107:4139   */\n      calldataload\n        /* \"#utility.yul\":4166:4184   */\n      0xffffffffffffffff\n        /* \"#utility.yul\":4158:4164   */\n      dup2\n        /* \"#utility.yul\":4155:4185   */\n      gt\n        /* \"#utility.yul\":4152:4269   */\n      iszero\n      tag_331\n      jumpi\n        /* \"#utility.yul\":4188:4267   */\n      tag_332\n      tag_208\n      jump\t// in\n    tag_332:\n        /* \"#utility.yul\":4152:4269   */\n    tag_331:\n        /* \"#utility.yul\":4293:4356   */\n      tag_333\n        /* \"#utility.yul\":4348:4355   */\n      dup12\n        /* \"#utility.yul\":4339:4345   */\n      dup3\n        /* \"#utility.yul\":4328:4337   */\n      dup13\n        /* \"#utility.yul\":4324:4346   */\n      add\n        /* \"#utility.yul\":4293:4356   */\n      tag_217\n      jump\t// in\n    tag_333:\n        /* \"#utility.yul\":4283:4356   */\n      swap8\n      pop\n        /* \"#utility.yul\":4078:4366   */\n      pop\n        /* \"#utility.yul\":4433:4435   */\n      0x40\n        /* \"#utility.yul\":4422:4431   */\n      dup10\n        /* \"#utility.yul\":4418:4436   */\n      add\n        /* \"#utility.yul\":4405:4437   */\n      calldataload\n        /* \"#utility.yul\":4464:4482   */\n      0xffffffffffffffff\n        /* \"#utility.yul\":4456:4462   */\n      dup2\n        /* \"#utility.yul\":4453:4483   */\n      gt\n        /* \"#utility.yul\":4450:4567   */\n      iszero\n      tag_334\n      jumpi\n        /* \"#utility.yul\":4486:4565   */\n      tag_335\n      tag_208\n      jump\t// in\n    tag_335:\n        /* \"#utility.yul\":4450:4567   */\n    tag_334:\n        /* \"#utility.yul\":4591:4654   */\n      tag_336\n        /* \"#utility.yul\":4646:4653   */\n      dup12\n        /* \"#utility.yul\":4637:4643   */\n      dup3\n        /* \"#utility.yul\":4626:4635   */\n      dup13\n        /* \"#utility.yul\":4622:4644   */\n      add\n        /* \"#utility.yul\":4591:4654   */\n      tag_217\n      jump\t// in\n    tag_336:\n        /* \"#utility.yul\":4581:4654   */\n      swap7\n      pop\n        /* \"#utility.yul\":4376:4664   */\n      pop\n        /* \"#utility.yul\":4731:4733   */\n      0x60\n        /* \"#utility.yul\":4720:4729   */\n      dup10\n        /* \"#utility.yul\":4716:4734   */\n      add\n        /* \"#utility.yul\":4703:4735   */\n      calldataload\n        /* \"#utility.yul\":4762:4780   */\n      0xffffffffffffffff\n        /* \"#utility.yul\":4754:4760   */\n      dup2\n        /* \"#utility.yul\":4751:4781   */\n      gt\n        /* \"#utility.yul\":4748:4865   */\n      iszero\n      tag_337\n      jumpi\n        /* \"#utility.yul\":4784:4863   */\n      tag_338\n      tag_208\n      jump\t// in\n    tag_338:\n        /* \"#utility.yul\":4748:4865   */\n    tag_337:\n        /* \"#utility.yul\":4889:4952   */\n      tag_339\n        /* \"#utility.yul\":4944:4951   */\n      dup12\n        /* \"#utility.yul\":4935:4941   */\n      dup3\n        /* \"#utility.yul\":4924:4933   */\n      dup13\n        /* \"#utility.yul\":4920:4942   */\n      add\n        /* \"#utility.yul\":4889:4952   */\n      tag_217\n      jump\t// in\n    tag_339:\n        /* \"#utility.yul\":4879:4952   */\n      swap6\n      pop\n        /* \"#utility.yul\":4674:4962   */\n      pop\n        /* \"#utility.yul\":5001:5004   */\n      0x80\n        /* \"#utility.yul\":5028:5081   */\n      tag_340\n        /* \"#utility.yul\":5073:5080   */\n      dup12\n        /* \"#utility.yul\":5064:5070   */\n      dup3\n        /* \"#utility.yul\":5053:5062   */\n      dup13\n        /* \"#utility.yul\":5049:5071   */\n      add\n        /* \"#utility.yul\":5028:5081   */\n      tag_221\n      jump\t// in\n    tag_340:\n        /* \"#utility.yul\":5018:5081   */\n      swap5\n      pop\n        /* \"#utility.yul\":4972:5091   */\n      pop\n        /* \"#utility.yul\":5130:5133   */\n      0xa0\n        /* \"#utility.yul\":5157:5210   */\n      tag_341\n        /* \"#utility.yul\":5202:5209   */\n      dup12\n        /* \"#utility.yul\":5193:5199   */\n      dup3\n        /* \"#utility.yul\":5182:5191   */\n      dup13\n        /* \"#utility.yul\":5178:5200   */\n      add\n        /* \"#utility.yul\":5157:5210   */\n      tag_224\n      jump\t// in\n    tag_341:\n        /* \"#utility.yul\":5147:5210   */\n      swap4\n      pop\n        /* \"#utility.yul\":5101:5220   */\n      pop\n        /* \"#utility.yul\":5259:5262   */\n      0xc0\n        /* \"#utility.yul\":5286:5339   */\n      tag_342\n        /* \"#utility.yul\":5331:5338   */\n      dup12\n        /* \"#utility.yul\":5322:5328   */\n      dup3\n        /* \"#utility.yul\":5311:5320   */\n      dup13\n        /* \"#utility.yul\":5307:5329   */\n      add\n        /* \"#utility.yul\":5286:5339   */\n      tag_224\n      jump\t// in\n    tag_342:\n        /* \"#utility.yul\":5276:5339   */\n      swap3\n      pop\n        /* \"#utility.yul\":5230:5349   */\n      pop\n        /* \"#utility.yul\":5388:5391   */\n      0xe0\n        /* \"#utility.yul\":5415:5468   */\n      tag_343\n        /* \"#utility.yul\":5460:5467   */\n      dup12\n        /* \"#utility.yul\":5451:5457   */\n      dup3\n        /* \"#utility.yul\":5440:5449   */\n      dup13\n        /* \"#utility.yul\":5436:5458   */\n      add\n        /* \"#utility.yul\":5415:5468   */\n      tag_224\n      jump\t// in\n    tag_343:\n        /* \"#utility.yul\":5405:5468   */\n      swap2\n      pop\n        /* \"#utility.yul\":5359:5478   */\n      pop\n        /* \"#utility.yul\":3416:5485   */\n      swap3\n      swap6\n      swap9\n      pop\n      swap3\n      swap6\n      swap9\n      swap1\n      swap4\n      swap7\n      pop\n      jump\t// out\n        /* \"#utility.yul\":5491:5581   */\n    tag_225:\n        /* \"#utility.yul\":5525:5532   */\n      0x00\n        /* \"#utility.yul\":5568:5573   */\n      dup2\n        /* \"#utility.yul\":5561:5574   */\n      iszero\n        /* \"#utility.yul\":5554:5575   */\n      iszero\n        /* \"#utility.yul\":5543:5575   */\n      swap1\n      pop\n        /* \"#utility.yul\":5491:5581   */\n      swap2\n      swap1\n      pop\n      jump\t// out\n        /* \"#utility.yul\":5587:5696   */\n    tag_226:\n        /* \"#utility.yul\":5668:5689   */\n      tag_346\n        /* \"#utility.yul\":5683:5688   */\n      dup2\n        /* \"#utility.yul\":5668:5689   */\n      tag_225\n      jump\t// in\n    tag_346:\n        /* \"#utility.yul\":5663:5666   */\n      dup3\n        /* \"#utility.yul\":5656:5690   */\n      mstore\n        /* \"#utility.yul\":5587:5696   */\n      pop\n      pop\n      jump\t// out\n        /* \"#utility.yul\":5702:5912   */\n    tag_26:\n        /* \"#utility.yul\":5789:5793   */\n      0x00\n        /* \"#utility.yul\":5827:5829   */\n      0x20\n        /* \"#utility.yul\":5816:5825   */\n      dup3\n        /* \"#utility.yul\":5812:5830   */\n      add\n        /* \"#utility.yul\":5804:5830   */\n      swap1\n      pop\n        /* \"#utility.yul\":5840:5905   */\n      tag_348\n        /* \"#utility.yul\":5902:5903   */\n      0x00\n        /* \"#utility.yul\":5891:5900   */\n      dup4\n        /* \"#utility.yul\":5887:5904   */\n      add\n        /* \"#utility.yul\":5878:5884   */\n      dup5\n        /* \"#utility.yul\":5840:5905   */\n      tag_226\n      jump\t// in\n    tag_348:\n        /* \"#utility.yul\":5702:5912   */\n      swap3\n      swap2\n      pop\n      pop\n      jump\t// out\n        /* \"#utility.yul\":5918:6036   */\n    tag_227:\n        /* \"#utility.yul\":6005:6029   */\n      tag_350\n        /* \"#utility.yul\":6023:6028   */\n      dup2\n        /* \"#utility.yul\":6005:6029   */\n      tag_219\n      jump\t// in\n    tag_350:\n        /* \"#utility.yul\":6000:6003   */\n      dup3\n        /* \"#utility.yul\":5993:6030   */\n      mstore\n        /* \"#utility.yul\":5918:6036   */\n      pop\n      pop\n      jump\t// out\n        /* \"#utility.yul\":6042:6264   */\n    tag_30:\n        /* \"#utility.yul\":6135:6139   */\n      0x00\n        /* \"#utility.yul\":6173:6175   */\n      0x20\n        /* \"#utility.yul\":6162:6171   */\n      dup3\n        /* \"#utility.yul\":6158:6176   */\n      add\n        /* \"#utility.yul\":6150:6176   */\n      swap1\n      pop\n        /* \"#utility.yul\":6186:6257   */\n      tag_352\n        /* \"#utility.yul\":6254:6255   */\n      0x00\n        /* \"#utility.yul\":6243:6252   */\n      dup4\n        /* \"#utility.yul\":6239:6256   */\n      add\n        /* \"#utility.yul\":6230:6236   */\n      dup5\n        /* \"#utility.yul\":6186:6257   */\n      tag_227\n      jump\t// in\n    tag_352:\n        /* \"#utility.yul\":6042:6264   */\n      swap3\n      swap2\n      pop\n      pop\n      jump\t// out\n        /* \"#utility.yul\":6270:6384   */\n    tag_228:\n        /* \"#utility.yul\":6337:6343   */\n      0x00\n        /* \"#utility.yul\":6371:6376   */\n      dup2\n        /* \"#utility.yul\":6365:6377   */\n      mload\n        /* \"#utility.yul\":6355:6377   */\n      swap1\n      pop\n        /* \"#utility.yul\":6270:6384   */\n      swap2\n      swap1\n      pop\n      jump\t// out\n        /* \"#utility.yul\":6390:6574   */\n    tag_229:\n        /* \"#utility.yul\":6489:6500   */\n      0x00\n        /* \"#utility.yul\":6523:6529   */\n      dup3\n        /* \"#utility.yul\":6518:6521   */\n      dup3\n        /* \"#utility.yul\":6511:6530   */\n      mstore\n        /* \"#utility.yul\":6563:6567   */\n      0x20\n        /* \"#utility.yul\":6558:6561   */\n      dup3\n        /* \"#utility.yul\":6554:6568   */\n      add\n        /* \"#utility.yul\":6539:6568   */\n      swap1\n      pop\n        /* \"#utility.yul\":6390:6574   */\n      swap3\n      swap2\n      pop\n      pop\n      jump\t// out\n        /* \"#utility.yul\":6580:6712   */\n    tag_230:\n        /* \"#utility.yul\":6647:6651   */\n      0x00\n        /* \"#utility.yul\":6670:6673   */\n      dup2\n        /* \"#utility.yul\":6662:6673   */\n      swap1\n      pop\n        /* \"#utility.yul\":6700:6704   */\n      0x20\n        /* \"#utility.yul\":6695:6698   */\n      dup3\n        /* \"#utility.yul\":6691:6705   */\n      add\n        /* \"#utility.yul\":6683:6705   */\n      swap1\n      pop\n        /* \"#utility.yul\":6580:6712   */\n      swap2\n      swap1\n      pop\n      jump\t// out\n        /* \"#utility.yul\":6718:6826   */\n    tag_231:\n        /* \"#utility.yul\":6795:6819   */\n      tag_357\n        /* \"#utility.yul\":6813:6818   */\n      dup2\n        /* \"#utility.yul\":6795:6819   */\n      tag_219\n      jump\t// in\n    tag_357:\n        /* \"#utility.yul\":6790:6793   */\n      dup3\n        /* \"#utility.yul\":6783:6820   */\n      mstore\n        /* \"#utility.yul\":6718:6826   */\n      pop\n      pop\n      jump\t// out\n        /* \"#utility.yul\":6832:7011   */\n    tag_232:\n        /* \"#utility.yul\":6901:6911   */\n      0x00\n        /* \"#utility.yul\":6922:6968   */\n      tag_359\n        /* \"#utility.yul\":6964:6967   */\n      dup4\n        /* \"#utility.yul\":6956:6962   */\n      dup4\n        /* \"#utility.yul\":6922:6968   */\n      tag_231\n      jump\t// in\n    tag_359:\n        /* \"#utility.yul\":7000:7004   */\n      0x20\n        /* \"#utility.yul\":6995:6998   */\n      dup4\n        /* \"#utility.yul\":6991:7005   */\n      add\n        /* \"#utility.yul\":6977:7005   */\n      swap1\n      pop\n        /* \"#utility.yul\":6832:7011   */\n      swap3\n      swap2\n      pop\n      pop\n      jump\t// out\n        /* \"#utility.yul\":7017:7130   */\n    tag_233:\n        /* \"#utility.yul\":7087:7091   */\n      0x00\n        /* \"#utility.yul\":7119:7123   */\n      0x20\n        /* \"#utility.yul\":7114:7117   */\n      dup3\n        /* \"#utility.yul\":7110:7124   */\n      add\n        /* \"#utility.yul\":7102:7124   */\n      swap1\n      pop\n        /* \"#utility.yul\":7017:7130   */\n      swap2\n      swap1\n      pop\n      jump\t// out\n        /* \"#utility.yul\":7166:7898   */\n    tag_234:\n        /* \"#utility.yul\":7285:7288   */\n      0x00\n        /* \"#utility.yul\":7314:7368   */\n      tag_362\n        /* \"#utility.yul\":7362:7367   */\n      dup3\n        /* \"#utility.yul\":7314:7368   */\n      tag_228\n      jump\t// in\n    tag_362:\n        /* \"#utility.yul\":7384:7470   */\n      tag_363\n        /* \"#utility.yul\":7463:7469   */\n      dup2\n        /* \"#utility.yul\":7458:7461   */\n      dup6\n        /* \"#utility.yul\":7384:7470   */\n      tag_229\n      jump\t// in\n    tag_363:\n        /* \"#utility.yul\":7377:7470   */\n      swap4\n      pop\n        /* \"#utility.yul\":7494:7550   */\n      tag_364\n        /* \"#utility.yul\":7544:7549   */\n      dup4\n        /* \"#utility.yul\":7494:7550   */\n      tag_230\n      jump\t// in\n    tag_364:\n        /* \"#utility.yul\":7573:7580   */\n      dup1\n        /* \"#utility.yul\":7604:7605   */\n      0x00\n        /* \"#utility.yul\":7589:7873   */\n    tag_365:\n        /* \"#utility.yul\":7614:7620   */\n      dup4\n        /* \"#utility.yul\":7611:7612   */\n      dup2\n        /* \"#utility.yul\":7608:7621   */\n      lt\n        /* \"#utility.yul\":7589:7873   */\n      iszero\n      tag_367\n      jumpi\n        /* \"#utility.yul\":7690:7696   */\n      dup2\n        /* \"#utility.yul\":7684:7697   */\n      mload\n        /* \"#utility.yul\":7717:7780   */\n      tag_368\n        /* \"#utility.yul\":7776:7779   */\n      dup9\n        /* \"#utility.yul\":7761:7774   */\n      dup3\n        /* \"#utility.yul\":7717:7780   */\n      tag_232\n      jump\t// in\n    tag_368:\n        /* \"#utility.yul\":7710:7780   */\n      swap8\n      pop\n        /* \"#utility.yul\":7803:7863   */\n      tag_369\n        /* \"#utility.yul\":7856:7862   */\n      dup4\n        /* \"#utility.yul\":7803:7863   */\n      tag_233\n      jump\t// in\n    tag_369:\n        /* \"#utility.yul\":7793:7863   */\n      swap3\n      pop\n        /* \"#utility.yul\":7649:7873   */\n      pop\n        /* \"#utility.yul\":7636:7637   */\n      0x01\n        /* \"#utility.yul\":7633:7634   */\n      dup2\n        /* \"#utility.yul\":7629:7638   */\n      add\n        /* \"#utility.yul\":7624:7638   */\n      swap1\n      pop\n        /* \"#utility.yul\":7589:7873   */\n      jump(tag_365)\n    tag_367:\n        /* \"#utility.yul\":7593:7607   */\n      pop\n        /* \"#utility.yul\":7889:7892   */\n      dup6\n        /* \"#utility.yul\":7882:7892   */\n      swap4\n      pop\n        /* \"#utility.yul\":7290:7898   */\n      pop\n      pop\n      pop\n        /* \"#utility.yul\":7166:7898   */\n      swap3\n      swap2\n      pop\n      pop\n      jump\t// out\n        /* \"#utility.yul\":7904:8277   */\n    tag_34:\n        /* \"#utility.yul\":8047:8051   */\n      0x00\n        /* \"#utility.yul\":8085:8087   */\n      0x20\n        /* \"#utility.yul\":8074:8083   */\n      dup3\n        /* \"#utility.yul\":8070:8088   */\n      add\n        /* \"#utility.yul\":8062:8088   */\n      swap1\n      pop\n        /* \"#utility.yul\":8134:8143   */\n      dup2\n        /* \"#utility.yul\":8128:8132   */\n      dup2\n        /* \"#utility.yul\":8124:8144   */\n      sub\n        /* \"#utility.yul\":8120:8121   */\n      0x00\n        /* \"#utility.yul\":8109:8118   */\n      dup4\n        /* \"#utility.yul\":8105:8122   */\n      add\n        /* \"#utility.yul\":8098:8145   */\n      mstore\n        /* \"#utility.yul\":8162:8270   */\n      tag_371\n        /* \"#utility.yul\":8265:8269   */\n      dup2\n        /* \"#utility.yul\":8256:8262   */\n      dup5\n        /* \"#utility.yul\":8162:8270   */\n      tag_234\n      jump\t// in\n    tag_371:\n        /* \"#utility.yul\":8154:8270   */\n      swap1\n      pop\n        /* \"#utility.yul\":7904:8277   */\n      swap3\n      swap2\n      pop\n      pop\n      jump\t// out\n        /* \"#utility.yul\":8283:8792   */\n    tag_37:\n        /* \"#utility.yul\":8352:8358   */\n      0x00\n        /* \"#utility.yul\":8401:8403   */\n      0x20\n        /* \"#utility.yul\":8389:8398   */\n      dup3\n        /* \"#utility.yul\":8380:8387   */\n      dup5\n        /* \"#utility.yul\":8376:8399   */\n      sub\n        /* \"#utility.yul\":8372:8404   */\n      slt\n        /* \"#utility.yul\":8369:8488   */\n      iszero\n      tag_373\n      jumpi\n        /* \"#utility.yul\":8407:8486   */\n      tag_374\n      tag_207\n      jump\t// in\n    tag_374:\n        /* \"#utility.yul\":8369:8488   */\n    tag_373:\n        /* \"#utility.yul\":8555:8556   */\n      0x00\n        /* \"#utility.yul\":8544:8553   */\n      dup3\n        /* \"#utility.yul\":8540:8557   */\n      add\n        /* \"#utility.yul\":8527:8558   */\n      calldataload\n        /* \"#utility.yul\":8585:8603   */\n      0xffffffffffffffff\n        /* \"#utility.yul\":8577:8583   */\n      dup2\n        /* \"#utility.yul\":8574:8604   */\n      gt\n        /* \"#utility.yul\":8571:8688   */\n      iszero\n      tag_375\n      jumpi\n        /* \"#utility.yul\":8607:8686   */\n      tag_376\n      tag_208\n      jump\t// in\n    tag_376:\n        /* \"#utility.yul\":8571:8688   */\n    tag_375:\n        /* \"#utility.yul\":8712:8775   */\n      tag_377\n        /* \"#utility.yul\":8767:8774   */\n      dup5\n        /* \"#utility.yul\":8758:8764   */\n      dup3\n        /* \"#utility.yul\":8747:8756   */\n      dup6\n        /* \"#utility.yul\":8743:8765   */\n      add\n        /* \"#utility.yul\":8712:8775   */\n      tag_217\n      jump\t// in\n    tag_377:\n        /* \"#utility.yul\":8702:8775   */\n      swap2\n      pop\n        /* \"#utility.yul\":8498:8785   */\n      pop\n        /* \"#utility.yul\":8283:8792   */\n      swap3\n      swap2\n      pop\n      pop\n      jump\t// out\n        /* \"#utility.yul\":8798:8875   */\n    tag_235:\n        /* \"#utility.yul\":8835:8842   */\n      0x00\n        /* \"#utility.yul\":8864:8869   */\n      dup2\n        /* \"#utility.yul\":8853:8869   */\n      swap1\n      pop\n        /* \"#utility.yul\":8798:8875   */\n      swap2\n      swap1\n      pop\n      jump\t// out\n        /* \"#utility.yul\":8881:8999   */\n    tag_236:\n        /* \"#utility.yul\":8968:8992   */\n      tag_380\n        /* \"#utility.yul\":8986:8991   */\n      dup2\n        /* \"#utility.yul\":8968:8992   */\n      tag_235\n      jump\t// in\n    tag_380:\n        /* \"#utility.yul\":8963:8966   */\n      dup3\n        /* \"#utility.yul\":8956:8993   */\n      mstore\n        /* \"#utility.yul\":8881:8999   */\n      pop\n      pop\n      jump\t// out\n        /* \"#utility.yul\":9005:9227   */\n    tag_40:\n        /* \"#utility.yul\":9098:9102   */\n      0x00\n        /* \"#utility.yul\":9136:9138   */\n      0x20\n        /* \"#utility.yul\":9125:9134   */\n      dup3\n        /* \"#utility.yul\":9121:9139   */\n      add\n        /* \"#utility.yul\":9113:9139   */\n      swap1\n      pop\n        /* \"#utility.yul\":9149:9220   */\n      tag_382\n        /* \"#utility.yul\":9217:9218   */\n      0x00\n        /* \"#utility.yul\":9206:9215   */\n      dup4\n        /* \"#utility.yul\":9202:9219   */\n      add\n        /* \"#utility.yul\":9193:9199   */\n      dup5\n        /* \"#utility.yul\":9149:9220   */\n      tag_236\n      jump\t// in\n    tag_382:\n        /* \"#utility.yul\":9005:9227   */\n      swap3\n      swap2\n      pop\n      pop\n      jump\t// out\n        /* \"#utility.yul\":9233:9562   */\n    tag_43:\n        /* \"#utility.yul\":9292:9298   */\n      0x00\n        /* \"#utility.yul\":9341:9343   */\n      0x20\n        /* \"#utility.yul\":9329:9338   */\n      dup3\n        /* \"#utility.yul\":9320:9327   */\n      dup5\n        /* \"#utility.yul\":9316:9339   */\n      sub\n        /* \"#utility.yul\":9312:9344   */\n      slt\n        /* \"#utility.yul\":9309:9428   */\n      iszero\n      tag_384\n      jumpi\n        /* \"#utility.yul\":9347:9426   */\n      tag_385\n      tag_207\n      jump\t// in\n    tag_385:\n        /* \"#utility.yul\":9309:9428   */\n    tag_384:\n        /* \"#utility.yul\":9467:9468   */\n      0x00\n        /* \"#utility.yul\":9492:9545   */\n      tag_386\n        /* \"#utility.yul\":9537:9544   */\n      dup5\n        /* \"#utility.yul\":9528:9534   */\n      dup3\n        /* \"#utility.yul\":9517:9526   */\n      dup6\n        /* \"#utility.yul\":9513:9535   */\n      add\n        /* \"#utility.yul\":9492:9545   */\n      tag_221\n      jump\t// in\n    tag_386:\n        /* \"#utility.yul\":9482:9545   */\n      swap2\n      pop\n        /* \"#utility.yul\":9438:9555   */\n      pop\n        /* \"#utility.yul\":9233:9562   */\n      swap3\n      swap2\n      pop\n      pop\n      jump\t// out\n        /* \"#utility.yul\":9568:9748   */\n    tag_100:\n        /* \"#utility.yul\":9616:9693   */\n      0x4e487b7100000000000000000000000000000000000000000000000000000000\n        /* \"#utility.yul\":9613:9614   */\n      0x00\n        /* \"#utility.yul\":9606:9694   */\n      mstore\n        /* \"#utility.yul\":9713:9717   */\n      0x21\n        /* \"#utility.yul\":9710:9711   */\n      0x04\n        /* \"#utility.yul\":9703:9718   */\n      mstore\n        /* \"#utility.yul\":9737:9741   */\n      0x24\n        /* \"#utility.yul\":9734:9735   */\n      0x00\n        /* \"#utility.yul\":9727:9742   */\n      revert\n        /* \"#utility.yul\":9754:9879   */\n    tag_237:\n        /* \"#utility.yul\":9847:9848   */\n      0x03\n        /* \"#utility.yul\":9840:9845   */\n      dup2\n        /* \"#utility.yul\":9837:9849   */\n      lt\n        /* \"#utility.yul\":9827:9873   */\n      tag_389\n      jumpi\n        /* \"#utility.yul\":9853:9871   */\n      tag_390\n      tag_100\n      jump\t// in\n    tag_390:\n        /* \"#utility.yul\":9827:9873   */\n    tag_389:\n        /* \"#utility.yul\":9754:9879   */\n      pop\n      jump\t// out\n        /* \"#utility.yul\":9885:10036   */\n    tag_238:\n        /* \"#utility.yul\":9942:9949   */\n      0x00\n        /* \"#utility.yul\":9971:9976   */\n      dup2\n        /* \"#utility.yul\":9960:9976   */\n      swap1\n      pop\n        /* \"#utility.yul\":9977:10030   */\n      tag_392\n        /* \"#utility.yul\":10024:10029   */\n      dup3\n        /* \"#utility.yul\":9977:10030   */\n      tag_237\n      jump\t// in\n    tag_392:\n        /* \"#utility.yul\":9885:10036   */\n      swap2\n      swap1\n      pop\n      jump\t// out\n        /* \"#utility.yul\":10042:10193   */\n    tag_239:\n        /* \"#utility.yul\":10110:10119   */\n      0x00\n        /* \"#utility.yul\":10143:10187   */\n      tag_394\n        /* \"#utility.yul\":10181:10186   */\n      dup3\n        /* \"#utility.yul\":10143:10187   */\n      tag_238\n      jump\t// in\n    tag_394:\n        /* \"#utility.yul\":10130:10187   */\n      swap1\n      pop\n        /* \"#utility.yul\":10042:10193   */\n      swap2\n      swap1\n      pop\n      jump\t// out\n        /* \"#utility.yul\":10199:10366   */\n    tag_240:\n        /* \"#utility.yul\":10304:10359   */\n      tag_396\n        /* \"#utility.yul\":10353:10358   */\n      dup2\n        /* \"#utility.yul\":10304:10359   */\n      tag_239\n      jump\t// in\n    tag_396:\n        /* \"#utility.yul\":10299:10302   */\n      dup3\n        /* \"#utility.yul\":10292:10360   */\n      mstore\n        /* \"#utility.yul\":10199:10366   */\n      pop\n      pop\n      jump\t// out\n        /* \"#utility.yul\":10372:10740   */\n    tag_46:\n        /* \"#utility.yul\":10511:10515   */\n      0x00\n        /* \"#utility.yul\":10549:10551   */\n      0x40\n        /* \"#utility.yul\":10538:10547   */\n      dup3\n        /* \"#utility.yul\":10534:10552   */\n      add\n        /* \"#utility.yul\":10526:10552   */\n      swap1\n      pop\n        /* \"#utility.yul\":10562:10633   */\n      tag_398\n        /* \"#utility.yul\":10630:10631   */\n      0x00\n        /* \"#utility.yul\":10619:10628   */\n      dup4\n        /* \"#utility.yul\":10615:10632   */\n      add\n        /* \"#utility.yul\":10606:10612   */\n      dup6\n        /* \"#utility.yul\":10562:10633   */\n      tag_227\n      jump\t// in\n    tag_398:\n        /* \"#utility.yul\":10643:10733   */\n      tag_399\n        /* \"#utility.yul\":10729:10731   */\n      0x20\n        /* \"#utility.yul\":10718:10727   */\n      dup4\n        /* \"#utility.yul\":10714:10732   */\n      add\n        /* \"#utility.yul\":10705:10711   */\n      dup5\n        /* \"#utility.yul\":10643:10733   */\n      tag_240\n      jump\t// in\n    tag_399:\n        /* \"#utility.yul\":10372:10740   */\n      swap4\n      swap3\n      pop\n      pop\n      pop\n      jump\t// out\n        /* \"#utility.yul\":10746:10845   */\n    tag_241:\n        /* \"#utility.yul\":10798:10804   */\n      0x00\n        /* \"#utility.yul\":10832:10837   */\n      dup2\n        /* \"#utility.yul\":10826:10838   */\n      mload\n        /* \"#utility.yul\":10816:10838   */\n      swap1\n      pop\n        /* \"#utility.yul\":10746:10845   */\n      swap2\n      swap1\n      pop\n      jump\t// out\n        /* \"#utility.yul\":10851:11020   */\n    tag_242:\n        /* \"#utility.yul\":10935:10946   */\n      0x00\n        /* \"#utility.yul\":10969:10975   */\n      dup3\n        /* \"#utility.yul\":10964:10967   */\n      dup3\n        /* \"#utility.yul\":10957:10976   */\n      mstore\n        /* \"#utility.yul\":11009:11013   */\n      0x20\n        /* \"#utility.yul\":11004:11007   */\n      dup3\n        /* \"#utility.yul\":11000:11014   */\n      add\n        /* \"#utility.yul\":10985:11014   */\n      swap1\n      pop\n        /* \"#utility.yul\":10851:11020   */\n      swap3\n      swap2\n      pop\n      pop\n      jump\t// out\n        /* \"#utility.yul\":11026:11272   */\n    tag_243:\n        /* \"#utility.yul\":11107:11108   */\n      0x00\n        /* \"#utility.yul\":11117:11230   */\n    tag_403:\n        /* \"#utility.yul\":11131:11137   */\n      dup4\n        /* \"#utility.yul\":11128:11129   */\n      dup2\n        /* \"#utility.yul\":11125:11138   */\n      lt\n        /* \"#utility.yul\":11117:11230   */\n      iszero\n      tag_405\n      jumpi\n        /* \"#utility.yul\":11216:11217   */\n      dup1\n        /* \"#utility.yul\":11211:11214   */\n      dup3\n        /* \"#utility.yul\":11207:11218   */\n      add\n        /* \"#utility.yul\":11201:11219   */\n      mload\n        /* \"#utility.yul\":11197:11198   */\n      dup2\n        /* \"#utility.yul\":11192:11195   */\n      dup5\n        /* \"#utility.yul\":11188:11199   */\n      add\n        /* \"#utility.yul\":11181:11220   */\n      mstore\n        /* \"#utility.yul\":11153:11155   */\n      0x20\n        /* \"#utility.yul\":11150:11151   */\n      dup2\n        /* \"#utility.yul\":11146:11156   */\n      add\n        /* \"#utility.yul\":11141:11156   */\n      swap1\n      pop\n        /* \"#utility.yul\":11117:11230   */\n      jump(tag_403)\n    tag_405:\n        /* \"#utility.yul\":11264:11265   */\n      0x00\n        /* \"#utility.yul\":11255:11261   */\n      dup5\n        /* \"#utility.yul\":11250:11253   */\n      dup5\n        /* \"#utility.yul\":11246:11262   */\n      add\n        /* \"#utility.yul\":11239:11266   */\n      mstore\n        /* \"#utility.yul\":11088:11272   */\n      pop\n        /* \"#utility.yul\":11026:11272   */\n      pop\n      pop\n      pop\n      jump\t// out\n        /* \"#utility.yul\":11278:11655   */\n    tag_244:\n        /* \"#utility.yul\":11366:11369   */\n      0x00\n        /* \"#utility.yul\":11394:11433   */\n      tag_407\n        /* \"#utility.yul\":11427:11432   */\n      dup3\n        /* \"#utility.yul\":11394:11433   */\n      tag_241\n      jump\t// in\n    tag_407:\n        /* \"#utility.yul\":11449:11520   */\n      tag_408\n        /* \"#utility.yul\":11513:11519   */\n      dup2\n        /* \"#utility.yul\":11508:11511   */\n      dup6\n        /* \"#utility.yul\":11449:11520   */\n      tag_242\n      jump\t// in\n    tag_408:\n        /* \"#utility.yul\":11442:11520   */\n      swap4\n      pop\n        /* \"#utility.yul\":11529:11594   */\n      tag_409\n        /* \"#utility.yul\":11587:11593   */\n      dup2\n        /* \"#utility.yul\":11582:11585   */\n      dup6\n        /* \"#utility.yul\":11575:11579   */\n      0x20\n        /* \"#utility.yul\":11568:11573   */\n      dup7\n        /* \"#utility.yul\":11564:11580   */\n      add\n        /* \"#utility.yul\":11529:11594   */\n      tag_243\n      jump\t// in\n    tag_409:\n        /* \"#utility.yul\":11619:11648   */\n      tag_410\n        /* \"#utility.yul\":11641:11647   */\n      dup2\n        /* \"#utility.yul\":11619:11648   */\n      tag_211\n      jump\t// in\n    tag_410:\n        /* \"#utility.yul\":11614:11617   */\n      dup5\n        /* \"#utility.yul\":11610:11649   */\n      add\n        /* \"#utility.yul\":11603:11649   */\n      swap2\n      pop\n        /* \"#utility.yul\":11370:11655   */\n      pop\n        /* \"#utility.yul\":11278:11655   */\n      swap3\n      swap2\n      pop\n      pop\n      jump\t// out\n        /* \"#utility.yul\":11661:11769   */\n    tag_245:\n        /* \"#utility.yul\":11738:11762   */\n      tag_412\n        /* \"#utility.yul\":11756:11761   */\n      dup2\n        /* \"#utility.yul\":11738:11762   */\n      tag_222\n      jump\t// in\n    tag_412:\n        /* \"#utility.yul\":11733:11736   */\n      dup3\n        /* \"#utility.yul\":11726:11763   */\n      mstore\n        /* \"#utility.yul\":11661:11769   */\n      pop\n      pop\n      jump\t// out\n        /* \"#utility.yul\":11821:12493   */\n    tag_246:\n        /* \"#utility.yul\":11958:11962   */\n      0x60\n        /* \"#utility.yul\":11953:11956   */\n      dup3\n        /* \"#utility.yul\":11949:11963   */\n      add\n        /* \"#utility.yul\":12045:12049   */\n      0x00\n        /* \"#utility.yul\":12038:12043   */\n      dup3\n        /* \"#utility.yul\":12034:12050   */\n      add\n        /* \"#utility.yul\":12028:12051   */\n      mload\n        /* \"#utility.yul\":12064:12127   */\n      tag_414\n        /* \"#utility.yul\":12121:12125   */\n      0x00\n        /* \"#utility.yul\":12116:12119   */\n      dup6\n        /* \"#utility.yul\":12112:12126   */\n      add\n        /* \"#utility.yul\":12098:12110   */\n      dup3\n        /* \"#utility.yul\":12064:12127   */\n      tag_245\n      jump\t// in\n    tag_414:\n        /* \"#utility.yul\":11973:12137   */\n      pop\n        /* \"#utility.yul\":12220:12224   */\n      0x20\n        /* \"#utility.yul\":12213:12218   */\n      dup3\n        /* \"#utility.yul\":12209:12225   */\n      add\n        /* \"#utility.yul\":12203:12226   */\n      mload\n        /* \"#utility.yul\":12239:12302   */\n      tag_415\n        /* \"#utility.yul\":12296:12300   */\n      0x20\n        /* \"#utility.yul\":12291:12294   */\n      dup6\n        /* \"#utility.yul\":12287:12301   */\n      add\n        /* \"#utility.yul\":12273:12285   */\n      dup3\n        /* \"#utility.yul\":12239:12302   */\n      tag_245\n      jump\t// in\n    tag_415:\n        /* \"#utility.yul\":12147:12312   */\n      pop\n        /* \"#utility.yul\":12394:12398   */\n      0x40\n        /* \"#utility.yul\":12387:12392   */\n      dup3\n        /* \"#utility.yul\":12383:12399   */\n      add\n        /* \"#utility.yul\":12377:12400   */\n      mload\n        /* \"#utility.yul\":12413:12476   */\n      tag_416\n        /* \"#utility.yul\":12470:12474   */\n      0x40\n        /* \"#utility.yul\":12465:12468   */\n      dup6\n        /* \"#utility.yul\":12461:12475   */\n      add\n        /* \"#utility.yul\":12447:12459   */\n      dup3\n        /* \"#utility.yul\":12413:12476   */\n      tag_245\n      jump\t// in\n    tag_416:\n        /* \"#utility.yul\":12322:12486   */\n      pop\n        /* \"#utility.yul\":11927:12493   */\n      pop\n        /* \"#utility.yul\":11821:12493   */\n      pop\n      pop\n      jump\t// out\n        /* \"#utility.yul\":12499:13817   */\n    tag_51:\n        /* \"#utility.yul\":12874:12878   */\n      0x00\n        /* \"#utility.yul\":12912:12915   */\n      0x0120\n        /* \"#utility.yul\":12901:12910   */\n      dup3\n        /* \"#utility.yul\":12897:12916   */\n      add\n        /* \"#utility.yul\":12889:12916   */\n      swap1\n      pop\n        /* \"#utility.yul\":12962:12971   */\n      dup2\n        /* \"#utility.yul\":12956:12960   */\n      dup2\n        /* \"#utility.yul\":12952:12972   */\n      sub\n        /* \"#utility.yul\":12948:12949   */\n      0x00\n        /* \"#utility.yul\":12937:12946   */\n      dup4\n        /* \"#utility.yul\":12933:12950   */\n      add\n        /* \"#utility.yul\":12926:12973   */\n      mstore\n        /* \"#utility.yul\":12990:13068   */\n      tag_418\n        /* \"#utility.yul\":13063:13067   */\n      dup2\n        /* \"#utility.yul\":13054:13060   */\n      dup11\n        /* \"#utility.yul\":12990:13068   */\n      tag_244\n      jump\t// in\n    tag_418:\n        /* \"#utility.yul\":12982:13068   */\n      swap1\n      pop\n        /* \"#utility.yul\":13115:13124   */\n      dup2\n        /* \"#utility.yul\":13109:13113   */\n      dup2\n        /* \"#utility.yul\":13105:13125   */\n      sub\n        /* \"#utility.yul\":13100:13102   */\n      0x20\n        /* \"#utility.yul\":13089:13098   */\n      dup4\n        /* \"#utility.yul\":13085:13103   */\n      add\n        /* \"#utility.yul\":13078:13126   */\n      mstore\n        /* \"#utility.yul\":13143:13221   */\n      tag_419\n        /* \"#utility.yul\":13216:13220   */\n      dup2\n        /* \"#utility.yul\":13207:13213   */\n      dup10\n        /* \"#utility.yul\":13143:13221   */\n      tag_244\n      jump\t// in\n    tag_419:\n        /* \"#utility.yul\":13135:13221   */\n      swap1\n      pop\n        /* \"#utility.yul\":13268:13277   */\n      dup2\n        /* \"#utility.yul\":13262:13266   */\n      dup2\n        /* \"#utility.yul\":13258:13278   */\n      sub\n        /* \"#utility.yul\":13253:13255   */\n      0x40\n        /* \"#utility.yul\":13242:13251   */\n      dup4\n        /* \"#utility.yul\":13238:13256   */\n      add\n        /* \"#utility.yul\":13231:13279   */\n      mstore\n        /* \"#utility.yul\":13296:13374   */\n      tag_420\n        /* \"#utility.yul\":13369:13373   */\n      dup2\n        /* \"#utility.yul\":13360:13366   */\n      dup9\n        /* \"#utility.yul\":13296:13374   */\n      tag_244\n      jump\t// in\n    tag_420:\n        /* \"#utility.yul\":13288:13374   */\n      swap1\n      pop\n        /* \"#utility.yul\":13421:13430   */\n      dup2\n        /* \"#utility.yul\":13415:13419   */\n      dup2\n        /* \"#utility.yul\":13411:13431   */\n      sub\n        /* \"#utility.yul\":13406:13408   */\n      0x60\n        /* \"#utility.yul\":13395:13404   */\n      dup4\n        /* \"#utility.yul\":13391:13409   */\n      add\n        /* \"#utility.yul\":13384:13432   */\n      mstore\n        /* \"#utility.yul\":13449:13527   */\n      tag_421\n        /* \"#utility.yul\":13522:13526   */\n      dup2\n        /* \"#utility.yul\":13513:13519   */\n      dup8\n        /* \"#utility.yul\":13449:13527   */\n      tag_244\n      jump\t// in\n    tag_421:\n        /* \"#utility.yul\":13441:13527   */\n      swap1\n      pop\n        /* \"#utility.yul\":13537:13610   */\n      tag_422\n        /* \"#utility.yul\":13605:13608   */\n      0x80\n        /* \"#utility.yul\":13594:13603   */\n      dup4\n        /* \"#utility.yul\":13590:13609   */\n      add\n        /* \"#utility.yul\":13581:13587   */\n      dup7\n        /* \"#utility.yul\":13537:13610   */\n      tag_227\n      jump\t// in\n    tag_422:\n        /* \"#utility.yul\":13620:13733   */\n      tag_423\n        /* \"#utility.yul\":13728:13731   */\n      0xa0\n        /* \"#utility.yul\":13717:13726   */\n      dup4\n        /* \"#utility.yul\":13713:13732   */\n      add\n        /* \"#utility.yul\":13704:13710   */\n      dup6\n        /* \"#utility.yul\":13620:13733   */\n      tag_246\n      jump\t// in\n    tag_423:\n        /* \"#utility.yul\":13743:13810   */\n      tag_424\n        /* \"#utility.yul\":13805:13808   */\n      0x0100\n        /* \"#utility.yul\":13794:13803   */\n      dup4\n        /* \"#utility.yul\":13790:13809   */\n      add\n        /* \"#utility.yul\":13781:13787   */\n      dup5\n        /* \"#utility.yul\":13743:13810   */\n      tag_226\n      jump\t// in\n    tag_424:\n        /* \"#utility.yul\":12499:13817   */\n      swap9\n      swap8\n      pop\n      pop\n      pop\n      pop\n      pop\n      pop\n      pop\n      pop\n      jump\t// out\n        /* \"#utility.yul\":13823:13941   */\n    tag_247:\n        /* \"#utility.yul\":13910:13934   */\n      tag_426\n        /* \"#utility.yul\":13928:13933   */\n      dup2\n        /* \"#utility.yul\":13910:13934   */\n      tag_222\n      jump\t// in\n    tag_426:\n        /* \"#utility.yul\":13905:13908   */\n      dup3\n        /* \"#utility.yul\":13898:13935   */\n      mstore\n        /* \"#utility.yul\":13823:13941   */\n      pop\n      pop\n      jump\t// out\n        /* \"#utility.yul\":13947:14169   */\n    tag_55:\n        /* \"#utility.yul\":14040:14044   */\n      0x00\n        /* \"#utility.yul\":14078:14080   */\n      0x20\n        /* \"#utility.yul\":14067:14076   */\n      dup3\n        /* \"#utility.yul\":14063:14081   */\n      add\n        /* \"#utility.yul\":14055:14081   */\n      swap1\n      pop\n        /* \"#utility.yul\":14091:14162   */\n      tag_428\n        /* \"#utility.yul\":14159:14160   */\n      0x00\n        /* \"#utility.yul\":14148:14157   */\n      dup4\n        /* \"#utility.yul\":14144:14161   */\n      add\n        /* \"#utility.yul\":14135:14141   */\n      dup5\n        /* \"#utility.yul\":14091:14162   */\n      tag_247\n      jump\t// in\n    tag_428:\n        /* \"#utility.yul\":13947:14169   */\n      swap3\n      swap2\n      pop\n      pop\n      jump\t// out\n        /* \"#utility.yul\":14175:14504   */\n    tag_65:\n        /* \"#utility.yul\":14234:14240   */\n      0x00\n        /* \"#utility.yul\":14283:14285   */\n      0x20\n        /* \"#utility.yul\":14271:14280   */\n      dup3\n        /* \"#utility.yul\":14262:14269   */\n      dup5\n        /* \"#utility.yul\":14258:14281   */\n      sub\n        /* \"#utility.yul\":14254:14286   */\n      slt\n        /* \"#utility.yul\":14251:14370   */\n      iszero\n      tag_430\n      jumpi\n        /* \"#utility.yul\":14289:14368   */\n      tag_431\n      tag_207\n      jump\t// in\n    tag_431:\n        /* \"#utility.yul\":14251:14370   */\n    tag_430:\n        /* \"#utility.yul\":14409:14410   */\n      0x00\n        /* \"#utility.yul\":14434:14487   */\n      tag_432\n        /* \"#utility.yul\":14479:14486   */\n      dup5\n        /* \"#utility.yul\":14470:14476   */\n      dup3\n        /* \"#utility.yul\":14459:14468   */\n      dup6\n        /* \"#utility.yul\":14455:14477   */\n      add\n        /* \"#utility.yul\":14434:14487   */\n      tag_224\n      jump\t// in\n    tag_432:\n        /* \"#utility.yul\":14424:14487   */\n      swap2\n      pop\n        /* \"#utility.yul\":14380:14497   */\n      pop\n        /* \"#utility.yul\":14175:14504   */\n      swap3\n      swap2\n      pop\n      pop\n      jump\t// out\n        /* \"#utility.yul\":14510:15489   */\n    tag_74:\n        /* \"#utility.yul\":14607:14613   */\n      0x00\n        /* \"#utility.yul\":14615:14621   */\n      dup1\n        /* \"#utility.yul\":14623:14629   */\n      0x00\n        /* \"#utility.yul\":14672:14674   */\n      0x60\n        /* \"#utility.yul\":14660:14669   */\n      dup5\n        /* \"#utility.yul\":14651:14658   */\n      dup7\n        /* \"#utility.yul\":14647:14670   */\n      sub\n        /* \"#utility.yul\":14643:14675   */\n      slt\n        /* \"#utility.yul\":14640:14759   */\n      iszero\n      tag_434\n      jumpi\n        /* \"#utility.yul\":14678:14757   */\n      tag_435\n      tag_207\n      jump\t// in\n    tag_435:\n        /* \"#utility.yul\":14640:14759   */\n    tag_434:\n        /* \"#utility.yul\":14826:14827   */\n      0x00\n        /* \"#utility.yul\":14815:14824   */\n      dup5\n        /* \"#utility.yul\":14811:14828   */\n      add\n        /* \"#utility.yul\":14798:14829   */\n      calldataload\n        /* \"#utility.yul\":14856:14874   */\n      0xffffffffffffffff\n        /* \"#utility.yul\":14848:14854   */\n      dup2\n        /* \"#utility.yul\":14845:14875   */\n      gt\n        /* \"#utility.yul\":14842:14959   */\n      iszero\n      tag_436\n      jumpi\n        /* \"#utility.yul\":14878:14957   */\n      tag_437\n      tag_208\n      jump\t// in\n    tag_437:\n        /* \"#utility.yul\":14842:14959   */\n    tag_436:\n        /* \"#utility.yul\":14983:15046   */\n      tag_438\n        /* \"#utility.yul\":15038:15045   */\n      dup7\n        /* \"#utility.yul\":15029:15035   */\n      dup3\n        /* \"#utility.yul\":15018:15027   */\n      dup8\n        /* \"#utility.yul\":15014:15036   */\n      add\n        /* \"#utility.yul\":14983:15046   */\n      tag_217\n      jump\t// in\n    tag_438:\n        /* \"#utility.yul\":14973:15046   */\n      swap4\n      pop\n        /* \"#utility.yul\":14769:15056   */\n      pop\n        /* \"#utility.yul\":15123:15125   */\n      0x20\n        /* \"#utility.yul\":15112:15121   */\n      dup5\n        /* \"#utility.yul\":15108:15126   */\n      add\n        /* \"#utility.yul\":15095:15127   */\n      calldataload\n        /* \"#utility.yul\":15154:15172   */\n      0xffffffffffffffff\n        /* \"#utility.yul\":15146:15152   */\n      dup2\n        /* \"#utility.yul\":15143:15173   */\n      gt\n        /* \"#utility.yul\":15140:15257   */\n      iszero\n      tag_439\n      jumpi\n        /* \"#utility.yul\":15176:15255   */\n      tag_440\n      tag_208\n      jump\t// in\n    tag_440:\n        /* \"#utility.yul\":15140:15257   */\n    tag_439:\n        /* \"#utility.yul\":15281:15344   */\n      tag_441\n        /* \"#utility.yul\":15336:15343   */\n      dup7\n        /* \"#utility.yul\":15327:15333   */\n      dup3\n        /* \"#utility.yul\":15316:15325   */\n      dup8\n        /* \"#utility.yul\":15312:15334   */\n      add\n        /* \"#utility.yul\":15281:15344   */\n      tag_217\n      jump\t// in\n    tag_441:\n        /* \"#utility.yul\":15271:15344   */\n      swap3\n      pop\n        /* \"#utility.yul\":15066:15354   */\n      pop\n        /* \"#utility.yul\":15393:15395   */\n      0x40\n        /* \"#utility.yul\":15419:15472   */\n      tag_442\n        /* \"#utility.yul\":15464:15471   */\n      dup7\n        /* \"#utility.yul\":15455:15461   */\n      dup3\n        /* \"#utility.yul\":15444:15453   */\n      dup8\n        /* \"#utility.yul\":15440:15462   */\n      add\n        /* \"#utility.yul\":15419:15472   */\n      tag_221\n      jump\t// in\n    tag_442:\n        /* \"#utility.yul\":15409:15472   */\n      swap2\n      pop\n        /* \"#utility.yul\":15364:15482   */\n      pop\n        /* \"#utility.yul\":14510:15489   */\n      swap3\n      pop\n      swap3\n      pop\n      swap3\n      jump\t// out\n        /* \"#utility.yul\":15495:15637   */\n    tag_248:\n        /* \"#utility.yul\":15590:15596   */\n      0x00\n        /* \"#utility.yul\":15624:15629   */\n      dup2\n        /* \"#utility.yul\":15618:15630   */\n      mload\n        /* \"#utility.yul\":15608:15630   */\n      swap1\n      pop\n        /* \"#utility.yul\":15495:15637   */\n      swap2\n      swap1\n      pop\n      jump\t// out\n        /* \"#utility.yul\":15643:15855   */\n    tag_249:\n        /* \"#utility.yul\":15770:15781   */\n      0x00\n        /* \"#utility.yul\":15804:15810   */\n      dup3\n        /* \"#utility.yul\":15799:15802   */\n      dup3\n        /* \"#utility.yul\":15792:15811   */\n      mstore\n        /* \"#utility.yul\":15844:15848   */\n      0x20\n        /* \"#utility.yul\":15839:15842   */\n      dup3\n        /* \"#utility.yul\":15835:15849   */\n      add\n        /* \"#utility.yul\":15820:15849   */\n      swap1\n      pop\n        /* \"#utility.yul\":15643:15855   */\n      swap3\n      swap2\n      pop\n      pop\n      jump\t// out\n        /* \"#utility.yul\":15861:16021   */\n    tag_250:\n        /* \"#utility.yul\":15956:15960   */\n      0x00\n        /* \"#utility.yul\":15979:15982   */\n      dup2\n        /* \"#utility.yul\":15971:15982   */\n      swap1\n      pop\n        /* \"#utility.yul\":16009:16013   */\n      0x20\n        /* \"#utility.yul\":16004:16007   */\n      dup3\n        /* \"#utility.yul\":16000:16014   */\n      add\n        /* \"#utility.yul\":15992:16014   */\n      swap1\n      pop\n        /* \"#utility.yul\":15861:16021   */\n      swap2\n      swap1\n      pop\n      jump\t// out\n        /* \"#utility.yul\":16027:16184   */\n    tag_251:\n        /* \"#utility.yul\":16122:16177   */\n      tag_447\n        /* \"#utility.yul\":16171:16176   */\n      dup2\n        /* \"#utility.yul\":16122:16177   */\n      tag_239\n      jump\t// in\n    tag_447:\n        /* \"#utility.yul\":16117:16120   */\n      dup3\n        /* \"#utility.yul\":16110:16178   */\n      mstore\n        /* \"#utility.yul\":16027:16184   */\n      pop\n      pop\n      jump\t// out\n        /* \"#utility.yul\":16252:16791   */\n    tag_252:\n        /* \"#utility.yul\":16395:16399   */\n      0x40\n        /* \"#utility.yul\":16390:16393   */\n      dup3\n        /* \"#utility.yul\":16386:16400   */\n      add\n        /* \"#utility.yul\":16491:16495   */\n      0x00\n        /* \"#utility.yul\":16484:16489   */\n      dup3\n        /* \"#utility.yul\":16480:16496   */\n      add\n        /* \"#utility.yul\":16474:16497   */\n      mload\n        /* \"#utility.yul\":16510:16573   */\n      tag_449\n        /* \"#utility.yul\":16567:16571   */\n      0x00\n        /* \"#utility.yul\":16562:16565   */\n      dup6\n        /* \"#utility.yul\":16558:16572   */\n      add\n        /* \"#utility.yul\":16544:16556   */\n      dup3\n        /* \"#utility.yul\":16510:16573   */\n      tag_231\n      jump\t// in\n    tag_449:\n        /* \"#utility.yul\":16410:16583   */\n      pop\n        /* \"#utility.yul\":16674:16678   */\n      0x20\n        /* \"#utility.yul\":16667:16672   */\n      dup3\n        /* \"#utility.yul\":16663:16679   */\n      add\n        /* \"#utility.yul\":16657:16680   */\n      mload\n        /* \"#utility.yul\":16693:16774   */\n      tag_450\n        /* \"#utility.yul\":16768:16772   */\n      0x20\n        /* \"#utility.yul\":16763:16766   */\n      dup6\n        /* \"#utility.yul\":16759:16773   */\n      add\n        /* \"#utility.yul\":16745:16757   */\n      dup3\n        /* \"#utility.yul\":16693:16774   */\n      tag_251\n      jump\t// in\n    tag_450:\n        /* \"#utility.yul\":16593:16784   */\n      pop\n        /* \"#utility.yul\":16364:16791   */\n      pop\n        /* \"#utility.yul\":16252:16791   */\n      pop\n      pop\n      jump\t// out\n        /* \"#utility.yul\":16797:17088   */\n    tag_253:\n        /* \"#utility.yul\":16922:16932   */\n      0x00\n        /* \"#utility.yul\":16943:17045   */\n      tag_452\n        /* \"#utility.yul\":17041:17044   */\n      dup4\n        /* \"#utility.yul\":17033:17039   */\n      dup4\n        /* \"#utility.yul\":16943:17045   */\n      tag_252\n      jump\t// in\n    tag_452:\n        /* \"#utility.yul\":17077:17081   */\n      0x40\n        /* \"#utility.yul\":17072:17075   */\n      dup4\n        /* \"#utility.yul\":17068:17082   */\n      add\n        /* \"#utility.yul\":17054:17082   */\n      swap1\n      pop\n        /* \"#utility.yul\":16797:17088   */\n      swap3\n      swap2\n      pop\n      pop\n      jump\t// out\n        /* \"#utility.yul\":17094:17235   */\n    tag_254:\n        /* \"#utility.yul\":17192:17196   */\n      0x00\n        /* \"#utility.yul\":17224:17228   */\n      0x20\n        /* \"#utility.yul\":17219:17222   */\n      dup3\n        /* \"#utility.yul\":17215:17229   */\n      add\n        /* \"#utility.yul\":17207:17229   */\n      swap1\n      pop\n        /* \"#utility.yul\":17094:17235   */\n      swap2\n      swap1\n      pop\n      jump\t// out\n        /* \"#utility.yul\":17307:18263   */\n    tag_255:\n        /* \"#utility.yul\":17482:17485   */\n      0x00\n        /* \"#utility.yul\":17511:17593   */\n      tag_455\n        /* \"#utility.yul\":17587:17592   */\n      dup3\n        /* \"#utility.yul\":17511:17593   */\n      tag_248\n      jump\t// in\n    tag_455:\n        /* \"#utility.yul\":17609:17723   */\n      tag_456\n        /* \"#utility.yul\":17716:17722   */\n      dup2\n        /* \"#utility.yul\":17711:17714   */\n      dup6\n        /* \"#utility.yul\":17609:17723   */\n      tag_249\n      jump\t// in\n    tag_456:\n        /* \"#utility.yul\":17602:17723   */\n      swap4\n      pop\n        /* \"#utility.yul\":17747:17831   */\n      tag_457\n        /* \"#utility.yul\":17825:17830   */\n      dup4\n        /* \"#utility.yul\":17747:17831   */\n      tag_250\n      jump\t// in\n    tag_457:\n        /* \"#utility.yul\":17854:17861   */\n      dup1\n        /* \"#utility.yul\":17885:17886   */\n      0x00\n        /* \"#utility.yul\":17870:18238   */\n    tag_458:\n        /* \"#utility.yul\":17895:17901   */\n      dup4\n        /* \"#utility.yul\":17892:17893   */\n      dup2\n        /* \"#utility.yul\":17889:17902   */\n      lt\n        /* \"#utility.yul\":17870:18238   */\n      iszero\n      tag_460\n      jumpi\n        /* \"#utility.yul\":17971:17977   */\n      dup2\n        /* \"#utility.yul\":17965:17978   */\n      mload\n        /* \"#utility.yul\":17998:18117   */\n      tag_461\n        /* \"#utility.yul\":18113:18116   */\n      dup9\n        /* \"#utility.yul\":18098:18111   */\n      dup3\n        /* \"#utility.yul\":17998:18117   */\n      tag_253\n      jump\t// in\n    tag_461:\n        /* \"#utility.yul\":17991:18117   */\n      swap8\n      pop\n        /* \"#utility.yul\":18140:18228   */\n      tag_462\n        /* \"#utility.yul\":18221:18227   */\n      dup4\n        /* \"#utility.yul\":18140:18228   */\n      tag_254\n      jump\t// in\n    tag_462:\n        /* \"#utility.yul\":18130:18228   */\n      swap3\n      pop\n        /* \"#utility.yul\":17930:18238   */\n      pop\n        /* \"#utility.yul\":17917:17918   */\n      0x01\n        /* \"#utility.yul\":17914:17915   */\n      dup2\n        /* \"#utility.yul\":17910:17919   */\n      add\n        /* \"#utility.yul\":17905:17919   */\n      swap1\n      pop\n        /* \"#utility.yul\":17870:18238   */\n      jump(tag_458)\n    tag_460:\n        /* \"#utility.yul\":17874:17888   */\n      pop\n        /* \"#utility.yul\":18254:18257   */\n      dup6\n        /* \"#utility.yul\":18247:18257   */\n      swap4\n      pop\n        /* \"#utility.yul\":17487:18263   */\n      pop\n      pop\n      pop\n        /* \"#utility.yul\":17307:18263   */\n      swap3\n      swap2\n      pop\n      pop\n      jump\t// out\n        /* \"#utility.yul\":18269:18754   */\n    tag_88:\n        /* \"#utility.yul\":18468:18472   */\n      0x00\n        /* \"#utility.yul\":18506:18508   */\n      0x20\n        /* \"#utility.yul\":18495:18504   */\n      dup3\n        /* \"#utility.yul\":18491:18509   */\n      add\n        /* \"#utility.yul\":18483:18509   */\n      swap1\n      pop\n        /* \"#utility.yul\":18555:18564   */\n      dup2\n        /* \"#utility.yul\":18549:18553   */\n      dup2\n        /* \"#utility.yul\":18545:18565   */\n      sub\n        /* \"#utility.yul\":18541:18542   */\n      0x00\n        /* \"#utility.yul\":18530:18539   */\n      dup4\n        /* \"#utility.yul\":18526:18543   */\n      add\n        /* \"#utility.yul\":18519:18566   */\n      mstore\n        /* \"#utility.yul\":18583:18747   */\n      tag_464\n        /* \"#utility.yul\":18742:18746   */\n      dup2\n        /* \"#utility.yul\":18733:18739   */\n      dup5\n        /* \"#utility.yul\":18583:18747   */\n      tag_255\n      jump\t// in\n    tag_464:\n        /* \"#utility.yul\":18575:18747   */\n      swap1\n      pop\n        /* \"#utility.yul\":18269:18754   */\n      swap3\n      swap2\n      pop\n      pop\n      jump\t// out\n        /* \"#utility.yul\":18760:18940   */\n    tag_256:\n        /* \"#utility.yul\":18808:18885   */\n      0x4e487b7100000000000000000000000000000000000000000000000000000000\n        /* \"#utility.yul\":18805:18806   */\n      0x00\n        /* \"#utility.yul\":18798:18886   */\n      mstore\n        /* \"#utility.yul\":18905:18909   */\n      0x11\n        /* \"#utility.yul\":18902:18903   */\n      0x04\n        /* \"#utility.yul\":18895:18910   */\n      mstore\n        /* \"#utility.yul\":18929:18933   */\n      0x24\n        /* \"#utility.yul\":18926:18927   */\n      0x00\n        /* \"#utility.yul\":18919:18934   */\n      revert\n        /* \"#utility.yul\":18946:19137   */\n    tag_92:\n        /* \"#utility.yul\":18986:18989   */\n      0x00\n        /* \"#utility.yul\":19005:19025   */\n      tag_467\n        /* \"#utility.yul\":19023:19024   */\n      dup3\n        /* \"#utility.yul\":19005:19025   */\n      tag_222\n      jump\t// in\n    tag_467:\n        /* \"#utility.yul\":19000:19025   */\n      swap2\n      pop\n        /* \"#utility.yul\":19039:19059   */\n      tag_468\n        /* \"#utility.yul\":19057:19058   */\n      dup4\n        /* \"#utility.yul\":19039:19059   */\n      tag_222\n      jump\t// in\n    tag_468:\n        /* \"#utility.yul\":19034:19059   */\n      swap3\n      pop\n        /* \"#utility.yul\":19082:19083   */\n      dup3\n        /* \"#utility.yul\":19079:19080   */\n      dup3\n        /* \"#utility.yul\":19075:19084   */\n      add\n        /* \"#utility.yul\":19068:19084   */\n      swap1\n      pop\n        /* \"#utility.yul\":19103:19106   */\n      dup1\n        /* \"#utility.yul\":19100:19101   */\n      dup3\n        /* \"#utility.yul\":19097:19107   */\n      gt\n        /* \"#utility.yul\":19094:19130   */\n      iszero\n      tag_469\n      jumpi\n        /* \"#utility.yul\":19110:19128   */\n      tag_470\n      tag_256\n      jump\t// in\n    tag_470:\n        /* \"#utility.yul\":19094:19130   */\n    tag_469:\n        /* \"#utility.yul\":18946:19137   */\n      swap3\n      swap2\n      pop\n      pop\n      jump\t// out\n        /* \"#utility.yul\":19143:19323   */\n    tag_257:\n        /* \"#utility.yul\":19191:19268   */\n      0x4e487b7100000000000000000000000000000000000000000000000000000000\n        /* \"#utility.yul\":19188:19189   */\n      0x00\n        /* \"#utility.yul\":19181:19269   */\n      mstore\n        /* \"#utility.yul\":19288:19292   */\n      0x22\n        /* \"#utility.yul\":19285:19286   */\n      0x04\n        /* \"#utility.yul\":19278:19293   */\n      mstore\n        /* \"#utility.yul\":19312:19316   */\n      0x24\n        /* \"#utility.yul\":19309:19310   */\n      0x00\n        /* \"#utility.yul\":19302:19317   */\n      revert\n        /* \"#utility.yul\":19329:19649   */\n    tag_120:\n        /* \"#utility.yul\":19373:19379   */\n      0x00\n        /* \"#utility.yul\":19410:19411   */\n      0x02\n        /* \"#utility.yul\":19404:19408   */\n      dup3\n        /* \"#utility.yul\":19400:19412   */\n      div\n        /* \"#utility.yul\":19390:19412   */\n      swap1\n      pop\n        /* \"#utility.yul\":19457:19458   */\n      0x01\n        /* \"#utility.yul\":19451:19455   */\n      dup3\n        /* \"#utility.yul\":19447:19459   */\n      and\n        /* \"#utility.yul\":19478:19496   */\n      dup1\n        /* \"#utility.yul\":19468:19549   */\n      tag_473\n      jumpi\n        /* \"#utility.yul\":19534:19538   */\n      0x7f\n        /* \"#utility.yul\":19526:19532   */\n      dup3\n        /* \"#utility.yul\":19522:19539   */\n      and\n        /* \"#utility.yul\":19512:19539   */\n      swap2\n      pop\n        /* \"#utility.yul\":19468:19549   */\n    tag_473:\n        /* \"#utility.yul\":19596:19598   */\n      0x20\n        /* \"#utility.yul\":19588:19594   */\n      dup3\n        /* \"#utility.yul\":19585:19599   */\n      lt\n        /* \"#utility.yul\":19565:19583   */\n      dup2\n        /* \"#utility.yul\":19562:19600   */\n      sub\n        /* \"#utility.yul\":19559:19643   */\n      tag_474\n      jumpi\n        /* \"#utility.yul\":19615:19633   */\n      tag_475\n      tag_257\n      jump\t// in\n    tag_475:\n        /* \"#utility.yul\":19559:19643   */\n    tag_474:\n        /* \"#utility.yul\":19380:19649   */\n      pop\n        /* \"#utility.yul\":19329:19649   */\n      swap2\n      swap1\n      pop\n      jump\t// out\n        /* \"#utility.yul\":19655:19796   */\n    tag_258:\n        /* \"#utility.yul\":19704:19708   */\n      0x00\n        /* \"#utility.yul\":19727:19730   */\n      dup2\n        /* \"#utility.yul\":19719:19730   */\n      swap1\n      pop\n        /* \"#utility.yul\":19750:19753   */\n      dup2\n        /* \"#utility.yul\":19747:19748   */\n      0x00\n        /* \"#utility.yul\":19740:19754   */\n      mstore\n        /* \"#utility.yul\":19784:19788   */\n      0x20\n        /* \"#utility.yul\":19781:19782   */\n      0x00\n        /* \"#utility.yul\":19771:19789   */\n      keccak256\n        /* \"#utility.yul\":19763:19789   */\n      swap1\n      pop\n        /* \"#utility.yul\":19655:19796   */\n      swap2\n      swap1\n      pop\n      jump\t// out\n        /* \"#utility.yul\":19802:19895   */\n    tag_259:\n        /* \"#utility.yul\":19839:19845   */\n      0x00\n        /* \"#utility.yul\":19886:19888   */\n      0x20\n        /* \"#utility.yul\":19881:19883   */\n      0x1f\n        /* \"#utility.yul\":19874:19879   */\n      dup4\n        /* \"#utility.yul\":19870:19884   */\n      add\n        /* \"#utility.yul\":19866:19889   */\n      div\n        /* \"#utility.yul\":19856:19889   */\n      swap1\n      pop\n        /* \"#utility.yul\":19802:19895   */\n      swap2\n      swap1\n      pop\n      jump\t// out\n        /* \"#utility.yul\":19901:20008   */\n    tag_260:\n        /* \"#utility.yul\":19945:19953   */\n      0x00\n        /* \"#utility.yul\":19995:20000   */\n      dup3\n        /* \"#utility.yul\":19989:19993   */\n      dup3\n        /* \"#utility.yul\":19985:20001   */\n      shl\n        /* \"#utility.yul\":19964:20001   */\n      swap1\n      pop\n        /* \"#utility.yul\":19901:20008   */\n      swap3\n      swap2\n      pop\n      pop\n      jump\t// out\n        /* \"#utility.yul\":20014:20407   */\n    tag_261:\n        /* \"#utility.yul\":20083:20089   */\n      0x00\n        /* \"#utility.yul\":20133:20134   */\n      0x08\n        /* \"#utility.yul\":20121:20131   */\n      dup4\n        /* \"#utility.yul\":20117:20135   */\n      mul\n        /* \"#utility.yul\":20156:20253   */\n      tag_480\n        /* \"#utility.yul\":20186:20252   */\n      0xffffffffffffffffffffffffffffffffffffffffffffffffffffffffffffffff\n        /* \"#utility.yul\":20175:20184   */\n      dup3\n        /* \"#utility.yul\":20156:20253   */\n      tag_260\n      jump\t// in\n    tag_480:\n        /* \"#utility.yul\":20274:20313   */\n      tag_481\n        /* \"#utility.yul\":20304:20312   */\n      dup7\n        /* \"#utility.yul\":20293:20302   */\n      dup4\n        /* \"#utility.yul\":20274:20313   */\n      tag_260\n      jump\t// in\n    tag_481:\n        /* \"#utility.yul\":20262:20313   */\n      swap6\n      pop\n        /* \"#utility.yul\":20346:20350   */\n      dup1\n        /* \"#utility.yul\":20342:20351   */\n      not\n        /* \"#utility.yul\":20335:20340   */\n      dup5\n        /* \"#utility.yul\":20331:20352   */\n      and\n        /* \"#utility.yul\":20322:20352   */\n      swap4\n      pop\n        /* \"#utility.yul\":20395:20399   */\n      dup1\n        /* \"#utility.yul\":20385:20393   */\n      dup7\n        /* \"#utility.yul\":20381:20400   */\n      and\n        /* \"#utility.yul\":20374:20379   */\n      dup5\n        /* \"#utility.yul\":20371:20401   */\n      or\n        /* \"#utility.yul\":20361:20401   */\n      swap3\n      pop\n        /* \"#utility.yul\":20090:20407   */\n      pop\n      pop\n        /* \"#utility.yul\":20014:20407   */\n      swap4\n      swap3\n      pop\n      pop\n      pop\n      jump\t// out\n        /* \"#utility.yul\":20413:20473   */\n    tag_262:\n        /* \"#utility.yul\":20441:20444   */\n      0x00\n        /* \"#utility.yul\":20462:20467   */\n      dup2\n        /* \"#utility.yul\":20455:20467   */\n      swap1\n      pop\n        /* \"#utility.yul\":20413:20473   */\n      swap2\n      swap1\n      pop\n      jump\t// out\n        /* \"#utility.yul\":20479:20621   */\n    tag_263:\n        /* \"#utility.yul\":20529:20538   */\n      0x00\n        /* \"#utility.yul\":20562:20615   */\n      tag_484\n        /* \"#utility.yul\":20580:20614   */\n      tag_485\n        /* \"#utility.yul\":20589:20613   */\n      tag_486\n        /* \"#utility.yul\":20607:20612   */\n      dup5\n        /* \"#utility.yul\":20589:20613   */\n      tag_222\n      jump\t// in\n    tag_486:\n        /* \"#utility.yul\":20580:20614   */\n      tag_262\n      jump\t// in\n    tag_485:\n        /* \"#utility.yul\":20562:20615   */\n      tag_222\n      jump\t// in\n    tag_484:\n        /* \"#utility.yul\":20549:20615   */\n      swap1\n      pop\n        /* \"#utility.yul\":20479:20621   */\n      swap2\n      swap1\n      pop\n      jump\t// out\n        /* \"#utility.yul\":20627:20702   */\n    tag_264:\n        /* \"#utility.yul\":20670:20673   */\n      0x00\n        /* \"#utility.yul\":20691:20696   */\n      dup2\n        /* \"#utility.yul\":20684:20696   */\n      swap1\n      pop\n        /* \"#utility.yul\":20627:20702   */\n      swap2\n      swap1\n      pop\n      jump\t// out\n        /* \"#utility.yul\":20708:20977   */\n    tag_265:\n        /* \"#utility.yul\":20818:20857   */\n      tag_489\n        /* \"#utility.yul\":20849:20856   */\n      dup4\n        /* \"#utility.yul\":20818:20857   */\n      tag_263\n      jump\t// in\n    tag_489:\n        /* \"#utility.yul\":20879:20970   */\n      tag_490\n        /* \"#utility.yul\":20928:20969   */\n      tag_491\n        /* \"#utility.yul\":20952:20968   */\n      dup3\n        /* \"#utility.yul\":20928:20969   */\n      tag_264\n      jump\t// in\n    tag_491:\n        /* \"#utility.yul\":20920:20926   */\n      dup5\n        /* \"#utility.yul\":20913:20917   */\n      dup5\n        /* \"#utility.yul\":20907:20918   */\n      sload\n        /* \"#utility.yul\":20879:20970   */\n      tag_261\n      jump\t// in\n    tag_490:\n        /* \"#utility.yul\":20873:20877   */\n      dup3\n        /* \"#utility.yul\":20866:20971   */\n      sstore\n        /* \"#utility.yul\":20784:20977   */\n      pop\n        /* \"#utility.yul\":20708:20977   */\n      pop\n      pop\n      pop\n      jump\t// out\n        /* \"#utility.yul\":20983:21056   */\n    tag_266:\n        /* \"#utility.yul\":21028:21031   */\n      0x00\n        /* \"#utility.yul\":20983:21056   */\n      swap1\n      jump\t// out\n        /* \"#utility.yul\":21062:21251   */\n    tag_267:\n        /* \"#utility.yul\":21139:21171   */\n      tag_494\n      tag_266\n      jump\t// in\n    tag_494:\n        /* \"#utility.yul\":21180:21245   */\n      tag_495\n        /* \"#utility.yul\":21238:21244   */\n      dup2\n        /* \"#utility.yul\":21230:21236   */\n      dup5\n        /* \"#utility.yul\":21224:21228   */\n      dup5\n        /* \"#utility.yul\":21180:21245   */\n      tag_265\n      jump\t// in\n    tag_495:\n        /* \"#utility.yul\":21115:21251   */\n      pop\n        /* \"#utility.yul\":21062:21251   */\n      pop\n      pop\n      jump\t// out\n        /* \"#utility.yul\":21257:21443   */\n    tag_268:\n        /* \"#utility.yul\":21317:21437   */\n    tag_497:\n        /* \"#utility.yul\":21334:21337   */\n      dup2\n        /* \"#utility.yul\":21327:21332   */\n      dup2\n        /* \"#utility.yul\":21324:21338   */\n      lt\n        /* \"#utility.yul\":21317:21437   */\n      iszero\n      tag_499\n      jumpi\n        /* \"#utility.yul\":21388:21427   */\n      tag_500\n        /* \"#utility.yul\":21425:21426   */\n      0x00\n        /* \"#utility.yul\":21418:21423   */\n      dup3\n        /* \"#utility.yul\":21388:21427   */\n      tag_267\n      jump\t// in\n    tag_500:\n        /* \"#utility.yul\":21361:21362   */\n      0x01\n        /* \"#utility.yul\":21354:21359   */\n      dup2\n        /* \"#utility.yul\":21350:21363   */\n      add\n        /* \"#utility.yul\":21341:21363   */\n      swap1\n      pop\n        /* \"#utility.yul\":21317:21437   */\n      jump(tag_497)\n    tag_499:\n        /* \"#utility.yul\":21257:21443   */\n      pop\n      pop\n      jump\t// out\n        /* \"#utility.yul\":21449:21992   */\n    tag_269:\n        /* \"#utility.yul\":21550:21552   */\n      0x1f\n        /* \"#utility.yul\":21545:21548   */\n      dup3\n        /* \"#utility.yul\":21542:21553   */\n      gt\n        /* \"#utility.yul\":21539:21985   */\n      iszero\n      tag_502\n      jumpi\n        /* \"#utility.yul\":21584:21622   */\n      tag_503\n        /* \"#utility.yul\":21616:21621   */\n      dup2\n        /* \"#utility.yul\":21584:21622   */\n      tag_258\n      jump\t// in\n    tag_503:\n        /* \"#utility.yul\":21668:21697   */\n      tag_504\n        /* \"#utility.yul\":21686:21696   */\n      dup5\n        /* \"#utility.yul\":21668:21697   */\n      tag_259\n      jump\t// in\n    tag_504:\n        /* \"#utility.yul\":21658:21666   */\n      dup2\n        /* \"#utility.yul\":21654:21698   */\n      add\n        /* \"#utility.yul\":21851:21853   */\n      0x20\n        /* \"#utility.yul\":21839:21849   */\n      dup6\n        /* \"#utility.yul\":21836:21854   */\n      lt\n        /* \"#utility.yul\":21833:21882   */\n      iszero\n      tag_505\n      jumpi\n        /* \"#utility.yul\":21872:21880   */\n      dup2\n        /* \"#utility.yul\":21857:21880   */\n      swap1\n      pop\n        /* \"#utility.yul\":21833:21882   */\n    tag_505:\n        /* \"#utility.yul\":21895:21975   */\n      tag_506\n        /* \"#utility.yul\":21951:21973   */\n      tag_507\n        /* \"#utility.yul\":21969:21972   */\n      dup6\n        /* \"#utility.yul\":21951:21973   */\n      tag_259\n      jump\t// in\n    tag_507:\n        /* \"#utility.yul\":21941:21949   */\n      dup4\n        /* \"#utility.yul\":21937:21974   */\n      add\n        /* \"#utility.yul\":21924:21935   */\n      dup3\n        /* \"#utility.yul\":21895:21975   */\n      tag_268\n      jump\t// in\n    tag_506:\n        /* \"#utility.yul\":21554:21985   */\n      pop\n      pop\n        /* \"#utility.yul\":21539:21985   */\n    tag_502:\n        /* \"#utility.yul\":21449:21992   */\n      pop\n      pop\n      pop\n      jump\t// out\n        /* \"#utility.yul\":21998:22115   */\n    tag_270:\n        /* \"#utility.yul\":22052:22060   */\n      0x00\n        /* \"#utility.yul\":22102:22107   */\n      dup3\n        /* \"#utility.yul\":22096:22100   */\n      dup3\n        /* \"#utility.yul\":22092:22108   */\n      shr\n        /* \"#utility.yul\":22071:22108   */\n      swap1\n      pop\n        /* \"#utility.yul\":21998:22115   */\n      swap3\n      swap2\n      pop\n      pop\n      jump\t// out\n        /* \"#utility.yul\":22121:22290   */\n    tag_271:\n        /* \"#utility.yul\":22165:22171   */\n      0x00\n        /* \"#utility.yul\":22198:22249   */\n      tag_510\n        /* \"#utility.yul\":22246:22247   */\n      0x00\n        /* \"#utility.yul\":22242:22248   */\n      not\n        /* \"#utility.yul\":22234:22239   */\n      dup5\n        /* \"#utility.yul\":22231:22232   */\n      0x08\n        /* \"#utility.yul\":22227:22240   */\n      mul\n        /* \"#utility.yul\":22198:22249   */\n      tag_270\n      jump\t// in\n    tag_510:\n        /* \"#utility.yul\":22194:22250   */\n      not\n        /* \"#utility.yul\":22279:22283   */\n      dup1\n        /* \"#utility.yul\":22273:22277   */\n      dup4\n        /* \"#utility.yul\":22269:22284   */\n      and\n        /* \"#utility.yul\":22259:22284   */\n      swap2\n      pop\n        /* \"#utility.yul\":22172:22290   */\n      pop\n        /* \"#utility.yul\":22121:22290   */\n      swap3\n      swap2\n      pop\n      pop\n      jump\t// out\n        /* \"#utility.yul\":22295:22590   */\n    tag_272:\n        /* \"#utility.yul\":22371:22375   */\n      0x00\n        /* \"#utility.yul\":22517:22546   */\n      tag_512\n        /* \"#utility.yul\":22542:22545   */\n      dup4\n        /* \"#utility.yul\":22536:22540   */\n      dup4\n        /* \"#utility.yul\":22517:22546   */\n      tag_271\n      jump\t// in\n    tag_512:\n        /* \"#utility.yul\":22509:22546   */\n      swap2\n      pop\n        /* \"#utility.yul\":22579:22582   */\n      dup3\n        /* \"#utility.yul\":22576:22577   */\n      0x02\n        /* \"#utility.yul\":22572:22583   */\n      mul\n        /* \"#utility.yul\":22566:22570   */\n      dup3\n        /* \"#utility.yul\":22563:22584   */\n      or\n        /* \"#utility.yul\":22555:22584   */\n      swap1\n      pop\n        /* \"#utility.yul\":22295:22590   */\n      swap3\n      swap2\n      pop\n      pop\n      jump\t// out\n        /* \"#utility.yul\":22595:23990   */\n    tag_94:\n        /* \"#utility.yul\":22712:22749   */\n      tag_514\n        /* \"#utility.yul\":22745:22748   */\n      dup3\n        /* \"#utility.yul\":22712:22749   */\n      tag_241\n      jump\t// in\n    tag_514:\n        /* \"#utility.yul\":22814:22832   */\n      0xffffffffffffffff\n        /* \"#utility.yul\":22806:22812   */\n      dup2\n        /* \"#utility.yul\":22803:22833   */\n      gt\n        /* \"#utility.yul\":22800:22856   */\n      iszero\n      tag_515\n      jumpi\n        /* \"#utility.yul\":22836:22854   */\n      tag_516\n      tag_106\n      jump\t// in\n    tag_516:\n        /* \"#utility.yul\":22800:22856   */\n    tag_515:\n        /* \"#utility.yul\":22880:22918   */\n      tag_517\n        /* \"#utility.yul\":22912:22916   */\n      dup3\n        /* \"#utility.yul\":22906:22917   */\n      sload\n        /* \"#utility.yul\":22880:22918   */\n      tag_120\n      jump\t// in\n    tag_517:\n        /* \"#utility.yul\":22965:23032   */\n      tag_518\n        /* \"#utility.yul\":23025:23031   */\n      dup3\n        /* \"#utility.yul\":23017:23023   */\n      dup3\n        /* \"#utility.yul\":23011:23015   */\n      dup6\n        /* \"#utility.yul\":22965:23032   */\n      tag_269\n      jump\t// in\n    tag_518:\n        /* \"#utility.yul\":23059:23060   */\n      0x00\n        /* \"#utility.yul\":23083:23087   */\n      0x20\n        /* \"#utility.yul\":23070:23087   */\n      swap1\n      pop\n        /* \"#utility.yul\":23115:23117   */\n      0x1f\n        /* \"#utility.yul\":23107:23113   */\n      dup4\n        /* \"#utility.yul\":23104:23118   */\n      gt\n        /* \"#utility.yul\":23132:23133   */\n      0x01\n        /* \"#utility.yul\":23127:23745   */\n      dup2\n      eq\n      tag_520\n      jumpi\n        /* \"#utility.yul\":23789:23790   */\n      0x00\n        /* \"#utility.yul\":23806:23812   */\n      dup5\n        /* \"#utility.yul\":23803:23880   */\n      iszero\n      tag_521\n      jumpi\n        /* \"#utility.yul\":23855:23864   */\n      dup3\n        /* \"#utility.yul\":23850:23853   */\n      dup8\n        /* \"#utility.yul\":23846:23865   */\n      add\n        /* \"#utility.yul\":23840:23866   */\n      mload\n        /* \"#utility.yul\":23831:23866   */\n      swap1\n      pop\n        /* \"#utility.yul\":23803:23880   */\n    tag_521:\n        /* \"#utility.yul\":23906:23973   */\n      tag_522\n        /* \"#utility.yul\":23966:23972   */\n      dup6\n        /* \"#utility.yul\":23959:23964   */\n      dup3\n        /* \"#utility.yul\":23906:23973   */\n      tag_272\n      jump\t// in\n    tag_522:\n        /* \"#utility.yul\":23900:23904   */\n      dup7\n        /* \"#utility.yul\":23893:23974   */\n      sstore\n        /* \"#utility.yul\":23762:23984   */\n      pop\n        /* \"#utility.yul\":23097:23984   */\n      jump(tag_519)\n        /* \"#utility.yul\":23127:23745   */\n    tag_520:\n        /* \"#utility.yul\":23179:23183   */\n      0x1f\n        /* \"#utility.yul\":23175:23184   */\n      not\n        /* \"#utility.yul\":23167:23173   */\n      dup5\n        /* \"#utility.yul\":23163:23185   */\n      and\n        /* \"#utility.yul\":23213:23250   */\n      tag_523\n        /* \"#utility.yul\":23245:23249   */\n      dup7\n        /* \"#utility.yul\":23213:23250   */\n      tag_258\n      jump\t// in\n    tag_523:\n        /* \"#utility.yul\":23272:23273   */\n      0x00\n        /* \"#utility.yul\":23286:23494   */\n    tag_524:\n        /* \"#utility.yul\":23300:23307   */\n      dup3\n        /* \"#utility.yul\":23297:23298   */\n      dup2\n        /* \"#utility.yul\":23294:23308   */\n      lt\n        /* \"#utility.yul\":23286:23494   */\n      iszero\n      tag_526\n      jumpi\n        /* \"#utility.yul\":23379:23388   */\n      dup5\n        /* \"#utility.yul\":23374:23377   */\n      dup10\n        /* \"#utility.yul\":23370:23389   */\n      add\n        /* \"#utility.yul\":23364:23390   */\n      mload\n        /* \"#utility.yul\":23356:23362   */\n      dup3\n        /* \"#utility.yul\":23349:23391   */\n      sstore\n        /* \"#utility.yul\":23430:23431   */\n      0x01\n        /* \"#utility.yul\":23422:23428   */\n      dup3\n        /* \"#utility.yul\":23418:23432   */\n      add\n        /* \"#utility.yul\":23408:23432   */\n      swap2\n      pop\n        /* \"#utility.yul\":23477:23479   */\n      0x20\n        /* \"#utility.yul\":23466:23475   */\n      dup6\n        /* \"#utility.yul\":23462:23480   */\n      add\n        /* \"#utility.yul\":23449:23480   */\n      swap5\n      pop\n        /* \"#utility.yul\":23323:23327   */\n      0x20\n        /* \"#utility.yul\":23320:23321   */\n      dup2\n        /* \"#utility.yul\":23316:23328   */\n      add\n        /* \"#utility.yul\":23311:23328   */\n      swap1\n      pop\n        /* \"#utility.yul\":23286:23494   */\n      jump(tag_524)\n    tag_526:\n        /* \"#utility.yul\":23522:23528   */\n      dup7\n        /* \"#utility.yul\":23513:23520   */\n      dup4\n        /* \"#utility.yul\":23510:23529   */\n      lt\n        /* \"#utility.yul\":23507:23686   */\n      iszero\n      tag_527\n      jumpi\n        /* \"#utility.yul\":23580:23589   */\n      dup5\n        /* \"#utility.yul\":23575:23578   */\n      dup10\n        /* \"#utility.yul\":23571:23590   */\n      add\n        /* \"#utility.yul\":23565:23591   */\n      mload\n        /* \"#utility.yul\":23623:23671   */\n      tag_528\n        /* \"#utility.yul\":23665:23669   */\n      0x1f\n        /* \"#utility.yul\":23657:23663   */\n      dup10\n        /* \"#utility.yul\":23653:23670   */\n      and\n        /* \"#utility.yul\":23642:23651   */\n      dup3\n        /* \"#utility.yul\":23623:23671   */\n      tag_271\n      jump\t// in\n    tag_528:\n        /* \"#utility.yul\":23615:23621   */\n      dup4\n        /* \"#utility.yul\":23608:23672   */\n      sstore\n        /* \"#utility.yul\":23530:23686   */\n      pop\n        /* \"#utility.yul\":23507:23686   */\n    tag_527:\n        /* \"#utility.yul\":23732:23733   */\n      0x01\n        /* \"#utility.yul\":23728:23729   */\n      0x02\n        /* \"#utility.yul\":23720:23726   */\n      dup9\n        /* \"#utility.yul\":23716:23730   */\n      mul\n        /* \"#utility.yul\":23712:23734   */\n      add\n        /* \"#utility.yul\":23706:23710   */\n      dup9\n        /* \"#utility.yul\":23699:23735   */\n      sstore\n        /* \"#utility.yul\":23134:23745   */\n      pop\n      pop\n      pop\n        /* \"#utility.yul\":23097:23984   */\n    tag_519:\n      pop\n        /* \"#utility.yul\":22687:23990   */\n      pop\n      pop\n      pop\n        /* \"#utility.yul\":22595:23990   */\n      pop\n      pop\n      jump\t// out\n        /* \"#utility.yul\":23996:24176   */\n    tag_113:\n        /* \"#utility.yul\":24044:24121   */\n      0x4e487b7100000000000000000000000000000000000000000000000000000000\n        /* \"#utility.yul\":24041:24042   */\n      0x00\n        /* \"#utility.yul\":24034:24122   */\n      mstore\n        /* \"#utility.yul\":24141:24145   */\n      0x32\n        /* \"#utility.yul\":24138:24139   */\n      0x04\n        /* \"#utility.yul\":24131:24146   */\n      mstore\n        /* \"#utility.yul\":24165:24169   */\n      0x24\n        /* \"#utility.yul\":24162:24163   */\n      0x00\n        /* \"#utility.yul\":24155:24170   */\n      revert\n        /* \"#utility.yul\":24182:24415   */\n    tag_115:\n        /* \"#utility.yul\":24221:24224   */\n      0x00\n        /* \"#utility.yul\":24244:24268   */\n      tag_531\n        /* \"#utility.yul\":24262:24267   */\n      dup3\n        /* \"#utility.yul\":24244:24268   */\n      tag_222\n      jump\t// in\n    tag_531:\n        /* \"#utility.yul\":24235:24268   */\n      swap2\n      pop\n        /* \"#utility.yul\":24290:24356   */\n      0xffffffffffffffffffffffffffffffffffffffffffffffffffffffffffffffff\n        /* \"#utility.yul\":24283:24288   */\n      dup3\n        /* \"#utility.yul\":24280:24357   */\n      sub\n        /* \"#utility.yul\":24277:24380   */\n      tag_532\n      jumpi\n        /* \"#utility.yul\":24360:24378   */\n      tag_533\n      tag_256\n      jump\t// in\n    tag_533:\n        /* \"#utility.yul\":24277:24380   */\n    tag_532:\n        /* \"#utility.yul\":24407:24408   */\n      0x01\n        /* \"#utility.yul\":24400:24405   */\n      dup3\n        /* \"#utility.yul\":24396:24409   */\n      add\n        /* \"#utility.yul\":24389:24409   */\n      swap1\n      pop\n        /* \"#utility.yul\":24182:24415   */\n      swap2\n      swap1\n      pop\n      jump\t// out\n        /* \"#utility.yul\":24421:24569   */\n    tag_273:\n        /* \"#utility.yul\":24523:24534   */\n      0x00\n        /* \"#utility.yul\":24560:24563   */\n      dup2\n        /* \"#utility.yul\":24545:24563   */\n      swap1\n      pop\n        /* \"#utility.yul\":24421:24569   */\n      swap3\n      swap2\n      pop\n      pop\n      jump\t// out\n        /* \"#utility.yul\":24575:24965   */\n    tag_274:\n        /* \"#utility.yul\":24681:24684   */\n      0x00\n        /* \"#utility.yul\":24709:24748   */\n      tag_536\n        /* \"#utility.yul\":24742:24747   */\n      dup3\n        /* \"#utility.yul\":24709:24748   */\n      tag_241\n      jump\t// in\n    tag_536:\n        /* \"#utility.yul\":24764:24853   */\n      tag_537\n        /* \"#utility.yul\":24846:24852   */\n      dup2\n        /* \"#utility.yul\":24841:24844   */\n      dup6\n        /* \"#utility.yul\":24764:24853   */\n      tag_273\n      jump\t// in\n    tag_537:\n        /* \"#utility.yul\":24757:24853   */\n      swap4\n      pop\n        /* \"#utility.yul\":24862:24927   */\n      tag_538\n        /* \"#utility.yul\":24920:24926   */\n      dup2\n        /* \"#utility.yul\":24915:24918   */\n      dup6\n        /* \"#utility.yul\":24908:24912   */\n      0x20\n        /* \"#utility.yul\":24901:24906   */\n      dup7\n        /* \"#utility.yul\":24897:24913   */\n      add\n        /* \"#utility.yul\":24862:24927   */\n      tag_243\n      jump\t// in\n    tag_538:\n        /* \"#utility.yul\":24952:24958   */\n      dup1\n        /* \"#utility.yul\":24947:24950   */\n      dup5\n        /* \"#utility.yul\":24943:24959   */\n      add\n        /* \"#utility.yul\":24936:24959   */\n      swap2\n      pop\n        /* \"#utility.yul\":24685:24965   */\n      pop\n        /* \"#utility.yul\":24575:24965   */\n      swap3\n      swap2\n      pop\n      pop\n      jump\t// out\n        /* \"#utility.yul\":24971:25246   */\n    tag_118:\n        /* \"#utility.yul\":25103:25106   */\n      0x00\n        /* \"#utility.yul\":25125:25220   */\n      tag_540\n        /* \"#utility.yul\":25216:25219   */\n      dup3\n        /* \"#utility.yul\":25207:25213   */\n      dup5\n        /* \"#utility.yul\":25125:25220   */\n      tag_274\n      jump\t// in\n    tag_540:\n        /* \"#utility.yul\":25118:25220   */\n      swap2\n      pop\n        /* \"#utility.yul\":25237:25240   */\n      dup2\n        /* \"#utility.yul\":25230:25240   */\n      swap1\n      pop\n        /* \"#utility.yul\":24971:25246   */\n      swap3\n      swap2\n      pop\n      pop\n      jump\t// out\n        /* \"#utility.yul\":25252:25473   */\n    tag_275:\n        /* \"#utility.yul\":25392:25426   */\n      0x6f6e6c79206d61737465722061646d696e2063616e2061646420746865207573\n        /* \"#utility.yul\":25388:25389   */\n      0x00\n        /* \"#utility.yul\":25380:25386   */\n      dup3\n        /* \"#utility.yul\":25376:25390   */\n      add\n        /* \"#utility.yul\":25369:25427   */\n      mstore\n        /* \"#utility.yul\":25461:25465   */\n      0x6572000000000000000000000000000000000000000000000000000000000000\n        /* \"#utility.yul\":25456:25458   */\n      0x20\n        /* \"#utility.yul\":25448:25454   */\n      dup3\n        /* \"#utility.yul\":25444:25459   */\n      add\n        /* \"#utility.yul\":25437:25466   */\n      mstore\n        /* \"#utility.yul\":25252:25473   */\n      pop\n      jump\t// out\n        /* \"#utility.yul\":25479:25845   */\n    tag_276:\n        /* \"#utility.yul\":25621:25624   */\n      0x00\n        /* \"#utility.yul\":25642:25709   */\n      tag_543\n        /* \"#utility.yul\":25706:25708   */\n      0x22\n        /* \"#utility.yul\":25701:25704   */\n      dup4\n        /* \"#utility.yul\":25642:25709   */\n      tag_242\n      jump\t// in\n    tag_543:\n        /* \"#utility.yul\":25635:25709   */\n      swap2\n      pop\n        /* \"#utility.yul\":25718:25811   */\n      tag_544\n        /* \"#utility.yul\":25807:25810   */\n      dup3\n        /* \"#utility.yul\":25718:25811   */\n      tag_275\n      jump\t// in\n    tag_544:\n        /* \"#utility.yul\":25836:25838   */\n      0x40\n        /* \"#utility.yul\":25831:25834   */\n      dup3\n        /* \"#utility.yul\":25827:25839   */\n      add\n        /* \"#utility.yul\":25820:25839   */\n      swap1\n      pop\n        /* \"#utility.yul\":25479:25845   */\n      swap2\n      swap1\n      pop\n      jump\t// out\n        /* \"#utility.yul\":25851:26270   */\n    tag_146:\n        /* \"#utility.yul\":26017:26021   */\n      0x00\n        /* \"#utility.yul\":26055:26057   */\n      0x20\n        /* \"#utility.yul\":26044:26053   */\n      dup3\n        /* \"#utility.yul\":26040:26058   */\n      add\n        /* \"#utility.yul\":26032:26058   */\n      swap1\n      pop\n        /* \"#utility.yul\":26104:26113   */\n      dup2\n        /* \"#utility.yul\":26098:26102   */\n      dup2\n        /* \"#utility.yul\":26094:26114   */\n      sub\n        /* \"#utility.yul\":26090:26091   */\n      0x00\n        /* \"#utility.yul\":26079:26088   */\n      dup4\n        /* \"#utility.yul\":26075:26092   */\n      add\n        /* \"#utility.yul\":26068:26115   */\n      mstore\n        /* \"#utility.yul\":26132:26263   */\n      tag_546\n        /* \"#utility.yul\":26258:26262   */\n      dup2\n        /* \"#utility.yul\":26132:26263   */\n      tag_276\n      jump\t// in\n    tag_546:\n        /* \"#utility.yul\":26124:26263   */\n      swap1\n      pop\n        /* \"#utility.yul\":25851:26270   */\n      swap2\n      swap1\n      pop\n      jump\t// out\n        /* \"#utility.yul\":26276:26444   */\n    tag_277:\n        /* \"#utility.yul\":26416:26436   */\n      0x7573657220646f65736e27742065786973740000000000000000000000000000\n        /* \"#utility.yul\":26412:26413   */\n      0x00\n        /* \"#utility.yul\":26404:26410   */\n      dup3\n        /* \"#utility.yul\":26400:26414   */\n      add\n        /* \"#utility.yul\":26393:26437   */\n      mstore\n        /* \"#utility.yul\":26276:26444   */\n      pop\n      jump\t// out\n        /* \"#utility.yul\":26450:26816   */\n    tag_278:\n        /* \"#utility.yul\":26592:26595   */\n      0x00\n        /* \"#utility.yul\":26613:26680   */\n      tag_549\n        /* \"#utility.yul\":26677:26679   */\n      0x12\n        /* \"#utility.yul\":26672:26675   */\n      dup4\n        /* \"#utility.yul\":26613:26680   */\n      tag_242\n      jump\t// in\n    tag_549:\n        /* \"#utility.yul\":26606:26680   */\n      swap2\n      pop\n        /* \"#utility.yul\":26689:26782   */\n      tag_550\n        /* \"#utility.yul\":26778:26781   */\n      dup3\n        /* \"#utility.yul\":26689:26782   */\n      tag_277\n      jump\t// in\n    tag_550:\n        /* \"#utility.yul\":26807:26809   */\n      0x20\n        /* \"#utility.yul\":26802:26805   */\n      dup3\n        /* \"#utility.yul\":26798:26810   */\n      add\n        /* \"#utility.yul\":26791:26810   */\n      swap1\n      pop\n        /* \"#utility.yul\":26450:26816   */\n      swap2\n      swap1\n      pop\n      jump\t// out\n        /* \"#utility.yul\":26822:27241   */\n    tag_150:\n        /* \"#utility.yul\":26988:26992   */\n      0x00\n        /* \"#utility.yul\":27026:27028   */\n      0x20\n        /* \"#utility.yul\":27015:27024   */\n      dup3\n        /* \"#utility.yul\":27011:27029   */\n      add\n        /* \"#utility.yul\":27003:27029   */\n      swap1\n      pop\n        /* \"#utility.yul\":27075:27084   */\n      dup2\n        /* \"#utility.yul\":27069:27073   */\n      dup2\n        /* \"#utility.yul\":27065:27085   */\n      sub\n        /* \"#utility.yul\":27061:27062   */\n      0x00\n        /* \"#utility.yul\":27050:27059   */\n      dup4\n        /* \"#utility.yul\":27046:27063   */\n      add\n        /* \"#utility.yul\":27039:27086   */\n      mstore\n        /* \"#utility.yul\":27103:27234   */\n      tag_552\n        /* \"#utility.yul\":27229:27233   */\n      dup2\n        /* \"#utility.yul\":27103:27234   */\n      tag_278\n      jump\t// in\n    tag_552:\n        /* \"#utility.yul\":27095:27234   */\n      swap1\n      pop\n        /* \"#utility.yul\":26822:27241   */\n      swap2\n      swap1\n      pop\n      jump\t// out\n        /* \"#utility.yul\":27247:27427   */\n    tag_279:\n        /* \"#utility.yul\":27387:27419   */\n      0x696e636f727265637420757365726e616d65206f722070617373776f72640000\n        /* \"#utility.yul\":27383:27384   */\n      0x00\n        /* \"#utility.yul\":27375:27381   */\n      dup3\n        /* \"#utility.yul\":27371:27385   */\n      add\n        /* \"#utility.yul\":27364:27420   */\n      mstore\n        /* \"#utility.yul\":27247:27427   */\n      pop\n      jump\t// out\n        /* \"#utility.yul\":27433:27799   */\n    tag_280:\n        /* \"#utility.yul\":27575:27578   */\n      0x00\n        /* \"#utility.yul\":27596:27663   */\n      tag_555\n        /* \"#utility.yul\":27660:27662   */\n      0x1e\n        /* \"#utility.yul\":27655:27658   */\n      dup4\n        /* \"#utility.yul\":27596:27663   */\n      tag_242\n      jump\t// in\n    tag_555:\n        /* \"#utility.yul\":27589:27663   */\n      swap2\n      pop\n        /* \"#utility.yul\":27672:27765   */\n      tag_556\n        /* \"#utility.yul\":27761:27764   */\n      dup3\n        /* \"#utility.yul\":27672:27765   */\n      tag_279\n      jump\t// in\n    tag_556:\n        /* \"#utility.yul\":27790:27792   */\n      0x20\n        /* \"#utility.yul\":27785:27788   */\n      dup3\n        /* \"#utility.yul\":27781:27793   */\n      add\n        /* \"#utility.yul\":27774:27793   */\n      swap1\n      pop\n        /* \"#utility.yul\":27433:27799   */\n      swap2\n      swap1\n      pop\n      jump\t// out\n        /* \"#utility.yul\":27805:28224   */\n    tag_174:\n        /* \"#utility.yul\":27971:27975   */\n      0x00\n        /* \"#utility.yul\":28009:28011   */\n      0x20\n        /* \"#utility.yul\":27998:28007   */\n      dup3\n        /* \"#utility.yul\":27994:28012   */\n      add\n        /* \"#utility.yul\":27986:28012   */\n      swap1\n      pop\n        /* \"#utility.yul\":28058:28067   */\n      dup2\n        /* \"#utility.yul\":28052:28056   */\n      dup2\n        /* \"#utility.yul\":28048:28068   */\n      sub\n        /* \"#utility.yul\":28044:28045   */\n      0x00\n        /* \"#utility.yul\":28033:28042   */\n      dup4\n        /* \"#utility.yul\":28029:28046   */\n      add\n        /* \"#utility.yul\":28022:28069   */\n      mstore\n        /* \"#utility.yul\":28086:28217   */\n      tag_558\n        /* \"#utility.yul\":28212:28216   */\n      dup2\n        /* \"#utility.yul\":28086:28217   */\n      tag_280\n      jump\t// in\n    tag_558:\n        /* \"#utility.yul\":28078:28217   */\n      swap1\n      pop\n        /* \"#utility.yul\":27805:28224   */\n      swap2\n      swap1\n      pop\n      jump\t// out\n\n    auxdata: 0xa26469706673582212200856322130084f8700f512488ae4b2dca399c88763a823089a2b8e3aaf1d515464736f6c63430008160033\n}\n",
				"bytecode": {
					"linkReferences": {},
					"object": "60806040525f6005555f600655348015610017575f80fd5b50335f806101000a81548173ffffffffffffffffffffffffffffffffffffffff021916908373ffffffffffffffffffffffffffffffffffffffff16021790555060016005819055506122ea8061006c5f395ff3fe608060405234801561000f575f80fd5b50600436106100f3575f3560e01c806367e1cde011610095578063d0e9381211610064578063d0e93812146102c6578063d9fa9c1a146102f6578063dca2c3e414610326578063e5a43c7c14610356576100f3565b806367e1cde0146102185780636a228aba1461024857806372f305eb14610266578063aff125f614610296576100f3565b80633443105e116100d15780633443105e146101635780633c48aa79146101935780634ed38faf146101c45780636438176c146101fa576100f3565b8063239d6933146100f75780632a68f64e1461012757806331ae450b14610145575b5f80fd5b610111600480360381019061010c91906116a6565b610374565b60405161011e91906117e1565b60405180910390f35b61012f610708565b60405161013c9190611809565b60405180910390f35b61014d61072b565b60405161015a91906118d9565b60405180910390f35b61017d600480360381019061017891906118f9565b61082a565b60405161018a9190611958565b60405180910390f35b6101ad60048036038101906101a89190611971565b61085e565b6040516101bb929190611a0f565b60405180910390f35b6101de60048036038101906101d99190611971565b6108a9565b6040516101f19796959493929190611aff565b60405180910390f35b610202610b51565b60405161020f9190611b99565b60405180910390f35b610232600480360381019061022d9190611971565b610b5a565b60405161023f9190611809565b60405180910390f35b610250610d3d565b60405161025d9190611809565b60405180910390f35b610280600480360381019061027b9190611bb2565b610d64565b60405161028d9190611809565b60405180910390f35b6102b060048036038101906102ab9190611bb2565b610d94565b6040516102bd9190611809565b60405180910390f35b6102e060048036038101906102db9190611bdd565b610dc4565b6040516102ed91906117e1565b60405180910390f35b610310600480360381019061030b9190611971565b610fe2565b60405161031d91906117e1565b60405180910390f35b610340600480360381019061033b9190611971565b611047565b60405161034d9190611809565b60405180910390f35b61035e6112ec565b60405161036b9190611d49565b60405180910390f35b5f8073ffffffffffffffffffffffffffffffffffffffff1660025f8773ffffffffffffffffffffffffffffffffffffffff1673ffffffffffffffffffffffffffffffffffffffff1681526020019081526020015f206004015f9054906101000a900473ffffffffffffffffffffffffffffffffffffffff1673ffffffffffffffffffffffffffffffffffffffff1603610603575f60405180606001604052808681526020018581526020018481525090505f6040518060e001604052808c81526020018b81526020018a81526020018981526020018873ffffffffffffffffffffffffffffffffffffffff1681526020018381526020015f151581525090508660035f60065481526020019081526020015f205f6101000a81548173ffffffffffffffffffffffffffffffffffffffff021916908373ffffffffffffffffffffffffffffffffffffffff160217905550600160065f8282546104d69190611d96565b925050819055508060025f8973ffffffffffffffffffffffffffffffffffffffff1673ffffffffffffffffffffffffffffffffffffffff1681526020019081526020015f205f820151815f01908161052e9190611fc3565b5060208201518160010190816105449190611fc3565b50604082015181600201908161055a9190611fc3565b5060608201518160030190816105709190611fc3565b506080820151816004015f6101000a81548173ffffffffffffffffffffffffffffffffffffffff021916908373ffffffffffffffffffffffffffffffffffffffff16021790555060a0820151816005015f820151815f01556020820151816001015560408201518160020155505060c0820151816008015f6101000a81548160ff02191690831515021790555090505050505b5f60405180604001604052808773ffffffffffffffffffffffffffffffffffffffff1681526020015f600281111561063e5761063d61199c565b5b81525090508060045f8873ffffffffffffffffffffffffffffffffffffffff1673ffffffffffffffffffffffffffffffffffffffff1681526020019081526020015f205f820151815f015f6101000a81548173ffffffffffffffffffffffffffffffffffffffff021916908373ffffffffffffffffffffffffffffffffffffffff1602179055506020820151815f0160146101000a81548160ff021916908360028111156106ef576106ee61199c565b5b0217905550905050600191505098975050505050505050565b5f8054906101000a900473ffffffffffffffffffffffffffffffffffffffff1681565b60605f60055467ffffffffffffffff81111561074a576107496114f5565b5b6040519080825280602002602001820160405280156107785781602001602082028036833780820191505090505b5090505f805b6005548110156108215760015f8281526020019081526020015f205f9054906101000a900473ffffffffffffffffffffffffffffffffffffffff168382815181106107cc576107cb612092565b5b602002602001019073ffffffffffffffffffffffffffffffffffffffff16908173ffffffffffffffffffffffffffffffffffffffff16815250508180610811906120bf565b925050808060010191505061077e565b50819250505090565b5f808260405160200161083d9190612140565b60405160208183030381529060405280519060200120905080915050919050565b6004602052805f5260405f205f91509050805f015f9054906101000a900473ffffffffffffffffffffffffffffffffffffffff1690805f0160149054906101000a900460ff16905082565b6002602052805f5260405f205f91509050805f0180546108c890611df6565b80601f01602080910402602001604051908101604052809291908181526020018280546108f490611df6565b801561093f5780601f106109165761010080835404028352916020019161093f565b820191905f5260205f20905b81548152906001019060200180831161092257829003601f168201915b50505050509080600101805461095490611df6565b80601f016020809104026020016040519081016040528092919081815260200182805461098090611df6565b80156109cb5780601f106109a2576101008083540402835291602001916109cb565b820191905f5260205f20905b8154815290600101906020018083116109ae57829003601f168201915b5050505050908060020180546109e090611df6565b80601f0160208091040260200160405190810160405280929190818152602001828054610a0c90611df6565b8015610a575780601f10610a2e57610100808354040283529160200191610a57565b820191905f5260205f20905b815481529060010190602001808311610a3a57829003601f168201915b505050505090806003018054610a6c90611df6565b80601f0160208091040260200160405190810160405280929190818152602001828054610a9890611df6565b8015610ae35780601f10610aba57610100808354040283529160200191610ae3565b820191905f5260205f20905b815481529060010190602001808311610ac657829003601f168201915b505050505090806004015f9054906101000a900473ffffffffffffffffffffffffffffffffffffffff1690806005016040518060600160405290815f82015481526020016001820154815260200160028201548152505090806008015f9054906101000a900460ff16905087565b5f600554905090565b5f805f9054906101000a900473ffffffffffffffffffffffffffffffffffffffff1673ffffffffffffffffffffffffffffffffffffffff163373ffffffffffffffffffffffffffffffffffffffff161480610c0057505f60025f3373ffffffffffffffffffffffffffffffffffffffff1673ffffffffffffffffffffffffffffffffffffffff1681526020019081526020015f206002018054610bfc90611df6565b9050115b610c3f576040517f08c379a0000000000000000000000000000000000000000000000000000000008152600401610c36906121c6565b60405180910390fd5b5f60025f3373ffffffffffffffffffffffffffffffffffffffff1673ffffffffffffffffffffffffffffffffffffffff1681526020019081526020015f206002018054610c8b90611df6565b905003610ccd576040517f08c379a0000000000000000000000000000000000000000000000000000000008152600401610cc49061222e565b60405180910390fd5b600260045f8473ffffffffffffffffffffffffffffffffffffffff1673ffffffffffffffffffffffffffffffffffffffff1681526020019081526020015f205f0160146101000a81548160ff02191690836002811115610d3057610d2f61199c565b5b0217905550819050919050565b5f805f9054906101000a900473ffffffffffffffffffffffffffffffffffffffff16905090565b6003602052805f5260405f205f915054906101000a900473ffffffffffffffffffffffffffffffffffffffff1681565b6001602052805f5260405f205f915054906101000a900473ffffffffffffffffffffffffffffffffffffffff1681565b5f610dce82610fe2565b15610fd757610ddc8461082a565b610eab60025f8573ffffffffffffffffffffffffffffffffffffffff1673ffffffffffffffffffffffffffffffffffffffff1681526020019081526020015f206002018054610e2a90611df6565b80601f0160208091040260200160405190810160405280929190818152602001828054610e5690611df6565b8015610ea15780601f10610e7857610100808354040283529160200191610ea1565b820191905f5260205f20905b815481529060010190602001808311610e8457829003601f168201915b505050505061082a565b141580610f8e5750610ebc8361082a565b610f8b60025f8573ffffffffffffffffffffffffffffffffffffffff1673ffffffffffffffffffffffffffffffffffffffff1681526020019081526020015f206003018054610f0a90611df6565b80601f0160208091040260200160405190810160405280929190818152602001828054610f3690611df6565b8015610f815780601f10610f5857610100808354040283529160200191610f81565b820191905f5260205f20905b815481529060010190602001808311610f6457829003601f168201915b505050505061082a565b14155b15610fce576040517f08c379a0000000000000000000000000000000000000000000000000000000008152600401610fc590612296565b60405180910390fd5b60019050610fdb565b5f90505b9392505050565b5f60025f8373ffffffffffffffffffffffffffffffffffffffff1673ffffffffffffffffffffffffffffffffffffffff1681526020019081526020015f206008015f9054906101000a900460ff161561103e5760019050611042565b5f90505b919050565b5f805f9054906101000a900473ffffffffffffffffffffffffffffffffffffffff1673ffffffffffffffffffffffffffffffffffffffff163373ffffffffffffffffffffffffffffffffffffffff1614806110ed57505f60025f3373ffffffffffffffffffffffffffffffffffffffff1673ffffffffffffffffffffffffffffffffffffffff1681526020019081526020015f2060020180546110e990611df6565b9050115b61112c576040517f08c379a0000000000000000000000000000000000000000000000000000000008152600401611123906121c6565b60405180910390fd5b5f60025f3373ffffffffffffffffffffffffffffffffffffffff1673ffffffffffffffffffffffffffffffffffffffff1681526020019081526020015f20600201805461117890611df6565b9050036111ba576040517f08c379a00000000000000000000000000000000000000000000000000000000081526004016111b19061222e565b60405180910390fd5b600160025f8473ffffffffffffffffffffffffffffffffffffffff1673ffffffffffffffffffffffffffffffffffffffff1681526020019081526020015f206008015f6101000a81548160ff021916908315150217905550600160045f8473ffffffffffffffffffffffffffffffffffffffff1673ffffffffffffffffffffffffffffffffffffffff1681526020019081526020015f205f0160146101000a81548160ff021916908360028111156112755761127461199c565b5b02179055508160015f60055481526020019081526020015f205f6101000a81548173ffffffffffffffffffffffffffffffffffffffff021916908373ffffffffffffffffffffffffffffffffffffffff160217905550600160055f8282546112dd9190611d96565b92505081905550819050919050565b60605f60065467ffffffffffffffff81111561130b5761130a6114f5565b5b60405190808252806020026020018201604052801561134457816020015b61133161148c565b8152602001906001900390816113295790505b5090505f5b6006548110156114845760045f60035f8481526020019081526020015f205f9054906101000a900473ffffffffffffffffffffffffffffffffffffffff1673ffffffffffffffffffffffffffffffffffffffff1673ffffffffffffffffffffffffffffffffffffffff1681526020019081526020015f206040518060400160405290815f82015f9054906101000a900473ffffffffffffffffffffffffffffffffffffffff1673ffffffffffffffffffffffffffffffffffffffff1673ffffffffffffffffffffffffffffffffffffffff1681526020015f820160149054906101000a900460ff1660028111156114435761144261199c565b5b60028111156114555761145461199c565b5b8152505082828151811061146c5761146b612092565b5b60200260200101819052508080600101915050611349565b508091505090565b60405180604001604052805f73ffffffffffffffffffffffffffffffffffffffff1681526020015f60028111156114c6576114c561199c565b5b81525090565b5f604051905090565b5f80fd5b5f80fd5b5f80fd5b5f80fd5b5f601f19601f8301169050919050565b7f4e487b71000000000000000000000000000000000000000000000000000000005f52604160045260245ffd5b61152b826114e5565b810181811067ffffffffffffffff8211171561154a576115496114f5565b5b80604052505050565b5f61155c6114cc565b90506115688282611522565b919050565b5f67ffffffffffffffff821115611587576115866114f5565b5b611590826114e5565b9050602081019050919050565b828183375f83830152505050565b5f6115bd6115b88461156d565b611553565b9050828152602081018484840111156115d9576115d86114e1565b5b6115e484828561159d565b509392505050565b5f82601f830112611600576115ff6114dd565b5b81356116108482602086016115ab565b91505092915050565b5f73ffffffffffffffffffffffffffffffffffffffff82169050919050565b5f61164282611619565b9050919050565b61165281611638565b811461165c575f80fd5b50565b5f8135905061166d81611649565b92915050565b5f819050919050565b61168581611673565b811461168f575f80fd5b50565b5f813590506116a08161167c565b92915050565b5f805f805f805f80610100898b0312156116c3576116c26114d5565b5b5f89013567ffffffffffffffff8111156116e0576116df6114d9565b5b6116ec8b828c016115ec565b985050602089013567ffffffffffffffff81111561170d5761170c6114d9565b5b6117198b828c016115ec565b975050604089013567ffffffffffffffff81111561173a576117396114d9565b5b6117468b828c016115ec565b965050606089013567ffffffffffffffff811115611767576117666114d9565b5b6117738b828c016115ec565b95505060806117848b828c0161165f565b94505060a06117958b828c01611692565b93505060c06117a68b828c01611692565b92505060e06117b78b828c01611692565b9150509295985092959890939650565b5f8115159050919050565b6117db816117c7565b82525050565b5f6020820190506117f45f8301846117d2565b92915050565b61180381611638565b82525050565b5f60208201905061181c5f8301846117fa565b92915050565b5f81519050919050565b5f82825260208201905092915050565b5f819050602082019050919050565b61185481611638565b82525050565b5f611865838361184b565b60208301905092915050565b5f602082019050919050565b5f61188782611822565b611891818561182c565b935061189c8361183c565b805f5b838110156118cc5781516118b3888261185a565b97506118be83611871565b92505060018101905061189f565b5085935050505092915050565b5f6020820190508181035f8301526118f1818461187d565b905092915050565b5f6020828403121561190e5761190d6114d5565b5b5f82013567ffffffffffffffff81111561192b5761192a6114d9565b5b611937848285016115ec565b91505092915050565b5f819050919050565b61195281611940565b82525050565b5f60208201905061196b5f830184611949565b92915050565b5f60208284031215611986576119856114d5565b5b5f6119938482850161165f565b91505092915050565b7f4e487b71000000000000000000000000000000000000000000000000000000005f52602160045260245ffd5b600381106119da576119d961199c565b5b50565b5f8190506119ea826119c9565b919050565b5f6119f9826119dd565b9050919050565b611a09816119ef565b82525050565b5f604082019050611a225f8301856117fa565b611a2f6020830184611a00565b9392505050565b5f81519050919050565b5f82825260208201905092915050565b5f5b83811015611a6d578082015181840152602081019050611a52565b5f8484015250505050565b5f611a8282611a36565b611a8c8185611a40565b9350611a9c818560208601611a50565b611aa5816114e5565b840191505092915050565b611ab981611673565b82525050565b606082015f820151611ad35f850182611ab0565b506020820151611ae66020850182611ab0565b506040820151611af96040850182611ab0565b50505050565b5f610120820190508181035f830152611b18818a611a78565b90508181036020830152611b2c8189611a78565b90508181036040830152611b408188611a78565b90508181036060830152611b548187611a78565b9050611b6360808301866117fa565b611b7060a0830185611abf565b611b7e6101008301846117d2565b98975050505050505050565b611b9381611673565b82525050565b5f602082019050611bac5f830184611b8a565b92915050565b5f60208284031215611bc757611bc66114d5565b5b5f611bd484828501611692565b91505092915050565b5f805f60608486031215611bf457611bf36114d5565b5b5f84013567ffffffffffffffff811115611c1157611c106114d9565b5b611c1d868287016115ec565b935050602084013567ffffffffffffffff811115611c3e57611c3d6114d9565b5b611c4a868287016115ec565b9250506040611c5b8682870161165f565b9150509250925092565b5f81519050919050565b5f82825260208201905092915050565b5f819050602082019050919050565b611c97816119ef565b82525050565b604082015f820151611cb15f85018261184b565b506020820151611cc46020850182611c8e565b50505050565b5f611cd58383611c9d565b60408301905092915050565b5f602082019050919050565b5f611cf782611c65565b611d018185611c6f565b9350611d0c83611c7f565b805f5b83811015611d3c578151611d238882611cca565b9750611d2e83611ce1565b925050600181019050611d0f565b5085935050505092915050565b5f6020820190508181035f830152611d618184611ced565b905092915050565b7f4e487b71000000000000000000000000000000000000000000000000000000005f52601160045260245ffd5b5f611da082611673565b9150611dab83611673565b9250828201905080821115611dc357611dc2611d69565b5b92915050565b7f4e487b71000000000000000000000000000000000000000000000000000000005f52602260045260245ffd5b5f6002820490506001821680611e0d57607f821691505b602082108103611e2057611e1f611dc9565b5b50919050565b5f819050815f5260205f209050919050565b5f6020601f8301049050919050565b5f82821b905092915050565b5f60088302611e827fffffffffffffffffffffffffffffffffffffffffffffffffffffffffffffffff82611e47565b611e8c8683611e47565b95508019841693508086168417925050509392505050565b5f819050919050565b5f611ec7611ec2611ebd84611673565b611ea4565b611673565b9050919050565b5f819050919050565b611ee083611ead565b611ef4611eec82611ece565b848454611e53565b825550505050565b5f90565b611f08611efc565b611f13818484611ed7565b505050565b5b81811015611f3657611f2b5f82611f00565b600181019050611f19565b5050565b601f821115611f7b57611f4c81611e26565b611f5584611e38565b81016020851015611f64578190505b611f78611f7085611e38565b830182611f18565b50505b505050565b5f82821c905092915050565b5f611f9b5f1984600802611f80565b1980831691505092915050565b5f611fb38383611f8c565b9150826002028217905092915050565b611fcc82611a36565b67ffffffffffffffff811115611fe557611fe46114f5565b5b611fef8254611df6565b611ffa828285611f3a565b5f60209050601f83116001811461202b575f8415612019578287015190505b6120238582611fa8565b86555061208a565b601f19841661203986611e26565b5f5b828110156120605784890151825560018201915060208501945060208101905061203b565b8683101561207d5784890151612079601f891682611f8c565b8355505b6001600288020188555050505b505050505050565b7f4e487b71000000000000000000000000000000000000000000000000000000005f52603260045260245ffd5b5f6120c982611673565b91507fffffffffffffffffffffffffffffffffffffffffffffffffffffffffffffffff82036120fb576120fa611d69565b5b600182019050919050565b5f81905092915050565b5f61211a82611a36565b6121248185612106565b9350612134818560208601611a50565b80840191505092915050565b5f61214b8284612110565b915081905092915050565b7f6f6e6c79206d61737465722061646d696e2063616e20616464207468652075735f8201527f6572000000000000000000000000000000000000000000000000000000000000602082015250565b5f6121b0602283611a40565b91506121bb82612156565b604082019050919050565b5f6020820190508181035f8301526121dd816121a4565b9050919050565b7f7573657220646f65736e277420657869737400000000000000000000000000005f82015250565b5f612218601283611a40565b9150612223826121e4565b602082019050919050565b5f6020820190508181035f8301526122458161220c565b9050919050565b7f696e636f727265637420757365726e616d65206f722070617373776f726400005f82015250565b5f612280601e83611a40565b915061228b8261224c565b602082019050919050565b5f6020820190508181035f8301526122ad81612274565b905091905056fea26469706673582212200856322130084f8700f512488ae4b2dca399c88763a823089a2b8e3aaf1d515464736f6c63430008160033",
					"opcodes": "PUSH1 0x80 PUSH1 0x40 MSTORE PUSH0 PUSH1 0x5 SSTORE PUSH0 PUSH1 0x6 SSTORE CALLVALUE DUP1 ISZERO PUSH2 0x17 JUMPI PUSH0 DUP1 REVERT JUMPDEST POP CALLER PUSH0 DUP1 PUSH2 0x100 EXP DUP2 SLOAD DUP2 PUSH20 0xFFFFFFFFFFFFFFFFFFFFFFFFFFFFFFFFFFFFFFFF MUL NOT AND SWAP1 DUP4 PUSH20 0xFFFFFFFFFFFFFFFFFFFFFFFFFFFFFFFFFFFFFFFF AND MUL OR SWAP1 SSTORE POP PUSH1 0x1 PUSH1 0x5 DUP2 SWAP1 SSTORE POP PUSH2 0x22EA DUP1 PUSH2 0x6C PUSH0 CODECOPY PUSH0 RETURN INVALID PUSH1 0x80 PUSH1 0x40 MSTORE CALLVALUE DUP1 ISZERO PUSH2 0xF JUMPI PUSH0 DUP1 REVERT JUMPDEST POP PUSH1 0x4 CALLDATASIZE LT PUSH2 0xF3 JUMPI PUSH0 CALLDATALOAD PUSH1 0xE0 SHR DUP1 PUSH4 0x67E1CDE0 GT PUSH2 0x95 JUMPI DUP1 PUSH4 0xD0E93812 GT PUSH2 0x64 JUMPI DUP1 PUSH4 0xD0E93812 EQ PUSH2 0x2C6 JUMPI DUP1 PUSH4 0xD9FA9C1A EQ PUSH2 0x2F6 JUMPI DUP1 PUSH4 0xDCA2C3E4 EQ PUSH2 0x326 JUMPI DUP1 PUSH4 0xE5A43C7C EQ PUSH2 0x356 JUMPI PUSH2 0xF3 JUMP JUMPDEST DUP1 PUSH4 0x67E1CDE0 EQ PUSH2 0x218 JUMPI DUP1 PUSH4 0x6A228ABA EQ PUSH2 0x248 JUMPI DUP1 PUSH4 0x72F305EB EQ PUSH2 0x266 JUMPI DUP1 PUSH4 0xAFF125F6 EQ PUSH2 0x296 JUMPI PUSH2 0xF3 JUMP JUMPDEST DUP1 PUSH4 0x3443105E GT PUSH2 0xD1 JUMPI DUP1 PUSH4 0x3443105E EQ PUSH2 0x163 JUMPI DUP1 PUSH4 0x3C48AA79 EQ PUSH2 0x193 JUMPI DUP1 PUSH4 0x4ED38FAF EQ PUSH2 0x1C4 JUMPI DUP1 PUSH4 0x6438176C EQ PUSH2 0x1FA JUMPI PUSH2 0xF3 JUMP JUMPDEST DUP1 PUSH4 0x239D6933 EQ PUSH2 0xF7 JUMPI DUP1 PUSH4 0x2A68F64E EQ PUSH2 0x127 JUMPI DUP1 PUSH4 0x31AE450B EQ PUSH2 0x145 JUMPI JUMPDEST PUSH0 DUP1 REVERT JUMPDEST PUSH2 0x111 PUSH1 0x4 DUP1 CALLDATASIZE SUB DUP2 ADD SWAP1 PUSH2 0x10C SWAP2 SWAP1 PUSH2 0x16A6 JUMP JUMPDEST PUSH2 0x374 JUMP JUMPDEST PUSH1 0x40 MLOAD PUSH2 0x11E SWAP2 SWAP1 PUSH2 0x17E1 JUMP JUMPDEST PUSH1 0x40 MLOAD DUP1 SWAP2 SUB SWAP1 RETURN JUMPDEST PUSH2 0x12F PUSH2 0x708 JUMP JUMPDEST PUSH1 0x40 MLOAD PUSH2 0x13C SWAP2 SWAP1 PUSH2 0x1809 JUMP JUMPDEST PUSH1 0x40 MLOAD DUP1 SWAP2 SUB SWAP1 RETURN JUMPDEST PUSH2 0x14D PUSH2 0x72B JUMP JUMPDEST PUSH1 0x40 MLOAD PUSH2 0x15A SWAP2 SWAP1 PUSH2 0x18D9 JUMP JUMPDEST PUSH1 0x40 MLOAD DUP1 SWAP2 SUB SWAP1 RETURN JUMPDEST PUSH2 0x17D PUSH1 0x4 DUP1 CALLDATASIZE SUB DUP2 ADD SWAP1 PUSH2 0x178 SWAP2 SWAP1 PUSH2 0x18F9 JUMP JUMPDEST PUSH2 0x82A JUMP JUMPDEST PUSH1 0x40 MLOAD PUSH2 0x18A SWAP2 SWAP1 PUSH2 0x1958 JUMP JUMPDEST PUSH1 0x40 MLOAD DUP1 SWAP2 SUB SWAP1 RETURN JUMPDEST PUSH2 0x1AD PUSH1 0x4 DUP1 CALLDATASIZE SUB DUP2 ADD SWAP1 PUSH2 0x1A8 SWAP2 SWAP1 PUSH2 0x1971 JUMP JUMPDEST PUSH2 0x85E JUMP JUMPDEST PUSH1 0x40 MLOAD PUSH2 0x1BB SWAP3 SWAP2 SWAP1 PUSH2 0x1A0F JUMP JUMPDEST PUSH1 0x40 MLOAD DUP1 SWAP2 SUB SWAP1 RETURN JUMPDEST PUSH2 0x1DE PUSH1 0x4 DUP1 CALLDATASIZE SUB DUP2 ADD SWAP1 PUSH2 0x1D9 SWAP2 SWAP1 PUSH2 0x1971 JUMP JUMPDEST PUSH2 0x8A9 JUMP JUMPDEST PUSH1 0x40 MLOAD PUSH2 0x1F1 SWAP8 SWAP7 SWAP6 SWAP5 SWAP4 SWAP3 SWAP2 SWAP1 PUSH2 0x1AFF JUMP JUMPDEST PUSH1 0x40 MLOAD DUP1 SWAP2 SUB SWAP1 RETURN JUMPDEST PUSH2 0x202 PUSH2 0xB51 JUMP JUMPDEST PUSH1 0x40 MLOAD PUSH2 0x20F SWAP2 SWAP1 PUSH2 0x1B99 JUMP JUMPDEST PUSH1 0x40 MLOAD DUP1 SWAP2 SUB SWAP1 RETURN JUMPDEST PUSH2 0x232 PUSH1 0x4 DUP1 CALLDATASIZE SUB DUP2 ADD SWAP1 PUSH2 0x22D SWAP2 SWAP1 PUSH2 0x1971 JUMP JUMPDEST PUSH2 0xB5A JUMP JUMPDEST PUSH1 0x40 MLOAD PUSH2 0x23F SWAP2 SWAP1 PUSH2 0x1809 JUMP JUMPDEST PUSH1 0x40 MLOAD DUP1 SWAP2 SUB SWAP1 RETURN JUMPDEST PUSH2 0x250 PUSH2 0xD3D JUMP JUMPDEST PUSH1 0x40 MLOAD PUSH2 0x25D SWAP2 SWAP1 PUSH2 0x1809 JUMP JUMPDEST PUSH1 0x40 MLOAD DUP1 SWAP2 SUB SWAP1 RETURN JUMPDEST PUSH2 0x280 PUSH1 0x4 DUP1 CALLDATASIZE SUB DUP2 ADD SWAP1 PUSH2 0x27B SWAP2 SWAP1 PUSH2 0x1BB2 JUMP JUMPDEST PUSH2 0xD64 JUMP JUMPDEST PUSH1 0x40 MLOAD PUSH2 0x28D SWAP2 SWAP1 PUSH2 0x1809 JUMP JUMPDEST PUSH1 0x40 MLOAD DUP1 SWAP2 SUB SWAP1 RETURN JUMPDEST PUSH2 0x2B0 PUSH1 0x4 DUP1 CALLDATASIZE SUB DUP2 ADD SWAP1 PUSH2 0x2AB SWAP2 SWAP1 PUSH2 0x1BB2 JUMP JUMPDEST PUSH2 0xD94 JUMP JUMPDEST PUSH1 0x40 MLOAD PUSH2 0x2BD SWAP2 SWAP1 PUSH2 0x1809 JUMP JUMPDEST PUSH1 0x40 MLOAD DUP1 SWAP2 SUB SWAP1 RETURN JUMPDEST PUSH2 0x2E0 PUSH1 0x4 DUP1 CALLDATASIZE SUB DUP2 ADD SWAP1 PUSH2 0x2DB SWAP2 SWAP1 PUSH2 0x1BDD JUMP JUMPDEST PUSH2 0xDC4 JUMP JUMPDEST PUSH1 0x40 MLOAD PUSH2 0x2ED SWAP2 SWAP1 PUSH2 0x17E1 JUMP JUMPDEST PUSH1 0x40 MLOAD DUP1 SWAP2 SUB SWAP1 RETURN JUMPDEST PUSH2 0x310 PUSH1 0x4 DUP1 CALLDATASIZE SUB DUP2 ADD SWAP1 PUSH2 0x30B SWAP2 SWAP1 PUSH2 0x1971 JUMP JUMPDEST PUSH2 0xFE2 JUMP JUMPDEST PUSH1 0x40 MLOAD PUSH2 0x31D SWAP2 SWAP1 PUSH2 0x17E1 JUMP JUMPDEST PUSH1 0x40 MLOAD DUP1 SWAP2 SUB SWAP1 RETURN JUMPDEST PUSH2 0x340 PUSH1 0x4 DUP1 CALLDATASIZE SUB DUP2 ADD SWAP1 PUSH2 0x33B SWAP2 SWAP1 PUSH2 0x1971 JUMP JUMPDEST PUSH2 0x1047 JUMP JUMPDEST PUSH1 0x40 MLOAD PUSH2 0x34D SWAP2 SWAP1 PUSH2 0x1809 JUMP JUMPDEST PUSH1 0x40 MLOAD DUP1 SWAP2 SUB SWAP1 RETURN JUMPDEST PUSH2 0x35E PUSH2 0x12EC JUMP JUMPDEST PUSH1 0x40 MLOAD PUSH2 0x36B SWAP2 SWAP1 PUSH2 0x1D49 JUMP JUMPDEST PUSH1 0x40 MLOAD DUP1 SWAP2 SUB SWAP1 RETURN JUMPDEST PUSH0 DUP1 PUSH20 0xFFFFFFFFFFFFFFFFFFFFFFFFFFFFFFFFFFFFFFFF AND PUSH1 0x2 PUSH0 DUP8 PUSH20 0xFFFFFFFFFFFFFFFFFFFFFFFFFFFFFFFFFFFFFFFF AND PUSH20 0xFFFFFFFFFFFFFFFFFFFFFFFFFFFFFFFFFFFFFFFF AND DUP2 MSTORE PUSH1 0x20 ADD SWAP1 DUP2 MSTORE PUSH1 0x20 ADD PUSH0 KECCAK256 PUSH1 0x4 ADD PUSH0 SWAP1 SLOAD SWAP1 PUSH2 0x100 EXP SWAP1 DIV PUSH20 0xFFFFFFFFFFFFFFFFFFFFFFFFFFFFFFFFFFFFFFFF AND PUSH20 0xFFFFFFFFFFFFFFFFFFFFFFFFFFFFFFFFFFFFFFFF AND SUB PUSH2 0x603 JUMPI PUSH0 PUSH1 0x40 MLOAD DUP1 PUSH1 0x60 ADD PUSH1 0x40 MSTORE DUP1 DUP7 DUP2 MSTORE PUSH1 0x20 ADD DUP6 DUP2 MSTORE PUSH1 0x20 ADD DUP5 DUP2 MSTORE POP SWAP1 POP PUSH0 PUSH1 0x40 MLOAD DUP1 PUSH1 0xE0 ADD PUSH1 0x40 MSTORE DUP1 DUP13 DUP2 MSTORE PUSH1 0x20 ADD DUP12 DUP2 MSTORE PUSH1 0x20 ADD DUP11 DUP2 MSTORE PUSH1 0x20 ADD DUP10 DUP2 MSTORE PUSH1 0x20 ADD DUP9 PUSH20 0xFFFFFFFFFFFFFFFFFFFFFFFFFFFFFFFFFFFFFFFF AND DUP2 MSTORE PUSH1 0x20 ADD DUP4 DUP2 MSTORE PUSH1 0x20 ADD PUSH0 ISZERO ISZERO DUP2 MSTORE POP SWAP1 POP DUP7 PUSH1 0x3 PUSH0 PUSH1 0x6 SLOAD DUP2 MSTORE PUSH1 0x20 ADD SWAP1 DUP2 MSTORE PUSH1 0x20 ADD PUSH0 KECCAK256 PUSH0 PUSH2 0x100 EXP DUP2 SLOAD DUP2 PUSH20 0xFFFFFFFFFFFFFFFFFFFFFFFFFFFFFFFFFFFFFFFF MUL NOT AND SWAP1 DUP4 PUSH20 0xFFFFFFFFFFFFFFFFFFFFFFFFFFFFFFFFFFFFFFFF AND MUL OR SWAP1 SSTORE POP PUSH1 0x1 PUSH1 0x6 PUSH0 DUP3 DUP3 SLOAD PUSH2 0x4D6 SWAP2 SWAP1 PUSH2 0x1D96 JUMP JUMPDEST SWAP3 POP POP DUP2 SWAP1 SSTORE POP DUP1 PUSH1 0x2 PUSH0 DUP10 PUSH20 0xFFFFFFFFFFFFFFFFFFFFFFFFFFFFFFFFFFFFFFFF AND PUSH20 0xFFFFFFFFFFFFFFFFFFFFFFFFFFFFFFFFFFFFFFFF AND DUP2 MSTORE PUSH1 0x20 ADD SWAP1 DUP2 MSTORE PUSH1 0x20 ADD PUSH0 KECCAK256 PUSH0 DUP3 ADD MLOAD DUP2 PUSH0 ADD SWAP1 DUP2 PUSH2 0x52E SWAP2 SWAP1 PUSH2 0x1FC3 JUMP JUMPDEST POP PUSH1 0x20 DUP3 ADD MLOAD DUP2 PUSH1 0x1 ADD SWAP1 DUP2 PUSH2 0x544 SWAP2 SWAP1 PUSH2 0x1FC3 JUMP JUMPDEST POP PUSH1 0x40 DUP3 ADD MLOAD DUP2 PUSH1 0x2 ADD SWAP1 DUP2 PUSH2 0x55A SWAP2 SWAP1 PUSH2 0x1FC3 JUMP JUMPDEST POP PUSH1 0x60 DUP3 ADD MLOAD DUP2 PUSH1 0x3 ADD SWAP1 DUP2 PUSH2 0x570 SWAP2 SWAP1 PUSH2 0x1FC3 JUMP JUMPDEST POP PUSH1 0x80 DUP3 ADD MLOAD DUP2 PUSH1 0x4 ADD PUSH0 PUSH2 0x100 EXP DUP2 SLOAD DUP2 PUSH20 0xFFFFFFFFFFFFFFFFFFFFFFFFFFFFFFFFFFFFFFFF MUL NOT AND SWAP1 DUP4 PUSH20 0xFFFFFFFFFFFFFFFFFFFFFFFFFFFFFFFFFFFFFFFF AND MUL OR SWAP1 SSTORE POP PUSH1 0xA0 DUP3 ADD MLOAD DUP2 PUSH1 0x5 ADD PUSH0 DUP3 ADD MLOAD DUP2 PUSH0 ADD SSTORE PUSH1 0x20 DUP3 ADD MLOAD DUP2 PUSH1 0x1 ADD SSTORE PUSH1 0x40 DUP3 ADD MLOAD DUP2 PUSH1 0x2 ADD SSTORE POP POP PUSH1 0xC0 DUP3 ADD MLOAD DUP2 PUSH1 0x8 ADD PUSH0 PUSH2 0x100 EXP DUP2 SLOAD DUP2 PUSH1 0xFF MUL NOT AND SWAP1 DUP4 ISZERO ISZERO MUL OR SWAP1 SSTORE POP SWAP1 POP POP POP POP JUMPDEST PUSH0 PUSH1 0x40 MLOAD DUP1 PUSH1 0x40 ADD PUSH1 0x40 MSTORE DUP1 DUP8 PUSH20 0xFFFFFFFFFFFFFFFFFFFFFFFFFFFFFFFFFFFFFFFF AND DUP2 MSTORE PUSH1 0x20 ADD PUSH0 PUSH1 0x2 DUP2 GT ISZERO PUSH2 0x63E JUMPI PUSH2 0x63D PUSH2 0x199C JUMP JUMPDEST JUMPDEST DUP2 MSTORE POP SWAP1 POP DUP1 PUSH1 0x4 PUSH0 DUP9 PUSH20 0xFFFFFFFFFFFFFFFFFFFFFFFFFFFFFFFFFFFFFFFF AND PUSH20 0xFFFFFFFFFFFFFFFFFFFFFFFFFFFFFFFFFFFFFFFF AND DUP2 MSTORE PUSH1 0x20 ADD SWAP1 DUP2 MSTORE PUSH1 0x20 ADD PUSH0 KECCAK256 PUSH0 DUP3 ADD MLOAD DUP2 PUSH0 ADD PUSH0 PUSH2 0x100 EXP DUP2 SLOAD DUP2 PUSH20 0xFFFFFFFFFFFFFFFFFFFFFFFFFFFFFFFFFFFFFFFF MUL NOT AND SWAP1 DUP4 PUSH20 0xFFFFFFFFFFFFFFFFFFFFFFFFFFFFFFFFFFFFFFFF AND MUL OR SWAP1 SSTORE POP PUSH1 0x20 DUP3 ADD MLOAD DUP2 PUSH0 ADD PUSH1 0x14 PUSH2 0x100 EXP DUP2 SLOAD DUP2 PUSH1 0xFF MUL NOT AND SWAP1 DUP4 PUSH1 0x2 DUP2 GT ISZERO PUSH2 0x6EF JUMPI PUSH2 0x6EE PUSH2 0x199C JUMP JUMPDEST JUMPDEST MUL OR SWAP1 SSTORE POP SWAP1 POP POP PUSH1 0x1 SWAP2 POP POP SWAP9 SWAP8 POP POP POP POP POP POP POP POP JUMP JUMPDEST PUSH0 DUP1 SLOAD SWAP1 PUSH2 0x100 EXP SWAP1 DIV PUSH20 0xFFFFFFFFFFFFFFFFFFFFFFFFFFFFFFFFFFFFFFFF AND DUP2 JUMP JUMPDEST PUSH1 0x60 PUSH0 PUSH1 0x5 SLOAD PUSH8 0xFFFFFFFFFFFFFFFF DUP2 GT ISZERO PUSH2 0x74A JUMPI PUSH2 0x749 PUSH2 0x14F5 JUMP JUMPDEST JUMPDEST PUSH1 0x40 MLOAD SWAP1 DUP1 DUP3 MSTORE DUP1 PUSH1 0x20 MUL PUSH1 0x20 ADD DUP3 ADD PUSH1 0x40 MSTORE DUP1 ISZERO PUSH2 0x778 JUMPI DUP2 PUSH1 0x20 ADD PUSH1 0x20 DUP3 MUL DUP1 CALLDATASIZE DUP4 CALLDATACOPY DUP1 DUP3 ADD SWAP2 POP POP SWAP1 POP JUMPDEST POP SWAP1 POP PUSH0 DUP1 JUMPDEST PUSH1 0x5 SLOAD DUP2 LT ISZERO PUSH2 0x821 JUMPI PUSH1 0x1 PUSH0 DUP3 DUP2 MSTORE PUSH1 0x20 ADD SWAP1 DUP2 MSTORE PUSH1 0x20 ADD PUSH0 KECCAK256 PUSH0 SWAP1 SLOAD SWAP1 PUSH2 0x100 EXP SWAP1 DIV PUSH20 0xFFFFFFFFFFFFFFFFFFFFFFFFFFFFFFFFFFFFFFFF AND DUP4 DUP3 DUP2 MLOAD DUP2 LT PUSH2 0x7CC JUMPI PUSH2 0x7CB PUSH2 0x2092 JUMP JUMPDEST JUMPDEST PUSH1 0x20 MUL PUSH1 0x20 ADD ADD SWAP1 PUSH20 0xFFFFFFFFFFFFFFFFFFFFFFFFFFFFFFFFFFFFFFFF AND SWAP1 DUP2 PUSH20 0xFFFFFFFFFFFFFFFFFFFFFFFFFFFFFFFFFFFFFFFF AND DUP2 MSTORE POP POP DUP2 DUP1 PUSH2 0x811 SWAP1 PUSH2 0x20BF JUMP JUMPDEST SWAP3 POP POP DUP1 DUP1 PUSH1 0x1 ADD SWAP2 POP POP PUSH2 0x77E JUMP JUMPDEST POP DUP2 SWAP3 POP POP POP SWAP1 JUMP JUMPDEST PUSH0 DUP1 DUP3 PUSH1 0x40 MLOAD PUSH1 0x20 ADD PUSH2 0x83D SWAP2 SWAP1 PUSH2 0x2140 JUMP JUMPDEST PUSH1 0x40 MLOAD PUSH1 0x20 DUP2 DUP4 SUB SUB DUP2 MSTORE SWAP1 PUSH1 0x40 MSTORE DUP1 MLOAD SWAP1 PUSH1 0x20 ADD KECCAK256 SWAP1 POP DUP1 SWAP2 POP POP SWAP2 SWAP1 POP JUMP JUMPDEST PUSH1 0x4 PUSH1 0x20 MSTORE DUP1 PUSH0 MSTORE PUSH1 0x40 PUSH0 KECCAK256 PUSH0 SWAP2 POP SWAP1 POP DUP1 PUSH0 ADD PUSH0 SWAP1 SLOAD SWAP1 PUSH2 0x100 EXP SWAP1 DIV PUSH20 0xFFFFFFFFFFFFFFFFFFFFFFFFFFFFFFFFFFFFFFFF AND SWAP1 DUP1 PUSH0 ADD PUSH1 0x14 SWAP1 SLOAD SWAP1 PUSH2 0x100 EXP SWAP1 DIV PUSH1 0xFF AND SWAP1 POP DUP3 JUMP JUMPDEST PUSH1 0x2 PUSH1 0x20 MSTORE DUP1 PUSH0 MSTORE PUSH1 0x40 PUSH0 KECCAK256 PUSH0 SWAP2 POP SWAP1 POP DUP1 PUSH0 ADD DUP1 SLOAD PUSH2 0x8C8 SWAP1 PUSH2 0x1DF6 JUMP JUMPDEST DUP1 PUSH1 0x1F ADD PUSH1 0x20 DUP1 SWAP2 DIV MUL PUSH1 0x20 ADD PUSH1 0x40 MLOAD SWAP1 DUP2 ADD PUSH1 0x40 MSTORE DUP1 SWAP3 SWAP2 SWAP1 DUP2 DUP2 MSTORE PUSH1 0x20 ADD DUP3 DUP1 SLOAD PUSH2 0x8F4 SWAP1 PUSH2 0x1DF6 JUMP JUMPDEST DUP1 ISZERO PUSH2 0x93F JUMPI DUP1 PUSH1 0x1F LT PUSH2 0x916 JUMPI PUSH2 0x100 DUP1 DUP4 SLOAD DIV MUL DUP4 MSTORE SWAP2 PUSH1 0x20 ADD SWAP2 PUSH2 0x93F JUMP JUMPDEST DUP3 ADD SWAP2 SWAP1 PUSH0 MSTORE PUSH1 0x20 PUSH0 KECCAK256 SWAP1 JUMPDEST DUP2 SLOAD DUP2 MSTORE SWAP1 PUSH1 0x1 ADD SWAP1 PUSH1 0x20 ADD DUP1 DUP4 GT PUSH2 0x922 JUMPI DUP3 SWAP1 SUB PUSH1 0x1F AND DUP3 ADD SWAP2 JUMPDEST POP POP POP POP POP SWAP1 DUP1 PUSH1 0x1 ADD DUP1 SLOAD PUSH2 0x954 SWAP1 PUSH2 0x1DF6 JUMP JUMPDEST DUP1 PUSH1 0x1F ADD PUSH1 0x20 DUP1 SWAP2 DIV MUL PUSH1 0x20 ADD PUSH1 0x40 MLOAD SWAP1 DUP2 ADD PUSH1 0x40 MSTORE DUP1 SWAP3 SWAP2 SWAP1 DUP2 DUP2 MSTORE PUSH1 0x20 ADD DUP3 DUP1 SLOAD PUSH2 0x980 SWAP1 PUSH2 0x1DF6 JUMP JUMPDEST DUP1 ISZERO PUSH2 0x9CB JUMPI DUP1 PUSH1 0x1F LT PUSH2 0x9A2 JUMPI PUSH2 0x100 DUP1 DUP4 SLOAD DIV MUL DUP4 MSTORE SWAP2 PUSH1 0x20 ADD SWAP2 PUSH2 0x9CB JUMP JUMPDEST DUP3 ADD SWAP2 SWAP1 PUSH0 MSTORE PUSH1 0x20 PUSH0 KECCAK256 SWAP1 JUMPDEST DUP2 SLOAD DUP2 MSTORE SWAP1 PUSH1 0x1 ADD SWAP1 PUSH1 0x20 ADD DUP1 DUP4 GT PUSH2 0x9AE JUMPI DUP3 SWAP1 SUB PUSH1 0x1F AND DUP3 ADD SWAP2 JUMPDEST POP POP POP POP POP SWAP1 DUP1 PUSH1 0x2 ADD DUP1 SLOAD PUSH2 0x9E0 SWAP1 PUSH2 0x1DF6 JUMP JUMPDEST DUP1 PUSH1 0x1F ADD PUSH1 0x20 DUP1 SWAP2 DIV MUL PUSH1 0x20 ADD PUSH1 0x40 MLOAD SWAP1 DUP2 ADD PUSH1 0x40 MSTORE DUP1 SWAP3 SWAP2 SWAP1 DUP2 DUP2 MSTORE PUSH1 0x20 ADD DUP3 DUP1 SLOAD PUSH2 0xA0C SWAP1 PUSH2 0x1DF6 JUMP JUMPDEST DUP1 ISZERO PUSH2 0xA57 JUMPI DUP1 PUSH1 0x1F LT PUSH2 0xA2E JUMPI PUSH2 0x100 DUP1 DUP4 SLOAD DIV MUL DUP4 MSTORE SWAP2 PUSH1 0x20 ADD SWAP2 PUSH2 0xA57 JUMP JUMPDEST DUP3 ADD SWAP2 SWAP1 PUSH0 MSTORE PUSH1 0x20 PUSH0 KECCAK256 SWAP1 JUMPDEST DUP2 SLOAD DUP2 MSTORE SWAP1 PUSH1 0x1 ADD SWAP1 PUSH1 0x20 ADD DUP1 DUP4 GT PUSH2 0xA3A JUMPI DUP3 SWAP1 SUB PUSH1 0x1F AND DUP3 ADD SWAP2 JUMPDEST POP POP POP POP POP SWAP1 DUP1 PUSH1 0x3 ADD DUP1 SLOAD PUSH2 0xA6C SWAP1 PUSH2 0x1DF6 JUMP JUMPDEST DUP1 PUSH1 0x1F ADD PUSH1 0x20 DUP1 SWAP2 DIV MUL PUSH1 0x20 ADD PUSH1 0x40 MLOAD SWAP1 DUP2 ADD PUSH1 0x40 MSTORE DUP1 SWAP3 SWAP2 SWAP1 DUP2 DUP2 MSTORE PUSH1 0x20 ADD DUP3 DUP1 SLOAD PUSH2 0xA98 SWAP1 PUSH2 0x1DF6 JUMP JUMPDEST DUP1 ISZERO PUSH2 0xAE3 JUMPI DUP1 PUSH1 0x1F LT PUSH2 0xABA JUMPI PUSH2 0x100 DUP1 DUP4 SLOAD DIV MUL DUP4 MSTORE SWAP2 PUSH1 0x20 ADD SWAP2 PUSH2 0xAE3 JUMP JUMPDEST DUP3 ADD SWAP2 SWAP1 PUSH0 MSTORE PUSH1 0x20 PUSH0 KECCAK256 SWAP1 JUMPDEST DUP2 SLOAD DUP2 MSTORE SWAP1 PUSH1 0x1 ADD SWAP1 PUSH1 0x20 ADD DUP1 DUP4 GT PUSH2 0xAC6 JUMPI DUP3 SWAP1 SUB PUSH1 0x1F AND DUP3 ADD SWAP2 JUMPDEST POP POP POP POP POP SWAP1 DUP1 PUSH1 0x4 ADD PUSH0 SWAP1 SLOAD SWAP1 PUSH2 0x100 EXP SWAP1 DIV PUSH20 0xFFFFFFFFFFFFFFFFFFFFFFFFFFFFFFFFFFFFFFFF AND SWAP1 DUP1 PUSH1 0x5 ADD PUSH1 0x40 MLOAD DUP1 PUSH1 0x60 ADD PUSH1 0x40 MSTORE SWAP1 DUP2 PUSH0 DUP3 ADD SLOAD DUP2 MSTORE PUSH1 0x20 ADD PUSH1 0x1 DUP3 ADD SLOAD DUP2 MSTORE PUSH1 0x20 ADD PUSH1 0x2 DUP3 ADD SLOAD DUP2 MSTORE POP POP SWAP1 DUP1 PUSH1 0x8 ADD PUSH0 SWAP1 SLOAD SWAP1 PUSH2 0x100 EXP SWAP1 DIV PUSH1 0xFF AND SWAP1 POP DUP8 JUMP JUMPDEST PUSH0 PUSH1 0x5 SLOAD SWAP1 POP SWAP1 JUMP JUMPDEST PUSH0 DUP1 PUSH0 SWAP1 SLOAD SWAP1 PUSH2 0x100 EXP SWAP1 DIV PUSH20 0xFFFFFFFFFFFFFFFFFFFFFFFFFFFFFFFFFFFFFFFF AND PUSH20 0xFFFFFFFFFFFFFFFFFFFFFFFFFFFFFFFFFFFFFFFF AND CALLER PUSH20 0xFFFFFFFFFFFFFFFFFFFFFFFFFFFFFFFFFFFFFFFF AND EQ DUP1 PUSH2 0xC00 JUMPI POP PUSH0 PUSH1 0x2 PUSH0 CALLER PUSH20 0xFFFFFFFFFFFFFFFFFFFFFFFFFFFFFFFFFFFFFFFF AND PUSH20 0xFFFFFFFFFFFFFFFFFFFFFFFFFFFFFFFFFFFFFFFF AND DUP2 MSTORE PUSH1 0x20 ADD SWAP1 DUP2 MSTORE PUSH1 0x20 ADD PUSH0 KECCAK256 PUSH1 0x2 ADD DUP1 SLOAD PUSH2 0xBFC SWAP1 PUSH2 0x1DF6 JUMP JUMPDEST SWAP1 POP GT JUMPDEST PUSH2 0xC3F JUMPI PUSH1 0x40 MLOAD PUSH32 0x8C379A000000000000000000000000000000000000000000000000000000000 DUP2 MSTORE PUSH1 0x4 ADD PUSH2 0xC36 SWAP1 PUSH2 0x21C6 JUMP JUMPDEST PUSH1 0x40 MLOAD DUP1 SWAP2 SUB SWAP1 REVERT JUMPDEST PUSH0 PUSH1 0x2 PUSH0 CALLER PUSH20 0xFFFFFFFFFFFFFFFFFFFFFFFFFFFFFFFFFFFFFFFF AND PUSH20 0xFFFFFFFFFFFFFFFFFFFFFFFFFFFFFFFFFFFFFFFF AND DUP2 MSTORE PUSH1 0x20 ADD SWAP1 DUP2 MSTORE PUSH1 0x20 ADD PUSH0 KECCAK256 PUSH1 0x2 ADD DUP1 SLOAD PUSH2 0xC8B SWAP1 PUSH2 0x1DF6 JUMP JUMPDEST SWAP1 POP SUB PUSH2 0xCCD JUMPI PUSH1 0x40 MLOAD PUSH32 0x8C379A000000000000000000000000000000000000000000000000000000000 DUP2 MSTORE PUSH1 0x4 ADD PUSH2 0xCC4 SWAP1 PUSH2 0x222E JUMP JUMPDEST PUSH1 0x40 MLOAD DUP1 SWAP2 SUB SWAP1 REVERT JUMPDEST PUSH1 0x2 PUSH1 0x4 PUSH0 DUP5 PUSH20 0xFFFFFFFFFFFFFFFFFFFFFFFFFFFFFFFFFFFFFFFF AND PUSH20 0xFFFFFFFFFFFFFFFFFFFFFFFFFFFFFFFFFFFFFFFF AND DUP2 MSTORE PUSH1 0x20 ADD SWAP1 DUP2 MSTORE PUSH1 0x20 ADD PUSH0 KECCAK256 PUSH0 ADD PUSH1 0x14 PUSH2 0x100 EXP DUP2 SLOAD DUP2 PUSH1 0xFF MUL NOT AND SWAP1 DUP4 PUSH1 0x2 DUP2 GT ISZERO PUSH2 0xD30 JUMPI PUSH2 0xD2F PUSH2 0x199C JUMP JUMPDEST JUMPDEST MUL OR SWAP1 SSTORE POP DUP2 SWAP1 POP SWAP2 SWAP1 POP JUMP JUMPDEST PUSH0 DUP1 PUSH0 SWAP1 SLOAD SWAP1 PUSH2 0x100 EXP SWAP1 DIV PUSH20 0xFFFFFFFFFFFFFFFFFFFFFFFFFFFFFFFFFFFFFFFF AND SWAP1 POP SWAP1 JUMP JUMPDEST PUSH1 0x3 PUSH1 0x20 MSTORE DUP1 PUSH0 MSTORE PUSH1 0x40 PUSH0 KECCAK256 PUSH0 SWAP2 POP SLOAD SWAP1 PUSH2 0x100 EXP SWAP1 DIV PUSH20 0xFFFFFFFFFFFFFFFFFFFFFFFFFFFFFFFFFFFFFFFF AND DUP2 JUMP JUMPDEST PUSH1 0x1 PUSH1 0x20 MSTORE DUP1 PUSH0 MSTORE PUSH1 0x40 PUSH0 KECCAK256 PUSH0 SWAP2 POP SLOAD SWAP1 PUSH2 0x100 EXP SWAP1 DIV PUSH20 0xFFFFFFFFFFFFFFFFFFFFFFFFFFFFFFFFFFFFFFFF AND DUP2 JUMP JUMPDEST PUSH0 PUSH2 0xDCE DUP3 PUSH2 0xFE2 JUMP JUMPDEST ISZERO PUSH2 0xFD7 JUMPI PUSH2 0xDDC DUP5 PUSH2 0x82A JUMP JUMPDEST PUSH2 0xEAB PUSH1 0x2 PUSH0 DUP6 PUSH20 0xFFFFFFFFFFFFFFFFFFFFFFFFFFFFFFFFFFFFFFFF AND PUSH20 0xFFFFFFFFFFFFFFFFFFFFFFFFFFFFFFFFFFFFFFFF AND DUP2 MSTORE PUSH1 0x20 ADD SWAP1 DUP2 MSTORE PUSH1 0x20 ADD PUSH0 KECCAK256 PUSH1 0x2 ADD DUP1 SLOAD PUSH2 0xE2A SWAP1 PUSH2 0x1DF6 JUMP JUMPDEST DUP1 PUSH1 0x1F ADD PUSH1 0x20 DUP1 SWAP2 DIV MUL PUSH1 0x20 ADD PUSH1 0x40 MLOAD SWAP1 DUP2 ADD PUSH1 0x40 MSTORE DUP1 SWAP3 SWAP2 SWAP1 DUP2 DUP2 MSTORE PUSH1 0x20 ADD DUP3 DUP1 SLOAD PUSH2 0xE56 SWAP1 PUSH2 0x1DF6 JUMP JUMPDEST DUP1 ISZERO PUSH2 0xEA1 JUMPI DUP1 PUSH1 0x1F LT PUSH2 0xE78 JUMPI PUSH2 0x100 DUP1 DUP4 SLOAD DIV MUL DUP4 MSTORE SWAP2 PUSH1 0x20 ADD SWAP2 PUSH2 0xEA1 JUMP JUMPDEST DUP3 ADD SWAP2 SWAP1 PUSH0 MSTORE PUSH1 0x20 PUSH0 KECCAK256 SWAP1 JUMPDEST DUP2 SLOAD DUP2 MSTORE SWAP1 PUSH1 0x1 ADD SWAP1 PUSH1 0x20 ADD DUP1 DUP4 GT PUSH2 0xE84 JUMPI DUP3 SWAP1 SUB PUSH1 0x1F AND DUP3 ADD SWAP2 JUMPDEST POP POP POP POP POP PUSH2 0x82A JUMP JUMPDEST EQ ISZERO DUP1 PUSH2 0xF8E JUMPI POP PUSH2 0xEBC DUP4 PUSH2 0x82A JUMP JUMPDEST PUSH2 0xF8B PUSH1 0x2 PUSH0 DUP6 PUSH20 0xFFFFFFFFFFFFFFFFFFFFFFFFFFFFFFFFFFFFFFFF AND PUSH20 0xFFFFFFFFFFFFFFFFFFFFFFFFFFFFFFFFFFFFFFFF AND DUP2 MSTORE PUSH1 0x20 ADD SWAP1 DUP2 MSTORE PUSH1 0x20 ADD PUSH0 KECCAK256 PUSH1 0x3 ADD DUP1 SLOAD PUSH2 0xF0A SWAP1 PUSH2 0x1DF6 JUMP JUMPDEST DUP1 PUSH1 0x1F ADD PUSH1 0x20 DUP1 SWAP2 DIV MUL PUSH1 0x20 ADD PUSH1 0x40 MLOAD SWAP1 DUP2 ADD PUSH1 0x40 MSTORE DUP1 SWAP3 SWAP2 SWAP1 DUP2 DUP2 MSTORE PUSH1 0x20 ADD DUP3 DUP1 SLOAD PUSH2 0xF36 SWAP1 PUSH2 0x1DF6 JUMP JUMPDEST DUP1 ISZERO PUSH2 0xF81 JUMPI DUP1 PUSH1 0x1F LT PUSH2 0xF58 JUMPI PUSH2 0x100 DUP1 DUP4 SLOAD DIV MUL DUP4 MSTORE SWAP2 PUSH1 0x20 ADD SWAP2 PUSH2 0xF81 JUMP JUMPDEST DUP3 ADD SWAP2 SWAP1 PUSH0 MSTORE PUSH1 0x20 PUSH0 KECCAK256 SWAP1 JUMPDEST DUP2 SLOAD DUP2 MSTORE SWAP1 PUSH1 0x1 ADD SWAP1 PUSH1 0x20 ADD DUP1 DUP4 GT PUSH2 0xF64 JUMPI DUP3 SWAP1 SUB PUSH1 0x1F AND DUP3 ADD SWAP2 JUMPDEST POP POP POP POP POP PUSH2 0x82A JUMP JUMPDEST EQ ISZERO JUMPDEST ISZERO PUSH2 0xFCE JUMPI PUSH1 0x40 MLOAD PUSH32 0x8C379A000000000000000000000000000000000000000000000000000000000 DUP2 MSTORE PUSH1 0x4 ADD PUSH2 0xFC5 SWAP1 PUSH2 0x2296 JUMP JUMPDEST PUSH1 0x40 MLOAD DUP1 SWAP2 SUB SWAP1 REVERT JUMPDEST PUSH1 0x1 SWAP1 POP PUSH2 0xFDB JUMP JUMPDEST PUSH0 SWAP1 POP JUMPDEST SWAP4 SWAP3 POP POP POP JUMP JUMPDEST PUSH0 PUSH1 0x2 PUSH0 DUP4 PUSH20 0xFFFFFFFFFFFFFFFFFFFFFFFFFFFFFFFFFFFFFFFF AND PUSH20 0xFFFFFFFFFFFFFFFFFFFFFFFFFFFFFFFFFFFFFFFF AND DUP2 MSTORE PUSH1 0x20 ADD SWAP1 DUP2 MSTORE PUSH1 0x20 ADD PUSH0 KECCAK256 PUSH1 0x8 ADD PUSH0 SWAP1 SLOAD SWAP1 PUSH2 0x100 EXP SWAP1 DIV PUSH1 0xFF AND ISZERO PUSH2 0x103E JUMPI PUSH1 0x1 SWAP1 POP PUSH2 0x1042 JUMP JUMPDEST PUSH0 SWAP1 POP JUMPDEST SWAP2 SWAP1 POP JUMP JUMPDEST PUSH0 DUP1 PUSH0 SWAP1 SLOAD SWAP1 PUSH2 0x100 EXP SWAP1 DIV PUSH20 0xFFFFFFFFFFFFFFFFFFFFFFFFFFFFFFFFFFFFFFFF AND PUSH20 0xFFFFFFFFFFFFFFFFFFFFFFFFFFFFFFFFFFFFFFFF AND CALLER PUSH20 0xFFFFFFFFFFFFFFFFFFFFFFFFFFFFFFFFFFFFFFFF AND EQ DUP1 PUSH2 0x10ED JUMPI POP PUSH0 PUSH1 0x2 PUSH0 CALLER PUSH20 0xFFFFFFFFFFFFFFFFFFFFFFFFFFFFFFFFFFFFFFFF AND PUSH20 0xFFFFFFFFFFFFFFFFFFFFFFFFFFFFFFFFFFFFFFFF AND DUP2 MSTORE PUSH1 0x20 ADD SWAP1 DUP2 MSTORE PUSH1 0x20 ADD PUSH0 KECCAK256 PUSH1 0x2 ADD DUP1 SLOAD PUSH2 0x10E9 SWAP1 PUSH2 0x1DF6 JUMP JUMPDEST SWAP1 POP GT JUMPDEST PUSH2 0x112C JUMPI PUSH1 0x40 MLOAD PUSH32 0x8C379A000000000000000000000000000000000000000000000000000000000 DUP2 MSTORE PUSH1 0x4 ADD PUSH2 0x1123 SWAP1 PUSH2 0x21C6 JUMP JUMPDEST PUSH1 0x40 MLOAD DUP1 SWAP2 SUB SWAP1 REVERT JUMPDEST PUSH0 PUSH1 0x2 PUSH0 CALLER PUSH20 0xFFFFFFFFFFFFFFFFFFFFFFFFFFFFFFFFFFFFFFFF AND PUSH20 0xFFFFFFFFFFFFFFFFFFFFFFFFFFFFFFFFFFFFFFFF AND DUP2 MSTORE PUSH1 0x20 ADD SWAP1 DUP2 MSTORE PUSH1 0x20 ADD PUSH0 KECCAK256 PUSH1 0x2 ADD DUP1 SLOAD PUSH2 0x1178 SWAP1 PUSH2 0x1DF6 JUMP JUMPDEST SWAP1 POP SUB PUSH2 0x11BA JUMPI PUSH1 0x40 MLOAD PUSH32 0x8C379A000000000000000000000000000000000000000000000000000000000 DUP2 MSTORE PUSH1 0x4 ADD PUSH2 0x11B1 SWAP1 PUSH2 0x222E JUMP JUMPDEST PUSH1 0x40 MLOAD DUP1 SWAP2 SUB SWAP1 REVERT JUMPDEST PUSH1 0x1 PUSH1 0x2 PUSH0 DUP5 PUSH20 0xFFFFFFFFFFFFFFFFFFFFFFFFFFFFFFFFFFFFFFFF AND PUSH20 0xFFFFFFFFFFFFFFFFFFFFFFFFFFFFFFFFFFFFFFFF AND DUP2 MSTORE PUSH1 0x20 ADD SWAP1 DUP2 MSTORE PUSH1 0x20 ADD PUSH0 KECCAK256 PUSH1 0x8 ADD PUSH0 PUSH2 0x100 EXP DUP2 SLOAD DUP2 PUSH1 0xFF MUL NOT AND SWAP1 DUP4 ISZERO ISZERO MUL OR SWAP1 SSTORE POP PUSH1 0x1 PUSH1 0x4 PUSH0 DUP5 PUSH20 0xFFFFFFFFFFFFFFFFFFFFFFFFFFFFFFFFFFFFFFFF AND PUSH20 0xFFFFFFFFFFFFFFFFFFFFFFFFFFFFFFFFFFFFFFFF AND DUP2 MSTORE PUSH1 0x20 ADD SWAP1 DUP2 MSTORE PUSH1 0x20 ADD PUSH0 KECCAK256 PUSH0 ADD PUSH1 0x14 PUSH2 0x100 EXP DUP2 SLOAD DUP2 PUSH1 0xFF MUL NOT AND SWAP1 DUP4 PUSH1 0x2 DUP2 GT ISZERO PUSH2 0x1275 JUMPI PUSH2 0x1274 PUSH2 0x199C JUMP JUMPDEST JUMPDEST MUL OR SWAP1 SSTORE POP DUP2 PUSH1 0x1 PUSH0 PUSH1 0x5 SLOAD DUP2 MSTORE PUSH1 0x20 ADD SWAP1 DUP2 MSTORE PUSH1 0x20 ADD PUSH0 KECCAK256 PUSH0 PUSH2 0x100 EXP DUP2 SLOAD DUP2 PUSH20 0xFFFFFFFFFFFFFFFFFFFFFFFFFFFFFFFFFFFFFFFF MUL NOT AND SWAP1 DUP4 PUSH20 0xFFFFFFFFFFFFFFFFFFFFFFFFFFFFFFFFFFFFFFFF AND MUL OR SWAP1 SSTORE POP PUSH1 0x1 PUSH1 0x5 PUSH0 DUP3 DUP3 SLOAD PUSH2 0x12DD SWAP2 SWAP1 PUSH2 0x1D96 JUMP JUMPDEST SWAP3 POP POP DUP2 SWAP1 SSTORE POP DUP2 SWAP1 POP SWAP2 SWAP1 POP JUMP JUMPDEST PUSH1 0x60 PUSH0 PUSH1 0x6 SLOAD PUSH8 0xFFFFFFFFFFFFFFFF DUP2 GT ISZERO PUSH2 0x130B JUMPI PUSH2 0x130A PUSH2 0x14F5 JUMP JUMPDEST JUMPDEST PUSH1 0x40 MLOAD SWAP1 DUP1 DUP3 MSTORE DUP1 PUSH1 0x20 MUL PUSH1 0x20 ADD DUP3 ADD PUSH1 0x40 MSTORE DUP1 ISZERO PUSH2 0x1344 JUMPI DUP2 PUSH1 0x20 ADD JUMPDEST PUSH2 0x1331 PUSH2 0x148C JUMP JUMPDEST DUP2 MSTORE PUSH1 0x20 ADD SWAP1 PUSH1 0x1 SWAP1 SUB SWAP1 DUP2 PUSH2 0x1329 JUMPI SWAP1 POP JUMPDEST POP SWAP1 POP PUSH0 JUMPDEST PUSH1 0x6 SLOAD DUP2 LT ISZERO PUSH2 0x1484 JUMPI PUSH1 0x4 PUSH0 PUSH1 0x3 PUSH0 DUP5 DUP2 MSTORE PUSH1 0x20 ADD SWAP1 DUP2 MSTORE PUSH1 0x20 ADD PUSH0 KECCAK256 PUSH0 SWAP1 SLOAD SWAP1 PUSH2 0x100 EXP SWAP1 DIV PUSH20 0xFFFFFFFFFFFFFFFFFFFFFFFFFFFFFFFFFFFFFFFF AND PUSH20 0xFFFFFFFFFFFFFFFFFFFFFFFFFFFFFFFFFFFFFFFF AND PUSH20 0xFFFFFFFFFFFFFFFFFFFFFFFFFFFFFFFFFFFFFFFF AND DUP2 MSTORE PUSH1 0x20 ADD SWAP1 DUP2 MSTORE PUSH1 0x20 ADD PUSH0 KECCAK256 PUSH1 0x40 MLOAD DUP1 PUSH1 0x40 ADD PUSH1 0x40 MSTORE SWAP1 DUP2 PUSH0 DUP3 ADD PUSH0 SWAP1 SLOAD SWAP1 PUSH2 0x100 EXP SWAP1 DIV PUSH20 0xFFFFFFFFFFFFFFFFFFFFFFFFFFFFFFFFFFFFFFFF AND PUSH20 0xFFFFFFFFFFFFFFFFFFFFFFFFFFFFFFFFFFFFFFFF AND PUSH20 0xFFFFFFFFFFFFFFFFFFFFFFFFFFFFFFFFFFFFFFFF AND DUP2 MSTORE PUSH1 0x20 ADD PUSH0 DUP3 ADD PUSH1 0x14 SWAP1 SLOAD SWAP1 PUSH2 0x100 EXP SWAP1 DIV PUSH1 0xFF AND PUSH1 0x2 DUP2 GT ISZERO PUSH2 0x1443 JUMPI PUSH2 0x1442 PUSH2 0x199C JUMP JUMPDEST JUMPDEST PUSH1 0x2 DUP2 GT ISZERO PUSH2 0x1455 JUMPI PUSH2 0x1454 PUSH2 0x199C JUMP JUMPDEST JUMPDEST DUP2 MSTORE POP POP DUP3 DUP3 DUP2 MLOAD DUP2 LT PUSH2 0x146C JUMPI PUSH2 0x146B PUSH2 0x2092 JUMP JUMPDEST JUMPDEST PUSH1 0x20 MUL PUSH1 0x20 ADD ADD DUP2 SWAP1 MSTORE POP DUP1 DUP1 PUSH1 0x1 ADD SWAP2 POP POP PUSH2 0x1349 JUMP JUMPDEST POP DUP1 SWAP2 POP POP SWAP1 JUMP JUMPDEST PUSH1 0x40 MLOAD DUP1 PUSH1 0x40 ADD PUSH1 0x40 MSTORE DUP1 PUSH0 PUSH20 0xFFFFFFFFFFFFFFFFFFFFFFFFFFFFFFFFFFFFFFFF AND DUP2 MSTORE PUSH1 0x20 ADD PUSH0 PUSH1 0x2 DUP2 GT ISZERO PUSH2 0x14C6 JUMPI PUSH2 0x14C5 PUSH2 0x199C JUMP JUMPDEST JUMPDEST DUP2 MSTORE POP SWAP1 JUMP JUMPDEST PUSH0 PUSH1 0x40 MLOAD SWAP1 POP SWAP1 JUMP JUMPDEST PUSH0 DUP1 REVERT JUMPDEST PUSH0 DUP1 REVERT JUMPDEST PUSH0 DUP1 REVERT JUMPDEST PUSH0 DUP1 REVERT JUMPDEST PUSH0 PUSH1 0x1F NOT PUSH1 0x1F DUP4 ADD AND SWAP1 POP SWAP2 SWAP1 POP JUMP JUMPDEST PUSH32 0x4E487B7100000000000000000000000000000000000000000000000000000000 PUSH0 MSTORE PUSH1 0x41 PUSH1 0x4 MSTORE PUSH1 0x24 PUSH0 REVERT JUMPDEST PUSH2 0x152B DUP3 PUSH2 0x14E5 JUMP JUMPDEST DUP2 ADD DUP2 DUP2 LT PUSH8 0xFFFFFFFFFFFFFFFF DUP3 GT OR ISZERO PUSH2 0x154A JUMPI PUSH2 0x1549 PUSH2 0x14F5 JUMP JUMPDEST JUMPDEST DUP1 PUSH1 0x40 MSTORE POP POP POP JUMP JUMPDEST PUSH0 PUSH2 0x155C PUSH2 0x14CC JUMP JUMPDEST SWAP1 POP PUSH2 0x1568 DUP3 DUP3 PUSH2 0x1522 JUMP JUMPDEST SWAP2 SWAP1 POP JUMP JUMPDEST PUSH0 PUSH8 0xFFFFFFFFFFFFFFFF DUP3 GT ISZERO PUSH2 0x1587 JUMPI PUSH2 0x1586 PUSH2 0x14F5 JUMP JUMPDEST JUMPDEST PUSH2 0x1590 DUP3 PUSH2 0x14E5 JUMP JUMPDEST SWAP1 POP PUSH1 0x20 DUP2 ADD SWAP1 POP SWAP2 SWAP1 POP JUMP JUMPDEST DUP3 DUP2 DUP4 CALLDATACOPY PUSH0 DUP4 DUP4 ADD MSTORE POP POP POP JUMP JUMPDEST PUSH0 PUSH2 0x15BD PUSH2 0x15B8 DUP5 PUSH2 0x156D JUMP JUMPDEST PUSH2 0x1553 JUMP JUMPDEST SWAP1 POP DUP3 DUP2 MSTORE PUSH1 0x20 DUP2 ADD DUP5 DUP5 DUP5 ADD GT ISZERO PUSH2 0x15D9 JUMPI PUSH2 0x15D8 PUSH2 0x14E1 JUMP JUMPDEST JUMPDEST PUSH2 0x15E4 DUP5 DUP3 DUP6 PUSH2 0x159D JUMP JUMPDEST POP SWAP4 SWAP3 POP POP POP JUMP JUMPDEST PUSH0 DUP3 PUSH1 0x1F DUP4 ADD SLT PUSH2 0x1600 JUMPI PUSH2 0x15FF PUSH2 0x14DD JUMP JUMPDEST JUMPDEST DUP2 CALLDATALOAD PUSH2 0x1610 DUP5 DUP3 PUSH1 0x20 DUP7 ADD PUSH2 0x15AB JUMP JUMPDEST SWAP2 POP POP SWAP3 SWAP2 POP POP JUMP JUMPDEST PUSH0 PUSH20 0xFFFFFFFFFFFFFFFFFFFFFFFFFFFFFFFFFFFFFFFF DUP3 AND SWAP1 POP SWAP2 SWAP1 POP JUMP JUMPDEST PUSH0 PUSH2 0x1642 DUP3 PUSH2 0x1619 JUMP JUMPDEST SWAP1 POP SWAP2 SWAP1 POP JUMP JUMPDEST PUSH2 0x1652 DUP2 PUSH2 0x1638 JUMP JUMPDEST DUP2 EQ PUSH2 0x165C JUMPI PUSH0 DUP1 REVERT JUMPDEST POP JUMP JUMPDEST PUSH0 DUP2 CALLDATALOAD SWAP1 POP PUSH2 0x166D DUP2 PUSH2 0x1649 JUMP JUMPDEST SWAP3 SWAP2 POP POP JUMP JUMPDEST PUSH0 DUP2 SWAP1 POP SWAP2 SWAP1 POP JUMP JUMPDEST PUSH2 0x1685 DUP2 PUSH2 0x1673 JUMP JUMPDEST DUP2 EQ PUSH2 0x168F JUMPI PUSH0 DUP1 REVERT JUMPDEST POP JUMP JUMPDEST PUSH0 DUP2 CALLDATALOAD SWAP1 POP PUSH2 0x16A0 DUP2 PUSH2 0x167C JUMP JUMPDEST SWAP3 SWAP2 POP POP JUMP JUMPDEST PUSH0 DUP1 PUSH0 DUP1 PUSH0 DUP1 PUSH0 DUP1 PUSH2 0x100 DUP10 DUP12 SUB SLT ISZERO PUSH2 0x16C3 JUMPI PUSH2 0x16C2 PUSH2 0x14D5 JUMP JUMPDEST JUMPDEST PUSH0 DUP10 ADD CALLDATALOAD PUSH8 0xFFFFFFFFFFFFFFFF DUP2 GT ISZERO PUSH2 0x16E0 JUMPI PUSH2 0x16DF PUSH2 0x14D9 JUMP JUMPDEST JUMPDEST PUSH2 0x16EC DUP12 DUP3 DUP13 ADD PUSH2 0x15EC JUMP JUMPDEST SWAP9 POP POP PUSH1 0x20 DUP10 ADD CALLDATALOAD PUSH8 0xFFFFFFFFFFFFFFFF DUP2 GT ISZERO PUSH2 0x170D JUMPI PUSH2 0x170C PUSH2 0x14D9 JUMP JUMPDEST JUMPDEST PUSH2 0x1719 DUP12 DUP3 DUP13 ADD PUSH2 0x15EC JUMP JUMPDEST SWAP8 POP POP PUSH1 0x40 DUP10 ADD CALLDATALOAD PUSH8 0xFFFFFFFFFFFFFFFF DUP2 GT ISZERO PUSH2 0x173A JUMPI PUSH2 0x1739 PUSH2 0x14D9 JUMP JUMPDEST JUMPDEST PUSH2 0x1746 DUP12 DUP3 DUP13 ADD PUSH2 0x15EC JUMP JUMPDEST SWAP7 POP POP PUSH1 0x60 DUP10 ADD CALLDATALOAD PUSH8 0xFFFFFFFFFFFFFFFF DUP2 GT ISZERO PUSH2 0x1767 JUMPI PUSH2 0x1766 PUSH2 0x14D9 JUMP JUMPDEST JUMPDEST PUSH2 0x1773 DUP12 DUP3 DUP13 ADD PUSH2 0x15EC JUMP JUMPDEST SWAP6 POP POP PUSH1 0x80 PUSH2 0x1784 DUP12 DUP3 DUP13 ADD PUSH2 0x165F JUMP JUMPDEST SWAP5 POP POP PUSH1 0xA0 PUSH2 0x1795 DUP12 DUP3 DUP13 ADD PUSH2 0x1692 JUMP JUMPDEST SWAP4 POP POP PUSH1 0xC0 PUSH2 0x17A6 DUP12 DUP3 DUP13 ADD PUSH2 0x1692 JUMP JUMPDEST SWAP3 POP POP PUSH1 0xE0 PUSH2 0x17B7 DUP12 DUP3 DUP13 ADD PUSH2 0x1692 JUMP JUMPDEST SWAP2 POP POP SWAP3 SWAP6 SWAP9 POP SWAP3 SWAP6 SWAP9 SWAP1 SWAP4 SWAP7 POP JUMP JUMPDEST PUSH0 DUP2 ISZERO ISZERO SWAP1 POP SWAP2 SWAP1 POP JUMP JUMPDEST PUSH2 0x17DB DUP2 PUSH2 0x17C7 JUMP JUMPDEST DUP3 MSTORE POP POP JUMP JUMPDEST PUSH0 PUSH1 0x20 DUP3 ADD SWAP1 POP PUSH2 0x17F4 PUSH0 DUP4 ADD DUP5 PUSH2 0x17D2 JUMP JUMPDEST SWAP3 SWAP2 POP POP JUMP JUMPDEST PUSH2 0x1803 DUP2 PUSH2 0x1638 JUMP JUMPDEST DUP3 MSTORE POP POP JUMP JUMPDEST PUSH0 PUSH1 0x20 DUP3 ADD SWAP1 POP PUSH2 0x181C PUSH0 DUP4 ADD DUP5 PUSH2 0x17FA JUMP JUMPDEST SWAP3 SWAP2 POP POP JUMP JUMPDEST PUSH0 DUP2 MLOAD SWAP1 POP SWAP2 SWAP1 POP JUMP JUMPDEST PUSH0 DUP3 DUP3 MSTORE PUSH1 0x20 DUP3 ADD SWAP1 POP SWAP3 SWAP2 POP POP JUMP JUMPDEST PUSH0 DUP2 SWAP1 POP PUSH1 0x20 DUP3 ADD SWAP1 POP SWAP2 SWAP1 POP JUMP JUMPDEST PUSH2 0x1854 DUP2 PUSH2 0x1638 JUMP JUMPDEST DUP3 MSTORE POP POP JUMP JUMPDEST PUSH0 PUSH2 0x1865 DUP4 DUP4 PUSH2 0x184B JUMP JUMPDEST PUSH1 0x20 DUP4 ADD SWAP1 POP SWAP3 SWAP2 POP POP JUMP JUMPDEST PUSH0 PUSH1 0x20 DUP3 ADD SWAP1 POP SWAP2 SWAP1 POP JUMP JUMPDEST PUSH0 PUSH2 0x1887 DUP3 PUSH2 0x1822 JUMP JUMPDEST PUSH2 0x1891 DUP2 DUP6 PUSH2 0x182C JUMP JUMPDEST SWAP4 POP PUSH2 0x189C DUP4 PUSH2 0x183C JUMP JUMPDEST DUP1 PUSH0 JUMPDEST DUP4 DUP2 LT ISZERO PUSH2 0x18CC JUMPI DUP2 MLOAD PUSH2 0x18B3 DUP9 DUP3 PUSH2 0x185A JUMP JUMPDEST SWAP8 POP PUSH2 0x18BE DUP4 PUSH2 0x1871 JUMP JUMPDEST SWAP3 POP POP PUSH1 0x1 DUP2 ADD SWAP1 POP PUSH2 0x189F JUMP JUMPDEST POP DUP6 SWAP4 POP POP POP POP SWAP3 SWAP2 POP POP JUMP JUMPDEST PUSH0 PUSH1 0x20 DUP3 ADD SWAP1 POP DUP2 DUP2 SUB PUSH0 DUP4 ADD MSTORE PUSH2 0x18F1 DUP2 DUP5 PUSH2 0x187D JUMP JUMPDEST SWAP1 POP SWAP3 SWAP2 POP POP JUMP JUMPDEST PUSH0 PUSH1 0x20 DUP3 DUP5 SUB SLT ISZERO PUSH2 0x190E JUMPI PUSH2 0x190D PUSH2 0x14D5 JUMP JUMPDEST JUMPDEST PUSH0 DUP3 ADD CALLDATALOAD PUSH8 0xFFFFFFFFFFFFFFFF DUP2 GT ISZERO PUSH2 0x192B JUMPI PUSH2 0x192A PUSH2 0x14D9 JUMP JUMPDEST JUMPDEST PUSH2 0x1937 DUP5 DUP3 DUP6 ADD PUSH2 0x15EC JUMP JUMPDEST SWAP2 POP POP SWAP3 SWAP2 POP POP JUMP JUMPDEST PUSH0 DUP2 SWAP1 POP SWAP2 SWAP1 POP JUMP JUMPDEST PUSH2 0x1952 DUP2 PUSH2 0x1940 JUMP JUMPDEST DUP3 MSTORE POP POP JUMP JUMPDEST PUSH0 PUSH1 0x20 DUP3 ADD SWAP1 POP PUSH2 0x196B PUSH0 DUP4 ADD DUP5 PUSH2 0x1949 JUMP JUMPDEST SWAP3 SWAP2 POP POP JUMP JUMPDEST PUSH0 PUSH1 0x20 DUP3 DUP5 SUB SLT ISZERO PUSH2 0x1986 JUMPI PUSH2 0x1985 PUSH2 0x14D5 JUMP JUMPDEST JUMPDEST PUSH0 PUSH2 0x1993 DUP5 DUP3 DUP6 ADD PUSH2 0x165F JUMP JUMPDEST SWAP2 POP POP SWAP3 SWAP2 POP POP JUMP JUMPDEST PUSH32 0x4E487B7100000000000000000000000000000000000000000000000000000000 PUSH0 MSTORE PUSH1 0x21 PUSH1 0x4 MSTORE PUSH1 0x24 PUSH0 REVERT JUMPDEST PUSH1 0x3 DUP2 LT PUSH2 0x19DA JUMPI PUSH2 0x19D9 PUSH2 0x199C JUMP JUMPDEST JUMPDEST POP JUMP JUMPDEST PUSH0 DUP2 SWAP1 POP PUSH2 0x19EA DUP3 PUSH2 0x19C9 JUMP JUMPDEST SWAP2 SWAP1 POP JUMP JUMPDEST PUSH0 PUSH2 0x19F9 DUP3 PUSH2 0x19DD JUMP JUMPDEST SWAP1 POP SWAP2 SWAP1 POP JUMP JUMPDEST PUSH2 0x1A09 DUP2 PUSH2 0x19EF JUMP JUMPDEST DUP3 MSTORE POP POP JUMP JUMPDEST PUSH0 PUSH1 0x40 DUP3 ADD SWAP1 POP PUSH2 0x1A22 PUSH0 DUP4 ADD DUP6 PUSH2 0x17FA JUMP JUMPDEST PUSH2 0x1A2F PUSH1 0x20 DUP4 ADD DUP5 PUSH2 0x1A00 JUMP JUMPDEST SWAP4 SWAP3 POP POP POP JUMP JUMPDEST PUSH0 DUP2 MLOAD SWAP1 POP SWAP2 SWAP1 POP JUMP JUMPDEST PUSH0 DUP3 DUP3 MSTORE PUSH1 0x20 DUP3 ADD SWAP1 POP SWAP3 SWAP2 POP POP JUMP JUMPDEST PUSH0 JUMPDEST DUP4 DUP2 LT ISZERO PUSH2 0x1A6D JUMPI DUP1 DUP3 ADD MLOAD DUP2 DUP5 ADD MSTORE PUSH1 0x20 DUP2 ADD SWAP1 POP PUSH2 0x1A52 JUMP JUMPDEST PUSH0 DUP5 DUP5 ADD MSTORE POP POP POP POP JUMP JUMPDEST PUSH0 PUSH2 0x1A82 DUP3 PUSH2 0x1A36 JUMP JUMPDEST PUSH2 0x1A8C DUP2 DUP6 PUSH2 0x1A40 JUMP JUMPDEST SWAP4 POP PUSH2 0x1A9C DUP2 DUP6 PUSH1 0x20 DUP7 ADD PUSH2 0x1A50 JUMP JUMPDEST PUSH2 0x1AA5 DUP2 PUSH2 0x14E5 JUMP JUMPDEST DUP5 ADD SWAP2 POP POP SWAP3 SWAP2 POP POP JUMP JUMPDEST PUSH2 0x1AB9 DUP2 PUSH2 0x1673 JUMP JUMPDEST DUP3 MSTORE POP POP JUMP JUMPDEST PUSH1 0x60 DUP3 ADD PUSH0 DUP3 ADD MLOAD PUSH2 0x1AD3 PUSH0 DUP6 ADD DUP3 PUSH2 0x1AB0 JUMP JUMPDEST POP PUSH1 0x20 DUP3 ADD MLOAD PUSH2 0x1AE6 PUSH1 0x20 DUP6 ADD DUP3 PUSH2 0x1AB0 JUMP JUMPDEST POP PUSH1 0x40 DUP3 ADD MLOAD PUSH2 0x1AF9 PUSH1 0x40 DUP6 ADD DUP3 PUSH2 0x1AB0 JUMP JUMPDEST POP POP POP POP JUMP JUMPDEST PUSH0 PUSH2 0x120 DUP3 ADD SWAP1 POP DUP2 DUP2 SUB PUSH0 DUP4 ADD MSTORE PUSH2 0x1B18 DUP2 DUP11 PUSH2 0x1A78 JUMP JUMPDEST SWAP1 POP DUP2 DUP2 SUB PUSH1 0x20 DUP4 ADD MSTORE PUSH2 0x1B2C DUP2 DUP10 PUSH2 0x1A78 JUMP JUMPDEST SWAP1 POP DUP2 DUP2 SUB PUSH1 0x40 DUP4 ADD MSTORE PUSH2 0x1B40 DUP2 DUP9 PUSH2 0x1A78 JUMP JUMPDEST SWAP1 POP DUP2 DUP2 SUB PUSH1 0x60 DUP4 ADD MSTORE PUSH2 0x1B54 DUP2 DUP8 PUSH2 0x1A78 JUMP JUMPDEST SWAP1 POP PUSH2 0x1B63 PUSH1 0x80 DUP4 ADD DUP7 PUSH2 0x17FA JUMP JUMPDEST PUSH2 0x1B70 PUSH1 0xA0 DUP4 ADD DUP6 PUSH2 0x1ABF JUMP JUMPDEST PUSH2 0x1B7E PUSH2 0x100 DUP4 ADD DUP5 PUSH2 0x17D2 JUMP JUMPDEST SWAP9 SWAP8 POP POP POP POP POP POP POP POP JUMP JUMPDEST PUSH2 0x1B93 DUP2 PUSH2 0x1673 JUMP JUMPDEST DUP3 MSTORE POP POP JUMP JUMPDEST PUSH0 PUSH1 0x20 DUP3 ADD SWAP1 POP PUSH2 0x1BAC PUSH0 DUP4 ADD DUP5 PUSH2 0x1B8A JUMP JUMPDEST SWAP3 SWAP2 POP POP JUMP JUMPDEST PUSH0 PUSH1 0x20 DUP3 DUP5 SUB SLT ISZERO PUSH2 0x1BC7 JUMPI PUSH2 0x1BC6 PUSH2 0x14D5 JUMP JUMPDEST JUMPDEST PUSH0 PUSH2 0x1BD4 DUP5 DUP3 DUP6 ADD PUSH2 0x1692 JUMP JUMPDEST SWAP2 POP POP SWAP3 SWAP2 POP POP JUMP JUMPDEST PUSH0 DUP1 PUSH0 PUSH1 0x60 DUP5 DUP7 SUB SLT ISZERO PUSH2 0x1BF4 JUMPI PUSH2 0x1BF3 PUSH2 0x14D5 JUMP JUMPDEST JUMPDEST PUSH0 DUP5 ADD CALLDATALOAD PUSH8 0xFFFFFFFFFFFFFFFF DUP2 GT ISZERO PUSH2 0x1C11 JUMPI PUSH2 0x1C10 PUSH2 0x14D9 JUMP JUMPDEST JUMPDEST PUSH2 0x1C1D DUP7 DUP3 DUP8 ADD PUSH2 0x15EC JUMP JUMPDEST SWAP4 POP POP PUSH1 0x20 DUP5 ADD CALLDATALOAD PUSH8 0xFFFFFFFFFFFFFFFF DUP2 GT ISZERO PUSH2 0x1C3E JUMPI PUSH2 0x1C3D PUSH2 0x14D9 JUMP JUMPDEST JUMPDEST PUSH2 0x1C4A DUP7 DUP3 DUP8 ADD PUSH2 0x15EC JUMP JUMPDEST SWAP3 POP POP PUSH1 0x40 PUSH2 0x1C5B DUP7 DUP3 DUP8 ADD PUSH2 0x165F JUMP JUMPDEST SWAP2 POP POP SWAP3 POP SWAP3 POP SWAP3 JUMP JUMPDEST PUSH0 DUP2 MLOAD SWAP1 POP SWAP2 SWAP1 POP JUMP JUMPDEST PUSH0 DUP3 DUP3 MSTORE PUSH1 0x20 DUP3 ADD SWAP1 POP SWAP3 SWAP2 POP POP JUMP JUMPDEST PUSH0 DUP2 SWAP1 POP PUSH1 0x20 DUP3 ADD SWAP1 POP SWAP2 SWAP1 POP JUMP JUMPDEST PUSH2 0x1C97 DUP2 PUSH2 0x19EF JUMP JUMPDEST DUP3 MSTORE POP POP JUMP JUMPDEST PUSH1 0x40 DUP3 ADD PUSH0 DUP3 ADD MLOAD PUSH2 0x1CB1 PUSH0 DUP6 ADD DUP3 PUSH2 0x184B JUMP JUMPDEST POP PUSH1 0x20 DUP3 ADD MLOAD PUSH2 0x1CC4 PUSH1 0x20 DUP6 ADD DUP3 PUSH2 0x1C8E JUMP JUMPDEST POP POP POP POP JUMP JUMPDEST PUSH0 PUSH2 0x1CD5 DUP4 DUP4 PUSH2 0x1C9D JUMP JUMPDEST PUSH1 0x40 DUP4 ADD SWAP1 POP SWAP3 SWAP2 POP POP JUMP JUMPDEST PUSH0 PUSH1 0x20 DUP3 ADD SWAP1 POP SWAP2 SWAP1 POP JUMP JUMPDEST PUSH0 PUSH2 0x1CF7 DUP3 PUSH2 0x1C65 JUMP JUMPDEST PUSH2 0x1D01 DUP2 DUP6 PUSH2 0x1C6F JUMP JUMPDEST SWAP4 POP PUSH2 0x1D0C DUP4 PUSH2 0x1C7F JUMP JUMPDEST DUP1 PUSH0 JUMPDEST DUP4 DUP2 LT ISZERO PUSH2 0x1D3C JUMPI DUP2 MLOAD PUSH2 0x1D23 DUP9 DUP3 PUSH2 0x1CCA JUMP JUMPDEST SWAP8 POP PUSH2 0x1D2E DUP4 PUSH2 0x1CE1 JUMP JUMPDEST SWAP3 POP POP PUSH1 0x1 DUP2 ADD SWAP1 POP PUSH2 0x1D0F JUMP JUMPDEST POP DUP6 SWAP4 POP POP POP POP SWAP3 SWAP2 POP POP JUMP JUMPDEST PUSH0 PUSH1 0x20 DUP3 ADD SWAP1 POP DUP2 DUP2 SUB PUSH0 DUP4 ADD MSTORE PUSH2 0x1D61 DUP2 DUP5 PUSH2 0x1CED JUMP JUMPDEST SWAP1 POP SWAP3 SWAP2 POP POP JUMP JUMPDEST PUSH32 0x4E487B7100000000000000000000000000000000000000000000000000000000 PUSH0 MSTORE PUSH1 0x11 PUSH1 0x4 MSTORE PUSH1 0x24 PUSH0 REVERT JUMPDEST PUSH0 PUSH2 0x1DA0 DUP3 PUSH2 0x1673 JUMP JUMPDEST SWAP2 POP PUSH2 0x1DAB DUP4 PUSH2 0x1673 JUMP JUMPDEST SWAP3 POP DUP3 DUP3 ADD SWAP1 POP DUP1 DUP3 GT ISZERO PUSH2 0x1DC3 JUMPI PUSH2 0x1DC2 PUSH2 0x1D69 JUMP JUMPDEST JUMPDEST SWAP3 SWAP2 POP POP JUMP JUMPDEST PUSH32 0x4E487B7100000000000000000000000000000000000000000000000000000000 PUSH0 MSTORE PUSH1 0x22 PUSH1 0x4 MSTORE PUSH1 0x24 PUSH0 REVERT JUMPDEST PUSH0 PUSH1 0x2 DUP3 DIV SWAP1 POP PUSH1 0x1 DUP3 AND DUP1 PUSH2 0x1E0D JUMPI PUSH1 0x7F DUP3 AND SWAP2 POP JUMPDEST PUSH1 0x20 DUP3 LT DUP2 SUB PUSH2 0x1E20 JUMPI PUSH2 0x1E1F PUSH2 0x1DC9 JUMP JUMPDEST JUMPDEST POP SWAP2 SWAP1 POP JUMP JUMPDEST PUSH0 DUP2 SWAP1 POP DUP2 PUSH0 MSTORE PUSH1 0x20 PUSH0 KECCAK256 SWAP1 POP SWAP2 SWAP1 POP JUMP JUMPDEST PUSH0 PUSH1 0x20 PUSH1 0x1F DUP4 ADD DIV SWAP1 POP SWAP2 SWAP1 POP JUMP JUMPDEST PUSH0 DUP3 DUP3 SHL SWAP1 POP SWAP3 SWAP2 POP POP JUMP JUMPDEST PUSH0 PUSH1 0x8 DUP4 MUL PUSH2 0x1E82 PUSH32 0xFFFFFFFFFFFFFFFFFFFFFFFFFFFFFFFFFFFFFFFFFFFFFFFFFFFFFFFFFFFFFFFF DUP3 PUSH2 0x1E47 JUMP JUMPDEST PUSH2 0x1E8C DUP7 DUP4 PUSH2 0x1E47 JUMP JUMPDEST SWAP6 POP DUP1 NOT DUP5 AND SWAP4 POP DUP1 DUP7 AND DUP5 OR SWAP3 POP POP POP SWAP4 SWAP3 POP POP POP JUMP JUMPDEST PUSH0 DUP2 SWAP1 POP SWAP2 SWAP1 POP JUMP JUMPDEST PUSH0 PUSH2 0x1EC7 PUSH2 0x1EC2 PUSH2 0x1EBD DUP5 PUSH2 0x1673 JUMP JUMPDEST PUSH2 0x1EA4 JUMP JUMPDEST PUSH2 0x1673 JUMP JUMPDEST SWAP1 POP SWAP2 SWAP1 POP JUMP JUMPDEST PUSH0 DUP2 SWAP1 POP SWAP2 SWAP1 POP JUMP JUMPDEST PUSH2 0x1EE0 DUP4 PUSH2 0x1EAD JUMP JUMPDEST PUSH2 0x1EF4 PUSH2 0x1EEC DUP3 PUSH2 0x1ECE JUMP JUMPDEST DUP5 DUP5 SLOAD PUSH2 0x1E53 JUMP JUMPDEST DUP3 SSTORE POP POP POP POP JUMP JUMPDEST PUSH0 SWAP1 JUMP JUMPDEST PUSH2 0x1F08 PUSH2 0x1EFC JUMP JUMPDEST PUSH2 0x1F13 DUP2 DUP5 DUP5 PUSH2 0x1ED7 JUMP JUMPDEST POP POP POP JUMP JUMPDEST JUMPDEST DUP2 DUP2 LT ISZERO PUSH2 0x1F36 JUMPI PUSH2 0x1F2B PUSH0 DUP3 PUSH2 0x1F00 JUMP JUMPDEST PUSH1 0x1 DUP2 ADD SWAP1 POP PUSH2 0x1F19 JUMP JUMPDEST POP POP JUMP JUMPDEST PUSH1 0x1F DUP3 GT ISZERO PUSH2 0x1F7B JUMPI PUSH2 0x1F4C DUP2 PUSH2 0x1E26 JUMP JUMPDEST PUSH2 0x1F55 DUP5 PUSH2 0x1E38 JUMP JUMPDEST DUP2 ADD PUSH1 0x20 DUP6 LT ISZERO PUSH2 0x1F64 JUMPI DUP2 SWAP1 POP JUMPDEST PUSH2 0x1F78 PUSH2 0x1F70 DUP6 PUSH2 0x1E38 JUMP JUMPDEST DUP4 ADD DUP3 PUSH2 0x1F18 JUMP JUMPDEST POP POP JUMPDEST POP POP POP JUMP JUMPDEST PUSH0 DUP3 DUP3 SHR SWAP1 POP SWAP3 SWAP2 POP POP JUMP JUMPDEST PUSH0 PUSH2 0x1F9B PUSH0 NOT DUP5 PUSH1 0x8 MUL PUSH2 0x1F80 JUMP JUMPDEST NOT DUP1 DUP4 AND SWAP2 POP POP SWAP3 SWAP2 POP POP JUMP JUMPDEST PUSH0 PUSH2 0x1FB3 DUP4 DUP4 PUSH2 0x1F8C JUMP JUMPDEST SWAP2 POP DUP3 PUSH1 0x2 MUL DUP3 OR SWAP1 POP SWAP3 SWAP2 POP POP JUMP JUMPDEST PUSH2 0x1FCC DUP3 PUSH2 0x1A36 JUMP JUMPDEST PUSH8 0xFFFFFFFFFFFFFFFF DUP2 GT ISZERO PUSH2 0x1FE5 JUMPI PUSH2 0x1FE4 PUSH2 0x14F5 JUMP JUMPDEST JUMPDEST PUSH2 0x1FEF DUP3 SLOAD PUSH2 0x1DF6 JUMP JUMPDEST PUSH2 0x1FFA DUP3 DUP3 DUP6 PUSH2 0x1F3A JUMP JUMPDEST PUSH0 PUSH1 0x20 SWAP1 POP PUSH1 0x1F DUP4 GT PUSH1 0x1 DUP2 EQ PUSH2 0x202B JUMPI PUSH0 DUP5 ISZERO PUSH2 0x2019 JUMPI DUP3 DUP8 ADD MLOAD SWAP1 POP JUMPDEST PUSH2 0x2023 DUP6 DUP3 PUSH2 0x1FA8 JUMP JUMPDEST DUP7 SSTORE POP PUSH2 0x208A JUMP JUMPDEST PUSH1 0x1F NOT DUP5 AND PUSH2 0x2039 DUP7 PUSH2 0x1E26 JUMP JUMPDEST PUSH0 JUMPDEST DUP3 DUP2 LT ISZERO PUSH2 0x2060 JUMPI DUP5 DUP10 ADD MLOAD DUP3 SSTORE PUSH1 0x1 DUP3 ADD SWAP2 POP PUSH1 0x20 DUP6 ADD SWAP5 POP PUSH1 0x20 DUP2 ADD SWAP1 POP PUSH2 0x203B JUMP JUMPDEST DUP7 DUP4 LT ISZERO PUSH2 0x207D JUMPI DUP5 DUP10 ADD MLOAD PUSH2 0x2079 PUSH1 0x1F DUP10 AND DUP3 PUSH2 0x1F8C JUMP JUMPDEST DUP4 SSTORE POP JUMPDEST PUSH1 0x1 PUSH1 0x2 DUP9 MUL ADD DUP9 SSTORE POP POP POP JUMPDEST POP POP POP POP POP POP JUMP JUMPDEST PUSH32 0x4E487B7100000000000000000000000000000000000000000000000000000000 PUSH0 MSTORE PUSH1 0x32 PUSH1 0x4 MSTORE PUSH1 0x24 PUSH0 REVERT JUMPDEST PUSH0 PUSH2 0x20C9 DUP3 PUSH2 0x1673 JUMP JUMPDEST SWAP2 POP PUSH32 0xFFFFFFFFFFFFFFFFFFFFFFFFFFFFFFFFFFFFFFFFFFFFFFFFFFFFFFFFFFFFFFFF DUP3 SUB PUSH2 0x20FB JUMPI PUSH2 0x20FA PUSH2 0x1D69 JUMP JUMPDEST JUMPDEST PUSH1 0x1 DUP3 ADD SWAP1 POP SWAP2 SWAP1 POP JUMP JUMPDEST PUSH0 DUP2 SWAP1 POP SWAP3 SWAP2 POP POP JUMP JUMPDEST PUSH0 PUSH2 0x211A DUP3 PUSH2 0x1A36 JUMP JUMPDEST PUSH2 0x2124 DUP2 DUP6 PUSH2 0x2106 JUMP JUMPDEST SWAP4 POP PUSH2 0x2134 DUP2 DUP6 PUSH1 0x20 DUP7 ADD PUSH2 0x1A50 JUMP JUMPDEST DUP1 DUP5 ADD SWAP2 POP POP SWAP3 SWAP2 POP POP JUMP JUMPDEST PUSH0 PUSH2 0x214B DUP3 DUP5 PUSH2 0x2110 JUMP JUMPDEST SWAP2 POP DUP2 SWAP1 POP SWAP3 SWAP2 POP POP JUMP JUMPDEST PUSH32 0x6F6E6C79206D61737465722061646D696E2063616E2061646420746865207573 PUSH0 DUP3 ADD MSTORE PUSH32 0x6572000000000000000000000000000000000000000000000000000000000000 PUSH1 0x20 DUP3 ADD MSTORE POP JUMP JUMPDEST PUSH0 PUSH2 0x21B0 PUSH1 0x22 DUP4 PUSH2 0x1A40 JUMP JUMPDEST SWAP2 POP PUSH2 0x21BB DUP3 PUSH2 0x2156 JUMP JUMPDEST PUSH1 0x40 DUP3 ADD SWAP1 POP SWAP2 SWAP1 POP JUMP JUMPDEST PUSH0 PUSH1 0x20 DUP3 ADD SWAP1 POP DUP2 DUP2 SUB PUSH0 DUP4 ADD MSTORE PUSH2 0x21DD DUP2 PUSH2 0x21A4 JUMP JUMPDEST SWAP1 POP SWAP2 SWAP1 POP JUMP JUMPDEST PUSH32 0x7573657220646F65736E27742065786973740000000000000000000000000000 PUSH0 DUP3 ADD MSTORE POP JUMP JUMPDEST PUSH0 PUSH2 0x2218 PUSH1 0x12 DUP4 PUSH2 0x1A40 JUMP JUMPDEST SWAP2 POP PUSH2 0x2223 DUP3 PUSH2 0x21E4 JUMP JUMPDEST PUSH1 0x20 DUP3 ADD SWAP1 POP SWAP2 SWAP1 POP JUMP JUMPDEST PUSH0 PUSH1 0x20 DUP3 ADD SWAP1 POP DUP2 DUP2 SUB PUSH0 DUP4 ADD MSTORE PUSH2 0x2245 DUP2 PUSH2 0x220C JUMP JUMPDEST SWAP1 POP SWAP2 SWAP1 POP JUMP JUMPDEST PUSH32 0x696E636F727265637420757365726E616D65206F722070617373776F72640000 PUSH0 DUP3 ADD MSTORE POP JUMP JUMPDEST PUSH0 PUSH2 0x2280 PUSH1 0x1E DUP4 PUSH2 0x1A40 JUMP JUMPDEST SWAP2 POP PUSH2 0x228B DUP3 PUSH2 0x224C JUMP JUMPDEST PUSH1 0x20 DUP3 ADD SWAP1 POP SWAP2 SWAP1 POP JUMP JUMPDEST PUSH0 PUSH1 0x20 DUP3 ADD SWAP1 POP DUP2 DUP2 SUB PUSH0 DUP4 ADD MSTORE PUSH2 0x22AD DUP2 PUSH2 0x2274 JUMP JUMPDEST SWAP1 POP SWAP2 SWAP1 POP JUMP INVALID LOG2 PUSH5 0x6970667358 0x22 SLT KECCAK256 ADDMOD JUMP ORIGIN 0x21 ADDRESS ADDMOD 0x4F DUP8 STOP CREATE2 SLT BASEFEE DUP11 0xE4 0xB2 0xDC LOG3 SWAP10 0xC8 DUP8 PUSH4 0xA823089A 0x2B DUP15 GASPRICE 0xAF SAR MLOAD SLOAD PUSH5 0x736F6C6343 STOP ADDMOD AND STOP CALLER "
				},
				"gasEstimates": {
					"creation": {
						"codeDepositCost": "1787600",
						"executionCost": "58271",
						"totalCost": "1845871"
					},
					"external": {
						"acceptAdminRequest(address)": "infinite",
						"adminAddresses(address)": "infinite",
						"adminKeys(uint256)": "2916",
						"adminRequestkeys(uint256)": "2894",
						"adminRequests(address)": "infinite",
						"checkIfAdmin(address)": "2951",
						"convertString(string)": "infinite",
						"createAdminRequest(string,string,string,string,address,uint256,uint256,uint256)": "infinite",
						"declineAdminRequest(address)": "infinite",
						"getAdminRequests()": "infinite",
						"getAdmins()": "infinite",
						"getMasterAdmin()": "2560",
						"getTotalAdminCount()": "2521",
						"login(string,string,address)": "infinite",
						"masterAdmin()": "2551"
					}
				},
				"methodIdentifiers": {
					"acceptAdminRequest(address)": "dca2c3e4",
					"adminAddresses(address)": "4ed38faf",
					"adminKeys(uint256)": "aff125f6",
					"adminRequestkeys(uint256)": "72f305eb",
					"adminRequests(address)": "3c48aa79",
					"checkIfAdmin(address)": "d9fa9c1a",
					"convertString(string)": "3443105e",
					"createAdminRequest(string,string,string,string,address,uint256,uint256,uint256)": "239d6933",
					"declineAdminRequest(address)": "67e1cde0",
					"getAdminRequests()": "e5a43c7c",
					"getAdmins()": "31ae450b",
					"getMasterAdmin()": "6a228aba",
					"getTotalAdminCount()": "6438176c",
					"login(string,string,address)": "d0e93812",
					"masterAdmin()": "2a68f64e"
				}
			},
			"storageLayout": {
				"storage": [
					{
						"astId": 43,
						"contract": "admin.sol:Admin",
						"label": "masterAdmin",
						"offset": 0,
						"slot": "0",
						"type": "t_address"
					},
					{
						"astId": 83,
						"contract": "admin.sol:Admin",
						"label": "adminKeys",
						"offset": 0,
						"slot": "1",
						"type": "t_mapping(t_uint256,t_address)"
					},
					{
						"astId": 88,
						"contract": "admin.sol:Admin",
						"label": "adminAddresses",
						"offset": 0,
						"slot": "2",
						"type": "t_mapping(t_address,t_struct(AdminType)73_storage)"
					},
					{
						"astId": 92,
						"contract": "admin.sol:Admin",
						"label": "adminRequestkeys",
						"offset": 0,
						"slot": "3",
						"type": "t_mapping(t_uint256,t_address)"
					},
					{
						"astId": 97,
						"contract": "admin.sol:Admin",
						"label": "adminRequests",
						"offset": 0,
						"slot": "4",
						"type": "t_mapping(t_address,t_struct(AdminRequest)79_storage)"
					},
					{
						"astId": 100,
						"contract": "admin.sol:Admin",
						"label": "totalAdminCount",
						"offset": 0,
						"slot": "5",
						"type": "t_uint256"
					},
					{
						"astId": 103,
						"contract": "admin.sol:Admin",
						"label": "totalRequestCount",
						"offset": 0,
						"slot": "6",
						"type": "t_uint256"
					}
				],
				"types": {
					"t_address": {
						"encoding": "inplace",
						"label": "address",
						"numberOfBytes": "20"
					},
					"t_bool": {
						"encoding": "inplace",
						"label": "bool",
						"numberOfBytes": "1"
					},
					"t_enum(RequestStatusType)41": {
						"encoding": "inplace",
						"label": "enum Admin.RequestStatusType",
						"numberOfBytes": "1"
					},
					"t_mapping(t_address,t_struct(AdminRequest)79_storage)": {
						"encoding": "mapping",
						"key": "t_address",
						"label": "mapping(address => struct Admin.AdminRequest)",
						"numberOfBytes": "32",
						"value": "t_struct(AdminRequest)79_storage"
					},
					"t_mapping(t_address,t_struct(AdminType)73_storage)": {
						"encoding": "mapping",
						"key": "t_address",
						"label": "mapping(address => struct Admin.AdminType)",
						"numberOfBytes": "32",
						"value": "t_struct(AdminType)73_storage"
					},
					"t_mapping(t_uint256,t_address)": {
						"encoding": "mapping",
						"key": "t_uint256",
						"label": "mapping(uint256 => address)",
						"numberOfBytes": "32",
						"value": "t_address"
					},
					"t_string_storage": {
						"encoding": "bytes",
						"label": "string",
						"numberOfBytes": "32"
					},
					"t_struct(AdminRequest)79_storage": {
						"encoding": "inplace",
						"label": "struct Admin.AdminRequest",
						"members": [
							{
								"astId": 75,
								"contract": "admin.sol:Admin",
								"label": "walletAddress",
								"offset": 0,
								"slot": "0",
								"type": "t_address"
							},
							{
								"astId": 78,
								"contract": "admin.sol:Admin",
								"label": "requestStatus",
								"offset": 20,
								"slot": "0",
								"type": "t_enum(RequestStatusType)41"
							}
						],
						"numberOfBytes": "32"
					},
					"t_struct(AdminType)73_storage": {
						"encoding": "inplace",
						"label": "struct Admin.AdminType",
						"members": [
							{
								"astId": 59,
								"contract": "admin.sol:Admin",
								"label": "fname",
								"offset": 0,
								"slot": "0",
								"type": "t_string_storage"
							},
							{
								"astId": 61,
								"contract": "admin.sol:Admin",
								"label": "lname",
								"offset": 0,
								"slot": "1",
								"type": "t_string_storage"
							},
							{
								"astId": 63,
								"contract": "admin.sol:Admin",
								"label": "username",
								"offset": 0,
								"slot": "2",
								"type": "t_string_storage"
							},
							{
								"astId": 65,
								"contract": "admin.sol:Admin",
								"label": "password",
								"offset": 0,
								"slot": "3",
								"type": "t_string_storage"
							},
							{
								"astId": 67,
								"contract": "admin.sol:Admin",
								"label": "walletAddress",
								"offset": 0,
								"slot": "4",
								"type": "t_address"
							},
							{
								"astId": 70,
								"contract": "admin.sol:Admin",
								"label": "DoB",
								"offset": 0,
								"slot": "5",
								"type": "t_struct(Date)50_storage"
							},
							{
								"astId": 72,
								"contract": "admin.sol:Admin",
								"label": "verified",
								"offset": 0,
								"slot": "8",
								"type": "t_bool"
							}
						],
						"numberOfBytes": "288"
					},
					"t_struct(Date)50_storage": {
						"encoding": "inplace",
						"label": "struct Admin.Date",
						"members": [
							{
								"astId": 45,
								"contract": "admin.sol:Admin",
								"label": "date",
								"offset": 0,
								"slot": "0",
								"type": "t_uint256"
							},
							{
								"astId": 47,
								"contract": "admin.sol:Admin",
								"label": "month",
								"offset": 0,
								"slot": "1",
								"type": "t_uint256"
							},
							{
								"astId": 49,
								"contract": "admin.sol:Admin",
								"label": "year",
								"offset": 0,
								"slot": "2",
								"type": "t_uint256"
							}
						],
						"numberOfBytes": "96"
					},
					"t_uint256": {
						"encoding": "inplace",
						"label": "uint256",
						"numberOfBytes": "32"
					}
				}
			},
			"userdoc": {
				"kind": "user",
				"methods": {},
				"version": 1
			}
		}
	}
}