{
	"ehr.sol": {
		"Report": {
			"abi": [
				{
					"inputs": [],
					"stateMutability": "nonpayable",
					"type": "constructor"
				},
				{
					"anonymous": false,
					"inputs": [
						{
							"indexed": false,
							"internalType": "address",
							"name": "doctorAddress",
							"type": "address"
						},
						{
							"indexed": false,
							"internalType": "uint256",
							"name": "patientId",
							"type": "uint256"
						}
					],
					"name": "AccessRequestApproved",
					"type": "event"
				},
				{
					"anonymous": false,
					"inputs": [
						{
							"indexed": false,
							"internalType": "address",
							"name": "doctorAddress",
							"type": "address"
						},
						{
							"indexed": false,
							"internalType": "uint256",
							"name": "patientId",
							"type": "uint256"
						}
					],
					"name": "AccessRequestRejected",
					"type": "event"
				},
				{
					"anonymous": false,
					"inputs": [
						{
							"indexed": false,
							"internalType": "address",
							"name": "doctorAddress",
							"type": "address"
						},
						{
							"indexed": false,
							"internalType": "uint256",
							"name": "patientId",
							"type": "uint256"
						}
					],
					"name": "AccessRequestSent",
					"type": "event"
				},
				{
					"anonymous": false,
					"inputs": [
						{
							"indexed": false,
							"internalType": "address",
							"name": "doctorAddress",
							"type": "address"
						},
						{
							"indexed": false,
							"internalType": "uint256",
							"name": "patientId",
							"type": "uint256"
						}
					],
					"name": "DoctorAccessRevoked",
					"type": "event"
				},
				{
					"anonymous": false,
					"inputs": [
						{
							"indexed": false,
							"internalType": "address",
							"name": "doctorAddress",
							"type": "address"
						},
						{
							"indexed": false,
							"internalType": "uint256",
							"name": "patientId",
							"type": "uint256"
						}
					],
					"name": "DoctorAssignedToPatient",
					"type": "event"
				},
				{
					"anonymous": false,
					"inputs": [
						{
							"indexed": false,
							"internalType": "address",
							"name": "doctorAddress",
							"type": "address"
						},
						{
							"indexed": false,
							"internalType": "string",
							"name": "name",
							"type": "string"
						}
					],
					"name": "DoctorRegistered",
					"type": "event"
				},
				{
					"inputs": [
						{
							"internalType": "uint256",
							"name": "",
							"type": "uint256"
						}
					],
					"name": "accessRequests",
					"outputs": [
						{
							"internalType": "address",
							"name": "doctorAddress",
							"type": "address"
						},
						{
							"internalType": "uint256",
							"name": "patientId",
							"type": "uint256"
						},
						{
							"internalType": "enum Report.RequestStatus",
							"name": "status",
							"type": "uint8"
						}
					],
					"stateMutability": "view",
					"type": "function"
				},
				{
					"inputs": [
						{
							"internalType": "uint256",
							"name": "_patientId",
							"type": "uint256"
						}
					],
					"name": "approveAccessRequest",
					"outputs": [],
					"stateMutability": "nonpayable",
					"type": "function"
				},
				{
					"inputs": [
						{
							"internalType": "address",
							"name": "_doctorAddress",
							"type": "address"
						},
						{
							"internalType": "uint256",
							"name": "_patientId",
							"type": "uint256"
						}
					],
					"name": "assignDoctorToPatient",
					"outputs": [],
					"stateMutability": "nonpayable",
					"type": "function"
				},
				{
					"inputs": [
						{
							"internalType": "address",
							"name": "",
							"type": "address"
						}
					],
					"name": "doctors",
					"outputs": [
						{
							"internalType": "string",
							"name": "name",
							"type": "string"
						},
						{
							"internalType": "address",
							"name": "doctorAddress",
							"type": "address"
						}
					],
					"stateMutability": "view",
					"type": "function"
				},
				{
					"inputs": [
						{
							"internalType": "uint256",
							"name": "_patientId",
							"type": "uint256"
						}
					],
					"name": "getAccessRequestStatus",
					"outputs": [
						{
							"internalType": "enum Report.RequestStatus",
							"name": "",
							"type": "uint8"
						}
					],
					"stateMutability": "view",
					"type": "function"
				},
				{
					"inputs": [],
					"name": "owner",
					"outputs": [
						{
							"internalType": "address",
							"name": "",
							"type": "address"
						}
					],
					"stateMutability": "view",
					"type": "function"
				},
				{
					"inputs": [
						{
							"internalType": "uint256",
							"name": "",
							"type": "uint256"
						}
					],
					"name": "patientToDoctor",
					"outputs": [
						{
							"internalType": "address",
							"name": "",
							"type": "address"
						}
					],
					"stateMutability": "view",
					"type": "function"
				},
				{
					"inputs": [
						{
							"internalType": "string",
							"name": "_name",
							"type": "string"
						}
					],
					"name": "registerDoctor",
					"outputs": [],
					"stateMutability": "nonpayable",
					"type": "function"
				},
				{
					"inputs": [
						{
							"internalType": "uint256",
							"name": "_patientId",
							"type": "uint256"
						}
					],
					"name": "rejectAccessRequest",
					"outputs": [],
					"stateMutability": "nonpayable",
					"type": "function"
				},
				{
					"inputs": [
						{
							"internalType": "uint256",
							"name": "_patientId",
							"type": "uint256"
						}
					],
					"name": "revokeDoctorAccessToPatient",
					"outputs": [],
					"stateMutability": "nonpayable",
					"type": "function"
				},
				{
					"inputs": [
						{
							"internalType": "uint256",
							"name": "_patientId",
							"type": "uint256"
						}
					],
					"name": "sendAccessRequest",
					"outputs": [],
					"stateMutability": "nonpayable",
					"type": "function"
				}
			],
			"devdoc": {
				"kind": "dev",
				"methods": {},
				"version": 1
			},
			"evm": {
				"assembly": "    /* \"ehr.sol\":57:4030  contract Report {... */\n  mstore(0x40, 0x80)\n    /* \"ehr.sol\":1252:1301  constructor() {... */\n  callvalue\n  dup1\n  iszero\n  tag_1\n  jumpi\n  0x00\n  dup1\n  revert\ntag_1:\n  pop\n    /* \"ehr.sol\":1284:1294  msg.sender */\n  caller\n    /* \"ehr.sol\":1276:1281  owner */\n  0x00\n  dup1\n    /* \"ehr.sol\":1276:1294  owner = msg.sender */\n  0x0100\n  exp\n  dup2\n  sload\n  dup2\n  0xffffffffffffffffffffffffffffffffffffffff\n  mul\n  not\n  and\n  swap1\n  dup4\n  0xffffffffffffffffffffffffffffffffffffffff\n  and\n  mul\n  or\n  swap1\n  sstore\n  pop\n    /* \"ehr.sol\":57:4030  contract Report {... */\n  dataSize(sub_0)\n  dup1\n  dataOffset(sub_0)\n  0x00\n  codecopy\n  0x00\n  return\nstop\n\nsub_0: assembly {\n        /* \"ehr.sol\":57:4030  contract Report {... */\n      mstore(0x40, 0x80)\n      callvalue\n      dup1\n      iszero\n      tag_1\n      jumpi\n      0x00\n      dup1\n      revert\n    tag_1:\n      pop\n      jumpi(tag_2, lt(calldatasize, 0x04))\n      shr(0xe0, calldataload(0x00))\n      dup1\n      0x8f09ab5b\n      gt\n      tag_14\n      jumpi\n      dup1\n      0x8f09ab5b\n      eq\n      tag_8\n      jumpi\n      dup1\n      0xa9583c22\n      eq\n      tag_9\n      jumpi\n      dup1\n      0xbc1d27ea\n      eq\n      tag_10\n      jumpi\n      dup1\n      0xd16a94e2\n      eq\n      tag_11\n      jumpi\n      dup1\n      0xdba8b099\n      eq\n      tag_12\n      jumpi\n      dup1\n      0xf2d60357\n      eq\n      tag_13\n      jumpi\n      jump(tag_2)\n    tag_14:\n      dup1\n      0x55b2876c\n      eq\n      tag_3\n      jumpi\n      dup1\n      0x698a24ad\n      eq\n      tag_4\n      jumpi\n      dup1\n      0x6be38131\n      eq\n      tag_5\n      jumpi\n      dup1\n      0x8ca91a9a\n      eq\n      tag_6\n      jumpi\n      dup1\n      0x8da5cb5b\n      eq\n      tag_7\n      jumpi\n    tag_2:\n      0x00\n      dup1\n      revert\n        /* \"ehr.sol\":1635:1986  function assignDoctorToPatient(address _doctorAddress, uint256 _patientId) external onlyOwner {... */\n    tag_3:\n      tag_15\n      0x04\n      dup1\n      calldatasize\n      sub\n      dup2\n      add\n      swap1\n      tag_16\n      swap2\n      swap1\n      tag_17\n      jump\t// in\n    tag_16:\n      tag_18\n      jump\t// in\n    tag_15:\n      stop\n        /* \"ehr.sol\":3464:3875  function rejectAccessRequest(uint256 _patientId) external onlyOwner {... */\n    tag_4:\n      tag_19\n      0x04\n      dup1\n      calldatasize\n      sub\n      dup2\n      add\n      swap1\n      tag_20\n      swap2\n      swap1\n      tag_21\n      jump\t// in\n    tag_20:\n      tag_22\n      jump\t// in\n    tag_19:\n      stop\n        /* \"ehr.sol\":2984:3458  function approveAccessRequest(uint256 _patientId) external onlyOwner {... */\n    tag_5:\n      tag_23\n      0x04\n      dup1\n      calldatasize\n      sub\n      dup2\n      add\n      swap1\n      tag_24\n      swap2\n      swap1\n      tag_21\n      jump\t// in\n    tag_24:\n      tag_25\n      jump\t// in\n    tag_23:\n      stop\n        /* \"ehr.sol\":466:521  mapping(uint256 => AccessRequest) public accessRequests */\n    tag_6:\n      tag_26\n      0x04\n      dup1\n      calldatasize\n      sub\n      dup2\n      add\n      swap1\n      tag_27\n      swap2\n      swap1\n      tag_21\n      jump\t// in\n    tag_27:\n      tag_28\n      jump\t// in\n    tag_26:\n      mload(0x40)\n      tag_29\n      swap4\n      swap3\n      swap2\n      swap1\n      tag_30\n      jump\t// in\n    tag_29:\n      mload(0x40)\n      dup1\n      swap2\n      sub\n      swap1\n      return\n        /* \"ehr.sol\":79:99  address public owner */\n    tag_7:\n      tag_31\n      tag_32\n      jump\t// in\n    tag_31:\n      mload(0x40)\n      tag_33\n      swap2\n      swap1\n      tag_34\n      jump\t// in\n    tag_33:\n      mload(0x40)\n      dup1\n      swap2\n      sub\n      swap1\n      return\n        /* \"ehr.sol\":1307:1629  function registerDoctor(string memory _name) external {... */\n    tag_8:\n      tag_35\n      0x04\n      dup1\n      calldatasize\n      sub\n      dup2\n      add\n      swap1\n      tag_36\n      swap2\n      swap1\n      tag_37\n      jump\t// in\n    tag_36:\n      tag_38\n      jump\t// in\n    tag_35:\n      stop\n        /* \"ehr.sol\":363:404  mapping(address => Doctor) public doctors */\n    tag_9:\n      tag_39\n      0x04\n      dup1\n      calldatasize\n      sub\n      dup2\n      add\n      swap1\n      tag_40\n      swap2\n      swap1\n      tag_41\n      jump\t// in\n    tag_40:\n      tag_42\n      jump\t// in\n    tag_39:\n      mload(0x40)\n      tag_43\n      swap3\n      swap2\n      swap1\n      tag_44\n      jump\t// in\n    tag_43:\n      mload(0x40)\n      dup1\n      swap2\n      sub\n      swap1\n      return\n        /* \"ehr.sol\":2389:2978  function sendAccessRequest(uint256 _patientId) external onlyDoctor {... */\n    tag_10:\n      tag_45\n      0x04\n      dup1\n      calldatasize\n      sub\n      dup2\n      add\n      swap1\n      tag_46\n      swap2\n      swap1\n      tag_21\n      jump\t// in\n    tag_46:\n      tag_47\n      jump\t// in\n    tag_45:\n      stop\n        /* \"ehr.sol\":1992:2383  function revokeDoctorAccessToPatient(uint256 _patientId) external onlyOwner {... */\n    tag_11:\n      tag_48\n      0x04\n      dup1\n      calldatasize\n      sub\n      dup2\n      add\n      swap1\n      tag_49\n      swap2\n      swap1\n      tag_21\n      jump\t// in\n    tag_49:\n      tag_50\n      jump\t// in\n    tag_48:\n      stop\n        /* \"ehr.sol\":410:460  mapping(uint256 => address) public patientToDoctor */\n    tag_12:\n      tag_51\n      0x04\n      dup1\n      calldatasize\n      sub\n      dup2\n      add\n      swap1\n      tag_52\n      swap2\n      swap1\n      tag_21\n      jump\t// in\n    tag_52:\n      tag_53\n      jump\t// in\n    tag_51:\n      mload(0x40)\n      tag_54\n      swap2\n      swap1\n      tag_34\n      jump\t// in\n    tag_54:\n      mload(0x40)\n      dup1\n      swap2\n      sub\n      swap1\n      return\n        /* \"ehr.sol\":3881:4028  function getAccessRequestStatus(uint256 _patientId) external view returns (RequestStatus) {... */\n    tag_13:\n      tag_55\n      0x04\n      dup1\n      calldatasize\n      sub\n      dup2\n      add\n      swap1\n      tag_56\n      swap2\n      swap1\n      tag_21\n      jump\t// in\n    tag_56:\n      tag_57\n      jump\t// in\n    tag_55:\n      mload(0x40)\n      tag_58\n      swap2\n      swap1\n      tag_59\n      jump\t// in\n    tag_58:\n      mload(0x40)\n      dup1\n      swap2\n      sub\n      swap1\n      return\n        /* \"ehr.sol\":1635:1986  function assignDoctorToPatient(address _doctorAddress, uint256 _patientId) external onlyOwner {... */\n    tag_18:\n        /* \"ehr.sol\":581:586  owner */\n      0x00\n      dup1\n      sload\n      swap1\n      0x0100\n      exp\n      swap1\n      div\n      0xffffffffffffffffffffffffffffffffffffffff\n      and\n        /* \"ehr.sol\":567:586  msg.sender == owner */\n      0xffffffffffffffffffffffffffffffffffffffff\n      and\n        /* \"ehr.sol\":567:577  msg.sender */\n      caller\n        /* \"ehr.sol\":567:586  msg.sender == owner */\n      0xffffffffffffffffffffffffffffffffffffffff\n      and\n      eq\n        /* \"ehr.sol\":559:628  require(msg.sender == owner, \"Only the owner can call this function\") */\n      tag_61\n      jumpi\n      mload(0x40)\n      0x08c379a000000000000000000000000000000000000000000000000000000000\n      dup2\n      mstore\n      0x04\n      add\n      tag_62\n      swap1\n      tag_63\n      jump\t// in\n    tag_62:\n      mload(0x40)\n      dup1\n      swap2\n      sub\n      swap1\n      revert\n    tag_61:\n        /* \"ehr.sol\":1773:1774  0 */\n      0x00\n        /* \"ehr.sol\":1747:1775  _doctorAddress != address(0) */\n      0xffffffffffffffffffffffffffffffffffffffff\n      and\n        /* \"ehr.sol\":1747:1761  _doctorAddress */\n      dup3\n        /* \"ehr.sol\":1747:1775  _doctorAddress != address(0) */\n      0xffffffffffffffffffffffffffffffffffffffff\n      and\n      sub\n        /* \"ehr.sol\":1739:1802  require(_doctorAddress != address(0), \"Invalid doctor address\") */\n      tag_65\n      jumpi\n      mload(0x40)\n      0x08c379a000000000000000000000000000000000000000000000000000000000\n      dup2\n      mstore\n      0x04\n      add\n      tag_66\n      swap1\n      tag_67\n      jump\t// in\n    tag_66:\n      mload(0x40)\n      dup1\n      swap2\n      sub\n      swap1\n      revert\n    tag_65:\n        /* \"ehr.sol\":1833:1834  0 */\n      0x00\n        /* \"ehr.sol\":1820:1830  _patientId */\n      dup2\n        /* \"ehr.sol\":1820:1834  _patientId > 0 */\n      gt\n        /* \"ehr.sol\":1812:1857  require(_patientId > 0, \"Invalid patient ID\") */\n      tag_68\n      jumpi\n      mload(0x40)\n      0x08c379a000000000000000000000000000000000000000000000000000000000\n      dup2\n      mstore\n      0x04\n      add\n      tag_69\n      swap1\n      tag_70\n      jump\t// in\n    tag_69:\n      mload(0x40)\n      dup1\n      swap2\n      sub\n      swap1\n      revert\n    tag_68:\n        /* \"ehr.sol\":1898:1912  _doctorAddress */\n      dup2\n        /* \"ehr.sol\":1868:1883  patientToDoctor */\n      0x02\n        /* \"ehr.sol\":1868:1895  patientToDoctor[_patientId] */\n      0x00\n        /* \"ehr.sol\":1884:1894  _patientId */\n      dup4\n        /* \"ehr.sol\":1868:1895  patientToDoctor[_patientId] */\n      dup2\n      mstore\n      0x20\n      add\n      swap1\n      dup2\n      mstore\n      0x20\n      add\n      0x00\n      keccak256\n      0x00\n        /* \"ehr.sol\":1868:1912  patientToDoctor[_patientId] = _doctorAddress */\n      0x0100\n      exp\n      dup2\n      sload\n      dup2\n      0xffffffffffffffffffffffffffffffffffffffff\n      mul\n      not\n      and\n      swap1\n      dup4\n      0xffffffffffffffffffffffffffffffffffffffff\n      and\n      mul\n      or\n      swap1\n      sstore\n      pop\n        /* \"ehr.sol\":1928:1979  DoctorAssignedToPatient(_doctorAddress, _patientId) */\n      0x244e475093222b8f3c01ffed8531f1e4b3ae9dc04bde5f4cc45aca3a9a0bec0b\n        /* \"ehr.sol\":1952:1966  _doctorAddress */\n      dup3\n        /* \"ehr.sol\":1968:1978  _patientId */\n      dup3\n        /* \"ehr.sol\":1928:1979  DoctorAssignedToPatient(_doctorAddress, _patientId) */\n      mload(0x40)\n      tag_71\n      swap3\n      swap2\n      swap1\n      tag_72\n      jump\t// in\n    tag_71:\n      mload(0x40)\n      dup1\n      swap2\n      sub\n      swap1\n      log1\n        /* \"ehr.sol\":1635:1986  function assignDoctorToPatient(address _doctorAddress, uint256 _patientId) external onlyOwner {... */\n      pop\n      pop\n      jump\t// out\n        /* \"ehr.sol\":3464:3875  function rejectAccessRequest(uint256 _patientId) external onlyOwner {... */\n    tag_22:\n        /* \"ehr.sol\":581:586  owner */\n      0x00\n      dup1\n      sload\n      swap1\n      0x0100\n      exp\n      swap1\n      div\n      0xffffffffffffffffffffffffffffffffffffffff\n      and\n        /* \"ehr.sol\":567:586  msg.sender == owner */\n      0xffffffffffffffffffffffffffffffffffffffff\n      and\n        /* \"ehr.sol\":567:577  msg.sender */\n      caller\n        /* \"ehr.sol\":567:586  msg.sender == owner */\n      0xffffffffffffffffffffffffffffffffffffffff\n      and\n      eq\n        /* \"ehr.sol\":559:628  require(msg.sender == owner, \"Only the owner can call this function\") */\n      tag_74\n      jumpi\n      mload(0x40)\n      0x08c379a000000000000000000000000000000000000000000000000000000000\n      dup2\n      mstore\n      0x04\n      add\n      tag_75\n      swap1\n      tag_63\n      jump\t// in\n    tag_75:\n      mload(0x40)\n      dup1\n      swap2\n      sub\n      swap1\n      revert\n    tag_74:\n        /* \"ehr.sol\":3563:3564  0 */\n      0x00\n        /* \"ehr.sol\":3550:3560  _patientId */\n      dup2\n        /* \"ehr.sol\":3550:3564  _patientId > 0 */\n      gt\n        /* \"ehr.sol\":3542:3587  require(_patientId > 0, \"Invalid patient ID\") */\n      tag_77\n      jumpi\n      mload(0x40)\n      0x08c379a000000000000000000000000000000000000000000000000000000000\n      dup2\n      mstore\n      0x04\n      add\n      tag_78\n      swap1\n      tag_70\n      jump\t// in\n    tag_78:\n      mload(0x40)\n      dup1\n      swap2\n      sub\n      swap1\n      revert\n    tag_77:\n        /* \"ehr.sol\":3598:3627  AccessRequest storage request */\n      0x00\n        /* \"ehr.sol\":3630:3644  accessRequests */\n      0x03\n        /* \"ehr.sol\":3630:3656  accessRequests[_patientId] */\n      0x00\n        /* \"ehr.sol\":3645:3655  _patientId */\n      dup4\n        /* \"ehr.sol\":3630:3656  accessRequests[_patientId] */\n      dup2\n      mstore\n      0x20\n      add\n      swap1\n      dup2\n      mstore\n      0x20\n      add\n      0x00\n      keccak256\n        /* \"ehr.sol\":3598:3656  AccessRequest storage request = accessRequests[_patientId] */\n      swap1\n      pop\n        /* \"ehr.sol\":3692:3713  RequestStatus.Pending */\n      0x00\n        /* \"ehr.sol\":3674:3713  request.status == RequestStatus.Pending */\n      0x02\n      dup2\n      gt\n      iszero\n      tag_79\n      jumpi\n      tag_80\n      tag_81\n      jump\t// in\n    tag_80:\n    tag_79:\n        /* \"ehr.sol\":3674:3681  request */\n      dup2\n        /* \"ehr.sol\":3674:3688  request.status */\n      0x02\n      add\n      0x00\n      swap1\n      sload\n      swap1\n      0x0100\n      exp\n      swap1\n      div\n      0xff\n      and\n        /* \"ehr.sol\":3674:3713  request.status == RequestStatus.Pending */\n      0x02\n      dup2\n      gt\n      iszero\n      tag_82\n      jumpi\n      tag_83\n      tag_81\n      jump\t// in\n    tag_83:\n    tag_82:\n      eq\n        /* \"ehr.sol\":3666:3747  require(request.status == RequestStatus.Pending, \"Access request is not pending\") */\n      tag_84\n      jumpi\n      mload(0x40)\n      0x08c379a000000000000000000000000000000000000000000000000000000000\n      dup2\n      mstore\n      0x04\n      add\n      tag_85\n      swap1\n      tag_86\n      jump\t// in\n    tag_85:\n      mload(0x40)\n      dup1\n      swap2\n      sub\n      swap1\n      revert\n    tag_84:\n        /* \"ehr.sol\":3774:3796  RequestStatus.Rejected */\n      0x02\n        /* \"ehr.sol\":3757:3764  request */\n      dup2\n        /* \"ehr.sol\":3757:3771  request.status */\n      0x02\n      add\n      0x00\n        /* \"ehr.sol\":3757:3796  request.status = RequestStatus.Rejected */\n      0x0100\n      exp\n      dup2\n      sload\n      dup2\n      0xff\n      mul\n      not\n      and\n      swap1\n      dup4\n      0x02\n      dup2\n      gt\n      iszero\n      tag_87\n      jumpi\n      tag_88\n      tag_81\n      jump\t// in\n    tag_88:\n    tag_87:\n      mul\n      or\n      swap1\n      sstore\n      pop\n        /* \"ehr.sol\":3812:3868  AccessRequestRejected(request.doctorAddress, _patientId) */\n      0x4808851069c8cc195aecf6db3c959e9da7b40eab910e6fa70435042811903a8c\n        /* \"ehr.sol\":3834:3841  request */\n      dup2\n        /* \"ehr.sol\":3834:3855  request.doctorAddress */\n      0x00\n      add\n      0x00\n      swap1\n      sload\n      swap1\n      0x0100\n      exp\n      swap1\n      div\n      0xffffffffffffffffffffffffffffffffffffffff\n      and\n        /* \"ehr.sol\":3857:3867  _patientId */\n      dup4\n        /* \"ehr.sol\":3812:3868  AccessRequestRejected(request.doctorAddress, _patientId) */\n      mload(0x40)\n      tag_89\n      swap3\n      swap2\n      swap1\n      tag_72\n      jump\t// in\n    tag_89:\n      mload(0x40)\n      dup1\n      swap2\n      sub\n      swap1\n      log1\n        /* \"ehr.sol\":3532:3875  {... */\n      pop\n        /* \"ehr.sol\":3464:3875  function rejectAccessRequest(uint256 _patientId) external onlyOwner {... */\n      pop\n      jump\t// out\n        /* \"ehr.sol\":2984:3458  function approveAccessRequest(uint256 _patientId) external onlyOwner {... */\n    tag_25:\n        /* \"ehr.sol\":581:586  owner */\n      0x00\n      dup1\n      sload\n      swap1\n      0x0100\n      exp\n      swap1\n      div\n      0xffffffffffffffffffffffffffffffffffffffff\n      and\n        /* \"ehr.sol\":567:586  msg.sender == owner */\n      0xffffffffffffffffffffffffffffffffffffffff\n      and\n        /* \"ehr.sol\":567:577  msg.sender */\n      caller\n        /* \"ehr.sol\":567:586  msg.sender == owner */\n      0xffffffffffffffffffffffffffffffffffffffff\n      and\n      eq\n        /* \"ehr.sol\":559:628  require(msg.sender == owner, \"Only the owner can call this function\") */\n      tag_91\n      jumpi\n      mload(0x40)\n      0x08c379a000000000000000000000000000000000000000000000000000000000\n      dup2\n      mstore\n      0x04\n      add\n      tag_92\n      swap1\n      tag_63\n      jump\t// in\n    tag_92:\n      mload(0x40)\n      dup1\n      swap2\n      sub\n      swap1\n      revert\n    tag_91:\n        /* \"ehr.sol\":3084:3085  0 */\n      0x00\n        /* \"ehr.sol\":3071:3081  _patientId */\n      dup2\n        /* \"ehr.sol\":3071:3085  _patientId > 0 */\n      gt\n        /* \"ehr.sol\":3063:3108  require(_patientId > 0, \"Invalid patient ID\") */\n      tag_94\n      jumpi\n      mload(0x40)\n      0x08c379a000000000000000000000000000000000000000000000000000000000\n      dup2\n      mstore\n      0x04\n      add\n      tag_95\n      swap1\n      tag_70\n      jump\t// in\n    tag_95:\n      mload(0x40)\n      dup1\n      swap2\n      sub\n      swap1\n      revert\n    tag_94:\n        /* \"ehr.sol\":3119:3148  AccessRequest storage request */\n      0x00\n        /* \"ehr.sol\":3151:3165  accessRequests */\n      0x03\n        /* \"ehr.sol\":3151:3177  accessRequests[_patientId] */\n      0x00\n        /* \"ehr.sol\":3166:3176  _patientId */\n      dup4\n        /* \"ehr.sol\":3151:3177  accessRequests[_patientId] */\n      dup2\n      mstore\n      0x20\n      add\n      swap1\n      dup2\n      mstore\n      0x20\n      add\n      0x00\n      keccak256\n        /* \"ehr.sol\":3119:3177  AccessRequest storage request = accessRequests[_patientId] */\n      swap1\n      pop\n        /* \"ehr.sol\":3213:3234  RequestStatus.Pending */\n      0x00\n        /* \"ehr.sol\":3195:3234  request.status == RequestStatus.Pending */\n      0x02\n      dup2\n      gt\n      iszero\n      tag_96\n      jumpi\n      tag_97\n      tag_81\n      jump\t// in\n    tag_97:\n    tag_96:\n        /* \"ehr.sol\":3195:3202  request */\n      dup2\n        /* \"ehr.sol\":3195:3209  request.status */\n      0x02\n      add\n      0x00\n      swap1\n      sload\n      swap1\n      0x0100\n      exp\n      swap1\n      div\n      0xff\n      and\n        /* \"ehr.sol\":3195:3234  request.status == RequestStatus.Pending */\n      0x02\n      dup2\n      gt\n      iszero\n      tag_98\n      jumpi\n      tag_99\n      tag_81\n      jump\t// in\n    tag_99:\n    tag_98:\n      eq\n        /* \"ehr.sol\":3187:3268  require(request.status == RequestStatus.Pending, \"Access request is not pending\") */\n      tag_100\n      jumpi\n      mload(0x40)\n      0x08c379a000000000000000000000000000000000000000000000000000000000\n      dup2\n      mstore\n      0x04\n      add\n      tag_101\n      swap1\n      tag_86\n      jump\t// in\n    tag_101:\n      mload(0x40)\n      dup1\n      swap2\n      sub\n      swap1\n      revert\n    tag_100:\n        /* \"ehr.sol\":3295:3317  RequestStatus.Approved */\n      0x01\n        /* \"ehr.sol\":3278:3285  request */\n      dup2\n        /* \"ehr.sol\":3278:3292  request.status */\n      0x02\n      add\n      0x00\n        /* \"ehr.sol\":3278:3317  request.status = RequestStatus.Approved */\n      0x0100\n      exp\n      dup2\n      sload\n      dup2\n      0xff\n      mul\n      not\n      and\n      swap1\n      dup4\n      0x02\n      dup2\n      gt\n      iszero\n      tag_102\n      jumpi\n      tag_103\n      tag_81\n      jump\t// in\n    tag_103:\n    tag_102:\n      mul\n      or\n      swap1\n      sstore\n      pop\n        /* \"ehr.sol\":3358:3365  request */\n      dup1\n        /* \"ehr.sol\":3358:3379  request.doctorAddress */\n      0x00\n      add\n      0x00\n      swap1\n      sload\n      swap1\n      0x0100\n      exp\n      swap1\n      div\n      0xffffffffffffffffffffffffffffffffffffffff\n      and\n        /* \"ehr.sol\":3328:3343  patientToDoctor */\n      0x02\n        /* \"ehr.sol\":3328:3355  patientToDoctor[_patientId] */\n      0x00\n        /* \"ehr.sol\":3344:3354  _patientId */\n      dup5\n        /* \"ehr.sol\":3328:3355  patientToDoctor[_patientId] */\n      dup2\n      mstore\n      0x20\n      add\n      swap1\n      dup2\n      mstore\n      0x20\n      add\n      0x00\n      keccak256\n      0x00\n        /* \"ehr.sol\":3328:3379  patientToDoctor[_patientId] = request.doctorAddress */\n      0x0100\n      exp\n      dup2\n      sload\n      dup2\n      0xffffffffffffffffffffffffffffffffffffffff\n      mul\n      not\n      and\n      swap1\n      dup4\n      0xffffffffffffffffffffffffffffffffffffffff\n      and\n      mul\n      or\n      swap1\n      sstore\n      pop\n        /* \"ehr.sol\":3395:3451  AccessRequestApproved(request.doctorAddress, _patientId) */\n      0x0ac0275f9eaea68f95d0cf1713b52df59c7c8c29e9f7a77a0a235d326cb84655\n        /* \"ehr.sol\":3417:3424  request */\n      dup2\n        /* \"ehr.sol\":3417:3438  request.doctorAddress */\n      0x00\n      add\n      0x00\n      swap1\n      sload\n      swap1\n      0x0100\n      exp\n      swap1\n      div\n      0xffffffffffffffffffffffffffffffffffffffff\n      and\n        /* \"ehr.sol\":3440:3450  _patientId */\n      dup4\n        /* \"ehr.sol\":3395:3451  AccessRequestApproved(request.doctorAddress, _patientId) */\n      mload(0x40)\n      tag_104\n      swap3\n      swap2\n      swap1\n      tag_72\n      jump\t// in\n    tag_104:\n      mload(0x40)\n      dup1\n      swap2\n      sub\n      swap1\n      log1\n        /* \"ehr.sol\":3053:3458  {... */\n      pop\n        /* \"ehr.sol\":2984:3458  function approveAccessRequest(uint256 _patientId) external onlyOwner {... */\n      pop\n      jump\t// out\n        /* \"ehr.sol\":466:521  mapping(uint256 => AccessRequest) public accessRequests */\n    tag_28:\n      mstore(0x20, 0x03)\n      dup1\n      0x00\n      mstore\n      keccak256(0x00, 0x40)\n      0x00\n      swap2\n      pop\n      swap1\n      pop\n      dup1\n      0x00\n      add\n      0x00\n      swap1\n      sload\n      swap1\n      0x0100\n      exp\n      swap1\n      div\n      0xffffffffffffffffffffffffffffffffffffffff\n      and\n      swap1\n      dup1\n      0x01\n      add\n      sload\n      swap1\n      dup1\n      0x02\n      add\n      0x00\n      swap1\n      sload\n      swap1\n      0x0100\n      exp\n      swap1\n      div\n      0xff\n      and\n      swap1\n      pop\n      dup4\n      jump\t// out\n        /* \"ehr.sol\":79:99  address public owner */\n    tag_32:\n      0x00\n      dup1\n      sload\n      swap1\n      0x0100\n      exp\n      swap1\n      div\n      0xffffffffffffffffffffffffffffffffffffffff\n      and\n      dup2\n      jump\t// out\n        /* \"ehr.sol\":1307:1629  function registerDoctor(string memory _name) external {... */\n    tag_38:\n        /* \"ehr.sol\":1424:1425  0 */\n      0x00\n        /* \"ehr.sol\":1379:1426  doctors[msg.sender].doctorAddress == address(0) */\n      0xffffffffffffffffffffffffffffffffffffffff\n      and\n        /* \"ehr.sol\":1379:1386  doctors */\n      0x01\n        /* \"ehr.sol\":1379:1398  doctors[msg.sender] */\n      0x00\n        /* \"ehr.sol\":1387:1397  msg.sender */\n      caller\n        /* \"ehr.sol\":1379:1398  doctors[msg.sender] */\n      0xffffffffffffffffffffffffffffffffffffffff\n      and\n      0xffffffffffffffffffffffffffffffffffffffff\n      and\n      dup2\n      mstore\n      0x20\n      add\n      swap1\n      dup2\n      mstore\n      0x20\n      add\n      0x00\n      keccak256\n        /* \"ehr.sol\":1379:1412  doctors[msg.sender].doctorAddress */\n      0x01\n      add\n      0x00\n      swap1\n      sload\n      swap1\n      0x0100\n      exp\n      swap1\n      div\n      0xffffffffffffffffffffffffffffffffffffffff\n      and\n        /* \"ehr.sol\":1379:1426  doctors[msg.sender].doctorAddress == address(0) */\n      0xffffffffffffffffffffffffffffffffffffffff\n      and\n      eq\n        /* \"ehr.sol\":1371:1456  require(doctors[msg.sender].doctorAddress == address(0), \"Doctor already registered\") */\n      tag_106\n      jumpi\n      mload(0x40)\n      0x08c379a000000000000000000000000000000000000000000000000000000000\n      dup2\n      mstore\n      0x04\n      add\n      tag_107\n      swap1\n      tag_108\n      jump\t// in\n    tag_107:\n      mload(0x40)\n      dup1\n      swap2\n      sub\n      swap1\n      revert\n    tag_106:\n        /* \"ehr.sol\":1489:1571  Doctor({... */\n      mload(0x40)\n      dup1\n      0x40\n      add\n      0x40\n      mstore\n      dup1\n        /* \"ehr.sol\":1516:1521  _name */\n      dup3\n        /* \"ehr.sol\":1489:1571  Doctor({... */\n      dup2\n      mstore\n      0x20\n      add\n        /* \"ehr.sol\":1550:1560  msg.sender */\n      caller\n        /* \"ehr.sol\":1489:1571  Doctor({... */\n      0xffffffffffffffffffffffffffffffffffffffff\n      and\n      dup2\n      mstore\n      pop\n        /* \"ehr.sol\":1467:1474  doctors */\n      0x01\n        /* \"ehr.sol\":1467:1486  doctors[msg.sender] */\n      0x00\n        /* \"ehr.sol\":1475:1485  msg.sender */\n      caller\n        /* \"ehr.sol\":1467:1486  doctors[msg.sender] */\n      0xffffffffffffffffffffffffffffffffffffffff\n      and\n      0xffffffffffffffffffffffffffffffffffffffff\n      and\n      dup2\n      mstore\n      0x20\n      add\n      swap1\n      dup2\n      mstore\n      0x20\n      add\n      0x00\n      keccak256\n        /* \"ehr.sol\":1467:1571  doctors[msg.sender] = Doctor({... */\n      0x00\n      dup3\n      add\n      mload\n      dup2\n      0x00\n      add\n      swap1\n      dup2\n      tag_109\n      swap2\n      swap1\n      tag_110\n      jump\t// in\n    tag_109:\n      pop\n      0x20\n      dup3\n      add\n      mload\n      dup2\n      0x01\n      add\n      exp(0x0100, 0x00)\n      dup2\n      sload\n      dup2\n      0xffffffffffffffffffffffffffffffffffffffff\n      mul\n      not\n      and\n      swap1\n      dup4\n      0xffffffffffffffffffffffffffffffffffffffff\n      and\n      mul\n      or\n      swap1\n      sstore\n      pop\n      swap1\n      pop\n      pop\n        /* \"ehr.sol\":1587:1622  DoctorRegistered(msg.sender, _name) */\n      0x20481b8112b5bf4734f45a473c373db9df6a79ce946cdc0e7dbc22b4f7d7f986\n        /* \"ehr.sol\":1604:1614  msg.sender */\n      caller\n        /* \"ehr.sol\":1616:1621  _name */\n      dup3\n        /* \"ehr.sol\":1587:1622  DoctorRegistered(msg.sender, _name) */\n      mload(0x40)\n      tag_111\n      swap3\n      swap2\n      swap1\n      tag_112\n      jump\t// in\n    tag_111:\n      mload(0x40)\n      dup1\n      swap2\n      sub\n      swap1\n      log1\n        /* \"ehr.sol\":1307:1629  function registerDoctor(string memory _name) external {... */\n      pop\n      jump\t// out\n        /* \"ehr.sol\":363:404  mapping(address => Doctor) public doctors */\n    tag_42:\n      mstore(0x20, 0x01)\n      dup1\n      0x00\n      mstore\n      keccak256(0x00, 0x40)\n      0x00\n      swap2\n      pop\n      swap1\n      pop\n      dup1\n      0x00\n      add\n      dup1\n      sload\n      tag_113\n      swap1\n      tag_114\n      jump\t// in\n    tag_113:\n      dup1\n      0x1f\n      add\n      0x20\n      dup1\n      swap2\n      div\n      mul\n      0x20\n      add\n      mload(0x40)\n      swap1\n      dup2\n      add\n      0x40\n      mstore\n      dup1\n      swap3\n      swap2\n      swap1\n      dup2\n      dup2\n      mstore\n      0x20\n      add\n      dup3\n      dup1\n      sload\n      tag_115\n      swap1\n      tag_114\n      jump\t// in\n    tag_115:\n      dup1\n      iszero\n      tag_116\n      jumpi\n      dup1\n      0x1f\n      lt\n      tag_117\n      jumpi\n      0x0100\n      dup1\n      dup4\n      sload\n      div\n      mul\n      dup4\n      mstore\n      swap2\n      0x20\n      add\n      swap2\n      jump(tag_116)\n    tag_117:\n      dup3\n      add\n      swap2\n      swap1\n      0x00\n      mstore\n      keccak256(0x00, 0x20)\n      swap1\n    tag_118:\n      dup2\n      sload\n      dup2\n      mstore\n      swap1\n      0x01\n      add\n      swap1\n      0x20\n      add\n      dup1\n      dup4\n      gt\n      tag_118\n      jumpi\n      dup3\n      swap1\n      sub\n      0x1f\n      and\n      dup3\n      add\n      swap2\n    tag_116:\n      pop\n      pop\n      pop\n      pop\n      pop\n      swap1\n      dup1\n      0x01\n      add\n      0x00\n      swap1\n      sload\n      swap1\n      0x0100\n      exp\n      swap1\n      div\n      0xffffffffffffffffffffffffffffffffffffffff\n      and\n      swap1\n      pop\n      dup3\n      jump\t// out\n        /* \"ehr.sol\":2389:2978  function sendAccessRequest(uint256 _patientId) external onlyDoctor {... */\n    tag_47:\n        /* \"ehr.sol\":737:738  0 */\n      0x00\n        /* \"ehr.sol\":692:739  doctors[msg.sender].doctorAddress != address(0) */\n      0xffffffffffffffffffffffffffffffffffffffff\n      and\n        /* \"ehr.sol\":692:699  doctors */\n      0x01\n        /* \"ehr.sol\":692:711  doctors[msg.sender] */\n      0x00\n        /* \"ehr.sol\":700:710  msg.sender */\n      caller\n        /* \"ehr.sol\":692:711  doctors[msg.sender] */\n      0xffffffffffffffffffffffffffffffffffffffff\n      and\n      0xffffffffffffffffffffffffffffffffffffffff\n      and\n      dup2\n      mstore\n      0x20\n      add\n      swap1\n      dup2\n      mstore\n      0x20\n      add\n      0x00\n      keccak256\n        /* \"ehr.sol\":692:725  doctors[msg.sender].doctorAddress */\n      0x01\n      add\n      0x00\n      swap1\n      sload\n      swap1\n      0x0100\n      exp\n      swap1\n      div\n      0xffffffffffffffffffffffffffffffffffffffff\n      and\n        /* \"ehr.sol\":692:739  doctors[msg.sender].doctorAddress != address(0) */\n      0xffffffffffffffffffffffffffffffffffffffff\n      and\n      sub\n        /* \"ehr.sol\":684:792  require(doctors[msg.sender].doctorAddress != address(0), \"Only registered doctors can access this function\") */\n      tag_120\n      jumpi\n      mload(0x40)\n      0x08c379a000000000000000000000000000000000000000000000000000000000\n      dup2\n      mstore\n      0x04\n      add\n      tag_121\n      swap1\n      tag_122\n      jump\t// in\n    tag_121:\n      mload(0x40)\n      dup1\n      swap2\n      sub\n      swap1\n      revert\n    tag_120:\n        /* \"ehr.sol\":2487:2488  0 */\n      0x00\n        /* \"ehr.sol\":2474:2484  _patientId */\n      dup2\n        /* \"ehr.sol\":2474:2488  _patientId > 0 */\n      gt\n        /* \"ehr.sol\":2466:2511  require(_patientId > 0, \"Invalid patient ID\") */\n      tag_124\n      jumpi\n      mload(0x40)\n      0x08c379a000000000000000000000000000000000000000000000000000000000\n      dup2\n      mstore\n      0x04\n      add\n      tag_125\n      swap1\n      tag_70\n      jump\t// in\n    tag_125:\n      mload(0x40)\n      dup1\n      swap2\n      sub\n      swap1\n      revert\n    tag_124:\n        /* \"ehr.sol\":2560:2570  msg.sender */\n      caller\n        /* \"ehr.sol\":2529:2570  patientToDoctor[_patientId] == msg.sender */\n      0xffffffffffffffffffffffffffffffffffffffff\n      and\n        /* \"ehr.sol\":2529:2544  patientToDoctor */\n      0x02\n        /* \"ehr.sol\":2529:2556  patientToDoctor[_patientId] */\n      0x00\n        /* \"ehr.sol\":2545:2555  _patientId */\n      dup4\n        /* \"ehr.sol\":2529:2556  patientToDoctor[_patientId] */\n      dup2\n      mstore\n      0x20\n      add\n      swap1\n      dup2\n      mstore\n      0x20\n      add\n      0x00\n      keccak256\n      0x00\n      swap1\n      sload\n      swap1\n      0x0100\n      exp\n      swap1\n      div\n      0xffffffffffffffffffffffffffffffffffffffff\n      and\n        /* \"ehr.sol\":2529:2570  patientToDoctor[_patientId] == msg.sender */\n      0xffffffffffffffffffffffffffffffffffffffff\n      and\n      eq\n        /* \"ehr.sol\":2521:2611  require(patientToDoctor[_patientId] == msg.sender, \"You are not assigned to this patient\") */\n      tag_126\n      jumpi\n      mload(0x40)\n      0x08c379a000000000000000000000000000000000000000000000000000000000\n      dup2\n      mstore\n      0x04\n      add\n      tag_127\n      swap1\n      tag_128\n      jump\t// in\n    tag_127:\n      mload(0x40)\n      dup1\n      swap2\n      sub\n      swap1\n      revert\n    tag_126:\n        /* \"ehr.sol\":2622:2651  AccessRequest storage request */\n      0x00\n        /* \"ehr.sol\":2654:2668  accessRequests */\n      0x03\n        /* \"ehr.sol\":2654:2680  accessRequests[_patientId] */\n      0x00\n        /* \"ehr.sol\":2669:2679  _patientId */\n      dup4\n        /* \"ehr.sol\":2654:2680  accessRequests[_patientId] */\n      dup2\n      mstore\n      0x20\n      add\n      swap1\n      dup2\n      mstore\n      0x20\n      add\n      0x00\n      keccak256\n        /* \"ehr.sol\":2622:2680  AccessRequest storage request = accessRequests[_patientId] */\n      swap1\n      pop\n        /* \"ehr.sol\":2716:2737  RequestStatus.Pending */\n      0x00\n        /* \"ehr.sol\":2698:2737  request.status == RequestStatus.Pending */\n      0x02\n      dup2\n      gt\n      iszero\n      tag_129\n      jumpi\n      tag_130\n      tag_81\n      jump\t// in\n    tag_130:\n    tag_129:\n        /* \"ehr.sol\":2698:2705  request */\n      dup2\n        /* \"ehr.sol\":2698:2712  request.status */\n      0x02\n      add\n      0x00\n      swap1\n      sload\n      swap1\n      0x0100\n      exp\n      swap1\n      div\n      0xff\n      and\n        /* \"ehr.sol\":2698:2737  request.status == RequestStatus.Pending */\n      0x02\n      dup2\n      gt\n      iszero\n      tag_131\n      jumpi\n      tag_132\n      tag_81\n      jump\t// in\n    tag_132:\n    tag_131:\n      eq\n        /* \"ehr.sol\":2690:2781  require(request.status == RequestStatus.Pending, \"Access request already sent or approved\") */\n      tag_133\n      jumpi\n      mload(0x40)\n      0x08c379a000000000000000000000000000000000000000000000000000000000\n      dup2\n      mstore\n      0x04\n      add\n      tag_134\n      swap1\n      tag_135\n      jump\t// in\n    tag_134:\n      mload(0x40)\n      dup1\n      swap2\n      sub\n      swap1\n      revert\n    tag_133:\n        /* \"ehr.sol\":2816:2826  msg.sender */\n      caller\n        /* \"ehr.sol\":2792:2799  request */\n      dup2\n        /* \"ehr.sol\":2792:2813  request.doctorAddress */\n      0x00\n      add\n      0x00\n        /* \"ehr.sol\":2792:2826  request.doctorAddress = msg.sender */\n      0x0100\n      exp\n      dup2\n      sload\n      dup2\n      0xffffffffffffffffffffffffffffffffffffffff\n      mul\n      not\n      and\n      swap1\n      dup4\n      0xffffffffffffffffffffffffffffffffffffffff\n      and\n      mul\n      or\n      swap1\n      sstore\n      pop\n        /* \"ehr.sol\":2856:2866  _patientId */\n      dup2\n        /* \"ehr.sol\":2836:2843  request */\n      dup2\n        /* \"ehr.sol\":2836:2853  request.patientId */\n      0x01\n      add\n        /* \"ehr.sol\":2836:2866  request.patientId = _patientId */\n      dup2\n      swap1\n      sstore\n      pop\n        /* \"ehr.sol\":2893:2914  RequestStatus.Pending */\n      0x00\n        /* \"ehr.sol\":2876:2883  request */\n      dup2\n        /* \"ehr.sol\":2876:2890  request.status */\n      0x02\n      add\n      0x00\n        /* \"ehr.sol\":2876:2914  request.status = RequestStatus.Pending */\n      0x0100\n      exp\n      dup2\n      sload\n      dup2\n      0xff\n      mul\n      not\n      and\n      swap1\n      dup4\n      0x02\n      dup2\n      gt\n      iszero\n      tag_136\n      jumpi\n      tag_137\n      tag_81\n      jump\t// in\n    tag_137:\n    tag_136:\n      mul\n      or\n      swap1\n      sstore\n      pop\n        /* \"ehr.sol\":2930:2971  AccessRequestSent(msg.sender, _patientId) */\n      0xf82d889b7eb3cf9e1be7d90b5d1e4c34638299a7b73dd3c56460d856b54658c6\n        /* \"ehr.sol\":2948:2958  msg.sender */\n      caller\n        /* \"ehr.sol\":2960:2970  _patientId */\n      dup4\n        /* \"ehr.sol\":2930:2971  AccessRequestSent(msg.sender, _patientId) */\n      mload(0x40)\n      tag_138\n      swap3\n      swap2\n      swap1\n      tag_72\n      jump\t// in\n    tag_138:\n      mload(0x40)\n      dup1\n      swap2\n      sub\n      swap1\n      log1\n        /* \"ehr.sol\":2456:2978  {... */\n      pop\n        /* \"ehr.sol\":2389:2978  function sendAccessRequest(uint256 _patientId) external onlyDoctor {... */\n      pop\n      jump\t// out\n        /* \"ehr.sol\":1992:2383  function revokeDoctorAccessToPatient(uint256 _patientId) external onlyOwner {... */\n    tag_50:\n        /* \"ehr.sol\":581:586  owner */\n      0x00\n      dup1\n      sload\n      swap1\n      0x0100\n      exp\n      swap1\n      div\n      0xffffffffffffffffffffffffffffffffffffffff\n      and\n        /* \"ehr.sol\":567:586  msg.sender == owner */\n      0xffffffffffffffffffffffffffffffffffffffff\n      and\n        /* \"ehr.sol\":567:577  msg.sender */\n      caller\n        /* \"ehr.sol\":567:586  msg.sender == owner */\n      0xffffffffffffffffffffffffffffffffffffffff\n      and\n      eq\n        /* \"ehr.sol\":559:628  require(msg.sender == owner, \"Only the owner can call this function\") */\n      tag_140\n      jumpi\n      mload(0x40)\n      0x08c379a000000000000000000000000000000000000000000000000000000000\n      dup2\n      mstore\n      0x04\n      add\n      tag_141\n      swap1\n      tag_63\n      jump\t// in\n    tag_141:\n      mload(0x40)\n      dup1\n      swap2\n      sub\n      swap1\n      revert\n    tag_140:\n        /* \"ehr.sol\":2099:2100  0 */\n      0x00\n        /* \"ehr.sol\":2086:2096  _patientId */\n      dup2\n        /* \"ehr.sol\":2086:2100  _patientId > 0 */\n      gt\n        /* \"ehr.sol\":2078:2123  require(_patientId > 0, \"Invalid patient ID\") */\n      tag_143\n      jumpi\n      mload(0x40)\n      0x08c379a000000000000000000000000000000000000000000000000000000000\n      dup2\n      mstore\n      0x04\n      add\n      tag_144\n      swap1\n      tag_70\n      jump\t// in\n    tag_144:\n      mload(0x40)\n      dup1\n      swap2\n      sub\n      swap1\n      revert\n    tag_143:\n        /* \"ehr.sol\":2134:2155  address doctorAddress */\n      0x00\n        /* \"ehr.sol\":2158:2173  patientToDoctor */\n      0x02\n        /* \"ehr.sol\":2158:2185  patientToDoctor[_patientId] */\n      0x00\n        /* \"ehr.sol\":2174:2184  _patientId */\n      dup4\n        /* \"ehr.sol\":2158:2185  patientToDoctor[_patientId] */\n      dup2\n      mstore\n      0x20\n      add\n      swap1\n      dup2\n      mstore\n      0x20\n      add\n      0x00\n      keccak256\n      0x00\n      swap1\n      sload\n      swap1\n      0x0100\n      exp\n      swap1\n      div\n      0xffffffffffffffffffffffffffffffffffffffff\n      and\n        /* \"ehr.sol\":2134:2185  address doctorAddress = patientToDoctor[_patientId] */\n      swap1\n      pop\n        /* \"ehr.sol\":2228:2229  0 */\n      0x00\n        /* \"ehr.sol\":2203:2230  doctorAddress != address(0) */\n      0xffffffffffffffffffffffffffffffffffffffff\n      and\n        /* \"ehr.sol\":2203:2216  doctorAddress */\n      dup2\n        /* \"ehr.sol\":2203:2230  doctorAddress != address(0) */\n      0xffffffffffffffffffffffffffffffffffffffff\n      and\n      sub\n        /* \"ehr.sol\":2195:2269  require(doctorAddress != address(0), \"No doctor assigned to this patient\") */\n      tag_145\n      jumpi\n      mload(0x40)\n      0x08c379a000000000000000000000000000000000000000000000000000000000\n      dup2\n      mstore\n      0x04\n      add\n      tag_146\n      swap1\n      tag_147\n      jump\t// in\n    tag_146:\n      mload(0x40)\n      dup1\n      swap2\n      sub\n      swap1\n      revert\n    tag_145:\n        /* \"ehr.sol\":2287:2302  patientToDoctor */\n      0x02\n        /* \"ehr.sol\":2287:2314  patientToDoctor[_patientId] */\n      0x00\n        /* \"ehr.sol\":2303:2313  _patientId */\n      dup4\n        /* \"ehr.sol\":2287:2314  patientToDoctor[_patientId] */\n      dup2\n      mstore\n      0x20\n      add\n      swap1\n      dup2\n      mstore\n      0x20\n      add\n      0x00\n      keccak256\n      0x00\n        /* \"ehr.sol\":2280:2314  delete patientToDoctor[_patientId] */\n      0x0100\n      exp\n      dup2\n      sload\n      swap1\n      0xffffffffffffffffffffffffffffffffffffffff\n      mul\n      not\n      and\n      swap1\n      sstore\n        /* \"ehr.sol\":2330:2376  DoctorAccessRevoked(doctorAddress, _patientId) */\n      0x29b9cf4cf99649fc226b110c01d607258e50e9405cc00b66c37d2c457bc955d3\n        /* \"ehr.sol\":2350:2363  doctorAddress */\n      dup2\n        /* \"ehr.sol\":2365:2375  _patientId */\n      dup4\n        /* \"ehr.sol\":2330:2376  DoctorAccessRevoked(doctorAddress, _patientId) */\n      mload(0x40)\n      tag_148\n      swap3\n      swap2\n      swap1\n      tag_72\n      jump\t// in\n    tag_148:\n      mload(0x40)\n      dup1\n      swap2\n      sub\n      swap1\n      log1\n        /* \"ehr.sol\":2068:2383  {... */\n      pop\n        /* \"ehr.sol\":1992:2383  function revokeDoctorAccessToPatient(uint256 _patientId) external onlyOwner {... */\n      pop\n      jump\t// out\n        /* \"ehr.sol\":410:460  mapping(uint256 => address) public patientToDoctor */\n    tag_53:\n      mstore(0x20, 0x02)\n      dup1\n      0x00\n      mstore\n      keccak256(0x00, 0x40)\n      0x00\n      swap2\n      pop\n      sload\n      swap1\n      0x0100\n      exp\n      swap1\n      div\n      0xffffffffffffffffffffffffffffffffffffffff\n      and\n      dup2\n      jump\t// out\n        /* \"ehr.sol\":3881:4028  function getAccessRequestStatus(uint256 _patientId) external view returns (RequestStatus) {... */\n    tag_57:\n        /* \"ehr.sol\":3956:3969  RequestStatus */\n      0x00\n        /* \"ehr.sol\":3988:4002  accessRequests */\n      0x03\n        /* \"ehr.sol\":3988:4014  accessRequests[_patientId] */\n      0x00\n        /* \"ehr.sol\":4003:4013  _patientId */\n      dup4\n        /* \"ehr.sol\":3988:4014  accessRequests[_patientId] */\n      dup2\n      mstore\n      0x20\n      add\n      swap1\n      dup2\n      mstore\n      0x20\n      add\n      0x00\n      keccak256\n        /* \"ehr.sol\":3988:4021  accessRequests[_patientId].status */\n      0x02\n      add\n      0x00\n      swap1\n      sload\n      swap1\n      0x0100\n      exp\n      swap1\n      div\n      0xff\n      and\n        /* \"ehr.sol\":3981:4021  return accessRequests[_patientId].status */\n      swap1\n      pop\n        /* \"ehr.sol\":3881:4028  function getAccessRequestStatus(uint256 _patientId) external view returns (RequestStatus) {... */\n      swap2\n      swap1\n      pop\n      jump\t// out\n        /* \"#utility.yul\":7:82   */\n    tag_150:\n        /* \"#utility.yul\":40:46   */\n      0x00\n        /* \"#utility.yul\":73:75   */\n      0x40\n        /* \"#utility.yul\":67:76   */\n      mload\n        /* \"#utility.yul\":57:76   */\n      swap1\n      pop\n        /* \"#utility.yul\":7:82   */\n      swap1\n      jump\t// out\n        /* \"#utility.yul\":88:205   */\n    tag_151:\n        /* \"#utility.yul\":197:198   */\n      0x00\n        /* \"#utility.yul\":194:195   */\n      dup1\n        /* \"#utility.yul\":187:199   */\n      revert\n        /* \"#utility.yul\":211:328   */\n    tag_152:\n        /* \"#utility.yul\":320:321   */\n      0x00\n        /* \"#utility.yul\":317:318   */\n      dup1\n        /* \"#utility.yul\":310:322   */\n      revert\n        /* \"#utility.yul\":334:460   */\n    tag_153:\n        /* \"#utility.yul\":371:378   */\n      0x00\n        /* \"#utility.yul\":411:453   */\n      0xffffffffffffffffffffffffffffffffffffffff\n        /* \"#utility.yul\":404:409   */\n      dup3\n        /* \"#utility.yul\":400:454   */\n      and\n        /* \"#utility.yul\":389:454   */\n      swap1\n      pop\n        /* \"#utility.yul\":334:460   */\n      swap2\n      swap1\n      pop\n      jump\t// out\n        /* \"#utility.yul\":466:562   */\n    tag_154:\n        /* \"#utility.yul\":503:510   */\n      0x00\n        /* \"#utility.yul\":532:556   */\n      tag_220\n        /* \"#utility.yul\":550:555   */\n      dup3\n        /* \"#utility.yul\":532:556   */\n      tag_153\n      jump\t// in\n    tag_220:\n        /* \"#utility.yul\":521:556   */\n      swap1\n      pop\n        /* \"#utility.yul\":466:562   */\n      swap2\n      swap1\n      pop\n      jump\t// out\n        /* \"#utility.yul\":568:690   */\n    tag_155:\n        /* \"#utility.yul\":641:665   */\n      tag_222\n        /* \"#utility.yul\":659:664   */\n      dup2\n        /* \"#utility.yul\":641:665   */\n      tag_154\n      jump\t// in\n    tag_222:\n        /* \"#utility.yul\":634:639   */\n      dup2\n        /* \"#utility.yul\":631:666   */\n      eq\n        /* \"#utility.yul\":621:684   */\n      tag_223\n      jumpi\n        /* \"#utility.yul\":680:681   */\n      0x00\n        /* \"#utility.yul\":677:678   */\n      dup1\n        /* \"#utility.yul\":670:682   */\n      revert\n        /* \"#utility.yul\":621:684   */\n    tag_223:\n        /* \"#utility.yul\":568:690   */\n      pop\n      jump\t// out\n        /* \"#utility.yul\":696:835   */\n    tag_156:\n        /* \"#utility.yul\":742:747   */\n      0x00\n        /* \"#utility.yul\":780:786   */\n      dup2\n        /* \"#utility.yul\":767:787   */\n      calldataload\n        /* \"#utility.yul\":758:787   */\n      swap1\n      pop\n        /* \"#utility.yul\":796:829   */\n      tag_225\n        /* \"#utility.yul\":823:828   */\n      dup2\n        /* \"#utility.yul\":796:829   */\n      tag_155\n      jump\t// in\n    tag_225:\n        /* \"#utility.yul\":696:835   */\n      swap3\n      swap2\n      pop\n      pop\n      jump\t// out\n        /* \"#utility.yul\":841:918   */\n    tag_157:\n        /* \"#utility.yul\":878:885   */\n      0x00\n        /* \"#utility.yul\":907:912   */\n      dup2\n        /* \"#utility.yul\":896:912   */\n      swap1\n      pop\n        /* \"#utility.yul\":841:918   */\n      swap2\n      swap1\n      pop\n      jump\t// out\n        /* \"#utility.yul\":924:1046   */\n    tag_158:\n        /* \"#utility.yul\":997:1021   */\n      tag_228\n        /* \"#utility.yul\":1015:1020   */\n      dup2\n        /* \"#utility.yul\":997:1021   */\n      tag_157\n      jump\t// in\n    tag_228:\n        /* \"#utility.yul\":990:995   */\n      dup2\n        /* \"#utility.yul\":987:1022   */\n      eq\n        /* \"#utility.yul\":977:1040   */\n      tag_229\n      jumpi\n        /* \"#utility.yul\":1036:1037   */\n      0x00\n        /* \"#utility.yul\":1033:1034   */\n      dup1\n        /* \"#utility.yul\":1026:1038   */\n      revert\n        /* \"#utility.yul\":977:1040   */\n    tag_229:\n        /* \"#utility.yul\":924:1046   */\n      pop\n      jump\t// out\n        /* \"#utility.yul\":1052:1191   */\n    tag_159:\n        /* \"#utility.yul\":1098:1103   */\n      0x00\n        /* \"#utility.yul\":1136:1142   */\n      dup2\n        /* \"#utility.yul\":1123:1143   */\n      calldataload\n        /* \"#utility.yul\":1114:1143   */\n      swap1\n      pop\n        /* \"#utility.yul\":1152:1185   */\n      tag_231\n        /* \"#utility.yul\":1179:1184   */\n      dup2\n        /* \"#utility.yul\":1152:1185   */\n      tag_158\n      jump\t// in\n    tag_231:\n        /* \"#utility.yul\":1052:1191   */\n      swap3\n      swap2\n      pop\n      pop\n      jump\t// out\n        /* \"#utility.yul\":1197:1671   */\n    tag_17:\n        /* \"#utility.yul\":1265:1271   */\n      0x00\n        /* \"#utility.yul\":1273:1279   */\n      dup1\n        /* \"#utility.yul\":1322:1324   */\n      0x40\n        /* \"#utility.yul\":1310:1319   */\n      dup4\n        /* \"#utility.yul\":1301:1308   */\n      dup6\n        /* \"#utility.yul\":1297:1320   */\n      sub\n        /* \"#utility.yul\":1293:1325   */\n      slt\n        /* \"#utility.yul\":1290:1409   */\n      iszero\n      tag_233\n      jumpi\n        /* \"#utility.yul\":1328:1407   */\n      tag_234\n      tag_151\n      jump\t// in\n    tag_234:\n        /* \"#utility.yul\":1290:1409   */\n    tag_233:\n        /* \"#utility.yul\":1448:1449   */\n      0x00\n        /* \"#utility.yul\":1473:1526   */\n      tag_235\n        /* \"#utility.yul\":1518:1525   */\n      dup6\n        /* \"#utility.yul\":1509:1515   */\n      dup3\n        /* \"#utility.yul\":1498:1507   */\n      dup7\n        /* \"#utility.yul\":1494:1516   */\n      add\n        /* \"#utility.yul\":1473:1526   */\n      tag_156\n      jump\t// in\n    tag_235:\n        /* \"#utility.yul\":1463:1526   */\n      swap3\n      pop\n        /* \"#utility.yul\":1419:1536   */\n      pop\n        /* \"#utility.yul\":1575:1577   */\n      0x20\n        /* \"#utility.yul\":1601:1654   */\n      tag_236\n        /* \"#utility.yul\":1646:1653   */\n      dup6\n        /* \"#utility.yul\":1637:1643   */\n      dup3\n        /* \"#utility.yul\":1626:1635   */\n      dup7\n        /* \"#utility.yul\":1622:1644   */\n      add\n        /* \"#utility.yul\":1601:1654   */\n      tag_159\n      jump\t// in\n    tag_236:\n        /* \"#utility.yul\":1591:1654   */\n      swap2\n      pop\n        /* \"#utility.yul\":1546:1664   */\n      pop\n        /* \"#utility.yul\":1197:1671   */\n      swap3\n      pop\n      swap3\n      swap1\n      pop\n      jump\t// out\n        /* \"#utility.yul\":1677:2006   */\n    tag_21:\n        /* \"#utility.yul\":1736:1742   */\n      0x00\n        /* \"#utility.yul\":1785:1787   */\n      0x20\n        /* \"#utility.yul\":1773:1782   */\n      dup3\n        /* \"#utility.yul\":1764:1771   */\n      dup5\n        /* \"#utility.yul\":1760:1783   */\n      sub\n        /* \"#utility.yul\":1756:1788   */\n      slt\n        /* \"#utility.yul\":1753:1872   */\n      iszero\n      tag_238\n      jumpi\n        /* \"#utility.yul\":1791:1870   */\n      tag_239\n      tag_151\n      jump\t// in\n    tag_239:\n        /* \"#utility.yul\":1753:1872   */\n    tag_238:\n        /* \"#utility.yul\":1911:1912   */\n      0x00\n        /* \"#utility.yul\":1936:1989   */\n      tag_240\n        /* \"#utility.yul\":1981:1988   */\n      dup5\n        /* \"#utility.yul\":1972:1978   */\n      dup3\n        /* \"#utility.yul\":1961:1970   */\n      dup6\n        /* \"#utility.yul\":1957:1979   */\n      add\n        /* \"#utility.yul\":1936:1989   */\n      tag_159\n      jump\t// in\n    tag_240:\n        /* \"#utility.yul\":1926:1989   */\n      swap2\n      pop\n        /* \"#utility.yul\":1882:1999   */\n      pop\n        /* \"#utility.yul\":1677:2006   */\n      swap3\n      swap2\n      pop\n      pop\n      jump\t// out\n        /* \"#utility.yul\":2012:2130   */\n    tag_160:\n        /* \"#utility.yul\":2099:2123   */\n      tag_242\n        /* \"#utility.yul\":2117:2122   */\n      dup2\n        /* \"#utility.yul\":2099:2123   */\n      tag_154\n      jump\t// in\n    tag_242:\n        /* \"#utility.yul\":2094:2097   */\n      dup3\n        /* \"#utility.yul\":2087:2124   */\n      mstore\n        /* \"#utility.yul\":2012:2130   */\n      pop\n      pop\n      jump\t// out\n        /* \"#utility.yul\":2136:2254   */\n    tag_161:\n        /* \"#utility.yul\":2223:2247   */\n      tag_244\n        /* \"#utility.yul\":2241:2246   */\n      dup2\n        /* \"#utility.yul\":2223:2247   */\n      tag_157\n      jump\t// in\n    tag_244:\n        /* \"#utility.yul\":2218:2221   */\n      dup3\n        /* \"#utility.yul\":2211:2248   */\n      mstore\n        /* \"#utility.yul\":2136:2254   */\n      pop\n      pop\n      jump\t// out\n        /* \"#utility.yul\":2260:2440   */\n    tag_81:\n        /* \"#utility.yul\":2308:2385   */\n      0x4e487b7100000000000000000000000000000000000000000000000000000000\n        /* \"#utility.yul\":2305:2306   */\n      0x00\n        /* \"#utility.yul\":2298:2386   */\n      mstore\n        /* \"#utility.yul\":2405:2409   */\n      0x21\n        /* \"#utility.yul\":2402:2403   */\n      0x04\n        /* \"#utility.yul\":2395:2410   */\n      mstore\n        /* \"#utility.yul\":2429:2433   */\n      0x24\n        /* \"#utility.yul\":2426:2427   */\n      0x00\n        /* \"#utility.yul\":2419:2434   */\n      revert\n        /* \"#utility.yul\":2446:2566   */\n    tag_162:\n        /* \"#utility.yul\":2534:2535   */\n      0x03\n        /* \"#utility.yul\":2527:2532   */\n      dup2\n        /* \"#utility.yul\":2524:2536   */\n      lt\n        /* \"#utility.yul\":2514:2560   */\n      tag_247\n      jumpi\n        /* \"#utility.yul\":2540:2558   */\n      tag_248\n      tag_81\n      jump\t// in\n    tag_248:\n        /* \"#utility.yul\":2514:2560   */\n    tag_247:\n        /* \"#utility.yul\":2446:2566   */\n      pop\n      jump\t// out\n        /* \"#utility.yul\":2572:2713   */\n    tag_163:\n        /* \"#utility.yul\":2624:2631   */\n      0x00\n        /* \"#utility.yul\":2653:2658   */\n      dup2\n        /* \"#utility.yul\":2642:2658   */\n      swap1\n      pop\n        /* \"#utility.yul\":2659:2707   */\n      tag_250\n        /* \"#utility.yul\":2701:2706   */\n      dup3\n        /* \"#utility.yul\":2659:2707   */\n      tag_162\n      jump\t// in\n    tag_250:\n        /* \"#utility.yul\":2572:2713   */\n      swap2\n      swap1\n      pop\n      jump\t// out\n        /* \"#utility.yul\":2719:2860   */\n    tag_164:\n        /* \"#utility.yul\":2782:2791   */\n      0x00\n        /* \"#utility.yul\":2815:2854   */\n      tag_252\n        /* \"#utility.yul\":2848:2853   */\n      dup3\n        /* \"#utility.yul\":2815:2854   */\n      tag_163\n      jump\t// in\n    tag_252:\n        /* \"#utility.yul\":2802:2854   */\n      swap1\n      pop\n        /* \"#utility.yul\":2719:2860   */\n      swap2\n      swap1\n      pop\n      jump\t// out\n        /* \"#utility.yul\":2866:3023   */\n    tag_165:\n        /* \"#utility.yul\":2966:3016   */\n      tag_254\n        /* \"#utility.yul\":3010:3015   */\n      dup2\n        /* \"#utility.yul\":2966:3016   */\n      tag_164\n      jump\t// in\n    tag_254:\n        /* \"#utility.yul\":2961:2964   */\n      dup3\n        /* \"#utility.yul\":2954:3017   */\n      mstore\n        /* \"#utility.yul\":2866:3023   */\n      pop\n      pop\n      jump\t// out\n        /* \"#utility.yul\":3029:3497   */\n    tag_30:\n        /* \"#utility.yul\":3191:3195   */\n      0x00\n        /* \"#utility.yul\":3229:3231   */\n      0x60\n        /* \"#utility.yul\":3218:3227   */\n      dup3\n        /* \"#utility.yul\":3214:3232   */\n      add\n        /* \"#utility.yul\":3206:3232   */\n      swap1\n      pop\n        /* \"#utility.yul\":3242:3313   */\n      tag_256\n        /* \"#utility.yul\":3310:3311   */\n      0x00\n        /* \"#utility.yul\":3299:3308   */\n      dup4\n        /* \"#utility.yul\":3295:3312   */\n      add\n        /* \"#utility.yul\":3286:3292   */\n      dup7\n        /* \"#utility.yul\":3242:3313   */\n      tag_160\n      jump\t// in\n    tag_256:\n        /* \"#utility.yul\":3323:3395   */\n      tag_257\n        /* \"#utility.yul\":3391:3393   */\n      0x20\n        /* \"#utility.yul\":3380:3389   */\n      dup4\n        /* \"#utility.yul\":3376:3394   */\n      add\n        /* \"#utility.yul\":3367:3373   */\n      dup6\n        /* \"#utility.yul\":3323:3395   */\n      tag_161\n      jump\t// in\n    tag_257:\n        /* \"#utility.yul\":3405:3490   */\n      tag_258\n        /* \"#utility.yul\":3486:3488   */\n      0x40\n        /* \"#utility.yul\":3475:3484   */\n      dup4\n        /* \"#utility.yul\":3471:3489   */\n      add\n        /* \"#utility.yul\":3462:3468   */\n      dup5\n        /* \"#utility.yul\":3405:3490   */\n      tag_165\n      jump\t// in\n    tag_258:\n        /* \"#utility.yul\":3029:3497   */\n      swap5\n      swap4\n      pop\n      pop\n      pop\n      pop\n      jump\t// out\n        /* \"#utility.yul\":3503:3725   */\n    tag_34:\n        /* \"#utility.yul\":3596:3600   */\n      0x00\n        /* \"#utility.yul\":3634:3636   */\n      0x20\n        /* \"#utility.yul\":3623:3632   */\n      dup3\n        /* \"#utility.yul\":3619:3637   */\n      add\n        /* \"#utility.yul\":3611:3637   */\n      swap1\n      pop\n        /* \"#utility.yul\":3647:3718   */\n      tag_260\n        /* \"#utility.yul\":3715:3716   */\n      0x00\n        /* \"#utility.yul\":3704:3713   */\n      dup4\n        /* \"#utility.yul\":3700:3717   */\n      add\n        /* \"#utility.yul\":3691:3697   */\n      dup5\n        /* \"#utility.yul\":3647:3718   */\n      tag_160\n      jump\t// in\n    tag_260:\n        /* \"#utility.yul\":3503:3725   */\n      swap3\n      swap2\n      pop\n      pop\n      jump\t// out\n        /* \"#utility.yul\":3731:3848   */\n    tag_166:\n        /* \"#utility.yul\":3840:3841   */\n      0x00\n        /* \"#utility.yul\":3837:3838   */\n      dup1\n        /* \"#utility.yul\":3830:3842   */\n      revert\n        /* \"#utility.yul\":3854:3971   */\n    tag_167:\n        /* \"#utility.yul\":3963:3964   */\n      0x00\n        /* \"#utility.yul\":3960:3961   */\n      dup1\n        /* \"#utility.yul\":3953:3965   */\n      revert\n        /* \"#utility.yul\":3977:4079   */\n    tag_168:\n        /* \"#utility.yul\":4018:4024   */\n      0x00\n        /* \"#utility.yul\":4069:4071   */\n      0x1f\n        /* \"#utility.yul\":4065:4072   */\n      not\n        /* \"#utility.yul\":4060:4062   */\n      0x1f\n        /* \"#utility.yul\":4053:4058   */\n      dup4\n        /* \"#utility.yul\":4049:4063   */\n      add\n        /* \"#utility.yul\":4045:4073   */\n      and\n        /* \"#utility.yul\":4035:4073   */\n      swap1\n      pop\n        /* \"#utility.yul\":3977:4079   */\n      swap2\n      swap1\n      pop\n      jump\t// out\n        /* \"#utility.yul\":4085:4265   */\n    tag_169:\n        /* \"#utility.yul\":4133:4210   */\n      0x4e487b7100000000000000000000000000000000000000000000000000000000\n        /* \"#utility.yul\":4130:4131   */\n      0x00\n        /* \"#utility.yul\":4123:4211   */\n      mstore\n        /* \"#utility.yul\":4230:4234   */\n      0x41\n        /* \"#utility.yul\":4227:4228   */\n      0x04\n        /* \"#utility.yul\":4220:4235   */\n      mstore\n        /* \"#utility.yul\":4254:4258   */\n      0x24\n        /* \"#utility.yul\":4251:4252   */\n      0x00\n        /* \"#utility.yul\":4244:4259   */\n      revert\n        /* \"#utility.yul\":4271:4552   */\n    tag_170:\n        /* \"#utility.yul\":4354:4381   */\n      tag_266\n        /* \"#utility.yul\":4376:4380   */\n      dup3\n        /* \"#utility.yul\":4354:4381   */\n      tag_168\n      jump\t// in\n    tag_266:\n        /* \"#utility.yul\":4346:4352   */\n      dup2\n        /* \"#utility.yul\":4342:4382   */\n      add\n        /* \"#utility.yul\":4484:4490   */\n      dup2\n        /* \"#utility.yul\":4472:4482   */\n      dup2\n        /* \"#utility.yul\":4469:4491   */\n      lt\n        /* \"#utility.yul\":4448:4466   */\n      0xffffffffffffffff\n        /* \"#utility.yul\":4436:4446   */\n      dup3\n        /* \"#utility.yul\":4433:4467   */\n      gt\n        /* \"#utility.yul\":4430:4492   */\n      or\n        /* \"#utility.yul\":4427:4515   */\n      iszero\n      tag_267\n      jumpi\n        /* \"#utility.yul\":4495:4513   */\n      tag_268\n      tag_169\n      jump\t// in\n    tag_268:\n        /* \"#utility.yul\":4427:4515   */\n    tag_267:\n        /* \"#utility.yul\":4535:4545   */\n      dup1\n        /* \"#utility.yul\":4531:4533   */\n      0x40\n        /* \"#utility.yul\":4524:4546   */\n      mstore\n        /* \"#utility.yul\":4314:4552   */\n      pop\n        /* \"#utility.yul\":4271:4552   */\n      pop\n      pop\n      jump\t// out\n        /* \"#utility.yul\":4558:4687   */\n    tag_171:\n        /* \"#utility.yul\":4592:4598   */\n      0x00\n        /* \"#utility.yul\":4619:4639   */\n      tag_270\n      tag_150\n      jump\t// in\n    tag_270:\n        /* \"#utility.yul\":4609:4639   */\n      swap1\n      pop\n        /* \"#utility.yul\":4648:4681   */\n      tag_271\n        /* \"#utility.yul\":4676:4680   */\n      dup3\n        /* \"#utility.yul\":4668:4674   */\n      dup3\n        /* \"#utility.yul\":4648:4681   */\n      tag_170\n      jump\t// in\n    tag_271:\n        /* \"#utility.yul\":4558:4687   */\n      swap2\n      swap1\n      pop\n      jump\t// out\n        /* \"#utility.yul\":4693:5001   */\n    tag_172:\n        /* \"#utility.yul\":4755:4759   */\n      0x00\n        /* \"#utility.yul\":4845:4863   */\n      0xffffffffffffffff\n        /* \"#utility.yul\":4837:4843   */\n      dup3\n        /* \"#utility.yul\":4834:4864   */\n      gt\n        /* \"#utility.yul\":4831:4887   */\n      iszero\n      tag_273\n      jumpi\n        /* \"#utility.yul\":4867:4885   */\n      tag_274\n      tag_169\n      jump\t// in\n    tag_274:\n        /* \"#utility.yul\":4831:4887   */\n    tag_273:\n        /* \"#utility.yul\":4905:4934   */\n      tag_275\n        /* \"#utility.yul\":4927:4933   */\n      dup3\n        /* \"#utility.yul\":4905:4934   */\n      tag_168\n      jump\t// in\n    tag_275:\n        /* \"#utility.yul\":4897:4934   */\n      swap1\n      pop\n        /* \"#utility.yul\":4989:4993   */\n      0x20\n        /* \"#utility.yul\":4983:4987   */\n      dup2\n        /* \"#utility.yul\":4979:4994   */\n      add\n        /* \"#utility.yul\":4971:4994   */\n      swap1\n      pop\n        /* \"#utility.yul\":4693:5001   */\n      swap2\n      swap1\n      pop\n      jump\t// out\n        /* \"#utility.yul\":5007:5153   */\n    tag_173:\n        /* \"#utility.yul\":5104:5110   */\n      dup3\n        /* \"#utility.yul\":5099:5102   */\n      dup2\n        /* \"#utility.yul\":5094:5097   */\n      dup4\n        /* \"#utility.yul\":5081:5111   */\n      calldatacopy\n        /* \"#utility.yul\":5145:5146   */\n      0x00\n        /* \"#utility.yul\":5136:5142   */\n      dup4\n        /* \"#utility.yul\":5131:5134   */\n      dup4\n        /* \"#utility.yul\":5127:5143   */\n      add\n        /* \"#utility.yul\":5120:5147   */\n      mstore\n        /* \"#utility.yul\":5007:5153   */\n      pop\n      pop\n      pop\n      jump\t// out\n        /* \"#utility.yul\":5159:5584   */\n    tag_174:\n        /* \"#utility.yul\":5237:5242   */\n      0x00\n        /* \"#utility.yul\":5262:5328   */\n      tag_278\n        /* \"#utility.yul\":5278:5327   */\n      tag_279\n        /* \"#utility.yul\":5320:5326   */\n      dup5\n        /* \"#utility.yul\":5278:5327   */\n      tag_172\n      jump\t// in\n    tag_279:\n        /* \"#utility.yul\":5262:5328   */\n      tag_171\n      jump\t// in\n    tag_278:\n        /* \"#utility.yul\":5253:5328   */\n      swap1\n      pop\n        /* \"#utility.yul\":5351:5357   */\n      dup3\n        /* \"#utility.yul\":5344:5349   */\n      dup2\n        /* \"#utility.yul\":5337:5358   */\n      mstore\n        /* \"#utility.yul\":5389:5393   */\n      0x20\n        /* \"#utility.yul\":5382:5387   */\n      dup2\n        /* \"#utility.yul\":5378:5394   */\n      add\n        /* \"#utility.yul\":5427:5430   */\n      dup5\n        /* \"#utility.yul\":5418:5424   */\n      dup5\n        /* \"#utility.yul\":5413:5416   */\n      dup5\n        /* \"#utility.yul\":5409:5425   */\n      add\n        /* \"#utility.yul\":5406:5431   */\n      gt\n        /* \"#utility.yul\":5403:5515   */\n      iszero\n      tag_280\n      jumpi\n        /* \"#utility.yul\":5434:5513   */\n      tag_281\n      tag_167\n      jump\t// in\n    tag_281:\n        /* \"#utility.yul\":5403:5515   */\n    tag_280:\n        /* \"#utility.yul\":5524:5578   */\n      tag_282\n        /* \"#utility.yul\":5571:5577   */\n      dup5\n        /* \"#utility.yul\":5566:5569   */\n      dup3\n        /* \"#utility.yul\":5561:5564   */\n      dup6\n        /* \"#utility.yul\":5524:5578   */\n      tag_173\n      jump\t// in\n    tag_282:\n        /* \"#utility.yul\":5243:5584   */\n      pop\n        /* \"#utility.yul\":5159:5584   */\n      swap4\n      swap3\n      pop\n      pop\n      pop\n      jump\t// out\n        /* \"#utility.yul\":5604:5944   */\n    tag_175:\n        /* \"#utility.yul\":5660:5665   */\n      0x00\n        /* \"#utility.yul\":5709:5712   */\n      dup3\n        /* \"#utility.yul\":5702:5706   */\n      0x1f\n        /* \"#utility.yul\":5694:5700   */\n      dup4\n        /* \"#utility.yul\":5690:5707   */\n      add\n        /* \"#utility.yul\":5686:5713   */\n      slt\n        /* \"#utility.yul\":5676:5798   */\n      tag_284\n      jumpi\n        /* \"#utility.yul\":5717:5796   */\n      tag_285\n      tag_166\n      jump\t// in\n    tag_285:\n        /* \"#utility.yul\":5676:5798   */\n    tag_284:\n        /* \"#utility.yul\":5834:5840   */\n      dup2\n        /* \"#utility.yul\":5821:5841   */\n      calldataload\n        /* \"#utility.yul\":5859:5938   */\n      tag_286\n        /* \"#utility.yul\":5934:5937   */\n      dup5\n        /* \"#utility.yul\":5926:5932   */\n      dup3\n        /* \"#utility.yul\":5919:5923   */\n      0x20\n        /* \"#utility.yul\":5911:5917   */\n      dup7\n        /* \"#utility.yul\":5907:5924   */\n      add\n        /* \"#utility.yul\":5859:5938   */\n      tag_174\n      jump\t// in\n    tag_286:\n        /* \"#utility.yul\":5850:5938   */\n      swap2\n      pop\n        /* \"#utility.yul\":5666:5944   */\n      pop\n        /* \"#utility.yul\":5604:5944   */\n      swap3\n      swap2\n      pop\n      pop\n      jump\t// out\n        /* \"#utility.yul\":5950:6459   */\n    tag_37:\n        /* \"#utility.yul\":6019:6025   */\n      0x00\n        /* \"#utility.yul\":6068:6070   */\n      0x20\n        /* \"#utility.yul\":6056:6065   */\n      dup3\n        /* \"#utility.yul\":6047:6054   */\n      dup5\n        /* \"#utility.yul\":6043:6066   */\n      sub\n        /* \"#utility.yul\":6039:6071   */\n      slt\n        /* \"#utility.yul\":6036:6155   */\n      iszero\n      tag_288\n      jumpi\n        /* \"#utility.yul\":6074:6153   */\n      tag_289\n      tag_151\n      jump\t// in\n    tag_289:\n        /* \"#utility.yul\":6036:6155   */\n    tag_288:\n        /* \"#utility.yul\":6222:6223   */\n      0x00\n        /* \"#utility.yul\":6211:6220   */\n      dup3\n        /* \"#utility.yul\":6207:6224   */\n      add\n        /* \"#utility.yul\":6194:6225   */\n      calldataload\n        /* \"#utility.yul\":6252:6270   */\n      0xffffffffffffffff\n        /* \"#utility.yul\":6244:6250   */\n      dup2\n        /* \"#utility.yul\":6241:6271   */\n      gt\n        /* \"#utility.yul\":6238:6355   */\n      iszero\n      tag_290\n      jumpi\n        /* \"#utility.yul\":6274:6353   */\n      tag_291\n      tag_152\n      jump\t// in\n    tag_291:\n        /* \"#utility.yul\":6238:6355   */\n    tag_290:\n        /* \"#utility.yul\":6379:6442   */\n      tag_292\n        /* \"#utility.yul\":6434:6441   */\n      dup5\n        /* \"#utility.yul\":6425:6431   */\n      dup3\n        /* \"#utility.yul\":6414:6423   */\n      dup6\n        /* \"#utility.yul\":6410:6432   */\n      add\n        /* \"#utility.yul\":6379:6442   */\n      tag_175\n      jump\t// in\n    tag_292:\n        /* \"#utility.yul\":6369:6442   */\n      swap2\n      pop\n        /* \"#utility.yul\":6165:6452   */\n      pop\n        /* \"#utility.yul\":5950:6459   */\n      swap3\n      swap2\n      pop\n      pop\n      jump\t// out\n        /* \"#utility.yul\":6465:6794   */\n    tag_41:\n        /* \"#utility.yul\":6524:6530   */\n      0x00\n        /* \"#utility.yul\":6573:6575   */\n      0x20\n        /* \"#utility.yul\":6561:6570   */\n      dup3\n        /* \"#utility.yul\":6552:6559   */\n      dup5\n        /* \"#utility.yul\":6548:6571   */\n      sub\n        /* \"#utility.yul\":6544:6576   */\n      slt\n        /* \"#utility.yul\":6541:6660   */\n      iszero\n      tag_294\n      jumpi\n        /* \"#utility.yul\":6579:6658   */\n      tag_295\n      tag_151\n      jump\t// in\n    tag_295:\n        /* \"#utility.yul\":6541:6660   */\n    tag_294:\n        /* \"#utility.yul\":6699:6700   */\n      0x00\n        /* \"#utility.yul\":6724:6777   */\n      tag_296\n        /* \"#utility.yul\":6769:6776   */\n      dup5\n        /* \"#utility.yul\":6760:6766   */\n      dup3\n        /* \"#utility.yul\":6749:6758   */\n      dup6\n        /* \"#utility.yul\":6745:6767   */\n      add\n        /* \"#utility.yul\":6724:6777   */\n      tag_156\n      jump\t// in\n    tag_296:\n        /* \"#utility.yul\":6714:6777   */\n      swap2\n      pop\n        /* \"#utility.yul\":6670:6787   */\n      pop\n        /* \"#utility.yul\":6465:6794   */\n      swap3\n      swap2\n      pop\n      pop\n      jump\t// out\n        /* \"#utility.yul\":6800:6899   */\n    tag_176:\n        /* \"#utility.yul\":6852:6858   */\n      0x00\n        /* \"#utility.yul\":6886:6891   */\n      dup2\n        /* \"#utility.yul\":6880:6892   */\n      mload\n        /* \"#utility.yul\":6870:6892   */\n      swap1\n      pop\n        /* \"#utility.yul\":6800:6899   */\n      swap2\n      swap1\n      pop\n      jump\t// out\n        /* \"#utility.yul\":6905:7074   */\n    tag_177:\n        /* \"#utility.yul\":6989:7000   */\n      0x00\n        /* \"#utility.yul\":7023:7029   */\n      dup3\n        /* \"#utility.yul\":7018:7021   */\n      dup3\n        /* \"#utility.yul\":7011:7030   */\n      mstore\n        /* \"#utility.yul\":7063:7067   */\n      0x20\n        /* \"#utility.yul\":7058:7061   */\n      dup3\n        /* \"#utility.yul\":7054:7068   */\n      add\n        /* \"#utility.yul\":7039:7068   */\n      swap1\n      pop\n        /* \"#utility.yul\":6905:7074   */\n      swap3\n      swap2\n      pop\n      pop\n      jump\t// out\n        /* \"#utility.yul\":7080:7326   */\n    tag_178:\n        /* \"#utility.yul\":7161:7162   */\n      0x00\n        /* \"#utility.yul\":7171:7284   */\n    tag_300:\n        /* \"#utility.yul\":7185:7191   */\n      dup4\n        /* \"#utility.yul\":7182:7183   */\n      dup2\n        /* \"#utility.yul\":7179:7192   */\n      lt\n        /* \"#utility.yul\":7171:7284   */\n      iszero\n      tag_302\n      jumpi\n        /* \"#utility.yul\":7270:7271   */\n      dup1\n        /* \"#utility.yul\":7265:7268   */\n      dup3\n        /* \"#utility.yul\":7261:7272   */\n      add\n        /* \"#utility.yul\":7255:7273   */\n      mload\n        /* \"#utility.yul\":7251:7252   */\n      dup2\n        /* \"#utility.yul\":7246:7249   */\n      dup5\n        /* \"#utility.yul\":7242:7253   */\n      add\n        /* \"#utility.yul\":7235:7274   */\n      mstore\n        /* \"#utility.yul\":7207:7209   */\n      0x20\n        /* \"#utility.yul\":7204:7205   */\n      dup2\n        /* \"#utility.yul\":7200:7210   */\n      add\n        /* \"#utility.yul\":7195:7210   */\n      swap1\n      pop\n        /* \"#utility.yul\":7171:7284   */\n      jump(tag_300)\n    tag_302:\n        /* \"#utility.yul\":7318:7319   */\n      0x00\n        /* \"#utility.yul\":7309:7315   */\n      dup5\n        /* \"#utility.yul\":7304:7307   */\n      dup5\n        /* \"#utility.yul\":7300:7316   */\n      add\n        /* \"#utility.yul\":7293:7320   */\n      mstore\n        /* \"#utility.yul\":7142:7326   */\n      pop\n        /* \"#utility.yul\":7080:7326   */\n      pop\n      pop\n      pop\n      jump\t// out\n        /* \"#utility.yul\":7332:7709   */\n    tag_179:\n        /* \"#utility.yul\":7420:7423   */\n      0x00\n        /* \"#utility.yul\":7448:7487   */\n      tag_304\n        /* \"#utility.yul\":7481:7486   */\n      dup3\n        /* \"#utility.yul\":7448:7487   */\n      tag_176\n      jump\t// in\n    tag_304:\n        /* \"#utility.yul\":7503:7574   */\n      tag_305\n        /* \"#utility.yul\":7567:7573   */\n      dup2\n        /* \"#utility.yul\":7562:7565   */\n      dup6\n        /* \"#utility.yul\":7503:7574   */\n      tag_177\n      jump\t// in\n    tag_305:\n        /* \"#utility.yul\":7496:7574   */\n      swap4\n      pop\n        /* \"#utility.yul\":7583:7648   */\n      tag_306\n        /* \"#utility.yul\":7641:7647   */\n      dup2\n        /* \"#utility.yul\":7636:7639   */\n      dup6\n        /* \"#utility.yul\":7629:7633   */\n      0x20\n        /* \"#utility.yul\":7622:7627   */\n      dup7\n        /* \"#utility.yul\":7618:7634   */\n      add\n        /* \"#utility.yul\":7583:7648   */\n      tag_178\n      jump\t// in\n    tag_306:\n        /* \"#utility.yul\":7673:7702   */\n      tag_307\n        /* \"#utility.yul\":7695:7701   */\n      dup2\n        /* \"#utility.yul\":7673:7702   */\n      tag_168\n      jump\t// in\n    tag_307:\n        /* \"#utility.yul\":7668:7671   */\n      dup5\n        /* \"#utility.yul\":7664:7703   */\n      add\n        /* \"#utility.yul\":7657:7703   */\n      swap2\n      pop\n        /* \"#utility.yul\":7424:7709   */\n      pop\n        /* \"#utility.yul\":7332:7709   */\n      swap3\n      swap2\n      pop\n      pop\n      jump\t// out\n        /* \"#utility.yul\":7715:8138   */\n    tag_44:\n        /* \"#utility.yul\":7856:7860   */\n      0x00\n        /* \"#utility.yul\":7894:7896   */\n      0x40\n        /* \"#utility.yul\":7883:7892   */\n      dup3\n        /* \"#utility.yul\":7879:7897   */\n      add\n        /* \"#utility.yul\":7871:7897   */\n      swap1\n      pop\n        /* \"#utility.yul\":7943:7952   */\n      dup2\n        /* \"#utility.yul\":7937:7941   */\n      dup2\n        /* \"#utility.yul\":7933:7953   */\n      sub\n        /* \"#utility.yul\":7929:7930   */\n      0x00\n        /* \"#utility.yul\":7918:7927   */\n      dup4\n        /* \"#utility.yul\":7914:7931   */\n      add\n        /* \"#utility.yul\":7907:7954   */\n      mstore\n        /* \"#utility.yul\":7971:8049   */\n      tag_309\n        /* \"#utility.yul\":8044:8048   */\n      dup2\n        /* \"#utility.yul\":8035:8041   */\n      dup6\n        /* \"#utility.yul\":7971:8049   */\n      tag_179\n      jump\t// in\n    tag_309:\n        /* \"#utility.yul\":7963:8049   */\n      swap1\n      pop\n        /* \"#utility.yul\":8059:8131   */\n      tag_310\n        /* \"#utility.yul\":8127:8129   */\n      0x20\n        /* \"#utility.yul\":8116:8125   */\n      dup4\n        /* \"#utility.yul\":8112:8130   */\n      add\n        /* \"#utility.yul\":8103:8109   */\n      dup5\n        /* \"#utility.yul\":8059:8131   */\n      tag_160\n      jump\t// in\n    tag_310:\n        /* \"#utility.yul\":7715:8138   */\n      swap4\n      swap3\n      pop\n      pop\n      pop\n      jump\t// out\n        /* \"#utility.yul\":8144:8392   */\n    tag_59:\n        /* \"#utility.yul\":8250:8254   */\n      0x00\n        /* \"#utility.yul\":8288:8290   */\n      0x20\n        /* \"#utility.yul\":8277:8286   */\n      dup3\n        /* \"#utility.yul\":8273:8291   */\n      add\n        /* \"#utility.yul\":8265:8291   */\n      swap1\n      pop\n        /* \"#utility.yul\":8301:8385   */\n      tag_312\n        /* \"#utility.yul\":8382:8383   */\n      0x00\n        /* \"#utility.yul\":8371:8380   */\n      dup4\n        /* \"#utility.yul\":8367:8384   */\n      add\n        /* \"#utility.yul\":8358:8364   */\n      dup5\n        /* \"#utility.yul\":8301:8385   */\n      tag_165\n      jump\t// in\n    tag_312:\n        /* \"#utility.yul\":8144:8392   */\n      swap3\n      swap2\n      pop\n      pop\n      jump\t// out\n        /* \"#utility.yul\":8398:8622   */\n    tag_180:\n        /* \"#utility.yul\":8538:8572   */\n      0x4f6e6c7920746865206f776e65722063616e2063616c6c20746869732066756e\n        /* \"#utility.yul\":8534:8535   */\n      0x00\n        /* \"#utility.yul\":8526:8532   */\n      dup3\n        /* \"#utility.yul\":8522:8536   */\n      add\n        /* \"#utility.yul\":8515:8573   */\n      mstore\n        /* \"#utility.yul\":8607:8614   */\n      0x6374696f6e000000000000000000000000000000000000000000000000000000\n        /* \"#utility.yul\":8602:8604   */\n      0x20\n        /* \"#utility.yul\":8594:8600   */\n      dup3\n        /* \"#utility.yul\":8590:8605   */\n      add\n        /* \"#utility.yul\":8583:8615   */\n      mstore\n        /* \"#utility.yul\":8398:8622   */\n      pop\n      jump\t// out\n        /* \"#utility.yul\":8628:8994   */\n    tag_181:\n        /* \"#utility.yul\":8770:8773   */\n      0x00\n        /* \"#utility.yul\":8791:8858   */\n      tag_315\n        /* \"#utility.yul\":8855:8857   */\n      0x25\n        /* \"#utility.yul\":8850:8853   */\n      dup4\n        /* \"#utility.yul\":8791:8858   */\n      tag_177\n      jump\t// in\n    tag_315:\n        /* \"#utility.yul\":8784:8858   */\n      swap2\n      pop\n        /* \"#utility.yul\":8867:8960   */\n      tag_316\n        /* \"#utility.yul\":8956:8959   */\n      dup3\n        /* \"#utility.yul\":8867:8960   */\n      tag_180\n      jump\t// in\n    tag_316:\n        /* \"#utility.yul\":8985:8987   */\n      0x40\n        /* \"#utility.yul\":8980:8983   */\n      dup3\n        /* \"#utility.yul\":8976:8988   */\n      add\n        /* \"#utility.yul\":8969:8988   */\n      swap1\n      pop\n        /* \"#utility.yul\":8628:8994   */\n      swap2\n      swap1\n      pop\n      jump\t// out\n        /* \"#utility.yul\":9000:9419   */\n    tag_63:\n        /* \"#utility.yul\":9166:9170   */\n      0x00\n        /* \"#utility.yul\":9204:9206   */\n      0x20\n        /* \"#utility.yul\":9193:9202   */\n      dup3\n        /* \"#utility.yul\":9189:9207   */\n      add\n        /* \"#utility.yul\":9181:9207   */\n      swap1\n      pop\n        /* \"#utility.yul\":9253:9262   */\n      dup2\n        /* \"#utility.yul\":9247:9251   */\n      dup2\n        /* \"#utility.yul\":9243:9263   */\n      sub\n        /* \"#utility.yul\":9239:9240   */\n      0x00\n        /* \"#utility.yul\":9228:9237   */\n      dup4\n        /* \"#utility.yul\":9224:9241   */\n      add\n        /* \"#utility.yul\":9217:9264   */\n      mstore\n        /* \"#utility.yul\":9281:9412   */\n      tag_318\n        /* \"#utility.yul\":9407:9411   */\n      dup2\n        /* \"#utility.yul\":9281:9412   */\n      tag_181\n      jump\t// in\n    tag_318:\n        /* \"#utility.yul\":9273:9412   */\n      swap1\n      pop\n        /* \"#utility.yul\":9000:9419   */\n      swap2\n      swap1\n      pop\n      jump\t// out\n        /* \"#utility.yul\":9425:9597   */\n    tag_182:\n        /* \"#utility.yul\":9565:9589   */\n      0x496e76616c696420646f63746f72206164647265737300000000000000000000\n        /* \"#utility.yul\":9561:9562   */\n      0x00\n        /* \"#utility.yul\":9553:9559   */\n      dup3\n        /* \"#utility.yul\":9549:9563   */\n      add\n        /* \"#utility.yul\":9542:9590   */\n      mstore\n        /* \"#utility.yul\":9425:9597   */\n      pop\n      jump\t// out\n        /* \"#utility.yul\":9603:9969   */\n    tag_183:\n        /* \"#utility.yul\":9745:9748   */\n      0x00\n        /* \"#utility.yul\":9766:9833   */\n      tag_321\n        /* \"#utility.yul\":9830:9832   */\n      0x16\n        /* \"#utility.yul\":9825:9828   */\n      dup4\n        /* \"#utility.yul\":9766:9833   */\n      tag_177\n      jump\t// in\n    tag_321:\n        /* \"#utility.yul\":9759:9833   */\n      swap2\n      pop\n        /* \"#utility.yul\":9842:9935   */\n      tag_322\n        /* \"#utility.yul\":9931:9934   */\n      dup3\n        /* \"#utility.yul\":9842:9935   */\n      tag_182\n      jump\t// in\n    tag_322:\n        /* \"#utility.yul\":9960:9962   */\n      0x20\n        /* \"#utility.yul\":9955:9958   */\n      dup3\n        /* \"#utility.yul\":9951:9963   */\n      add\n        /* \"#utility.yul\":9944:9963   */\n      swap1\n      pop\n        /* \"#utility.yul\":9603:9969   */\n      swap2\n      swap1\n      pop\n      jump\t// out\n        /* \"#utility.yul\":9975:10394   */\n    tag_67:\n        /* \"#utility.yul\":10141:10145   */\n      0x00\n        /* \"#utility.yul\":10179:10181   */\n      0x20\n        /* \"#utility.yul\":10168:10177   */\n      dup3\n        /* \"#utility.yul\":10164:10182   */\n      add\n        /* \"#utility.yul\":10156:10182   */\n      swap1\n      pop\n        /* \"#utility.yul\":10228:10237   */\n      dup2\n        /* \"#utility.yul\":10222:10226   */\n      dup2\n        /* \"#utility.yul\":10218:10238   */\n      sub\n        /* \"#utility.yul\":10214:10215   */\n      0x00\n        /* \"#utility.yul\":10203:10212   */\n      dup4\n        /* \"#utility.yul\":10199:10216   */\n      add\n        /* \"#utility.yul\":10192:10239   */\n      mstore\n        /* \"#utility.yul\":10256:10387   */\n      tag_324\n        /* \"#utility.yul\":10382:10386   */\n      dup2\n        /* \"#utility.yul\":10256:10387   */\n      tag_183\n      jump\t// in\n    tag_324:\n        /* \"#utility.yul\":10248:10387   */\n      swap1\n      pop\n        /* \"#utility.yul\":9975:10394   */\n      swap2\n      swap1\n      pop\n      jump\t// out\n        /* \"#utility.yul\":10400:10568   */\n    tag_184:\n        /* \"#utility.yul\":10540:10560   */\n      0x496e76616c69642070617469656e742049440000000000000000000000000000\n        /* \"#utility.yul\":10536:10537   */\n      0x00\n        /* \"#utility.yul\":10528:10534   */\n      dup3\n        /* \"#utility.yul\":10524:10538   */\n      add\n        /* \"#utility.yul\":10517:10561   */\n      mstore\n        /* \"#utility.yul\":10400:10568   */\n      pop\n      jump\t// out\n        /* \"#utility.yul\":10574:10940   */\n    tag_185:\n        /* \"#utility.yul\":10716:10719   */\n      0x00\n        /* \"#utility.yul\":10737:10804   */\n      tag_327\n        /* \"#utility.yul\":10801:10803   */\n      0x12\n        /* \"#utility.yul\":10796:10799   */\n      dup4\n        /* \"#utility.yul\":10737:10804   */\n      tag_177\n      jump\t// in\n    tag_327:\n        /* \"#utility.yul\":10730:10804   */\n      swap2\n      pop\n        /* \"#utility.yul\":10813:10906   */\n      tag_328\n        /* \"#utility.yul\":10902:10905   */\n      dup3\n        /* \"#utility.yul\":10813:10906   */\n      tag_184\n      jump\t// in\n    tag_328:\n        /* \"#utility.yul\":10931:10933   */\n      0x20\n        /* \"#utility.yul\":10926:10929   */\n      dup3\n        /* \"#utility.yul\":10922:10934   */\n      add\n        /* \"#utility.yul\":10915:10934   */\n      swap1\n      pop\n        /* \"#utility.yul\":10574:10940   */\n      swap2\n      swap1\n      pop\n      jump\t// out\n        /* \"#utility.yul\":10946:11365   */\n    tag_70:\n        /* \"#utility.yul\":11112:11116   */\n      0x00\n        /* \"#utility.yul\":11150:11152   */\n      0x20\n        /* \"#utility.yul\":11139:11148   */\n      dup3\n        /* \"#utility.yul\":11135:11153   */\n      add\n        /* \"#utility.yul\":11127:11153   */\n      swap1\n      pop\n        /* \"#utility.yul\":11199:11208   */\n      dup2\n        /* \"#utility.yul\":11193:11197   */\n      dup2\n        /* \"#utility.yul\":11189:11209   */\n      sub\n        /* \"#utility.yul\":11185:11186   */\n      0x00\n        /* \"#utility.yul\":11174:11183   */\n      dup4\n        /* \"#utility.yul\":11170:11187   */\n      add\n        /* \"#utility.yul\":11163:11210   */\n      mstore\n        /* \"#utility.yul\":11227:11358   */\n      tag_330\n        /* \"#utility.yul\":11353:11357   */\n      dup2\n        /* \"#utility.yul\":11227:11358   */\n      tag_185\n      jump\t// in\n    tag_330:\n        /* \"#utility.yul\":11219:11358   */\n      swap1\n      pop\n        /* \"#utility.yul\":10946:11365   */\n      swap2\n      swap1\n      pop\n      jump\t// out\n        /* \"#utility.yul\":11371:11703   */\n    tag_72:\n        /* \"#utility.yul\":11492:11496   */\n      0x00\n        /* \"#utility.yul\":11530:11532   */\n      0x40\n        /* \"#utility.yul\":11519:11528   */\n      dup3\n        /* \"#utility.yul\":11515:11533   */\n      add\n        /* \"#utility.yul\":11507:11533   */\n      swap1\n      pop\n        /* \"#utility.yul\":11543:11614   */\n      tag_332\n        /* \"#utility.yul\":11611:11612   */\n      0x00\n        /* \"#utility.yul\":11600:11609   */\n      dup4\n        /* \"#utility.yul\":11596:11613   */\n      add\n        /* \"#utility.yul\":11587:11593   */\n      dup6\n        /* \"#utility.yul\":11543:11614   */\n      tag_160\n      jump\t// in\n    tag_332:\n        /* \"#utility.yul\":11624:11696   */\n      tag_333\n        /* \"#utility.yul\":11692:11694   */\n      0x20\n        /* \"#utility.yul\":11681:11690   */\n      dup4\n        /* \"#utility.yul\":11677:11695   */\n      add\n        /* \"#utility.yul\":11668:11674   */\n      dup5\n        /* \"#utility.yul\":11624:11696   */\n      tag_161\n      jump\t// in\n    tag_333:\n        /* \"#utility.yul\":11371:11703   */\n      swap4\n      swap3\n      pop\n      pop\n      pop\n      jump\t// out\n        /* \"#utility.yul\":11709:11888   */\n    tag_186:\n        /* \"#utility.yul\":11849:11880   */\n      0x4163636573732072657175657374206973206e6f742070656e64696e67000000\n        /* \"#utility.yul\":11845:11846   */\n      0x00\n        /* \"#utility.yul\":11837:11843   */\n      dup3\n        /* \"#utility.yul\":11833:11847   */\n      add\n        /* \"#utility.yul\":11826:11881   */\n      mstore\n        /* \"#utility.yul\":11709:11888   */\n      pop\n      jump\t// out\n        /* \"#utility.yul\":11894:12260   */\n    tag_187:\n        /* \"#utility.yul\":12036:12039   */\n      0x00\n        /* \"#utility.yul\":12057:12124   */\n      tag_336\n        /* \"#utility.yul\":12121:12123   */\n      0x1d\n        /* \"#utility.yul\":12116:12119   */\n      dup4\n        /* \"#utility.yul\":12057:12124   */\n      tag_177\n      jump\t// in\n    tag_336:\n        /* \"#utility.yul\":12050:12124   */\n      swap2\n      pop\n        /* \"#utility.yul\":12133:12226   */\n      tag_337\n        /* \"#utility.yul\":12222:12225   */\n      dup3\n        /* \"#utility.yul\":12133:12226   */\n      tag_186\n      jump\t// in\n    tag_337:\n        /* \"#utility.yul\":12251:12253   */\n      0x20\n        /* \"#utility.yul\":12246:12249   */\n      dup3\n        /* \"#utility.yul\":12242:12254   */\n      add\n        /* \"#utility.yul\":12235:12254   */\n      swap1\n      pop\n        /* \"#utility.yul\":11894:12260   */\n      swap2\n      swap1\n      pop\n      jump\t// out\n        /* \"#utility.yul\":12266:12685   */\n    tag_86:\n        /* \"#utility.yul\":12432:12436   */\n      0x00\n        /* \"#utility.yul\":12470:12472   */\n      0x20\n        /* \"#utility.yul\":12459:12468   */\n      dup3\n        /* \"#utility.yul\":12455:12473   */\n      add\n        /* \"#utility.yul\":12447:12473   */\n      swap1\n      pop\n        /* \"#utility.yul\":12519:12528   */\n      dup2\n        /* \"#utility.yul\":12513:12517   */\n      dup2\n        /* \"#utility.yul\":12509:12529   */\n      sub\n        /* \"#utility.yul\":12505:12506   */\n      0x00\n        /* \"#utility.yul\":12494:12503   */\n      dup4\n        /* \"#utility.yul\":12490:12507   */\n      add\n        /* \"#utility.yul\":12483:12530   */\n      mstore\n        /* \"#utility.yul\":12547:12678   */\n      tag_339\n        /* \"#utility.yul\":12673:12677   */\n      dup2\n        /* \"#utility.yul\":12547:12678   */\n      tag_187\n      jump\t// in\n    tag_339:\n        /* \"#utility.yul\":12539:12678   */\n      swap1\n      pop\n        /* \"#utility.yul\":12266:12685   */\n      swap2\n      swap1\n      pop\n      jump\t// out\n        /* \"#utility.yul\":12691:12866   */\n    tag_188:\n        /* \"#utility.yul\":12831:12858   */\n      0x446f63746f7220616c7265616479207265676973746572656400000000000000\n        /* \"#utility.yul\":12827:12828   */\n      0x00\n        /* \"#utility.yul\":12819:12825   */\n      dup3\n        /* \"#utility.yul\":12815:12829   */\n      add\n        /* \"#utility.yul\":12808:12859   */\n      mstore\n        /* \"#utility.yul\":12691:12866   */\n      pop\n      jump\t// out\n        /* \"#utility.yul\":12872:13238   */\n    tag_189:\n        /* \"#utility.yul\":13014:13017   */\n      0x00\n        /* \"#utility.yul\":13035:13102   */\n      tag_342\n        /* \"#utility.yul\":13099:13101   */\n      0x19\n        /* \"#utility.yul\":13094:13097   */\n      dup4\n        /* \"#utility.yul\":13035:13102   */\n      tag_177\n      jump\t// in\n    tag_342:\n        /* \"#utility.yul\":13028:13102   */\n      swap2\n      pop\n        /* \"#utility.yul\":13111:13204   */\n      tag_343\n        /* \"#utility.yul\":13200:13203   */\n      dup3\n        /* \"#utility.yul\":13111:13204   */\n      tag_188\n      jump\t// in\n    tag_343:\n        /* \"#utility.yul\":13229:13231   */\n      0x20\n        /* \"#utility.yul\":13224:13227   */\n      dup3\n        /* \"#utility.yul\":13220:13232   */\n      add\n        /* \"#utility.yul\":13213:13232   */\n      swap1\n      pop\n        /* \"#utility.yul\":12872:13238   */\n      swap2\n      swap1\n      pop\n      jump\t// out\n        /* \"#utility.yul\":13244:13663   */\n    tag_108:\n        /* \"#utility.yul\":13410:13414   */\n      0x00\n        /* \"#utility.yul\":13448:13450   */\n      0x20\n        /* \"#utility.yul\":13437:13446   */\n      dup3\n        /* \"#utility.yul\":13433:13451   */\n      add\n        /* \"#utility.yul\":13425:13451   */\n      swap1\n      pop\n        /* \"#utility.yul\":13497:13506   */\n      dup2\n        /* \"#utility.yul\":13491:13495   */\n      dup2\n        /* \"#utility.yul\":13487:13507   */\n      sub\n        /* \"#utility.yul\":13483:13484   */\n      0x00\n        /* \"#utility.yul\":13472:13481   */\n      dup4\n        /* \"#utility.yul\":13468:13485   */\n      add\n        /* \"#utility.yul\":13461:13508   */\n      mstore\n        /* \"#utility.yul\":13525:13656   */\n      tag_345\n        /* \"#utility.yul\":13651:13655   */\n      dup2\n        /* \"#utility.yul\":13525:13656   */\n      tag_189\n      jump\t// in\n    tag_345:\n        /* \"#utility.yul\":13517:13656   */\n      swap1\n      pop\n        /* \"#utility.yul\":13244:13663   */\n      swap2\n      swap1\n      pop\n      jump\t// out\n        /* \"#utility.yul\":13669:13849   */\n    tag_190:\n        /* \"#utility.yul\":13717:13794   */\n      0x4e487b7100000000000000000000000000000000000000000000000000000000\n        /* \"#utility.yul\":13714:13715   */\n      0x00\n        /* \"#utility.yul\":13707:13795   */\n      mstore\n        /* \"#utility.yul\":13814:13818   */\n      0x22\n        /* \"#utility.yul\":13811:13812   */\n      0x04\n        /* \"#utility.yul\":13804:13819   */\n      mstore\n        /* \"#utility.yul\":13838:13842   */\n      0x24\n        /* \"#utility.yul\":13835:13836   */\n      0x00\n        /* \"#utility.yul\":13828:13843   */\n      revert\n        /* \"#utility.yul\":13855:14175   */\n    tag_114:\n        /* \"#utility.yul\":13899:13905   */\n      0x00\n        /* \"#utility.yul\":13936:13937   */\n      0x02\n        /* \"#utility.yul\":13930:13934   */\n      dup3\n        /* \"#utility.yul\":13926:13938   */\n      div\n        /* \"#utility.yul\":13916:13938   */\n      swap1\n      pop\n        /* \"#utility.yul\":13983:13984   */\n      0x01\n        /* \"#utility.yul\":13977:13981   */\n      dup3\n        /* \"#utility.yul\":13973:13985   */\n      and\n        /* \"#utility.yul\":14004:14022   */\n      dup1\n        /* \"#utility.yul\":13994:14075   */\n      tag_348\n      jumpi\n        /* \"#utility.yul\":14060:14064   */\n      0x7f\n        /* \"#utility.yul\":14052:14058   */\n      dup3\n        /* \"#utility.yul\":14048:14065   */\n      and\n        /* \"#utility.yul\":14038:14065   */\n      swap2\n      pop\n        /* \"#utility.yul\":13994:14075   */\n    tag_348:\n        /* \"#utility.yul\":14122:14124   */\n      0x20\n        /* \"#utility.yul\":14114:14120   */\n      dup3\n        /* \"#utility.yul\":14111:14125   */\n      lt\n        /* \"#utility.yul\":14091:14109   */\n      dup2\n        /* \"#utility.yul\":14088:14126   */\n      sub\n        /* \"#utility.yul\":14085:14169   */\n      tag_349\n      jumpi\n        /* \"#utility.yul\":14141:14159   */\n      tag_350\n      tag_190\n      jump\t// in\n    tag_350:\n        /* \"#utility.yul\":14085:14169   */\n    tag_349:\n        /* \"#utility.yul\":13906:14175   */\n      pop\n        /* \"#utility.yul\":13855:14175   */\n      swap2\n      swap1\n      pop\n      jump\t// out\n        /* \"#utility.yul\":14181:14322   */\n    tag_191:\n        /* \"#utility.yul\":14230:14234   */\n      0x00\n        /* \"#utility.yul\":14253:14256   */\n      dup2\n        /* \"#utility.yul\":14245:14256   */\n      swap1\n      pop\n        /* \"#utility.yul\":14276:14279   */\n      dup2\n        /* \"#utility.yul\":14273:14274   */\n      0x00\n        /* \"#utility.yul\":14266:14280   */\n      mstore\n        /* \"#utility.yul\":14310:14314   */\n      0x20\n        /* \"#utility.yul\":14307:14308   */\n      0x00\n        /* \"#utility.yul\":14297:14315   */\n      keccak256\n        /* \"#utility.yul\":14289:14315   */\n      swap1\n      pop\n        /* \"#utility.yul\":14181:14322   */\n      swap2\n      swap1\n      pop\n      jump\t// out\n        /* \"#utility.yul\":14328:14421   */\n    tag_192:\n        /* \"#utility.yul\":14365:14371   */\n      0x00\n        /* \"#utility.yul\":14412:14414   */\n      0x20\n        /* \"#utility.yul\":14407:14409   */\n      0x1f\n        /* \"#utility.yul\":14400:14405   */\n      dup4\n        /* \"#utility.yul\":14396:14410   */\n      add\n        /* \"#utility.yul\":14392:14415   */\n      div\n        /* \"#utility.yul\":14382:14415   */\n      swap1\n      pop\n        /* \"#utility.yul\":14328:14421   */\n      swap2\n      swap1\n      pop\n      jump\t// out\n        /* \"#utility.yul\":14427:14534   */\n    tag_193:\n        /* \"#utility.yul\":14471:14479   */\n      0x00\n        /* \"#utility.yul\":14521:14526   */\n      dup3\n        /* \"#utility.yul\":14515:14519   */\n      dup3\n        /* \"#utility.yul\":14511:14527   */\n      shl\n        /* \"#utility.yul\":14490:14527   */\n      swap1\n      pop\n        /* \"#utility.yul\":14427:14534   */\n      swap3\n      swap2\n      pop\n      pop\n      jump\t// out\n        /* \"#utility.yul\":14540:14933   */\n    tag_194:\n        /* \"#utility.yul\":14609:14615   */\n      0x00\n        /* \"#utility.yul\":14659:14660   */\n      0x08\n        /* \"#utility.yul\":14647:14657   */\n      dup4\n        /* \"#utility.yul\":14643:14661   */\n      mul\n        /* \"#utility.yul\":14682:14779   */\n      tag_355\n        /* \"#utility.yul\":14712:14778   */\n      0xffffffffffffffffffffffffffffffffffffffffffffffffffffffffffffffff\n        /* \"#utility.yul\":14701:14710   */\n      dup3\n        /* \"#utility.yul\":14682:14779   */\n      tag_193\n      jump\t// in\n    tag_355:\n        /* \"#utility.yul\":14800:14839   */\n      tag_356\n        /* \"#utility.yul\":14830:14838   */\n      dup7\n        /* \"#utility.yul\":14819:14828   */\n      dup4\n        /* \"#utility.yul\":14800:14839   */\n      tag_193\n      jump\t// in\n    tag_356:\n        /* \"#utility.yul\":14788:14839   */\n      swap6\n      pop\n        /* \"#utility.yul\":14872:14876   */\n      dup1\n        /* \"#utility.yul\":14868:14877   */\n      not\n        /* \"#utility.yul\":14861:14866   */\n      dup5\n        /* \"#utility.yul\":14857:14878   */\n      and\n        /* \"#utility.yul\":14848:14878   */\n      swap4\n      pop\n        /* \"#utility.yul\":14921:14925   */\n      dup1\n        /* \"#utility.yul\":14911:14919   */\n      dup7\n        /* \"#utility.yul\":14907:14926   */\n      and\n        /* \"#utility.yul\":14900:14905   */\n      dup5\n        /* \"#utility.yul\":14897:14927   */\n      or\n        /* \"#utility.yul\":14887:14927   */\n      swap3\n      pop\n        /* \"#utility.yul\":14616:14933   */\n      pop\n      pop\n        /* \"#utility.yul\":14540:14933   */\n      swap4\n      swap3\n      pop\n      pop\n      pop\n      jump\t// out\n        /* \"#utility.yul\":14939:14999   */\n    tag_195:\n        /* \"#utility.yul\":14967:14970   */\n      0x00\n        /* \"#utility.yul\":14988:14993   */\n      dup2\n        /* \"#utility.yul\":14981:14993   */\n      swap1\n      pop\n        /* \"#utility.yul\":14939:14999   */\n      swap2\n      swap1\n      pop\n      jump\t// out\n        /* \"#utility.yul\":15005:15147   */\n    tag_196:\n        /* \"#utility.yul\":15055:15064   */\n      0x00\n        /* \"#utility.yul\":15088:15141   */\n      tag_359\n        /* \"#utility.yul\":15106:15140   */\n      tag_360\n        /* \"#utility.yul\":15115:15139   */\n      tag_361\n        /* \"#utility.yul\":15133:15138   */\n      dup5\n        /* \"#utility.yul\":15115:15139   */\n      tag_157\n      jump\t// in\n    tag_361:\n        /* \"#utility.yul\":15106:15140   */\n      tag_195\n      jump\t// in\n    tag_360:\n        /* \"#utility.yul\":15088:15141   */\n      tag_157\n      jump\t// in\n    tag_359:\n        /* \"#utility.yul\":15075:15141   */\n      swap1\n      pop\n        /* \"#utility.yul\":15005:15147   */\n      swap2\n      swap1\n      pop\n      jump\t// out\n        /* \"#utility.yul\":15153:15228   */\n    tag_197:\n        /* \"#utility.yul\":15196:15199   */\n      0x00\n        /* \"#utility.yul\":15217:15222   */\n      dup2\n        /* \"#utility.yul\":15210:15222   */\n      swap1\n      pop\n        /* \"#utility.yul\":15153:15228   */\n      swap2\n      swap1\n      pop\n      jump\t// out\n        /* \"#utility.yul\":15234:15503   */\n    tag_198:\n        /* \"#utility.yul\":15344:15383   */\n      tag_364\n        /* \"#utility.yul\":15375:15382   */\n      dup4\n        /* \"#utility.yul\":15344:15383   */\n      tag_196\n      jump\t// in\n    tag_364:\n        /* \"#utility.yul\":15405:15496   */\n      tag_365\n        /* \"#utility.yul\":15454:15495   */\n      tag_366\n        /* \"#utility.yul\":15478:15494   */\n      dup3\n        /* \"#utility.yul\":15454:15495   */\n      tag_197\n      jump\t// in\n    tag_366:\n        /* \"#utility.yul\":15446:15452   */\n      dup5\n        /* \"#utility.yul\":15439:15443   */\n      dup5\n        /* \"#utility.yul\":15433:15444   */\n      sload\n        /* \"#utility.yul\":15405:15496   */\n      tag_194\n      jump\t// in\n    tag_365:\n        /* \"#utility.yul\":15399:15403   */\n      dup3\n        /* \"#utility.yul\":15392:15497   */\n      sstore\n        /* \"#utility.yul\":15310:15503   */\n      pop\n        /* \"#utility.yul\":15234:15503   */\n      pop\n      pop\n      pop\n      jump\t// out\n        /* \"#utility.yul\":15509:15582   */\n    tag_199:\n        /* \"#utility.yul\":15554:15557   */\n      0x00\n        /* \"#utility.yul\":15509:15582   */\n      swap1\n      jump\t// out\n        /* \"#utility.yul\":15588:15777   */\n    tag_200:\n        /* \"#utility.yul\":15665:15697   */\n      tag_369\n      tag_199\n      jump\t// in\n    tag_369:\n        /* \"#utility.yul\":15706:15771   */\n      tag_370\n        /* \"#utility.yul\":15764:15770   */\n      dup2\n        /* \"#utility.yul\":15756:15762   */\n      dup5\n        /* \"#utility.yul\":15750:15754   */\n      dup5\n        /* \"#utility.yul\":15706:15771   */\n      tag_198\n      jump\t// in\n    tag_370:\n        /* \"#utility.yul\":15641:15777   */\n      pop\n        /* \"#utility.yul\":15588:15777   */\n      pop\n      pop\n      jump\t// out\n        /* \"#utility.yul\":15783:15969   */\n    tag_201:\n        /* \"#utility.yul\":15843:15963   */\n    tag_372:\n        /* \"#utility.yul\":15860:15863   */\n      dup2\n        /* \"#utility.yul\":15853:15858   */\n      dup2\n        /* \"#utility.yul\":15850:15864   */\n      lt\n        /* \"#utility.yul\":15843:15963   */\n      iszero\n      tag_374\n      jumpi\n        /* \"#utility.yul\":15914:15953   */\n      tag_375\n        /* \"#utility.yul\":15951:15952   */\n      0x00\n        /* \"#utility.yul\":15944:15949   */\n      dup3\n        /* \"#utility.yul\":15914:15953   */\n      tag_200\n      jump\t// in\n    tag_375:\n        /* \"#utility.yul\":15887:15888   */\n      0x01\n        /* \"#utility.yul\":15880:15885   */\n      dup2\n        /* \"#utility.yul\":15876:15889   */\n      add\n        /* \"#utility.yul\":15867:15889   */\n      swap1\n      pop\n        /* \"#utility.yul\":15843:15963   */\n      jump(tag_372)\n    tag_374:\n        /* \"#utility.yul\":15783:15969   */\n      pop\n      pop\n      jump\t// out\n        /* \"#utility.yul\":15975:16518   */\n    tag_202:\n        /* \"#utility.yul\":16076:16078   */\n      0x1f\n        /* \"#utility.yul\":16071:16074   */\n      dup3\n        /* \"#utility.yul\":16068:16079   */\n      gt\n        /* \"#utility.yul\":16065:16511   */\n      iszero\n      tag_377\n      jumpi\n        /* \"#utility.yul\":16110:16148   */\n      tag_378\n        /* \"#utility.yul\":16142:16147   */\n      dup2\n        /* \"#utility.yul\":16110:16148   */\n      tag_191\n      jump\t// in\n    tag_378:\n        /* \"#utility.yul\":16194:16223   */\n      tag_379\n        /* \"#utility.yul\":16212:16222   */\n      dup5\n        /* \"#utility.yul\":16194:16223   */\n      tag_192\n      jump\t// in\n    tag_379:\n        /* \"#utility.yul\":16184:16192   */\n      dup2\n        /* \"#utility.yul\":16180:16224   */\n      add\n        /* \"#utility.yul\":16377:16379   */\n      0x20\n        /* \"#utility.yul\":16365:16375   */\n      dup6\n        /* \"#utility.yul\":16362:16380   */\n      lt\n        /* \"#utility.yul\":16359:16408   */\n      iszero\n      tag_380\n      jumpi\n        /* \"#utility.yul\":16398:16406   */\n      dup2\n        /* \"#utility.yul\":16383:16406   */\n      swap1\n      pop\n        /* \"#utility.yul\":16359:16408   */\n    tag_380:\n        /* \"#utility.yul\":16421:16501   */\n      tag_381\n        /* \"#utility.yul\":16477:16499   */\n      tag_382\n        /* \"#utility.yul\":16495:16498   */\n      dup6\n        /* \"#utility.yul\":16477:16499   */\n      tag_192\n      jump\t// in\n    tag_382:\n        /* \"#utility.yul\":16467:16475   */\n      dup4\n        /* \"#utility.yul\":16463:16500   */\n      add\n        /* \"#utility.yul\":16450:16461   */\n      dup3\n        /* \"#utility.yul\":16421:16501   */\n      tag_201\n      jump\t// in\n    tag_381:\n        /* \"#utility.yul\":16080:16511   */\n      pop\n      pop\n        /* \"#utility.yul\":16065:16511   */\n    tag_377:\n        /* \"#utility.yul\":15975:16518   */\n      pop\n      pop\n      pop\n      jump\t// out\n        /* \"#utility.yul\":16524:16641   */\n    tag_203:\n        /* \"#utility.yul\":16578:16586   */\n      0x00\n        /* \"#utility.yul\":16628:16633   */\n      dup3\n        /* \"#utility.yul\":16622:16626   */\n      dup3\n        /* \"#utility.yul\":16618:16634   */\n      shr\n        /* \"#utility.yul\":16597:16634   */\n      swap1\n      pop\n        /* \"#utility.yul\":16524:16641   */\n      swap3\n      swap2\n      pop\n      pop\n      jump\t// out\n        /* \"#utility.yul\":16647:16816   */\n    tag_204:\n        /* \"#utility.yul\":16691:16697   */\n      0x00\n        /* \"#utility.yul\":16724:16775   */\n      tag_385\n        /* \"#utility.yul\":16772:16773   */\n      0x00\n        /* \"#utility.yul\":16768:16774   */\n      not\n        /* \"#utility.yul\":16760:16765   */\n      dup5\n        /* \"#utility.yul\":16757:16758   */\n      0x08\n        /* \"#utility.yul\":16753:16766   */\n      mul\n        /* \"#utility.yul\":16724:16775   */\n      tag_203\n      jump\t// in\n    tag_385:\n        /* \"#utility.yul\":16720:16776   */\n      not\n        /* \"#utility.yul\":16805:16809   */\n      dup1\n        /* \"#utility.yul\":16799:16803   */\n      dup4\n        /* \"#utility.yul\":16795:16810   */\n      and\n        /* \"#utility.yul\":16785:16810   */\n      swap2\n      pop\n        /* \"#utility.yul\":16698:16816   */\n      pop\n        /* \"#utility.yul\":16647:16816   */\n      swap3\n      swap2\n      pop\n      pop\n      jump\t// out\n        /* \"#utility.yul\":16821:17116   */\n    tag_205:\n        /* \"#utility.yul\":16897:16901   */\n      0x00\n        /* \"#utility.yul\":17043:17072   */\n      tag_387\n        /* \"#utility.yul\":17068:17071   */\n      dup4\n        /* \"#utility.yul\":17062:17066   */\n      dup4\n        /* \"#utility.yul\":17043:17072   */\n      tag_204\n      jump\t// in\n    tag_387:\n        /* \"#utility.yul\":17035:17072   */\n      swap2\n      pop\n        /* \"#utility.yul\":17105:17108   */\n      dup3\n        /* \"#utility.yul\":17102:17103   */\n      0x02\n        /* \"#utility.yul\":17098:17109   */\n      mul\n        /* \"#utility.yul\":17092:17096   */\n      dup3\n        /* \"#utility.yul\":17089:17110   */\n      or\n        /* \"#utility.yul\":17081:17110   */\n      swap1\n      pop\n        /* \"#utility.yul\":16821:17116   */\n      swap3\n      swap2\n      pop\n      pop\n      jump\t// out\n        /* \"#utility.yul\":17121:18516   */\n    tag_110:\n        /* \"#utility.yul\":17238:17275   */\n      tag_389\n        /* \"#utility.yul\":17271:17274   */\n      dup3\n        /* \"#utility.yul\":17238:17275   */\n      tag_176\n      jump\t// in\n    tag_389:\n        /* \"#utility.yul\":17340:17358   */\n      0xffffffffffffffff\n        /* \"#utility.yul\":17332:17338   */\n      dup2\n        /* \"#utility.yul\":17329:17359   */\n      gt\n        /* \"#utility.yul\":17326:17382   */\n      iszero\n      tag_390\n      jumpi\n        /* \"#utility.yul\":17362:17380   */\n      tag_391\n      tag_169\n      jump\t// in\n    tag_391:\n        /* \"#utility.yul\":17326:17382   */\n    tag_390:\n        /* \"#utility.yul\":17406:17444   */\n      tag_392\n        /* \"#utility.yul\":17438:17442   */\n      dup3\n        /* \"#utility.yul\":17432:17443   */\n      sload\n        /* \"#utility.yul\":17406:17444   */\n      tag_114\n      jump\t// in\n    tag_392:\n        /* \"#utility.yul\":17491:17558   */\n      tag_393\n        /* \"#utility.yul\":17551:17557   */\n      dup3\n        /* \"#utility.yul\":17543:17549   */\n      dup3\n        /* \"#utility.yul\":17537:17541   */\n      dup6\n        /* \"#utility.yul\":17491:17558   */\n      tag_202\n      jump\t// in\n    tag_393:\n        /* \"#utility.yul\":17585:17586   */\n      0x00\n        /* \"#utility.yul\":17609:17613   */\n      0x20\n        /* \"#utility.yul\":17596:17613   */\n      swap1\n      pop\n        /* \"#utility.yul\":17641:17643   */\n      0x1f\n        /* \"#utility.yul\":17633:17639   */\n      dup4\n        /* \"#utility.yul\":17630:17644   */\n      gt\n        /* \"#utility.yul\":17658:17659   */\n      0x01\n        /* \"#utility.yul\":17653:18271   */\n      dup2\n      eq\n      tag_395\n      jumpi\n        /* \"#utility.yul\":18315:18316   */\n      0x00\n        /* \"#utility.yul\":18332:18338   */\n      dup5\n        /* \"#utility.yul\":18329:18406   */\n      iszero\n      tag_396\n      jumpi\n        /* \"#utility.yul\":18381:18390   */\n      dup3\n        /* \"#utility.yul\":18376:18379   */\n      dup8\n        /* \"#utility.yul\":18372:18391   */\n      add\n        /* \"#utility.yul\":18366:18392   */\n      mload\n        /* \"#utility.yul\":18357:18392   */\n      swap1\n      pop\n        /* \"#utility.yul\":18329:18406   */\n    tag_396:\n        /* \"#utility.yul\":18432:18499   */\n      tag_397\n        /* \"#utility.yul\":18492:18498   */\n      dup6\n        /* \"#utility.yul\":18485:18490   */\n      dup3\n        /* \"#utility.yul\":18432:18499   */\n      tag_205\n      jump\t// in\n    tag_397:\n        /* \"#utility.yul\":18426:18430   */\n      dup7\n        /* \"#utility.yul\":18419:18500   */\n      sstore\n        /* \"#utility.yul\":18288:18510   */\n      pop\n        /* \"#utility.yul\":17623:18510   */\n      jump(tag_394)\n        /* \"#utility.yul\":17653:18271   */\n    tag_395:\n        /* \"#utility.yul\":17705:17709   */\n      0x1f\n        /* \"#utility.yul\":17701:17710   */\n      not\n        /* \"#utility.yul\":17693:17699   */\n      dup5\n        /* \"#utility.yul\":17689:17711   */\n      and\n        /* \"#utility.yul\":17739:17776   */\n      tag_398\n        /* \"#utility.yul\":17771:17775   */\n      dup7\n        /* \"#utility.yul\":17739:17776   */\n      tag_191\n      jump\t// in\n    tag_398:\n        /* \"#utility.yul\":17798:17799   */\n      0x00\n        /* \"#utility.yul\":17812:18020   */\n    tag_399:\n        /* \"#utility.yul\":17826:17833   */\n      dup3\n        /* \"#utility.yul\":17823:17824   */\n      dup2\n        /* \"#utility.yul\":17820:17834   */\n      lt\n        /* \"#utility.yul\":17812:18020   */\n      iszero\n      tag_401\n      jumpi\n        /* \"#utility.yul\":17905:17914   */\n      dup5\n        /* \"#utility.yul\":17900:17903   */\n      dup10\n        /* \"#utility.yul\":17896:17915   */\n      add\n        /* \"#utility.yul\":17890:17916   */\n      mload\n        /* \"#utility.yul\":17882:17888   */\n      dup3\n        /* \"#utility.yul\":17875:17917   */\n      sstore\n        /* \"#utility.yul\":17956:17957   */\n      0x01\n        /* \"#utility.yul\":17948:17954   */\n      dup3\n        /* \"#utility.yul\":17944:17958   */\n      add\n        /* \"#utility.yul\":17934:17958   */\n      swap2\n      pop\n        /* \"#utility.yul\":18003:18005   */\n      0x20\n        /* \"#utility.yul\":17992:18001   */\n      dup6\n        /* \"#utility.yul\":17988:18006   */\n      add\n        /* \"#utility.yul\":17975:18006   */\n      swap5\n      pop\n        /* \"#utility.yul\":17849:17853   */\n      0x20\n        /* \"#utility.yul\":17846:17847   */\n      dup2\n        /* \"#utility.yul\":17842:17854   */\n      add\n        /* \"#utility.yul\":17837:17854   */\n      swap1\n      pop\n        /* \"#utility.yul\":17812:18020   */\n      jump(tag_399)\n    tag_401:\n        /* \"#utility.yul\":18048:18054   */\n      dup7\n        /* \"#utility.yul\":18039:18046   */\n      dup4\n        /* \"#utility.yul\":18036:18055   */\n      lt\n        /* \"#utility.yul\":18033:18212   */\n      iszero\n      tag_402\n      jumpi\n        /* \"#utility.yul\":18106:18115   */\n      dup5\n        /* \"#utility.yul\":18101:18104   */\n      dup10\n        /* \"#utility.yul\":18097:18116   */\n      add\n        /* \"#utility.yul\":18091:18117   */\n      mload\n        /* \"#utility.yul\":18149:18197   */\n      tag_403\n        /* \"#utility.yul\":18191:18195   */\n      0x1f\n        /* \"#utility.yul\":18183:18189   */\n      dup10\n        /* \"#utility.yul\":18179:18196   */\n      and\n        /* \"#utility.yul\":18168:18177   */\n      dup3\n        /* \"#utility.yul\":18149:18197   */\n      tag_204\n      jump\t// in\n    tag_403:\n        /* \"#utility.yul\":18141:18147   */\n      dup4\n        /* \"#utility.yul\":18134:18198   */\n      sstore\n        /* \"#utility.yul\":18056:18212   */\n      pop\n        /* \"#utility.yul\":18033:18212   */\n    tag_402:\n        /* \"#utility.yul\":18258:18259   */\n      0x01\n        /* \"#utility.yul\":18254:18255   */\n      0x02\n        /* \"#utility.yul\":18246:18252   */\n      dup9\n        /* \"#utility.yul\":18242:18256   */\n      mul\n        /* \"#utility.yul\":18238:18260   */\n      add\n        /* \"#utility.yul\":18232:18236   */\n      dup9\n        /* \"#utility.yul\":18225:18261   */\n      sstore\n        /* \"#utility.yul\":17660:18271   */\n      pop\n      pop\n      pop\n        /* \"#utility.yul\":17623:18510   */\n    tag_394:\n      pop\n        /* \"#utility.yul\":17213:18516   */\n      pop\n      pop\n      pop\n        /* \"#utility.yul\":17121:18516   */\n      pop\n      pop\n      jump\t// out\n        /* \"#utility.yul\":18522:18945   */\n    tag_112:\n        /* \"#utility.yul\":18663:18667   */\n      0x00\n        /* \"#utility.yul\":18701:18703   */\n      0x40\n        /* \"#utility.yul\":18690:18699   */\n      dup3\n        /* \"#utility.yul\":18686:18704   */\n      add\n        /* \"#utility.yul\":18678:18704   */\n      swap1\n      pop\n        /* \"#utility.yul\":18714:18785   */\n      tag_405\n        /* \"#utility.yul\":18782:18783   */\n      0x00\n        /* \"#utility.yul\":18771:18780   */\n      dup4\n        /* \"#utility.yul\":18767:18784   */\n      add\n        /* \"#utility.yul\":18758:18764   */\n      dup6\n        /* \"#utility.yul\":18714:18785   */\n      tag_160\n      jump\t// in\n    tag_405:\n        /* \"#utility.yul\":18832:18841   */\n      dup2\n        /* \"#utility.yul\":18826:18830   */\n      dup2\n        /* \"#utility.yul\":18822:18842   */\n      sub\n        /* \"#utility.yul\":18817:18819   */\n      0x20\n        /* \"#utility.yul\":18806:18815   */\n      dup4\n        /* \"#utility.yul\":18802:18820   */\n      add\n        /* \"#utility.yul\":18795:18843   */\n      mstore\n        /* \"#utility.yul\":18860:18938   */\n      tag_406\n        /* \"#utility.yul\":18933:18937   */\n      dup2\n        /* \"#utility.yul\":18924:18930   */\n      dup5\n        /* \"#utility.yul\":18860:18938   */\n      tag_179\n      jump\t// in\n    tag_406:\n        /* \"#utility.yul\":18852:18938   */\n      swap1\n      pop\n        /* \"#utility.yul\":18522:18945   */\n      swap4\n      swap3\n      pop\n      pop\n      pop\n      jump\t// out\n        /* \"#utility.yul\":18951:19186   */\n    tag_206:\n        /* \"#utility.yul\":19091:19125   */\n      0x4f6e6c79207265676973746572656420646f63746f72732063616e2061636365\n        /* \"#utility.yul\":19087:19088   */\n      0x00\n        /* \"#utility.yul\":19079:19085   */\n      dup3\n        /* \"#utility.yul\":19075:19089   */\n      add\n        /* \"#utility.yul\":19068:19126   */\n      mstore\n        /* \"#utility.yul\":19160:19178   */\n      0x737320746869732066756e6374696f6e00000000000000000000000000000000\n        /* \"#utility.yul\":19155:19157   */\n      0x20\n        /* \"#utility.yul\":19147:19153   */\n      dup3\n        /* \"#utility.yul\":19143:19158   */\n      add\n        /* \"#utility.yul\":19136:19179   */\n      mstore\n        /* \"#utility.yul\":18951:19186   */\n      pop\n      jump\t// out\n        /* \"#utility.yul\":19192:19558   */\n    tag_207:\n        /* \"#utility.yul\":19334:19337   */\n      0x00\n        /* \"#utility.yul\":19355:19422   */\n      tag_409\n        /* \"#utility.yul\":19419:19421   */\n      0x30\n        /* \"#utility.yul\":19414:19417   */\n      dup4\n        /* \"#utility.yul\":19355:19422   */\n      tag_177\n      jump\t// in\n    tag_409:\n        /* \"#utility.yul\":19348:19422   */\n      swap2\n      pop\n        /* \"#utility.yul\":19431:19524   */\n      tag_410\n        /* \"#utility.yul\":19520:19523   */\n      dup3\n        /* \"#utility.yul\":19431:19524   */\n      tag_206\n      jump\t// in\n    tag_410:\n        /* \"#utility.yul\":19549:19551   */\n      0x40\n        /* \"#utility.yul\":19544:19547   */\n      dup3\n        /* \"#utility.yul\":19540:19552   */\n      add\n        /* \"#utility.yul\":19533:19552   */\n      swap1\n      pop\n        /* \"#utility.yul\":19192:19558   */\n      swap2\n      swap1\n      pop\n      jump\t// out\n        /* \"#utility.yul\":19564:19983   */\n    tag_122:\n        /* \"#utility.yul\":19730:19734   */\n      0x00\n        /* \"#utility.yul\":19768:19770   */\n      0x20\n        /* \"#utility.yul\":19757:19766   */\n      dup3\n        /* \"#utility.yul\":19753:19771   */\n      add\n        /* \"#utility.yul\":19745:19771   */\n      swap1\n      pop\n        /* \"#utility.yul\":19817:19826   */\n      dup2\n        /* \"#utility.yul\":19811:19815   */\n      dup2\n        /* \"#utility.yul\":19807:19827   */\n      sub\n        /* \"#utility.yul\":19803:19804   */\n      0x00\n        /* \"#utility.yul\":19792:19801   */\n      dup4\n        /* \"#utility.yul\":19788:19805   */\n      add\n        /* \"#utility.yul\":19781:19828   */\n      mstore\n        /* \"#utility.yul\":19845:19976   */\n      tag_412\n        /* \"#utility.yul\":19971:19975   */\n      dup2\n        /* \"#utility.yul\":19845:19976   */\n      tag_207\n      jump\t// in\n    tag_412:\n        /* \"#utility.yul\":19837:19976   */\n      swap1\n      pop\n        /* \"#utility.yul\":19564:19983   */\n      swap2\n      swap1\n      pop\n      jump\t// out\n        /* \"#utility.yul\":19989:20212   */\n    tag_208:\n        /* \"#utility.yul\":20129:20163   */\n      0x596f7520617265206e6f742061737369676e656420746f207468697320706174\n        /* \"#utility.yul\":20125:20126   */\n      0x00\n        /* \"#utility.yul\":20117:20123   */\n      dup3\n        /* \"#utility.yul\":20113:20127   */\n      add\n        /* \"#utility.yul\":20106:20164   */\n      mstore\n        /* \"#utility.yul\":20198:20204   */\n      0x69656e7400000000000000000000000000000000000000000000000000000000\n        /* \"#utility.yul\":20193:20195   */\n      0x20\n        /* \"#utility.yul\":20185:20191   */\n      dup3\n        /* \"#utility.yul\":20181:20196   */\n      add\n        /* \"#utility.yul\":20174:20205   */\n      mstore\n        /* \"#utility.yul\":19989:20212   */\n      pop\n      jump\t// out\n        /* \"#utility.yul\":20218:20584   */\n    tag_209:\n        /* \"#utility.yul\":20360:20363   */\n      0x00\n        /* \"#utility.yul\":20381:20448   */\n      tag_415\n        /* \"#utility.yul\":20445:20447   */\n      0x24\n        /* \"#utility.yul\":20440:20443   */\n      dup4\n        /* \"#utility.yul\":20381:20448   */\n      tag_177\n      jump\t// in\n    tag_415:\n        /* \"#utility.yul\":20374:20448   */\n      swap2\n      pop\n        /* \"#utility.yul\":20457:20550   */\n      tag_416\n        /* \"#utility.yul\":20546:20549   */\n      dup3\n        /* \"#utility.yul\":20457:20550   */\n      tag_208\n      jump\t// in\n    tag_416:\n        /* \"#utility.yul\":20575:20577   */\n      0x40\n        /* \"#utility.yul\":20570:20573   */\n      dup3\n        /* \"#utility.yul\":20566:20578   */\n      add\n        /* \"#utility.yul\":20559:20578   */\n      swap1\n      pop\n        /* \"#utility.yul\":20218:20584   */\n      swap2\n      swap1\n      pop\n      jump\t// out\n        /* \"#utility.yul\":20590:21009   */\n    tag_128:\n        /* \"#utility.yul\":20756:20760   */\n      0x00\n        /* \"#utility.yul\":20794:20796   */\n      0x20\n        /* \"#utility.yul\":20783:20792   */\n      dup3\n        /* \"#utility.yul\":20779:20797   */\n      add\n        /* \"#utility.yul\":20771:20797   */\n      swap1\n      pop\n        /* \"#utility.yul\":20843:20852   */\n      dup2\n        /* \"#utility.yul\":20837:20841   */\n      dup2\n        /* \"#utility.yul\":20833:20853   */\n      sub\n        /* \"#utility.yul\":20829:20830   */\n      0x00\n        /* \"#utility.yul\":20818:20827   */\n      dup4\n        /* \"#utility.yul\":20814:20831   */\n      add\n        /* \"#utility.yul\":20807:20854   */\n      mstore\n        /* \"#utility.yul\":20871:21002   */\n      tag_418\n        /* \"#utility.yul\":20997:21001   */\n      dup2\n        /* \"#utility.yul\":20871:21002   */\n      tag_209\n      jump\t// in\n    tag_418:\n        /* \"#utility.yul\":20863:21002   */\n      swap1\n      pop\n        /* \"#utility.yul\":20590:21009   */\n      swap2\n      swap1\n      pop\n      jump\t// out\n        /* \"#utility.yul\":21015:21241   */\n    tag_210:\n        /* \"#utility.yul\":21155:21189   */\n      0x416363657373207265717565737420616c72656164792073656e74206f722061\n        /* \"#utility.yul\":21151:21152   */\n      0x00\n        /* \"#utility.yul\":21143:21149   */\n      dup3\n        /* \"#utility.yul\":21139:21153   */\n      add\n        /* \"#utility.yul\":21132:21190   */\n      mstore\n        /* \"#utility.yul\":21224:21233   */\n      0x7070726f76656400000000000000000000000000000000000000000000000000\n        /* \"#utility.yul\":21219:21221   */\n      0x20\n        /* \"#utility.yul\":21211:21217   */\n      dup3\n        /* \"#utility.yul\":21207:21222   */\n      add\n        /* \"#utility.yul\":21200:21234   */\n      mstore\n        /* \"#utility.yul\":21015:21241   */\n      pop\n      jump\t// out\n        /* \"#utility.yul\":21247:21613   */\n    tag_211:\n        /* \"#utility.yul\":21389:21392   */\n      0x00\n        /* \"#utility.yul\":21410:21477   */\n      tag_421\n        /* \"#utility.yul\":21474:21476   */\n      0x27\n        /* \"#utility.yul\":21469:21472   */\n      dup4\n        /* \"#utility.yul\":21410:21477   */\n      tag_177\n      jump\t// in\n    tag_421:\n        /* \"#utility.yul\":21403:21477   */\n      swap2\n      pop\n        /* \"#utility.yul\":21486:21579   */\n      tag_422\n        /* \"#utility.yul\":21575:21578   */\n      dup3\n        /* \"#utility.yul\":21486:21579   */\n      tag_210\n      jump\t// in\n    tag_422:\n        /* \"#utility.yul\":21604:21606   */\n      0x40\n        /* \"#utility.yul\":21599:21602   */\n      dup3\n        /* \"#utility.yul\":21595:21607   */\n      add\n        /* \"#utility.yul\":21588:21607   */\n      swap1\n      pop\n        /* \"#utility.yul\":21247:21613   */\n      swap2\n      swap1\n      pop\n      jump\t// out\n        /* \"#utility.yul\":21619:22038   */\n    tag_135:\n        /* \"#utility.yul\":21785:21789   */\n      0x00\n        /* \"#utility.yul\":21823:21825   */\n      0x20\n        /* \"#utility.yul\":21812:21821   */\n      dup3\n        /* \"#utility.yul\":21808:21826   */\n      add\n        /* \"#utility.yul\":21800:21826   */\n      swap1\n      pop\n        /* \"#utility.yul\":21872:21881   */\n      dup2\n        /* \"#utility.yul\":21866:21870   */\n      dup2\n        /* \"#utility.yul\":21862:21882   */\n      sub\n        /* \"#utility.yul\":21858:21859   */\n      0x00\n        /* \"#utility.yul\":21847:21856   */\n      dup4\n        /* \"#utility.yul\":21843:21860   */\n      add\n        /* \"#utility.yul\":21836:21883   */\n      mstore\n        /* \"#utility.yul\":21900:22031   */\n      tag_424\n        /* \"#utility.yul\":22026:22030   */\n      dup2\n        /* \"#utility.yul\":21900:22031   */\n      tag_211\n      jump\t// in\n    tag_424:\n        /* \"#utility.yul\":21892:22031   */\n      swap1\n      pop\n        /* \"#utility.yul\":21619:22038   */\n      swap2\n      swap1\n      pop\n      jump\t// out\n        /* \"#utility.yul\":22044:22265   */\n    tag_212:\n        /* \"#utility.yul\":22184:22218   */\n      0x4e6f20646f63746f722061737369676e656420746f2074686973207061746965\n        /* \"#utility.yul\":22180:22181   */\n      0x00\n        /* \"#utility.yul\":22172:22178   */\n      dup3\n        /* \"#utility.yul\":22168:22182   */\n      add\n        /* \"#utility.yul\":22161:22219   */\n      mstore\n        /* \"#utility.yul\":22253:22257   */\n      0x6e74000000000000000000000000000000000000000000000000000000000000\n        /* \"#utility.yul\":22248:22250   */\n      0x20\n        /* \"#utility.yul\":22240:22246   */\n      dup3\n        /* \"#utility.yul\":22236:22251   */\n      add\n        /* \"#utility.yul\":22229:22258   */\n      mstore\n        /* \"#utility.yul\":22044:22265   */\n      pop\n      jump\t// out\n        /* \"#utility.yul\":22271:22637   */\n    tag_213:\n        /* \"#utility.yul\":22413:22416   */\n      0x00\n        /* \"#utility.yul\":22434:22501   */\n      tag_427\n        /* \"#utility.yul\":22498:22500   */\n      0x22\n        /* \"#utility.yul\":22493:22496   */\n      dup4\n        /* \"#utility.yul\":22434:22501   */\n      tag_177\n      jump\t// in\n    tag_427:\n        /* \"#utility.yul\":22427:22501   */\n      swap2\n      pop\n        /* \"#utility.yul\":22510:22603   */\n      tag_428\n        /* \"#utility.yul\":22599:22602   */\n      dup3\n        /* \"#utility.yul\":22510:22603   */\n      tag_212\n      jump\t// in\n    tag_428:\n        /* \"#utility.yul\":22628:22630   */\n      0x40\n        /* \"#utility.yul\":22623:22626   */\n      dup3\n        /* \"#utility.yul\":22619:22631   */\n      add\n        /* \"#utility.yul\":22612:22631   */\n      swap1\n      pop\n        /* \"#utility.yul\":22271:22637   */\n      swap2\n      swap1\n      pop\n      jump\t// out\n        /* \"#utility.yul\":22643:23062   */\n    tag_147:\n        /* \"#utility.yul\":22809:22813   */\n      0x00\n        /* \"#utility.yul\":22847:22849   */\n      0x20\n        /* \"#utility.yul\":22836:22845   */\n      dup3\n        /* \"#utility.yul\":22832:22850   */\n      add\n        /* \"#utility.yul\":22824:22850   */\n      swap1\n      pop\n        /* \"#utility.yul\":22896:22905   */\n      dup2\n        /* \"#utility.yul\":22890:22894   */\n      dup2\n        /* \"#utility.yul\":22886:22906   */\n      sub\n        /* \"#utility.yul\":22882:22883   */\n      0x00\n        /* \"#utility.yul\":22871:22880   */\n      dup4\n        /* \"#utility.yul\":22867:22884   */\n      add\n        /* \"#utility.yul\":22860:22907   */\n      mstore\n        /* \"#utility.yul\":22924:23055   */\n      tag_430\n        /* \"#utility.yul\":23050:23054   */\n      dup2\n        /* \"#utility.yul\":22924:23055   */\n      tag_213\n      jump\t// in\n    tag_430:\n        /* \"#utility.yul\":22916:23055   */\n      swap1\n      pop\n        /* \"#utility.yul\":22643:23062   */\n      swap2\n      swap1\n      pop\n      jump\t// out\n\n    auxdata: 0xa264697066735822122095a450642c8378cd4d17ee13a524d7febd7f86647f0bbf5ad705b12be75b63c864736f6c63430008160033\n}\n",
				"bytecode": {
					"linkReferences": {},
					"object": "608060405234801561000f575f80fd5b50335f806101000a81548173ffffffffffffffffffffffffffffffffffffffff021916908373ffffffffffffffffffffffffffffffffffffffff160217905550611c6f8061005c5f395ff3fe608060405234801561000f575f80fd5b50600436106100a7575f3560e01c80638f09ab5b1161006f5780638f09ab5b1461014f578063a9583c221461016b578063bc1d27ea1461019c578063d16a94e2146101b8578063dba8b099146101d4578063f2d6035714610204576100a7565b806355b2876c146100ab578063698a24ad146100c75780636be38131146100e35780638ca91a9a146100ff5780638da5cb5b14610131575b5f80fd5b6100c560048036038101906100c091906110fe565b610234565b005b6100e160048036038101906100dc919061113c565b6103fd565b005b6100fd60048036038101906100f8919061113c565b6105e1565b005b6101196004803603810190610114919061113c565b610836565b604051610128939291906111f8565b60405180910390f35b610139610887565b604051610146919061122d565b60405180910390f35b61016960048036038101906101649190611382565b6108aa565b005b610185600480360381019061018091906113c9565b610a78565b60405161019392919061146e565b60405180910390f35b6101b660048036038101906101b1919061113c565b610b3d565b005b6101d260048036038101906101cd919061113c565b610e26565b005b6101ee60048036038101906101e9919061113c565b611007565b6040516101fb919061122d565b60405180910390f35b61021e6004803603810190610219919061113c565b611037565b60405161022b919061149c565b60405180910390f35b5f8054906101000a900473ffffffffffffffffffffffffffffffffffffffff1673ffffffffffffffffffffffffffffffffffffffff163373ffffffffffffffffffffffffffffffffffffffff16146102c1576040517f08c379a00000000000000000000000000000000000000000000000000000000081526004016102b890611525565b60405180910390fd5b5f73ffffffffffffffffffffffffffffffffffffffff168273ffffffffffffffffffffffffffffffffffffffff160361032f576040517f08c379a00000000000000000000000000000000000000000000000000000000081526004016103269061158d565b60405180910390fd5b5f8111610371576040517f08c379a0000000000000000000000000000000000000000000000000000000008152600401610368906115f5565b60405180910390fd5b8160025f8381526020019081526020015f205f6101000a81548173ffffffffffffffffffffffffffffffffffffffff021916908373ffffffffffffffffffffffffffffffffffffffff1602179055507f244e475093222b8f3c01ffed8531f1e4b3ae9dc04bde5f4cc45aca3a9a0bec0b82826040516103f1929190611613565b60405180910390a15050565b5f8054906101000a900473ffffffffffffffffffffffffffffffffffffffff1673ffffffffffffffffffffffffffffffffffffffff163373ffffffffffffffffffffffffffffffffffffffff161461048a576040517f08c379a000000000000000000000000000000000000000000000000000000000815260040161048190611525565b60405180910390fd5b5f81116104cc576040517f08c379a00000000000000000000000000000000000000000000000000000000081526004016104c3906115f5565b60405180910390fd5b5f60035f8381526020019081526020015f2090505f60028111156104f3576104f2611185565b5b816002015f9054906101000a900460ff16600281111561051657610515611185565b5b14610556576040517f08c379a000000000000000000000000000000000000000000000000000000000815260040161054d90611684565b60405180910390fd5b6002816002015f6101000a81548160ff0219169083600281111561057d5761057c611185565b5b02179055507f4808851069c8cc195aecf6db3c959e9da7b40eab910e6fa70435042811903a8c815f015f9054906101000a900473ffffffffffffffffffffffffffffffffffffffff16836040516105d5929190611613565b60405180910390a15050565b5f8054906101000a900473ffffffffffffffffffffffffffffffffffffffff1673ffffffffffffffffffffffffffffffffffffffff163373ffffffffffffffffffffffffffffffffffffffff161461066e576040517f08c379a000000000000000000000000000000000000000000000000000000000815260040161066590611525565b60405180910390fd5b5f81116106b0576040517f08c379a00000000000000000000000000000000000000000000000000000000081526004016106a7906115f5565b60405180910390fd5b5f60035f8381526020019081526020015f2090505f60028111156106d7576106d6611185565b5b816002015f9054906101000a900460ff1660028111156106fa576106f9611185565b5b1461073a576040517f08c379a000000000000000000000000000000000000000000000000000000000815260040161073190611684565b60405180910390fd5b6001816002015f6101000a81548160ff0219169083600281111561076157610760611185565b5b0217905550805f015f9054906101000a900473ffffffffffffffffffffffffffffffffffffffff1660025f8481526020019081526020015f205f6101000a81548173ffffffffffffffffffffffffffffffffffffffff021916908373ffffffffffffffffffffffffffffffffffffffff1602179055507f0ac0275f9eaea68f95d0cf1713b52df59c7c8c29e9f7a77a0a235d326cb84655815f015f9054906101000a900473ffffffffffffffffffffffffffffffffffffffff168360405161082a929190611613565b60405180910390a15050565b6003602052805f5260405f205f91509050805f015f9054906101000a900473ffffffffffffffffffffffffffffffffffffffff1690806001015490806002015f9054906101000a900460ff16905083565b5f8054906101000a900473ffffffffffffffffffffffffffffffffffffffff1681565b5f73ffffffffffffffffffffffffffffffffffffffff1660015f3373ffffffffffffffffffffffffffffffffffffffff1673ffffffffffffffffffffffffffffffffffffffff1681526020019081526020015f206001015f9054906101000a900473ffffffffffffffffffffffffffffffffffffffff1673ffffffffffffffffffffffffffffffffffffffff1614610977576040517f08c379a000000000000000000000000000000000000000000000000000000000815260040161096e906116ec565b60405180910390fd5b60405180604001604052808281526020013373ffffffffffffffffffffffffffffffffffffffff1681525060015f3373ffffffffffffffffffffffffffffffffffffffff1673ffffffffffffffffffffffffffffffffffffffff1681526020019081526020015f205f820151815f0190816109f29190611904565b506020820151816001015f6101000a81548173ffffffffffffffffffffffffffffffffffffffff021916908373ffffffffffffffffffffffffffffffffffffffff1602179055509050507f20481b8112b5bf4734f45a473c373db9df6a79ce946cdc0e7dbc22b4f7d7f9863382604051610a6d9291906119d3565b60405180910390a150565b6001602052805f5260405f205f91509050805f018054610a9790611737565b80601f0160208091040260200160405190810160405280929190818152602001828054610ac390611737565b8015610b0e5780601f10610ae557610100808354040283529160200191610b0e565b820191905f5260205f20905b815481529060010190602001808311610af157829003601f168201915b505050505090806001015f9054906101000a900473ffffffffffffffffffffffffffffffffffffffff16905082565b5f73ffffffffffffffffffffffffffffffffffffffff1660015f3373ffffffffffffffffffffffffffffffffffffffff1673ffffffffffffffffffffffffffffffffffffffff1681526020019081526020015f206001015f9054906101000a900473ffffffffffffffffffffffffffffffffffffffff1673ffffffffffffffffffffffffffffffffffffffff1603610c0a576040517f08c379a0000000000000000000000000000000000000000000000000000000008152600401610c0190611a71565b60405180910390fd5b5f8111610c4c576040517f08c379a0000000000000000000000000000000000000000000000000000000008152600401610c43906115f5565b60405180910390fd5b3373ffffffffffffffffffffffffffffffffffffffff1660025f8381526020019081526020015f205f9054906101000a900473ffffffffffffffffffffffffffffffffffffffff1673ffffffffffffffffffffffffffffffffffffffff1614610cea576040517f08c379a0000000000000000000000000000000000000000000000000000000008152600401610ce190611aff565b60405180910390fd5b5f60035f8381526020019081526020015f2090505f6002811115610d1157610d10611185565b5b816002015f9054906101000a900460ff166002811115610d3457610d33611185565b5b14610d74576040517f08c379a0000000000000000000000000000000000000000000000000000000008152600401610d6b90611b8d565b60405180910390fd5b33815f015f6101000a81548173ffffffffffffffffffffffffffffffffffffffff021916908373ffffffffffffffffffffffffffffffffffffffff1602179055508181600101819055505f816002015f6101000a81548160ff02191690836002811115610de457610de3611185565b5b02179055507ff82d889b7eb3cf9e1be7d90b5d1e4c34638299a7b73dd3c56460d856b54658c63383604051610e1a929190611613565b60405180910390a15050565b5f8054906101000a900473ffffffffffffffffffffffffffffffffffffffff1673ffffffffffffffffffffffffffffffffffffffff163373ffffffffffffffffffffffffffffffffffffffff1614610eb3576040517f08c379a0000000000000000000000000000000000000000000000000000000008152600401610eaa90611525565b60405180910390fd5b5f8111610ef5576040517f08c379a0000000000000000000000000000000000000000000000000000000008152600401610eec906115f5565b60405180910390fd5b5f60025f8381526020019081526020015f205f9054906101000a900473ffffffffffffffffffffffffffffffffffffffff1690505f73ffffffffffffffffffffffffffffffffffffffff168173ffffffffffffffffffffffffffffffffffffffff1603610f97576040517f08c379a0000000000000000000000000000000000000000000000000000000008152600401610f8e90611c1b565b60405180910390fd5b60025f8381526020019081526020015f205f6101000a81549073ffffffffffffffffffffffffffffffffffffffff02191690557f29b9cf4cf99649fc226b110c01d607258e50e9405cc00b66c37d2c457bc955d38183604051610ffb929190611613565b60405180910390a15050565b6002602052805f5260405f205f915054906101000a900473ffffffffffffffffffffffffffffffffffffffff1681565b5f60035f8381526020019081526020015f206002015f9054906101000a900460ff169050919050565b5f604051905090565b5f80fd5b5f80fd5b5f73ffffffffffffffffffffffffffffffffffffffff82169050919050565b5f61109a82611071565b9050919050565b6110aa81611090565b81146110b4575f80fd5b50565b5f813590506110c5816110a1565b92915050565b5f819050919050565b6110dd816110cb565b81146110e7575f80fd5b50565b5f813590506110f8816110d4565b92915050565b5f806040838503121561111457611113611069565b5b5f611121858286016110b7565b9250506020611132858286016110ea565b9150509250929050565b5f6020828403121561115157611150611069565b5b5f61115e848285016110ea565b91505092915050565b61117081611090565b82525050565b61117f816110cb565b82525050565b7f4e487b71000000000000000000000000000000000000000000000000000000005f52602160045260245ffd5b600381106111c3576111c2611185565b5b50565b5f8190506111d3826111b2565b919050565b5f6111e2826111c6565b9050919050565b6111f2816111d8565b82525050565b5f60608201905061120b5f830186611167565b6112186020830185611176565b61122560408301846111e9565b949350505050565b5f6020820190506112405f830184611167565b92915050565b5f80fd5b5f80fd5b5f601f19601f8301169050919050565b7f4e487b71000000000000000000000000000000000000000000000000000000005f52604160045260245ffd5b6112948261124e565b810181811067ffffffffffffffff821117156112b3576112b261125e565b5b80604052505050565b5f6112c5611060565b90506112d1828261128b565b919050565b5f67ffffffffffffffff8211156112f0576112ef61125e565b5b6112f98261124e565b9050602081019050919050565b828183375f83830152505050565b5f611326611321846112d6565b6112bc565b9050828152602081018484840111156113425761134161124a565b5b61134d848285611306565b509392505050565b5f82601f83011261136957611368611246565b5b8135611379848260208601611314565b91505092915050565b5f6020828403121561139757611396611069565b5b5f82013567ffffffffffffffff8111156113b4576113b361106d565b5b6113c084828501611355565b91505092915050565b5f602082840312156113de576113dd611069565b5b5f6113eb848285016110b7565b91505092915050565b5f81519050919050565b5f82825260208201905092915050565b5f5b8381101561142b578082015181840152602081019050611410565b5f8484015250505050565b5f611440826113f4565b61144a81856113fe565b935061145a81856020860161140e565b6114638161124e565b840191505092915050565b5f6040820190508181035f8301526114868185611436565b90506114956020830184611167565b9392505050565b5f6020820190506114af5f8301846111e9565b92915050565b7f4f6e6c7920746865206f776e65722063616e2063616c6c20746869732066756e5f8201527f6374696f6e000000000000000000000000000000000000000000000000000000602082015250565b5f61150f6025836113fe565b915061151a826114b5565b604082019050919050565b5f6020820190508181035f83015261153c81611503565b9050919050565b7f496e76616c696420646f63746f722061646472657373000000000000000000005f82015250565b5f6115776016836113fe565b915061158282611543565b602082019050919050565b5f6020820190508181035f8301526115a48161156b565b9050919050565b7f496e76616c69642070617469656e7420494400000000000000000000000000005f82015250565b5f6115df6012836113fe565b91506115ea826115ab565b602082019050919050565b5f6020820190508181035f83015261160c816115d3565b9050919050565b5f6040820190506116265f830185611167565b6116336020830184611176565b9392505050565b7f4163636573732072657175657374206973206e6f742070656e64696e670000005f82015250565b5f61166e601d836113fe565b91506116798261163a565b602082019050919050565b5f6020820190508181035f83015261169b81611662565b9050919050565b7f446f63746f7220616c72656164792072656769737465726564000000000000005f82015250565b5f6116d66019836113fe565b91506116e1826116a2565b602082019050919050565b5f6020820190508181035f830152611703816116ca565b9050919050565b7f4e487b71000000000000000000000000000000000000000000000000000000005f52602260045260245ffd5b5f600282049050600182168061174e57607f821691505b6020821081036117615761176061170a565b5b50919050565b5f819050815f5260205f209050919050565b5f6020601f8301049050919050565b5f82821b905092915050565b5f600883026117c37fffffffffffffffffffffffffffffffffffffffffffffffffffffffffffffffff82611788565b6117cd8683611788565b95508019841693508086168417925050509392505050565b5f819050919050565b5f6118086118036117fe846110cb565b6117e5565b6110cb565b9050919050565b5f819050919050565b611821836117ee565b61183561182d8261180f565b848454611794565b825550505050565b5f90565b61184961183d565b611854818484611818565b505050565b5b818110156118775761186c5f82611841565b60018101905061185a565b5050565b601f8211156118bc5761188d81611767565b61189684611779565b810160208510156118a5578190505b6118b96118b185611779565b830182611859565b50505b505050565b5f82821c905092915050565b5f6118dc5f19846008026118c1565b1980831691505092915050565b5f6118f483836118cd565b9150826002028217905092915050565b61190d826113f4565b67ffffffffffffffff8111156119265761192561125e565b5b6119308254611737565b61193b82828561187b565b5f60209050601f83116001811461196c575f841561195a578287015190505b61196485826118e9565b8655506119cb565b601f19841661197a86611767565b5f5b828110156119a15784890151825560018201915060208501945060208101905061197c565b868310156119be57848901516119ba601f8916826118cd565b8355505b6001600288020188555050505b505050505050565b5f6040820190506119e65f830185611167565b81810360208301526119f88184611436565b90509392505050565b7f4f6e6c79207265676973746572656420646f63746f72732063616e20616363655f8201527f737320746869732066756e6374696f6e00000000000000000000000000000000602082015250565b5f611a5b6030836113fe565b9150611a6682611a01565b604082019050919050565b5f6020820190508181035f830152611a8881611a4f565b9050919050565b7f596f7520617265206e6f742061737369676e656420746f2074686973207061745f8201527f69656e7400000000000000000000000000000000000000000000000000000000602082015250565b5f611ae96024836113fe565b9150611af482611a8f565b604082019050919050565b5f6020820190508181035f830152611b1681611add565b9050919050565b7f416363657373207265717565737420616c72656164792073656e74206f7220615f8201527f7070726f76656400000000000000000000000000000000000000000000000000602082015250565b5f611b776027836113fe565b9150611b8282611b1d565b604082019050919050565b5f6020820190508181035f830152611ba481611b6b565b9050919050565b7f4e6f20646f63746f722061737369676e656420746f20746869732070617469655f8201527f6e74000000000000000000000000000000000000000000000000000000000000602082015250565b5f611c056022836113fe565b9150611c1082611bab565b604082019050919050565b5f6020820190508181035f830152611c3281611bf9565b905091905056fea264697066735822122095a450642c8378cd4d17ee13a524d7febd7f86647f0bbf5ad705b12be75b63c864736f6c63430008160033",
					"opcodes": "PUSH1 0x80 PUSH1 0x40 MSTORE CALLVALUE DUP1 ISZERO PUSH2 0xF JUMPI PUSH0 DUP1 REVERT JUMPDEST POP CALLER PUSH0 DUP1 PUSH2 0x100 EXP DUP2 SLOAD DUP2 PUSH20 0xFFFFFFFFFFFFFFFFFFFFFFFFFFFFFFFFFFFFFFFF MUL NOT AND SWAP1 DUP4 PUSH20 0xFFFFFFFFFFFFFFFFFFFFFFFFFFFFFFFFFFFFFFFF AND MUL OR SWAP1 SSTORE POP PUSH2 0x1C6F DUP1 PUSH2 0x5C PUSH0 CODECOPY PUSH0 RETURN INVALID PUSH1 0x80 PUSH1 0x40 MSTORE CALLVALUE DUP1 ISZERO PUSH2 0xF JUMPI PUSH0 DUP1 REVERT JUMPDEST POP PUSH1 0x4 CALLDATASIZE LT PUSH2 0xA7 JUMPI PUSH0 CALLDATALOAD PUSH1 0xE0 SHR DUP1 PUSH4 0x8F09AB5B GT PUSH2 0x6F JUMPI DUP1 PUSH4 0x8F09AB5B EQ PUSH2 0x14F JUMPI DUP1 PUSH4 0xA9583C22 EQ PUSH2 0x16B JUMPI DUP1 PUSH4 0xBC1D27EA EQ PUSH2 0x19C JUMPI DUP1 PUSH4 0xD16A94E2 EQ PUSH2 0x1B8 JUMPI DUP1 PUSH4 0xDBA8B099 EQ PUSH2 0x1D4 JUMPI DUP1 PUSH4 0xF2D60357 EQ PUSH2 0x204 JUMPI PUSH2 0xA7 JUMP JUMPDEST DUP1 PUSH4 0x55B2876C EQ PUSH2 0xAB JUMPI DUP1 PUSH4 0x698A24AD EQ PUSH2 0xC7 JUMPI DUP1 PUSH4 0x6BE38131 EQ PUSH2 0xE3 JUMPI DUP1 PUSH4 0x8CA91A9A EQ PUSH2 0xFF JUMPI DUP1 PUSH4 0x8DA5CB5B EQ PUSH2 0x131 JUMPI JUMPDEST PUSH0 DUP1 REVERT JUMPDEST PUSH2 0xC5 PUSH1 0x4 DUP1 CALLDATASIZE SUB DUP2 ADD SWAP1 PUSH2 0xC0 SWAP2 SWAP1 PUSH2 0x10FE JUMP JUMPDEST PUSH2 0x234 JUMP JUMPDEST STOP JUMPDEST PUSH2 0xE1 PUSH1 0x4 DUP1 CALLDATASIZE SUB DUP2 ADD SWAP1 PUSH2 0xDC SWAP2 SWAP1 PUSH2 0x113C JUMP JUMPDEST PUSH2 0x3FD JUMP JUMPDEST STOP JUMPDEST PUSH2 0xFD PUSH1 0x4 DUP1 CALLDATASIZE SUB DUP2 ADD SWAP1 PUSH2 0xF8 SWAP2 SWAP1 PUSH2 0x113C JUMP JUMPDEST PUSH2 0x5E1 JUMP JUMPDEST STOP JUMPDEST PUSH2 0x119 PUSH1 0x4 DUP1 CALLDATASIZE SUB DUP2 ADD SWAP1 PUSH2 0x114 SWAP2 SWAP1 PUSH2 0x113C JUMP JUMPDEST PUSH2 0x836 JUMP JUMPDEST PUSH1 0x40 MLOAD PUSH2 0x128 SWAP4 SWAP3 SWAP2 SWAP1 PUSH2 0x11F8 JUMP JUMPDEST PUSH1 0x40 MLOAD DUP1 SWAP2 SUB SWAP1 RETURN JUMPDEST PUSH2 0x139 PUSH2 0x887 JUMP JUMPDEST PUSH1 0x40 MLOAD PUSH2 0x146 SWAP2 SWAP1 PUSH2 0x122D JUMP JUMPDEST PUSH1 0x40 MLOAD DUP1 SWAP2 SUB SWAP1 RETURN JUMPDEST PUSH2 0x169 PUSH1 0x4 DUP1 CALLDATASIZE SUB DUP2 ADD SWAP1 PUSH2 0x164 SWAP2 SWAP1 PUSH2 0x1382 JUMP JUMPDEST PUSH2 0x8AA JUMP JUMPDEST STOP JUMPDEST PUSH2 0x185 PUSH1 0x4 DUP1 CALLDATASIZE SUB DUP2 ADD SWAP1 PUSH2 0x180 SWAP2 SWAP1 PUSH2 0x13C9 JUMP JUMPDEST PUSH2 0xA78 JUMP JUMPDEST PUSH1 0x40 MLOAD PUSH2 0x193 SWAP3 SWAP2 SWAP1 PUSH2 0x146E JUMP JUMPDEST PUSH1 0x40 MLOAD DUP1 SWAP2 SUB SWAP1 RETURN JUMPDEST PUSH2 0x1B6 PUSH1 0x4 DUP1 CALLDATASIZE SUB DUP2 ADD SWAP1 PUSH2 0x1B1 SWAP2 SWAP1 PUSH2 0x113C JUMP JUMPDEST PUSH2 0xB3D JUMP JUMPDEST STOP JUMPDEST PUSH2 0x1D2 PUSH1 0x4 DUP1 CALLDATASIZE SUB DUP2 ADD SWAP1 PUSH2 0x1CD SWAP2 SWAP1 PUSH2 0x113C JUMP JUMPDEST PUSH2 0xE26 JUMP JUMPDEST STOP JUMPDEST PUSH2 0x1EE PUSH1 0x4 DUP1 CALLDATASIZE SUB DUP2 ADD SWAP1 PUSH2 0x1E9 SWAP2 SWAP1 PUSH2 0x113C JUMP JUMPDEST PUSH2 0x1007 JUMP JUMPDEST PUSH1 0x40 MLOAD PUSH2 0x1FB SWAP2 SWAP1 PUSH2 0x122D JUMP JUMPDEST PUSH1 0x40 MLOAD DUP1 SWAP2 SUB SWAP1 RETURN JUMPDEST PUSH2 0x21E PUSH1 0x4 DUP1 CALLDATASIZE SUB DUP2 ADD SWAP1 PUSH2 0x219 SWAP2 SWAP1 PUSH2 0x113C JUMP JUMPDEST PUSH2 0x1037 JUMP JUMPDEST PUSH1 0x40 MLOAD PUSH2 0x22B SWAP2 SWAP1 PUSH2 0x149C JUMP JUMPDEST PUSH1 0x40 MLOAD DUP1 SWAP2 SUB SWAP1 RETURN JUMPDEST PUSH0 DUP1 SLOAD SWAP1 PUSH2 0x100 EXP SWAP1 DIV PUSH20 0xFFFFFFFFFFFFFFFFFFFFFFFFFFFFFFFFFFFFFFFF AND PUSH20 0xFFFFFFFFFFFFFFFFFFFFFFFFFFFFFFFFFFFFFFFF AND CALLER PUSH20 0xFFFFFFFFFFFFFFFFFFFFFFFFFFFFFFFFFFFFFFFF AND EQ PUSH2 0x2C1 JUMPI PUSH1 0x40 MLOAD PUSH32 0x8C379A000000000000000000000000000000000000000000000000000000000 DUP2 MSTORE PUSH1 0x4 ADD PUSH2 0x2B8 SWAP1 PUSH2 0x1525 JUMP JUMPDEST PUSH1 0x40 MLOAD DUP1 SWAP2 SUB SWAP1 REVERT JUMPDEST PUSH0 PUSH20 0xFFFFFFFFFFFFFFFFFFFFFFFFFFFFFFFFFFFFFFFF AND DUP3 PUSH20 0xFFFFFFFFFFFFFFFFFFFFFFFFFFFFFFFFFFFFFFFF AND SUB PUSH2 0x32F JUMPI PUSH1 0x40 MLOAD PUSH32 0x8C379A000000000000000000000000000000000000000000000000000000000 DUP2 MSTORE PUSH1 0x4 ADD PUSH2 0x326 SWAP1 PUSH2 0x158D JUMP JUMPDEST PUSH1 0x40 MLOAD DUP1 SWAP2 SUB SWAP1 REVERT JUMPDEST PUSH0 DUP2 GT PUSH2 0x371 JUMPI PUSH1 0x40 MLOAD PUSH32 0x8C379A000000000000000000000000000000000000000000000000000000000 DUP2 MSTORE PUSH1 0x4 ADD PUSH2 0x368 SWAP1 PUSH2 0x15F5 JUMP JUMPDEST PUSH1 0x40 MLOAD DUP1 SWAP2 SUB SWAP1 REVERT JUMPDEST DUP2 PUSH1 0x2 PUSH0 DUP4 DUP2 MSTORE PUSH1 0x20 ADD SWAP1 DUP2 MSTORE PUSH1 0x20 ADD PUSH0 KECCAK256 PUSH0 PUSH2 0x100 EXP DUP2 SLOAD DUP2 PUSH20 0xFFFFFFFFFFFFFFFFFFFFFFFFFFFFFFFFFFFFFFFF MUL NOT AND SWAP1 DUP4 PUSH20 0xFFFFFFFFFFFFFFFFFFFFFFFFFFFFFFFFFFFFFFFF AND MUL OR SWAP1 SSTORE POP PUSH32 0x244E475093222B8F3C01FFED8531F1E4B3AE9DC04BDE5F4CC45ACA3A9A0BEC0B DUP3 DUP3 PUSH1 0x40 MLOAD PUSH2 0x3F1 SWAP3 SWAP2 SWAP1 PUSH2 0x1613 JUMP JUMPDEST PUSH1 0x40 MLOAD DUP1 SWAP2 SUB SWAP1 LOG1 POP POP JUMP JUMPDEST PUSH0 DUP1 SLOAD SWAP1 PUSH2 0x100 EXP SWAP1 DIV PUSH20 0xFFFFFFFFFFFFFFFFFFFFFFFFFFFFFFFFFFFFFFFF AND PUSH20 0xFFFFFFFFFFFFFFFFFFFFFFFFFFFFFFFFFFFFFFFF AND CALLER PUSH20 0xFFFFFFFFFFFFFFFFFFFFFFFFFFFFFFFFFFFFFFFF AND EQ PUSH2 0x48A JUMPI PUSH1 0x40 MLOAD PUSH32 0x8C379A000000000000000000000000000000000000000000000000000000000 DUP2 MSTORE PUSH1 0x4 ADD PUSH2 0x481 SWAP1 PUSH2 0x1525 JUMP JUMPDEST PUSH1 0x40 MLOAD DUP1 SWAP2 SUB SWAP1 REVERT JUMPDEST PUSH0 DUP2 GT PUSH2 0x4CC JUMPI PUSH1 0x40 MLOAD PUSH32 0x8C379A000000000000000000000000000000000000000000000000000000000 DUP2 MSTORE PUSH1 0x4 ADD PUSH2 0x4C3 SWAP1 PUSH2 0x15F5 JUMP JUMPDEST PUSH1 0x40 MLOAD DUP1 SWAP2 SUB SWAP1 REVERT JUMPDEST PUSH0 PUSH1 0x3 PUSH0 DUP4 DUP2 MSTORE PUSH1 0x20 ADD SWAP1 DUP2 MSTORE PUSH1 0x20 ADD PUSH0 KECCAK256 SWAP1 POP PUSH0 PUSH1 0x2 DUP2 GT ISZERO PUSH2 0x4F3 JUMPI PUSH2 0x4F2 PUSH2 0x1185 JUMP JUMPDEST JUMPDEST DUP2 PUSH1 0x2 ADD PUSH0 SWAP1 SLOAD SWAP1 PUSH2 0x100 EXP SWAP1 DIV PUSH1 0xFF AND PUSH1 0x2 DUP2 GT ISZERO PUSH2 0x516 JUMPI PUSH2 0x515 PUSH2 0x1185 JUMP JUMPDEST JUMPDEST EQ PUSH2 0x556 JUMPI PUSH1 0x40 MLOAD PUSH32 0x8C379A000000000000000000000000000000000000000000000000000000000 DUP2 MSTORE PUSH1 0x4 ADD PUSH2 0x54D SWAP1 PUSH2 0x1684 JUMP JUMPDEST PUSH1 0x40 MLOAD DUP1 SWAP2 SUB SWAP1 REVERT JUMPDEST PUSH1 0x2 DUP2 PUSH1 0x2 ADD PUSH0 PUSH2 0x100 EXP DUP2 SLOAD DUP2 PUSH1 0xFF MUL NOT AND SWAP1 DUP4 PUSH1 0x2 DUP2 GT ISZERO PUSH2 0x57D JUMPI PUSH2 0x57C PUSH2 0x1185 JUMP JUMPDEST JUMPDEST MUL OR SWAP1 SSTORE POP PUSH32 0x4808851069C8CC195AECF6DB3C959E9DA7B40EAB910E6FA70435042811903A8C DUP2 PUSH0 ADD PUSH0 SWAP1 SLOAD SWAP1 PUSH2 0x100 EXP SWAP1 DIV PUSH20 0xFFFFFFFFFFFFFFFFFFFFFFFFFFFFFFFFFFFFFFFF AND DUP4 PUSH1 0x40 MLOAD PUSH2 0x5D5 SWAP3 SWAP2 SWAP1 PUSH2 0x1613 JUMP JUMPDEST PUSH1 0x40 MLOAD DUP1 SWAP2 SUB SWAP1 LOG1 POP POP JUMP JUMPDEST PUSH0 DUP1 SLOAD SWAP1 PUSH2 0x100 EXP SWAP1 DIV PUSH20 0xFFFFFFFFFFFFFFFFFFFFFFFFFFFFFFFFFFFFFFFF AND PUSH20 0xFFFFFFFFFFFFFFFFFFFFFFFFFFFFFFFFFFFFFFFF AND CALLER PUSH20 0xFFFFFFFFFFFFFFFFFFFFFFFFFFFFFFFFFFFFFFFF AND EQ PUSH2 0x66E JUMPI PUSH1 0x40 MLOAD PUSH32 0x8C379A000000000000000000000000000000000000000000000000000000000 DUP2 MSTORE PUSH1 0x4 ADD PUSH2 0x665 SWAP1 PUSH2 0x1525 JUMP JUMPDEST PUSH1 0x40 MLOAD DUP1 SWAP2 SUB SWAP1 REVERT JUMPDEST PUSH0 DUP2 GT PUSH2 0x6B0 JUMPI PUSH1 0x40 MLOAD PUSH32 0x8C379A000000000000000000000000000000000000000000000000000000000 DUP2 MSTORE PUSH1 0x4 ADD PUSH2 0x6A7 SWAP1 PUSH2 0x15F5 JUMP JUMPDEST PUSH1 0x40 MLOAD DUP1 SWAP2 SUB SWAP1 REVERT JUMPDEST PUSH0 PUSH1 0x3 PUSH0 DUP4 DUP2 MSTORE PUSH1 0x20 ADD SWAP1 DUP2 MSTORE PUSH1 0x20 ADD PUSH0 KECCAK256 SWAP1 POP PUSH0 PUSH1 0x2 DUP2 GT ISZERO PUSH2 0x6D7 JUMPI PUSH2 0x6D6 PUSH2 0x1185 JUMP JUMPDEST JUMPDEST DUP2 PUSH1 0x2 ADD PUSH0 SWAP1 SLOAD SWAP1 PUSH2 0x100 EXP SWAP1 DIV PUSH1 0xFF AND PUSH1 0x2 DUP2 GT ISZERO PUSH2 0x6FA JUMPI PUSH2 0x6F9 PUSH2 0x1185 JUMP JUMPDEST JUMPDEST EQ PUSH2 0x73A JUMPI PUSH1 0x40 MLOAD PUSH32 0x8C379A000000000000000000000000000000000000000000000000000000000 DUP2 MSTORE PUSH1 0x4 ADD PUSH2 0x731 SWAP1 PUSH2 0x1684 JUMP JUMPDEST PUSH1 0x40 MLOAD DUP1 SWAP2 SUB SWAP1 REVERT JUMPDEST PUSH1 0x1 DUP2 PUSH1 0x2 ADD PUSH0 PUSH2 0x100 EXP DUP2 SLOAD DUP2 PUSH1 0xFF MUL NOT AND SWAP1 DUP4 PUSH1 0x2 DUP2 GT ISZERO PUSH2 0x761 JUMPI PUSH2 0x760 PUSH2 0x1185 JUMP JUMPDEST JUMPDEST MUL OR SWAP1 SSTORE POP DUP1 PUSH0 ADD PUSH0 SWAP1 SLOAD SWAP1 PUSH2 0x100 EXP SWAP1 DIV PUSH20 0xFFFFFFFFFFFFFFFFFFFFFFFFFFFFFFFFFFFFFFFF AND PUSH1 0x2 PUSH0 DUP5 DUP2 MSTORE PUSH1 0x20 ADD SWAP1 DUP2 MSTORE PUSH1 0x20 ADD PUSH0 KECCAK256 PUSH0 PUSH2 0x100 EXP DUP2 SLOAD DUP2 PUSH20 0xFFFFFFFFFFFFFFFFFFFFFFFFFFFFFFFFFFFFFFFF MUL NOT AND SWAP1 DUP4 PUSH20 0xFFFFFFFFFFFFFFFFFFFFFFFFFFFFFFFFFFFFFFFF AND MUL OR SWAP1 SSTORE POP PUSH32 0xAC0275F9EAEA68F95D0CF1713B52DF59C7C8C29E9F7A77A0A235D326CB84655 DUP2 PUSH0 ADD PUSH0 SWAP1 SLOAD SWAP1 PUSH2 0x100 EXP SWAP1 DIV PUSH20 0xFFFFFFFFFFFFFFFFFFFFFFFFFFFFFFFFFFFFFFFF AND DUP4 PUSH1 0x40 MLOAD PUSH2 0x82A SWAP3 SWAP2 SWAP1 PUSH2 0x1613 JUMP JUMPDEST PUSH1 0x40 MLOAD DUP1 SWAP2 SUB SWAP1 LOG1 POP POP JUMP JUMPDEST PUSH1 0x3 PUSH1 0x20 MSTORE DUP1 PUSH0 MSTORE PUSH1 0x40 PUSH0 KECCAK256 PUSH0 SWAP2 POP SWAP1 POP DUP1 PUSH0 ADD PUSH0 SWAP1 SLOAD SWAP1 PUSH2 0x100 EXP SWAP1 DIV PUSH20 0xFFFFFFFFFFFFFFFFFFFFFFFFFFFFFFFFFFFFFFFF AND SWAP1 DUP1 PUSH1 0x1 ADD SLOAD SWAP1 DUP1 PUSH1 0x2 ADD PUSH0 SWAP1 SLOAD SWAP1 PUSH2 0x100 EXP SWAP1 DIV PUSH1 0xFF AND SWAP1 POP DUP4 JUMP JUMPDEST PUSH0 DUP1 SLOAD SWAP1 PUSH2 0x100 EXP SWAP1 DIV PUSH20 0xFFFFFFFFFFFFFFFFFFFFFFFFFFFFFFFFFFFFFFFF AND DUP2 JUMP JUMPDEST PUSH0 PUSH20 0xFFFFFFFFFFFFFFFFFFFFFFFFFFFFFFFFFFFFFFFF AND PUSH1 0x1 PUSH0 CALLER PUSH20 0xFFFFFFFFFFFFFFFFFFFFFFFFFFFFFFFFFFFFFFFF AND PUSH20 0xFFFFFFFFFFFFFFFFFFFFFFFFFFFFFFFFFFFFFFFF AND DUP2 MSTORE PUSH1 0x20 ADD SWAP1 DUP2 MSTORE PUSH1 0x20 ADD PUSH0 KECCAK256 PUSH1 0x1 ADD PUSH0 SWAP1 SLOAD SWAP1 PUSH2 0x100 EXP SWAP1 DIV PUSH20 0xFFFFFFFFFFFFFFFFFFFFFFFFFFFFFFFFFFFFFFFF AND PUSH20 0xFFFFFFFFFFFFFFFFFFFFFFFFFFFFFFFFFFFFFFFF AND EQ PUSH2 0x977 JUMPI PUSH1 0x40 MLOAD PUSH32 0x8C379A000000000000000000000000000000000000000000000000000000000 DUP2 MSTORE PUSH1 0x4 ADD PUSH2 0x96E SWAP1 PUSH2 0x16EC JUMP JUMPDEST PUSH1 0x40 MLOAD DUP1 SWAP2 SUB SWAP1 REVERT JUMPDEST PUSH1 0x40 MLOAD DUP1 PUSH1 0x40 ADD PUSH1 0x40 MSTORE DUP1 DUP3 DUP2 MSTORE PUSH1 0x20 ADD CALLER PUSH20 0xFFFFFFFFFFFFFFFFFFFFFFFFFFFFFFFFFFFFFFFF AND DUP2 MSTORE POP PUSH1 0x1 PUSH0 CALLER PUSH20 0xFFFFFFFFFFFFFFFFFFFFFFFFFFFFFFFFFFFFFFFF AND PUSH20 0xFFFFFFFFFFFFFFFFFFFFFFFFFFFFFFFFFFFFFFFF AND DUP2 MSTORE PUSH1 0x20 ADD SWAP1 DUP2 MSTORE PUSH1 0x20 ADD PUSH0 KECCAK256 PUSH0 DUP3 ADD MLOAD DUP2 PUSH0 ADD SWAP1 DUP2 PUSH2 0x9F2 SWAP2 SWAP1 PUSH2 0x1904 JUMP JUMPDEST POP PUSH1 0x20 DUP3 ADD MLOAD DUP2 PUSH1 0x1 ADD PUSH0 PUSH2 0x100 EXP DUP2 SLOAD DUP2 PUSH20 0xFFFFFFFFFFFFFFFFFFFFFFFFFFFFFFFFFFFFFFFF MUL NOT AND SWAP1 DUP4 PUSH20 0xFFFFFFFFFFFFFFFFFFFFFFFFFFFFFFFFFFFFFFFF AND MUL OR SWAP1 SSTORE POP SWAP1 POP POP PUSH32 0x20481B8112B5BF4734F45A473C373DB9DF6A79CE946CDC0E7DBC22B4F7D7F986 CALLER DUP3 PUSH1 0x40 MLOAD PUSH2 0xA6D SWAP3 SWAP2 SWAP1 PUSH2 0x19D3 JUMP JUMPDEST PUSH1 0x40 MLOAD DUP1 SWAP2 SUB SWAP1 LOG1 POP JUMP JUMPDEST PUSH1 0x1 PUSH1 0x20 MSTORE DUP1 PUSH0 MSTORE PUSH1 0x40 PUSH0 KECCAK256 PUSH0 SWAP2 POP SWAP1 POP DUP1 PUSH0 ADD DUP1 SLOAD PUSH2 0xA97 SWAP1 PUSH2 0x1737 JUMP JUMPDEST DUP1 PUSH1 0x1F ADD PUSH1 0x20 DUP1 SWAP2 DIV MUL PUSH1 0x20 ADD PUSH1 0x40 MLOAD SWAP1 DUP2 ADD PUSH1 0x40 MSTORE DUP1 SWAP3 SWAP2 SWAP1 DUP2 DUP2 MSTORE PUSH1 0x20 ADD DUP3 DUP1 SLOAD PUSH2 0xAC3 SWAP1 PUSH2 0x1737 JUMP JUMPDEST DUP1 ISZERO PUSH2 0xB0E JUMPI DUP1 PUSH1 0x1F LT PUSH2 0xAE5 JUMPI PUSH2 0x100 DUP1 DUP4 SLOAD DIV MUL DUP4 MSTORE SWAP2 PUSH1 0x20 ADD SWAP2 PUSH2 0xB0E JUMP JUMPDEST DUP3 ADD SWAP2 SWAP1 PUSH0 MSTORE PUSH1 0x20 PUSH0 KECCAK256 SWAP1 JUMPDEST DUP2 SLOAD DUP2 MSTORE SWAP1 PUSH1 0x1 ADD SWAP1 PUSH1 0x20 ADD DUP1 DUP4 GT PUSH2 0xAF1 JUMPI DUP3 SWAP1 SUB PUSH1 0x1F AND DUP3 ADD SWAP2 JUMPDEST POP POP POP POP POP SWAP1 DUP1 PUSH1 0x1 ADD PUSH0 SWAP1 SLOAD SWAP1 PUSH2 0x100 EXP SWAP1 DIV PUSH20 0xFFFFFFFFFFFFFFFFFFFFFFFFFFFFFFFFFFFFFFFF AND SWAP1 POP DUP3 JUMP JUMPDEST PUSH0 PUSH20 0xFFFFFFFFFFFFFFFFFFFFFFFFFFFFFFFFFFFFFFFF AND PUSH1 0x1 PUSH0 CALLER PUSH20 0xFFFFFFFFFFFFFFFFFFFFFFFFFFFFFFFFFFFFFFFF AND PUSH20 0xFFFFFFFFFFFFFFFFFFFFFFFFFFFFFFFFFFFFFFFF AND DUP2 MSTORE PUSH1 0x20 ADD SWAP1 DUP2 MSTORE PUSH1 0x20 ADD PUSH0 KECCAK256 PUSH1 0x1 ADD PUSH0 SWAP1 SLOAD SWAP1 PUSH2 0x100 EXP SWAP1 DIV PUSH20 0xFFFFFFFFFFFFFFFFFFFFFFFFFFFFFFFFFFFFFFFF AND PUSH20 0xFFFFFFFFFFFFFFFFFFFFFFFFFFFFFFFFFFFFFFFF AND SUB PUSH2 0xC0A JUMPI PUSH1 0x40 MLOAD PUSH32 0x8C379A000000000000000000000000000000000000000000000000000000000 DUP2 MSTORE PUSH1 0x4 ADD PUSH2 0xC01 SWAP1 PUSH2 0x1A71 JUMP JUMPDEST PUSH1 0x40 MLOAD DUP1 SWAP2 SUB SWAP1 REVERT JUMPDEST PUSH0 DUP2 GT PUSH2 0xC4C JUMPI PUSH1 0x40 MLOAD PUSH32 0x8C379A000000000000000000000000000000000000000000000000000000000 DUP2 MSTORE PUSH1 0x4 ADD PUSH2 0xC43 SWAP1 PUSH2 0x15F5 JUMP JUMPDEST PUSH1 0x40 MLOAD DUP1 SWAP2 SUB SWAP1 REVERT JUMPDEST CALLER PUSH20 0xFFFFFFFFFFFFFFFFFFFFFFFFFFFFFFFFFFFFFFFF AND PUSH1 0x2 PUSH0 DUP4 DUP2 MSTORE PUSH1 0x20 ADD SWAP1 DUP2 MSTORE PUSH1 0x20 ADD PUSH0 KECCAK256 PUSH0 SWAP1 SLOAD SWAP1 PUSH2 0x100 EXP SWAP1 DIV PUSH20 0xFFFFFFFFFFFFFFFFFFFFFFFFFFFFFFFFFFFFFFFF AND PUSH20 0xFFFFFFFFFFFFFFFFFFFFFFFFFFFFFFFFFFFFFFFF AND EQ PUSH2 0xCEA JUMPI PUSH1 0x40 MLOAD PUSH32 0x8C379A000000000000000000000000000000000000000000000000000000000 DUP2 MSTORE PUSH1 0x4 ADD PUSH2 0xCE1 SWAP1 PUSH2 0x1AFF JUMP JUMPDEST PUSH1 0x40 MLOAD DUP1 SWAP2 SUB SWAP1 REVERT JUMPDEST PUSH0 PUSH1 0x3 PUSH0 DUP4 DUP2 MSTORE PUSH1 0x20 ADD SWAP1 DUP2 MSTORE PUSH1 0x20 ADD PUSH0 KECCAK256 SWAP1 POP PUSH0 PUSH1 0x2 DUP2 GT ISZERO PUSH2 0xD11 JUMPI PUSH2 0xD10 PUSH2 0x1185 JUMP JUMPDEST JUMPDEST DUP2 PUSH1 0x2 ADD PUSH0 SWAP1 SLOAD SWAP1 PUSH2 0x100 EXP SWAP1 DIV PUSH1 0xFF AND PUSH1 0x2 DUP2 GT ISZERO PUSH2 0xD34 JUMPI PUSH2 0xD33 PUSH2 0x1185 JUMP JUMPDEST JUMPDEST EQ PUSH2 0xD74 JUMPI PUSH1 0x40 MLOAD PUSH32 0x8C379A000000000000000000000000000000000000000000000000000000000 DUP2 MSTORE PUSH1 0x4 ADD PUSH2 0xD6B SWAP1 PUSH2 0x1B8D JUMP JUMPDEST PUSH1 0x40 MLOAD DUP1 SWAP2 SUB SWAP1 REVERT JUMPDEST CALLER DUP2 PUSH0 ADD PUSH0 PUSH2 0x100 EXP DUP2 SLOAD DUP2 PUSH20 0xFFFFFFFFFFFFFFFFFFFFFFFFFFFFFFFFFFFFFFFF MUL NOT AND SWAP1 DUP4 PUSH20 0xFFFFFFFFFFFFFFFFFFFFFFFFFFFFFFFFFFFFFFFF AND MUL OR SWAP1 SSTORE POP DUP2 DUP2 PUSH1 0x1 ADD DUP2 SWAP1 SSTORE POP PUSH0 DUP2 PUSH1 0x2 ADD PUSH0 PUSH2 0x100 EXP DUP2 SLOAD DUP2 PUSH1 0xFF MUL NOT AND SWAP1 DUP4 PUSH1 0x2 DUP2 GT ISZERO PUSH2 0xDE4 JUMPI PUSH2 0xDE3 PUSH2 0x1185 JUMP JUMPDEST JUMPDEST MUL OR SWAP1 SSTORE POP PUSH32 0xF82D889B7EB3CF9E1BE7D90B5D1E4C34638299A7B73DD3C56460D856B54658C6 CALLER DUP4 PUSH1 0x40 MLOAD PUSH2 0xE1A SWAP3 SWAP2 SWAP1 PUSH2 0x1613 JUMP JUMPDEST PUSH1 0x40 MLOAD DUP1 SWAP2 SUB SWAP1 LOG1 POP POP JUMP JUMPDEST PUSH0 DUP1 SLOAD SWAP1 PUSH2 0x100 EXP SWAP1 DIV PUSH20 0xFFFFFFFFFFFFFFFFFFFFFFFFFFFFFFFFFFFFFFFF AND PUSH20 0xFFFFFFFFFFFFFFFFFFFFFFFFFFFFFFFFFFFFFFFF AND CALLER PUSH20 0xFFFFFFFFFFFFFFFFFFFFFFFFFFFFFFFFFFFFFFFF AND EQ PUSH2 0xEB3 JUMPI PUSH1 0x40 MLOAD PUSH32 0x8C379A000000000000000000000000000000000000000000000000000000000 DUP2 MSTORE PUSH1 0x4 ADD PUSH2 0xEAA SWAP1 PUSH2 0x1525 JUMP JUMPDEST PUSH1 0x40 MLOAD DUP1 SWAP2 SUB SWAP1 REVERT JUMPDEST PUSH0 DUP2 GT PUSH2 0xEF5 JUMPI PUSH1 0x40 MLOAD PUSH32 0x8C379A000000000000000000000000000000000000000000000000000000000 DUP2 MSTORE PUSH1 0x4 ADD PUSH2 0xEEC SWAP1 PUSH2 0x15F5 JUMP JUMPDEST PUSH1 0x40 MLOAD DUP1 SWAP2 SUB SWAP1 REVERT JUMPDEST PUSH0 PUSH1 0x2 PUSH0 DUP4 DUP2 MSTORE PUSH1 0x20 ADD SWAP1 DUP2 MSTORE PUSH1 0x20 ADD PUSH0 KECCAK256 PUSH0 SWAP1 SLOAD SWAP1 PUSH2 0x100 EXP SWAP1 DIV PUSH20 0xFFFFFFFFFFFFFFFFFFFFFFFFFFFFFFFFFFFFFFFF AND SWAP1 POP PUSH0 PUSH20 0xFFFFFFFFFFFFFFFFFFFFFFFFFFFFFFFFFFFFFFFF AND DUP2 PUSH20 0xFFFFFFFFFFFFFFFFFFFFFFFFFFFFFFFFFFFFFFFF AND SUB PUSH2 0xF97 JUMPI PUSH1 0x40 MLOAD PUSH32 0x8C379A000000000000000000000000000000000000000000000000000000000 DUP2 MSTORE PUSH1 0x4 ADD PUSH2 0xF8E SWAP1 PUSH2 0x1C1B JUMP JUMPDEST PUSH1 0x40 MLOAD DUP1 SWAP2 SUB SWAP1 REVERT JUMPDEST PUSH1 0x2 PUSH0 DUP4 DUP2 MSTORE PUSH1 0x20 ADD SWAP1 DUP2 MSTORE PUSH1 0x20 ADD PUSH0 KECCAK256 PUSH0 PUSH2 0x100 EXP DUP2 SLOAD SWAP1 PUSH20 0xFFFFFFFFFFFFFFFFFFFFFFFFFFFFFFFFFFFFFFFF MUL NOT AND SWAP1 SSTORE PUSH32 0x29B9CF4CF99649FC226B110C01D607258E50E9405CC00B66C37D2C457BC955D3 DUP2 DUP4 PUSH1 0x40 MLOAD PUSH2 0xFFB SWAP3 SWAP2 SWAP1 PUSH2 0x1613 JUMP JUMPDEST PUSH1 0x40 MLOAD DUP1 SWAP2 SUB SWAP1 LOG1 POP POP JUMP JUMPDEST PUSH1 0x2 PUSH1 0x20 MSTORE DUP1 PUSH0 MSTORE PUSH1 0x40 PUSH0 KECCAK256 PUSH0 SWAP2 POP SLOAD SWAP1 PUSH2 0x100 EXP SWAP1 DIV PUSH20 0xFFFFFFFFFFFFFFFFFFFFFFFFFFFFFFFFFFFFFFFF AND DUP2 JUMP JUMPDEST PUSH0 PUSH1 0x3 PUSH0 DUP4 DUP2 MSTORE PUSH1 0x20 ADD SWAP1 DUP2 MSTORE PUSH1 0x20 ADD PUSH0 KECCAK256 PUSH1 0x2 ADD PUSH0 SWAP1 SLOAD SWAP1 PUSH2 0x100 EXP SWAP1 DIV PUSH1 0xFF AND SWAP1 POP SWAP2 SWAP1 POP JUMP JUMPDEST PUSH0 PUSH1 0x40 MLOAD SWAP1 POP SWAP1 JUMP JUMPDEST PUSH0 DUP1 REVERT JUMPDEST PUSH0 DUP1 REVERT JUMPDEST PUSH0 PUSH20 0xFFFFFFFFFFFFFFFFFFFFFFFFFFFFFFFFFFFFFFFF DUP3 AND SWAP1 POP SWAP2 SWAP1 POP JUMP JUMPDEST PUSH0 PUSH2 0x109A DUP3 PUSH2 0x1071 JUMP JUMPDEST SWAP1 POP SWAP2 SWAP1 POP JUMP JUMPDEST PUSH2 0x10AA DUP2 PUSH2 0x1090 JUMP JUMPDEST DUP2 EQ PUSH2 0x10B4 JUMPI PUSH0 DUP1 REVERT JUMPDEST POP JUMP JUMPDEST PUSH0 DUP2 CALLDATALOAD SWAP1 POP PUSH2 0x10C5 DUP2 PUSH2 0x10A1 JUMP JUMPDEST SWAP3 SWAP2 POP POP JUMP JUMPDEST PUSH0 DUP2 SWAP1 POP SWAP2 SWAP1 POP JUMP JUMPDEST PUSH2 0x10DD DUP2 PUSH2 0x10CB JUMP JUMPDEST DUP2 EQ PUSH2 0x10E7 JUMPI PUSH0 DUP1 REVERT JUMPDEST POP JUMP JUMPDEST PUSH0 DUP2 CALLDATALOAD SWAP1 POP PUSH2 0x10F8 DUP2 PUSH2 0x10D4 JUMP JUMPDEST SWAP3 SWAP2 POP POP JUMP JUMPDEST PUSH0 DUP1 PUSH1 0x40 DUP4 DUP6 SUB SLT ISZERO PUSH2 0x1114 JUMPI PUSH2 0x1113 PUSH2 0x1069 JUMP JUMPDEST JUMPDEST PUSH0 PUSH2 0x1121 DUP6 DUP3 DUP7 ADD PUSH2 0x10B7 JUMP JUMPDEST SWAP3 POP POP PUSH1 0x20 PUSH2 0x1132 DUP6 DUP3 DUP7 ADD PUSH2 0x10EA JUMP JUMPDEST SWAP2 POP POP SWAP3 POP SWAP3 SWAP1 POP JUMP JUMPDEST PUSH0 PUSH1 0x20 DUP3 DUP5 SUB SLT ISZERO PUSH2 0x1151 JUMPI PUSH2 0x1150 PUSH2 0x1069 JUMP JUMPDEST JUMPDEST PUSH0 PUSH2 0x115E DUP5 DUP3 DUP6 ADD PUSH2 0x10EA JUMP JUMPDEST SWAP2 POP POP SWAP3 SWAP2 POP POP JUMP JUMPDEST PUSH2 0x1170 DUP2 PUSH2 0x1090 JUMP JUMPDEST DUP3 MSTORE POP POP JUMP JUMPDEST PUSH2 0x117F DUP2 PUSH2 0x10CB JUMP JUMPDEST DUP3 MSTORE POP POP JUMP JUMPDEST PUSH32 0x4E487B7100000000000000000000000000000000000000000000000000000000 PUSH0 MSTORE PUSH1 0x21 PUSH1 0x4 MSTORE PUSH1 0x24 PUSH0 REVERT JUMPDEST PUSH1 0x3 DUP2 LT PUSH2 0x11C3 JUMPI PUSH2 0x11C2 PUSH2 0x1185 JUMP JUMPDEST JUMPDEST POP JUMP JUMPDEST PUSH0 DUP2 SWAP1 POP PUSH2 0x11D3 DUP3 PUSH2 0x11B2 JUMP JUMPDEST SWAP2 SWAP1 POP JUMP JUMPDEST PUSH0 PUSH2 0x11E2 DUP3 PUSH2 0x11C6 JUMP JUMPDEST SWAP1 POP SWAP2 SWAP1 POP JUMP JUMPDEST PUSH2 0x11F2 DUP2 PUSH2 0x11D8 JUMP JUMPDEST DUP3 MSTORE POP POP JUMP JUMPDEST PUSH0 PUSH1 0x60 DUP3 ADD SWAP1 POP PUSH2 0x120B PUSH0 DUP4 ADD DUP7 PUSH2 0x1167 JUMP JUMPDEST PUSH2 0x1218 PUSH1 0x20 DUP4 ADD DUP6 PUSH2 0x1176 JUMP JUMPDEST PUSH2 0x1225 PUSH1 0x40 DUP4 ADD DUP5 PUSH2 0x11E9 JUMP JUMPDEST SWAP5 SWAP4 POP POP POP POP JUMP JUMPDEST PUSH0 PUSH1 0x20 DUP3 ADD SWAP1 POP PUSH2 0x1240 PUSH0 DUP4 ADD DUP5 PUSH2 0x1167 JUMP JUMPDEST SWAP3 SWAP2 POP POP JUMP JUMPDEST PUSH0 DUP1 REVERT JUMPDEST PUSH0 DUP1 REVERT JUMPDEST PUSH0 PUSH1 0x1F NOT PUSH1 0x1F DUP4 ADD AND SWAP1 POP SWAP2 SWAP1 POP JUMP JUMPDEST PUSH32 0x4E487B7100000000000000000000000000000000000000000000000000000000 PUSH0 MSTORE PUSH1 0x41 PUSH1 0x4 MSTORE PUSH1 0x24 PUSH0 REVERT JUMPDEST PUSH2 0x1294 DUP3 PUSH2 0x124E JUMP JUMPDEST DUP2 ADD DUP2 DUP2 LT PUSH8 0xFFFFFFFFFFFFFFFF DUP3 GT OR ISZERO PUSH2 0x12B3 JUMPI PUSH2 0x12B2 PUSH2 0x125E JUMP JUMPDEST JUMPDEST DUP1 PUSH1 0x40 MSTORE POP POP POP JUMP JUMPDEST PUSH0 PUSH2 0x12C5 PUSH2 0x1060 JUMP JUMPDEST SWAP1 POP PUSH2 0x12D1 DUP3 DUP3 PUSH2 0x128B JUMP JUMPDEST SWAP2 SWAP1 POP JUMP JUMPDEST PUSH0 PUSH8 0xFFFFFFFFFFFFFFFF DUP3 GT ISZERO PUSH2 0x12F0 JUMPI PUSH2 0x12EF PUSH2 0x125E JUMP JUMPDEST JUMPDEST PUSH2 0x12F9 DUP3 PUSH2 0x124E JUMP JUMPDEST SWAP1 POP PUSH1 0x20 DUP2 ADD SWAP1 POP SWAP2 SWAP1 POP JUMP JUMPDEST DUP3 DUP2 DUP4 CALLDATACOPY PUSH0 DUP4 DUP4 ADD MSTORE POP POP POP JUMP JUMPDEST PUSH0 PUSH2 0x1326 PUSH2 0x1321 DUP5 PUSH2 0x12D6 JUMP JUMPDEST PUSH2 0x12BC JUMP JUMPDEST SWAP1 POP DUP3 DUP2 MSTORE PUSH1 0x20 DUP2 ADD DUP5 DUP5 DUP5 ADD GT ISZERO PUSH2 0x1342 JUMPI PUSH2 0x1341 PUSH2 0x124A JUMP JUMPDEST JUMPDEST PUSH2 0x134D DUP5 DUP3 DUP6 PUSH2 0x1306 JUMP JUMPDEST POP SWAP4 SWAP3 POP POP POP JUMP JUMPDEST PUSH0 DUP3 PUSH1 0x1F DUP4 ADD SLT PUSH2 0x1369 JUMPI PUSH2 0x1368 PUSH2 0x1246 JUMP JUMPDEST JUMPDEST DUP2 CALLDATALOAD PUSH2 0x1379 DUP5 DUP3 PUSH1 0x20 DUP7 ADD PUSH2 0x1314 JUMP JUMPDEST SWAP2 POP POP SWAP3 SWAP2 POP POP JUMP JUMPDEST PUSH0 PUSH1 0x20 DUP3 DUP5 SUB SLT ISZERO PUSH2 0x1397 JUMPI PUSH2 0x1396 PUSH2 0x1069 JUMP JUMPDEST JUMPDEST PUSH0 DUP3 ADD CALLDATALOAD PUSH8 0xFFFFFFFFFFFFFFFF DUP2 GT ISZERO PUSH2 0x13B4 JUMPI PUSH2 0x13B3 PUSH2 0x106D JUMP JUMPDEST JUMPDEST PUSH2 0x13C0 DUP5 DUP3 DUP6 ADD PUSH2 0x1355 JUMP JUMPDEST SWAP2 POP POP SWAP3 SWAP2 POP POP JUMP JUMPDEST PUSH0 PUSH1 0x20 DUP3 DUP5 SUB SLT ISZERO PUSH2 0x13DE JUMPI PUSH2 0x13DD PUSH2 0x1069 JUMP JUMPDEST JUMPDEST PUSH0 PUSH2 0x13EB DUP5 DUP3 DUP6 ADD PUSH2 0x10B7 JUMP JUMPDEST SWAP2 POP POP SWAP3 SWAP2 POP POP JUMP JUMPDEST PUSH0 DUP2 MLOAD SWAP1 POP SWAP2 SWAP1 POP JUMP JUMPDEST PUSH0 DUP3 DUP3 MSTORE PUSH1 0x20 DUP3 ADD SWAP1 POP SWAP3 SWAP2 POP POP JUMP JUMPDEST PUSH0 JUMPDEST DUP4 DUP2 LT ISZERO PUSH2 0x142B JUMPI DUP1 DUP3 ADD MLOAD DUP2 DUP5 ADD MSTORE PUSH1 0x20 DUP2 ADD SWAP1 POP PUSH2 0x1410 JUMP JUMPDEST PUSH0 DUP5 DUP5 ADD MSTORE POP POP POP POP JUMP JUMPDEST PUSH0 PUSH2 0x1440 DUP3 PUSH2 0x13F4 JUMP JUMPDEST PUSH2 0x144A DUP2 DUP6 PUSH2 0x13FE JUMP JUMPDEST SWAP4 POP PUSH2 0x145A DUP2 DUP6 PUSH1 0x20 DUP7 ADD PUSH2 0x140E JUMP JUMPDEST PUSH2 0x1463 DUP2 PUSH2 0x124E JUMP JUMPDEST DUP5 ADD SWAP2 POP POP SWAP3 SWAP2 POP POP JUMP JUMPDEST PUSH0 PUSH1 0x40 DUP3 ADD SWAP1 POP DUP2 DUP2 SUB PUSH0 DUP4 ADD MSTORE PUSH2 0x1486 DUP2 DUP6 PUSH2 0x1436 JUMP JUMPDEST SWAP1 POP PUSH2 0x1495 PUSH1 0x20 DUP4 ADD DUP5 PUSH2 0x1167 JUMP JUMPDEST SWAP4 SWAP3 POP POP POP JUMP JUMPDEST PUSH0 PUSH1 0x20 DUP3 ADD SWAP1 POP PUSH2 0x14AF PUSH0 DUP4 ADD DUP5 PUSH2 0x11E9 JUMP JUMPDEST SWAP3 SWAP2 POP POP JUMP JUMPDEST PUSH32 0x4F6E6C7920746865206F776E65722063616E2063616C6C20746869732066756E PUSH0 DUP3 ADD MSTORE PUSH32 0x6374696F6E000000000000000000000000000000000000000000000000000000 PUSH1 0x20 DUP3 ADD MSTORE POP JUMP JUMPDEST PUSH0 PUSH2 0x150F PUSH1 0x25 DUP4 PUSH2 0x13FE JUMP JUMPDEST SWAP2 POP PUSH2 0x151A DUP3 PUSH2 0x14B5 JUMP JUMPDEST PUSH1 0x40 DUP3 ADD SWAP1 POP SWAP2 SWAP1 POP JUMP JUMPDEST PUSH0 PUSH1 0x20 DUP3 ADD SWAP1 POP DUP2 DUP2 SUB PUSH0 DUP4 ADD MSTORE PUSH2 0x153C DUP2 PUSH2 0x1503 JUMP JUMPDEST SWAP1 POP SWAP2 SWAP1 POP JUMP JUMPDEST PUSH32 0x496E76616C696420646F63746F72206164647265737300000000000000000000 PUSH0 DUP3 ADD MSTORE POP JUMP JUMPDEST PUSH0 PUSH2 0x1577 PUSH1 0x16 DUP4 PUSH2 0x13FE JUMP JUMPDEST SWAP2 POP PUSH2 0x1582 DUP3 PUSH2 0x1543 JUMP JUMPDEST PUSH1 0x20 DUP3 ADD SWAP1 POP SWAP2 SWAP1 POP JUMP JUMPDEST PUSH0 PUSH1 0x20 DUP3 ADD SWAP1 POP DUP2 DUP2 SUB PUSH0 DUP4 ADD MSTORE PUSH2 0x15A4 DUP2 PUSH2 0x156B JUMP JUMPDEST SWAP1 POP SWAP2 SWAP1 POP JUMP JUMPDEST PUSH32 0x496E76616C69642070617469656E742049440000000000000000000000000000 PUSH0 DUP3 ADD MSTORE POP JUMP JUMPDEST PUSH0 PUSH2 0x15DF PUSH1 0x12 DUP4 PUSH2 0x13FE JUMP JUMPDEST SWAP2 POP PUSH2 0x15EA DUP3 PUSH2 0x15AB JUMP JUMPDEST PUSH1 0x20 DUP3 ADD SWAP1 POP SWAP2 SWAP1 POP JUMP JUMPDEST PUSH0 PUSH1 0x20 DUP3 ADD SWAP1 POP DUP2 DUP2 SUB PUSH0 DUP4 ADD MSTORE PUSH2 0x160C DUP2 PUSH2 0x15D3 JUMP JUMPDEST SWAP1 POP SWAP2 SWAP1 POP JUMP JUMPDEST PUSH0 PUSH1 0x40 DUP3 ADD SWAP1 POP PUSH2 0x1626 PUSH0 DUP4 ADD DUP6 PUSH2 0x1167 JUMP JUMPDEST PUSH2 0x1633 PUSH1 0x20 DUP4 ADD DUP5 PUSH2 0x1176 JUMP JUMPDEST SWAP4 SWAP3 POP POP POP JUMP JUMPDEST PUSH32 0x4163636573732072657175657374206973206E6F742070656E64696E67000000 PUSH0 DUP3 ADD MSTORE POP JUMP JUMPDEST PUSH0 PUSH2 0x166E PUSH1 0x1D DUP4 PUSH2 0x13FE JUMP JUMPDEST SWAP2 POP PUSH2 0x1679 DUP3 PUSH2 0x163A JUMP JUMPDEST PUSH1 0x20 DUP3 ADD SWAP1 POP SWAP2 SWAP1 POP JUMP JUMPDEST PUSH0 PUSH1 0x20 DUP3 ADD SWAP1 POP DUP2 DUP2 SUB PUSH0 DUP4 ADD MSTORE PUSH2 0x169B DUP2 PUSH2 0x1662 JUMP JUMPDEST SWAP1 POP SWAP2 SWAP1 POP JUMP JUMPDEST PUSH32 0x446F63746F7220616C7265616479207265676973746572656400000000000000 PUSH0 DUP3 ADD MSTORE POP JUMP JUMPDEST PUSH0 PUSH2 0x16D6 PUSH1 0x19 DUP4 PUSH2 0x13FE JUMP JUMPDEST SWAP2 POP PUSH2 0x16E1 DUP3 PUSH2 0x16A2 JUMP JUMPDEST PUSH1 0x20 DUP3 ADD SWAP1 POP SWAP2 SWAP1 POP JUMP JUMPDEST PUSH0 PUSH1 0x20 DUP3 ADD SWAP1 POP DUP2 DUP2 SUB PUSH0 DUP4 ADD MSTORE PUSH2 0x1703 DUP2 PUSH2 0x16CA JUMP JUMPDEST SWAP1 POP SWAP2 SWAP1 POP JUMP JUMPDEST PUSH32 0x4E487B7100000000000000000000000000000000000000000000000000000000 PUSH0 MSTORE PUSH1 0x22 PUSH1 0x4 MSTORE PUSH1 0x24 PUSH0 REVERT JUMPDEST PUSH0 PUSH1 0x2 DUP3 DIV SWAP1 POP PUSH1 0x1 DUP3 AND DUP1 PUSH2 0x174E JUMPI PUSH1 0x7F DUP3 AND SWAP2 POP JUMPDEST PUSH1 0x20 DUP3 LT DUP2 SUB PUSH2 0x1761 JUMPI PUSH2 0x1760 PUSH2 0x170A JUMP JUMPDEST JUMPDEST POP SWAP2 SWAP1 POP JUMP JUMPDEST PUSH0 DUP2 SWAP1 POP DUP2 PUSH0 MSTORE PUSH1 0x20 PUSH0 KECCAK256 SWAP1 POP SWAP2 SWAP1 POP JUMP JUMPDEST PUSH0 PUSH1 0x20 PUSH1 0x1F DUP4 ADD DIV SWAP1 POP SWAP2 SWAP1 POP JUMP JUMPDEST PUSH0 DUP3 DUP3 SHL SWAP1 POP SWAP3 SWAP2 POP POP JUMP JUMPDEST PUSH0 PUSH1 0x8 DUP4 MUL PUSH2 0x17C3 PUSH32 0xFFFFFFFFFFFFFFFFFFFFFFFFFFFFFFFFFFFFFFFFFFFFFFFFFFFFFFFFFFFFFFFF DUP3 PUSH2 0x1788 JUMP JUMPDEST PUSH2 0x17CD DUP7 DUP4 PUSH2 0x1788 JUMP JUMPDEST SWAP6 POP DUP1 NOT DUP5 AND SWAP4 POP DUP1 DUP7 AND DUP5 OR SWAP3 POP POP POP SWAP4 SWAP3 POP POP POP JUMP JUMPDEST PUSH0 DUP2 SWAP1 POP SWAP2 SWAP1 POP JUMP JUMPDEST PUSH0 PUSH2 0x1808 PUSH2 0x1803 PUSH2 0x17FE DUP5 PUSH2 0x10CB JUMP JUMPDEST PUSH2 0x17E5 JUMP JUMPDEST PUSH2 0x10CB JUMP JUMPDEST SWAP1 POP SWAP2 SWAP1 POP JUMP JUMPDEST PUSH0 DUP2 SWAP1 POP SWAP2 SWAP1 POP JUMP JUMPDEST PUSH2 0x1821 DUP4 PUSH2 0x17EE JUMP JUMPDEST PUSH2 0x1835 PUSH2 0x182D DUP3 PUSH2 0x180F JUMP JUMPDEST DUP5 DUP5 SLOAD PUSH2 0x1794 JUMP JUMPDEST DUP3 SSTORE POP POP POP POP JUMP JUMPDEST PUSH0 SWAP1 JUMP JUMPDEST PUSH2 0x1849 PUSH2 0x183D JUMP JUMPDEST PUSH2 0x1854 DUP2 DUP5 DUP5 PUSH2 0x1818 JUMP JUMPDEST POP POP POP JUMP JUMPDEST JUMPDEST DUP2 DUP2 LT ISZERO PUSH2 0x1877 JUMPI PUSH2 0x186C PUSH0 DUP3 PUSH2 0x1841 JUMP JUMPDEST PUSH1 0x1 DUP2 ADD SWAP1 POP PUSH2 0x185A JUMP JUMPDEST POP POP JUMP JUMPDEST PUSH1 0x1F DUP3 GT ISZERO PUSH2 0x18BC JUMPI PUSH2 0x188D DUP2 PUSH2 0x1767 JUMP JUMPDEST PUSH2 0x1896 DUP5 PUSH2 0x1779 JUMP JUMPDEST DUP2 ADD PUSH1 0x20 DUP6 LT ISZERO PUSH2 0x18A5 JUMPI DUP2 SWAP1 POP JUMPDEST PUSH2 0x18B9 PUSH2 0x18B1 DUP6 PUSH2 0x1779 JUMP JUMPDEST DUP4 ADD DUP3 PUSH2 0x1859 JUMP JUMPDEST POP POP JUMPDEST POP POP POP JUMP JUMPDEST PUSH0 DUP3 DUP3 SHR SWAP1 POP SWAP3 SWAP2 POP POP JUMP JUMPDEST PUSH0 PUSH2 0x18DC PUSH0 NOT DUP5 PUSH1 0x8 MUL PUSH2 0x18C1 JUMP JUMPDEST NOT DUP1 DUP4 AND SWAP2 POP POP SWAP3 SWAP2 POP POP JUMP JUMPDEST PUSH0 PUSH2 0x18F4 DUP4 DUP4 PUSH2 0x18CD JUMP JUMPDEST SWAP2 POP DUP3 PUSH1 0x2 MUL DUP3 OR SWAP1 POP SWAP3 SWAP2 POP POP JUMP JUMPDEST PUSH2 0x190D DUP3 PUSH2 0x13F4 JUMP JUMPDEST PUSH8 0xFFFFFFFFFFFFFFFF DUP2 GT ISZERO PUSH2 0x1926 JUMPI PUSH2 0x1925 PUSH2 0x125E JUMP JUMPDEST JUMPDEST PUSH2 0x1930 DUP3 SLOAD PUSH2 0x1737 JUMP JUMPDEST PUSH2 0x193B DUP3 DUP3 DUP6 PUSH2 0x187B JUMP JUMPDEST PUSH0 PUSH1 0x20 SWAP1 POP PUSH1 0x1F DUP4 GT PUSH1 0x1 DUP2 EQ PUSH2 0x196C JUMPI PUSH0 DUP5 ISZERO PUSH2 0x195A JUMPI DUP3 DUP8 ADD MLOAD SWAP1 POP JUMPDEST PUSH2 0x1964 DUP6 DUP3 PUSH2 0x18E9 JUMP JUMPDEST DUP7 SSTORE POP PUSH2 0x19CB JUMP JUMPDEST PUSH1 0x1F NOT DUP5 AND PUSH2 0x197A DUP7 PUSH2 0x1767 JUMP JUMPDEST PUSH0 JUMPDEST DUP3 DUP2 LT ISZERO PUSH2 0x19A1 JUMPI DUP5 DUP10 ADD MLOAD DUP3 SSTORE PUSH1 0x1 DUP3 ADD SWAP2 POP PUSH1 0x20 DUP6 ADD SWAP5 POP PUSH1 0x20 DUP2 ADD SWAP1 POP PUSH2 0x197C JUMP JUMPDEST DUP7 DUP4 LT ISZERO PUSH2 0x19BE JUMPI DUP5 DUP10 ADD MLOAD PUSH2 0x19BA PUSH1 0x1F DUP10 AND DUP3 PUSH2 0x18CD JUMP JUMPDEST DUP4 SSTORE POP JUMPDEST PUSH1 0x1 PUSH1 0x2 DUP9 MUL ADD DUP9 SSTORE POP POP POP JUMPDEST POP POP POP POP POP POP JUMP JUMPDEST PUSH0 PUSH1 0x40 DUP3 ADD SWAP1 POP PUSH2 0x19E6 PUSH0 DUP4 ADD DUP6 PUSH2 0x1167 JUMP JUMPDEST DUP2 DUP2 SUB PUSH1 0x20 DUP4 ADD MSTORE PUSH2 0x19F8 DUP2 DUP5 PUSH2 0x1436 JUMP JUMPDEST SWAP1 POP SWAP4 SWAP3 POP POP POP JUMP JUMPDEST PUSH32 0x4F6E6C79207265676973746572656420646F63746F72732063616E2061636365 PUSH0 DUP3 ADD MSTORE PUSH32 0x737320746869732066756E6374696F6E00000000000000000000000000000000 PUSH1 0x20 DUP3 ADD MSTORE POP JUMP JUMPDEST PUSH0 PUSH2 0x1A5B PUSH1 0x30 DUP4 PUSH2 0x13FE JUMP JUMPDEST SWAP2 POP PUSH2 0x1A66 DUP3 PUSH2 0x1A01 JUMP JUMPDEST PUSH1 0x40 DUP3 ADD SWAP1 POP SWAP2 SWAP1 POP JUMP JUMPDEST PUSH0 PUSH1 0x20 DUP3 ADD SWAP1 POP DUP2 DUP2 SUB PUSH0 DUP4 ADD MSTORE PUSH2 0x1A88 DUP2 PUSH2 0x1A4F JUMP JUMPDEST SWAP1 POP SWAP2 SWAP1 POP JUMP JUMPDEST PUSH32 0x596F7520617265206E6F742061737369676E656420746F207468697320706174 PUSH0 DUP3 ADD MSTORE PUSH32 0x69656E7400000000000000000000000000000000000000000000000000000000 PUSH1 0x20 DUP3 ADD MSTORE POP JUMP JUMPDEST PUSH0 PUSH2 0x1AE9 PUSH1 0x24 DUP4 PUSH2 0x13FE JUMP JUMPDEST SWAP2 POP PUSH2 0x1AF4 DUP3 PUSH2 0x1A8F JUMP JUMPDEST PUSH1 0x40 DUP3 ADD SWAP1 POP SWAP2 SWAP1 POP JUMP JUMPDEST PUSH0 PUSH1 0x20 DUP3 ADD SWAP1 POP DUP2 DUP2 SUB PUSH0 DUP4 ADD MSTORE PUSH2 0x1B16 DUP2 PUSH2 0x1ADD JUMP JUMPDEST SWAP1 POP SWAP2 SWAP1 POP JUMP JUMPDEST PUSH32 0x416363657373207265717565737420616C72656164792073656E74206F722061 PUSH0 DUP3 ADD MSTORE PUSH32 0x7070726F76656400000000000000000000000000000000000000000000000000 PUSH1 0x20 DUP3 ADD MSTORE POP JUMP JUMPDEST PUSH0 PUSH2 0x1B77 PUSH1 0x27 DUP4 PUSH2 0x13FE JUMP JUMPDEST SWAP2 POP PUSH2 0x1B82 DUP3 PUSH2 0x1B1D JUMP JUMPDEST PUSH1 0x40 DUP3 ADD SWAP1 POP SWAP2 SWAP1 POP JUMP JUMPDEST PUSH0 PUSH1 0x20 DUP3 ADD SWAP1 POP DUP2 DUP2 SUB PUSH0 DUP4 ADD MSTORE PUSH2 0x1BA4 DUP2 PUSH2 0x1B6B JUMP JUMPDEST SWAP1 POP SWAP2 SWAP1 POP JUMP JUMPDEST PUSH32 0x4E6F20646F63746F722061737369676E656420746F2074686973207061746965 PUSH0 DUP3 ADD MSTORE PUSH32 0x6E74000000000000000000000000000000000000000000000000000000000000 PUSH1 0x20 DUP3 ADD MSTORE POP JUMP JUMPDEST PUSH0 PUSH2 0x1C05 PUSH1 0x22 DUP4 PUSH2 0x13FE JUMP JUMPDEST SWAP2 POP PUSH2 0x1C10 DUP3 PUSH2 0x1BAB JUMP JUMPDEST PUSH1 0x40 DUP3 ADD SWAP1 POP SWAP2 SWAP1 POP JUMP JUMPDEST PUSH0 PUSH1 0x20 DUP3 ADD SWAP1 POP DUP2 DUP2 SUB PUSH0 DUP4 ADD MSTORE PUSH2 0x1C32 DUP2 PUSH2 0x1BF9 JUMP JUMPDEST SWAP1 POP SWAP2 SWAP1 POP JUMP INVALID LOG2 PUSH5 0x6970667358 0x22 SLT KECCAK256 SWAP6 LOG4 POP PUSH5 0x2C8378CD4D OR 0xEE SGT 0xA5 0x24 0xD7 INVALID 0xBD PUSH32 0x86647F0BBF5AD705B12BE75B63C864736F6C6343000816003300000000000000 "
				},
				"gasEstimates": {
					"creation": {
						"codeDepositCost": "1455800",
						"executionCost": "25783",
						"totalCost": "1481583"
					},
					"external": {
						"accessRequests(uint256)": "infinite",
						"approveAccessRequest(uint256)": "infinite",
						"assignDoctorToPatient(address,uint256)": "infinite",
						"doctors(address)": "infinite",
						"getAccessRequestStatus(uint256)": "3014",
						"owner()": "2594",
						"patientToDoctor(uint256)": "2915",
						"registerDoctor(string)": "infinite",
						"rejectAccessRequest(uint256)": "infinite",
						"revokeDoctorAccessToPatient(uint256)": "infinite",
						"sendAccessRequest(uint256)": "infinite"
					}
				},
				"methodIdentifiers": {
					"accessRequests(uint256)": "8ca91a9a",
					"approveAccessRequest(uint256)": "6be38131",
					"assignDoctorToPatient(address,uint256)": "55b2876c",
					"doctors(address)": "a9583c22",
					"getAccessRequestStatus(uint256)": "f2d60357",
					"owner()": "8da5cb5b",
					"patientToDoctor(uint256)": "dba8b099",
					"registerDoctor(string)": "8f09ab5b",
					"rejectAccessRequest(uint256)": "698a24ad",
					"revokeDoctorAccessToPatient(uint256)": "d16a94e2",
					"sendAccessRequest(uint256)": "bc1d27ea"
				}
			},
			"storageLayout": {
				"storage": [
					{
						"astId": 3,
						"contract": "ehr.sol:Report",
						"label": "owner",
						"offset": 0,
						"slot": "0",
						"type": "t_address"
					},
					{
						"astId": 25,
						"contract": "ehr.sol:Report",
						"label": "doctors",
						"offset": 0,
						"slot": "1",
						"type": "t_mapping(t_address,t_struct(Doctor)12_storage)"
					},
					{
						"astId": 29,
						"contract": "ehr.sol:Report",
						"label": "patientToDoctor",
						"offset": 0,
						"slot": "2",
						"type": "t_mapping(t_uint256,t_address)"
					},
					{
						"astId": 34,
						"contract": "ehr.sol:Report",
						"label": "accessRequests",
						"offset": 0,
						"slot": "3",
						"type": "t_mapping(t_uint256,t_struct(AccessRequest)20_storage)"
					}
				],
				"types": {
					"t_address": {
						"encoding": "inplace",
						"label": "address",
						"numberOfBytes": "20"
					},
					"t_enum(RequestStatus)7": {
						"encoding": "inplace",
						"label": "enum Report.RequestStatus",
						"numberOfBytes": "1"
					},
					"t_mapping(t_address,t_struct(Doctor)12_storage)": {
						"encoding": "mapping",
						"key": "t_address",
						"label": "mapping(address => struct Report.Doctor)",
						"numberOfBytes": "32",
						"value": "t_struct(Doctor)12_storage"
					},
					"t_mapping(t_uint256,t_address)": {
						"encoding": "mapping",
						"key": "t_uint256",
						"label": "mapping(uint256 => address)",
						"numberOfBytes": "32",
						"value": "t_address"
					},
					"t_mapping(t_uint256,t_struct(AccessRequest)20_storage)": {
						"encoding": "mapping",
						"key": "t_uint256",
						"label": "mapping(uint256 => struct Report.AccessRequest)",
						"numberOfBytes": "32",
						"value": "t_struct(AccessRequest)20_storage"
					},
					"t_string_storage": {
						"encoding": "bytes",
						"label": "string",
						"numberOfBytes": "32"
					},
					"t_struct(AccessRequest)20_storage": {
						"encoding": "inplace",
						"label": "struct Report.AccessRequest",
						"members": [
							{
								"astId": 14,
								"contract": "ehr.sol:Report",
								"label": "doctorAddress",
								"offset": 0,
								"slot": "0",
								"type": "t_address"
							},
							{
								"astId": 16,
								"contract": "ehr.sol:Report",
								"label": "patientId",
								"offset": 0,
								"slot": "1",
								"type": "t_uint256"
							},
							{
								"astId": 19,
								"contract": "ehr.sol:Report",
								"label": "status",
								"offset": 0,
								"slot": "2",
								"type": "t_enum(RequestStatus)7"
							}
						],
						"numberOfBytes": "96"
					},
					"t_struct(Doctor)12_storage": {
						"encoding": "inplace",
						"label": "struct Report.Doctor",
						"members": [
							{
								"astId": 9,
								"contract": "ehr.sol:Report",
								"label": "name",
								"offset": 0,
								"slot": "0",
								"type": "t_string_storage"
							},
							{
								"astId": 11,
								"contract": "ehr.sol:Report",
								"label": "doctorAddress",
								"offset": 0,
								"slot": "1",
								"type": "t_address"
							}
						],
						"numberOfBytes": "64"
					},
					"t_uint256": {
						"encoding": "inplace",
						"label": "uint256",
						"numberOfBytes": "32"
					}
				}
			},
			"userdoc": {
				"kind": "user",
				"methods": {},
				"version": 1
			}
		}
	}
}