{
	"lib.sol": {
		"Utils": {
			"abi": [
				{
					"inputs": [
						{
							"internalType": "uint256",
							"name": "length",
							"type": "uint256"
						}
					],
					"name": "generateRandomString",
					"outputs": [
						{
							"internalType": "string",
							"name": "",
							"type": "string"
						}
					],
					"stateMutability": "view",
					"type": "function"
				},
				{
					"inputs": [
						{
							"internalType": "string",
							"name": "str",
							"type": "string"
						},
						{
							"internalType": "uint256",
							"name": "startIndex",
							"type": "uint256"
						},
						{
							"internalType": "uint256",
							"name": "endIndex",
							"type": "uint256"
						}
					],
					"name": "substring",
					"outputs": [
						{
							"internalType": "string",
							"name": "",
							"type": "string"
						}
					],
					"stateMutability": "pure",
					"type": "function"
				}
			],
			"devdoc": {
				"kind": "dev",
				"methods": {},
				"version": 1
			},
			"evm": {
				"assembly": "    /* \"lib.sol\":75:2035  library Utils{... */\n  dataSize(sub_0)\n  dataOffset(sub_0)\n  0x0b\n  dup3\n  dup3\n  dup3\n  codecopy\n  dup1\n  mload\n  0x00\n  byte\n  0x73\n  eq\n  tag_1\n  jumpi\n  mstore(0x00, 0x4e487b7100000000000000000000000000000000000000000000000000000000)\n  mstore(0x04, 0x00)\n  revert(0x00, 0x24)\ntag_1:\n  mstore(0x00, address)\n  0x73\n  dup2\n  mstore8\n  dup3\n  dup2\n  return\nstop\n\nsub_0: assembly {\n        /* \"lib.sol\":75:2035  library Utils{... */\n      eq(address, deployTimeAddress())\n      mstore(0x40, 0x80)\n      jumpi(tag_1, lt(calldatasize, 0x04))\n      shr(0xe0, calldataload(0x00))\n      dup1\n      0x1dcd9b55\n      eq\n      tag_2\n      jumpi\n      dup1\n      0x4f7d22e7\n      eq\n      tag_3\n      jumpi\n    tag_1:\n      0x00\n      dup1\n      revert\n        /* \"lib.sol\":1663:2032  function substring(string memory str, uint startIndex, uint endIndex) public pure returns (string memory) {... */\n    tag_2:\n      tag_4\n      0x04\n      dup1\n      calldatasize\n      sub\n      dup2\n      add\n      swap1\n      tag_5\n      swap2\n      swap1\n      tag_6\n      jump\t// in\n    tag_5:\n      tag_7\n      jump\t// in\n    tag_4:\n      mload(0x40)\n      tag_8\n      swap2\n      swap1\n      tag_9\n      jump\t// in\n    tag_8:\n      mload(0x40)\n      dup1\n      swap2\n      sub\n      swap1\n      return\n        /* \"lib.sol\":1154:1655  function generateRandomString(uint256 length) public view returns (string memory) {... */\n    tag_3:\n      tag_10\n      0x04\n      dup1\n      calldatasize\n      sub\n      dup2\n      add\n      swap1\n      tag_11\n      swap2\n      swap1\n      tag_12\n      jump\t// in\n    tag_11:\n      tag_13\n      jump\t// in\n    tag_10:\n      mload(0x40)\n      tag_14\n      swap2\n      swap1\n      tag_9\n      jump\t// in\n    tag_14:\n      mload(0x40)\n      dup1\n      swap2\n      sub\n      swap1\n      return\n        /* \"lib.sol\":1663:2032  function substring(string memory str, uint startIndex, uint endIndex) public pure returns (string memory) {... */\n    tag_7:\n        /* \"lib.sol\":1754:1767  string memory */\n      0x60\n        /* \"lib.sol\":1780:1801  bytes memory strBytes */\n      0x00\n        /* \"lib.sol\":1810:1813  str */\n      dup5\n        /* \"lib.sol\":1780:1814  bytes memory strBytes = bytes(str) */\n      swap1\n      pop\n        /* \"lib.sol\":1825:1844  bytes memory result */\n      0x00\n        /* \"lib.sol\":1866:1876  startIndex */\n      dup5\n        /* \"lib.sol\":1857:1865  endIndex */\n      dup5\n        /* \"lib.sol\":1857:1876  endIndex-startIndex */\n      tag_16\n      swap2\n      swap1\n      tag_17\n      jump\t// in\n    tag_16:\n        /* \"lib.sol\":1847:1877  new bytes(endIndex-startIndex) */\n      0xffffffffffffffff\n      dup2\n      gt\n      iszero\n      tag_18\n      jumpi\n      tag_19\n      tag_20\n      jump\t// in\n    tag_19:\n    tag_18:\n      mload(0x40)\n      swap1\n      dup1\n      dup3\n      mstore\n      dup1\n      0x1f\n      add\n      not(0x1f)\n      and\n      0x20\n      add\n      dup3\n      add\n      0x40\n      mstore\n      dup1\n      iszero\n      tag_21\n      jumpi\n      dup2\n      0x20\n      add\n      0x01\n      dup3\n      mul\n      dup1\n      calldatasize\n      dup4\n      calldatacopy\n      dup1\n      dup3\n      add\n      swap2\n      pop\n      pop\n      swap1\n      pop\n    tag_21:\n      pop\n        /* \"lib.sol\":1825:1877  bytes memory result = new bytes(endIndex-startIndex) */\n      swap1\n      pop\n        /* \"lib.sol\":1892:1898  uint i */\n      0x00\n        /* \"lib.sol\":1901:1911  startIndex */\n      dup6\n        /* \"lib.sol\":1892:1911  uint i = startIndex */\n      swap1\n      pop\n        /* \"lib.sol\":1888:1993  for(uint i = startIndex; i < endIndex; i++) {... */\n    tag_22:\n        /* \"lib.sol\":1917:1925  endIndex */\n      dup5\n        /* \"lib.sol\":1913:1914  i */\n      dup2\n        /* \"lib.sol\":1913:1925  i < endIndex */\n      lt\n        /* \"lib.sol\":1888:1993  for(uint i = startIndex; i < endIndex; i++) {... */\n      iszero\n      tag_23\n      jumpi\n        /* \"lib.sol\":1970:1978  strBytes */\n      dup3\n        /* \"lib.sol\":1979:1980  i */\n      dup2\n        /* \"lib.sol\":1970:1981  strBytes[i] */\n      dup2\n      mload\n      dup2\n      lt\n      tag_25\n      jumpi\n      tag_26\n      tag_27\n      jump\t// in\n    tag_26:\n    tag_25:\n      0x20\n      add\n      add\n      mload\n      0xf8\n      shr\n      0xf8\n      shl\n        /* \"lib.sol\":1947:1953  result */\n      dup3\n        /* \"lib.sol\":1956:1966  startIndex */\n      dup8\n        /* \"lib.sol\":1954:1955  i */\n      dup4\n        /* \"lib.sol\":1954:1966  i-startIndex */\n      tag_28\n      swap2\n      swap1\n      tag_17\n      jump\t// in\n    tag_28:\n        /* \"lib.sol\":1947:1967  result[i-startIndex] */\n      dup2\n      mload\n      dup2\n      lt\n      tag_29\n      jumpi\n      tag_30\n      tag_27\n      jump\t// in\n    tag_30:\n    tag_29:\n      0x20\n      add\n      add\n        /* \"lib.sol\":1947:1981  result[i-startIndex] = strBytes[i] */\n      swap1\n      not(0xffffffffffffffffffffffffffffffffffffffffffffffffffffffffffffff)\n      and\n      swap1\n      dup2\n      0x00\n      byte\n      swap1\n      mstore8\n      pop\n        /* \"lib.sol\":1927:1930  i++ */\n      dup1\n      dup1\n      0x01\n      add\n      swap2\n      pop\n      pop\n        /* \"lib.sol\":1888:1993  for(uint i = startIndex; i < endIndex; i++) {... */\n      jump(tag_22)\n    tag_23:\n      pop\n        /* \"lib.sol\":2017:2023  result */\n      dup1\n        /* \"lib.sol\":2003:2024  return string(result) */\n      swap3\n      pop\n      pop\n      pop\n        /* \"lib.sol\":1663:2032  function substring(string memory str, uint startIndex, uint endIndex) public pure returns (string memory) {... */\n      swap4\n      swap3\n      pop\n      pop\n      pop\n      jump\t// out\n        /* \"lib.sol\":1154:1655  function generateRandomString(uint256 length) public view returns (string memory) {... */\n    tag_13:\n        /* \"lib.sol\":1221:1234  string memory */\n      0x60\n        /* \"lib.sol\":1247:1270  bytes memory characters */\n      0x00\n        /* \"lib.sol\":1247:1337  bytes memory characters = \"abcdefghijklmnopqrstuvwxyzABCDEFGHIJKLMNOPQRSTUVWXYZ0123456789\" */\n      mload(0x40)\n      dup1\n      0x60\n      add\n      0x40\n      mstore\n      dup1\n      0x3e\n      dup2\n      mstore\n      0x20\n      add\n      data_b3209d81bebca962d527d5fbdb88c86ebaefb2fe1ae90a9e3a4315c0ab348daa\n      0x3e\n      swap2\n      codecopy\n      swap1\n      pop\n        /* \"lib.sol\":1348:1373  bytes memory randomString */\n      0x00\n        /* \"lib.sol\":1386:1392  length */\n      dup4\n        /* \"lib.sol\":1376:1393  new bytes(length) */\n      0xffffffffffffffff\n      dup2\n      gt\n      iszero\n      tag_32\n      jumpi\n      tag_33\n      tag_20\n      jump\t// in\n    tag_33:\n    tag_32:\n      mload(0x40)\n      swap1\n      dup1\n      dup3\n      mstore\n      dup1\n      0x1f\n      add\n      not(0x1f)\n      and\n      0x20\n      add\n      dup3\n      add\n      0x40\n      mstore\n      dup1\n      iszero\n      tag_34\n      jumpi\n      dup2\n      0x20\n      add\n      0x01\n      dup3\n      mul\n      dup1\n      calldatasize\n      dup4\n      calldatacopy\n      dup1\n      dup3\n      add\n      swap2\n      pop\n      pop\n      swap1\n      pop\n    tag_34:\n      pop\n        /* \"lib.sol\":1348:1393  bytes memory randomString = new bytes(length) */\n      swap1\n      pop\n        /* \"lib.sol\":1411:1420  uint256 i */\n      0x00\n        /* \"lib.sol\":1406:1610  for (uint256 i = 0; i < length; i++) {... */\n    tag_35:\n        /* \"lib.sol\":1430:1436  length */\n      dup5\n        /* \"lib.sol\":1426:1427  i */\n      dup2\n        /* \"lib.sol\":1426:1436  i < length */\n      lt\n        /* \"lib.sol\":1406:1610  for (uint256 i = 0; i < length; i++) {... */\n      iszero\n      tag_36\n      jumpi\n        /* \"lib.sol\":1458:1470  uint256 rand */\n      0x00\n        /* \"lib.sol\":1532:1542  characters */\n      dup4\n        /* \"lib.sol\":1532:1549  characters.length */\n      mload\n        /* \"lib.sol\":1508:1523  block.timestamp */\n      timestamp\n        /* \"lib.sol\":1525:1526  i */\n      dup4\n        /* \"lib.sol\":1491:1527  abi.encodePacked(block.timestamp, i) */\n      add(0x20, mload(0x40))\n      tag_38\n      swap3\n      swap2\n      swap1\n      tag_39\n      jump\t// in\n    tag_38:\n      mload(0x40)\n      0x20\n      dup2\n      dup4\n      sub\n      sub\n      dup2\n      mstore\n      swap1\n      0x40\n      mstore\n        /* \"lib.sol\":1481:1528  keccak256(abi.encodePacked(block.timestamp, i)) */\n      dup1\n      mload\n      swap1\n      0x20\n      add\n      keccak256\n        /* \"lib.sol\":1473:1529  uint256(keccak256(abi.encodePacked(block.timestamp, i))) */\n      0x00\n      shr\n        /* \"lib.sol\":1473:1549  uint256(keccak256(abi.encodePacked(block.timestamp, i))) % characters.length */\n      tag_40\n      swap2\n      swap1\n      tag_41\n      jump\t// in\n    tag_40:\n        /* \"lib.sol\":1458:1549  uint256 rand = uint256(keccak256(abi.encodePacked(block.timestamp, i))) % characters.length */\n      swap1\n      pop\n        /* \"lib.sol\":1582:1592  characters */\n      dup4\n        /* \"lib.sol\":1593:1597  rand */\n      dup2\n        /* \"lib.sol\":1582:1598  characters[rand] */\n      dup2\n      mload\n      dup2\n      lt\n      tag_42\n      jumpi\n      tag_43\n      tag_27\n      jump\t// in\n    tag_43:\n    tag_42:\n      0x20\n      add\n      add\n      mload\n      0xf8\n      shr\n      0xf8\n      shl\n        /* \"lib.sol\":1564:1576  randomString */\n      dup4\n        /* \"lib.sol\":1577:1578  i */\n      dup4\n        /* \"lib.sol\":1564:1579  randomString[i] */\n      dup2\n      mload\n      dup2\n      lt\n      tag_44\n      jumpi\n      tag_45\n      tag_27\n      jump\t// in\n    tag_45:\n    tag_44:\n      0x20\n      add\n      add\n        /* \"lib.sol\":1564:1598  randomString[i] = characters[rand] */\n      swap1\n      not(0xffffffffffffffffffffffffffffffffffffffffffffffffffffffffffffff)\n      and\n      swap1\n      dup2\n      0x00\n      byte\n      swap1\n      mstore8\n      pop\n        /* \"lib.sol\":1443:1610  {... */\n      pop\n        /* \"lib.sol\":1438:1441  i++ */\n      dup1\n      dup1\n      0x01\n      add\n      swap2\n      pop\n      pop\n        /* \"lib.sol\":1406:1610  for (uint256 i = 0; i < length; i++) {... */\n      jump(tag_35)\n    tag_36:\n      pop\n        /* \"lib.sol\":1634:1646  randomString */\n      dup1\n        /* \"lib.sol\":1620:1647  return string(randomString) */\n      swap3\n      pop\n      pop\n      pop\n        /* \"lib.sol\":1154:1655  function generateRandomString(uint256 length) public view returns (string memory) {... */\n      swap2\n      swap1\n      pop\n      jump\t// out\n        /* \"#utility.yul\":7:82   */\n    tag_46:\n        /* \"#utility.yul\":40:46   */\n      0x00\n        /* \"#utility.yul\":73:75   */\n      0x40\n        /* \"#utility.yul\":67:76   */\n      mload\n        /* \"#utility.yul\":57:76   */\n      swap1\n      pop\n        /* \"#utility.yul\":7:82   */\n      swap1\n      jump\t// out\n        /* \"#utility.yul\":88:205   */\n    tag_47:\n        /* \"#utility.yul\":197:198   */\n      0x00\n        /* \"#utility.yul\":194:195   */\n      dup1\n        /* \"#utility.yul\":187:199   */\n      revert\n        /* \"#utility.yul\":211:328   */\n    tag_48:\n        /* \"#utility.yul\":320:321   */\n      0x00\n        /* \"#utility.yul\":317:318   */\n      dup1\n        /* \"#utility.yul\":310:322   */\n      revert\n        /* \"#utility.yul\":334:451   */\n    tag_49:\n        /* \"#utility.yul\":443:444   */\n      0x00\n        /* \"#utility.yul\":440:441   */\n      dup1\n        /* \"#utility.yul\":433:445   */\n      revert\n        /* \"#utility.yul\":457:574   */\n    tag_50:\n        /* \"#utility.yul\":566:567   */\n      0x00\n        /* \"#utility.yul\":563:564   */\n      dup1\n        /* \"#utility.yul\":556:568   */\n      revert\n        /* \"#utility.yul\":580:682   */\n    tag_51:\n        /* \"#utility.yul\":621:627   */\n      0x00\n        /* \"#utility.yul\":672:674   */\n      0x1f\n        /* \"#utility.yul\":668:675   */\n      not\n        /* \"#utility.yul\":663:665   */\n      0x1f\n        /* \"#utility.yul\":656:661   */\n      dup4\n        /* \"#utility.yul\":652:666   */\n      add\n        /* \"#utility.yul\":648:676   */\n      and\n        /* \"#utility.yul\":638:676   */\n      swap1\n      pop\n        /* \"#utility.yul\":580:682   */\n      swap2\n      swap1\n      pop\n      jump\t// out\n        /* \"#utility.yul\":688:868   */\n    tag_20:\n        /* \"#utility.yul\":736:813   */\n      0x4e487b7100000000000000000000000000000000000000000000000000000000\n        /* \"#utility.yul\":733:734   */\n      0x00\n        /* \"#utility.yul\":726:814   */\n      mstore\n        /* \"#utility.yul\":833:837   */\n      0x41\n        /* \"#utility.yul\":830:831   */\n      0x04\n        /* \"#utility.yul\":823:838   */\n      mstore\n        /* \"#utility.yul\":857:861   */\n      0x24\n        /* \"#utility.yul\":854:855   */\n      0x00\n        /* \"#utility.yul\":847:862   */\n      revert\n        /* \"#utility.yul\":874:1155   */\n    tag_52:\n        /* \"#utility.yul\":957:984   */\n      tag_78\n        /* \"#utility.yul\":979:983   */\n      dup3\n        /* \"#utility.yul\":957:984   */\n      tag_51\n      jump\t// in\n    tag_78:\n        /* \"#utility.yul\":949:955   */\n      dup2\n        /* \"#utility.yul\":945:985   */\n      add\n        /* \"#utility.yul\":1087:1093   */\n      dup2\n        /* \"#utility.yul\":1075:1085   */\n      dup2\n        /* \"#utility.yul\":1072:1094   */\n      lt\n        /* \"#utility.yul\":1051:1069   */\n      0xffffffffffffffff\n        /* \"#utility.yul\":1039:1049   */\n      dup3\n        /* \"#utility.yul\":1036:1070   */\n      gt\n        /* \"#utility.yul\":1033:1095   */\n      or\n        /* \"#utility.yul\":1030:1118   */\n      iszero\n      tag_79\n      jumpi\n        /* \"#utility.yul\":1098:1116   */\n      tag_80\n      tag_20\n      jump\t// in\n    tag_80:\n        /* \"#utility.yul\":1030:1118   */\n    tag_79:\n        /* \"#utility.yul\":1138:1148   */\n      dup1\n        /* \"#utility.yul\":1134:1136   */\n      0x40\n        /* \"#utility.yul\":1127:1149   */\n      mstore\n        /* \"#utility.yul\":917:1155   */\n      pop\n        /* \"#utility.yul\":874:1155   */\n      pop\n      pop\n      jump\t// out\n        /* \"#utility.yul\":1161:1290   */\n    tag_53:\n        /* \"#utility.yul\":1195:1201   */\n      0x00\n        /* \"#utility.yul\":1222:1242   */\n      tag_82\n      tag_46\n      jump\t// in\n    tag_82:\n        /* \"#utility.yul\":1212:1242   */\n      swap1\n      pop\n        /* \"#utility.yul\":1251:1284   */\n      tag_83\n        /* \"#utility.yul\":1279:1283   */\n      dup3\n        /* \"#utility.yul\":1271:1277   */\n      dup3\n        /* \"#utility.yul\":1251:1284   */\n      tag_52\n      jump\t// in\n    tag_83:\n        /* \"#utility.yul\":1161:1290   */\n      swap2\n      swap1\n      pop\n      jump\t// out\n        /* \"#utility.yul\":1296:1604   */\n    tag_54:\n        /* \"#utility.yul\":1358:1362   */\n      0x00\n        /* \"#utility.yul\":1448:1466   */\n      0xffffffffffffffff\n        /* \"#utility.yul\":1440:1446   */\n      dup3\n        /* \"#utility.yul\":1437:1467   */\n      gt\n        /* \"#utility.yul\":1434:1490   */\n      iszero\n      tag_85\n      jumpi\n        /* \"#utility.yul\":1470:1488   */\n      tag_86\n      tag_20\n      jump\t// in\n    tag_86:\n        /* \"#utility.yul\":1434:1490   */\n    tag_85:\n        /* \"#utility.yul\":1508:1537   */\n      tag_87\n        /* \"#utility.yul\":1530:1536   */\n      dup3\n        /* \"#utility.yul\":1508:1537   */\n      tag_51\n      jump\t// in\n    tag_87:\n        /* \"#utility.yul\":1500:1537   */\n      swap1\n      pop\n        /* \"#utility.yul\":1592:1596   */\n      0x20\n        /* \"#utility.yul\":1586:1590   */\n      dup2\n        /* \"#utility.yul\":1582:1597   */\n      add\n        /* \"#utility.yul\":1574:1597   */\n      swap1\n      pop\n        /* \"#utility.yul\":1296:1604   */\n      swap2\n      swap1\n      pop\n      jump\t// out\n        /* \"#utility.yul\":1610:1756   */\n    tag_55:\n        /* \"#utility.yul\":1707:1713   */\n      dup3\n        /* \"#utility.yul\":1702:1705   */\n      dup2\n        /* \"#utility.yul\":1697:1700   */\n      dup4\n        /* \"#utility.yul\":1684:1714   */\n      calldatacopy\n        /* \"#utility.yul\":1748:1749   */\n      0x00\n        /* \"#utility.yul\":1739:1745   */\n      dup4\n        /* \"#utility.yul\":1734:1737   */\n      dup4\n        /* \"#utility.yul\":1730:1746   */\n      add\n        /* \"#utility.yul\":1723:1750   */\n      mstore\n        /* \"#utility.yul\":1610:1756   */\n      pop\n      pop\n      pop\n      jump\t// out\n        /* \"#utility.yul\":1762:2187   */\n    tag_56:\n        /* \"#utility.yul\":1840:1845   */\n      0x00\n        /* \"#utility.yul\":1865:1931   */\n      tag_90\n        /* \"#utility.yul\":1881:1930   */\n      tag_91\n        /* \"#utility.yul\":1923:1929   */\n      dup5\n        /* \"#utility.yul\":1881:1930   */\n      tag_54\n      jump\t// in\n    tag_91:\n        /* \"#utility.yul\":1865:1931   */\n      tag_53\n      jump\t// in\n    tag_90:\n        /* \"#utility.yul\":1856:1931   */\n      swap1\n      pop\n        /* \"#utility.yul\":1954:1960   */\n      dup3\n        /* \"#utility.yul\":1947:1952   */\n      dup2\n        /* \"#utility.yul\":1940:1961   */\n      mstore\n        /* \"#utility.yul\":1992:1996   */\n      0x20\n        /* \"#utility.yul\":1985:1990   */\n      dup2\n        /* \"#utility.yul\":1981:1997   */\n      add\n        /* \"#utility.yul\":2030:2033   */\n      dup5\n        /* \"#utility.yul\":2021:2027   */\n      dup5\n        /* \"#utility.yul\":2016:2019   */\n      dup5\n        /* \"#utility.yul\":2012:2028   */\n      add\n        /* \"#utility.yul\":2009:2034   */\n      gt\n        /* \"#utility.yul\":2006:2118   */\n      iszero\n      tag_92\n      jumpi\n        /* \"#utility.yul\":2037:2116   */\n      tag_93\n      tag_50\n      jump\t// in\n    tag_93:\n        /* \"#utility.yul\":2006:2118   */\n    tag_92:\n        /* \"#utility.yul\":2127:2181   */\n      tag_94\n        /* \"#utility.yul\":2174:2180   */\n      dup5\n        /* \"#utility.yul\":2169:2172   */\n      dup3\n        /* \"#utility.yul\":2164:2167   */\n      dup6\n        /* \"#utility.yul\":2127:2181   */\n      tag_55\n      jump\t// in\n    tag_94:\n        /* \"#utility.yul\":1846:2187   */\n      pop\n        /* \"#utility.yul\":1762:2187   */\n      swap4\n      swap3\n      pop\n      pop\n      pop\n      jump\t// out\n        /* \"#utility.yul\":2207:2547   */\n    tag_57:\n        /* \"#utility.yul\":2263:2268   */\n      0x00\n        /* \"#utility.yul\":2312:2315   */\n      dup3\n        /* \"#utility.yul\":2305:2309   */\n      0x1f\n        /* \"#utility.yul\":2297:2303   */\n      dup4\n        /* \"#utility.yul\":2293:2310   */\n      add\n        /* \"#utility.yul\":2289:2316   */\n      slt\n        /* \"#utility.yul\":2279:2401   */\n      tag_96\n      jumpi\n        /* \"#utility.yul\":2320:2399   */\n      tag_97\n      tag_49\n      jump\t// in\n    tag_97:\n        /* \"#utility.yul\":2279:2401   */\n    tag_96:\n        /* \"#utility.yul\":2437:2443   */\n      dup2\n        /* \"#utility.yul\":2424:2444   */\n      calldataload\n        /* \"#utility.yul\":2462:2541   */\n      tag_98\n        /* \"#utility.yul\":2537:2540   */\n      dup5\n        /* \"#utility.yul\":2529:2535   */\n      dup3\n        /* \"#utility.yul\":2522:2526   */\n      0x20\n        /* \"#utility.yul\":2514:2520   */\n      dup7\n        /* \"#utility.yul\":2510:2527   */\n      add\n        /* \"#utility.yul\":2462:2541   */\n      tag_56\n      jump\t// in\n    tag_98:\n        /* \"#utility.yul\":2453:2541   */\n      swap2\n      pop\n        /* \"#utility.yul\":2269:2547   */\n      pop\n        /* \"#utility.yul\":2207:2547   */\n      swap3\n      swap2\n      pop\n      pop\n      jump\t// out\n        /* \"#utility.yul\":2553:2630   */\n    tag_58:\n        /* \"#utility.yul\":2590:2597   */\n      0x00\n        /* \"#utility.yul\":2619:2624   */\n      dup2\n        /* \"#utility.yul\":2608:2624   */\n      swap1\n      pop\n        /* \"#utility.yul\":2553:2630   */\n      swap2\n      swap1\n      pop\n      jump\t// out\n        /* \"#utility.yul\":2636:2758   */\n    tag_59:\n        /* \"#utility.yul\":2709:2733   */\n      tag_101\n        /* \"#utility.yul\":2727:2732   */\n      dup2\n        /* \"#utility.yul\":2709:2733   */\n      tag_58\n      jump\t// in\n    tag_101:\n        /* \"#utility.yul\":2702:2707   */\n      dup2\n        /* \"#utility.yul\":2699:2734   */\n      eq\n        /* \"#utility.yul\":2689:2752   */\n      tag_102\n      jumpi\n        /* \"#utility.yul\":2748:2749   */\n      0x00\n        /* \"#utility.yul\":2745:2746   */\n      dup1\n        /* \"#utility.yul\":2738:2750   */\n      revert\n        /* \"#utility.yul\":2689:2752   */\n    tag_102:\n        /* \"#utility.yul\":2636:2758   */\n      pop\n      jump\t// out\n        /* \"#utility.yul\":2764:2903   */\n    tag_60:\n        /* \"#utility.yul\":2810:2815   */\n      0x00\n        /* \"#utility.yul\":2848:2854   */\n      dup2\n        /* \"#utility.yul\":2835:2855   */\n      calldataload\n        /* \"#utility.yul\":2826:2855   */\n      swap1\n      pop\n        /* \"#utility.yul\":2864:2897   */\n      tag_104\n        /* \"#utility.yul\":2891:2896   */\n      dup2\n        /* \"#utility.yul\":2864:2897   */\n      tag_59\n      jump\t// in\n    tag_104:\n        /* \"#utility.yul\":2764:2903   */\n      swap3\n      swap2\n      pop\n      pop\n      jump\t// out\n        /* \"#utility.yul\":2909:3708   */\n    tag_6:\n        /* \"#utility.yul\":2996:3002   */\n      0x00\n        /* \"#utility.yul\":3004:3010   */\n      dup1\n        /* \"#utility.yul\":3012:3018   */\n      0x00\n        /* \"#utility.yul\":3061:3063   */\n      0x60\n        /* \"#utility.yul\":3049:3058   */\n      dup5\n        /* \"#utility.yul\":3040:3047   */\n      dup7\n        /* \"#utility.yul\":3036:3059   */\n      sub\n        /* \"#utility.yul\":3032:3064   */\n      slt\n        /* \"#utility.yul\":3029:3148   */\n      iszero\n      tag_106\n      jumpi\n        /* \"#utility.yul\":3067:3146   */\n      tag_107\n      tag_47\n      jump\t// in\n    tag_107:\n        /* \"#utility.yul\":3029:3148   */\n    tag_106:\n        /* \"#utility.yul\":3215:3216   */\n      0x00\n        /* \"#utility.yul\":3204:3213   */\n      dup5\n        /* \"#utility.yul\":3200:3217   */\n      add\n        /* \"#utility.yul\":3187:3218   */\n      calldataload\n        /* \"#utility.yul\":3245:3263   */\n      0xffffffffffffffff\n        /* \"#utility.yul\":3237:3243   */\n      dup2\n        /* \"#utility.yul\":3234:3264   */\n      gt\n        /* \"#utility.yul\":3231:3348   */\n      iszero\n      tag_108\n      jumpi\n        /* \"#utility.yul\":3267:3346   */\n      tag_109\n      tag_48\n      jump\t// in\n    tag_109:\n        /* \"#utility.yul\":3231:3348   */\n    tag_108:\n        /* \"#utility.yul\":3372:3435   */\n      tag_110\n        /* \"#utility.yul\":3427:3434   */\n      dup7\n        /* \"#utility.yul\":3418:3424   */\n      dup3\n        /* \"#utility.yul\":3407:3416   */\n      dup8\n        /* \"#utility.yul\":3403:3425   */\n      add\n        /* \"#utility.yul\":3372:3435   */\n      tag_57\n      jump\t// in\n    tag_110:\n        /* \"#utility.yul\":3362:3435   */\n      swap4\n      pop\n        /* \"#utility.yul\":3158:3445   */\n      pop\n        /* \"#utility.yul\":3484:3486   */\n      0x20\n        /* \"#utility.yul\":3510:3563   */\n      tag_111\n        /* \"#utility.yul\":3555:3562   */\n      dup7\n        /* \"#utility.yul\":3546:3552   */\n      dup3\n        /* \"#utility.yul\":3535:3544   */\n      dup8\n        /* \"#utility.yul\":3531:3553   */\n      add\n        /* \"#utility.yul\":3510:3563   */\n      tag_60\n      jump\t// in\n    tag_111:\n        /* \"#utility.yul\":3500:3563   */\n      swap3\n      pop\n        /* \"#utility.yul\":3455:3573   */\n      pop\n        /* \"#utility.yul\":3612:3614   */\n      0x40\n        /* \"#utility.yul\":3638:3691   */\n      tag_112\n        /* \"#utility.yul\":3683:3690   */\n      dup7\n        /* \"#utility.yul\":3674:3680   */\n      dup3\n        /* \"#utility.yul\":3663:3672   */\n      dup8\n        /* \"#utility.yul\":3659:3681   */\n      add\n        /* \"#utility.yul\":3638:3691   */\n      tag_60\n      jump\t// in\n    tag_112:\n        /* \"#utility.yul\":3628:3691   */\n      swap2\n      pop\n        /* \"#utility.yul\":3583:3701   */\n      pop\n        /* \"#utility.yul\":2909:3708   */\n      swap3\n      pop\n      swap3\n      pop\n      swap3\n      jump\t// out\n        /* \"#utility.yul\":3714:3813   */\n    tag_61:\n        /* \"#utility.yul\":3766:3772   */\n      0x00\n        /* \"#utility.yul\":3800:3805   */\n      dup2\n        /* \"#utility.yul\":3794:3806   */\n      mload\n        /* \"#utility.yul\":3784:3806   */\n      swap1\n      pop\n        /* \"#utility.yul\":3714:3813   */\n      swap2\n      swap1\n      pop\n      jump\t// out\n        /* \"#utility.yul\":3819:3996   */\n    tag_62:\n        /* \"#utility.yul\":3911:3922   */\n      0x00\n        /* \"#utility.yul\":3945:3951   */\n      dup3\n        /* \"#utility.yul\":3940:3943   */\n      dup3\n        /* \"#utility.yul\":3933:3952   */\n      mstore\n        /* \"#utility.yul\":3985:3989   */\n      0x20\n        /* \"#utility.yul\":3980:3983   */\n      dup3\n        /* \"#utility.yul\":3976:3990   */\n      add\n        /* \"#utility.yul\":3961:3990   */\n      swap1\n      pop\n        /* \"#utility.yul\":3819:3996   */\n      swap3\n      swap2\n      pop\n      pop\n      jump\t// out\n        /* \"#utility.yul\":4002:4248   */\n    tag_63:\n        /* \"#utility.yul\":4083:4084   */\n      0x00\n        /* \"#utility.yul\":4093:4206   */\n    tag_116:\n        /* \"#utility.yul\":4107:4113   */\n      dup4\n        /* \"#utility.yul\":4104:4105   */\n      dup2\n        /* \"#utility.yul\":4101:4114   */\n      lt\n        /* \"#utility.yul\":4093:4206   */\n      iszero\n      tag_118\n      jumpi\n        /* \"#utility.yul\":4192:4193   */\n      dup1\n        /* \"#utility.yul\":4187:4190   */\n      dup3\n        /* \"#utility.yul\":4183:4194   */\n      add\n        /* \"#utility.yul\":4177:4195   */\n      mload\n        /* \"#utility.yul\":4173:4174   */\n      dup2\n        /* \"#utility.yul\":4168:4171   */\n      dup5\n        /* \"#utility.yul\":4164:4175   */\n      add\n        /* \"#utility.yul\":4157:4196   */\n      mstore\n        /* \"#utility.yul\":4129:4131   */\n      0x20\n        /* \"#utility.yul\":4126:4127   */\n      dup2\n        /* \"#utility.yul\":4122:4132   */\n      add\n        /* \"#utility.yul\":4117:4132   */\n      swap1\n      pop\n        /* \"#utility.yul\":4093:4206   */\n      jump(tag_116)\n    tag_118:\n        /* \"#utility.yul\":4240:4241   */\n      0x00\n        /* \"#utility.yul\":4231:4237   */\n      dup5\n        /* \"#utility.yul\":4226:4229   */\n      dup5\n        /* \"#utility.yul\":4222:4238   */\n      add\n        /* \"#utility.yul\":4215:4242   */\n      mstore\n        /* \"#utility.yul\":4064:4248   */\n      pop\n        /* \"#utility.yul\":4002:4248   */\n      pop\n      pop\n      pop\n      jump\t// out\n        /* \"#utility.yul\":4254:4647   */\n    tag_64:\n        /* \"#utility.yul\":4350:4353   */\n      0x00\n        /* \"#utility.yul\":4378:4417   */\n      tag_120\n        /* \"#utility.yul\":4411:4416   */\n      dup3\n        /* \"#utility.yul\":4378:4417   */\n      tag_61\n      jump\t// in\n    tag_120:\n        /* \"#utility.yul\":4433:4512   */\n      tag_121\n        /* \"#utility.yul\":4505:4511   */\n      dup2\n        /* \"#utility.yul\":4500:4503   */\n      dup6\n        /* \"#utility.yul\":4433:4512   */\n      tag_62\n      jump\t// in\n    tag_121:\n        /* \"#utility.yul\":4426:4512   */\n      swap4\n      pop\n        /* \"#utility.yul\":4521:4586   */\n      tag_122\n        /* \"#utility.yul\":4579:4585   */\n      dup2\n        /* \"#utility.yul\":4574:4577   */\n      dup6\n        /* \"#utility.yul\":4567:4571   */\n      0x20\n        /* \"#utility.yul\":4560:4565   */\n      dup7\n        /* \"#utility.yul\":4556:4572   */\n      add\n        /* \"#utility.yul\":4521:4586   */\n      tag_63\n      jump\t// in\n    tag_122:\n        /* \"#utility.yul\":4611:4640   */\n      tag_123\n        /* \"#utility.yul\":4633:4639   */\n      dup2\n        /* \"#utility.yul\":4611:4640   */\n      tag_51\n      jump\t// in\n    tag_123:\n        /* \"#utility.yul\":4606:4609   */\n      dup5\n        /* \"#utility.yul\":4602:4641   */\n      add\n        /* \"#utility.yul\":4595:4641   */\n      swap2\n      pop\n        /* \"#utility.yul\":4354:4647   */\n      pop\n        /* \"#utility.yul\":4254:4647   */\n      swap3\n      swap2\n      pop\n      pop\n      jump\t// out\n        /* \"#utility.yul\":4653:4982   */\n    tag_9:\n        /* \"#utility.yul\":4774:4778   */\n      0x00\n        /* \"#utility.yul\":4812:4814   */\n      0x20\n        /* \"#utility.yul\":4801:4810   */\n      dup3\n        /* \"#utility.yul\":4797:4815   */\n      add\n        /* \"#utility.yul\":4789:4815   */\n      swap1\n      pop\n        /* \"#utility.yul\":4861:4870   */\n      dup2\n        /* \"#utility.yul\":4855:4859   */\n      dup2\n        /* \"#utility.yul\":4851:4871   */\n      sub\n        /* \"#utility.yul\":4847:4848   */\n      0x00\n        /* \"#utility.yul\":4836:4845   */\n      dup4\n        /* \"#utility.yul\":4832:4849   */\n      add\n        /* \"#utility.yul\":4825:4872   */\n      mstore\n        /* \"#utility.yul\":4889:4975   */\n      tag_125\n        /* \"#utility.yul\":4970:4974   */\n      dup2\n        /* \"#utility.yul\":4961:4967   */\n      dup5\n        /* \"#utility.yul\":4889:4975   */\n      tag_64\n      jump\t// in\n    tag_125:\n        /* \"#utility.yul\":4881:4975   */\n      swap1\n      pop\n        /* \"#utility.yul\":4653:4982   */\n      swap3\n      swap2\n      pop\n      pop\n      jump\t// out\n        /* \"#utility.yul\":4988:5317   */\n    tag_12:\n        /* \"#utility.yul\":5047:5053   */\n      0x00\n        /* \"#utility.yul\":5096:5098   */\n      0x20\n        /* \"#utility.yul\":5084:5093   */\n      dup3\n        /* \"#utility.yul\":5075:5082   */\n      dup5\n        /* \"#utility.yul\":5071:5094   */\n      sub\n        /* \"#utility.yul\":5067:5099   */\n      slt\n        /* \"#utility.yul\":5064:5183   */\n      iszero\n      tag_127\n      jumpi\n        /* \"#utility.yul\":5102:5181   */\n      tag_128\n      tag_47\n      jump\t// in\n    tag_128:\n        /* \"#utility.yul\":5064:5183   */\n    tag_127:\n        /* \"#utility.yul\":5222:5223   */\n      0x00\n        /* \"#utility.yul\":5247:5300   */\n      tag_129\n        /* \"#utility.yul\":5292:5299   */\n      dup5\n        /* \"#utility.yul\":5283:5289   */\n      dup3\n        /* \"#utility.yul\":5272:5281   */\n      dup6\n        /* \"#utility.yul\":5268:5290   */\n      add\n        /* \"#utility.yul\":5247:5300   */\n      tag_60\n      jump\t// in\n    tag_129:\n        /* \"#utility.yul\":5237:5300   */\n      swap2\n      pop\n        /* \"#utility.yul\":5193:5310   */\n      pop\n        /* \"#utility.yul\":4988:5317   */\n      swap3\n      swap2\n      pop\n      pop\n      jump\t// out\n        /* \"#utility.yul\":5323:5503   */\n    tag_65:\n        /* \"#utility.yul\":5371:5448   */\n      0x4e487b7100000000000000000000000000000000000000000000000000000000\n        /* \"#utility.yul\":5368:5369   */\n      0x00\n        /* \"#utility.yul\":5361:5449   */\n      mstore\n        /* \"#utility.yul\":5468:5472   */\n      0x11\n        /* \"#utility.yul\":5465:5466   */\n      0x04\n        /* \"#utility.yul\":5458:5473   */\n      mstore\n        /* \"#utility.yul\":5492:5496   */\n      0x24\n        /* \"#utility.yul\":5489:5490   */\n      0x00\n        /* \"#utility.yul\":5482:5497   */\n      revert\n        /* \"#utility.yul\":5509:5703   */\n    tag_17:\n        /* \"#utility.yul\":5549:5553   */\n      0x00\n        /* \"#utility.yul\":5569:5589   */\n      tag_132\n        /* \"#utility.yul\":5587:5588   */\n      dup3\n        /* \"#utility.yul\":5569:5589   */\n      tag_58\n      jump\t// in\n    tag_132:\n        /* \"#utility.yul\":5564:5589   */\n      swap2\n      pop\n        /* \"#utility.yul\":5603:5623   */\n      tag_133\n        /* \"#utility.yul\":5621:5622   */\n      dup4\n        /* \"#utility.yul\":5603:5623   */\n      tag_58\n      jump\t// in\n    tag_133:\n        /* \"#utility.yul\":5598:5623   */\n      swap3\n      pop\n        /* \"#utility.yul\":5647:5648   */\n      dup3\n        /* \"#utility.yul\":5644:5645   */\n      dup3\n        /* \"#utility.yul\":5640:5649   */\n      sub\n        /* \"#utility.yul\":5632:5649   */\n      swap1\n      pop\n        /* \"#utility.yul\":5671:5672   */\n      dup2\n        /* \"#utility.yul\":5665:5669   */\n      dup2\n        /* \"#utility.yul\":5662:5673   */\n      gt\n        /* \"#utility.yul\":5659:5696   */\n      iszero\n      tag_134\n      jumpi\n        /* \"#utility.yul\":5676:5694   */\n      tag_135\n      tag_65\n      jump\t// in\n    tag_135:\n        /* \"#utility.yul\":5659:5696   */\n    tag_134:\n        /* \"#utility.yul\":5509:5703   */\n      swap3\n      swap2\n      pop\n      pop\n      jump\t// out\n        /* \"#utility.yul\":5709:5889   */\n    tag_27:\n        /* \"#utility.yul\":5757:5834   */\n      0x4e487b7100000000000000000000000000000000000000000000000000000000\n        /* \"#utility.yul\":5754:5755   */\n      0x00\n        /* \"#utility.yul\":5747:5835   */\n      mstore\n        /* \"#utility.yul\":5854:5858   */\n      0x32\n        /* \"#utility.yul\":5851:5852   */\n      0x04\n        /* \"#utility.yul\":5844:5859   */\n      mstore\n        /* \"#utility.yul\":5878:5882   */\n      0x24\n        /* \"#utility.yul\":5875:5876   */\n      0x00\n        /* \"#utility.yul\":5868:5883   */\n      revert\n        /* \"#utility.yul\":5895:5974   */\n    tag_66:\n        /* \"#utility.yul\":5934:5941   */\n      0x00\n        /* \"#utility.yul\":5963:5968   */\n      dup2\n        /* \"#utility.yul\":5952:5968   */\n      swap1\n      pop\n        /* \"#utility.yul\":5895:5974   */\n      swap2\n      swap1\n      pop\n      jump\t// out\n        /* \"#utility.yul\":5980:6137   */\n    tag_67:\n        /* \"#utility.yul\":6085:6130   */\n      tag_139\n        /* \"#utility.yul\":6105:6129   */\n      tag_140\n        /* \"#utility.yul\":6123:6128   */\n      dup3\n        /* \"#utility.yul\":6105:6129   */\n      tag_58\n      jump\t// in\n    tag_140:\n        /* \"#utility.yul\":6085:6130   */\n      tag_66\n      jump\t// in\n    tag_139:\n        /* \"#utility.yul\":6080:6083   */\n      dup3\n        /* \"#utility.yul\":6073:6131   */\n      mstore\n        /* \"#utility.yul\":5980:6137   */\n      pop\n      pop\n      jump\t// out\n        /* \"#utility.yul\":6143:6540   */\n    tag_39:\n        /* \"#utility.yul\":6283:6286   */\n      0x00\n        /* \"#utility.yul\":6298:6373   */\n      tag_142\n        /* \"#utility.yul\":6369:6372   */\n      dup3\n        /* \"#utility.yul\":6360:6366   */\n      dup6\n        /* \"#utility.yul\":6298:6373   */\n      tag_67\n      jump\t// in\n    tag_142:\n        /* \"#utility.yul\":6398:6400   */\n      0x20\n        /* \"#utility.yul\":6393:6396   */\n      dup3\n        /* \"#utility.yul\":6389:6401   */\n      add\n        /* \"#utility.yul\":6382:6401   */\n      swap2\n      pop\n        /* \"#utility.yul\":6411:6486   */\n      tag_143\n        /* \"#utility.yul\":6482:6485   */\n      dup3\n        /* \"#utility.yul\":6473:6479   */\n      dup5\n        /* \"#utility.yul\":6411:6486   */\n      tag_67\n      jump\t// in\n    tag_143:\n        /* \"#utility.yul\":6511:6513   */\n      0x20\n        /* \"#utility.yul\":6506:6509   */\n      dup3\n        /* \"#utility.yul\":6502:6514   */\n      add\n        /* \"#utility.yul\":6495:6514   */\n      swap2\n      pop\n        /* \"#utility.yul\":6531:6534   */\n      dup2\n        /* \"#utility.yul\":6524:6534   */\n      swap1\n      pop\n        /* \"#utility.yul\":6143:6540   */\n      swap4\n      swap3\n      pop\n      pop\n      pop\n      jump\t// out\n        /* \"#utility.yul\":6546:6726   */\n    tag_68:\n        /* \"#utility.yul\":6594:6671   */\n      0x4e487b7100000000000000000000000000000000000000000000000000000000\n        /* \"#utility.yul\":6591:6592   */\n      0x00\n        /* \"#utility.yul\":6584:6672   */\n      mstore\n        /* \"#utility.yul\":6691:6695   */\n      0x12\n        /* \"#utility.yul\":6688:6689   */\n      0x04\n        /* \"#utility.yul\":6681:6696   */\n      mstore\n        /* \"#utility.yul\":6715:6719   */\n      0x24\n        /* \"#utility.yul\":6712:6713   */\n      0x00\n        /* \"#utility.yul\":6705:6720   */\n      revert\n        /* \"#utility.yul\":6732:6908   */\n    tag_41:\n        /* \"#utility.yul\":6764:6765   */\n      0x00\n        /* \"#utility.yul\":6781:6801   */\n      tag_146\n        /* \"#utility.yul\":6799:6800   */\n      dup3\n        /* \"#utility.yul\":6781:6801   */\n      tag_58\n      jump\t// in\n    tag_146:\n        /* \"#utility.yul\":6776:6801   */\n      swap2\n      pop\n        /* \"#utility.yul\":6815:6835   */\n      tag_147\n        /* \"#utility.yul\":6833:6834   */\n      dup4\n        /* \"#utility.yul\":6815:6835   */\n      tag_58\n      jump\t// in\n    tag_147:\n        /* \"#utility.yul\":6810:6835   */\n      swap3\n      pop\n        /* \"#utility.yul\":6854:6855   */\n      dup3\n        /* \"#utility.yul\":6844:6879   */\n      tag_148\n      jumpi\n        /* \"#utility.yul\":6859:6877   */\n      tag_149\n      tag_68\n      jump\t// in\n    tag_149:\n        /* \"#utility.yul\":6844:6879   */\n    tag_148:\n        /* \"#utility.yul\":6900:6901   */\n      dup3\n        /* \"#utility.yul\":6897:6898   */\n      dup3\n        /* \"#utility.yul\":6893:6902   */\n      mod\n        /* \"#utility.yul\":6888:6902   */\n      swap1\n      pop\n        /* \"#utility.yul\":6732:6908   */\n      swap3\n      swap2\n      pop\n      pop\n      jump\t// out\n    stop\n    data_b3209d81bebca962d527d5fbdb88c86ebaefb2fe1ae90a9e3a4315c0ab348daa 6162636465666768696a6b6c6d6e6f707172737475767778797a4142434445464748494a4b4c4d4e4f505152535455565758595a30313233343536373839\n\n    auxdata: 0xa2646970667358221220793f2e04046f5d53ba074a00cb75bcf00af8434aeb2a7a0c71a0f89e3c744c8164736f6c63430008160033\n}\n",
				"bytecode": {
					"linkReferences": {},
					"object": "61071961004e600b8282823980515f1a607314610042577f4e487b71000000000000000000000000000000000000000000000000000000005f525f60045260245ffd5b305f52607381538281f3fe730000000000000000000000000000000000000000301460806040526004361061003f575f3560e01c80631dcd9b55146100435780634f7d22e714610073575b5f80fd5b61005d6004803603810190610058919061043f565b6100a3565b60405161006a9190610525565b60405180910390f35b61008d60048036038101906100889190610545565b610195565b60405161009a9190610525565b60405180910390f35b60605f8490505f84846100b6919061059d565b67ffffffffffffffff8111156100cf576100ce6102e8565b5b6040519080825280601f01601f1916602001820160405280156101015781602001600182028036833780820191505090505b5090505f8590505b8481101561018857828181518110610124576101236105d0565b5b602001015160f81c60f81b82878361013c919061059d565b8151811061014d5761014c6105d0565b5b60200101907effffffffffffffffffffffffffffffffffffffffffffffffffffffffffffff191690815f1a9053508080600101915050610109565b5080925050509392505050565b60605f6040518060600160405280603e81526020016106a6603e913990505f8367ffffffffffffffff8111156101ce576101cd6102e8565b5b6040519080825280601f01601f1916602001820160405280156102005781602001600182028036833780820191505090505b5090505f5b848110156102b4575f8351428360405160200161022392919061061d565b604051602081830303815290604052805190602001205f1c6102459190610675565b905083818151811061025a576102596105d0565b5b602001015160f81c60f81b838381518110610278576102776105d0565b5b60200101907effffffffffffffffffffffffffffffffffffffffffffffffffffffffffffff191690815f1a905350508080600101915050610205565b508092505050919050565b5f604051905090565b5f80fd5b5f80fd5b5f80fd5b5f80fd5b5f601f19601f8301169050919050565b7f4e487b71000000000000000000000000000000000000000000000000000000005f52604160045260245ffd5b61031e826102d8565b810181811067ffffffffffffffff8211171561033d5761033c6102e8565b5b80604052505050565b5f61034f6102bf565b905061035b8282610315565b919050565b5f67ffffffffffffffff82111561037a576103796102e8565b5b610383826102d8565b9050602081019050919050565b828183375f83830152505050565b5f6103b06103ab84610360565b610346565b9050828152602081018484840111156103cc576103cb6102d4565b5b6103d7848285610390565b509392505050565b5f82601f8301126103f3576103f26102d0565b5b813561040384826020860161039e565b91505092915050565b5f819050919050565b61041e8161040c565b8114610428575f80fd5b50565b5f8135905061043981610415565b92915050565b5f805f60608486031215610456576104556102c8565b5b5f84013567ffffffffffffffff811115610473576104726102cc565b5b61047f868287016103df565b93505060206104908682870161042b565b92505060406104a18682870161042b565b9150509250925092565b5f81519050919050565b5f82825260208201905092915050565b5f5b838110156104e25780820151818401526020810190506104c7565b5f8484015250505050565b5f6104f7826104ab565b61050181856104b5565b93506105118185602086016104c5565b61051a816102d8565b840191505092915050565b5f6020820190508181035f83015261053d81846104ed565b905092915050565b5f6020828403121561055a576105596102c8565b5b5f6105678482850161042b565b91505092915050565b7f4e487b71000000000000000000000000000000000000000000000000000000005f52601160045260245ffd5b5f6105a78261040c565b91506105b28361040c565b92508282039050818111156105ca576105c9610570565b5b92915050565b7f4e487b71000000000000000000000000000000000000000000000000000000005f52603260045260245ffd5b5f819050919050565b6106176106128261040c565b6105fd565b82525050565b5f6106288285610606565b6020820191506106388284610606565b6020820191508190509392505050565b7f4e487b71000000000000000000000000000000000000000000000000000000005f52601260045260245ffd5b5f61067f8261040c565b915061068a8361040c565b92508261069a57610699610648565b5b82820690509291505056fe6162636465666768696a6b6c6d6e6f707172737475767778797a4142434445464748494a4b4c4d4e4f505152535455565758595a30313233343536373839a2646970667358221220793f2e04046f5d53ba074a00cb75bcf00af8434aeb2a7a0c71a0f89e3c744c8164736f6c63430008160033",
					"opcodes": "PUSH2 0x719 PUSH2 0x4E PUSH1 0xB DUP3 DUP3 DUP3 CODECOPY DUP1 MLOAD PUSH0 BYTE PUSH1 0x73 EQ PUSH2 0x42 JUMPI PUSH32 0x4E487B7100000000000000000000000000000000000000000000000000000000 PUSH0 MSTORE PUSH0 PUSH1 0x4 MSTORE PUSH1 0x24 PUSH0 REVERT JUMPDEST ADDRESS PUSH0 MSTORE PUSH1 0x73 DUP2 MSTORE8 DUP3 DUP2 RETURN INVALID PUSH20 0x0 ADDRESS EQ PUSH1 0x80 PUSH1 0x40 MSTORE PUSH1 0x4 CALLDATASIZE LT PUSH2 0x3F JUMPI PUSH0 CALLDATALOAD PUSH1 0xE0 SHR DUP1 PUSH4 0x1DCD9B55 EQ PUSH2 0x43 JUMPI DUP1 PUSH4 0x4F7D22E7 EQ PUSH2 0x73 JUMPI JUMPDEST PUSH0 DUP1 REVERT JUMPDEST PUSH2 0x5D PUSH1 0x4 DUP1 CALLDATASIZE SUB DUP2 ADD SWAP1 PUSH2 0x58 SWAP2 SWAP1 PUSH2 0x43F JUMP JUMPDEST PUSH2 0xA3 JUMP JUMPDEST PUSH1 0x40 MLOAD PUSH2 0x6A SWAP2 SWAP1 PUSH2 0x525 JUMP JUMPDEST PUSH1 0x40 MLOAD DUP1 SWAP2 SUB SWAP1 RETURN JUMPDEST PUSH2 0x8D PUSH1 0x4 DUP1 CALLDATASIZE SUB DUP2 ADD SWAP1 PUSH2 0x88 SWAP2 SWAP1 PUSH2 0x545 JUMP JUMPDEST PUSH2 0x195 JUMP JUMPDEST PUSH1 0x40 MLOAD PUSH2 0x9A SWAP2 SWAP1 PUSH2 0x525 JUMP JUMPDEST PUSH1 0x40 MLOAD DUP1 SWAP2 SUB SWAP1 RETURN JUMPDEST PUSH1 0x60 PUSH0 DUP5 SWAP1 POP PUSH0 DUP5 DUP5 PUSH2 0xB6 SWAP2 SWAP1 PUSH2 0x59D JUMP JUMPDEST PUSH8 0xFFFFFFFFFFFFFFFF DUP2 GT ISZERO PUSH2 0xCF JUMPI PUSH2 0xCE PUSH2 0x2E8 JUMP JUMPDEST JUMPDEST PUSH1 0x40 MLOAD SWAP1 DUP1 DUP3 MSTORE DUP1 PUSH1 0x1F ADD PUSH1 0x1F NOT AND PUSH1 0x20 ADD DUP3 ADD PUSH1 0x40 MSTORE DUP1 ISZERO PUSH2 0x101 JUMPI DUP2 PUSH1 0x20 ADD PUSH1 0x1 DUP3 MUL DUP1 CALLDATASIZE DUP4 CALLDATACOPY DUP1 DUP3 ADD SWAP2 POP POP SWAP1 POP JUMPDEST POP SWAP1 POP PUSH0 DUP6 SWAP1 POP JUMPDEST DUP5 DUP2 LT ISZERO PUSH2 0x188 JUMPI DUP3 DUP2 DUP2 MLOAD DUP2 LT PUSH2 0x124 JUMPI PUSH2 0x123 PUSH2 0x5D0 JUMP JUMPDEST JUMPDEST PUSH1 0x20 ADD ADD MLOAD PUSH1 0xF8 SHR PUSH1 0xF8 SHL DUP3 DUP8 DUP4 PUSH2 0x13C SWAP2 SWAP1 PUSH2 0x59D JUMP JUMPDEST DUP2 MLOAD DUP2 LT PUSH2 0x14D JUMPI PUSH2 0x14C PUSH2 0x5D0 JUMP JUMPDEST JUMPDEST PUSH1 0x20 ADD ADD SWAP1 PUSH31 0xFFFFFFFFFFFFFFFFFFFFFFFFFFFFFFFFFFFFFFFFFFFFFFFFFFFFFFFFFFFFFF NOT AND SWAP1 DUP2 PUSH0 BYTE SWAP1 MSTORE8 POP DUP1 DUP1 PUSH1 0x1 ADD SWAP2 POP POP PUSH2 0x109 JUMP JUMPDEST POP DUP1 SWAP3 POP POP POP SWAP4 SWAP3 POP POP POP JUMP JUMPDEST PUSH1 0x60 PUSH0 PUSH1 0x40 MLOAD DUP1 PUSH1 0x60 ADD PUSH1 0x40 MSTORE DUP1 PUSH1 0x3E DUP2 MSTORE PUSH1 0x20 ADD PUSH2 0x6A6 PUSH1 0x3E SWAP2 CODECOPY SWAP1 POP PUSH0 DUP4 PUSH8 0xFFFFFFFFFFFFFFFF DUP2 GT ISZERO PUSH2 0x1CE JUMPI PUSH2 0x1CD PUSH2 0x2E8 JUMP JUMPDEST JUMPDEST PUSH1 0x40 MLOAD SWAP1 DUP1 DUP3 MSTORE DUP1 PUSH1 0x1F ADD PUSH1 0x1F NOT AND PUSH1 0x20 ADD DUP3 ADD PUSH1 0x40 MSTORE DUP1 ISZERO PUSH2 0x200 JUMPI DUP2 PUSH1 0x20 ADD PUSH1 0x1 DUP3 MUL DUP1 CALLDATASIZE DUP4 CALLDATACOPY DUP1 DUP3 ADD SWAP2 POP POP SWAP1 POP JUMPDEST POP SWAP1 POP PUSH0 JUMPDEST DUP5 DUP2 LT ISZERO PUSH2 0x2B4 JUMPI PUSH0 DUP4 MLOAD TIMESTAMP DUP4 PUSH1 0x40 MLOAD PUSH1 0x20 ADD PUSH2 0x223 SWAP3 SWAP2 SWAP1 PUSH2 0x61D JUMP JUMPDEST PUSH1 0x40 MLOAD PUSH1 0x20 DUP2 DUP4 SUB SUB DUP2 MSTORE SWAP1 PUSH1 0x40 MSTORE DUP1 MLOAD SWAP1 PUSH1 0x20 ADD KECCAK256 PUSH0 SHR PUSH2 0x245 SWAP2 SWAP1 PUSH2 0x675 JUMP JUMPDEST SWAP1 POP DUP4 DUP2 DUP2 MLOAD DUP2 LT PUSH2 0x25A JUMPI PUSH2 0x259 PUSH2 0x5D0 JUMP JUMPDEST JUMPDEST PUSH1 0x20 ADD ADD MLOAD PUSH1 0xF8 SHR PUSH1 0xF8 SHL DUP4 DUP4 DUP2 MLOAD DUP2 LT PUSH2 0x278 JUMPI PUSH2 0x277 PUSH2 0x5D0 JUMP JUMPDEST JUMPDEST PUSH1 0x20 ADD ADD SWAP1 PUSH31 0xFFFFFFFFFFFFFFFFFFFFFFFFFFFFFFFFFFFFFFFFFFFFFFFFFFFFFFFFFFFFFF NOT AND SWAP1 DUP2 PUSH0 BYTE SWAP1 MSTORE8 POP POP DUP1 DUP1 PUSH1 0x1 ADD SWAP2 POP POP PUSH2 0x205 JUMP JUMPDEST POP DUP1 SWAP3 POP POP POP SWAP2 SWAP1 POP JUMP JUMPDEST PUSH0 PUSH1 0x40 MLOAD SWAP1 POP SWAP1 JUMP JUMPDEST PUSH0 DUP1 REVERT JUMPDEST PUSH0 DUP1 REVERT JUMPDEST PUSH0 DUP1 REVERT JUMPDEST PUSH0 DUP1 REVERT JUMPDEST PUSH0 PUSH1 0x1F NOT PUSH1 0x1F DUP4 ADD AND SWAP1 POP SWAP2 SWAP1 POP JUMP JUMPDEST PUSH32 0x4E487B7100000000000000000000000000000000000000000000000000000000 PUSH0 MSTORE PUSH1 0x41 PUSH1 0x4 MSTORE PUSH1 0x24 PUSH0 REVERT JUMPDEST PUSH2 0x31E DUP3 PUSH2 0x2D8 JUMP JUMPDEST DUP2 ADD DUP2 DUP2 LT PUSH8 0xFFFFFFFFFFFFFFFF DUP3 GT OR ISZERO PUSH2 0x33D JUMPI PUSH2 0x33C PUSH2 0x2E8 JUMP JUMPDEST JUMPDEST DUP1 PUSH1 0x40 MSTORE POP POP POP JUMP JUMPDEST PUSH0 PUSH2 0x34F PUSH2 0x2BF JUMP JUMPDEST SWAP1 POP PUSH2 0x35B DUP3 DUP3 PUSH2 0x315 JUMP JUMPDEST SWAP2 SWAP1 POP JUMP JUMPDEST PUSH0 PUSH8 0xFFFFFFFFFFFFFFFF DUP3 GT ISZERO PUSH2 0x37A JUMPI PUSH2 0x379 PUSH2 0x2E8 JUMP JUMPDEST JUMPDEST PUSH2 0x383 DUP3 PUSH2 0x2D8 JUMP JUMPDEST SWAP1 POP PUSH1 0x20 DUP2 ADD SWAP1 POP SWAP2 SWAP1 POP JUMP JUMPDEST DUP3 DUP2 DUP4 CALLDATACOPY PUSH0 DUP4 DUP4 ADD MSTORE POP POP POP JUMP JUMPDEST PUSH0 PUSH2 0x3B0 PUSH2 0x3AB DUP5 PUSH2 0x360 JUMP JUMPDEST PUSH2 0x346 JUMP JUMPDEST SWAP1 POP DUP3 DUP2 MSTORE PUSH1 0x20 DUP2 ADD DUP5 DUP5 DUP5 ADD GT ISZERO PUSH2 0x3CC JUMPI PUSH2 0x3CB PUSH2 0x2D4 JUMP JUMPDEST JUMPDEST PUSH2 0x3D7 DUP5 DUP3 DUP6 PUSH2 0x390 JUMP JUMPDEST POP SWAP4 SWAP3 POP POP POP JUMP JUMPDEST PUSH0 DUP3 PUSH1 0x1F DUP4 ADD SLT PUSH2 0x3F3 JUMPI PUSH2 0x3F2 PUSH2 0x2D0 JUMP JUMPDEST JUMPDEST DUP2 CALLDATALOAD PUSH2 0x403 DUP5 DUP3 PUSH1 0x20 DUP7 ADD PUSH2 0x39E JUMP JUMPDEST SWAP2 POP POP SWAP3 SWAP2 POP POP JUMP JUMPDEST PUSH0 DUP2 SWAP1 POP SWAP2 SWAP1 POP JUMP JUMPDEST PUSH2 0x41E DUP2 PUSH2 0x40C JUMP JUMPDEST DUP2 EQ PUSH2 0x428 JUMPI PUSH0 DUP1 REVERT JUMPDEST POP JUMP JUMPDEST PUSH0 DUP2 CALLDATALOAD SWAP1 POP PUSH2 0x439 DUP2 PUSH2 0x415 JUMP JUMPDEST SWAP3 SWAP2 POP POP JUMP JUMPDEST PUSH0 DUP1 PUSH0 PUSH1 0x60 DUP5 DUP7 SUB SLT ISZERO PUSH2 0x456 JUMPI PUSH2 0x455 PUSH2 0x2C8 JUMP JUMPDEST JUMPDEST PUSH0 DUP5 ADD CALLDATALOAD PUSH8 0xFFFFFFFFFFFFFFFF DUP2 GT ISZERO PUSH2 0x473 JUMPI PUSH2 0x472 PUSH2 0x2CC JUMP JUMPDEST JUMPDEST PUSH2 0x47F DUP7 DUP3 DUP8 ADD PUSH2 0x3DF JUMP JUMPDEST SWAP4 POP POP PUSH1 0x20 PUSH2 0x490 DUP7 DUP3 DUP8 ADD PUSH2 0x42B JUMP JUMPDEST SWAP3 POP POP PUSH1 0x40 PUSH2 0x4A1 DUP7 DUP3 DUP8 ADD PUSH2 0x42B JUMP JUMPDEST SWAP2 POP POP SWAP3 POP SWAP3 POP SWAP3 JUMP JUMPDEST PUSH0 DUP2 MLOAD SWAP1 POP SWAP2 SWAP1 POP JUMP JUMPDEST PUSH0 DUP3 DUP3 MSTORE PUSH1 0x20 DUP3 ADD SWAP1 POP SWAP3 SWAP2 POP POP JUMP JUMPDEST PUSH0 JUMPDEST DUP4 DUP2 LT ISZERO PUSH2 0x4E2 JUMPI DUP1 DUP3 ADD MLOAD DUP2 DUP5 ADD MSTORE PUSH1 0x20 DUP2 ADD SWAP1 POP PUSH2 0x4C7 JUMP JUMPDEST PUSH0 DUP5 DUP5 ADD MSTORE POP POP POP POP JUMP JUMPDEST PUSH0 PUSH2 0x4F7 DUP3 PUSH2 0x4AB JUMP JUMPDEST PUSH2 0x501 DUP2 DUP6 PUSH2 0x4B5 JUMP JUMPDEST SWAP4 POP PUSH2 0x511 DUP2 DUP6 PUSH1 0x20 DUP7 ADD PUSH2 0x4C5 JUMP JUMPDEST PUSH2 0x51A DUP2 PUSH2 0x2D8 JUMP JUMPDEST DUP5 ADD SWAP2 POP POP SWAP3 SWAP2 POP POP JUMP JUMPDEST PUSH0 PUSH1 0x20 DUP3 ADD SWAP1 POP DUP2 DUP2 SUB PUSH0 DUP4 ADD MSTORE PUSH2 0x53D DUP2 DUP5 PUSH2 0x4ED JUMP JUMPDEST SWAP1 POP SWAP3 SWAP2 POP POP JUMP JUMPDEST PUSH0 PUSH1 0x20 DUP3 DUP5 SUB SLT ISZERO PUSH2 0x55A JUMPI PUSH2 0x559 PUSH2 0x2C8 JUMP JUMPDEST JUMPDEST PUSH0 PUSH2 0x567 DUP5 DUP3 DUP6 ADD PUSH2 0x42B JUMP JUMPDEST SWAP2 POP POP SWAP3 SWAP2 POP POP JUMP JUMPDEST PUSH32 0x4E487B7100000000000000000000000000000000000000000000000000000000 PUSH0 MSTORE PUSH1 0x11 PUSH1 0x4 MSTORE PUSH1 0x24 PUSH0 REVERT JUMPDEST PUSH0 PUSH2 0x5A7 DUP3 PUSH2 0x40C JUMP JUMPDEST SWAP2 POP PUSH2 0x5B2 DUP4 PUSH2 0x40C JUMP JUMPDEST SWAP3 POP DUP3 DUP3 SUB SWAP1 POP DUP2 DUP2 GT ISZERO PUSH2 0x5CA JUMPI PUSH2 0x5C9 PUSH2 0x570 JUMP JUMPDEST JUMPDEST SWAP3 SWAP2 POP POP JUMP JUMPDEST PUSH32 0x4E487B7100000000000000000000000000000000000000000000000000000000 PUSH0 MSTORE PUSH1 0x32 PUSH1 0x4 MSTORE PUSH1 0x24 PUSH0 REVERT JUMPDEST PUSH0 DUP2 SWAP1 POP SWAP2 SWAP1 POP JUMP JUMPDEST PUSH2 0x617 PUSH2 0x612 DUP3 PUSH2 0x40C JUMP JUMPDEST PUSH2 0x5FD JUMP JUMPDEST DUP3 MSTORE POP POP JUMP JUMPDEST PUSH0 PUSH2 0x628 DUP3 DUP6 PUSH2 0x606 JUMP JUMPDEST PUSH1 0x20 DUP3 ADD SWAP2 POP PUSH2 0x638 DUP3 DUP5 PUSH2 0x606 JUMP JUMPDEST PUSH1 0x20 DUP3 ADD SWAP2 POP DUP2 SWAP1 POP SWAP4 SWAP3 POP POP POP JUMP JUMPDEST PUSH32 0x4E487B7100000000000000000000000000000000000000000000000000000000 PUSH0 MSTORE PUSH1 0x12 PUSH1 0x4 MSTORE PUSH1 0x24 PUSH0 REVERT JUMPDEST PUSH0 PUSH2 0x67F DUP3 PUSH2 0x40C JUMP JUMPDEST SWAP2 POP PUSH2 0x68A DUP4 PUSH2 0x40C JUMP JUMPDEST SWAP3 POP DUP3 PUSH2 0x69A JUMPI PUSH2 0x699 PUSH2 0x648 JUMP JUMPDEST JUMPDEST DUP3 DUP3 MOD SWAP1 POP SWAP3 SWAP2 POP POP JUMP INVALID PUSH2 0x6263 PUSH5 0x6566676869 PUSH11 0x6B6C6D6E6F707172737475 PUSH23 0x7778797A4142434445464748494A4B4C4D4E4F50515253 SLOAD SSTORE JUMP JUMPI PC MSIZE GAS ADDRESS BALANCE ORIGIN CALLER CALLVALUE CALLDATALOAD CALLDATASIZE CALLDATACOPY CODESIZE CODECOPY LOG2 PUSH5 0x6970667358 0x22 SLT KECCAK256 PUSH26 0x3F2E04046F5D53BA074A00CB75BCF00AF8434AEB2A7A0C71A0F8 SWAP15 EXTCODECOPY PUSH21 0x4C8164736F6C634300081600330000000000000000 "
				},
				"gasEstimates": {
					"creation": {
						"codeDepositCost": "363400",
						"executionCost": "425",
						"totalCost": "363825"
					},
					"external": {
						"generateRandomString(uint256)": "infinite",
						"substring(string,uint256,uint256)": "infinite"
					}
				},
				"methodIdentifiers": {
					"generateRandomString(uint256)": "4f7d22e7",
					"substring(string,uint256,uint256)": "1dcd9b55"
				}
			},
			"storageLayout": {
				"storage": [],
				"types": null
			},
			"userdoc": {
				"kind": "user",
				"methods": {},
				"version": 1
			}
		}
	}
}