{
	"data": {
		"bytecode": {
			"linkReferences": {
				"lib.sol": {
					"Utils": [
						{
							"length": 20,
							"start": 1416
						},
						{
							"length": 20,
							"start": 1573
						}
					]
				}
			},
			"object": "60806040525f600160146101000a81548160ff021916908360028111156100295761002861003f565b5b0217905550348015610039575f80fd5b5061006c565b7f4e487b71000000000000000000000000000000000000000000000000000000005f52602160045260245ffd5b612561806200007a5f395ff3fe608060405234801561000f575f80fd5b5060043610610091575f3560e01c8063a1fbbc4111610064578063a1fbbc4114610158578063c05c5e9414610176578063da40c99d14610194578063f23876e9146101c4578063fa71bbf9146101e257610091565b806333fd637d1461009557806365fbb81f146100c5578063735a4774146100f5578063983a342914610125575b5f80fd5b6100af60048036038101906100aa919061139e565b610200565b6040516100bc91906115af565b60405180910390f35b6100df60048036038101906100da919061171a565b6102e4565b6040516100ec9190611849565b60405180910390f35b61010f600480360381019061010a919061139e565b61078c565b60405161011c91906118bd565b60405180910390f35b61013f600480360381019061013a91906118dd565b610979565b60405161014f949392919061197b565b60405180910390f35b610160610c8e565b60405161016d91906119d3565b60405180910390f35b61017e610ca1565b60405161018b9190611a66565b60405180910390f35b6101ae60048036038101906101a991906118dd565b610cc4565b6040516101bb9190611849565b60405180910390f35b6101cc610ea7565b6040516101d99190611a9f565b60405180910390f35b6101ea610ecc565b6040516101f79190611be1565b60405180910390f35b6102086112cc565b5f8054906101000a900473ffffffffffffffffffffffffffffffffffffffff1673ffffffffffffffffffffffffffffffffffffffff16634ed38faf336040518263ffffffff1660e01b81526004016102609190611c21565b602060405180830381865afa15801561027b573d5f803e3d5ffd5b505050506040513d601f19601f8201168201806040525081019061029f9190611c64565b6102de576040517f08c379a00000000000000000000000000000000000000000000000000000000081526004016102d590611cff565b60405180910390fd5b92915050565b5f805f9054906101000a900473ffffffffffffffffffffffffffffffffffffffff1673ffffffffffffffffffffffffffffffffffffffff16634ed38faf336040518263ffffffff1660e01b815260040161033e9190611c21565b602060405180830381865afa158015610359573d5f803e3d5ffd5b505050506040513d601f19601f8201168201806040525081019061037d9190611c64565b6103bc576040517f08c379a00000000000000000000000000000000000000000000000000000000081526004016103b390611cff565b60405180910390fd5b5f8751116103ff576040517f08c379a00000000000000000000000000000000000000000000000000000000081526004016103f690611d67565b60405180910390fd5b5f865111610442576040517f08c379a000000000000000000000000000000000000000000000000000000000815260040161043990611dcf565b60405180910390fd5b5f855111610485576040517f08c379a000000000000000000000000000000000000000000000000000000000815260040161047c90611dcf565b60405180910390fd5b5f8451116104c8576040517f08c379a00000000000000000000000000000000000000000000000000000000081526004016104bf90611e37565b60405180910390fd5b5f83511161050b576040517f08c379a000000000000000000000000000000000000000000000000000000000815260040161050290611e37565b60405180910390fd5b5f73__$06bd35f0a433ef0b014ad19d0a93ad9594$__634f7d22e760046040518263ffffffff1660e01b81526004016105449190611e97565b5f60405180830381865af415801561055e573d5f803e3d5ffd5b505050506040513d5f823e3d601f19601f820116820180604052508101906105869190611f1e565b90505f60405180606001604052808981526020018881526020018781525090505f898973__$06bd35f0a433ef0b014ad19d0a93ad9594$__631dcd9b558a5f60046040518463ffffffff1660e01b81526004016105e593929190611fe6565b5f60405180830381865af41580156105ff573d5f803e3d5ffd5b505050506040513d5f823e3d601f19601f820116820180604052508101906106279190611f1e565b8560405160200161063b94939291906120a6565b60405160208183030381529060405290505f60405180608001604052808381526020018c815260200184815260200187600281111561067d5761067c6114ce565b5b81525090508060028360405161069391906120ee565b90815260200160405180910390205f820151815f0190816106b491906122f5565b5060208201518160010190816106ca91906122f5565b506040820151816002015f820151815f0190816106e791906122f5565b5060208201518160010190816106fd91906122f5565b50604082015181600201908161071391906122f5565b5050506060820151816005015f6101000a81548160ff021916908360028111156107405761073f6114ce565b5b0217905550905050600382908060018154018082558091505060019003905f5260205f20015f90919091909150908161077991906122f5565b5060019450505050509695505050505050565b61079461130b565b600283836040516107a69291906123e8565b90815260200160405180910390206002016040518060600160405290815f820180546107d190612131565b80601f01602080910402602001604051908101604052809291908181526020018280546107fd90612131565b80156108485780601f1061081f57610100808354040283529160200191610848565b820191905f5260205f20905b81548152906001019060200180831161082b57829003601f168201915b5050505050815260200160018201805461086190612131565b80601f016020809104026020016040519081016040528092919081815260200182805461088d90612131565b80156108d85780601f106108af576101008083540402835291602001916108d8565b820191905f5260205f20905b8154815290600101906020018083116108bb57829003601f168201915b505050505081526020016002820180546108f190612131565b80601f016020809104026020016040519081016040528092919081815260200182805461091d90612131565b80156109685780601f1061093f57610100808354040283529160200191610968565b820191905f5260205f20905b81548152906001019060200180831161094b57829003601f168201915b505050505081525050905092915050565b6002818051602081018201805184825260208301602085012081835280955050505050505f91509050805f0180546109b090612131565b80601f01602080910402602001604051908101604052809291908181526020018280546109dc90612131565b8015610a275780601f106109fe57610100808354040283529160200191610a27565b820191905f5260205f20905b815481529060010190602001808311610a0a57829003601f168201915b505050505090806001018054610a3c90612131565b80601f0160208091040260200160405190810160405280929190818152602001828054610a6890612131565b8015610ab35780601f10610a8a57610100808354040283529160200191610ab3565b820191905f5260205f20905b815481529060010190602001808311610a9657829003601f168201915b505050505090806002016040518060600160405290815f82018054610ad790612131565b80601f0160208091040260200160405190810160405280929190818152602001828054610b0390612131565b8015610b4e5780601f10610b2557610100808354040283529160200191610b4e565b820191905f5260205f20905b815481529060010190602001808311610b3157829003601f168201915b50505050508152602001600182018054610b6790612131565b80601f0160208091040260200160405190810160405280929190818152602001828054610b9390612131565b8015610bde5780601f10610bb557610100808354040283529160200191610bde565b820191905f5260205f20905b815481529060010190602001808311610bc157829003601f168201915b50505050508152602001600282018054610bf790612131565b80601f0160208091040260200160405190810160405280929190818152602001828054610c2390612131565b8015610c6e5780601f10610c4557610100808354040283529160200191610c6e565b820191905f5260205f20905b815481529060010190602001808311610c5157829003601f168201915b50505050508152505090806005015f9054906101000a900460ff16905084565b600160149054906101000a900460ff1681565b5f8054906101000a900473ffffffffffffffffffffffffffffffffffffffff1681565b5f80600283604051610cd691906120ee565b90815260200160405180910390206001018054610cf290612131565b905003610d34576040517f08c379a0000000000000000000000000000000000000000000000000000000008152600401610d2b9061244a565b60405180910390fd5b60405180602001604052805f815250600283604051610d5391906120ee565b90815260200160405180910390205f019081610d6f91906122f5565b5060405180602001604052805f815250600283604051610d8f91906120ee565b90815260200160405180910390206001019081610dac91906122f5565b50604051806060016040528060405180602001604052805f815250815260200160405180602001604052805f815250815260200160405180602001604052805f815250815250600283604051610e0291906120ee565b90815260200160405180910390206002015f820151815f019081610e2691906122f5565b506020820151816001019081610e3c91906122f5565b506040820151816002019081610e5291906122f5565b509050505f600283604051610e6791906120ee565b90815260200160405180910390206005015f6101000a81548160ff02191690836002811115610e9957610e986114ce565b5b021790555060019050919050565b60015f9054906101000a900473ffffffffffffffffffffffffffffffffffffffff1681565b60605f60038054905090505f8167ffffffffffffffff811115610ef257610ef16115d3565b5b604051908082528060200260200182016040528015610f2b57816020015b610f186112cc565b815260200190600190039081610f105790505b5090505f5b828110156112c357600260038281548110610f4e57610f4d612468565b5b905f5260205f2001604051610f639190612515565b90815260200160405180910390206040518060800160405290815f82018054610f8b90612131565b80601f0160208091040260200160405190810160405280929190818152602001828054610fb790612131565b80156110025780601f10610fd957610100808354040283529160200191611002565b820191905f5260205f20905b815481529060010190602001808311610fe557829003601f168201915b5050505050815260200160018201805461101b90612131565b80601f016020809104026020016040519081016040528092919081815260200182805461104790612131565b80156110925780601f1061106957610100808354040283529160200191611092565b820191905f5260205f20905b81548152906001019060200180831161107557829003601f168201915b50505050508152602001600282016040518060600160405290815f820180546110ba90612131565b80601f01602080910402602001604051908101604052809291908181526020018280546110e690612131565b80156111315780601f1061110857610100808354040283529160200191611131565b820191905f5260205f20905b81548152906001019060200180831161111457829003601f168201915b5050505050815260200160018201805461114a90612131565b80601f016020809104026020016040519081016040528092919081815260200182805461117690612131565b80156111c15780601f10611198576101008083540402835291602001916111c1565b820191905f5260205f20905b8154815290600101906020018083116111a457829003601f168201915b505050505081526020016002820180546111da90612131565b80601f016020809104026020016040519081016040528092919081815260200182805461120690612131565b80156112515780601f1061122857610100808354040283529160200191611251565b820191905f5260205f20905b81548152906001019060200180831161123457829003601f168201915b5050505050815250508152602001600582015f9054906101000a900460ff166002811115611282576112816114ce565b5b6002811115611294576112936114ce565b5b815250508282815181106112ab576112aa612468565b5b60200260200101819052508080600101915050610f30565b50809250505090565b604051806080016040528060608152602001606081526020016112ed61130b565b81526020015f6002811115611305576113046114ce565b5b81525090565b60405180606001604052806060815260200160608152602001606081525090565b5f604051905090565b5f80fd5b5f80fd5b5f80fd5b5f80fd5b5f80fd5b5f8083601f84011261135e5761135d61133d565b5b8235905067ffffffffffffffff81111561137b5761137a611341565b5b60208301915083600182028301111561139757611396611345565b5b9250929050565b5f80602083850312156113b4576113b3611335565b5b5f83013567ffffffffffffffff8111156113d1576113d0611339565b5b6113dd85828601611349565b92509250509250929050565b5f81519050919050565b5f82825260208201905092915050565b5f5b83811015611420578082015181840152602081019050611405565b5f8484015250505050565b5f601f19601f8301169050919050565b5f611445826113e9565b61144f81856113f3565b935061145f818560208601611403565b6114688161142b565b840191505092915050565b5f606083015f8301518482035f86015261148d828261143b565b915050602083015184820360208601526114a7828261143b565b915050604083015184820360408601526114c1828261143b565b9150508091505092915050565b7f4e487b71000000000000000000000000000000000000000000000000000000005f52602160045260245ffd5b6003811061150c5761150b6114ce565b5b50565b5f81905061151c826114fb565b919050565b5f61152b8261150f565b9050919050565b61153b81611521565b82525050565b5f608083015f8301518482035f86015261155b828261143b565b91505060208301518482036020860152611575828261143b565b9150506040830151848203604086015261158f8282611473565b91505060608301516115a46060860182611532565b508091505092915050565b5f6020820190508181035f8301526115c78184611541565b905092915050565b5f80fd5b7f4e487b71000000000000000000000000000000000000000000000000000000005f52604160045260245ffd5b6116098261142b565b810181811067ffffffffffffffff82111715611628576116276115d3565b5b80604052505050565b5f61163a61132c565b90506116468282611600565b919050565b5f67ffffffffffffffff821115611665576116646115d3565b5b61166e8261142b565b9050602081019050919050565b828183375f83830152505050565b5f61169b6116968461164b565b611631565b9050828152602081018484840111156116b7576116b66115cf565b5b6116c284828561167b565b509392505050565b5f82601f8301126116de576116dd61133d565b5b81356116ee848260208601611689565b91505092915050565b60038110611703575f80fd5b50565b5f81359050611714816116f7565b92915050565b5f805f805f8060c0878903121561173457611733611335565b5b5f87013567ffffffffffffffff81111561175157611750611339565b5b61175d89828a016116ca565b965050602087013567ffffffffffffffff81111561177e5761177d611339565b5b61178a89828a016116ca565b955050604087013567ffffffffffffffff8111156117ab576117aa611339565b5b6117b789828a016116ca565b945050606087013567ffffffffffffffff8111156117d8576117d7611339565b5b6117e489828a016116ca565b935050608087013567ffffffffffffffff81111561180557611804611339565b5b61181189828a016116ca565b92505060a061182289828a01611706565b9150509295509295509295565b5f8115159050919050565b6118438161182f565b82525050565b5f60208201905061185c5f83018461183a565b92915050565b5f606083015f8301518482035f86015261187c828261143b565b91505060208301518482036020860152611896828261143b565b915050604083015184820360408601526118b0828261143b565b9150508091505092915050565b5f6020820190508181035f8301526118d58184611862565b905092915050565b5f602082840312156118f2576118f1611335565b5b5f82013567ffffffffffffffff81111561190f5761190e611339565b5b61191b848285016116ca565b91505092915050565b5f82825260208201905092915050565b5f61193e826113e9565b6119488185611924565b9350611958818560208601611403565b6119618161142b565b840191505092915050565b61197581611521565b82525050565b5f6080820190508181035f8301526119938187611934565b905081810360208301526119a78186611934565b905081810360408301526119bb8185611862565b90506119ca606083018461196c565b95945050505050565b5f6020820190506119e65f83018461196c565b92915050565b5f73ffffffffffffffffffffffffffffffffffffffff82169050919050565b5f819050919050565b5f611a2e611a29611a24846119ec565b611a0b565b6119ec565b9050919050565b5f611a3f82611a14565b9050919050565b5f611a5082611a35565b9050919050565b611a6081611a46565b82525050565b5f602082019050611a795f830184611a57565b92915050565b5f611a8982611a35565b9050919050565b611a9981611a7f565b82525050565b5f602082019050611ab25f830184611a90565b92915050565b5f81519050919050565b5f82825260208201905092915050565b5f819050602082019050919050565b5f608083015f8301518482035f860152611afb828261143b565b91505060208301518482036020860152611b15828261143b565b91505060408301518482036040860152611b2f8282611473565b9150506060830151611b446060860182611532565b508091505092915050565b5f611b5a8383611ae1565b905092915050565b5f602082019050919050565b5f611b7882611ab8565b611b828185611ac2565b935083602082028501611b9485611ad2565b805f5b85811015611bcf5784840389528151611bb08582611b4f565b9450611bbb83611b62565b925060208a01995050600181019050611b97565b50829750879550505050505092915050565b5f6020820190508181035f830152611bf98184611b6e565b905092915050565b5f611c0b826119ec565b9050919050565b611c1b81611c01565b82525050565b5f602082019050611c345f830184611c12565b92915050565b611c438161182f565b8114611c4d575f80fd5b50565b5f81519050611c5e81611c3a565b92915050565b5f60208284031215611c7957611c78611335565b5b5f611c8684828501611c50565b91505092915050565b7f4f6e6c792061646d696e2063616e2061636365737320746865206665617475725f8201527f6500000000000000000000000000000000000000000000000000000000000000602082015250565b5f611ce9602183611924565b9150611cf482611c8f565b604082019050919050565b5f6020820190508181035f830152611d1681611cdd565b9050919050565b7f6e616d652063616e6e6f7420626520656d7074790000000000000000000000005f82015250565b5f611d51601483611924565b9150611d5c82611d1d565b602082019050919050565b5f6020820190508181035f830152611d7e81611d45565b9050919050565b7f73746174652063616e6e6f7420626520656d70747900000000000000000000005f82015250565b5f611db9601583611924565b9150611dc482611d85565b602082019050919050565b5f6020820190508181035f830152611de681611dad565b9050919050565b7f737472656574206d75737420626520676976656e0000000000000000000000005f82015250565b5f611e21601483611924565b9150611e2c82611ded565b602082019050919050565b5f6020820190508181035f830152611e4e81611e15565b9050919050565b5f819050919050565b5f819050919050565b5f611e81611e7c611e7784611e55565b611a0b565b611e5e565b9050919050565b611e9181611e67565b82525050565b5f602082019050611eaa5f830184611e88565b92915050565b5f611ec2611ebd8461164b565b611631565b905082815260208101848484011115611ede57611edd6115cf565b5b611ee9848285611403565b509392505050565b5f82601f830112611f0557611f0461133d565b5b8151611f15848260208601611eb0565b91505092915050565b5f60208284031215611f3357611f32611335565b5b5f82015167ffffffffffffffff811115611f5057611f4f611339565b5b611f5c84828501611ef1565b91505092915050565b5f82825260208201905092915050565b5f611f7f826113e9565b611f898185611f65565b9350611f99818560208601611403565b611fa28161142b565b840191505092915050565b5f819050919050565b5f611fd0611fcb611fc684611fad565b611a0b565b611e5e565b9050919050565b611fe081611fb6565b82525050565b5f6060820190508181035f830152611ffe8186611f75565b905061200d6020830185611fd7565b61201a6040830184611e88565b949350505050565b5f81905092915050565b5f612036826113e9565b6120408185612022565b9350612050818560208601611403565b80840191505092915050565b7f2d000000000000000000000000000000000000000000000000000000000000005f82015250565b5f612090600183612022565b915061209b8261205c565b600182019050919050565b5f6120b1828761202c565b91506120bd828661202c565b91506120c9828561202c565b91506120d482612084565b91506120e0828461202c565b915081905095945050505050565b5f6120f9828461202c565b915081905092915050565b7f4e487b71000000000000000000000000000000000000000000000000000000005f52602260045260245ffd5b5f600282049050600182168061214857607f821691505b60208210810361215b5761215a612104565b5b50919050565b5f819050815f5260205f209050919050565b5f6020601f8301049050919050565b5f82821b905092915050565b5f600883026121bd7fffffffffffffffffffffffffffffffffffffffffffffffffffffffffffffffff82612182565b6121c78683612182565b95508019841693508086168417925050509392505050565b5f6121f96121f46121ef84611e5e565b611a0b565b611e5e565b9050919050565b5f819050919050565b612212836121df565b61222661221e82612200565b84845461218e565b825550505050565b5f90565b61223a61222e565b612245818484612209565b505050565b5b818110156122685761225d5f82612232565b60018101905061224b565b5050565b601f8211156122ad5761227e81612161565b61228784612173565b81016020851015612296578190505b6122aa6122a285612173565b83018261224a565b50505b505050565b5f82821c905092915050565b5f6122cd5f19846008026122b2565b1980831691505092915050565b5f6122e583836122be565b9150826002028217905092915050565b6122fe826113e9565b67ffffffffffffffff811115612317576123166115d3565b5b6123218254612131565b61232c82828561226c565b5f60209050601f83116001811461235d575f841561234b578287015190505b61235585826122da565b8655506123bc565b601f19841661236b86612161565b5f5b828110156123925784890151825560018201915060208501945060208101905061236d565b868310156123af57848901516123ab601f8916826122be565b8355505b6001600288020188555050505b505050505050565b5f6123cf8385612022565b93506123dc83858461167b565b82840190509392505050565b5f6123f48284866123c4565b91508190509392505050565b7f466163696c697479206e6f7420666f756e6400000000000000000000000000005f82015250565b5f612434601283611924565b915061243f82612400565b602082019050919050565b5f6020820190508181035f83015261246181612428565b9050919050565b7f4e487b71000000000000000000000000000000000000000000000000000000005f52603260045260245ffd5b5f81546124a181612131565b6124ab8186612022565b9450600182165f81146124c557600181146124da5761250c565b60ff198316865281151582028601935061250c565b6124e385612161565b5f5b83811015612504578154818901526001820191506020810190506124e5565b838801955050505b50505092915050565b5f6125208284612495565b91508190509291505056fea2646970667358221220baa2de9ac3c8f408e654e041ae8bc6b316b2af3e970d2e8a68c0cd6f105dd2da64736f6c63430008160033",
			"opcodes": "PUSH1 0x80 PUSH1 0x40 MSTORE PUSH0 PUSH1 0x1 PUSH1 0x14 PUSH2 0x100 EXP DUP2 SLOAD DUP2 PUSH1 0xFF MUL NOT AND SWAP1 DUP4 PUSH1 0x2 DUP2 GT ISZERO PUSH2 0x29 JUMPI PUSH2 0x28 PUSH2 0x3F JUMP JUMPDEST JUMPDEST MUL OR SWAP1 SSTORE POP CALLVALUE DUP1 ISZERO PUSH2 0x39 JUMPI PUSH0 DUP1 REVERT JUMPDEST POP PUSH2 0x6C JUMP JUMPDEST PUSH32 0x4E487B7100000000000000000000000000000000000000000000000000000000 PUSH0 MSTORE PUSH1 0x21 PUSH1 0x4 MSTORE PUSH1 0x24 PUSH0 REVERT JUMPDEST PUSH2 0x2561 DUP1 PUSH3 0x7A PUSH0 CODECOPY PUSH0 RETURN INVALID PUSH1 0x80 PUSH1 0x40 MSTORE CALLVALUE DUP1 ISZERO PUSH2 0xF JUMPI PUSH0 DUP1 REVERT JUMPDEST POP PUSH1 0x4 CALLDATASIZE LT PUSH2 0x91 JUMPI PUSH0 CALLDATALOAD PUSH1 0xE0 SHR DUP1 PUSH4 0xA1FBBC41 GT PUSH2 0x64 JUMPI DUP1 PUSH4 0xA1FBBC41 EQ PUSH2 0x158 JUMPI DUP1 PUSH4 0xC05C5E94 EQ PUSH2 0x176 JUMPI DUP1 PUSH4 0xDA40C99D EQ PUSH2 0x194 JUMPI DUP1 PUSH4 0xF23876E9 EQ PUSH2 0x1C4 JUMPI DUP1 PUSH4 0xFA71BBF9 EQ PUSH2 0x1E2 JUMPI PUSH2 0x91 JUMP JUMPDEST DUP1 PUSH4 0x33FD637D EQ PUSH2 0x95 JUMPI DUP1 PUSH4 0x65FBB81F EQ PUSH2 0xC5 JUMPI DUP1 PUSH4 0x735A4774 EQ PUSH2 0xF5 JUMPI DUP1 PUSH4 0x983A3429 EQ PUSH2 0x125 JUMPI JUMPDEST PUSH0 DUP1 REVERT JUMPDEST PUSH2 0xAF PUSH1 0x4 DUP1 CALLDATASIZE SUB DUP2 ADD SWAP1 PUSH2 0xAA SWAP2 SWAP1 PUSH2 0x139E JUMP JUMPDEST PUSH2 0x200 JUMP JUMPDEST PUSH1 0x40 MLOAD PUSH2 0xBC SWAP2 SWAP1 PUSH2 0x15AF JUMP JUMPDEST PUSH1 0x40 MLOAD DUP1 SWAP2 SUB SWAP1 RETURN JUMPDEST PUSH2 0xDF PUSH1 0x4 DUP1 CALLDATASIZE SUB DUP2 ADD SWAP1 PUSH2 0xDA SWAP2 SWAP1 PUSH2 0x171A JUMP JUMPDEST PUSH2 0x2E4 JUMP JUMPDEST PUSH1 0x40 MLOAD PUSH2 0xEC SWAP2 SWAP1 PUSH2 0x1849 JUMP JUMPDEST PUSH1 0x40 MLOAD DUP1 SWAP2 SUB SWAP1 RETURN JUMPDEST PUSH2 0x10F PUSH1 0x4 DUP1 CALLDATASIZE SUB DUP2 ADD SWAP1 PUSH2 0x10A SWAP2 SWAP1 PUSH2 0x139E JUMP JUMPDEST PUSH2 0x78C JUMP JUMPDEST PUSH1 0x40 MLOAD PUSH2 0x11C SWAP2 SWAP1 PUSH2 0x18BD JUMP JUMPDEST PUSH1 0x40 MLOAD DUP1 SWAP2 SUB SWAP1 RETURN JUMPDEST PUSH2 0x13F PUSH1 0x4 DUP1 CALLDATASIZE SUB DUP2 ADD SWAP1 PUSH2 0x13A SWAP2 SWAP1 PUSH2 0x18DD JUMP JUMPDEST PUSH2 0x979 JUMP JUMPDEST PUSH1 0x40 MLOAD PUSH2 0x14F SWAP5 SWAP4 SWAP3 SWAP2 SWAP1 PUSH2 0x197B JUMP JUMPDEST PUSH1 0x40 MLOAD DUP1 SWAP2 SUB SWAP1 RETURN JUMPDEST PUSH2 0x160 PUSH2 0xC8E JUMP JUMPDEST PUSH1 0x40 MLOAD PUSH2 0x16D SWAP2 SWAP1 PUSH2 0x19D3 JUMP JUMPDEST PUSH1 0x40 MLOAD DUP1 SWAP2 SUB SWAP1 RETURN JUMPDEST PUSH2 0x17E PUSH2 0xCA1 JUMP JUMPDEST PUSH1 0x40 MLOAD PUSH2 0x18B SWAP2 SWAP1 PUSH2 0x1A66 JUMP JUMPDEST PUSH1 0x40 MLOAD DUP1 SWAP2 SUB SWAP1 RETURN JUMPDEST PUSH2 0x1AE PUSH1 0x4 DUP1 CALLDATASIZE SUB DUP2 ADD SWAP1 PUSH2 0x1A9 SWAP2 SWAP1 PUSH2 0x18DD JUMP JUMPDEST PUSH2 0xCC4 JUMP JUMPDEST PUSH1 0x40 MLOAD PUSH2 0x1BB SWAP2 SWAP1 PUSH2 0x1849 JUMP JUMPDEST PUSH1 0x40 MLOAD DUP1 SWAP2 SUB SWAP1 RETURN JUMPDEST PUSH2 0x1CC PUSH2 0xEA7 JUMP JUMPDEST PUSH1 0x40 MLOAD PUSH2 0x1D9 SWAP2 SWAP1 PUSH2 0x1A9F JUMP JUMPDEST PUSH1 0x40 MLOAD DUP1 SWAP2 SUB SWAP1 RETURN JUMPDEST PUSH2 0x1EA PUSH2 0xECC JUMP JUMPDEST PUSH1 0x40 MLOAD PUSH2 0x1F7 SWAP2 SWAP1 PUSH2 0x1BE1 JUMP JUMPDEST PUSH1 0x40 MLOAD DUP1 SWAP2 SUB SWAP1 RETURN JUMPDEST PUSH2 0x208 PUSH2 0x12CC JUMP JUMPDEST PUSH0 DUP1 SLOAD SWAP1 PUSH2 0x100 EXP SWAP1 DIV PUSH20 0xFFFFFFFFFFFFFFFFFFFFFFFFFFFFFFFFFFFFFFFF AND PUSH20 0xFFFFFFFFFFFFFFFFFFFFFFFFFFFFFFFFFFFFFFFF AND PUSH4 0x4ED38FAF CALLER PUSH1 0x40 MLOAD DUP3 PUSH4 0xFFFFFFFF AND PUSH1 0xE0 SHL DUP2 MSTORE PUSH1 0x4 ADD PUSH2 0x260 SWAP2 SWAP1 PUSH2 0x1C21 JUMP JUMPDEST PUSH1 0x20 PUSH1 0x40 MLOAD DUP1 DUP4 SUB DUP2 DUP7 GAS STATICCALL ISZERO DUP1 ISZERO PUSH2 0x27B JUMPI RETURNDATASIZE PUSH0 DUP1 RETURNDATACOPY RETURNDATASIZE PUSH0 REVERT JUMPDEST POP POP POP POP PUSH1 0x40 MLOAD RETURNDATASIZE PUSH1 0x1F NOT PUSH1 0x1F DUP3 ADD AND DUP3 ADD DUP1 PUSH1 0x40 MSTORE POP DUP2 ADD SWAP1 PUSH2 0x29F SWAP2 SWAP1 PUSH2 0x1C64 JUMP JUMPDEST PUSH2 0x2DE JUMPI PUSH1 0x40 MLOAD PUSH32 0x8C379A000000000000000000000000000000000000000000000000000000000 DUP2 MSTORE PUSH1 0x4 ADD PUSH2 0x2D5 SWAP1 PUSH2 0x1CFF JUMP JUMPDEST PUSH1 0x40 MLOAD DUP1 SWAP2 SUB SWAP1 REVERT JUMPDEST SWAP3 SWAP2 POP POP JUMP JUMPDEST PUSH0 DUP1 PUSH0 SWAP1 SLOAD SWAP1 PUSH2 0x100 EXP SWAP1 DIV PUSH20 0xFFFFFFFFFFFFFFFFFFFFFFFFFFFFFFFFFFFFFFFF AND PUSH20 0xFFFFFFFFFFFFFFFFFFFFFFFFFFFFFFFFFFFFFFFF AND PUSH4 0x4ED38FAF CALLER PUSH1 0x40 MLOAD DUP3 PUSH4 0xFFFFFFFF AND PUSH1 0xE0 SHL DUP2 MSTORE PUSH1 0x4 ADD PUSH2 0x33E SWAP2 SWAP1 PUSH2 0x1C21 JUMP JUMPDEST PUSH1 0x20 PUSH1 0x40 MLOAD DUP1 DUP4 SUB DUP2 DUP7 GAS STATICCALL ISZERO DUP1 ISZERO PUSH2 0x359 JUMPI RETURNDATASIZE PUSH0 DUP1 RETURNDATACOPY RETURNDATASIZE PUSH0 REVERT JUMPDEST POP POP POP POP PUSH1 0x40 MLOAD RETURNDATASIZE PUSH1 0x1F NOT PUSH1 0x1F DUP3 ADD AND DUP3 ADD DUP1 PUSH1 0x40 MSTORE POP DUP2 ADD SWAP1 PUSH2 0x37D SWAP2 SWAP1 PUSH2 0x1C64 JUMP JUMPDEST PUSH2 0x3BC JUMPI PUSH1 0x40 MLOAD PUSH32 0x8C379A000000000000000000000000000000000000000000000000000000000 DUP2 MSTORE PUSH1 0x4 ADD PUSH2 0x3B3 SWAP1 PUSH2 0x1CFF JUMP JUMPDEST PUSH1 0x40 MLOAD DUP1 SWAP2 SUB SWAP1 REVERT JUMPDEST PUSH0 DUP8 MLOAD GT PUSH2 0x3FF JUMPI PUSH1 0x40 MLOAD PUSH32 0x8C379A000000000000000000000000000000000000000000000000000000000 DUP2 MSTORE PUSH1 0x4 ADD PUSH2 0x3F6 SWAP1 PUSH2 0x1D67 JUMP JUMPDEST PUSH1 0x40 MLOAD DUP1 SWAP2 SUB SWAP1 REVERT JUMPDEST PUSH0 DUP7 MLOAD GT PUSH2 0x442 JUMPI PUSH1 0x40 MLOAD PUSH32 0x8C379A000000000000000000000000000000000000000000000000000000000 DUP2 MSTORE PUSH1 0x4 ADD PUSH2 0x439 SWAP1 PUSH2 0x1DCF JUMP JUMPDEST PUSH1 0x40 MLOAD DUP1 SWAP2 SUB SWAP1 REVERT JUMPDEST PUSH0 DUP6 MLOAD GT PUSH2 0x485 JUMPI PUSH1 0x40 MLOAD PUSH32 0x8C379A000000000000000000000000000000000000000000000000000000000 DUP2 MSTORE PUSH1 0x4 ADD PUSH2 0x47C SWAP1 PUSH2 0x1DCF JUMP JUMPDEST PUSH1 0x40 MLOAD DUP1 SWAP2 SUB SWAP1 REVERT JUMPDEST PUSH0 DUP5 MLOAD GT PUSH2 0x4C8 JUMPI PUSH1 0x40 MLOAD PUSH32 0x8C379A000000000000000000000000000000000000000000000000000000000 DUP2 MSTORE PUSH1 0x4 ADD PUSH2 0x4BF SWAP1 PUSH2 0x1E37 JUMP JUMPDEST PUSH1 0x40 MLOAD DUP1 SWAP2 SUB SWAP1 REVERT JUMPDEST PUSH0 DUP4 MLOAD GT PUSH2 0x50B JUMPI PUSH1 0x40 MLOAD PUSH32 0x8C379A000000000000000000000000000000000000000000000000000000000 DUP2 MSTORE PUSH1 0x4 ADD PUSH2 0x502 SWAP1 PUSH2 0x1E37 JUMP JUMPDEST PUSH1 0x40 MLOAD DUP1 SWAP2 SUB SWAP1 REVERT JUMPDEST PUSH0 PUSH20 0x0 PUSH4 0x4F7D22E7 PUSH1 0x4 PUSH1 0x40 MLOAD DUP3 PUSH4 0xFFFFFFFF AND PUSH1 0xE0 SHL DUP2 MSTORE PUSH1 0x4 ADD PUSH2 0x544 SWAP2 SWAP1 PUSH2 0x1E97 JUMP JUMPDEST PUSH0 PUSH1 0x40 MLOAD DUP1 DUP4 SUB DUP2 DUP7 GAS DELEGATECALL ISZERO DUP1 ISZERO PUSH2 0x55E JUMPI RETURNDATASIZE PUSH0 DUP1 RETURNDATACOPY RETURNDATASIZE PUSH0 REVERT JUMPDEST POP POP POP POP PUSH1 0x40 MLOAD RETURNDATASIZE PUSH0 DUP3 RETURNDATACOPY RETURNDATASIZE PUSH1 0x1F NOT PUSH1 0x1F DUP3 ADD AND DUP3 ADD DUP1 PUSH1 0x40 MSTORE POP DUP2 ADD SWAP1 PUSH2 0x586 SWAP2 SWAP1 PUSH2 0x1F1E JUMP JUMPDEST SWAP1 POP PUSH0 PUSH1 0x40 MLOAD DUP1 PUSH1 0x60 ADD PUSH1 0x40 MSTORE DUP1 DUP10 DUP2 MSTORE PUSH1 0x20 ADD DUP9 DUP2 MSTORE PUSH1 0x20 ADD DUP8 DUP2 MSTORE POP SWAP1 POP PUSH0 DUP10 DUP10 PUSH20 0x0 PUSH4 0x1DCD9B55 DUP11 PUSH0 PUSH1 0x4 PUSH1 0x40 MLOAD DUP5 PUSH4 0xFFFFFFFF AND PUSH1 0xE0 SHL DUP2 MSTORE PUSH1 0x4 ADD PUSH2 0x5E5 SWAP4 SWAP3 SWAP2 SWAP1 PUSH2 0x1FE6 JUMP JUMPDEST PUSH0 PUSH1 0x40 MLOAD DUP1 DUP4 SUB DUP2 DUP7 GAS DELEGATECALL ISZERO DUP1 ISZERO PUSH2 0x5FF JUMPI RETURNDATASIZE PUSH0 DUP1 RETURNDATACOPY RETURNDATASIZE PUSH0 REVERT JUMPDEST POP POP POP POP PUSH1 0x40 MLOAD RETURNDATASIZE PUSH0 DUP3 RETURNDATACOPY RETURNDATASIZE PUSH1 0x1F NOT PUSH1 0x1F DUP3 ADD AND DUP3 ADD DUP1 PUSH1 0x40 MSTORE POP DUP2 ADD SWAP1 PUSH2 0x627 SWAP2 SWAP1 PUSH2 0x1F1E JUMP JUMPDEST DUP6 PUSH1 0x40 MLOAD PUSH1 0x20 ADD PUSH2 0x63B SWAP5 SWAP4 SWAP3 SWAP2 SWAP1 PUSH2 0x20A6 JUMP JUMPDEST PUSH1 0x40 MLOAD PUSH1 0x20 DUP2 DUP4 SUB SUB DUP2 MSTORE SWAP1 PUSH1 0x40 MSTORE SWAP1 POP PUSH0 PUSH1 0x40 MLOAD DUP1 PUSH1 0x80 ADD PUSH1 0x40 MSTORE DUP1 DUP4 DUP2 MSTORE PUSH1 0x20 ADD DUP13 DUP2 MSTORE PUSH1 0x20 ADD DUP5 DUP2 MSTORE PUSH1 0x20 ADD DUP8 PUSH1 0x2 DUP2 GT ISZERO PUSH2 0x67D JUMPI PUSH2 0x67C PUSH2 0x14CE JUMP JUMPDEST JUMPDEST DUP2 MSTORE POP SWAP1 POP DUP1 PUSH1 0x2 DUP4 PUSH1 0x40 MLOAD PUSH2 0x693 SWAP2 SWAP1 PUSH2 0x20EE JUMP JUMPDEST SWAP1 DUP2 MSTORE PUSH1 0x20 ADD PUSH1 0x40 MLOAD DUP1 SWAP2 SUB SWAP1 KECCAK256 PUSH0 DUP3 ADD MLOAD DUP2 PUSH0 ADD SWAP1 DUP2 PUSH2 0x6B4 SWAP2 SWAP1 PUSH2 0x22F5 JUMP JUMPDEST POP PUSH1 0x20 DUP3 ADD MLOAD DUP2 PUSH1 0x1 ADD SWAP1 DUP2 PUSH2 0x6CA SWAP2 SWAP1 PUSH2 0x22F5 JUMP JUMPDEST POP PUSH1 0x40 DUP3 ADD MLOAD DUP2 PUSH1 0x2 ADD PUSH0 DUP3 ADD MLOAD DUP2 PUSH0 ADD SWAP1 DUP2 PUSH2 0x6E7 SWAP2 SWAP1 PUSH2 0x22F5 JUMP JUMPDEST POP PUSH1 0x20 DUP3 ADD MLOAD DUP2 PUSH1 0x1 ADD SWAP1 DUP2 PUSH2 0x6FD SWAP2 SWAP1 PUSH2 0x22F5 JUMP JUMPDEST POP PUSH1 0x40 DUP3 ADD MLOAD DUP2 PUSH1 0x2 ADD SWAP1 DUP2 PUSH2 0x713 SWAP2 SWAP1 PUSH2 0x22F5 JUMP JUMPDEST POP POP POP PUSH1 0x60 DUP3 ADD MLOAD DUP2 PUSH1 0x5 ADD PUSH0 PUSH2 0x100 EXP DUP2 SLOAD DUP2 PUSH1 0xFF MUL NOT AND SWAP1 DUP4 PUSH1 0x2 DUP2 GT ISZERO PUSH2 0x740 JUMPI PUSH2 0x73F PUSH2 0x14CE JUMP JUMPDEST JUMPDEST MUL OR SWAP1 SSTORE POP SWAP1 POP POP PUSH1 0x3 DUP3 SWAP1 DUP1 PUSH1 0x1 DUP2 SLOAD ADD DUP1 DUP3 SSTORE DUP1 SWAP2 POP POP PUSH1 0x1 SWAP1 SUB SWAP1 PUSH0 MSTORE PUSH1 0x20 PUSH0 KECCAK256 ADD PUSH0 SWAP1 SWAP2 SWAP1 SWAP2 SWAP1 SWAP2 POP SWAP1 DUP2 PUSH2 0x779 SWAP2 SWAP1 PUSH2 0x22F5 JUMP JUMPDEST POP PUSH1 0x1 SWAP5 POP POP POP POP POP SWAP7 SWAP6 POP POP POP POP POP POP JUMP JUMPDEST PUSH2 0x794 PUSH2 0x130B JUMP JUMPDEST PUSH1 0x2 DUP4 DUP4 PUSH1 0x40 MLOAD PUSH2 0x7A6 SWAP3 SWAP2 SWAP1 PUSH2 0x23E8 JUMP JUMPDEST SWAP1 DUP2 MSTORE PUSH1 0x20 ADD PUSH1 0x40 MLOAD DUP1 SWAP2 SUB SWAP1 KECCAK256 PUSH1 0x2 ADD PUSH1 0x40 MLOAD DUP1 PUSH1 0x60 ADD PUSH1 0x40 MSTORE SWAP1 DUP2 PUSH0 DUP3 ADD DUP1 SLOAD PUSH2 0x7D1 SWAP1 PUSH2 0x2131 JUMP JUMPDEST DUP1 PUSH1 0x1F ADD PUSH1 0x20 DUP1 SWAP2 DIV MUL PUSH1 0x20 ADD PUSH1 0x40 MLOAD SWAP1 DUP2 ADD PUSH1 0x40 MSTORE DUP1 SWAP3 SWAP2 SWAP1 DUP2 DUP2 MSTORE PUSH1 0x20 ADD DUP3 DUP1 SLOAD PUSH2 0x7FD SWAP1 PUSH2 0x2131 JUMP JUMPDEST DUP1 ISZERO PUSH2 0x848 JUMPI DUP1 PUSH1 0x1F LT PUSH2 0x81F JUMPI PUSH2 0x100 DUP1 DUP4 SLOAD DIV MUL DUP4 MSTORE SWAP2 PUSH1 0x20 ADD SWAP2 PUSH2 0x848 JUMP JUMPDEST DUP3 ADD SWAP2 SWAP1 PUSH0 MSTORE PUSH1 0x20 PUSH0 KECCAK256 SWAP1 JUMPDEST DUP2 SLOAD DUP2 MSTORE SWAP1 PUSH1 0x1 ADD SWAP1 PUSH1 0x20 ADD DUP1 DUP4 GT PUSH2 0x82B JUMPI DUP3 SWAP1 SUB PUSH1 0x1F AND DUP3 ADD SWAP2 JUMPDEST POP POP POP POP POP DUP2 MSTORE PUSH1 0x20 ADD PUSH1 0x1 DUP3 ADD DUP1 SLOAD PUSH2 0x861 SWAP1 PUSH2 0x2131 JUMP JUMPDEST DUP1 PUSH1 0x1F ADD PUSH1 0x20 DUP1 SWAP2 DIV MUL PUSH1 0x20 ADD PUSH1 0x40 MLOAD SWAP1 DUP2 ADD PUSH1 0x40 MSTORE DUP1 SWAP3 SWAP2 SWAP1 DUP2 DUP2 MSTORE PUSH1 0x20 ADD DUP3 DUP1 SLOAD PUSH2 0x88D SWAP1 PUSH2 0x2131 JUMP JUMPDEST DUP1 ISZERO PUSH2 0x8D8 JUMPI DUP1 PUSH1 0x1F LT PUSH2 0x8AF JUMPI PUSH2 0x100 DUP1 DUP4 SLOAD DIV MUL DUP4 MSTORE SWAP2 PUSH1 0x20 ADD SWAP2 PUSH2 0x8D8 JUMP JUMPDEST DUP3 ADD SWAP2 SWAP1 PUSH0 MSTORE PUSH1 0x20 PUSH0 KECCAK256 SWAP1 JUMPDEST DUP2 SLOAD DUP2 MSTORE SWAP1 PUSH1 0x1 ADD SWAP1 PUSH1 0x20 ADD DUP1 DUP4 GT PUSH2 0x8BB JUMPI DUP3 SWAP1 SUB PUSH1 0x1F AND DUP3 ADD SWAP2 JUMPDEST POP POP POP POP POP DUP2 MSTORE PUSH1 0x20 ADD PUSH1 0x2 DUP3 ADD DUP1 SLOAD PUSH2 0x8F1 SWAP1 PUSH2 0x2131 JUMP JUMPDEST DUP1 PUSH1 0x1F ADD PUSH1 0x20 DUP1 SWAP2 DIV MUL PUSH1 0x20 ADD PUSH1 0x40 MLOAD SWAP1 DUP2 ADD PUSH1 0x40 MSTORE DUP1 SWAP3 SWAP2 SWAP1 DUP2 DUP2 MSTORE PUSH1 0x20 ADD DUP3 DUP1 SLOAD PUSH2 0x91D SWAP1 PUSH2 0x2131 JUMP JUMPDEST DUP1 ISZERO PUSH2 0x968 JUMPI DUP1 PUSH1 0x1F LT PUSH2 0x93F JUMPI PUSH2 0x100 DUP1 DUP4 SLOAD DIV MUL DUP4 MSTORE SWAP2 PUSH1 0x20 ADD SWAP2 PUSH2 0x968 JUMP JUMPDEST DUP3 ADD SWAP2 SWAP1 PUSH0 MSTORE PUSH1 0x20 PUSH0 KECCAK256 SWAP1 JUMPDEST DUP2 SLOAD DUP2 MSTORE SWAP1 PUSH1 0x1 ADD SWAP1 PUSH1 0x20 ADD DUP1 DUP4 GT PUSH2 0x94B JUMPI DUP3 SWAP1 SUB PUSH1 0x1F AND DUP3 ADD SWAP2 JUMPDEST POP POP POP POP POP DUP2 MSTORE POP POP SWAP1 POP SWAP3 SWAP2 POP POP JUMP JUMPDEST PUSH1 0x2 DUP2 DUP1 MLOAD PUSH1 0x20 DUP2 ADD DUP3 ADD DUP1 MLOAD DUP5 DUP3 MSTORE PUSH1 0x20 DUP4 ADD PUSH1 0x20 DUP6 ADD KECCAK256 DUP2 DUP4 MSTORE DUP1 SWAP6 POP POP POP POP POP POP PUSH0 SWAP2 POP SWAP1 POP DUP1 PUSH0 ADD DUP1 SLOAD PUSH2 0x9B0 SWAP1 PUSH2 0x2131 JUMP JUMPDEST DUP1 PUSH1 0x1F ADD PUSH1 0x20 DUP1 SWAP2 DIV MUL PUSH1 0x20 ADD PUSH1 0x40 MLOAD SWAP1 DUP2 ADD PUSH1 0x40 MSTORE DUP1 SWAP3 SWAP2 SWAP1 DUP2 DUP2 MSTORE PUSH1 0x20 ADD DUP3 DUP1 SLOAD PUSH2 0x9DC SWAP1 PUSH2 0x2131 JUMP JUMPDEST DUP1 ISZERO PUSH2 0xA27 JUMPI DUP1 PUSH1 0x1F LT PUSH2 0x9FE JUMPI PUSH2 0x100 DUP1 DUP4 SLOAD DIV MUL DUP4 MSTORE SWAP2 PUSH1 0x20 ADD SWAP2 PUSH2 0xA27 JUMP JUMPDEST DUP3 ADD SWAP2 SWAP1 PUSH0 MSTORE PUSH1 0x20 PUSH0 KECCAK256 SWAP1 JUMPDEST DUP2 SLOAD DUP2 MSTORE SWAP1 PUSH1 0x1 ADD SWAP1 PUSH1 0x20 ADD DUP1 DUP4 GT PUSH2 0xA0A JUMPI DUP3 SWAP1 SUB PUSH1 0x1F AND DUP3 ADD SWAP2 JUMPDEST POP POP POP POP POP SWAP1 DUP1 PUSH1 0x1 ADD DUP1 SLOAD PUSH2 0xA3C SWAP1 PUSH2 0x2131 JUMP JUMPDEST DUP1 PUSH1 0x1F ADD PUSH1 0x20 DUP1 SWAP2 DIV MUL PUSH1 0x20 ADD PUSH1 0x40 MLOAD SWAP1 DUP2 ADD PUSH1 0x40 MSTORE DUP1 SWAP3 SWAP2 SWAP1 DUP2 DUP2 MSTORE PUSH1 0x20 ADD DUP3 DUP1 SLOAD PUSH2 0xA68 SWAP1 PUSH2 0x2131 JUMP JUMPDEST DUP1 ISZERO PUSH2 0xAB3 JUMPI DUP1 PUSH1 0x1F LT PUSH2 0xA8A JUMPI PUSH2 0x100 DUP1 DUP4 SLOAD DIV MUL DUP4 MSTORE SWAP2 PUSH1 0x20 ADD SWAP2 PUSH2 0xAB3 JUMP JUMPDEST DUP3 ADD SWAP2 SWAP1 PUSH0 MSTORE PUSH1 0x20 PUSH0 KECCAK256 SWAP1 JUMPDEST DUP2 SLOAD DUP2 MSTORE SWAP1 PUSH1 0x1 ADD SWAP1 PUSH1 0x20 ADD DUP1 DUP4 GT PUSH2 0xA96 JUMPI DUP3 SWAP1 SUB PUSH1 0x1F AND DUP3 ADD SWAP2 JUMPDEST POP POP POP POP POP SWAP1 DUP1 PUSH1 0x2 ADD PUSH1 0x40 MLOAD DUP1 PUSH1 0x60 ADD PUSH1 0x40 MSTORE SWAP1 DUP2 PUSH0 DUP3 ADD DUP1 SLOAD PUSH2 0xAD7 SWAP1 PUSH2 0x2131 JUMP JUMPDEST DUP1 PUSH1 0x1F ADD PUSH1 0x20 DUP1 SWAP2 DIV MUL PUSH1 0x20 ADD PUSH1 0x40 MLOAD SWAP1 DUP2 ADD PUSH1 0x40 MSTORE DUP1 SWAP3 SWAP2 SWAP1 DUP2 DUP2 MSTORE PUSH1 0x20 ADD DUP3 DUP1 SLOAD PUSH2 0xB03 SWAP1 PUSH2 0x2131 JUMP JUMPDEST DUP1 ISZERO PUSH2 0xB4E JUMPI DUP1 PUSH1 0x1F LT PUSH2 0xB25 JUMPI PUSH2 0x100 DUP1 DUP4 SLOAD DIV MUL DUP4 MSTORE SWAP2 PUSH1 0x20 ADD SWAP2 PUSH2 0xB4E JUMP JUMPDEST DUP3 ADD SWAP2 SWAP1 PUSH0 MSTORE PUSH1 0x20 PUSH0 KECCAK256 SWAP1 JUMPDEST DUP2 SLOAD DUP2 MSTORE SWAP1 PUSH1 0x1 ADD SWAP1 PUSH1 0x20 ADD DUP1 DUP4 GT PUSH2 0xB31 JUMPI DUP3 SWAP1 SUB PUSH1 0x1F AND DUP3 ADD SWAP2 JUMPDEST POP POP POP POP POP DUP2 MSTORE PUSH1 0x20 ADD PUSH1 0x1 DUP3 ADD DUP1 SLOAD PUSH2 0xB67 SWAP1 PUSH2 0x2131 JUMP JUMPDEST DUP1 PUSH1 0x1F ADD PUSH1 0x20 DUP1 SWAP2 DIV MUL PUSH1 0x20 ADD PUSH1 0x40 MLOAD SWAP1 DUP2 ADD PUSH1 0x40 MSTORE DUP1 SWAP3 SWAP2 SWAP1 DUP2 DUP2 MSTORE PUSH1 0x20 ADD DUP3 DUP1 SLOAD PUSH2 0xB93 SWAP1 PUSH2 0x2131 JUMP JUMPDEST DUP1 ISZERO PUSH2 0xBDE JUMPI DUP1 PUSH1 0x1F LT PUSH2 0xBB5 JUMPI PUSH2 0x100 DUP1 DUP4 SLOAD DIV MUL DUP4 MSTORE SWAP2 PUSH1 0x20 ADD SWAP2 PUSH2 0xBDE JUMP JUMPDEST DUP3 ADD SWAP2 SWAP1 PUSH0 MSTORE PUSH1 0x20 PUSH0 KECCAK256 SWAP1 JUMPDEST DUP2 SLOAD DUP2 MSTORE SWAP1 PUSH1 0x1 ADD SWAP1 PUSH1 0x20 ADD DUP1 DUP4 GT PUSH2 0xBC1 JUMPI DUP3 SWAP1 SUB PUSH1 0x1F AND DUP3 ADD SWAP2 JUMPDEST POP POP POP POP POP DUP2 MSTORE PUSH1 0x20 ADD PUSH1 0x2 DUP3 ADD DUP1 SLOAD PUSH2 0xBF7 SWAP1 PUSH2 0x2131 JUMP JUMPDEST DUP1 PUSH1 0x1F ADD PUSH1 0x20 DUP1 SWAP2 DIV MUL PUSH1 0x20 ADD PUSH1 0x40 MLOAD SWAP1 DUP2 ADD PUSH1 0x40 MSTORE DUP1 SWAP3 SWAP2 SWAP1 DUP2 DUP2 MSTORE PUSH1 0x20 ADD DUP3 DUP1 SLOAD PUSH2 0xC23 SWAP1 PUSH2 0x2131 JUMP JUMPDEST DUP1 ISZERO PUSH2 0xC6E JUMPI DUP1 PUSH1 0x1F LT PUSH2 0xC45 JUMPI PUSH2 0x100 DUP1 DUP4 SLOAD DIV MUL DUP4 MSTORE SWAP2 PUSH1 0x20 ADD SWAP2 PUSH2 0xC6E JUMP JUMPDEST DUP3 ADD SWAP2 SWAP1 PUSH0 MSTORE PUSH1 0x20 PUSH0 KECCAK256 SWAP1 JUMPDEST DUP2 SLOAD DUP2 MSTORE SWAP1 PUSH1 0x1 ADD SWAP1 PUSH1 0x20 ADD DUP1 DUP4 GT PUSH2 0xC51 JUMPI DUP3 SWAP1 SUB PUSH1 0x1F AND DUP3 ADD SWAP2 JUMPDEST POP POP POP POP POP DUP2 MSTORE POP POP SWAP1 DUP1 PUSH1 0x5 ADD PUSH0 SWAP1 SLOAD SWAP1 PUSH2 0x100 EXP SWAP1 DIV PUSH1 0xFF AND SWAP1 POP DUP5 JUMP JUMPDEST PUSH1 0x1 PUSH1 0x14 SWAP1 SLOAD SWAP1 PUSH2 0x100 EXP SWAP1 DIV PUSH1 0xFF AND DUP2 JUMP JUMPDEST PUSH0 DUP1 SLOAD SWAP1 PUSH2 0x100 EXP SWAP1 DIV PUSH20 0xFFFFFFFFFFFFFFFFFFFFFFFFFFFFFFFFFFFFFFFF AND DUP2 JUMP JUMPDEST PUSH0 DUP1 PUSH1 0x2 DUP4 PUSH1 0x40 MLOAD PUSH2 0xCD6 SWAP2 SWAP1 PUSH2 0x20EE JUMP JUMPDEST SWAP1 DUP2 MSTORE PUSH1 0x20 ADD PUSH1 0x40 MLOAD DUP1 SWAP2 SUB SWAP1 KECCAK256 PUSH1 0x1 ADD DUP1 SLOAD PUSH2 0xCF2 SWAP1 PUSH2 0x2131 JUMP JUMPDEST SWAP1 POP SUB PUSH2 0xD34 JUMPI PUSH1 0x40 MLOAD PUSH32 0x8C379A000000000000000000000000000000000000000000000000000000000 DUP2 MSTORE PUSH1 0x4 ADD PUSH2 0xD2B SWAP1 PUSH2 0x244A JUMP JUMPDEST PUSH1 0x40 MLOAD DUP1 SWAP2 SUB SWAP1 REVERT JUMPDEST PUSH1 0x40 MLOAD DUP1 PUSH1 0x20 ADD PUSH1 0x40 MSTORE DUP1 PUSH0 DUP2 MSTORE POP PUSH1 0x2 DUP4 PUSH1 0x40 MLOAD PUSH2 0xD53 SWAP2 SWAP1 PUSH2 0x20EE JUMP JUMPDEST SWAP1 DUP2 MSTORE PUSH1 0x20 ADD PUSH1 0x40 MLOAD DUP1 SWAP2 SUB SWAP1 KECCAK256 PUSH0 ADD SWAP1 DUP2 PUSH2 0xD6F SWAP2 SWAP1 PUSH2 0x22F5 JUMP JUMPDEST POP PUSH1 0x40 MLOAD DUP1 PUSH1 0x20 ADD PUSH1 0x40 MSTORE DUP1 PUSH0 DUP2 MSTORE POP PUSH1 0x2 DUP4 PUSH1 0x40 MLOAD PUSH2 0xD8F SWAP2 SWAP1 PUSH2 0x20EE JUMP JUMPDEST SWAP1 DUP2 MSTORE PUSH1 0x20 ADD PUSH1 0x40 MLOAD DUP1 SWAP2 SUB SWAP1 KECCAK256 PUSH1 0x1 ADD SWAP1 DUP2 PUSH2 0xDAC SWAP2 SWAP1 PUSH2 0x22F5 JUMP JUMPDEST POP PUSH1 0x40 MLOAD DUP1 PUSH1 0x60 ADD PUSH1 0x40 MSTORE DUP1 PUSH1 0x40 MLOAD DUP1 PUSH1 0x20 ADD PUSH1 0x40 MSTORE DUP1 PUSH0 DUP2 MSTORE POP DUP2 MSTORE PUSH1 0x20 ADD PUSH1 0x40 MLOAD DUP1 PUSH1 0x20 ADD PUSH1 0x40 MSTORE DUP1 PUSH0 DUP2 MSTORE POP DUP2 MSTORE PUSH1 0x20 ADD PUSH1 0x40 MLOAD DUP1 PUSH1 0x20 ADD PUSH1 0x40 MSTORE DUP1 PUSH0 DUP2 MSTORE POP DUP2 MSTORE POP PUSH1 0x2 DUP4 PUSH1 0x40 MLOAD PUSH2 0xE02 SWAP2 SWAP1 PUSH2 0x20EE JUMP JUMPDEST SWAP1 DUP2 MSTORE PUSH1 0x20 ADD PUSH1 0x40 MLOAD DUP1 SWAP2 SUB SWAP1 KECCAK256 PUSH1 0x2 ADD PUSH0 DUP3 ADD MLOAD DUP2 PUSH0 ADD SWAP1 DUP2 PUSH2 0xE26 SWAP2 SWAP1 PUSH2 0x22F5 JUMP JUMPDEST POP PUSH1 0x20 DUP3 ADD MLOAD DUP2 PUSH1 0x1 ADD SWAP1 DUP2 PUSH2 0xE3C SWAP2 SWAP1 PUSH2 0x22F5 JUMP JUMPDEST POP PUSH1 0x40 DUP3 ADD MLOAD DUP2 PUSH1 0x2 ADD SWAP1 DUP2 PUSH2 0xE52 SWAP2 SWAP1 PUSH2 0x22F5 JUMP JUMPDEST POP SWAP1 POP POP PUSH0 PUSH1 0x2 DUP4 PUSH1 0x40 MLOAD PUSH2 0xE67 SWAP2 SWAP1 PUSH2 0x20EE JUMP JUMPDEST SWAP1 DUP2 MSTORE PUSH1 0x20 ADD PUSH1 0x40 MLOAD DUP1 SWAP2 SUB SWAP1 KECCAK256 PUSH1 0x5 ADD PUSH0 PUSH2 0x100 EXP DUP2 SLOAD DUP2 PUSH1 0xFF MUL NOT AND SWAP1 DUP4 PUSH1 0x2 DUP2 GT ISZERO PUSH2 0xE99 JUMPI PUSH2 0xE98 PUSH2 0x14CE JUMP JUMPDEST JUMPDEST MUL OR SWAP1 SSTORE POP PUSH1 0x1 SWAP1 POP SWAP2 SWAP1 POP JUMP JUMPDEST PUSH1 0x1 PUSH0 SWAP1 SLOAD SWAP1 PUSH2 0x100 EXP SWAP1 DIV PUSH20 0xFFFFFFFFFFFFFFFFFFFFFFFFFFFFFFFFFFFFFFFF AND DUP2 JUMP JUMPDEST PUSH1 0x60 PUSH0 PUSH1 0x3 DUP1 SLOAD SWAP1 POP SWAP1 POP PUSH0 DUP2 PUSH8 0xFFFFFFFFFFFFFFFF DUP2 GT ISZERO PUSH2 0xEF2 JUMPI PUSH2 0xEF1 PUSH2 0x15D3 JUMP JUMPDEST JUMPDEST PUSH1 0x40 MLOAD SWAP1 DUP1 DUP3 MSTORE DUP1 PUSH1 0x20 MUL PUSH1 0x20 ADD DUP3 ADD PUSH1 0x40 MSTORE DUP1 ISZERO PUSH2 0xF2B JUMPI DUP2 PUSH1 0x20 ADD JUMPDEST PUSH2 0xF18 PUSH2 0x12CC JUMP JUMPDEST DUP2 MSTORE PUSH1 0x20 ADD SWAP1 PUSH1 0x1 SWAP1 SUB SWAP1 DUP2 PUSH2 0xF10 JUMPI SWAP1 POP JUMPDEST POP SWAP1 POP PUSH0 JUMPDEST DUP3 DUP2 LT ISZERO PUSH2 0x12C3 JUMPI PUSH1 0x2 PUSH1 0x3 DUP3 DUP2 SLOAD DUP2 LT PUSH2 0xF4E JUMPI PUSH2 0xF4D PUSH2 0x2468 JUMP JUMPDEST JUMPDEST SWAP1 PUSH0 MSTORE PUSH1 0x20 PUSH0 KECCAK256 ADD PUSH1 0x40 MLOAD PUSH2 0xF63 SWAP2 SWAP1 PUSH2 0x2515 JUMP JUMPDEST SWAP1 DUP2 MSTORE PUSH1 0x20 ADD PUSH1 0x40 MLOAD DUP1 SWAP2 SUB SWAP1 KECCAK256 PUSH1 0x40 MLOAD DUP1 PUSH1 0x80 ADD PUSH1 0x40 MSTORE SWAP1 DUP2 PUSH0 DUP3 ADD DUP1 SLOAD PUSH2 0xF8B SWAP1 PUSH2 0x2131 JUMP JUMPDEST DUP1 PUSH1 0x1F ADD PUSH1 0x20 DUP1 SWAP2 DIV MUL PUSH1 0x20 ADD PUSH1 0x40 MLOAD SWAP1 DUP2 ADD PUSH1 0x40 MSTORE DUP1 SWAP3 SWAP2 SWAP1 DUP2 DUP2 MSTORE PUSH1 0x20 ADD DUP3 DUP1 SLOAD PUSH2 0xFB7 SWAP1 PUSH2 0x2131 JUMP JUMPDEST DUP1 ISZERO PUSH2 0x1002 JUMPI DUP1 PUSH1 0x1F LT PUSH2 0xFD9 JUMPI PUSH2 0x100 DUP1 DUP4 SLOAD DIV MUL DUP4 MSTORE SWAP2 PUSH1 0x20 ADD SWAP2 PUSH2 0x1002 JUMP JUMPDEST DUP3 ADD SWAP2 SWAP1 PUSH0 MSTORE PUSH1 0x20 PUSH0 KECCAK256 SWAP1 JUMPDEST DUP2 SLOAD DUP2 MSTORE SWAP1 PUSH1 0x1 ADD SWAP1 PUSH1 0x20 ADD DUP1 DUP4 GT PUSH2 0xFE5 JUMPI DUP3 SWAP1 SUB PUSH1 0x1F AND DUP3 ADD SWAP2 JUMPDEST POP POP POP POP POP DUP2 MSTORE PUSH1 0x20 ADD PUSH1 0x1 DUP3 ADD DUP1 SLOAD PUSH2 0x101B SWAP1 PUSH2 0x2131 JUMP JUMPDEST DUP1 PUSH1 0x1F ADD PUSH1 0x20 DUP1 SWAP2 DIV MUL PUSH1 0x20 ADD PUSH1 0x40 MLOAD SWAP1 DUP2 ADD PUSH1 0x40 MSTORE DUP1 SWAP3 SWAP2 SWAP1 DUP2 DUP2 MSTORE PUSH1 0x20 ADD DUP3 DUP1 SLOAD PUSH2 0x1047 SWAP1 PUSH2 0x2131 JUMP JUMPDEST DUP1 ISZERO PUSH2 0x1092 JUMPI DUP1 PUSH1 0x1F LT PUSH2 0x1069 JUMPI PUSH2 0x100 DUP1 DUP4 SLOAD DIV MUL DUP4 MSTORE SWAP2 PUSH1 0x20 ADD SWAP2 PUSH2 0x1092 JUMP JUMPDEST DUP3 ADD SWAP2 SWAP1 PUSH0 MSTORE PUSH1 0x20 PUSH0 KECCAK256 SWAP1 JUMPDEST DUP2 SLOAD DUP2 MSTORE SWAP1 PUSH1 0x1 ADD SWAP1 PUSH1 0x20 ADD DUP1 DUP4 GT PUSH2 0x1075 JUMPI DUP3 SWAP1 SUB PUSH1 0x1F AND DUP3 ADD SWAP2 JUMPDEST POP POP POP POP POP DUP2 MSTORE PUSH1 0x20 ADD PUSH1 0x2 DUP3 ADD PUSH1 0x40 MLOAD DUP1 PUSH1 0x60 ADD PUSH1 0x40 MSTORE SWAP1 DUP2 PUSH0 DUP3 ADD DUP1 SLOAD PUSH2 0x10BA SWAP1 PUSH2 0x2131 JUMP JUMPDEST DUP1 PUSH1 0x1F ADD PUSH1 0x20 DUP1 SWAP2 DIV MUL PUSH1 0x20 ADD PUSH1 0x40 MLOAD SWAP1 DUP2 ADD PUSH1 0x40 MSTORE DUP1 SWAP3 SWAP2 SWAP1 DUP2 DUP2 MSTORE PUSH1 0x20 ADD DUP3 DUP1 SLOAD PUSH2 0x10E6 SWAP1 PUSH2 0x2131 JUMP JUMPDEST DUP1 ISZERO PUSH2 0x1131 JUMPI DUP1 PUSH1 0x1F LT PUSH2 0x1108 JUMPI PUSH2 0x100 DUP1 DUP4 SLOAD DIV MUL DUP4 MSTORE SWAP2 PUSH1 0x20 ADD SWAP2 PUSH2 0x1131 JUMP JUMPDEST DUP3 ADD SWAP2 SWAP1 PUSH0 MSTORE PUSH1 0x20 PUSH0 KECCAK256 SWAP1 JUMPDEST DUP2 SLOAD DUP2 MSTORE SWAP1 PUSH1 0x1 ADD SWAP1 PUSH1 0x20 ADD DUP1 DUP4 GT PUSH2 0x1114 JUMPI DUP3 SWAP1 SUB PUSH1 0x1F AND DUP3 ADD SWAP2 JUMPDEST POP POP POP POP POP DUP2 MSTORE PUSH1 0x20 ADD PUSH1 0x1 DUP3 ADD DUP1 SLOAD PUSH2 0x114A SWAP1 PUSH2 0x2131 JUMP JUMPDEST DUP1 PUSH1 0x1F ADD PUSH1 0x20 DUP1 SWAP2 DIV MUL PUSH1 0x20 ADD PUSH1 0x40 MLOAD SWAP1 DUP2 ADD PUSH1 0x40 MSTORE DUP1 SWAP3 SWAP2 SWAP1 DUP2 DUP2 MSTORE PUSH1 0x20 ADD DUP3 DUP1 SLOAD PUSH2 0x1176 SWAP1 PUSH2 0x2131 JUMP JUMPDEST DUP1 ISZERO PUSH2 0x11C1 JUMPI DUP1 PUSH1 0x1F LT PUSH2 0x1198 JUMPI PUSH2 0x100 DUP1 DUP4 SLOAD DIV MUL DUP4 MSTORE SWAP2 PUSH1 0x20 ADD SWAP2 PUSH2 0x11C1 JUMP JUMPDEST DUP3 ADD SWAP2 SWAP1 PUSH0 MSTORE PUSH1 0x20 PUSH0 KECCAK256 SWAP1 JUMPDEST DUP2 SLOAD DUP2 MSTORE SWAP1 PUSH1 0x1 ADD SWAP1 PUSH1 0x20 ADD DUP1 DUP4 GT PUSH2 0x11A4 JUMPI DUP3 SWAP1 SUB PUSH1 0x1F AND DUP3 ADD SWAP2 JUMPDEST POP POP POP POP POP DUP2 MSTORE PUSH1 0x20 ADD PUSH1 0x2 DUP3 ADD DUP1 SLOAD PUSH2 0x11DA SWAP1 PUSH2 0x2131 JUMP JUMPDEST DUP1 PUSH1 0x1F ADD PUSH1 0x20 DUP1 SWAP2 DIV MUL PUSH1 0x20 ADD PUSH1 0x40 MLOAD SWAP1 DUP2 ADD PUSH1 0x40 MSTORE DUP1 SWAP3 SWAP2 SWAP1 DUP2 DUP2 MSTORE PUSH1 0x20 ADD DUP3 DUP1 SLOAD PUSH2 0x1206 SWAP1 PUSH2 0x2131 JUMP JUMPDEST DUP1 ISZERO PUSH2 0x1251 JUMPI DUP1 PUSH1 0x1F LT PUSH2 0x1228 JUMPI PUSH2 0x100 DUP1 DUP4 SLOAD DIV MUL DUP4 MSTORE SWAP2 PUSH1 0x20 ADD SWAP2 PUSH2 0x1251 JUMP JUMPDEST DUP3 ADD SWAP2 SWAP1 PUSH0 MSTORE PUSH1 0x20 PUSH0 KECCAK256 SWAP1 JUMPDEST DUP2 SLOAD DUP2 MSTORE SWAP1 PUSH1 0x1 ADD SWAP1 PUSH1 0x20 ADD DUP1 DUP4 GT PUSH2 0x1234 JUMPI DUP3 SWAP1 SUB PUSH1 0x1F AND DUP3 ADD SWAP2 JUMPDEST POP POP POP POP POP DUP2 MSTORE POP POP DUP2 MSTORE PUSH1 0x20 ADD PUSH1 0x5 DUP3 ADD PUSH0 SWAP1 SLOAD SWAP1 PUSH2 0x100 EXP SWAP1 DIV PUSH1 0xFF AND PUSH1 0x2 DUP2 GT ISZERO PUSH2 0x1282 JUMPI PUSH2 0x1281 PUSH2 0x14CE JUMP JUMPDEST JUMPDEST PUSH1 0x2 DUP2 GT ISZERO PUSH2 0x1294 JUMPI PUSH2 0x1293 PUSH2 0x14CE JUMP JUMPDEST JUMPDEST DUP2 MSTORE POP POP DUP3 DUP3 DUP2 MLOAD DUP2 LT PUSH2 0x12AB JUMPI PUSH2 0x12AA PUSH2 0x2468 JUMP JUMPDEST JUMPDEST PUSH1 0x20 MUL PUSH1 0x20 ADD ADD DUP2 SWAP1 MSTORE POP DUP1 DUP1 PUSH1 0x1 ADD SWAP2 POP POP PUSH2 0xF30 JUMP JUMPDEST POP DUP1 SWAP3 POP POP POP SWAP1 JUMP JUMPDEST PUSH1 0x40 MLOAD DUP1 PUSH1 0x80 ADD PUSH1 0x40 MSTORE DUP1 PUSH1 0x60 DUP2 MSTORE PUSH1 0x20 ADD PUSH1 0x60 DUP2 MSTORE PUSH1 0x20 ADD PUSH2 0x12ED PUSH2 0x130B JUMP JUMPDEST DUP2 MSTORE PUSH1 0x20 ADD PUSH0 PUSH1 0x2 DUP2 GT ISZERO PUSH2 0x1305 JUMPI PUSH2 0x1304 PUSH2 0x14CE JUMP JUMPDEST JUMPDEST DUP2 MSTORE POP SWAP1 JUMP JUMPDEST PUSH1 0x40 MLOAD DUP1 PUSH1 0x60 ADD PUSH1 0x40 MSTORE DUP1 PUSH1 0x60 DUP2 MSTORE PUSH1 0x20 ADD PUSH1 0x60 DUP2 MSTORE PUSH1 0x20 ADD PUSH1 0x60 DUP2 MSTORE POP SWAP1 JUMP JUMPDEST PUSH0 PUSH1 0x40 MLOAD SWAP1 POP SWAP1 JUMP JUMPDEST PUSH0 DUP1 REVERT JUMPDEST PUSH0 DUP1 REVERT JUMPDEST PUSH0 DUP1 REVERT JUMPDEST PUSH0 DUP1 REVERT JUMPDEST PUSH0 DUP1 REVERT JUMPDEST PUSH0 DUP1 DUP4 PUSH1 0x1F DUP5 ADD SLT PUSH2 0x135E JUMPI PUSH2 0x135D PUSH2 0x133D JUMP JUMPDEST JUMPDEST DUP3 CALLDATALOAD SWAP1 POP PUSH8 0xFFFFFFFFFFFFFFFF DUP2 GT ISZERO PUSH2 0x137B JUMPI PUSH2 0x137A PUSH2 0x1341 JUMP JUMPDEST JUMPDEST PUSH1 0x20 DUP4 ADD SWAP2 POP DUP4 PUSH1 0x1 DUP3 MUL DUP4 ADD GT ISZERO PUSH2 0x1397 JUMPI PUSH2 0x1396 PUSH2 0x1345 JUMP JUMPDEST JUMPDEST SWAP3 POP SWAP3 SWAP1 POP JUMP JUMPDEST PUSH0 DUP1 PUSH1 0x20 DUP4 DUP6 SUB SLT ISZERO PUSH2 0x13B4 JUMPI PUSH2 0x13B3 PUSH2 0x1335 JUMP JUMPDEST JUMPDEST PUSH0 DUP4 ADD CALLDATALOAD PUSH8 0xFFFFFFFFFFFFFFFF DUP2 GT ISZERO PUSH2 0x13D1 JUMPI PUSH2 0x13D0 PUSH2 0x1339 JUMP JUMPDEST JUMPDEST PUSH2 0x13DD DUP6 DUP3 DUP7 ADD PUSH2 0x1349 JUMP JUMPDEST SWAP3 POP SWAP3 POP POP SWAP3 POP SWAP3 SWAP1 POP JUMP JUMPDEST PUSH0 DUP2 MLOAD SWAP1 POP SWAP2 SWAP1 POP JUMP JUMPDEST PUSH0 DUP3 DUP3 MSTORE PUSH1 0x20 DUP3 ADD SWAP1 POP SWAP3 SWAP2 POP POP JUMP JUMPDEST PUSH0 JUMPDEST DUP4 DUP2 LT ISZERO PUSH2 0x1420 JUMPI DUP1 DUP3 ADD MLOAD DUP2 DUP5 ADD MSTORE PUSH1 0x20 DUP2 ADD SWAP1 POP PUSH2 0x1405 JUMP JUMPDEST PUSH0 DUP5 DUP5 ADD MSTORE POP POP POP POP JUMP JUMPDEST PUSH0 PUSH1 0x1F NOT PUSH1 0x1F DUP4 ADD AND SWAP1 POP SWAP2 SWAP1 POP JUMP JUMPDEST PUSH0 PUSH2 0x1445 DUP3 PUSH2 0x13E9 JUMP JUMPDEST PUSH2 0x144F DUP2 DUP6 PUSH2 0x13F3 JUMP JUMPDEST SWAP4 POP PUSH2 0x145F DUP2 DUP6 PUSH1 0x20 DUP7 ADD PUSH2 0x1403 JUMP JUMPDEST PUSH2 0x1468 DUP2 PUSH2 0x142B JUMP JUMPDEST DUP5 ADD SWAP2 POP POP SWAP3 SWAP2 POP POP JUMP JUMPDEST PUSH0 PUSH1 0x60 DUP4 ADD PUSH0 DUP4 ADD MLOAD DUP5 DUP3 SUB PUSH0 DUP7 ADD MSTORE PUSH2 0x148D DUP3 DUP3 PUSH2 0x143B JUMP JUMPDEST SWAP2 POP POP PUSH1 0x20 DUP4 ADD MLOAD DUP5 DUP3 SUB PUSH1 0x20 DUP7 ADD MSTORE PUSH2 0x14A7 DUP3 DUP3 PUSH2 0x143B JUMP JUMPDEST SWAP2 POP POP PUSH1 0x40 DUP4 ADD MLOAD DUP5 DUP3 SUB PUSH1 0x40 DUP7 ADD MSTORE PUSH2 0x14C1 DUP3 DUP3 PUSH2 0x143B JUMP JUMPDEST SWAP2 POP POP DUP1 SWAP2 POP POP SWAP3 SWAP2 POP POP JUMP JUMPDEST PUSH32 0x4E487B7100000000000000000000000000000000000000000000000000000000 PUSH0 MSTORE PUSH1 0x21 PUSH1 0x4 MSTORE PUSH1 0x24 PUSH0 REVERT JUMPDEST PUSH1 0x3 DUP2 LT PUSH2 0x150C JUMPI PUSH2 0x150B PUSH2 0x14CE JUMP JUMPDEST JUMPDEST POP JUMP JUMPDEST PUSH0 DUP2 SWAP1 POP PUSH2 0x151C DUP3 PUSH2 0x14FB JUMP JUMPDEST SWAP2 SWAP1 POP JUMP JUMPDEST PUSH0 PUSH2 0x152B DUP3 PUSH2 0x150F JUMP JUMPDEST SWAP1 POP SWAP2 SWAP1 POP JUMP JUMPDEST PUSH2 0x153B DUP2 PUSH2 0x1521 JUMP JUMPDEST DUP3 MSTORE POP POP JUMP JUMPDEST PUSH0 PUSH1 0x80 DUP4 ADD PUSH0 DUP4 ADD MLOAD DUP5 DUP3 SUB PUSH0 DUP7 ADD MSTORE PUSH2 0x155B DUP3 DUP3 PUSH2 0x143B JUMP JUMPDEST SWAP2 POP POP PUSH1 0x20 DUP4 ADD MLOAD DUP5 DUP3 SUB PUSH1 0x20 DUP7 ADD MSTORE PUSH2 0x1575 DUP3 DUP3 PUSH2 0x143B JUMP JUMPDEST SWAP2 POP POP PUSH1 0x40 DUP4 ADD MLOAD DUP5 DUP3 SUB PUSH1 0x40 DUP7 ADD MSTORE PUSH2 0x158F DUP3 DUP3 PUSH2 0x1473 JUMP JUMPDEST SWAP2 POP POP PUSH1 0x60 DUP4 ADD MLOAD PUSH2 0x15A4 PUSH1 0x60 DUP7 ADD DUP3 PUSH2 0x1532 JUMP JUMPDEST POP DUP1 SWAP2 POP POP SWAP3 SWAP2 POP POP JUMP JUMPDEST PUSH0 PUSH1 0x20 DUP3 ADD SWAP1 POP DUP2 DUP2 SUB PUSH0 DUP4 ADD MSTORE PUSH2 0x15C7 DUP2 DUP5 PUSH2 0x1541 JUMP JUMPDEST SWAP1 POP SWAP3 SWAP2 POP POP JUMP JUMPDEST PUSH0 DUP1 REVERT JUMPDEST PUSH32 0x4E487B7100000000000000000000000000000000000000000000000000000000 PUSH0 MSTORE PUSH1 0x41 PUSH1 0x4 MSTORE PUSH1 0x24 PUSH0 REVERT JUMPDEST PUSH2 0x1609 DUP3 PUSH2 0x142B JUMP JUMPDEST DUP2 ADD DUP2 DUP2 LT PUSH8 0xFFFFFFFFFFFFFFFF DUP3 GT OR ISZERO PUSH2 0x1628 JUMPI PUSH2 0x1627 PUSH2 0x15D3 JUMP JUMPDEST JUMPDEST DUP1 PUSH1 0x40 MSTORE POP POP POP JUMP JUMPDEST PUSH0 PUSH2 0x163A PUSH2 0x132C JUMP JUMPDEST SWAP1 POP PUSH2 0x1646 DUP3 DUP3 PUSH2 0x1600 JUMP JUMPDEST SWAP2 SWAP1 POP JUMP JUMPDEST PUSH0 PUSH8 0xFFFFFFFFFFFFFFFF DUP3 GT ISZERO PUSH2 0x1665 JUMPI PUSH2 0x1664 PUSH2 0x15D3 JUMP JUMPDEST JUMPDEST PUSH2 0x166E DUP3 PUSH2 0x142B JUMP JUMPDEST SWAP1 POP PUSH1 0x20 DUP2 ADD SWAP1 POP SWAP2 SWAP1 POP JUMP JUMPDEST DUP3 DUP2 DUP4 CALLDATACOPY PUSH0 DUP4 DUP4 ADD MSTORE POP POP POP JUMP JUMPDEST PUSH0 PUSH2 0x169B PUSH2 0x1696 DUP5 PUSH2 0x164B JUMP JUMPDEST PUSH2 0x1631 JUMP JUMPDEST SWAP1 POP DUP3 DUP2 MSTORE PUSH1 0x20 DUP2 ADD DUP5 DUP5 DUP5 ADD GT ISZERO PUSH2 0x16B7 JUMPI PUSH2 0x16B6 PUSH2 0x15CF JUMP JUMPDEST JUMPDEST PUSH2 0x16C2 DUP5 DUP3 DUP6 PUSH2 0x167B JUMP JUMPDEST POP SWAP4 SWAP3 POP POP POP JUMP JUMPDEST PUSH0 DUP3 PUSH1 0x1F DUP4 ADD SLT PUSH2 0x16DE JUMPI PUSH2 0x16DD PUSH2 0x133D JUMP JUMPDEST JUMPDEST DUP2 CALLDATALOAD PUSH2 0x16EE DUP5 DUP3 PUSH1 0x20 DUP7 ADD PUSH2 0x1689 JUMP JUMPDEST SWAP2 POP POP SWAP3 SWAP2 POP POP JUMP JUMPDEST PUSH1 0x3 DUP2 LT PUSH2 0x1703 JUMPI PUSH0 DUP1 REVERT JUMPDEST POP JUMP JUMPDEST PUSH0 DUP2 CALLDATALOAD SWAP1 POP PUSH2 0x1714 DUP2 PUSH2 0x16F7 JUMP JUMPDEST SWAP3 SWAP2 POP POP JUMP JUMPDEST PUSH0 DUP1 PUSH0 DUP1 PUSH0 DUP1 PUSH1 0xC0 DUP8 DUP10 SUB SLT ISZERO PUSH2 0x1734 JUMPI PUSH2 0x1733 PUSH2 0x1335 JUMP JUMPDEST JUMPDEST PUSH0 DUP8 ADD CALLDATALOAD PUSH8 0xFFFFFFFFFFFFFFFF DUP2 GT ISZERO PUSH2 0x1751 JUMPI PUSH2 0x1750 PUSH2 0x1339 JUMP JUMPDEST JUMPDEST PUSH2 0x175D DUP10 DUP3 DUP11 ADD PUSH2 0x16CA JUMP JUMPDEST SWAP7 POP POP PUSH1 0x20 DUP8 ADD CALLDATALOAD PUSH8 0xFFFFFFFFFFFFFFFF DUP2 GT ISZERO PUSH2 0x177E JUMPI PUSH2 0x177D PUSH2 0x1339 JUMP JUMPDEST JUMPDEST PUSH2 0x178A DUP10 DUP3 DUP11 ADD PUSH2 0x16CA JUMP JUMPDEST SWAP6 POP POP PUSH1 0x40 DUP8 ADD CALLDATALOAD PUSH8 0xFFFFFFFFFFFFFFFF DUP2 GT ISZERO PUSH2 0x17AB JUMPI PUSH2 0x17AA PUSH2 0x1339 JUMP JUMPDEST JUMPDEST PUSH2 0x17B7 DUP10 DUP3 DUP11 ADD PUSH2 0x16CA JUMP JUMPDEST SWAP5 POP POP PUSH1 0x60 DUP8 ADD CALLDATALOAD PUSH8 0xFFFFFFFFFFFFFFFF DUP2 GT ISZERO PUSH2 0x17D8 JUMPI PUSH2 0x17D7 PUSH2 0x1339 JUMP JUMPDEST JUMPDEST PUSH2 0x17E4 DUP10 DUP3 DUP11 ADD PUSH2 0x16CA JUMP JUMPDEST SWAP4 POP POP PUSH1 0x80 DUP8 ADD CALLDATALOAD PUSH8 0xFFFFFFFFFFFFFFFF DUP2 GT ISZERO PUSH2 0x1805 JUMPI PUSH2 0x1804 PUSH2 0x1339 JUMP JUMPDEST JUMPDEST PUSH2 0x1811 DUP10 DUP3 DUP11 ADD PUSH2 0x16CA JUMP JUMPDEST SWAP3 POP POP PUSH1 0xA0 PUSH2 0x1822 DUP10 DUP3 DUP11 ADD PUSH2 0x1706 JUMP JUMPDEST SWAP2 POP POP SWAP3 SWAP6 POP SWAP3 SWAP6 POP SWAP3 SWAP6 JUMP JUMPDEST PUSH0 DUP2 ISZERO ISZERO SWAP1 POP SWAP2 SWAP1 POP JUMP JUMPDEST PUSH2 0x1843 DUP2 PUSH2 0x182F JUMP JUMPDEST DUP3 MSTORE POP POP JUMP JUMPDEST PUSH0 PUSH1 0x20 DUP3 ADD SWAP1 POP PUSH2 0x185C PUSH0 DUP4 ADD DUP5 PUSH2 0x183A JUMP JUMPDEST SWAP3 SWAP2 POP POP JUMP JUMPDEST PUSH0 PUSH1 0x60 DUP4 ADD PUSH0 DUP4 ADD MLOAD DUP5 DUP3 SUB PUSH0 DUP7 ADD MSTORE PUSH2 0x187C DUP3 DUP3 PUSH2 0x143B JUMP JUMPDEST SWAP2 POP POP PUSH1 0x20 DUP4 ADD MLOAD DUP5 DUP3 SUB PUSH1 0x20 DUP7 ADD MSTORE PUSH2 0x1896 DUP3 DUP3 PUSH2 0x143B JUMP JUMPDEST SWAP2 POP POP PUSH1 0x40 DUP4 ADD MLOAD DUP5 DUP3 SUB PUSH1 0x40 DUP7 ADD MSTORE PUSH2 0x18B0 DUP3 DUP3 PUSH2 0x143B JUMP JUMPDEST SWAP2 POP POP DUP1 SWAP2 POP POP SWAP3 SWAP2 POP POP JUMP JUMPDEST PUSH0 PUSH1 0x20 DUP3 ADD SWAP1 POP DUP2 DUP2 SUB PUSH0 DUP4 ADD MSTORE PUSH2 0x18D5 DUP2 DUP5 PUSH2 0x1862 JUMP JUMPDEST SWAP1 POP SWAP3 SWAP2 POP POP JUMP JUMPDEST PUSH0 PUSH1 0x20 DUP3 DUP5 SUB SLT ISZERO PUSH2 0x18F2 JUMPI PUSH2 0x18F1 PUSH2 0x1335 JUMP JUMPDEST JUMPDEST PUSH0 DUP3 ADD CALLDATALOAD PUSH8 0xFFFFFFFFFFFFFFFF DUP2 GT ISZERO PUSH2 0x190F JUMPI PUSH2 0x190E PUSH2 0x1339 JUMP JUMPDEST JUMPDEST PUSH2 0x191B DUP5 DUP3 DUP6 ADD PUSH2 0x16CA JUMP JUMPDEST SWAP2 POP POP SWAP3 SWAP2 POP POP JUMP JUMPDEST PUSH0 DUP3 DUP3 MSTORE PUSH1 0x20 DUP3 ADD SWAP1 POP SWAP3 SWAP2 POP POP JUMP JUMPDEST PUSH0 PUSH2 0x193E DUP3 PUSH2 0x13E9 JUMP JUMPDEST PUSH2 0x1948 DUP2 DUP6 PUSH2 0x1924 JUMP JUMPDEST SWAP4 POP PUSH2 0x1958 DUP2 DUP6 PUSH1 0x20 DUP7 ADD PUSH2 0x1403 JUMP JUMPDEST PUSH2 0x1961 DUP2 PUSH2 0x142B JUMP JUMPDEST DUP5 ADD SWAP2 POP POP SWAP3 SWAP2 POP POP JUMP JUMPDEST PUSH2 0x1975 DUP2 PUSH2 0x1521 JUMP JUMPDEST DUP3 MSTORE POP POP JUMP JUMPDEST PUSH0 PUSH1 0x80 DUP3 ADD SWAP1 POP DUP2 DUP2 SUB PUSH0 DUP4 ADD MSTORE PUSH2 0x1993 DUP2 DUP8 PUSH2 0x1934 JUMP JUMPDEST SWAP1 POP DUP2 DUP2 SUB PUSH1 0x20 DUP4 ADD MSTORE PUSH2 0x19A7 DUP2 DUP7 PUSH2 0x1934 JUMP JUMPDEST SWAP1 POP DUP2 DUP2 SUB PUSH1 0x40 DUP4 ADD MSTORE PUSH2 0x19BB DUP2 DUP6 PUSH2 0x1862 JUMP JUMPDEST SWAP1 POP PUSH2 0x19CA PUSH1 0x60 DUP4 ADD DUP5 PUSH2 0x196C JUMP JUMPDEST SWAP6 SWAP5 POP POP POP POP POP JUMP JUMPDEST PUSH0 PUSH1 0x20 DUP3 ADD SWAP1 POP PUSH2 0x19E6 PUSH0 DUP4 ADD DUP5 PUSH2 0x196C JUMP JUMPDEST SWAP3 SWAP2 POP POP JUMP JUMPDEST PUSH0 PUSH20 0xFFFFFFFFFFFFFFFFFFFFFFFFFFFFFFFFFFFFFFFF DUP3 AND SWAP1 POP SWAP2 SWAP1 POP JUMP JUMPDEST PUSH0 DUP2 SWAP1 POP SWAP2 SWAP1 POP JUMP JUMPDEST PUSH0 PUSH2 0x1A2E PUSH2 0x1A29 PUSH2 0x1A24 DUP5 PUSH2 0x19EC JUMP JUMPDEST PUSH2 0x1A0B JUMP JUMPDEST PUSH2 0x19EC JUMP JUMPDEST SWAP1 POP SWAP2 SWAP1 POP JUMP JUMPDEST PUSH0 PUSH2 0x1A3F DUP3 PUSH2 0x1A14 JUMP JUMPDEST SWAP1 POP SWAP2 SWAP1 POP JUMP JUMPDEST PUSH0 PUSH2 0x1A50 DUP3 PUSH2 0x1A35 JUMP JUMPDEST SWAP1 POP SWAP2 SWAP1 POP JUMP JUMPDEST PUSH2 0x1A60 DUP2 PUSH2 0x1A46 JUMP JUMPDEST DUP3 MSTORE POP POP JUMP JUMPDEST PUSH0 PUSH1 0x20 DUP3 ADD SWAP1 POP PUSH2 0x1A79 PUSH0 DUP4 ADD DUP5 PUSH2 0x1A57 JUMP JUMPDEST SWAP3 SWAP2 POP POP JUMP JUMPDEST PUSH0 PUSH2 0x1A89 DUP3 PUSH2 0x1A35 JUMP JUMPDEST SWAP1 POP SWAP2 SWAP1 POP JUMP JUMPDEST PUSH2 0x1A99 DUP2 PUSH2 0x1A7F JUMP JUMPDEST DUP3 MSTORE POP POP JUMP JUMPDEST PUSH0 PUSH1 0x20 DUP3 ADD SWAP1 POP PUSH2 0x1AB2 PUSH0 DUP4 ADD DUP5 PUSH2 0x1A90 JUMP JUMPDEST SWAP3 SWAP2 POP POP JUMP JUMPDEST PUSH0 DUP2 MLOAD SWAP1 POP SWAP2 SWAP1 POP JUMP JUMPDEST PUSH0 DUP3 DUP3 MSTORE PUSH1 0x20 DUP3 ADD SWAP1 POP SWAP3 SWAP2 POP POP JUMP JUMPDEST PUSH0 DUP2 SWAP1 POP PUSH1 0x20 DUP3 ADD SWAP1 POP SWAP2 SWAP1 POP JUMP JUMPDEST PUSH0 PUSH1 0x80 DUP4 ADD PUSH0 DUP4 ADD MLOAD DUP5 DUP3 SUB PUSH0 DUP7 ADD MSTORE PUSH2 0x1AFB DUP3 DUP3 PUSH2 0x143B JUMP JUMPDEST SWAP2 POP POP PUSH1 0x20 DUP4 ADD MLOAD DUP5 DUP3 SUB PUSH1 0x20 DUP7 ADD MSTORE PUSH2 0x1B15 DUP3 DUP3 PUSH2 0x143B JUMP JUMPDEST SWAP2 POP POP PUSH1 0x40 DUP4 ADD MLOAD DUP5 DUP3 SUB PUSH1 0x40 DUP7 ADD MSTORE PUSH2 0x1B2F DUP3 DUP3 PUSH2 0x1473 JUMP JUMPDEST SWAP2 POP POP PUSH1 0x60 DUP4 ADD MLOAD PUSH2 0x1B44 PUSH1 0x60 DUP7 ADD DUP3 PUSH2 0x1532 JUMP JUMPDEST POP DUP1 SWAP2 POP POP SWAP3 SWAP2 POP POP JUMP JUMPDEST PUSH0 PUSH2 0x1B5A DUP4 DUP4 PUSH2 0x1AE1 JUMP JUMPDEST SWAP1 POP SWAP3 SWAP2 POP POP JUMP JUMPDEST PUSH0 PUSH1 0x20 DUP3 ADD SWAP1 POP SWAP2 SWAP1 POP JUMP JUMPDEST PUSH0 PUSH2 0x1B78 DUP3 PUSH2 0x1AB8 JUMP JUMPDEST PUSH2 0x1B82 DUP2 DUP6 PUSH2 0x1AC2 JUMP JUMPDEST SWAP4 POP DUP4 PUSH1 0x20 DUP3 MUL DUP6 ADD PUSH2 0x1B94 DUP6 PUSH2 0x1AD2 JUMP JUMPDEST DUP1 PUSH0 JUMPDEST DUP6 DUP2 LT ISZERO PUSH2 0x1BCF JUMPI DUP5 DUP5 SUB DUP10 MSTORE DUP2 MLOAD PUSH2 0x1BB0 DUP6 DUP3 PUSH2 0x1B4F JUMP JUMPDEST SWAP5 POP PUSH2 0x1BBB DUP4 PUSH2 0x1B62 JUMP JUMPDEST SWAP3 POP PUSH1 0x20 DUP11 ADD SWAP10 POP POP PUSH1 0x1 DUP2 ADD SWAP1 POP PUSH2 0x1B97 JUMP JUMPDEST POP DUP3 SWAP8 POP DUP8 SWAP6 POP POP POP POP POP POP SWAP3 SWAP2 POP POP JUMP JUMPDEST PUSH0 PUSH1 0x20 DUP3 ADD SWAP1 POP DUP2 DUP2 SUB PUSH0 DUP4 ADD MSTORE PUSH2 0x1BF9 DUP2 DUP5 PUSH2 0x1B6E JUMP JUMPDEST SWAP1 POP SWAP3 SWAP2 POP POP JUMP JUMPDEST PUSH0 PUSH2 0x1C0B DUP3 PUSH2 0x19EC JUMP JUMPDEST SWAP1 POP SWAP2 SWAP1 POP JUMP JUMPDEST PUSH2 0x1C1B DUP2 PUSH2 0x1C01 JUMP JUMPDEST DUP3 MSTORE POP POP JUMP JUMPDEST PUSH0 PUSH1 0x20 DUP3 ADD SWAP1 POP PUSH2 0x1C34 PUSH0 DUP4 ADD DUP5 PUSH2 0x1C12 JUMP JUMPDEST SWAP3 SWAP2 POP POP JUMP JUMPDEST PUSH2 0x1C43 DUP2 PUSH2 0x182F JUMP JUMPDEST DUP2 EQ PUSH2 0x1C4D JUMPI PUSH0 DUP1 REVERT JUMPDEST POP JUMP JUMPDEST PUSH0 DUP2 MLOAD SWAP1 POP PUSH2 0x1C5E DUP2 PUSH2 0x1C3A JUMP JUMPDEST SWAP3 SWAP2 POP POP JUMP JUMPDEST PUSH0 PUSH1 0x20 DUP3 DUP5 SUB SLT ISZERO PUSH2 0x1C79 JUMPI PUSH2 0x1C78 PUSH2 0x1335 JUMP JUMPDEST JUMPDEST PUSH0 PUSH2 0x1C86 DUP5 DUP3 DUP6 ADD PUSH2 0x1C50 JUMP JUMPDEST SWAP2 POP POP SWAP3 SWAP2 POP POP JUMP JUMPDEST PUSH32 0x4F6E6C792061646D696E2063616E206163636573732074686520666561747572 PUSH0 DUP3 ADD MSTORE PUSH32 0x6500000000000000000000000000000000000000000000000000000000000000 PUSH1 0x20 DUP3 ADD MSTORE POP JUMP JUMPDEST PUSH0 PUSH2 0x1CE9 PUSH1 0x21 DUP4 PUSH2 0x1924 JUMP JUMPDEST SWAP2 POP PUSH2 0x1CF4 DUP3 PUSH2 0x1C8F JUMP JUMPDEST PUSH1 0x40 DUP3 ADD SWAP1 POP SWAP2 SWAP1 POP JUMP JUMPDEST PUSH0 PUSH1 0x20 DUP3 ADD SWAP1 POP DUP2 DUP2 SUB PUSH0 DUP4 ADD MSTORE PUSH2 0x1D16 DUP2 PUSH2 0x1CDD JUMP JUMPDEST SWAP1 POP SWAP2 SWAP1 POP JUMP JUMPDEST PUSH32 0x6E616D652063616E6E6F7420626520656D707479000000000000000000000000 PUSH0 DUP3 ADD MSTORE POP JUMP JUMPDEST PUSH0 PUSH2 0x1D51 PUSH1 0x14 DUP4 PUSH2 0x1924 JUMP JUMPDEST SWAP2 POP PUSH2 0x1D5C DUP3 PUSH2 0x1D1D JUMP JUMPDEST PUSH1 0x20 DUP3 ADD SWAP1 POP SWAP2 SWAP1 POP JUMP JUMPDEST PUSH0 PUSH1 0x20 DUP3 ADD SWAP1 POP DUP2 DUP2 SUB PUSH0 DUP4 ADD MSTORE PUSH2 0x1D7E DUP2 PUSH2 0x1D45 JUMP JUMPDEST SWAP1 POP SWAP2 SWAP1 POP JUMP JUMPDEST PUSH32 0x73746174652063616E6E6F7420626520656D7074790000000000000000000000 PUSH0 DUP3 ADD MSTORE POP JUMP JUMPDEST PUSH0 PUSH2 0x1DB9 PUSH1 0x15 DUP4 PUSH2 0x1924 JUMP JUMPDEST SWAP2 POP PUSH2 0x1DC4 DUP3 PUSH2 0x1D85 JUMP JUMPDEST PUSH1 0x20 DUP3 ADD SWAP1 POP SWAP2 SWAP1 POP JUMP JUMPDEST PUSH0 PUSH1 0x20 DUP3 ADD SWAP1 POP DUP2 DUP2 SUB PUSH0 DUP4 ADD MSTORE PUSH2 0x1DE6 DUP2 PUSH2 0x1DAD JUMP JUMPDEST SWAP1 POP SWAP2 SWAP1 POP JUMP JUMPDEST PUSH32 0x737472656574206D75737420626520676976656E000000000000000000000000 PUSH0 DUP3 ADD MSTORE POP JUMP JUMPDEST PUSH0 PUSH2 0x1E21 PUSH1 0x14 DUP4 PUSH2 0x1924 JUMP JUMPDEST SWAP2 POP PUSH2 0x1E2C DUP3 PUSH2 0x1DED JUMP JUMPDEST PUSH1 0x20 DUP3 ADD SWAP1 POP SWAP2 SWAP1 POP JUMP JUMPDEST PUSH0 PUSH1 0x20 DUP3 ADD SWAP1 POP DUP2 DUP2 SUB PUSH0 DUP4 ADD MSTORE PUSH2 0x1E4E DUP2 PUSH2 0x1E15 JUMP JUMPDEST SWAP1 POP SWAP2 SWAP1 POP JUMP JUMPDEST PUSH0 DUP2 SWAP1 POP SWAP2 SWAP1 POP JUMP JUMPDEST PUSH0 DUP2 SWAP1 POP SWAP2 SWAP1 POP JUMP JUMPDEST PUSH0 PUSH2 0x1E81 PUSH2 0x1E7C PUSH2 0x1E77 DUP5 PUSH2 0x1E55 JUMP JUMPDEST PUSH2 0x1A0B JUMP JUMPDEST PUSH2 0x1E5E JUMP JUMPDEST SWAP1 POP SWAP2 SWAP1 POP JUMP JUMPDEST PUSH2 0x1E91 DUP2 PUSH2 0x1E67 JUMP JUMPDEST DUP3 MSTORE POP POP JUMP JUMPDEST PUSH0 PUSH1 0x20 DUP3 ADD SWAP1 POP PUSH2 0x1EAA PUSH0 DUP4 ADD DUP5 PUSH2 0x1E88 JUMP JUMPDEST SWAP3 SWAP2 POP POP JUMP JUMPDEST PUSH0 PUSH2 0x1EC2 PUSH2 0x1EBD DUP5 PUSH2 0x164B JUMP JUMPDEST PUSH2 0x1631 JUMP JUMPDEST SWAP1 POP DUP3 DUP2 MSTORE PUSH1 0x20 DUP2 ADD DUP5 DUP5 DUP5 ADD GT ISZERO PUSH2 0x1EDE JUMPI PUSH2 0x1EDD PUSH2 0x15CF JUMP JUMPDEST JUMPDEST PUSH2 0x1EE9 DUP5 DUP3 DUP6 PUSH2 0x1403 JUMP JUMPDEST POP SWAP4 SWAP3 POP POP POP JUMP JUMPDEST PUSH0 DUP3 PUSH1 0x1F DUP4 ADD SLT PUSH2 0x1F05 JUMPI PUSH2 0x1F04 PUSH2 0x133D JUMP JUMPDEST JUMPDEST DUP2 MLOAD PUSH2 0x1F15 DUP5 DUP3 PUSH1 0x20 DUP7 ADD PUSH2 0x1EB0 JUMP JUMPDEST SWAP2 POP POP SWAP3 SWAP2 POP POP JUMP JUMPDEST PUSH0 PUSH1 0x20 DUP3 DUP5 SUB SLT ISZERO PUSH2 0x1F33 JUMPI PUSH2 0x1F32 PUSH2 0x1335 JUMP JUMPDEST JUMPDEST PUSH0 DUP3 ADD MLOAD PUSH8 0xFFFFFFFFFFFFFFFF DUP2 GT ISZERO PUSH2 0x1F50 JUMPI PUSH2 0x1F4F PUSH2 0x1339 JUMP JUMPDEST JUMPDEST PUSH2 0x1F5C DUP5 DUP3 DUP6 ADD PUSH2 0x1EF1 JUMP JUMPDEST SWAP2 POP POP SWAP3 SWAP2 POP POP JUMP JUMPDEST PUSH0 DUP3 DUP3 MSTORE PUSH1 0x20 DUP3 ADD SWAP1 POP SWAP3 SWAP2 POP POP JUMP JUMPDEST PUSH0 PUSH2 0x1F7F DUP3 PUSH2 0x13E9 JUMP JUMPDEST PUSH2 0x1F89 DUP2 DUP6 PUSH2 0x1F65 JUMP JUMPDEST SWAP4 POP PUSH2 0x1F99 DUP2 DUP6 PUSH1 0x20 DUP7 ADD PUSH2 0x1403 JUMP JUMPDEST PUSH2 0x1FA2 DUP2 PUSH2 0x142B JUMP JUMPDEST DUP5 ADD SWAP2 POP POP SWAP3 SWAP2 POP POP JUMP JUMPDEST PUSH0 DUP2 SWAP1 POP SWAP2 SWAP1 POP JUMP JUMPDEST PUSH0 PUSH2 0x1FD0 PUSH2 0x1FCB PUSH2 0x1FC6 DUP5 PUSH2 0x1FAD JUMP JUMPDEST PUSH2 0x1A0B JUMP JUMPDEST PUSH2 0x1E5E JUMP JUMPDEST SWAP1 POP SWAP2 SWAP1 POP JUMP JUMPDEST PUSH2 0x1FE0 DUP2 PUSH2 0x1FB6 JUMP JUMPDEST DUP3 MSTORE POP POP JUMP JUMPDEST PUSH0 PUSH1 0x60 DUP3 ADD SWAP1 POP DUP2 DUP2 SUB PUSH0 DUP4 ADD MSTORE PUSH2 0x1FFE DUP2 DUP7 PUSH2 0x1F75 JUMP JUMPDEST SWAP1 POP PUSH2 0x200D PUSH1 0x20 DUP4 ADD DUP6 PUSH2 0x1FD7 JUMP JUMPDEST PUSH2 0x201A PUSH1 0x40 DUP4 ADD DUP5 PUSH2 0x1E88 JUMP JUMPDEST SWAP5 SWAP4 POP POP POP POP JUMP JUMPDEST PUSH0 DUP2 SWAP1 POP SWAP3 SWAP2 POP POP JUMP JUMPDEST PUSH0 PUSH2 0x2036 DUP3 PUSH2 0x13E9 JUMP JUMPDEST PUSH2 0x2040 DUP2 DUP6 PUSH2 0x2022 JUMP JUMPDEST SWAP4 POP PUSH2 0x2050 DUP2 DUP6 PUSH1 0x20 DUP7 ADD PUSH2 0x1403 JUMP JUMPDEST DUP1 DUP5 ADD SWAP2 POP POP SWAP3 SWAP2 POP POP JUMP JUMPDEST PUSH32 0x2D00000000000000000000000000000000000000000000000000000000000000 PUSH0 DUP3 ADD MSTORE POP JUMP JUMPDEST PUSH0 PUSH2 0x2090 PUSH1 0x1 DUP4 PUSH2 0x2022 JUMP JUMPDEST SWAP2 POP PUSH2 0x209B DUP3 PUSH2 0x205C JUMP JUMPDEST PUSH1 0x1 DUP3 ADD SWAP1 POP SWAP2 SWAP1 POP JUMP JUMPDEST PUSH0 PUSH2 0x20B1 DUP3 DUP8 PUSH2 0x202C JUMP JUMPDEST SWAP2 POP PUSH2 0x20BD DUP3 DUP7 PUSH2 0x202C JUMP JUMPDEST SWAP2 POP PUSH2 0x20C9 DUP3 DUP6 PUSH2 0x202C JUMP JUMPDEST SWAP2 POP PUSH2 0x20D4 DUP3 PUSH2 0x2084 JUMP JUMPDEST SWAP2 POP PUSH2 0x20E0 DUP3 DUP5 PUSH2 0x202C JUMP JUMPDEST SWAP2 POP DUP2 SWAP1 POP SWAP6 SWAP5 POP POP POP POP POP JUMP JUMPDEST PUSH0 PUSH2 0x20F9 DUP3 DUP5 PUSH2 0x202C JUMP JUMPDEST SWAP2 POP DUP2 SWAP1 POP SWAP3 SWAP2 POP POP JUMP JUMPDEST PUSH32 0x4E487B7100000000000000000000000000000000000000000000000000000000 PUSH0 MSTORE PUSH1 0x22 PUSH1 0x4 MSTORE PUSH1 0x24 PUSH0 REVERT JUMPDEST PUSH0 PUSH1 0x2 DUP3 DIV SWAP1 POP PUSH1 0x1 DUP3 AND DUP1 PUSH2 0x2148 JUMPI PUSH1 0x7F DUP3 AND SWAP2 POP JUMPDEST PUSH1 0x20 DUP3 LT DUP2 SUB PUSH2 0x215B JUMPI PUSH2 0x215A PUSH2 0x2104 JUMP JUMPDEST JUMPDEST POP SWAP2 SWAP1 POP JUMP JUMPDEST PUSH0 DUP2 SWAP1 POP DUP2 PUSH0 MSTORE PUSH1 0x20 PUSH0 KECCAK256 SWAP1 POP SWAP2 SWAP1 POP JUMP JUMPDEST PUSH0 PUSH1 0x20 PUSH1 0x1F DUP4 ADD DIV SWAP1 POP SWAP2 SWAP1 POP JUMP JUMPDEST PUSH0 DUP3 DUP3 SHL SWAP1 POP SWAP3 SWAP2 POP POP JUMP JUMPDEST PUSH0 PUSH1 0x8 DUP4 MUL PUSH2 0x21BD PUSH32 0xFFFFFFFFFFFFFFFFFFFFFFFFFFFFFFFFFFFFFFFFFFFFFFFFFFFFFFFFFFFFFFFF DUP3 PUSH2 0x2182 JUMP JUMPDEST PUSH2 0x21C7 DUP7 DUP4 PUSH2 0x2182 JUMP JUMPDEST SWAP6 POP DUP1 NOT DUP5 AND SWAP4 POP DUP1 DUP7 AND DUP5 OR SWAP3 POP POP POP SWAP4 SWAP3 POP POP POP JUMP JUMPDEST PUSH0 PUSH2 0x21F9 PUSH2 0x21F4 PUSH2 0x21EF DUP5 PUSH2 0x1E5E JUMP JUMPDEST PUSH2 0x1A0B JUMP JUMPDEST PUSH2 0x1E5E JUMP JUMPDEST SWAP1 POP SWAP2 SWAP1 POP JUMP JUMPDEST PUSH0 DUP2 SWAP1 POP SWAP2 SWAP1 POP JUMP JUMPDEST PUSH2 0x2212 DUP4 PUSH2 0x21DF JUMP JUMPDEST PUSH2 0x2226 PUSH2 0x221E DUP3 PUSH2 0x2200 JUMP JUMPDEST DUP5 DUP5 SLOAD PUSH2 0x218E JUMP JUMPDEST DUP3 SSTORE POP POP POP POP JUMP JUMPDEST PUSH0 SWAP1 JUMP JUMPDEST PUSH2 0x223A PUSH2 0x222E JUMP JUMPDEST PUSH2 0x2245 DUP2 DUP5 DUP5 PUSH2 0x2209 JUMP JUMPDEST POP POP POP JUMP JUMPDEST JUMPDEST DUP2 DUP2 LT ISZERO PUSH2 0x2268 JUMPI PUSH2 0x225D PUSH0 DUP3 PUSH2 0x2232 JUMP JUMPDEST PUSH1 0x1 DUP2 ADD SWAP1 POP PUSH2 0x224B JUMP JUMPDEST POP POP JUMP JUMPDEST PUSH1 0x1F DUP3 GT ISZERO PUSH2 0x22AD JUMPI PUSH2 0x227E DUP2 PUSH2 0x2161 JUMP JUMPDEST PUSH2 0x2287 DUP5 PUSH2 0x2173 JUMP JUMPDEST DUP2 ADD PUSH1 0x20 DUP6 LT ISZERO PUSH2 0x2296 JUMPI DUP2 SWAP1 POP JUMPDEST PUSH2 0x22AA PUSH2 0x22A2 DUP6 PUSH2 0x2173 JUMP JUMPDEST DUP4 ADD DUP3 PUSH2 0x224A JUMP JUMPDEST POP POP JUMPDEST POP POP POP JUMP JUMPDEST PUSH0 DUP3 DUP3 SHR SWAP1 POP SWAP3 SWAP2 POP POP JUMP JUMPDEST PUSH0 PUSH2 0x22CD PUSH0 NOT DUP5 PUSH1 0x8 MUL PUSH2 0x22B2 JUMP JUMPDEST NOT DUP1 DUP4 AND SWAP2 POP POP SWAP3 SWAP2 POP POP JUMP JUMPDEST PUSH0 PUSH2 0x22E5 DUP4 DUP4 PUSH2 0x22BE JUMP JUMPDEST SWAP2 POP DUP3 PUSH1 0x2 MUL DUP3 OR SWAP1 POP SWAP3 SWAP2 POP POP JUMP JUMPDEST PUSH2 0x22FE DUP3 PUSH2 0x13E9 JUMP JUMPDEST PUSH8 0xFFFFFFFFFFFFFFFF DUP2 GT ISZERO PUSH2 0x2317 JUMPI PUSH2 0x2316 PUSH2 0x15D3 JUMP JUMPDEST JUMPDEST PUSH2 0x2321 DUP3 SLOAD PUSH2 0x2131 JUMP JUMPDEST PUSH2 0x232C DUP3 DUP3 DUP6 PUSH2 0x226C JUMP JUMPDEST PUSH0 PUSH1 0x20 SWAP1 POP PUSH1 0x1F DUP4 GT PUSH1 0x1 DUP2 EQ PUSH2 0x235D JUMPI PUSH0 DUP5 ISZERO PUSH2 0x234B JUMPI DUP3 DUP8 ADD MLOAD SWAP1 POP JUMPDEST PUSH2 0x2355 DUP6 DUP3 PUSH2 0x22DA JUMP JUMPDEST DUP7 SSTORE POP PUSH2 0x23BC JUMP JUMPDEST PUSH1 0x1F NOT DUP5 AND PUSH2 0x236B DUP7 PUSH2 0x2161 JUMP JUMPDEST PUSH0 JUMPDEST DUP3 DUP2 LT ISZERO PUSH2 0x2392 JUMPI DUP5 DUP10 ADD MLOAD DUP3 SSTORE PUSH1 0x1 DUP3 ADD SWAP2 POP PUSH1 0x20 DUP6 ADD SWAP5 POP PUSH1 0x20 DUP2 ADD SWAP1 POP PUSH2 0x236D JUMP JUMPDEST DUP7 DUP4 LT ISZERO PUSH2 0x23AF JUMPI DUP5 DUP10 ADD MLOAD PUSH2 0x23AB PUSH1 0x1F DUP10 AND DUP3 PUSH2 0x22BE JUMP JUMPDEST DUP4 SSTORE POP JUMPDEST PUSH1 0x1 PUSH1 0x2 DUP9 MUL ADD DUP9 SSTORE POP POP POP JUMPDEST POP POP POP POP POP POP JUMP JUMPDEST PUSH0 PUSH2 0x23CF DUP4 DUP6 PUSH2 0x2022 JUMP JUMPDEST SWAP4 POP PUSH2 0x23DC DUP4 DUP6 DUP5 PUSH2 0x167B JUMP JUMPDEST DUP3 DUP5 ADD SWAP1 POP SWAP4 SWAP3 POP POP POP JUMP JUMPDEST PUSH0 PUSH2 0x23F4 DUP3 DUP5 DUP7 PUSH2 0x23C4 JUMP JUMPDEST SWAP2 POP DUP2 SWAP1 POP SWAP4 SWAP3 POP POP POP JUMP JUMPDEST PUSH32 0x466163696C697479206E6F7420666F756E640000000000000000000000000000 PUSH0 DUP3 ADD MSTORE POP JUMP JUMPDEST PUSH0 PUSH2 0x2434 PUSH1 0x12 DUP4 PUSH2 0x1924 JUMP JUMPDEST SWAP2 POP PUSH2 0x243F DUP3 PUSH2 0x2400 JUMP JUMPDEST PUSH1 0x20 DUP3 ADD SWAP1 POP SWAP2 SWAP1 POP JUMP JUMPDEST PUSH0 PUSH1 0x20 DUP3 ADD SWAP1 POP DUP2 DUP2 SUB PUSH0 DUP4 ADD MSTORE PUSH2 0x2461 DUP2 PUSH2 0x2428 JUMP JUMPDEST SWAP1 POP SWAP2 SWAP1 POP JUMP JUMPDEST PUSH32 0x4E487B7100000000000000000000000000000000000000000000000000000000 PUSH0 MSTORE PUSH1 0x32 PUSH1 0x4 MSTORE PUSH1 0x24 PUSH0 REVERT JUMPDEST PUSH0 DUP2 SLOAD PUSH2 0x24A1 DUP2 PUSH2 0x2131 JUMP JUMPDEST PUSH2 0x24AB DUP2 DUP7 PUSH2 0x2022 JUMP JUMPDEST SWAP5 POP PUSH1 0x1 DUP3 AND PUSH0 DUP2 EQ PUSH2 0x24C5 JUMPI PUSH1 0x1 DUP2 EQ PUSH2 0x24DA JUMPI PUSH2 0x250C JUMP JUMPDEST PUSH1 0xFF NOT DUP4 AND DUP7 MSTORE DUP2 ISZERO ISZERO DUP3 MUL DUP7 ADD SWAP4 POP PUSH2 0x250C JUMP JUMPDEST PUSH2 0x24E3 DUP6 PUSH2 0x2161 JUMP JUMPDEST PUSH0 JUMPDEST DUP4 DUP2 LT ISZERO PUSH2 0x2504 JUMPI DUP2 SLOAD DUP2 DUP10 ADD MSTORE PUSH1 0x1 DUP3 ADD SWAP2 POP PUSH1 0x20 DUP2 ADD SWAP1 POP PUSH2 0x24E5 JUMP JUMPDEST DUP4 DUP9 ADD SWAP6 POP POP POP JUMPDEST POP POP POP SWAP3 SWAP2 POP POP JUMP JUMPDEST PUSH0 PUSH2 0x2520 DUP3 DUP5 PUSH2 0x2495 JUMP JUMPDEST SWAP2 POP DUP2 SWAP1 POP SWAP3 SWAP2 POP POP JUMP INVALID LOG2 PUSH5 0x6970667358 0x22 SLT KECCAK256 0xBA LOG2 0xDE SWAP11 0xC3 0xC8 DELEGATECALL ADDMOD 0xE6 SLOAD 0xE0 COINBASE 0xAE DUP12 0xC6 0xB3 AND 0xB2 0xAF RETURNDATACOPY SWAP8 0xD 0x2E DUP11 PUSH9 0xC0CD6F105DD2DA6473 PUSH16 0x6C634300081600330000000000000000 "
		},
		"gasEstimates": {
			"creation": {
				"codeDepositCost": "1913800",
				"executionCost": "26372",
				"totalCost": "1940172"
			},
			"external": {
				"adminContract()": "infinite",
				"createFacility(string,string,string,string,string,uint8)": "infinite",
				"defaultAccessType()": "2605",
				"doctorContract()": "infinite",
				"editFacility(string)": "infinite",
				"facilityRegister(string)": "infinite",
				"getFacilities()": "infinite",
				"getLocation(string)": "infinite",
				"removeFacility(string)": "infinite"
			},
			"internal": {
				"getFacilty(string memory)": "infinite"
			}
		},
		"methodIdentifiers": {
			"adminContract()": "c05c5e94",
			"createFacility(string,string,string,string,string,uint8)": "65fbb81f",
			"defaultAccessType()": "a1fbbc41",
			"doctorContract()": "f23876e9",
			"editFacility(string)": "33fd637d",
			"facilityRegister(string)": "983a3429",
			"getFacilities()": "fa71bbf9",
			"getLocation(string)": "735a4774",
			"removeFacility(string)": "da40c99d"
		}
	},
	"abi": [
		{
			"anonymous": false,
			"inputs": [
				{
					"indexed": false,
					"internalType": "uint256",
					"name": "patientId",
					"type": "uint256"
				},
				{
					"indexed": false,
					"internalType": "string",
					"name": "message",
					"type": "string"
				}
			],
			"name": "FacilityCreated",
			"type": "event"
		},
		{
			"anonymous": false,
			"inputs": [
				{
					"indexed": false,
					"internalType": "uint256",
					"name": "patientId",
					"type": "uint256"
				},
				{
					"indexed": false,
					"internalType": "string",
					"name": "message",
					"type": "string"
				}
			],
			"name": "FacilityUpdated",
			"type": "event"
		},
		{
			"anonymous": false,
			"inputs": [
				{
					"indexed": false,
					"internalType": "uint256",
					"name": "patientId",
					"type": "uint256"
				},
				{
					"indexed": false,
					"internalType": "string",
					"name": "message",
					"type": "string"
				}
			],
			"name": "PatientRemoved",
			"type": "event"
		},
		{
			"inputs": [],
			"name": "adminContract",
			"outputs": [
				{
					"internalType": "contract Admin",
					"name": "",
					"type": "address"
				}
			],
			"stateMutability": "view",
			"type": "function"
		},
		{
			"inputs": [
				{
					"internalType": "string",
					"name": "facilityName",
					"type": "string"
				},
				{
					"internalType": "string",
					"name": "state",
					"type": "string"
				},
				{
					"internalType": "string",
					"name": "district",
					"type": "string"
				},
				{
					"internalType": "string",
					"name": "street",
					"type": "string"
				},
				{
					"internalType": "string",
					"name": "pincode",
					"type": "string"
				},
				{
					"internalType": "enum Utils.accessType",
					"name": "facilityType",
					"type": "uint8"
				}
			],
			"name": "createFacility",
			"outputs": [
				{
					"internalType": "bool",
					"name": "",
					"type": "bool"
				}
			],
			"stateMutability": "nonpayable",
			"type": "function"
		},
		{
			"inputs": [],
			"name": "defaultAccessType",
			"outputs": [
				{
					"internalType": "enum Utils.accessType",
					"name": "",
					"type": "uint8"
				}
			],
			"stateMutability": "view",
			"type": "function"
		},
		{
			"inputs": [],
			"name": "doctorContract",
			"outputs": [
				{
					"internalType": "contract Doctor",
					"name": "",
					"type": "address"
				}
			],
			"stateMutability": "view",
			"type": "function"
		},
		{
			"inputs": [
				{
					"internalType": "string",
					"name": "facilityId",
					"type": "string"
				}
			],
			"name": "editFacility",
			"outputs": [
				{
					"components": [
						{
							"internalType": "string",
							"name": "facilityName",
							"type": "string"
						},
						{
							"internalType": "string",
							"name": "facilityId",
							"type": "string"
						},
						{
							"components": [
								{
									"internalType": "string",
									"name": "state",
									"type": "string"
								},
								{
									"internalType": "string",
									"name": "district",
									"type": "string"
								},
								{
									"internalType": "string",
									"name": "street",
									"type": "string"
								}
							],
							"internalType": "struct Utils.Location",
							"name": "location",
							"type": "tuple"
						},
						{
							"internalType": "enum Utils.accessType",
							"name": "facilityType",
							"type": "uint8"
						}
					],
					"internalType": "struct Utils.Facility",
					"name": "",
					"type": "tuple"
				}
			],
			"stateMutability": "nonpayable",
			"type": "function"
		},
		{
			"inputs": [
				{
					"internalType": "string",
					"name": "",
					"type": "string"
				}
			],
			"name": "facilityRegister",
			"outputs": [
				{
					"internalType": "string",
					"name": "facilityName",
					"type": "string"
				},
				{
					"internalType": "string",
					"name": "facilityId",
					"type": "string"
				},
				{
					"components": [
						{
							"internalType": "string",
							"name": "state",
							"type": "string"
						},
						{
							"internalType": "string",
							"name": "district",
							"type": "string"
						},
						{
							"internalType": "string",
							"name": "street",
							"type": "string"
						}
					],
					"internalType": "struct Utils.Location",
					"name": "location",
					"type": "tuple"
				},
				{
					"internalType": "enum Utils.accessType",
					"name": "facilityType",
					"type": "uint8"
				}
			],
			"stateMutability": "view",
			"type": "function"
		},
		{
			"inputs": [],
			"name": "getFacilities",
			"outputs": [
				{
					"components": [
						{
							"internalType": "string",
							"name": "facilityName",
							"type": "string"
						},
						{
							"internalType": "string",
							"name": "facilityId",
							"type": "string"
						},
						{
							"components": [
								{
									"internalType": "string",
									"name": "state",
									"type": "string"
								},
								{
									"internalType": "string",
									"name": "district",
									"type": "string"
								},
								{
									"internalType": "string",
									"name": "street",
									"type": "string"
								}
							],
							"internalType": "struct Utils.Location",
							"name": "location",
							"type": "tuple"
						},
						{
							"internalType": "enum Utils.accessType",
							"name": "facilityType",
							"type": "uint8"
						}
					],
					"internalType": "struct Utils.Facility[]",
					"name": "",
					"type": "tuple[]"
				}
			],
			"stateMutability": "view",
			"type": "function"
		},
		{
			"inputs": [
				{
					"internalType": "string",
					"name": "facilityId",
					"type": "string"
				}
			],
			"name": "getLocation",
			"outputs": [
				{
					"components": [
						{
							"internalType": "string",
							"name": "state",
							"type": "string"
						},
						{
							"internalType": "string",
							"name": "district",
							"type": "string"
						},
						{
							"internalType": "string",
							"name": "street",
							"type": "string"
						}
					],
					"internalType": "struct Utils.Location",
					"name": "",
					"type": "tuple"
				}
			],
			"stateMutability": "view",
			"type": "function"
		},
		{
			"inputs": [
				{
					"internalType": "string",
					"name": "facilityId",
					"type": "string"
				}
			],
			"name": "removeFacility",
			"outputs": [
				{
					"internalType": "bool",
					"name": "",
					"type": "bool"
				}
			],
			"stateMutability": "nonpayable",
			"type": "function"
		}
	]
}