{
	"data": {
		"bytecode": {
			"linkReferences": {},
			"object": "608060405234801561000f575f80fd5b505f73ffffffffffffffffffffffffffffffffffffffff163373ffffffffffffffffffffffffffffffffffffffff160361007e576040517f08c379a00000000000000000000000000000000000000000000000000000000081526004016100759061011c565b60405180910390fd5b335f806101000a81548173ffffffffffffffffffffffffffffffffffffffff021916908373ffffffffffffffffffffffffffffffffffffffff16021790555061013a565b5f82825260208201905092915050565b7f4e756c6c2061646472657373206e6f7420616c6c6f77656400000000000000005f82015250565b5f6101066018836100c2565b9150610111826100d2565b602082019050919050565b5f6020820190508181035f830152610133816100fa565b9050919050565b61100c806101475f395ff3fe608060405234801561000f575f80fd5b506004361061007b575f3560e01c80637d3a6796116100595780637d3a6796146100d35780638da5cb5b1461010357806393119a8314610121578063deb5ef09146101535761007b565b8063205286901461007f578063580d80381461009b57806367e57482146100b7575b5f80fd5b61009960048036038101906100949190610890565b610171565b005b6100b560048036038101906100b091906108fc565b61026d565b005b6100d160048036038101906100cc9190610956565b6103af565b005b6100ed60048036038101906100e89190610956565b6104f6565b6040516100fa9190610a57565b60405180910390f35b61010b6105c4565b6040516101189190610ab6565b60405180910390f35b61013b60048036038101906101369190610956565b6105e7565b60405161014a93929190610b26565b60405180910390f35b61015b610693565b6040516101689190610b62565b60405180910390f35b5f8054906101000a900473ffffffffffffffffffffffffffffffffffffffff1673ffffffffffffffffffffffffffffffffffffffff163373ffffffffffffffffffffffffffffffffffffffff16146101fe576040517f08c379a00000000000000000000000000000000000000000000000000000000081526004016101f590610beb565b60405180910390fd5b5f60015f8581526020019081526020015f20905082815f0190816102229190610e03565b508181600101819055507f7a23d4ea641a02a4823233bde9bcc5d021d2b484bf7b00c00e380a421daeb53784848460405161025f93929190610ed2565b60405180910390a150505050565b5f8054906101000a900473ffffffffffffffffffffffffffffffffffffffff1673ffffffffffffffffffffffffffffffffffffffff163373ffffffffffffffffffffffffffffffffffffffff16146102fa576040517f08c379a00000000000000000000000000000000000000000000000000000000081526004016102f190610beb565b60405180910390fd5b604051806060016040528083815260200182815260200160025481525060015f60025481526020019081526020015f205f820151815f01908161033d9190610e03565b506020820151816001015560408201518160020155905050600160025f8282546103679190610f3b565b925050819055507f1b9c66bebc3bb65be580f15bd02ccd659f45a19cba88d30edd490bb57bc4bfe060025483836040516103a393929190610ed2565b60405180910390a15050565b5f8054906101000a900473ffffffffffffffffffffffffffffffffffffffff1673ffffffffffffffffffffffffffffffffffffffff163373ffffffffffffffffffffffffffffffffffffffff161461043c576040517f08c379a000000000000000000000000000000000000000000000000000000000815260040161043390610beb565b60405180910390fd5b600254811115801561044d57505f81115b61048c576040517f08c379a000000000000000000000000000000000000000000000000000000000815260040161048390610fb8565b60405180910390fd5b60015f8281526020019081526020015f205f8082015f6104ac9190610699565b600182015f9055600282015f905550507f411e6cb7f8076d33b96af4eacb36fb6242cf37a51744cf7461dd82288219ec60816040516104eb9190610b62565b60405180910390a150565b6104fe6106d6565b60015f8381526020019081526020015f206040518060600160405290815f8201805461052990610c36565b80601f016020809104026020016040519081016040528092919081815260200182805461055590610c36565b80156105a05780601f10610577576101008083540402835291602001916105a0565b820191905f5260205f20905b81548152906001019060200180831161058357829003601f168201915b50505050508152602001600182015481526020016002820154815250509050919050565b5f8054906101000a900473ffffffffffffffffffffffffffffffffffffffff1681565b6001602052805f5260405f205f91509050805f01805461060690610c36565b80601f016020809104026020016040519081016040528092919081815260200182805461063290610c36565b801561067d5780601f106106545761010080835404028352916020019161067d565b820191905f5260205f20905b81548152906001019060200180831161066057829003601f168201915b5050505050908060010154908060020154905083565b60025481565b5080546106a590610c36565b5f825580601f106106b657506106d3565b601f0160209004905f5260205f20908101906106d291906106f5565b5b50565b6040518060600160405280606081526020015f81526020015f81525090565b5b8082111561070c575f815f9055506001016106f6565b5090565b5f604051905090565b5f80fd5b5f80fd5b5f819050919050565b61073381610721565b811461073d575f80fd5b50565b5f8135905061074e8161072a565b92915050565b5f80fd5b5f80fd5b5f601f19601f8301169050919050565b7f4e487b71000000000000000000000000000000000000000000000000000000005f52604160045260245ffd5b6107a28261075c565b810181811067ffffffffffffffff821117156107c1576107c061076c565b5b80604052505050565b5f6107d3610710565b90506107df8282610799565b919050565b5f67ffffffffffffffff8211156107fe576107fd61076c565b5b6108078261075c565b9050602081019050919050565b828183375f83830152505050565b5f61083461082f846107e4565b6107ca565b9050828152602081018484840111156108505761084f610758565b5b61085b848285610814565b509392505050565b5f82601f83011261087757610876610754565b5b8135610887848260208601610822565b91505092915050565b5f805f606084860312156108a7576108a6610719565b5b5f6108b486828701610740565b935050602084013567ffffffffffffffff8111156108d5576108d461071d565b5b6108e186828701610863565b92505060406108f286828701610740565b9150509250925092565b5f806040838503121561091257610911610719565b5b5f83013567ffffffffffffffff81111561092f5761092e61071d565b5b61093b85828601610863565b925050602061094c85828601610740565b9150509250929050565b5f6020828403121561096b5761096a610719565b5b5f61097884828501610740565b91505092915050565b5f81519050919050565b5f82825260208201905092915050565b5f5b838110156109b857808201518184015260208101905061099d565b5f8484015250505050565b5f6109cd82610981565b6109d7818561098b565b93506109e781856020860161099b565b6109f08161075c565b840191505092915050565b610a0481610721565b82525050565b5f606083015f8301518482035f860152610a2482826109c3565b9150506020830151610a3960208601826109fb565b506040830151610a4c60408601826109fb565b508091505092915050565b5f6020820190508181035f830152610a6f8184610a0a565b905092915050565b5f73ffffffffffffffffffffffffffffffffffffffff82169050919050565b5f610aa082610a77565b9050919050565b610ab081610a96565b82525050565b5f602082019050610ac95f830184610aa7565b92915050565b5f82825260208201905092915050565b5f610ae982610981565b610af38185610acf565b9350610b0381856020860161099b565b610b0c8161075c565b840191505092915050565b610b2081610721565b82525050565b5f6060820190508181035f830152610b3e8186610adf565b9050610b4d6020830185610b17565b610b5a6040830184610b17565b949350505050565b5f602082019050610b755f830184610b17565b92915050565b7f4f6e6c7920746865206f776e65722063616e2063616c6c20746869732066756e5f8201527f6374696f6e000000000000000000000000000000000000000000000000000000602082015250565b5f610bd5602583610acf565b9150610be082610b7b565b604082019050919050565b5f6020820190508181035f830152610c0281610bc9565b9050919050565b7f4e487b71000000000000000000000000000000000000000000000000000000005f52602260045260245ffd5b5f6002820490506001821680610c4d57607f821691505b602082108103610c6057610c5f610c09565b5b50919050565b5f819050815f5260205f209050919050565b5f6020601f8301049050919050565b5f82821b905092915050565b5f60088302610cc27fffffffffffffffffffffffffffffffffffffffffffffffffffffffffffffffff82610c87565b610ccc8683610c87565b95508019841693508086168417925050509392505050565b5f819050919050565b5f610d07610d02610cfd84610721565b610ce4565b610721565b9050919050565b5f819050919050565b610d2083610ced565b610d34610d2c82610d0e565b848454610c93565b825550505050565b5f90565b610d48610d3c565b610d53818484610d17565b505050565b5b81811015610d7657610d6b5f82610d40565b600181019050610d59565b5050565b601f821115610dbb57610d8c81610c66565b610d9584610c78565b81016020851015610da4578190505b610db8610db085610c78565b830182610d58565b50505b505050565b5f82821c905092915050565b5f610ddb5f1984600802610dc0565b1980831691505092915050565b5f610df38383610dcc565b9150826002028217905092915050565b610e0c82610981565b67ffffffffffffffff811115610e2557610e2461076c565b5b610e2f8254610c36565b610e3a828285610d7a565b5f60209050601f831160018114610e6b575f8415610e59578287015190505b610e638582610de8565b865550610eca565b601f198416610e7986610c66565b5f5b82811015610ea057848901518255600182019150602085019450602081019050610e7b565b86831015610ebd5784890151610eb9601f891682610dcc565b8355505b6001600288020188555050505b505050505050565b5f606082019050610ee55f830186610b17565b8181036020830152610ef78185610adf565b9050610f066040830184610b17565b949350505050565b7f4e487b71000000000000000000000000000000000000000000000000000000005f52601160045260245ffd5b5f610f4582610721565b9150610f5083610721565b9250828201905080821115610f6857610f67610f0e565b5b92915050565b7f496e76616c69642070617469656e7420494400000000000000000000000000005f82015250565b5f610fa2601283610acf565b9150610fad82610f6e565b602082019050919050565b5f6020820190508181035f830152610fcf81610f96565b905091905056fea26469706673582212202b04dfa808d3390a59bfadd681cd14a270f2e50b1d74798948271f94b95e276764736f6c63430008160033",
			"opcodes": "PUSH1 0x80 PUSH1 0x40 MSTORE CALLVALUE DUP1 ISZERO PUSH2 0xF JUMPI PUSH0 DUP1 REVERT JUMPDEST POP PUSH0 PUSH20 0xFFFFFFFFFFFFFFFFFFFFFFFFFFFFFFFFFFFFFFFF AND CALLER PUSH20 0xFFFFFFFFFFFFFFFFFFFFFFFFFFFFFFFFFFFFFFFF AND SUB PUSH2 0x7E JUMPI PUSH1 0x40 MLOAD PUSH32 0x8C379A000000000000000000000000000000000000000000000000000000000 DUP2 MSTORE PUSH1 0x4 ADD PUSH2 0x75 SWAP1 PUSH2 0x11C JUMP JUMPDEST PUSH1 0x40 MLOAD DUP1 SWAP2 SUB SWAP1 REVERT JUMPDEST CALLER PUSH0 DUP1 PUSH2 0x100 EXP DUP2 SLOAD DUP2 PUSH20 0xFFFFFFFFFFFFFFFFFFFFFFFFFFFFFFFFFFFFFFFF MUL NOT AND SWAP1 DUP4 PUSH20 0xFFFFFFFFFFFFFFFFFFFFFFFFFFFFFFFFFFFFFFFF AND MUL OR SWAP1 SSTORE POP PUSH2 0x13A JUMP JUMPDEST PUSH0 DUP3 DUP3 MSTORE PUSH1 0x20 DUP3 ADD SWAP1 POP SWAP3 SWAP2 POP POP JUMP JUMPDEST PUSH32 0x4E756C6C2061646472657373206E6F7420616C6C6F7765640000000000000000 PUSH0 DUP3 ADD MSTORE POP JUMP JUMPDEST PUSH0 PUSH2 0x106 PUSH1 0x18 DUP4 PUSH2 0xC2 JUMP JUMPDEST SWAP2 POP PUSH2 0x111 DUP3 PUSH2 0xD2 JUMP JUMPDEST PUSH1 0x20 DUP3 ADD SWAP1 POP SWAP2 SWAP1 POP JUMP JUMPDEST PUSH0 PUSH1 0x20 DUP3 ADD SWAP1 POP DUP2 DUP2 SUB PUSH0 DUP4 ADD MSTORE PUSH2 0x133 DUP2 PUSH2 0xFA JUMP JUMPDEST SWAP1 POP SWAP2 SWAP1 POP JUMP JUMPDEST PUSH2 0x100C DUP1 PUSH2 0x147 PUSH0 CODECOPY PUSH0 RETURN INVALID PUSH1 0x80 PUSH1 0x40 MSTORE CALLVALUE DUP1 ISZERO PUSH2 0xF JUMPI PUSH0 DUP1 REVERT JUMPDEST POP PUSH1 0x4 CALLDATASIZE LT PUSH2 0x7B JUMPI PUSH0 CALLDATALOAD PUSH1 0xE0 SHR DUP1 PUSH4 0x7D3A6796 GT PUSH2 0x59 JUMPI DUP1 PUSH4 0x7D3A6796 EQ PUSH2 0xD3 JUMPI DUP1 PUSH4 0x8DA5CB5B EQ PUSH2 0x103 JUMPI DUP1 PUSH4 0x93119A83 EQ PUSH2 0x121 JUMPI DUP1 PUSH4 0xDEB5EF09 EQ PUSH2 0x153 JUMPI PUSH2 0x7B JUMP JUMPDEST DUP1 PUSH4 0x20528690 EQ PUSH2 0x7F JUMPI DUP1 PUSH4 0x580D8038 EQ PUSH2 0x9B JUMPI DUP1 PUSH4 0x67E57482 EQ PUSH2 0xB7 JUMPI JUMPDEST PUSH0 DUP1 REVERT JUMPDEST PUSH2 0x99 PUSH1 0x4 DUP1 CALLDATASIZE SUB DUP2 ADD SWAP1 PUSH2 0x94 SWAP2 SWAP1 PUSH2 0x890 JUMP JUMPDEST PUSH2 0x171 JUMP JUMPDEST STOP JUMPDEST PUSH2 0xB5 PUSH1 0x4 DUP1 CALLDATASIZE SUB DUP2 ADD SWAP1 PUSH2 0xB0 SWAP2 SWAP1 PUSH2 0x8FC JUMP JUMPDEST PUSH2 0x26D JUMP JUMPDEST STOP JUMPDEST PUSH2 0xD1 PUSH1 0x4 DUP1 CALLDATASIZE SUB DUP2 ADD SWAP1 PUSH2 0xCC SWAP2 SWAP1 PUSH2 0x956 JUMP JUMPDEST PUSH2 0x3AF JUMP JUMPDEST STOP JUMPDEST PUSH2 0xED PUSH1 0x4 DUP1 CALLDATASIZE SUB DUP2 ADD SWAP1 PUSH2 0xE8 SWAP2 SWAP1 PUSH2 0x956 JUMP JUMPDEST PUSH2 0x4F6 JUMP JUMPDEST PUSH1 0x40 MLOAD PUSH2 0xFA SWAP2 SWAP1 PUSH2 0xA57 JUMP JUMPDEST PUSH1 0x40 MLOAD DUP1 SWAP2 SUB SWAP1 RETURN JUMPDEST PUSH2 0x10B PUSH2 0x5C4 JUMP JUMPDEST PUSH1 0x40 MLOAD PUSH2 0x118 SWAP2 SWAP1 PUSH2 0xAB6 JUMP JUMPDEST PUSH1 0x40 MLOAD DUP1 SWAP2 SUB SWAP1 RETURN JUMPDEST PUSH2 0x13B PUSH1 0x4 DUP1 CALLDATASIZE SUB DUP2 ADD SWAP1 PUSH2 0x136 SWAP2 SWAP1 PUSH2 0x956 JUMP JUMPDEST PUSH2 0x5E7 JUMP JUMPDEST PUSH1 0x40 MLOAD PUSH2 0x14A SWAP4 SWAP3 SWAP2 SWAP1 PUSH2 0xB26 JUMP JUMPDEST PUSH1 0x40 MLOAD DUP1 SWAP2 SUB SWAP1 RETURN JUMPDEST PUSH2 0x15B PUSH2 0x693 JUMP JUMPDEST PUSH1 0x40 MLOAD PUSH2 0x168 SWAP2 SWAP1 PUSH2 0xB62 JUMP JUMPDEST PUSH1 0x40 MLOAD DUP1 SWAP2 SUB SWAP1 RETURN JUMPDEST PUSH0 DUP1 SLOAD SWAP1 PUSH2 0x100 EXP SWAP1 DIV PUSH20 0xFFFFFFFFFFFFFFFFFFFFFFFFFFFFFFFFFFFFFFFF AND PUSH20 0xFFFFFFFFFFFFFFFFFFFFFFFFFFFFFFFFFFFFFFFF AND CALLER PUSH20 0xFFFFFFFFFFFFFFFFFFFFFFFFFFFFFFFFFFFFFFFF AND EQ PUSH2 0x1FE JUMPI PUSH1 0x40 MLOAD PUSH32 0x8C379A000000000000000000000000000000000000000000000000000000000 DUP2 MSTORE PUSH1 0x4 ADD PUSH2 0x1F5 SWAP1 PUSH2 0xBEB JUMP JUMPDEST PUSH1 0x40 MLOAD DUP1 SWAP2 SUB SWAP1 REVERT JUMPDEST PUSH0 PUSH1 0x1 PUSH0 DUP6 DUP2 MSTORE PUSH1 0x20 ADD SWAP1 DUP2 MSTORE PUSH1 0x20 ADD PUSH0 KECCAK256 SWAP1 POP DUP3 DUP2 PUSH0 ADD SWAP1 DUP2 PUSH2 0x222 SWAP2 SWAP1 PUSH2 0xE03 JUMP JUMPDEST POP DUP2 DUP2 PUSH1 0x1 ADD DUP2 SWAP1 SSTORE POP PUSH32 0x7A23D4EA641A02A4823233BDE9BCC5D021D2B484BF7B00C00E380A421DAEB537 DUP5 DUP5 DUP5 PUSH1 0x40 MLOAD PUSH2 0x25F SWAP4 SWAP3 SWAP2 SWAP1 PUSH2 0xED2 JUMP JUMPDEST PUSH1 0x40 MLOAD DUP1 SWAP2 SUB SWAP1 LOG1 POP POP POP POP JUMP JUMPDEST PUSH0 DUP1 SLOAD SWAP1 PUSH2 0x100 EXP SWAP1 DIV PUSH20 0xFFFFFFFFFFFFFFFFFFFFFFFFFFFFFFFFFFFFFFFF AND PUSH20 0xFFFFFFFFFFFFFFFFFFFFFFFFFFFFFFFFFFFFFFFF AND CALLER PUSH20 0xFFFFFFFFFFFFFFFFFFFFFFFFFFFFFFFFFFFFFFFF AND EQ PUSH2 0x2FA JUMPI PUSH1 0x40 MLOAD PUSH32 0x8C379A000000000000000000000000000000000000000000000000000000000 DUP2 MSTORE PUSH1 0x4 ADD PUSH2 0x2F1 SWAP1 PUSH2 0xBEB JUMP JUMPDEST PUSH1 0x40 MLOAD DUP1 SWAP2 SUB SWAP1 REVERT JUMPDEST PUSH1 0x40 MLOAD DUP1 PUSH1 0x60 ADD PUSH1 0x40 MSTORE DUP1 DUP4 DUP2 MSTORE PUSH1 0x20 ADD DUP3 DUP2 MSTORE PUSH1 0x20 ADD PUSH1 0x2 SLOAD DUP2 MSTORE POP PUSH1 0x1 PUSH0 PUSH1 0x2 SLOAD DUP2 MSTORE PUSH1 0x20 ADD SWAP1 DUP2 MSTORE PUSH1 0x20 ADD PUSH0 KECCAK256 PUSH0 DUP3 ADD MLOAD DUP2 PUSH0 ADD SWAP1 DUP2 PUSH2 0x33D SWAP2 SWAP1 PUSH2 0xE03 JUMP JUMPDEST POP PUSH1 0x20 DUP3 ADD MLOAD DUP2 PUSH1 0x1 ADD SSTORE PUSH1 0x40 DUP3 ADD MLOAD DUP2 PUSH1 0x2 ADD SSTORE SWAP1 POP POP PUSH1 0x1 PUSH1 0x2 PUSH0 DUP3 DUP3 SLOAD PUSH2 0x367 SWAP2 SWAP1 PUSH2 0xF3B JUMP JUMPDEST SWAP3 POP POP DUP2 SWAP1 SSTORE POP PUSH32 0x1B9C66BEBC3BB65BE580F15BD02CCD659F45A19CBA88D30EDD490BB57BC4BFE0 PUSH1 0x2 SLOAD DUP4 DUP4 PUSH1 0x40 MLOAD PUSH2 0x3A3 SWAP4 SWAP3 SWAP2 SWAP1 PUSH2 0xED2 JUMP JUMPDEST PUSH1 0x40 MLOAD DUP1 SWAP2 SUB SWAP1 LOG1 POP POP JUMP JUMPDEST PUSH0 DUP1 SLOAD SWAP1 PUSH2 0x100 EXP SWAP1 DIV PUSH20 0xFFFFFFFFFFFFFFFFFFFFFFFFFFFFFFFFFFFFFFFF AND PUSH20 0xFFFFFFFFFFFFFFFFFFFFFFFFFFFFFFFFFFFFFFFF AND CALLER PUSH20 0xFFFFFFFFFFFFFFFFFFFFFFFFFFFFFFFFFFFFFFFF AND EQ PUSH2 0x43C JUMPI PUSH1 0x40 MLOAD PUSH32 0x8C379A000000000000000000000000000000000000000000000000000000000 DUP2 MSTORE PUSH1 0x4 ADD PUSH2 0x433 SWAP1 PUSH2 0xBEB JUMP JUMPDEST PUSH1 0x40 MLOAD DUP1 SWAP2 SUB SWAP1 REVERT JUMPDEST PUSH1 0x2 SLOAD DUP2 GT ISZERO DUP1 ISZERO PUSH2 0x44D JUMPI POP PUSH0 DUP2 GT JUMPDEST PUSH2 0x48C JUMPI PUSH1 0x40 MLOAD PUSH32 0x8C379A000000000000000000000000000000000000000000000000000000000 DUP2 MSTORE PUSH1 0x4 ADD PUSH2 0x483 SWAP1 PUSH2 0xFB8 JUMP JUMPDEST PUSH1 0x40 MLOAD DUP1 SWAP2 SUB SWAP1 REVERT JUMPDEST PUSH1 0x1 PUSH0 DUP3 DUP2 MSTORE PUSH1 0x20 ADD SWAP1 DUP2 MSTORE PUSH1 0x20 ADD PUSH0 KECCAK256 PUSH0 DUP1 DUP3 ADD PUSH0 PUSH2 0x4AC SWAP2 SWAP1 PUSH2 0x699 JUMP JUMPDEST PUSH1 0x1 DUP3 ADD PUSH0 SWAP1 SSTORE PUSH1 0x2 DUP3 ADD PUSH0 SWAP1 SSTORE POP POP PUSH32 0x411E6CB7F8076D33B96AF4EACB36FB6242CF37A51744CF7461DD82288219EC60 DUP2 PUSH1 0x40 MLOAD PUSH2 0x4EB SWAP2 SWAP1 PUSH2 0xB62 JUMP JUMPDEST PUSH1 0x40 MLOAD DUP1 SWAP2 SUB SWAP1 LOG1 POP JUMP JUMPDEST PUSH2 0x4FE PUSH2 0x6D6 JUMP JUMPDEST PUSH1 0x1 PUSH0 DUP4 DUP2 MSTORE PUSH1 0x20 ADD SWAP1 DUP2 MSTORE PUSH1 0x20 ADD PUSH0 KECCAK256 PUSH1 0x40 MLOAD DUP1 PUSH1 0x60 ADD PUSH1 0x40 MSTORE SWAP1 DUP2 PUSH0 DUP3 ADD DUP1 SLOAD PUSH2 0x529 SWAP1 PUSH2 0xC36 JUMP JUMPDEST DUP1 PUSH1 0x1F ADD PUSH1 0x20 DUP1 SWAP2 DIV MUL PUSH1 0x20 ADD PUSH1 0x40 MLOAD SWAP1 DUP2 ADD PUSH1 0x40 MSTORE DUP1 SWAP3 SWAP2 SWAP1 DUP2 DUP2 MSTORE PUSH1 0x20 ADD DUP3 DUP1 SLOAD PUSH2 0x555 SWAP1 PUSH2 0xC36 JUMP JUMPDEST DUP1 ISZERO PUSH2 0x5A0 JUMPI DUP1 PUSH1 0x1F LT PUSH2 0x577 JUMPI PUSH2 0x100 DUP1 DUP4 SLOAD DIV MUL DUP4 MSTORE SWAP2 PUSH1 0x20 ADD SWAP2 PUSH2 0x5A0 JUMP JUMPDEST DUP3 ADD SWAP2 SWAP1 PUSH0 MSTORE PUSH1 0x20 PUSH0 KECCAK256 SWAP1 JUMPDEST DUP2 SLOAD DUP2 MSTORE SWAP1 PUSH1 0x1 ADD SWAP1 PUSH1 0x20 ADD DUP1 DUP4 GT PUSH2 0x583 JUMPI DUP3 SWAP1 SUB PUSH1 0x1F AND DUP3 ADD SWAP2 JUMPDEST POP POP POP POP POP DUP2 MSTORE PUSH1 0x20 ADD PUSH1 0x1 DUP3 ADD SLOAD DUP2 MSTORE PUSH1 0x20 ADD PUSH1 0x2 DUP3 ADD SLOAD DUP2 MSTORE POP POP SWAP1 POP SWAP2 SWAP1 POP JUMP JUMPDEST PUSH0 DUP1 SLOAD SWAP1 PUSH2 0x100 EXP SWAP1 DIV PUSH20 0xFFFFFFFFFFFFFFFFFFFFFFFFFFFFFFFFFFFFFFFF AND DUP2 JUMP JUMPDEST PUSH1 0x1 PUSH1 0x20 MSTORE DUP1 PUSH0 MSTORE PUSH1 0x40 PUSH0 KECCAK256 PUSH0 SWAP2 POP SWAP1 POP DUP1 PUSH0 ADD DUP1 SLOAD PUSH2 0x606 SWAP1 PUSH2 0xC36 JUMP JUMPDEST DUP1 PUSH1 0x1F ADD PUSH1 0x20 DUP1 SWAP2 DIV MUL PUSH1 0x20 ADD PUSH1 0x40 MLOAD SWAP1 DUP2 ADD PUSH1 0x40 MSTORE DUP1 SWAP3 SWAP2 SWAP1 DUP2 DUP2 MSTORE PUSH1 0x20 ADD DUP3 DUP1 SLOAD PUSH2 0x632 SWAP1 PUSH2 0xC36 JUMP JUMPDEST DUP1 ISZERO PUSH2 0x67D JUMPI DUP1 PUSH1 0x1F LT PUSH2 0x654 JUMPI PUSH2 0x100 DUP1 DUP4 SLOAD DIV MUL DUP4 MSTORE SWAP2 PUSH1 0x20 ADD SWAP2 PUSH2 0x67D JUMP JUMPDEST DUP3 ADD SWAP2 SWAP1 PUSH0 MSTORE PUSH1 0x20 PUSH0 KECCAK256 SWAP1 JUMPDEST DUP2 SLOAD DUP2 MSTORE SWAP1 PUSH1 0x1 ADD SWAP1 PUSH1 0x20 ADD DUP1 DUP4 GT PUSH2 0x660 JUMPI DUP3 SWAP1 SUB PUSH1 0x1F AND DUP3 ADD SWAP2 JUMPDEST POP POP POP POP POP SWAP1 DUP1 PUSH1 0x1 ADD SLOAD SWAP1 DUP1 PUSH1 0x2 ADD SLOAD SWAP1 POP DUP4 JUMP JUMPDEST PUSH1 0x2 SLOAD DUP2 JUMP JUMPDEST POP DUP1 SLOAD PUSH2 0x6A5 SWAP1 PUSH2 0xC36 JUMP JUMPDEST PUSH0 DUP3 SSTORE DUP1 PUSH1 0x1F LT PUSH2 0x6B6 JUMPI POP PUSH2 0x6D3 JUMP JUMPDEST PUSH1 0x1F ADD PUSH1 0x20 SWAP1 DIV SWAP1 PUSH0 MSTORE PUSH1 0x20 PUSH0 KECCAK256 SWAP1 DUP2 ADD SWAP1 PUSH2 0x6D2 SWAP2 SWAP1 PUSH2 0x6F5 JUMP JUMPDEST JUMPDEST POP JUMP JUMPDEST PUSH1 0x40 MLOAD DUP1 PUSH1 0x60 ADD PUSH1 0x40 MSTORE DUP1 PUSH1 0x60 DUP2 MSTORE PUSH1 0x20 ADD PUSH0 DUP2 MSTORE PUSH1 0x20 ADD PUSH0 DUP2 MSTORE POP SWAP1 JUMP JUMPDEST JUMPDEST DUP1 DUP3 GT ISZERO PUSH2 0x70C JUMPI PUSH0 DUP2 PUSH0 SWAP1 SSTORE POP PUSH1 0x1 ADD PUSH2 0x6F6 JUMP JUMPDEST POP SWAP1 JUMP JUMPDEST PUSH0 PUSH1 0x40 MLOAD SWAP1 POP SWAP1 JUMP JUMPDEST PUSH0 DUP1 REVERT JUMPDEST PUSH0 DUP1 REVERT JUMPDEST PUSH0 DUP2 SWAP1 POP SWAP2 SWAP1 POP JUMP JUMPDEST PUSH2 0x733 DUP2 PUSH2 0x721 JUMP JUMPDEST DUP2 EQ PUSH2 0x73D JUMPI PUSH0 DUP1 REVERT JUMPDEST POP JUMP JUMPDEST PUSH0 DUP2 CALLDATALOAD SWAP1 POP PUSH2 0x74E DUP2 PUSH2 0x72A JUMP JUMPDEST SWAP3 SWAP2 POP POP JUMP JUMPDEST PUSH0 DUP1 REVERT JUMPDEST PUSH0 DUP1 REVERT JUMPDEST PUSH0 PUSH1 0x1F NOT PUSH1 0x1F DUP4 ADD AND SWAP1 POP SWAP2 SWAP1 POP JUMP JUMPDEST PUSH32 0x4E487B7100000000000000000000000000000000000000000000000000000000 PUSH0 MSTORE PUSH1 0x41 PUSH1 0x4 MSTORE PUSH1 0x24 PUSH0 REVERT JUMPDEST PUSH2 0x7A2 DUP3 PUSH2 0x75C JUMP JUMPDEST DUP2 ADD DUP2 DUP2 LT PUSH8 0xFFFFFFFFFFFFFFFF DUP3 GT OR ISZERO PUSH2 0x7C1 JUMPI PUSH2 0x7C0 PUSH2 0x76C JUMP JUMPDEST JUMPDEST DUP1 PUSH1 0x40 MSTORE POP POP POP JUMP JUMPDEST PUSH0 PUSH2 0x7D3 PUSH2 0x710 JUMP JUMPDEST SWAP1 POP PUSH2 0x7DF DUP3 DUP3 PUSH2 0x799 JUMP JUMPDEST SWAP2 SWAP1 POP JUMP JUMPDEST PUSH0 PUSH8 0xFFFFFFFFFFFFFFFF DUP3 GT ISZERO PUSH2 0x7FE JUMPI PUSH2 0x7FD PUSH2 0x76C JUMP JUMPDEST JUMPDEST PUSH2 0x807 DUP3 PUSH2 0x75C JUMP JUMPDEST SWAP1 POP PUSH1 0x20 DUP2 ADD SWAP1 POP SWAP2 SWAP1 POP JUMP JUMPDEST DUP3 DUP2 DUP4 CALLDATACOPY PUSH0 DUP4 DUP4 ADD MSTORE POP POP POP JUMP JUMPDEST PUSH0 PUSH2 0x834 PUSH2 0x82F DUP5 PUSH2 0x7E4 JUMP JUMPDEST PUSH2 0x7CA JUMP JUMPDEST SWAP1 POP DUP3 DUP2 MSTORE PUSH1 0x20 DUP2 ADD DUP5 DUP5 DUP5 ADD GT ISZERO PUSH2 0x850 JUMPI PUSH2 0x84F PUSH2 0x758 JUMP JUMPDEST JUMPDEST PUSH2 0x85B DUP5 DUP3 DUP6 PUSH2 0x814 JUMP JUMPDEST POP SWAP4 SWAP3 POP POP POP JUMP JUMPDEST PUSH0 DUP3 PUSH1 0x1F DUP4 ADD SLT PUSH2 0x877 JUMPI PUSH2 0x876 PUSH2 0x754 JUMP JUMPDEST JUMPDEST DUP2 CALLDATALOAD PUSH2 0x887 DUP5 DUP3 PUSH1 0x20 DUP7 ADD PUSH2 0x822 JUMP JUMPDEST SWAP2 POP POP SWAP3 SWAP2 POP POP JUMP JUMPDEST PUSH0 DUP1 PUSH0 PUSH1 0x60 DUP5 DUP7 SUB SLT ISZERO PUSH2 0x8A7 JUMPI PUSH2 0x8A6 PUSH2 0x719 JUMP JUMPDEST JUMPDEST PUSH0 PUSH2 0x8B4 DUP7 DUP3 DUP8 ADD PUSH2 0x740 JUMP JUMPDEST SWAP4 POP POP PUSH1 0x20 DUP5 ADD CALLDATALOAD PUSH8 0xFFFFFFFFFFFFFFFF DUP2 GT ISZERO PUSH2 0x8D5 JUMPI PUSH2 0x8D4 PUSH2 0x71D JUMP JUMPDEST JUMPDEST PUSH2 0x8E1 DUP7 DUP3 DUP8 ADD PUSH2 0x863 JUMP JUMPDEST SWAP3 POP POP PUSH1 0x40 PUSH2 0x8F2 DUP7 DUP3 DUP8 ADD PUSH2 0x740 JUMP JUMPDEST SWAP2 POP POP SWAP3 POP SWAP3 POP SWAP3 JUMP JUMPDEST PUSH0 DUP1 PUSH1 0x40 DUP4 DUP6 SUB SLT ISZERO PUSH2 0x912 JUMPI PUSH2 0x911 PUSH2 0x719 JUMP JUMPDEST JUMPDEST PUSH0 DUP4 ADD CALLDATALOAD PUSH8 0xFFFFFFFFFFFFFFFF DUP2 GT ISZERO PUSH2 0x92F JUMPI PUSH2 0x92E PUSH2 0x71D JUMP JUMPDEST JUMPDEST PUSH2 0x93B DUP6 DUP3 DUP7 ADD PUSH2 0x863 JUMP JUMPDEST SWAP3 POP POP PUSH1 0x20 PUSH2 0x94C DUP6 DUP3 DUP7 ADD PUSH2 0x740 JUMP JUMPDEST SWAP2 POP POP SWAP3 POP SWAP3 SWAP1 POP JUMP JUMPDEST PUSH0 PUSH1 0x20 DUP3 DUP5 SUB SLT ISZERO PUSH2 0x96B JUMPI PUSH2 0x96A PUSH2 0x719 JUMP JUMPDEST JUMPDEST PUSH0 PUSH2 0x978 DUP5 DUP3 DUP6 ADD PUSH2 0x740 JUMP JUMPDEST SWAP2 POP POP SWAP3 SWAP2 POP POP JUMP JUMPDEST PUSH0 DUP2 MLOAD SWAP1 POP SWAP2 SWAP1 POP JUMP JUMPDEST PUSH0 DUP3 DUP3 MSTORE PUSH1 0x20 DUP3 ADD SWAP1 POP SWAP3 SWAP2 POP POP JUMP JUMPDEST PUSH0 JUMPDEST DUP4 DUP2 LT ISZERO PUSH2 0x9B8 JUMPI DUP1 DUP3 ADD MLOAD DUP2 DUP5 ADD MSTORE PUSH1 0x20 DUP2 ADD SWAP1 POP PUSH2 0x99D JUMP JUMPDEST PUSH0 DUP5 DUP5 ADD MSTORE POP POP POP POP JUMP JUMPDEST PUSH0 PUSH2 0x9CD DUP3 PUSH2 0x981 JUMP JUMPDEST PUSH2 0x9D7 DUP2 DUP6 PUSH2 0x98B JUMP JUMPDEST SWAP4 POP PUSH2 0x9E7 DUP2 DUP6 PUSH1 0x20 DUP7 ADD PUSH2 0x99B JUMP JUMPDEST PUSH2 0x9F0 DUP2 PUSH2 0x75C JUMP JUMPDEST DUP5 ADD SWAP2 POP POP SWAP3 SWAP2 POP POP JUMP JUMPDEST PUSH2 0xA04 DUP2 PUSH2 0x721 JUMP JUMPDEST DUP3 MSTORE POP POP JUMP JUMPDEST PUSH0 PUSH1 0x60 DUP4 ADD PUSH0 DUP4 ADD MLOAD DUP5 DUP3 SUB PUSH0 DUP7 ADD MSTORE PUSH2 0xA24 DUP3 DUP3 PUSH2 0x9C3 JUMP JUMPDEST SWAP2 POP POP PUSH1 0x20 DUP4 ADD MLOAD PUSH2 0xA39 PUSH1 0x20 DUP7 ADD DUP3 PUSH2 0x9FB JUMP JUMPDEST POP PUSH1 0x40 DUP4 ADD MLOAD PUSH2 0xA4C PUSH1 0x40 DUP7 ADD DUP3 PUSH2 0x9FB JUMP JUMPDEST POP DUP1 SWAP2 POP POP SWAP3 SWAP2 POP POP JUMP JUMPDEST PUSH0 PUSH1 0x20 DUP3 ADD SWAP1 POP DUP2 DUP2 SUB PUSH0 DUP4 ADD MSTORE PUSH2 0xA6F DUP2 DUP5 PUSH2 0xA0A JUMP JUMPDEST SWAP1 POP SWAP3 SWAP2 POP POP JUMP JUMPDEST PUSH0 PUSH20 0xFFFFFFFFFFFFFFFFFFFFFFFFFFFFFFFFFFFFFFFF DUP3 AND SWAP1 POP SWAP2 SWAP1 POP JUMP JUMPDEST PUSH0 PUSH2 0xAA0 DUP3 PUSH2 0xA77 JUMP JUMPDEST SWAP1 POP SWAP2 SWAP1 POP JUMP JUMPDEST PUSH2 0xAB0 DUP2 PUSH2 0xA96 JUMP JUMPDEST DUP3 MSTORE POP POP JUMP JUMPDEST PUSH0 PUSH1 0x20 DUP3 ADD SWAP1 POP PUSH2 0xAC9 PUSH0 DUP4 ADD DUP5 PUSH2 0xAA7 JUMP JUMPDEST SWAP3 SWAP2 POP POP JUMP JUMPDEST PUSH0 DUP3 DUP3 MSTORE PUSH1 0x20 DUP3 ADD SWAP1 POP SWAP3 SWAP2 POP POP JUMP JUMPDEST PUSH0 PUSH2 0xAE9 DUP3 PUSH2 0x981 JUMP JUMPDEST PUSH2 0xAF3 DUP2 DUP6 PUSH2 0xACF JUMP JUMPDEST SWAP4 POP PUSH2 0xB03 DUP2 DUP6 PUSH1 0x20 DUP7 ADD PUSH2 0x99B JUMP JUMPDEST PUSH2 0xB0C DUP2 PUSH2 0x75C JUMP JUMPDEST DUP5 ADD SWAP2 POP POP SWAP3 SWAP2 POP POP JUMP JUMPDEST PUSH2 0xB20 DUP2 PUSH2 0x721 JUMP JUMPDEST DUP3 MSTORE POP POP JUMP JUMPDEST PUSH0 PUSH1 0x60 DUP3 ADD SWAP1 POP DUP2 DUP2 SUB PUSH0 DUP4 ADD MSTORE PUSH2 0xB3E DUP2 DUP7 PUSH2 0xADF JUMP JUMPDEST SWAP1 POP PUSH2 0xB4D PUSH1 0x20 DUP4 ADD DUP6 PUSH2 0xB17 JUMP JUMPDEST PUSH2 0xB5A PUSH1 0x40 DUP4 ADD DUP5 PUSH2 0xB17 JUMP JUMPDEST SWAP5 SWAP4 POP POP POP POP JUMP JUMPDEST PUSH0 PUSH1 0x20 DUP3 ADD SWAP1 POP PUSH2 0xB75 PUSH0 DUP4 ADD DUP5 PUSH2 0xB17 JUMP JUMPDEST SWAP3 SWAP2 POP POP JUMP JUMPDEST PUSH32 0x4F6E6C7920746865206F776E65722063616E2063616C6C20746869732066756E PUSH0 DUP3 ADD MSTORE PUSH32 0x6374696F6E000000000000000000000000000000000000000000000000000000 PUSH1 0x20 DUP3 ADD MSTORE POP JUMP JUMPDEST PUSH0 PUSH2 0xBD5 PUSH1 0x25 DUP4 PUSH2 0xACF JUMP JUMPDEST SWAP2 POP PUSH2 0xBE0 DUP3 PUSH2 0xB7B JUMP JUMPDEST PUSH1 0x40 DUP3 ADD SWAP1 POP SWAP2 SWAP1 POP JUMP JUMPDEST PUSH0 PUSH1 0x20 DUP3 ADD SWAP1 POP DUP2 DUP2 SUB PUSH0 DUP4 ADD MSTORE PUSH2 0xC02 DUP2 PUSH2 0xBC9 JUMP JUMPDEST SWAP1 POP SWAP2 SWAP1 POP JUMP JUMPDEST PUSH32 0x4E487B7100000000000000000000000000000000000000000000000000000000 PUSH0 MSTORE PUSH1 0x22 PUSH1 0x4 MSTORE PUSH1 0x24 PUSH0 REVERT JUMPDEST PUSH0 PUSH1 0x2 DUP3 DIV SWAP1 POP PUSH1 0x1 DUP3 AND DUP1 PUSH2 0xC4D JUMPI PUSH1 0x7F DUP3 AND SWAP2 POP JUMPDEST PUSH1 0x20 DUP3 LT DUP2 SUB PUSH2 0xC60 JUMPI PUSH2 0xC5F PUSH2 0xC09 JUMP JUMPDEST JUMPDEST POP SWAP2 SWAP1 POP JUMP JUMPDEST PUSH0 DUP2 SWAP1 POP DUP2 PUSH0 MSTORE PUSH1 0x20 PUSH0 KECCAK256 SWAP1 POP SWAP2 SWAP1 POP JUMP JUMPDEST PUSH0 PUSH1 0x20 PUSH1 0x1F DUP4 ADD DIV SWAP1 POP SWAP2 SWAP1 POP JUMP JUMPDEST PUSH0 DUP3 DUP3 SHL SWAP1 POP SWAP3 SWAP2 POP POP JUMP JUMPDEST PUSH0 PUSH1 0x8 DUP4 MUL PUSH2 0xCC2 PUSH32 0xFFFFFFFFFFFFFFFFFFFFFFFFFFFFFFFFFFFFFFFFFFFFFFFFFFFFFFFFFFFFFFFF DUP3 PUSH2 0xC87 JUMP JUMPDEST PUSH2 0xCCC DUP7 DUP4 PUSH2 0xC87 JUMP JUMPDEST SWAP6 POP DUP1 NOT DUP5 AND SWAP4 POP DUP1 DUP7 AND DUP5 OR SWAP3 POP POP POP SWAP4 SWAP3 POP POP POP JUMP JUMPDEST PUSH0 DUP2 SWAP1 POP SWAP2 SWAP1 POP JUMP JUMPDEST PUSH0 PUSH2 0xD07 PUSH2 0xD02 PUSH2 0xCFD DUP5 PUSH2 0x721 JUMP JUMPDEST PUSH2 0xCE4 JUMP JUMPDEST PUSH2 0x721 JUMP JUMPDEST SWAP1 POP SWAP2 SWAP1 POP JUMP JUMPDEST PUSH0 DUP2 SWAP1 POP SWAP2 SWAP1 POP JUMP JUMPDEST PUSH2 0xD20 DUP4 PUSH2 0xCED JUMP JUMPDEST PUSH2 0xD34 PUSH2 0xD2C DUP3 PUSH2 0xD0E JUMP JUMPDEST DUP5 DUP5 SLOAD PUSH2 0xC93 JUMP JUMPDEST DUP3 SSTORE POP POP POP POP JUMP JUMPDEST PUSH0 SWAP1 JUMP JUMPDEST PUSH2 0xD48 PUSH2 0xD3C JUMP JUMPDEST PUSH2 0xD53 DUP2 DUP5 DUP5 PUSH2 0xD17 JUMP JUMPDEST POP POP POP JUMP JUMPDEST JUMPDEST DUP2 DUP2 LT ISZERO PUSH2 0xD76 JUMPI PUSH2 0xD6B PUSH0 DUP3 PUSH2 0xD40 JUMP JUMPDEST PUSH1 0x1 DUP2 ADD SWAP1 POP PUSH2 0xD59 JUMP JUMPDEST POP POP JUMP JUMPDEST PUSH1 0x1F DUP3 GT ISZERO PUSH2 0xDBB JUMPI PUSH2 0xD8C DUP2 PUSH2 0xC66 JUMP JUMPDEST PUSH2 0xD95 DUP5 PUSH2 0xC78 JUMP JUMPDEST DUP2 ADD PUSH1 0x20 DUP6 LT ISZERO PUSH2 0xDA4 JUMPI DUP2 SWAP1 POP JUMPDEST PUSH2 0xDB8 PUSH2 0xDB0 DUP6 PUSH2 0xC78 JUMP JUMPDEST DUP4 ADD DUP3 PUSH2 0xD58 JUMP JUMPDEST POP POP JUMPDEST POP POP POP JUMP JUMPDEST PUSH0 DUP3 DUP3 SHR SWAP1 POP SWAP3 SWAP2 POP POP JUMP JUMPDEST PUSH0 PUSH2 0xDDB PUSH0 NOT DUP5 PUSH1 0x8 MUL PUSH2 0xDC0 JUMP JUMPDEST NOT DUP1 DUP4 AND SWAP2 POP POP SWAP3 SWAP2 POP POP JUMP JUMPDEST PUSH0 PUSH2 0xDF3 DUP4 DUP4 PUSH2 0xDCC JUMP JUMPDEST SWAP2 POP DUP3 PUSH1 0x2 MUL DUP3 OR SWAP1 POP SWAP3 SWAP2 POP POP JUMP JUMPDEST PUSH2 0xE0C DUP3 PUSH2 0x981 JUMP JUMPDEST PUSH8 0xFFFFFFFFFFFFFFFF DUP2 GT ISZERO PUSH2 0xE25 JUMPI PUSH2 0xE24 PUSH2 0x76C JUMP JUMPDEST JUMPDEST PUSH2 0xE2F DUP3 SLOAD PUSH2 0xC36 JUMP JUMPDEST PUSH2 0xE3A DUP3 DUP3 DUP6 PUSH2 0xD7A JUMP JUMPDEST PUSH0 PUSH1 0x20 SWAP1 POP PUSH1 0x1F DUP4 GT PUSH1 0x1 DUP2 EQ PUSH2 0xE6B JUMPI PUSH0 DUP5 ISZERO PUSH2 0xE59 JUMPI DUP3 DUP8 ADD MLOAD SWAP1 POP JUMPDEST PUSH2 0xE63 DUP6 DUP3 PUSH2 0xDE8 JUMP JUMPDEST DUP7 SSTORE POP PUSH2 0xECA JUMP JUMPDEST PUSH1 0x1F NOT DUP5 AND PUSH2 0xE79 DUP7 PUSH2 0xC66 JUMP JUMPDEST PUSH0 JUMPDEST DUP3 DUP2 LT ISZERO PUSH2 0xEA0 JUMPI DUP5 DUP10 ADD MLOAD DUP3 SSTORE PUSH1 0x1 DUP3 ADD SWAP2 POP PUSH1 0x20 DUP6 ADD SWAP5 POP PUSH1 0x20 DUP2 ADD SWAP1 POP PUSH2 0xE7B JUMP JUMPDEST DUP7 DUP4 LT ISZERO PUSH2 0xEBD JUMPI DUP5 DUP10 ADD MLOAD PUSH2 0xEB9 PUSH1 0x1F DUP10 AND DUP3 PUSH2 0xDCC JUMP JUMPDEST DUP4 SSTORE POP JUMPDEST PUSH1 0x1 PUSH1 0x2 DUP9 MUL ADD DUP9 SSTORE POP POP POP JUMPDEST POP POP POP POP POP POP JUMP JUMPDEST PUSH0 PUSH1 0x60 DUP3 ADD SWAP1 POP PUSH2 0xEE5 PUSH0 DUP4 ADD DUP7 PUSH2 0xB17 JUMP JUMPDEST DUP2 DUP2 SUB PUSH1 0x20 DUP4 ADD MSTORE PUSH2 0xEF7 DUP2 DUP6 PUSH2 0xADF JUMP JUMPDEST SWAP1 POP PUSH2 0xF06 PUSH1 0x40 DUP4 ADD DUP5 PUSH2 0xB17 JUMP JUMPDEST SWAP5 SWAP4 POP POP POP POP JUMP JUMPDEST PUSH32 0x4E487B7100000000000000000000000000000000000000000000000000000000 PUSH0 MSTORE PUSH1 0x11 PUSH1 0x4 MSTORE PUSH1 0x24 PUSH0 REVERT JUMPDEST PUSH0 PUSH2 0xF45 DUP3 PUSH2 0x721 JUMP JUMPDEST SWAP2 POP PUSH2 0xF50 DUP4 PUSH2 0x721 JUMP JUMPDEST SWAP3 POP DUP3 DUP3 ADD SWAP1 POP DUP1 DUP3 GT ISZERO PUSH2 0xF68 JUMPI PUSH2 0xF67 PUSH2 0xF0E JUMP JUMPDEST JUMPDEST SWAP3 SWAP2 POP POP JUMP JUMPDEST PUSH32 0x496E76616C69642070617469656E742049440000000000000000000000000000 PUSH0 DUP3 ADD MSTORE POP JUMP JUMPDEST PUSH0 PUSH2 0xFA2 PUSH1 0x12 DUP4 PUSH2 0xACF JUMP JUMPDEST SWAP2 POP PUSH2 0xFAD DUP3 PUSH2 0xF6E JUMP JUMPDEST PUSH1 0x20 DUP3 ADD SWAP1 POP SWAP2 SWAP1 POP JUMP JUMPDEST PUSH0 PUSH1 0x20 DUP3 ADD SWAP1 POP DUP2 DUP2 SUB PUSH0 DUP4 ADD MSTORE PUSH2 0xFCF DUP2 PUSH2 0xF96 JUMP JUMPDEST SWAP1 POP SWAP2 SWAP1 POP JUMP INVALID LOG2 PUSH5 0x6970667358 0x22 SLT KECCAK256 0x2B DIV 0xDF 0xA8 ADDMOD 0xD3 CODECOPY EXP MSIZE 0xBF 0xAD 0xD6 DUP2 0xCD EQ LOG2 PUSH17 0xF2E50B1D74798948271F94B95E27676473 PUSH16 0x6C634300081600330000000000000000 "
		},
		"gasEstimates": {
			"creation": {
				"codeDepositCost": "821600",
				"executionCost": "25165",
				"totalCost": "846765"
			},
			"external": {
				"createPatient(string,uint256)": "infinite",
				"deletePatient(uint256)": "infinite",
				"getPatient(uint256)": "infinite",
				"owner()": "2527",
				"patients(uint256)": "infinite",
				"totalPatients()": "2491",
				"updatePatient(uint256,string,uint256)": "infinite"
			}
		},
		"methodIdentifiers": {
			"createPatient(string,uint256)": "580d8038",
			"deletePatient(uint256)": "67e57482",
			"getPatient(uint256)": "7d3a6796",
			"owner()": "8da5cb5b",
			"patients(uint256)": "93119a83",
			"totalPatients()": "deb5ef09",
			"updatePatient(uint256,string,uint256)": "20528690"
		}
	},
	"abi": [
		{
			"inputs": [],
			"stateMutability": "nonpayable",
			"type": "constructor"
		},
		{
			"anonymous": false,
			"inputs": [
				{
					"indexed": false,
					"internalType": "uint256",
					"name": "patientId",
					"type": "uint256"
				},
				{
					"indexed": false,
					"internalType": "string",
					"name": "name",
					"type": "string"
				},
				{
					"indexed": false,
					"internalType": "uint256",
					"name": "age",
					"type": "uint256"
				}
			],
			"name": "PatientCreated",
			"type": "event"
		},
		{
			"anonymous": false,
			"inputs": [
				{
					"indexed": false,
					"internalType": "uint256",
					"name": "patientId",
					"type": "uint256"
				}
			],
			"name": "PatientDeleted",
			"type": "event"
		},
		{
			"anonymous": false,
			"inputs": [
				{
					"indexed": false,
					"internalType": "uint256",
					"name": "patientId",
					"type": "uint256"
				},
				{
					"indexed": false,
					"internalType": "string",
					"name": "newName",
					"type": "string"
				},
				{
					"indexed": false,
					"internalType": "uint256",
					"name": "newAge",
					"type": "uint256"
				}
			],
			"name": "PatientUpdated",
			"type": "event"
		},
		{
			"inputs": [
				{
					"internalType": "string",
					"name": "_name",
					"type": "string"
				},
				{
					"internalType": "uint256",
					"name": "_age",
					"type": "uint256"
				}
			],
			"name": "createPatient",
			"outputs": [],
			"stateMutability": "nonpayable",
			"type": "function"
		},
		{
			"inputs": [
				{
					"internalType": "uint256",
					"name": "_patientId",
					"type": "uint256"
				}
			],
			"name": "deletePatient",
			"outputs": [],
			"stateMutability": "nonpayable",
			"type": "function"
		},
		{
			"inputs": [
				{
					"internalType": "uint256",
					"name": "_patientId",
					"type": "uint256"
				}
			],
			"name": "getPatient",
			"outputs": [
				{
					"components": [
						{
							"internalType": "string",
							"name": "name",
							"type": "string"
						},
						{
							"internalType": "uint256",
							"name": "age",
							"type": "uint256"
						},
						{
							"internalType": "uint256",
							"name": "patientId",
							"type": "uint256"
						}
					],
					"internalType": "struct PatientRecordSystem.Patient",
					"name": "",
					"type": "tuple"
				}
			],
			"stateMutability": "view",
			"type": "function"
		},
		{
			"inputs": [],
			"name": "owner",
			"outputs": [
				{
					"internalType": "address",
					"name": "",
					"type": "address"
				}
			],
			"stateMutability": "view",
			"type": "function"
		},
		{
			"inputs": [
				{
					"internalType": "uint256",
					"name": "",
					"type": "uint256"
				}
			],
			"name": "patients",
			"outputs": [
				{
					"internalType": "string",
					"name": "name",
					"type": "string"
				},
				{
					"internalType": "uint256",
					"name": "age",
					"type": "uint256"
				},
				{
					"internalType": "uint256",
					"name": "patientId",
					"type": "uint256"
				}
			],
			"stateMutability": "view",
			"type": "function"
		},
		{
			"inputs": [],
			"name": "totalPatients",
			"outputs": [
				{
					"internalType": "uint256",
					"name": "",
					"type": "uint256"
				}
			],
			"stateMutability": "view",
			"type": "function"
		},
		{
			"inputs": [
				{
					"internalType": "uint256",
					"name": "_patientId",
					"type": "uint256"
				},
				{
					"internalType": "string",
					"name": "_newName",
					"type": "string"
				},
				{
					"internalType": "uint256",
					"name": "_newAge",
					"type": "uint256"
				}
			],
			"name": "updatePatient",
			"outputs": [],
			"stateMutability": "nonpayable",
			"type": "function"
		}
	]
}