{
	"data": {
		"bytecode": {
			"linkReferences": {},
			"object": "6080604052600160055534801562000015575f80fd5b5060405162004a2f38038062004a2f83398181016040528101906200003b9190620001b0565b835f806101000a81548173ffffffffffffffffffffffffffffffffffffffff021916908373ffffffffffffffffffffffffffffffffffffffff1602179055508260015f6101000a81548173ffffffffffffffffffffffffffffffffffffffff021916908373ffffffffffffffffffffffffffffffffffffffff1602179055508060035f6101000a81548173ffffffffffffffffffffffffffffffffffffffff021916908373ffffffffffffffffffffffffffffffffffffffff1602179055508160025f6101000a81548173ffffffffffffffffffffffffffffffffffffffff021916908373ffffffffffffffffffffffffffffffffffffffff1602179055505f600481905550505050506200021f565b5f80fd5b5f73ffffffffffffffffffffffffffffffffffffffff82169050919050565b5f6200017a826200014f565b9050919050565b6200018c816200016e565b811462000197575f80fd5b50565b5f81519050620001aa8162000181565b92915050565b5f805f8060808587031215620001cb57620001ca6200014b565b5b5f620001da878288016200019a565b9450506020620001ed878288016200019a565b935050604062000200878288016200019a565b925050606062000213878288016200019a565b91505092959194509250565b614802806200022d5f395ff3fe608060405234801561000f575f80fd5b50600436106100e8575f3560e01c8063667ae4f91161008a578063c8c60a3b11610064578063c8c60a3b14610270578063dba8b0991461028e578063e4a266db146102be578063e65a0691146102ee576100e8565b8063667ae4f91461020657806380f69f5814610222578063a9583c221461023e576100e8565b80635175da8d116100c65780635175da8d146101685780635f3e802914610184578063624a148e146101b657806364cceaef146101d2576100e8565b80630f709e33146100ec57806312950b94146101085780631e5a932114610138575b5f80fd5b61010660048036038101906101019190612f8f565b61031e565b005b610122600480360381019061011d91906130cb565b610523565b60405161012f919061315b565b60405180910390f35b610152600480360381019061014d9190613174565b610c1a565b60405161015f919061315b565b60405180910390f35b610182600480360381019061017d9190612f8f565b611157565b005b61019e60048036038101906101999190613251565b6113dd565b6040516101ad93929190613359565b60405180910390f35b6101d060048036038101906101cb91906133b8565b611446565b005b6101ec60048036038101906101e79190613251565b611633565b6040516101fd95949392919061349e565b60405180910390f35b610220600480360381019061021b9190612f8f565b611741565b005b61023c60048036038101906102379190612f8f565b611956565b005b610258600480360381019061025391906134f6565b611c96565b60405161026793929190613521565b60405180910390f35b610278611e4e565b604051610285919061366e565b60405180910390f35b6102a860048036038101906102a3919061368e565b611f22565b6040516102b591906136b9565b60405180910390f35b6102d860048036038101906102d39190613251565b611f52565b6040516102e591906136d2565b60405180910390f35b610308600480360381019061030391906134f6565b611f88565b60405161031591906139cd565b60405180910390f35b80600b8160405161032f9190613a27565b90815260200160405180910390206001015f9054906101000a900473ffffffffffffffffffffffffffffffffffffffff1673ffffffffffffffffffffffffffffffffffffffff163373ffffffffffffffffffffffffffffffffffffffff16146103cd576040517f08c379a00000000000000000000000000000000000000000000000000000000081526004016103c490613a87565b60405180910390fd5b5f831161040f576040517f08c379a000000000000000000000000000000000000000000000000000000000815260040161040690613aef565b60405180910390fd5b5f60095f8581526020019081526020015f205f9054906101000a900473ffffffffffffffffffffffffffffffffffffffff1690505f73ffffffffffffffffffffffffffffffffffffffff168173ffffffffffffffffffffffffffffffffffffffff16036104b1576040517f08c379a00000000000000000000000000000000000000000000000000000000081526004016104a890613b7d565b60405180910390fd5b60095f8581526020019081526020015f205f6101000a81549073ffffffffffffffffffffffffffffffffffffffff02191690557f29b9cf4cf99649fc226b110c01d607258e50e9405cc00b66c37d2c457bc955d38185604051610515929190613b9b565b60405180910390a150505050565b5f825f805b600b836040516105389190613a27565b9081526020016040518091039020600301805490508110156105f757600b836040516105649190613a27565b9081526020016040518091039020600301818154811061058757610586613bc2565b5b905f5260205f20015f9054906101000a900473ffffffffffffffffffffffffffffffffffffffff1673ffffffffffffffffffffffffffffffffffffffff163373ffffffffffffffffffffffffffffffffffffffff16036105ea57600191506105f7565b8080600101915050610528565b5080610638576040517f08c379a000000000000000000000000000000000000000000000000000000000815260040161062f90613c5f565b60405180910390fd5b5f600b866040516106499190613a27565b9081526020016040518091039020604051806101200160405290815f8201805461067290613caa565b80601f016020809104026020016040519081016040528092919081815260200182805461069e90613caa565b80156106e95780601f106106c0576101008083540402835291602001916106e9565b820191905f5260205f20905b8154815290600101906020018083116106cc57829003601f168201915b50505050508152602001600182015f9054906101000a900473ffffffffffffffffffffffffffffffffffffffff1673ffffffffffffffffffffffffffffffffffffffff1673ffffffffffffffffffffffffffffffffffffffff168152602001600282015f9054906101000a900473ffffffffffffffffffffffffffffffffffffffff1673ffffffffffffffffffffffffffffffffffffffff1673ffffffffffffffffffffffffffffffffffffffff1681526020016003820180548060200260200160405190810160405280929190818152602001828054801561081e57602002820191905f5260205f20905b815f9054906101000a900473ffffffffffffffffffffffffffffffffffffffff1673ffffffffffffffffffffffffffffffffffffffff16815260200190600101908083116107d5575b5050505050815260200160048201805480602002602001604051908101604052809291908181526020015f905b828210156108f3578382905f5260205f2001805461086890613caa565b80601f016020809104026020016040519081016040528092919081815260200182805461089490613caa565b80156108df5780601f106108b6576101008083540402835291602001916108df565b820191905f5260205f20905b8154815290600101906020018083116108c257829003601f168201915b50505050508152602001906001019061084b565b50505050815260200160058201805480602002602001604051908101604052809291908181526020015f905b828210156109c7578382905f5260205f2001805461093c90613caa565b80601f016020809104026020016040519081016040528092919081815260200182805461096890613caa565b80156109b35780601f1061098a576101008083540402835291602001916109b3565b820191905f5260205f20905b81548152906001019060200180831161099657829003601f168201915b50505050508152602001906001019061091f565b50505050815260200160068201805480602002602001604051908101604052809291908181526020015f905b82821015610a9b578382905f5260205f20018054610a1090613caa565b80601f0160208091040260200160405190810160405280929190818152602001828054610a3c90613caa565b8015610a875780601f10610a5e57610100808354040283529160200191610a87565b820191905f5260205f20905b815481529060010190602001808311610a6a57829003601f168201915b5050505050815260200190600101906109f3565b505050508152602001600782015481526020016008820154815250509050848160a0018190525080600b87604051610ad39190613a27565b90815260200160405180910390205f820151815f019081610af49190613e77565b506020820151816001015f6101000a81548173ffffffffffffffffffffffffffffffffffffffff021916908373ffffffffffffffffffffffffffffffffffffffff1602179055506040820151816002015f6101000a81548173ffffffffffffffffffffffffffffffffffffffff021916908373ffffffffffffffffffffffffffffffffffffffff1602179055506060820151816003019080519060200190610b9d929190612c42565b506080820151816004019080519060200190610bba929190612cc9565b5060a0820151816005019080519060200190610bd7929190612cc9565b5060c0820151816006019080519060200190610bf4929190612cc9565b5060e0820151816007015561010082015181600801559050506001935050505092915050565b5f805f60025f9054906101000a900473ffffffffffffffffffffffffffffffffffffffff1673ffffffffffffffffffffffffffffffffffffffff1633604051602401610c6691906136b9565b6040516020818303038152906040527ff7bea9f3000000000000000000000000000000000000000000000000000000007bffffffffffffffffffffffffffffffffffffffffffffffffffffffff19166020820180517bffffffffffffffffffffffffffffffffffffffffffffffffffffffff8381831617835250505050604051610cf09190613f8a565b5f60405180830381855af49150503d805f8114610d28576040519150601f19603f3d011682016040523d82523d5f602084013e610d2d565b606091505b509150915081610d72576040517f08c379a0000000000000000000000000000000000000000000000000000000008152600401610d6990613fea565b60405180910390fd5b5f81806020019051810190610d879190614032565b905080610dc9576040517f08c379a0000000000000000000000000000000000000000000000000000000008152600401610dc0906140cd565b60405180910390fd5b5f8060035f9054906101000a900473ffffffffffffffffffffffffffffffffffffffff1673ffffffffffffffffffffffffffffffffffffffff168a604051602401610e1491906140eb565b6040516020818303038152906040527fae1574db000000000000000000000000000000000000000000000000000000007bffffffffffffffffffffffffffffffffffffffffffffffffffffffff19166020820180517bffffffffffffffffffffffffffffffffffffffffffffffffffffffff8381831617835250505050604051610e9e9190613f8a565b5f60405180830381855af49150503d805f8114610ed6576040519150601f19603f3d011682016040523d82523d5f602084013e610edb565b606091505b509150915081610f20576040517f08c379a0000000000000000000000000000000000000000000000000000000008152600401610f1790614155565b60405180910390fd5b5f81806020019051810190610f3591906141ae565b90505f610f458e8e8d8d8d61258d565b9050600a81908060018154018082558091505060019003905f5260205f20015f909190919091509081610f789190613e77565b506060806060805f805f6040518061012001604052808981526020018a73ffffffffffffffffffffffffffffffffffffffff1681526020015f73ffffffffffffffffffffffffffffffffffffffff16815260200188815260200187815260200186815260200185815260200184815260200183815250905080600b896040516110019190613a27565b90815260200160405180910390205f820151815f0190816110229190613e77565b506020820151816001015f6101000a81548173ffffffffffffffffffffffffffffffffffffffff021916908373ffffffffffffffffffffffffffffffffffffffff1602179055506040820151816002015f6101000a81548173ffffffffffffffffffffffffffffffffffffffff021916908373ffffffffffffffffffffffffffffffffffffffff16021790555060608201518160030190805190602001906110cb929190612c42565b5060808201518160040190805190602001906110e8929190612cc9565b5060a0820151816005019080519060200190611105929190612cc9565b5060c0820151816006019080519060200190611122929190612cc9565b5060e08201518160070155610100820151816008015590505060019e5050505050505050505050505050509695505050505050565b80600b816040516111689190613a27565b90815260200160405180910390206001015f9054906101000a900473ffffffffffffffffffffffffffffffffffffffff1673ffffffffffffffffffffffffffffffffffffffff163373ffffffffffffffffffffffffffffffffffffffff1614611206576040517f08c379a00000000000000000000000000000000000000000000000000000000081526004016111fd90613a87565b60405180910390fd5b5f8311611248576040517f08c379a000000000000000000000000000000000000000000000000000000000815260040161123f90613aef565b60405180910390fd5b5f6008836040516112599190613a27565b908152602001604051809103902090505f600281111561127c5761127b6132e6565b5b816002015f9054906101000a900460ff16600281111561129f5761129e6132e6565b5b146112df576040517f08c379a00000000000000000000000000000000000000000000000000000000081526004016112d690614223565b60405180910390fd5b6001816002015f6101000a81548160ff02191690836002811115611306576113056132e6565b5b0217905550805f015f9054906101000a900473ffffffffffffffffffffffffffffffffffffffff1660095f8681526020019081526020015f205f6101000a81548173ffffffffffffffffffffffffffffffffffffffff021916908373ffffffffffffffffffffffffffffffffffffffff1602179055507f0ac0275f9eaea68f95d0cf1713b52df59c7c8c29e9f7a77a0a235d326cb84655815f015f9054906101000a900473ffffffffffffffffffffffffffffffffffffffff16856040516113cf929190613b9b565b60405180910390a150505050565b6008818051602081018201805184825260208301602085012081835280955050505050505f91509050805f015f9054906101000a900473ffffffffffffffffffffffffffffffffffffffff1690806001015490806002015f9054906101000a900460ff16905083565b80600b816040516114579190613a27565b90815260200160405180910390206001015f9054906101000a900473ffffffffffffffffffffffffffffffffffffffff1673ffffffffffffffffffffffffffffffffffffffff163373ffffffffffffffffffffffffffffffffffffffff16146114f5576040517f08c379a00000000000000000000000000000000000000000000000000000000081526004016114ec90613a87565b60405180910390fd5b5f73ffffffffffffffffffffffffffffffffffffffff168473ffffffffffffffffffffffffffffffffffffffff1603611563576040517f08c379a000000000000000000000000000000000000000000000000000000000815260040161155a9061428b565b60405180910390fd5b5f83116115a5576040517f08c379a000000000000000000000000000000000000000000000000000000000815260040161159c90613aef565b60405180910390fd5b8360095f8581526020019081526020015f205f6101000a81548173ffffffffffffffffffffffffffffffffffffffff021916908373ffffffffffffffffffffffffffffffffffffffff1602179055507f0388a02087a25fd167bfa388e0932bc2766b3d4b3c6632a540efafa2457132798484604051611625929190613b9b565b60405180910390a150505050565b600b818051602081018201805184825260208301602085012081835280955050505050505f91509050805f01805461166a90613caa565b80601f016020809104026020016040519081016040528092919081815260200182805461169690613caa565b80156116e15780601f106116b8576101008083540402835291602001916116e1565b820191905f5260205f20905b8154815290600101906020018083116116c457829003601f168201915b505050505090806001015f9054906101000a900473ffffffffffffffffffffffffffffffffffffffff1690806002015f9054906101000a900473ffffffffffffffffffffffffffffffffffffffff16908060070154908060080154905085565b80600b816040516117529190613a27565b90815260200160405180910390206001015f9054906101000a900473ffffffffffffffffffffffffffffffffffffffff1673ffffffffffffffffffffffffffffffffffffffff163373ffffffffffffffffffffffffffffffffffffffff16146117f0576040517f08c379a00000000000000000000000000000000000000000000000000000000081526004016117e790613a87565b60405180910390fd5b5f8311611832576040517f08c379a000000000000000000000000000000000000000000000000000000000815260040161182990613aef565b60405180910390fd5b5f6008836040516118439190613a27565b908152602001604051809103902090505f6002811115611866576118656132e6565b5b816002015f9054906101000a900460ff166002811115611889576118886132e6565b5b146118c9576040517f08c379a00000000000000000000000000000000000000000000000000000000081526004016118c090614223565b60405180910390fd5b6002816002015f6101000a81548160ff021916908360028111156118f0576118ef6132e6565b5b02179055507f4808851069c8cc195aecf6db3c959e9da7b40eab910e6fa70435042811903a8c815f015f9054906101000a900473ffffffffffffffffffffffffffffffffffffffff1685604051611948929190613b9b565b60405180910390a150505050565b805f805b600b8360405161196a9190613a27565b908152602001604051809103902060030180549050811015611a2957600b836040516119969190613a27565b908152602001604051809103902060030181815481106119b9576119b8613bc2565b5b905f5260205f20015f9054906101000a900473ffffffffffffffffffffffffffffffffffffffff1673ffffffffffffffffffffffffffffffffffffffff163373ffffffffffffffffffffffffffffffffffffffff1603611a1c5760019150611a29565b808060010191505061195a565b5080611a6a576040517f08c379a0000000000000000000000000000000000000000000000000000000008152600401611a6190613c5f565b60405180910390fd5b5f8411611aac576040517f08c379a0000000000000000000000000000000000000000000000000000000008152600401611aa390613aef565b60405180910390fd5b3373ffffffffffffffffffffffffffffffffffffffff1660095f8681526020019081526020015f205f9054906101000a900473ffffffffffffffffffffffffffffffffffffffff1673ffffffffffffffffffffffffffffffffffffffff1614611b4a576040517f08c379a0000000000000000000000000000000000000000000000000000000008152600401611b4190614319565b60405180910390fd5b5f600884604051611b5b9190613a27565b908152602001604051809103902090505f6002811115611b7e57611b7d6132e6565b5b816002015f9054906101000a900460ff166002811115611ba157611ba06132e6565b5b14611be1576040517f08c379a0000000000000000000000000000000000000000000000000000000008152600401611bd8906143a7565b60405180910390fd5b33815f015f6101000a81548173ffffffffffffffffffffffffffffffffffffffff021916908373ffffffffffffffffffffffffffffffffffffffff1602179055508481600101819055505f816002015f6101000a81548160ff02191690836002811115611c5157611c506132e6565b5b02179055507ff82d889b7eb3cf9e1be7d90b5d1e4c34638299a7b73dd3c56460d856b54658c63386604051611c87929190613b9b565b60405180910390a15050505050565b6006602052805f5260405f205f91509050805f018054611cb590613caa565b80601f0160208091040260200160405190810160405280929190818152602001828054611ce190613caa565b8015611d2c5780601f10611d0357610100808354040283529160200191611d2c565b820191905f5260205f20905b815481529060010190602001808311611d0f57829003601f168201915b505050505090806001018054611d4190613caa565b80601f0160208091040260200160405190810160405280929190818152602001828054611d6d90613caa565b8015611db85780601f10611d8f57610100808354040283529160200191611db8565b820191905f5260205f20905b815481529060010190602001808311611d9b57829003601f168201915b505050505090806002018054611dcd90613caa565b80601f0160208091040260200160405190810160405280929190818152602001828054611df990613caa565b8015611e445780601f10611e1b57610100808354040283529160200191611e44565b820191905f5260205f20905b815481529060010190602001808311611e2757829003601f168201915b5050505050905083565b6060600a805480602002602001604051908101604052809291908181526020015f905b82821015611f19578382905f5260205f20018054611e8e90613caa565b80601f0160208091040260200160405190810160405280929190818152602001828054611eba90613caa565b8015611f055780601f10611edc57610100808354040283529160200191611f05565b820191905f5260205f20905b815481529060010190602001808311611ee857829003601f168201915b505050505081526020019060010190611e71565b50505050905090565b6009602052805f5260405f205f915054906101000a900473ffffffffffffffffffffffffffffffffffffffff1681565b5f600882604051611f639190613a27565b90815260200160405180910390206002015f9054906101000a900460ff169050919050565b60605f60075f8473ffffffffffffffffffffffffffffffffffffffff1673ffffffffffffffffffffffffffffffffffffffff1681526020019081526020015f208054905067ffffffffffffffff811115611fe557611fe4612e6b565b5b60405190808252806020026020018201604052801561201e57816020015b61200b612d20565b8152602001906001900390816120035790505b5090505f5b600a80549050811015612583573373ffffffffffffffffffffffffffffffffffffffff16600b600a838154811061205d5761205c613bc2565b5b905f5260205f20016040516120729190614445565b90815260200160405180910390206001015f9054906101000a900473ffffffffffffffffffffffffffffffffffffffff1673ffffffffffffffffffffffffffffffffffffffff160361257657600b600a82815481106120d4576120d3613bc2565b5b905f5260205f20016040516120e99190614445565b9081526020016040518091039020604051806101200160405290815f8201805461211290613caa565b80601f016020809104026020016040519081016040528092919081815260200182805461213e90613caa565b80156121895780601f1061216057610100808354040283529160200191612189565b820191905f5260205f20905b81548152906001019060200180831161216c57829003601f168201915b50505050508152602001600182015f9054906101000a900473ffffffffffffffffffffffffffffffffffffffff1673ffffffffffffffffffffffffffffffffffffffff1673ffffffffffffffffffffffffffffffffffffffff168152602001600282015f9054906101000a900473ffffffffffffffffffffffffffffffffffffffff1673ffffffffffffffffffffffffffffffffffffffff1673ffffffffffffffffffffffffffffffffffffffff168152602001600382018054806020026020016040519081016040528092919081815260200182805480156122be57602002820191905f5260205f20905b815f9054906101000a900473ffffffffffffffffffffffffffffffffffffffff1673ffffffffffffffffffffffffffffffffffffffff1681526020019060010190808311612275575b5050505050815260200160048201805480602002602001604051908101604052809291908181526020015f905b82821015612393578382905f5260205f2001805461230890613caa565b80601f016020809104026020016040519081016040528092919081815260200182805461233490613caa565b801561237f5780601f106123565761010080835404028352916020019161237f565b820191905f5260205f20905b81548152906001019060200180831161236257829003601f168201915b5050505050815260200190600101906122eb565b50505050815260200160058201805480602002602001604051908101604052809291908181526020015f905b82821015612467578382905f5260205f200180546123dc90613caa565b80601f016020809104026020016040519081016040528092919081815260200182805461240890613caa565b80156124535780601f1061242a57610100808354040283529160200191612453565b820191905f5260205f20905b81548152906001019060200180831161243657829003601f168201915b5050505050815260200190600101906123bf565b50505050815260200160068201805480602002602001604051908101604052809291908181526020015f905b8282101561253b578382905f5260205f200180546124b090613caa565b80601f01602080910402602001604051908101604052809291908181526020018280546124dc90613caa565b80156125275780601f106124fe57610100808354040283529160200191612527565b820191905f5260205f20905b81548152906001019060200180831161250a57829003601f168201915b505050505081526020019060010190612493565b5050505081526020016007820154815260200160088201548152505082828151811061256a57612569613bc2565b5b60200260200101819052505b8080600101915050612023565b5080915050919050565b60605f61259983612a27565b6125a285612a27565b6125ab87612a27565b6040516020016125bd939291906144a5565b60405160208183030381529060405290505f8790505f600467ffffffffffffffff8111156125ee576125ed612e6b565b5b6040519080825280601f01601f1916602001820160405280156126205781602001600182028036833780820191505090505b5090505f5b6002811080156126355750825181105b156126ac5782818151811061264d5761264c613bc2565b5b602001015160f81c60f81b82828151811061266b5761266a613bc2565b5b60200101907effffffffffffffffffffffffffffffffffffffffffffffffffffffffffffff191690815f1a90535080806126a49061450d565b915050612625565b505f5b825160026126bd9190614554565b81101561274b577f58000000000000000000000000000000000000000000000000000000000000008260018360046126f59190614554565b6126ff9190614554565b815181106127105761270f613bc2565b5b60200101907effffffffffffffffffffffffffffffffffffffffffffffffffffffffffffff191690815f1a90535080806001019150506126af565b50828160405160200161275f929190614587565b60405160208183030381529060405292505f8890505f600467ffffffffffffffff8111156127905761278f612e6b565b5b6040519080825280601f01601f1916602001820160405280156127c25781602001600182028036833780820191505090505b5090505f5b6004811080156127d75750825181105b1561284e578281815181106127ef576127ee613bc2565b5b602001015160f81c60f81b82828151811061280d5761280c613bc2565b5b60200101907effffffffffffffffffffffffffffffffffffffffffffffffffffffffffffff191690815f1a90535080806128469061450d565b9150506127c7565b506004825110156128f9575f5b825160046128699190614554565b8110156128f7577f30000000000000000000000000000000000000000000000000000000000000008260018360046128a19190614554565b6128ab9190614554565b815181106128bc576128bb613bc2565b5b60200101907effffffffffffffffffffffffffffffffffffffffffffffffffffffffffffff191690815f1a905350808060010191505061285b565b505b848160405160200161290c9291906145f4565b60405160208183030381529060405294505f6040518060400160405280601c81526020017f4142434445464748494b3d4a4b4c4d4e4f505152535455565758595a0000000081525090505f5b6004811015612a145760055f8154809291906129739061450d565b91905055505f601a426001436129899190614554565b40336005546040516020016129a194939291906146b0565b604051602081830303815290604052805190602001205f1c6129c3919061472a565b9050878382815181106129d9576129d8613bc2565b5b602001015160f81c60f81b6040516020016129f59291906147a5565b6040516020818303038152906040529750508080600101915050612958565b5085965050505050505095945050505050565b60605f6001612a3584612af1565b0190505f8167ffffffffffffffff811115612a5357612a52612e6b565b5b6040519080825280601f01601f191660200182016040528015612a855781602001600182028036833780820191505090505b5090505f82602001820190505b600115612ae6578080600190039150507f3031323334353637383961626364656600000000000000000000000000000000600a86061a8153600a8581612adb57612ada6146fd565b5b0494505f8503612a92575b819350505050919050565b5f805f90507a184f03e93ff9f4daa797ed6e38ed64bf6a1f0100000000000000008310612b4d577a184f03e93ff9f4daa797ed6e38ed64bf6a1f0100000000000000008381612b4357612b426146fd565b5b0492506040810190505b6d04ee2d6d415b85acef81000000008310612b8a576d04ee2d6d415b85acef81000000008381612b8057612b7f6146fd565b5b0492506020810190505b662386f26fc100008310612bb957662386f26fc100008381612baf57612bae6146fd565b5b0492506010810190505b6305f5e1008310612be2576305f5e1008381612bd857612bd76146fd565b5b0492506008810190505b6127108310612c07576127108381612bfd57612bfc6146fd565b5b0492506004810190505b60648310612c2a5760648381612c2057612c1f6146fd565b5b0492506002810190505b600a8310612c39576001810190505b80915050919050565b828054828255905f5260205f20908101928215612cb8579160200282015b82811115612cb7578251825f6101000a81548173ffffffffffffffffffffffffffffffffffffffff021916908373ffffffffffffffffffffffffffffffffffffffff16021790555091602001919060010190612c60565b5b509050612cc59190612d94565b5090565b828054828255905f5260205f20908101928215612d0f579160200282015b82811115612d0e578251829081612cfe9190613e77565b5091602001919060010190612ce7565b5b509050612d1c9190612daf565b5090565b604051806101200160405280606081526020015f73ffffffffffffffffffffffffffffffffffffffff1681526020015f73ffffffffffffffffffffffffffffffffffffffff168152602001606081526020016060815260200160608152602001606081526020015f81526020015f81525090565b5b80821115612dab575f815f905550600101612d95565b5090565b5b80821115612dce575f8181612dc59190612dd2565b50600101612db0565b5090565b508054612dde90613caa565b5f825580601f10612def5750612e0c565b601f0160209004905f5260205f2090810190612e0b9190612d94565b5b50565b5f604051905090565b5f80fd5b5f80fd5b5f819050919050565b612e3281612e20565b8114612e3c575f80fd5b50565b5f81359050612e4d81612e29565b92915050565b5f80fd5b5f80fd5b5f601f19601f8301169050919050565b7f4e487b71000000000000000000000000000000000000000000000000000000005f52604160045260245ffd5b612ea182612e5b565b810181811067ffffffffffffffff82111715612ec057612ebf612e6b565b5b80604052505050565b5f612ed2612e0f565b9050612ede8282612e98565b919050565b5f67ffffffffffffffff821115612efd57612efc612e6b565b5b612f0682612e5b565b9050602081019050919050565b828183375f83830152505050565b5f612f33612f2e84612ee3565b612ec9565b905082815260208101848484011115612f4f57612f4e612e57565b5b612f5a848285612f13565b509392505050565b5f82601f830112612f7657612f75612e53565b5b8135612f86848260208601612f21565b91505092915050565b5f8060408385031215612fa557612fa4612e18565b5b5f612fb285828601612e3f565b925050602083013567ffffffffffffffff811115612fd357612fd2612e1c565b5b612fdf85828601612f62565b9150509250929050565b5f67ffffffffffffffff82111561300357613002612e6b565b5b602082029050602081019050919050565b5f80fd5b5f61302a61302584612fe9565b612ec9565b9050808382526020820190506020840283018581111561304d5761304c613014565b5b835b8181101561309457803567ffffffffffffffff81111561307257613071612e53565b5b80860161307f8982612f62565b8552602085019450505060208101905061304f565b5050509392505050565b5f82601f8301126130b2576130b1612e53565b5b81356130c2848260208601613018565b91505092915050565b5f80604083850312156130e1576130e0612e18565b5b5f83013567ffffffffffffffff8111156130fe576130fd612e1c565b5b61310a85828601612f62565b925050602083013567ffffffffffffffff81111561312b5761312a612e1c565b5b6131378582860161309e565b9150509250929050565b5f8115159050919050565b61315581613141565b82525050565b5f60208201905061316e5f83018461314c565b92915050565b5f805f805f8060c0878903121561318e5761318d612e18565b5b5f87013567ffffffffffffffff8111156131ab576131aa612e1c565b5b6131b789828a01612f62565b965050602087013567ffffffffffffffff8111156131d8576131d7612e1c565b5b6131e489828a01612f62565b955050604087013567ffffffffffffffff81111561320557613204612e1c565b5b61321189828a01612f62565b945050606061322289828a01612e3f565b935050608061323389828a01612e3f565b92505060a061324489828a01612e3f565b9150509295509295509295565b5f6020828403121561326657613265612e18565b5b5f82013567ffffffffffffffff81111561328357613282612e1c565b5b61328f84828501612f62565b91505092915050565b5f73ffffffffffffffffffffffffffffffffffffffff82169050919050565b5f6132c182613298565b9050919050565b6132d1816132b7565b82525050565b6132e081612e20565b82525050565b7f4e487b71000000000000000000000000000000000000000000000000000000005f52602160045260245ffd5b60038110613324576133236132e6565b5b50565b5f81905061333482613313565b919050565b5f61334382613327565b9050919050565b61335381613339565b82525050565b5f60608201905061336c5f8301866132c8565b61337960208301856132d7565b613386604083018461334a565b949350505050565b613397816132b7565b81146133a1575f80fd5b50565b5f813590506133b28161338e565b92915050565b5f805f606084860312156133cf576133ce612e18565b5b5f6133dc868287016133a4565b93505060206133ed86828701612e3f565b925050604084013567ffffffffffffffff81111561340e5761340d612e1c565b5b61341a86828701612f62565b9150509250925092565b5f81519050919050565b5f82825260208201905092915050565b5f5b8381101561345b578082015181840152602081019050613440565b5f8484015250505050565b5f61347082613424565b61347a818561342e565b935061348a81856020860161343e565b61349381612e5b565b840191505092915050565b5f60a0820190508181035f8301526134b68188613466565b90506134c560208301876132c8565b6134d260408301866132c8565b6134df60608301856132d7565b6134ec60808301846132d7565b9695505050505050565b5f6020828403121561350b5761350a612e18565b5b5f613518848285016133a4565b91505092915050565b5f6060820190508181035f8301526135398186613466565b9050818103602083015261354d8185613466565b905081810360408301526135618184613466565b9050949350505050565b5f81519050919050565b5f82825260208201905092915050565b5f819050602082019050919050565b5f82825260208201905092915050565b5f6135ae82613424565b6135b88185613594565b93506135c881856020860161343e565b6135d181612e5b565b840191505092915050565b5f6135e783836135a4565b905092915050565b5f602082019050919050565b5f6136058261356b565b61360f8185613575565b93508360208202850161362185613585565b805f5b8581101561365c578484038952815161363d85826135dc565b9450613648836135ef565b925060208a01995050600181019050613624565b50829750879550505050505092915050565b5f6020820190508181035f83015261368681846135fb565b905092915050565b5f602082840312156136a3576136a2612e18565b5b5f6136b084828501612e3f565b91505092915050565b5f6020820190506136cc5f8301846132c8565b92915050565b5f6020820190506136e55f83018461334a565b92915050565b5f81519050919050565b5f82825260208201905092915050565b5f819050602082019050919050565b61371d816132b7565b82525050565b5f81519050919050565b5f82825260208201905092915050565b5f819050602082019050919050565b5f6137578383613714565b60208301905092915050565b5f602082019050919050565b5f61377982613723565b613783818561372d565b935061378e8361373d565b805f5b838110156137be5781516137a5888261374c565b97506137b083613763565b925050600181019050613791565b5085935050505092915050565b5f82825260208201905092915050565b5f6137e58261356b565b6137ef81856137cb565b93508360208202850161380185613585565b805f5b8581101561383c578484038952815161381d85826135dc565b9450613828836135ef565b925060208a01995050600181019050613804565b50829750879550505050505092915050565b61385781612e20565b82525050565b5f61012083015f8301518482035f86015261387882826135a4565b915050602083015161388d6020860182613714565b5060408301516138a06040860182613714565b50606083015184820360608601526138b8828261376f565b915050608083015184820360808601526138d282826137db565b91505060a083015184820360a08601526138ec82826137db565b91505060c083015184820360c086015261390682826137db565b91505060e083015161391b60e086018261384e565b5061010083015161393061010086018261384e565b508091505092915050565b5f613946838361385d565b905092915050565b5f602082019050919050565b5f613964826136eb565b61396e81856136f5565b93508360208202850161398085613705565b805f5b858110156139bb578484038952815161399c858261393b565b94506139a78361394e565b925060208a01995050600181019050613983565b50829750879550505050505092915050565b5f6020820190508181035f8301526139e5818461395a565b905092915050565b5f81905092915050565b5f613a0182613424565b613a0b81856139ed565b9350613a1b81856020860161343e565b80840191505092915050565b5f613a3282846139f7565b915081905092915050565b7f5573657220646f65736e2774206f776e20746865207265706f727400000000005f82015250565b5f613a71601b8361342e565b9150613a7c82613a3d565b602082019050919050565b5f6020820190508181035f830152613a9e81613a65565b9050919050565b7f496e76616c69642070617469656e7420494400000000000000000000000000005f82015250565b5f613ad960128361342e565b9150613ae482613aa5565b602082019050919050565b5f6020820190508181035f830152613b0681613acd565b9050919050565b7f4e6f20646f63746f722061737369676e656420746f20746869732070617469655f8201527f6e74000000000000000000000000000000000000000000000000000000000000602082015250565b5f613b6760228361342e565b9150613b7282613b0d565b604082019050919050565b5f6020820190508181035f830152613b9481613b5b565b9050919050565b5f604082019050613bae5f8301856132c8565b613bbb60208301846132d7565b9392505050565b7f4e487b71000000000000000000000000000000000000000000000000000000005f52603260045260245ffd5b7f4f6e6c79207265676973746572656420646f63746f72732063616e20616363655f8201527f737320746869732066756e6374696f6e00000000000000000000000000000000602082015250565b5f613c4960308361342e565b9150613c5482613bef565b604082019050919050565b5f6020820190508181035f830152613c7681613c3d565b9050919050565b7f4e487b71000000000000000000000000000000000000000000000000000000005f52602260045260245ffd5b5f6002820490506001821680613cc157607f821691505b602082108103613cd457613cd3613c7d565b5b50919050565b5f819050815f5260205f209050919050565b5f6020601f8301049050919050565b5f82821b905092915050565b5f60088302613d367fffffffffffffffffffffffffffffffffffffffffffffffffffffffffffffffff82613cfb565b613d408683613cfb565b95508019841693508086168417925050509392505050565b5f819050919050565b5f613d7b613d76613d7184612e20565b613d58565b612e20565b9050919050565b5f819050919050565b613d9483613d61565b613da8613da082613d82565b848454613d07565b825550505050565b5f90565b613dbc613db0565b613dc7818484613d8b565b505050565b5b81811015613dea57613ddf5f82613db4565b600181019050613dcd565b5050565b601f821115613e2f57613e0081613cda565b613e0984613cec565b81016020851015613e18578190505b613e2c613e2485613cec565b830182613dcc565b50505b505050565b5f82821c905092915050565b5f613e4f5f1984600802613e34565b1980831691505092915050565b5f613e678383613e40565b9150826002028217905092915050565b613e8082613424565b67ffffffffffffffff811115613e9957613e98612e6b565b5b613ea38254613caa565b613eae828285613dee565b5f60209050601f831160018114613edf575f8415613ecd578287015190505b613ed78582613e5c565b865550613f3e565b601f198416613eed86613cda565b5f5b82811015613f1457848901518255600182019150602085019450602081019050613eef565b86831015613f315784890151613f2d601f891682613e40565b8355505b6001600288020188555050505b505050505050565b5f81519050919050565b5f81905092915050565b5f613f6482613f46565b613f6e8185613f50565b9350613f7e81856020860161343e565b80840191505092915050565b5f613f958284613f5a565b915081905092915050565b7f6f6e6c7920776f726b65722064656c65676174652063616c6c206661696c65725f82015250565b5f613fd460208361342e565b9150613fdf82613fa0565b602082019050919050565b5f6020820190508181035f83015261400181613fc8565b9050919050565b61401181613141565b811461401b575f80fd5b50565b5f8151905061402c81614008565b92915050565b5f6020828403121561404757614046612e18565b5b5f6140548482850161401e565b91505092915050565b7f6f6e6c7920776f726b6572206861732061636365737320746f207468697320725f8201527f6571756573740000000000000000000000000000000000000000000000000000602082015250565b5f6140b760268361342e565b91506140c28261405d565b604082019050919050565b5f6020820190508181035f8301526140e4816140ab565b9050919050565b5f6020820190508181035f8301526141038184613466565b905092915050565b7f64656c65676174652063616c6c206661696c65640000000000000000000000005f82015250565b5f61413f60148361342e565b915061414a8261410b565b602082019050919050565b5f6020820190508181035f83015261416c81614133565b9050919050565b5f61417d82613298565b9050919050565b61418d81614173565b8114614197575f80fd5b50565b5f815190506141a881614184565b92915050565b5f602082840312156141c3576141c2612e18565b5b5f6141d08482850161419a565b91505092915050565b7f4163636573732072657175657374206973206e6f742070656e64696e670000005f82015250565b5f61420d601d8361342e565b9150614218826141d9565b602082019050919050565b5f6020820190508181035f83015261423a81614201565b9050919050565b7f496e76616c696420646f63746f722061646472657373000000000000000000005f82015250565b5f61427560168361342e565b915061428082614241565b602082019050919050565b5f6020820190508181035f8301526142a281614269565b9050919050565b7f596f7520617265206e6f742061737369676e656420746f2074686973207061745f8201527f69656e7400000000000000000000000000000000000000000000000000000000602082015250565b5f61430360248361342e565b915061430e826142a9565b604082019050919050565b5f6020820190508181035f830152614330816142f7565b9050919050565b7f416363657373207265717565737420616c72656164792073656e74206f7220615f8201527f7070726f76656400000000000000000000000000000000000000000000000000602082015250565b5f61439160278361342e565b915061439c82614337565b604082019050919050565b5f6020820190508181035f8301526143be81614385565b9050919050565b5f81546143d181613caa565b6143db81866139ed565b9450600182165f81146143f5576001811461440a5761443c565b60ff198316865281151582028601935061443c565b61441385613cda565b5f5b8381101561443457815481890152600182019150602081019050614415565b838801955050505b50505092915050565b5f61445082846143c5565b915081905092915050565b7f52540000000000000000000000000000000000000000000000000000000000005f82015250565b5f61448f6002836139ed565b915061449a8261445b565b600282019050919050565b5f6144af82614483565b91506144bb82866139f7565b91506144c782856139f7565b91506144d382846139f7565b9150819050949350505050565b7f4e487b71000000000000000000000000000000000000000000000000000000005f52601160045260245ffd5b5f61451782612e20565b91507fffffffffffffffffffffffffffffffffffffffffffffffffffffffffffffffff8203614549576145486144e0565b5b600182019050919050565b5f61455e82612e20565b915061456983612e20565b9250828203905081811115614581576145806144e0565b5b92915050565b5f61459282856139f7565b915061459e82846139f7565b91508190509392505050565b7f2d000000000000000000000000000000000000000000000000000000000000005f82015250565b5f6145de6001836139ed565b91506145e9826145aa565b600182019050919050565b5f6145ff82856139f7565b915061460b82846139f7565b9150614616826145d2565b91508190509392505050565b5f819050919050565b61463c61463782612e20565b614622565b82525050565b5f819050919050565b5f819050919050565b61466561466082614642565b61464b565b82525050565b5f8160601b9050919050565b5f6146818261466b565b9050919050565b5f61469282614677565b9050919050565b6146aa6146a5826132b7565b614688565b82525050565b5f6146bb828761462b565b6020820191506146cb8286614654565b6020820191506146db8285614699565b6014820191506146eb828461462b565b60208201915081905095945050505050565b7f4e487b71000000000000000000000000000000000000000000000000000000005f52601260045260245ffd5b5f61473482612e20565b915061473f83612e20565b92508261474f5761474e6146fd565b5b828206905092915050565b5f7fff0000000000000000000000000000000000000000000000000000000000000082169050919050565b5f819050919050565b61479f61479a8261475a565b614785565b82525050565b5f6147b082856139f7565b91506147bc828461478e565b600182019150819050939250505056fea2646970667358221220f3d5682702df05c5411da5c7c4afcf3df7f8d764912159cb1397e561b08a658664736f6c63430008160033",
			"opcodes": "PUSH1 0x80 PUSH1 0x40 MSTORE PUSH1 0x1 PUSH1 0x5 SSTORE CALLVALUE DUP1 ISZERO PUSH3 0x15 JUMPI PUSH0 DUP1 REVERT JUMPDEST POP PUSH1 0x40 MLOAD PUSH3 0x4A2F CODESIZE SUB DUP1 PUSH3 0x4A2F DUP4 CODECOPY DUP2 DUP2 ADD PUSH1 0x40 MSTORE DUP2 ADD SWAP1 PUSH3 0x3B SWAP2 SWAP1 PUSH3 0x1B0 JUMP JUMPDEST DUP4 PUSH0 DUP1 PUSH2 0x100 EXP DUP2 SLOAD DUP2 PUSH20 0xFFFFFFFFFFFFFFFFFFFFFFFFFFFFFFFFFFFFFFFF MUL NOT AND SWAP1 DUP4 PUSH20 0xFFFFFFFFFFFFFFFFFFFFFFFFFFFFFFFFFFFFFFFF AND MUL OR SWAP1 SSTORE POP DUP3 PUSH1 0x1 PUSH0 PUSH2 0x100 EXP DUP2 SLOAD DUP2 PUSH20 0xFFFFFFFFFFFFFFFFFFFFFFFFFFFFFFFFFFFFFFFF MUL NOT AND SWAP1 DUP4 PUSH20 0xFFFFFFFFFFFFFFFFFFFFFFFFFFFFFFFFFFFFFFFF AND MUL OR SWAP1 SSTORE POP DUP1 PUSH1 0x3 PUSH0 PUSH2 0x100 EXP DUP2 SLOAD DUP2 PUSH20 0xFFFFFFFFFFFFFFFFFFFFFFFFFFFFFFFFFFFFFFFF MUL NOT AND SWAP1 DUP4 PUSH20 0xFFFFFFFFFFFFFFFFFFFFFFFFFFFFFFFFFFFFFFFF AND MUL OR SWAP1 SSTORE POP DUP2 PUSH1 0x2 PUSH0 PUSH2 0x100 EXP DUP2 SLOAD DUP2 PUSH20 0xFFFFFFFFFFFFFFFFFFFFFFFFFFFFFFFFFFFFFFFF MUL NOT AND SWAP1 DUP4 PUSH20 0xFFFFFFFFFFFFFFFFFFFFFFFFFFFFFFFFFFFFFFFF AND MUL OR SWAP1 SSTORE POP PUSH0 PUSH1 0x4 DUP2 SWAP1 SSTORE POP POP POP POP POP PUSH3 0x21F JUMP JUMPDEST PUSH0 DUP1 REVERT JUMPDEST PUSH0 PUSH20 0xFFFFFFFFFFFFFFFFFFFFFFFFFFFFFFFFFFFFFFFF DUP3 AND SWAP1 POP SWAP2 SWAP1 POP JUMP JUMPDEST PUSH0 PUSH3 0x17A DUP3 PUSH3 0x14F JUMP JUMPDEST SWAP1 POP SWAP2 SWAP1 POP JUMP JUMPDEST PUSH3 0x18C DUP2 PUSH3 0x16E JUMP JUMPDEST DUP2 EQ PUSH3 0x197 JUMPI PUSH0 DUP1 REVERT JUMPDEST POP JUMP JUMPDEST PUSH0 DUP2 MLOAD SWAP1 POP PUSH3 0x1AA DUP2 PUSH3 0x181 JUMP JUMPDEST SWAP3 SWAP2 POP POP JUMP JUMPDEST PUSH0 DUP1 PUSH0 DUP1 PUSH1 0x80 DUP6 DUP8 SUB SLT ISZERO PUSH3 0x1CB JUMPI PUSH3 0x1CA PUSH3 0x14B JUMP JUMPDEST JUMPDEST PUSH0 PUSH3 0x1DA DUP8 DUP3 DUP9 ADD PUSH3 0x19A JUMP JUMPDEST SWAP5 POP POP PUSH1 0x20 PUSH3 0x1ED DUP8 DUP3 DUP9 ADD PUSH3 0x19A JUMP JUMPDEST SWAP4 POP POP PUSH1 0x40 PUSH3 0x200 DUP8 DUP3 DUP9 ADD PUSH3 0x19A JUMP JUMPDEST SWAP3 POP POP PUSH1 0x60 PUSH3 0x213 DUP8 DUP3 DUP9 ADD PUSH3 0x19A JUMP JUMPDEST SWAP2 POP POP SWAP3 SWAP6 SWAP2 SWAP5 POP SWAP3 POP JUMP JUMPDEST PUSH2 0x4802 DUP1 PUSH3 0x22D PUSH0 CODECOPY PUSH0 RETURN INVALID PUSH1 0x80 PUSH1 0x40 MSTORE CALLVALUE DUP1 ISZERO PUSH2 0xF JUMPI PUSH0 DUP1 REVERT JUMPDEST POP PUSH1 0x4 CALLDATASIZE LT PUSH2 0xE8 JUMPI PUSH0 CALLDATALOAD PUSH1 0xE0 SHR DUP1 PUSH4 0x667AE4F9 GT PUSH2 0x8A JUMPI DUP1 PUSH4 0xC8C60A3B GT PUSH2 0x64 JUMPI DUP1 PUSH4 0xC8C60A3B EQ PUSH2 0x270 JUMPI DUP1 PUSH4 0xDBA8B099 EQ PUSH2 0x28E JUMPI DUP1 PUSH4 0xE4A266DB EQ PUSH2 0x2BE JUMPI DUP1 PUSH4 0xE65A0691 EQ PUSH2 0x2EE JUMPI PUSH2 0xE8 JUMP JUMPDEST DUP1 PUSH4 0x667AE4F9 EQ PUSH2 0x206 JUMPI DUP1 PUSH4 0x80F69F58 EQ PUSH2 0x222 JUMPI DUP1 PUSH4 0xA9583C22 EQ PUSH2 0x23E JUMPI PUSH2 0xE8 JUMP JUMPDEST DUP1 PUSH4 0x5175DA8D GT PUSH2 0xC6 JUMPI DUP1 PUSH4 0x5175DA8D EQ PUSH2 0x168 JUMPI DUP1 PUSH4 0x5F3E8029 EQ PUSH2 0x184 JUMPI DUP1 PUSH4 0x624A148E EQ PUSH2 0x1B6 JUMPI DUP1 PUSH4 0x64CCEAEF EQ PUSH2 0x1D2 JUMPI PUSH2 0xE8 JUMP JUMPDEST DUP1 PUSH4 0xF709E33 EQ PUSH2 0xEC JUMPI DUP1 PUSH4 0x12950B94 EQ PUSH2 0x108 JUMPI DUP1 PUSH4 0x1E5A9321 EQ PUSH2 0x138 JUMPI JUMPDEST PUSH0 DUP1 REVERT JUMPDEST PUSH2 0x106 PUSH1 0x4 DUP1 CALLDATASIZE SUB DUP2 ADD SWAP1 PUSH2 0x101 SWAP2 SWAP1 PUSH2 0x2F8F JUMP JUMPDEST PUSH2 0x31E JUMP JUMPDEST STOP JUMPDEST PUSH2 0x122 PUSH1 0x4 DUP1 CALLDATASIZE SUB DUP2 ADD SWAP1 PUSH2 0x11D SWAP2 SWAP1 PUSH2 0x30CB JUMP JUMPDEST PUSH2 0x523 JUMP JUMPDEST PUSH1 0x40 MLOAD PUSH2 0x12F SWAP2 SWAP1 PUSH2 0x315B JUMP JUMPDEST PUSH1 0x40 MLOAD DUP1 SWAP2 SUB SWAP1 RETURN JUMPDEST PUSH2 0x152 PUSH1 0x4 DUP1 CALLDATASIZE SUB DUP2 ADD SWAP1 PUSH2 0x14D SWAP2 SWAP1 PUSH2 0x3174 JUMP JUMPDEST PUSH2 0xC1A JUMP JUMPDEST PUSH1 0x40 MLOAD PUSH2 0x15F SWAP2 SWAP1 PUSH2 0x315B JUMP JUMPDEST PUSH1 0x40 MLOAD DUP1 SWAP2 SUB SWAP1 RETURN JUMPDEST PUSH2 0x182 PUSH1 0x4 DUP1 CALLDATASIZE SUB DUP2 ADD SWAP1 PUSH2 0x17D SWAP2 SWAP1 PUSH2 0x2F8F JUMP JUMPDEST PUSH2 0x1157 JUMP JUMPDEST STOP JUMPDEST PUSH2 0x19E PUSH1 0x4 DUP1 CALLDATASIZE SUB DUP2 ADD SWAP1 PUSH2 0x199 SWAP2 SWAP1 PUSH2 0x3251 JUMP JUMPDEST PUSH2 0x13DD JUMP JUMPDEST PUSH1 0x40 MLOAD PUSH2 0x1AD SWAP4 SWAP3 SWAP2 SWAP1 PUSH2 0x3359 JUMP JUMPDEST PUSH1 0x40 MLOAD DUP1 SWAP2 SUB SWAP1 RETURN JUMPDEST PUSH2 0x1D0 PUSH1 0x4 DUP1 CALLDATASIZE SUB DUP2 ADD SWAP1 PUSH2 0x1CB SWAP2 SWAP1 PUSH2 0x33B8 JUMP JUMPDEST PUSH2 0x1446 JUMP JUMPDEST STOP JUMPDEST PUSH2 0x1EC PUSH1 0x4 DUP1 CALLDATASIZE SUB DUP2 ADD SWAP1 PUSH2 0x1E7 SWAP2 SWAP1 PUSH2 0x3251 JUMP JUMPDEST PUSH2 0x1633 JUMP JUMPDEST PUSH1 0x40 MLOAD PUSH2 0x1FD SWAP6 SWAP5 SWAP4 SWAP3 SWAP2 SWAP1 PUSH2 0x349E JUMP JUMPDEST PUSH1 0x40 MLOAD DUP1 SWAP2 SUB SWAP1 RETURN JUMPDEST PUSH2 0x220 PUSH1 0x4 DUP1 CALLDATASIZE SUB DUP2 ADD SWAP1 PUSH2 0x21B SWAP2 SWAP1 PUSH2 0x2F8F JUMP JUMPDEST PUSH2 0x1741 JUMP JUMPDEST STOP JUMPDEST PUSH2 0x23C PUSH1 0x4 DUP1 CALLDATASIZE SUB DUP2 ADD SWAP1 PUSH2 0x237 SWAP2 SWAP1 PUSH2 0x2F8F JUMP JUMPDEST PUSH2 0x1956 JUMP JUMPDEST STOP JUMPDEST PUSH2 0x258 PUSH1 0x4 DUP1 CALLDATASIZE SUB DUP2 ADD SWAP1 PUSH2 0x253 SWAP2 SWAP1 PUSH2 0x34F6 JUMP JUMPDEST PUSH2 0x1C96 JUMP JUMPDEST PUSH1 0x40 MLOAD PUSH2 0x267 SWAP4 SWAP3 SWAP2 SWAP1 PUSH2 0x3521 JUMP JUMPDEST PUSH1 0x40 MLOAD DUP1 SWAP2 SUB SWAP1 RETURN JUMPDEST PUSH2 0x278 PUSH2 0x1E4E JUMP JUMPDEST PUSH1 0x40 MLOAD PUSH2 0x285 SWAP2 SWAP1 PUSH2 0x366E JUMP JUMPDEST PUSH1 0x40 MLOAD DUP1 SWAP2 SUB SWAP1 RETURN JUMPDEST PUSH2 0x2A8 PUSH1 0x4 DUP1 CALLDATASIZE SUB DUP2 ADD SWAP1 PUSH2 0x2A3 SWAP2 SWAP1 PUSH2 0x368E JUMP JUMPDEST PUSH2 0x1F22 JUMP JUMPDEST PUSH1 0x40 MLOAD PUSH2 0x2B5 SWAP2 SWAP1 PUSH2 0x36B9 JUMP JUMPDEST PUSH1 0x40 MLOAD DUP1 SWAP2 SUB SWAP1 RETURN JUMPDEST PUSH2 0x2D8 PUSH1 0x4 DUP1 CALLDATASIZE SUB DUP2 ADD SWAP1 PUSH2 0x2D3 SWAP2 SWAP1 PUSH2 0x3251 JUMP JUMPDEST PUSH2 0x1F52 JUMP JUMPDEST PUSH1 0x40 MLOAD PUSH2 0x2E5 SWAP2 SWAP1 PUSH2 0x36D2 JUMP JUMPDEST PUSH1 0x40 MLOAD DUP1 SWAP2 SUB SWAP1 RETURN JUMPDEST PUSH2 0x308 PUSH1 0x4 DUP1 CALLDATASIZE SUB DUP2 ADD SWAP1 PUSH2 0x303 SWAP2 SWAP1 PUSH2 0x34F6 JUMP JUMPDEST PUSH2 0x1F88 JUMP JUMPDEST PUSH1 0x40 MLOAD PUSH2 0x315 SWAP2 SWAP1 PUSH2 0x39CD JUMP JUMPDEST PUSH1 0x40 MLOAD DUP1 SWAP2 SUB SWAP1 RETURN JUMPDEST DUP1 PUSH1 0xB DUP2 PUSH1 0x40 MLOAD PUSH2 0x32F SWAP2 SWAP1 PUSH2 0x3A27 JUMP JUMPDEST SWAP1 DUP2 MSTORE PUSH1 0x20 ADD PUSH1 0x40 MLOAD DUP1 SWAP2 SUB SWAP1 KECCAK256 PUSH1 0x1 ADD PUSH0 SWAP1 SLOAD SWAP1 PUSH2 0x100 EXP SWAP1 DIV PUSH20 0xFFFFFFFFFFFFFFFFFFFFFFFFFFFFFFFFFFFFFFFF AND PUSH20 0xFFFFFFFFFFFFFFFFFFFFFFFFFFFFFFFFFFFFFFFF AND CALLER PUSH20 0xFFFFFFFFFFFFFFFFFFFFFFFFFFFFFFFFFFFFFFFF AND EQ PUSH2 0x3CD JUMPI PUSH1 0x40 MLOAD PUSH32 0x8C379A000000000000000000000000000000000000000000000000000000000 DUP2 MSTORE PUSH1 0x4 ADD PUSH2 0x3C4 SWAP1 PUSH2 0x3A87 JUMP JUMPDEST PUSH1 0x40 MLOAD DUP1 SWAP2 SUB SWAP1 REVERT JUMPDEST PUSH0 DUP4 GT PUSH2 0x40F JUMPI PUSH1 0x40 MLOAD PUSH32 0x8C379A000000000000000000000000000000000000000000000000000000000 DUP2 MSTORE PUSH1 0x4 ADD PUSH2 0x406 SWAP1 PUSH2 0x3AEF JUMP JUMPDEST PUSH1 0x40 MLOAD DUP1 SWAP2 SUB SWAP1 REVERT JUMPDEST PUSH0 PUSH1 0x9 PUSH0 DUP6 DUP2 MSTORE PUSH1 0x20 ADD SWAP1 DUP2 MSTORE PUSH1 0x20 ADD PUSH0 KECCAK256 PUSH0 SWAP1 SLOAD SWAP1 PUSH2 0x100 EXP SWAP1 DIV PUSH20 0xFFFFFFFFFFFFFFFFFFFFFFFFFFFFFFFFFFFFFFFF AND SWAP1 POP PUSH0 PUSH20 0xFFFFFFFFFFFFFFFFFFFFFFFFFFFFFFFFFFFFFFFF AND DUP2 PUSH20 0xFFFFFFFFFFFFFFFFFFFFFFFFFFFFFFFFFFFFFFFF AND SUB PUSH2 0x4B1 JUMPI PUSH1 0x40 MLOAD PUSH32 0x8C379A000000000000000000000000000000000000000000000000000000000 DUP2 MSTORE PUSH1 0x4 ADD PUSH2 0x4A8 SWAP1 PUSH2 0x3B7D JUMP JUMPDEST PUSH1 0x40 MLOAD DUP1 SWAP2 SUB SWAP1 REVERT JUMPDEST PUSH1 0x9 PUSH0 DUP6 DUP2 MSTORE PUSH1 0x20 ADD SWAP1 DUP2 MSTORE PUSH1 0x20 ADD PUSH0 KECCAK256 PUSH0 PUSH2 0x100 EXP DUP2 SLOAD SWAP1 PUSH20 0xFFFFFFFFFFFFFFFFFFFFFFFFFFFFFFFFFFFFFFFF MUL NOT AND SWAP1 SSTORE PUSH32 0x29B9CF4CF99649FC226B110C01D607258E50E9405CC00B66C37D2C457BC955D3 DUP2 DUP6 PUSH1 0x40 MLOAD PUSH2 0x515 SWAP3 SWAP2 SWAP1 PUSH2 0x3B9B JUMP JUMPDEST PUSH1 0x40 MLOAD DUP1 SWAP2 SUB SWAP1 LOG1 POP POP POP POP JUMP JUMPDEST PUSH0 DUP3 PUSH0 DUP1 JUMPDEST PUSH1 0xB DUP4 PUSH1 0x40 MLOAD PUSH2 0x538 SWAP2 SWAP1 PUSH2 0x3A27 JUMP JUMPDEST SWAP1 DUP2 MSTORE PUSH1 0x20 ADD PUSH1 0x40 MLOAD DUP1 SWAP2 SUB SWAP1 KECCAK256 PUSH1 0x3 ADD DUP1 SLOAD SWAP1 POP DUP2 LT ISZERO PUSH2 0x5F7 JUMPI PUSH1 0xB DUP4 PUSH1 0x40 MLOAD PUSH2 0x564 SWAP2 SWAP1 PUSH2 0x3A27 JUMP JUMPDEST SWAP1 DUP2 MSTORE PUSH1 0x20 ADD PUSH1 0x40 MLOAD DUP1 SWAP2 SUB SWAP1 KECCAK256 PUSH1 0x3 ADD DUP2 DUP2 SLOAD DUP2 LT PUSH2 0x587 JUMPI PUSH2 0x586 PUSH2 0x3BC2 JUMP JUMPDEST JUMPDEST SWAP1 PUSH0 MSTORE PUSH1 0x20 PUSH0 KECCAK256 ADD PUSH0 SWAP1 SLOAD SWAP1 PUSH2 0x100 EXP SWAP1 DIV PUSH20 0xFFFFFFFFFFFFFFFFFFFFFFFFFFFFFFFFFFFFFFFF AND PUSH20 0xFFFFFFFFFFFFFFFFFFFFFFFFFFFFFFFFFFFFFFFF AND CALLER PUSH20 0xFFFFFFFFFFFFFFFFFFFFFFFFFFFFFFFFFFFFFFFF AND SUB PUSH2 0x5EA JUMPI PUSH1 0x1 SWAP2 POP PUSH2 0x5F7 JUMP JUMPDEST DUP1 DUP1 PUSH1 0x1 ADD SWAP2 POP POP PUSH2 0x528 JUMP JUMPDEST POP DUP1 PUSH2 0x638 JUMPI PUSH1 0x40 MLOAD PUSH32 0x8C379A000000000000000000000000000000000000000000000000000000000 DUP2 MSTORE PUSH1 0x4 ADD PUSH2 0x62F SWAP1 PUSH2 0x3C5F JUMP JUMPDEST PUSH1 0x40 MLOAD DUP1 SWAP2 SUB SWAP1 REVERT JUMPDEST PUSH0 PUSH1 0xB DUP7 PUSH1 0x40 MLOAD PUSH2 0x649 SWAP2 SWAP1 PUSH2 0x3A27 JUMP JUMPDEST SWAP1 DUP2 MSTORE PUSH1 0x20 ADD PUSH1 0x40 MLOAD DUP1 SWAP2 SUB SWAP1 KECCAK256 PUSH1 0x40 MLOAD DUP1 PUSH2 0x120 ADD PUSH1 0x40 MSTORE SWAP1 DUP2 PUSH0 DUP3 ADD DUP1 SLOAD PUSH2 0x672 SWAP1 PUSH2 0x3CAA JUMP JUMPDEST DUP1 PUSH1 0x1F ADD PUSH1 0x20 DUP1 SWAP2 DIV MUL PUSH1 0x20 ADD PUSH1 0x40 MLOAD SWAP1 DUP2 ADD PUSH1 0x40 MSTORE DUP1 SWAP3 SWAP2 SWAP1 DUP2 DUP2 MSTORE PUSH1 0x20 ADD DUP3 DUP1 SLOAD PUSH2 0x69E SWAP1 PUSH2 0x3CAA JUMP JUMPDEST DUP1 ISZERO PUSH2 0x6E9 JUMPI DUP1 PUSH1 0x1F LT PUSH2 0x6C0 JUMPI PUSH2 0x100 DUP1 DUP4 SLOAD DIV MUL DUP4 MSTORE SWAP2 PUSH1 0x20 ADD SWAP2 PUSH2 0x6E9 JUMP JUMPDEST DUP3 ADD SWAP2 SWAP1 PUSH0 MSTORE PUSH1 0x20 PUSH0 KECCAK256 SWAP1 JUMPDEST DUP2 SLOAD DUP2 MSTORE SWAP1 PUSH1 0x1 ADD SWAP1 PUSH1 0x20 ADD DUP1 DUP4 GT PUSH2 0x6CC JUMPI DUP3 SWAP1 SUB PUSH1 0x1F AND DUP3 ADD SWAP2 JUMPDEST POP POP POP POP POP DUP2 MSTORE PUSH1 0x20 ADD PUSH1 0x1 DUP3 ADD PUSH0 SWAP1 SLOAD SWAP1 PUSH2 0x100 EXP SWAP1 DIV PUSH20 0xFFFFFFFFFFFFFFFFFFFFFFFFFFFFFFFFFFFFFFFF AND PUSH20 0xFFFFFFFFFFFFFFFFFFFFFFFFFFFFFFFFFFFFFFFF AND PUSH20 0xFFFFFFFFFFFFFFFFFFFFFFFFFFFFFFFFFFFFFFFF AND DUP2 MSTORE PUSH1 0x20 ADD PUSH1 0x2 DUP3 ADD PUSH0 SWAP1 SLOAD SWAP1 PUSH2 0x100 EXP SWAP1 DIV PUSH20 0xFFFFFFFFFFFFFFFFFFFFFFFFFFFFFFFFFFFFFFFF AND PUSH20 0xFFFFFFFFFFFFFFFFFFFFFFFFFFFFFFFFFFFFFFFF AND PUSH20 0xFFFFFFFFFFFFFFFFFFFFFFFFFFFFFFFFFFFFFFFF AND DUP2 MSTORE PUSH1 0x20 ADD PUSH1 0x3 DUP3 ADD DUP1 SLOAD DUP1 PUSH1 0x20 MUL PUSH1 0x20 ADD PUSH1 0x40 MLOAD SWAP1 DUP2 ADD PUSH1 0x40 MSTORE DUP1 SWAP3 SWAP2 SWAP1 DUP2 DUP2 MSTORE PUSH1 0x20 ADD DUP3 DUP1 SLOAD DUP1 ISZERO PUSH2 0x81E JUMPI PUSH1 0x20 MUL DUP3 ADD SWAP2 SWAP1 PUSH0 MSTORE PUSH1 0x20 PUSH0 KECCAK256 SWAP1 JUMPDEST DUP2 PUSH0 SWAP1 SLOAD SWAP1 PUSH2 0x100 EXP SWAP1 DIV PUSH20 0xFFFFFFFFFFFFFFFFFFFFFFFFFFFFFFFFFFFFFFFF AND PUSH20 0xFFFFFFFFFFFFFFFFFFFFFFFFFFFFFFFFFFFFFFFF AND DUP2 MSTORE PUSH1 0x20 ADD SWAP1 PUSH1 0x1 ADD SWAP1 DUP1 DUP4 GT PUSH2 0x7D5 JUMPI JUMPDEST POP POP POP POP POP DUP2 MSTORE PUSH1 0x20 ADD PUSH1 0x4 DUP3 ADD DUP1 SLOAD DUP1 PUSH1 0x20 MUL PUSH1 0x20 ADD PUSH1 0x40 MLOAD SWAP1 DUP2 ADD PUSH1 0x40 MSTORE DUP1 SWAP3 SWAP2 SWAP1 DUP2 DUP2 MSTORE PUSH1 0x20 ADD PUSH0 SWAP1 JUMPDEST DUP3 DUP3 LT ISZERO PUSH2 0x8F3 JUMPI DUP4 DUP3 SWAP1 PUSH0 MSTORE PUSH1 0x20 PUSH0 KECCAK256 ADD DUP1 SLOAD PUSH2 0x868 SWAP1 PUSH2 0x3CAA JUMP JUMPDEST DUP1 PUSH1 0x1F ADD PUSH1 0x20 DUP1 SWAP2 DIV MUL PUSH1 0x20 ADD PUSH1 0x40 MLOAD SWAP1 DUP2 ADD PUSH1 0x40 MSTORE DUP1 SWAP3 SWAP2 SWAP1 DUP2 DUP2 MSTORE PUSH1 0x20 ADD DUP3 DUP1 SLOAD PUSH2 0x894 SWAP1 PUSH2 0x3CAA JUMP JUMPDEST DUP1 ISZERO PUSH2 0x8DF JUMPI DUP1 PUSH1 0x1F LT PUSH2 0x8B6 JUMPI PUSH2 0x100 DUP1 DUP4 SLOAD DIV MUL DUP4 MSTORE SWAP2 PUSH1 0x20 ADD SWAP2 PUSH2 0x8DF JUMP JUMPDEST DUP3 ADD SWAP2 SWAP1 PUSH0 MSTORE PUSH1 0x20 PUSH0 KECCAK256 SWAP1 JUMPDEST DUP2 SLOAD DUP2 MSTORE SWAP1 PUSH1 0x1 ADD SWAP1 PUSH1 0x20 ADD DUP1 DUP4 GT PUSH2 0x8C2 JUMPI DUP3 SWAP1 SUB PUSH1 0x1F AND DUP3 ADD SWAP2 JUMPDEST POP POP POP POP POP DUP2 MSTORE PUSH1 0x20 ADD SWAP1 PUSH1 0x1 ADD SWAP1 PUSH2 0x84B JUMP JUMPDEST POP POP POP POP DUP2 MSTORE PUSH1 0x20 ADD PUSH1 0x5 DUP3 ADD DUP1 SLOAD DUP1 PUSH1 0x20 MUL PUSH1 0x20 ADD PUSH1 0x40 MLOAD SWAP1 DUP2 ADD PUSH1 0x40 MSTORE DUP1 SWAP3 SWAP2 SWAP1 DUP2 DUP2 MSTORE PUSH1 0x20 ADD PUSH0 SWAP1 JUMPDEST DUP3 DUP3 LT ISZERO PUSH2 0x9C7 JUMPI DUP4 DUP3 SWAP1 PUSH0 MSTORE PUSH1 0x20 PUSH0 KECCAK256 ADD DUP1 SLOAD PUSH2 0x93C SWAP1 PUSH2 0x3CAA JUMP JUMPDEST DUP1 PUSH1 0x1F ADD PUSH1 0x20 DUP1 SWAP2 DIV MUL PUSH1 0x20 ADD PUSH1 0x40 MLOAD SWAP1 DUP2 ADD PUSH1 0x40 MSTORE DUP1 SWAP3 SWAP2 SWAP1 DUP2 DUP2 MSTORE PUSH1 0x20 ADD DUP3 DUP1 SLOAD PUSH2 0x968 SWAP1 PUSH2 0x3CAA JUMP JUMPDEST DUP1 ISZERO PUSH2 0x9B3 JUMPI DUP1 PUSH1 0x1F LT PUSH2 0x98A JUMPI PUSH2 0x100 DUP1 DUP4 SLOAD DIV MUL DUP4 MSTORE SWAP2 PUSH1 0x20 ADD SWAP2 PUSH2 0x9B3 JUMP JUMPDEST DUP3 ADD SWAP2 SWAP1 PUSH0 MSTORE PUSH1 0x20 PUSH0 KECCAK256 SWAP1 JUMPDEST DUP2 SLOAD DUP2 MSTORE SWAP1 PUSH1 0x1 ADD SWAP1 PUSH1 0x20 ADD DUP1 DUP4 GT PUSH2 0x996 JUMPI DUP3 SWAP1 SUB PUSH1 0x1F AND DUP3 ADD SWAP2 JUMPDEST POP POP POP POP POP DUP2 MSTORE PUSH1 0x20 ADD SWAP1 PUSH1 0x1 ADD SWAP1 PUSH2 0x91F JUMP JUMPDEST POP POP POP POP DUP2 MSTORE PUSH1 0x20 ADD PUSH1 0x6 DUP3 ADD DUP1 SLOAD DUP1 PUSH1 0x20 MUL PUSH1 0x20 ADD PUSH1 0x40 MLOAD SWAP1 DUP2 ADD PUSH1 0x40 MSTORE DUP1 SWAP3 SWAP2 SWAP1 DUP2 DUP2 MSTORE PUSH1 0x20 ADD PUSH0 SWAP1 JUMPDEST DUP3 DUP3 LT ISZERO PUSH2 0xA9B JUMPI DUP4 DUP3 SWAP1 PUSH0 MSTORE PUSH1 0x20 PUSH0 KECCAK256 ADD DUP1 SLOAD PUSH2 0xA10 SWAP1 PUSH2 0x3CAA JUMP JUMPDEST DUP1 PUSH1 0x1F ADD PUSH1 0x20 DUP1 SWAP2 DIV MUL PUSH1 0x20 ADD PUSH1 0x40 MLOAD SWAP1 DUP2 ADD PUSH1 0x40 MSTORE DUP1 SWAP3 SWAP2 SWAP1 DUP2 DUP2 MSTORE PUSH1 0x20 ADD DUP3 DUP1 SLOAD PUSH2 0xA3C SWAP1 PUSH2 0x3CAA JUMP JUMPDEST DUP1 ISZERO PUSH2 0xA87 JUMPI DUP1 PUSH1 0x1F LT PUSH2 0xA5E JUMPI PUSH2 0x100 DUP1 DUP4 SLOAD DIV MUL DUP4 MSTORE SWAP2 PUSH1 0x20 ADD SWAP2 PUSH2 0xA87 JUMP JUMPDEST DUP3 ADD SWAP2 SWAP1 PUSH0 MSTORE PUSH1 0x20 PUSH0 KECCAK256 SWAP1 JUMPDEST DUP2 SLOAD DUP2 MSTORE SWAP1 PUSH1 0x1 ADD SWAP1 PUSH1 0x20 ADD DUP1 DUP4 GT PUSH2 0xA6A JUMPI DUP3 SWAP1 SUB PUSH1 0x1F AND DUP3 ADD SWAP2 JUMPDEST POP POP POP POP POP DUP2 MSTORE PUSH1 0x20 ADD SWAP1 PUSH1 0x1 ADD SWAP1 PUSH2 0x9F3 JUMP JUMPDEST POP POP POP POP DUP2 MSTORE PUSH1 0x20 ADD PUSH1 0x7 DUP3 ADD SLOAD DUP2 MSTORE PUSH1 0x20 ADD PUSH1 0x8 DUP3 ADD SLOAD DUP2 MSTORE POP POP SWAP1 POP DUP5 DUP2 PUSH1 0xA0 ADD DUP2 SWAP1 MSTORE POP DUP1 PUSH1 0xB DUP8 PUSH1 0x40 MLOAD PUSH2 0xAD3 SWAP2 SWAP1 PUSH2 0x3A27 JUMP JUMPDEST SWAP1 DUP2 MSTORE PUSH1 0x20 ADD PUSH1 0x40 MLOAD DUP1 SWAP2 SUB SWAP1 KECCAK256 PUSH0 DUP3 ADD MLOAD DUP2 PUSH0 ADD SWAP1 DUP2 PUSH2 0xAF4 SWAP2 SWAP1 PUSH2 0x3E77 JUMP JUMPDEST POP PUSH1 0x20 DUP3 ADD MLOAD DUP2 PUSH1 0x1 ADD PUSH0 PUSH2 0x100 EXP DUP2 SLOAD DUP2 PUSH20 0xFFFFFFFFFFFFFFFFFFFFFFFFFFFFFFFFFFFFFFFF MUL NOT AND SWAP1 DUP4 PUSH20 0xFFFFFFFFFFFFFFFFFFFFFFFFFFFFFFFFFFFFFFFF AND MUL OR SWAP1 SSTORE POP PUSH1 0x40 DUP3 ADD MLOAD DUP2 PUSH1 0x2 ADD PUSH0 PUSH2 0x100 EXP DUP2 SLOAD DUP2 PUSH20 0xFFFFFFFFFFFFFFFFFFFFFFFFFFFFFFFFFFFFFFFF MUL NOT AND SWAP1 DUP4 PUSH20 0xFFFFFFFFFFFFFFFFFFFFFFFFFFFFFFFFFFFFFFFF AND MUL OR SWAP1 SSTORE POP PUSH1 0x60 DUP3 ADD MLOAD DUP2 PUSH1 0x3 ADD SWAP1 DUP1 MLOAD SWAP1 PUSH1 0x20 ADD SWAP1 PUSH2 0xB9D SWAP3 SWAP2 SWAP1 PUSH2 0x2C42 JUMP JUMPDEST POP PUSH1 0x80 DUP3 ADD MLOAD DUP2 PUSH1 0x4 ADD SWAP1 DUP1 MLOAD SWAP1 PUSH1 0x20 ADD SWAP1 PUSH2 0xBBA SWAP3 SWAP2 SWAP1 PUSH2 0x2CC9 JUMP JUMPDEST POP PUSH1 0xA0 DUP3 ADD MLOAD DUP2 PUSH1 0x5 ADD SWAP1 DUP1 MLOAD SWAP1 PUSH1 0x20 ADD SWAP1 PUSH2 0xBD7 SWAP3 SWAP2 SWAP1 PUSH2 0x2CC9 JUMP JUMPDEST POP PUSH1 0xC0 DUP3 ADD MLOAD DUP2 PUSH1 0x6 ADD SWAP1 DUP1 MLOAD SWAP1 PUSH1 0x20 ADD SWAP1 PUSH2 0xBF4 SWAP3 SWAP2 SWAP1 PUSH2 0x2CC9 JUMP JUMPDEST POP PUSH1 0xE0 DUP3 ADD MLOAD DUP2 PUSH1 0x7 ADD SSTORE PUSH2 0x100 DUP3 ADD MLOAD DUP2 PUSH1 0x8 ADD SSTORE SWAP1 POP POP PUSH1 0x1 SWAP4 POP POP POP POP SWAP3 SWAP2 POP POP JUMP JUMPDEST PUSH0 DUP1 PUSH0 PUSH1 0x2 PUSH0 SWAP1 SLOAD SWAP1 PUSH2 0x100 EXP SWAP1 DIV PUSH20 0xFFFFFFFFFFFFFFFFFFFFFFFFFFFFFFFFFFFFFFFF AND PUSH20 0xFFFFFFFFFFFFFFFFFFFFFFFFFFFFFFFFFFFFFFFF AND CALLER PUSH1 0x40 MLOAD PUSH1 0x24 ADD PUSH2 0xC66 SWAP2 SWAP1 PUSH2 0x36B9 JUMP JUMPDEST PUSH1 0x40 MLOAD PUSH1 0x20 DUP2 DUP4 SUB SUB DUP2 MSTORE SWAP1 PUSH1 0x40 MSTORE PUSH32 0xF7BEA9F300000000000000000000000000000000000000000000000000000000 PUSH28 0xFFFFFFFFFFFFFFFFFFFFFFFFFFFFFFFFFFFFFFFFFFFFFFFFFFFFFFFF NOT AND PUSH1 0x20 DUP3 ADD DUP1 MLOAD PUSH28 0xFFFFFFFFFFFFFFFFFFFFFFFFFFFFFFFFFFFFFFFFFFFFFFFFFFFFFFFF DUP4 DUP2 DUP4 AND OR DUP4 MSTORE POP POP POP POP PUSH1 0x40 MLOAD PUSH2 0xCF0 SWAP2 SWAP1 PUSH2 0x3F8A JUMP JUMPDEST PUSH0 PUSH1 0x40 MLOAD DUP1 DUP4 SUB DUP2 DUP6 GAS DELEGATECALL SWAP2 POP POP RETURNDATASIZE DUP1 PUSH0 DUP2 EQ PUSH2 0xD28 JUMPI PUSH1 0x40 MLOAD SWAP2 POP PUSH1 0x1F NOT PUSH1 0x3F RETURNDATASIZE ADD AND DUP3 ADD PUSH1 0x40 MSTORE RETURNDATASIZE DUP3 MSTORE RETURNDATASIZE PUSH0 PUSH1 0x20 DUP5 ADD RETURNDATACOPY PUSH2 0xD2D JUMP JUMPDEST PUSH1 0x60 SWAP2 POP JUMPDEST POP SWAP2 POP SWAP2 POP DUP2 PUSH2 0xD72 JUMPI PUSH1 0x40 MLOAD PUSH32 0x8C379A000000000000000000000000000000000000000000000000000000000 DUP2 MSTORE PUSH1 0x4 ADD PUSH2 0xD69 SWAP1 PUSH2 0x3FEA JUMP JUMPDEST PUSH1 0x40 MLOAD DUP1 SWAP2 SUB SWAP1 REVERT JUMPDEST PUSH0 DUP2 DUP1 PUSH1 0x20 ADD SWAP1 MLOAD DUP2 ADD SWAP1 PUSH2 0xD87 SWAP2 SWAP1 PUSH2 0x4032 JUMP JUMPDEST SWAP1 POP DUP1 PUSH2 0xDC9 JUMPI PUSH1 0x40 MLOAD PUSH32 0x8C379A000000000000000000000000000000000000000000000000000000000 DUP2 MSTORE PUSH1 0x4 ADD PUSH2 0xDC0 SWAP1 PUSH2 0x40CD JUMP JUMPDEST PUSH1 0x40 MLOAD DUP1 SWAP2 SUB SWAP1 REVERT JUMPDEST PUSH0 DUP1 PUSH1 0x3 PUSH0 SWAP1 SLOAD SWAP1 PUSH2 0x100 EXP SWAP1 DIV PUSH20 0xFFFFFFFFFFFFFFFFFFFFFFFFFFFFFFFFFFFFFFFF AND PUSH20 0xFFFFFFFFFFFFFFFFFFFFFFFFFFFFFFFFFFFFFFFF AND DUP11 PUSH1 0x40 MLOAD PUSH1 0x24 ADD PUSH2 0xE14 SWAP2 SWAP1 PUSH2 0x40EB JUMP JUMPDEST PUSH1 0x40 MLOAD PUSH1 0x20 DUP2 DUP4 SUB SUB DUP2 MSTORE SWAP1 PUSH1 0x40 MSTORE PUSH32 0xAE1574DB00000000000000000000000000000000000000000000000000000000 PUSH28 0xFFFFFFFFFFFFFFFFFFFFFFFFFFFFFFFFFFFFFFFFFFFFFFFFFFFFFFFF NOT AND PUSH1 0x20 DUP3 ADD DUP1 MLOAD PUSH28 0xFFFFFFFFFFFFFFFFFFFFFFFFFFFFFFFFFFFFFFFFFFFFFFFFFFFFFFFF DUP4 DUP2 DUP4 AND OR DUP4 MSTORE POP POP POP POP PUSH1 0x40 MLOAD PUSH2 0xE9E SWAP2 SWAP1 PUSH2 0x3F8A JUMP JUMPDEST PUSH0 PUSH1 0x40 MLOAD DUP1 DUP4 SUB DUP2 DUP6 GAS DELEGATECALL SWAP2 POP POP RETURNDATASIZE DUP1 PUSH0 DUP2 EQ PUSH2 0xED6 JUMPI PUSH1 0x40 MLOAD SWAP2 POP PUSH1 0x1F NOT PUSH1 0x3F RETURNDATASIZE ADD AND DUP3 ADD PUSH1 0x40 MSTORE RETURNDATASIZE DUP3 MSTORE RETURNDATASIZE PUSH0 PUSH1 0x20 DUP5 ADD RETURNDATACOPY PUSH2 0xEDB JUMP JUMPDEST PUSH1 0x60 SWAP2 POP JUMPDEST POP SWAP2 POP SWAP2 POP DUP2 PUSH2 0xF20 JUMPI PUSH1 0x40 MLOAD PUSH32 0x8C379A000000000000000000000000000000000000000000000000000000000 DUP2 MSTORE PUSH1 0x4 ADD PUSH2 0xF17 SWAP1 PUSH2 0x4155 JUMP JUMPDEST PUSH1 0x40 MLOAD DUP1 SWAP2 SUB SWAP1 REVERT JUMPDEST PUSH0 DUP2 DUP1 PUSH1 0x20 ADD SWAP1 MLOAD DUP2 ADD SWAP1 PUSH2 0xF35 SWAP2 SWAP1 PUSH2 0x41AE JUMP JUMPDEST SWAP1 POP PUSH0 PUSH2 0xF45 DUP15 DUP15 DUP14 DUP14 DUP14 PUSH2 0x258D JUMP JUMPDEST SWAP1 POP PUSH1 0xA DUP2 SWAP1 DUP1 PUSH1 0x1 DUP2 SLOAD ADD DUP1 DUP3 SSTORE DUP1 SWAP2 POP POP PUSH1 0x1 SWAP1 SUB SWAP1 PUSH0 MSTORE PUSH1 0x20 PUSH0 KECCAK256 ADD PUSH0 SWAP1 SWAP2 SWAP1 SWAP2 SWAP1 SWAP2 POP SWAP1 DUP2 PUSH2 0xF78 SWAP2 SWAP1 PUSH2 0x3E77 JUMP JUMPDEST POP PUSH1 0x60 DUP1 PUSH1 0x60 DUP1 PUSH0 DUP1 PUSH0 PUSH1 0x40 MLOAD DUP1 PUSH2 0x120 ADD PUSH1 0x40 MSTORE DUP1 DUP10 DUP2 MSTORE PUSH1 0x20 ADD DUP11 PUSH20 0xFFFFFFFFFFFFFFFFFFFFFFFFFFFFFFFFFFFFFFFF AND DUP2 MSTORE PUSH1 0x20 ADD PUSH0 PUSH20 0xFFFFFFFFFFFFFFFFFFFFFFFFFFFFFFFFFFFFFFFF AND DUP2 MSTORE PUSH1 0x20 ADD DUP9 DUP2 MSTORE PUSH1 0x20 ADD DUP8 DUP2 MSTORE PUSH1 0x20 ADD DUP7 DUP2 MSTORE PUSH1 0x20 ADD DUP6 DUP2 MSTORE PUSH1 0x20 ADD DUP5 DUP2 MSTORE PUSH1 0x20 ADD DUP4 DUP2 MSTORE POP SWAP1 POP DUP1 PUSH1 0xB DUP10 PUSH1 0x40 MLOAD PUSH2 0x1001 SWAP2 SWAP1 PUSH2 0x3A27 JUMP JUMPDEST SWAP1 DUP2 MSTORE PUSH1 0x20 ADD PUSH1 0x40 MLOAD DUP1 SWAP2 SUB SWAP1 KECCAK256 PUSH0 DUP3 ADD MLOAD DUP2 PUSH0 ADD SWAP1 DUP2 PUSH2 0x1022 SWAP2 SWAP1 PUSH2 0x3E77 JUMP JUMPDEST POP PUSH1 0x20 DUP3 ADD MLOAD DUP2 PUSH1 0x1 ADD PUSH0 PUSH2 0x100 EXP DUP2 SLOAD DUP2 PUSH20 0xFFFFFFFFFFFFFFFFFFFFFFFFFFFFFFFFFFFFFFFF MUL NOT AND SWAP1 DUP4 PUSH20 0xFFFFFFFFFFFFFFFFFFFFFFFFFFFFFFFFFFFFFFFF AND MUL OR SWAP1 SSTORE POP PUSH1 0x40 DUP3 ADD MLOAD DUP2 PUSH1 0x2 ADD PUSH0 PUSH2 0x100 EXP DUP2 SLOAD DUP2 PUSH20 0xFFFFFFFFFFFFFFFFFFFFFFFFFFFFFFFFFFFFFFFF MUL NOT AND SWAP1 DUP4 PUSH20 0xFFFFFFFFFFFFFFFFFFFFFFFFFFFFFFFFFFFFFFFF AND MUL OR SWAP1 SSTORE POP PUSH1 0x60 DUP3 ADD MLOAD DUP2 PUSH1 0x3 ADD SWAP1 DUP1 MLOAD SWAP1 PUSH1 0x20 ADD SWAP1 PUSH2 0x10CB SWAP3 SWAP2 SWAP1 PUSH2 0x2C42 JUMP JUMPDEST POP PUSH1 0x80 DUP3 ADD MLOAD DUP2 PUSH1 0x4 ADD SWAP1 DUP1 MLOAD SWAP1 PUSH1 0x20 ADD SWAP1 PUSH2 0x10E8 SWAP3 SWAP2 SWAP1 PUSH2 0x2CC9 JUMP JUMPDEST POP PUSH1 0xA0 DUP3 ADD MLOAD DUP2 PUSH1 0x5 ADD SWAP1 DUP1 MLOAD SWAP1 PUSH1 0x20 ADD SWAP1 PUSH2 0x1105 SWAP3 SWAP2 SWAP1 PUSH2 0x2CC9 JUMP JUMPDEST POP PUSH1 0xC0 DUP3 ADD MLOAD DUP2 PUSH1 0x6 ADD SWAP1 DUP1 MLOAD SWAP1 PUSH1 0x20 ADD SWAP1 PUSH2 0x1122 SWAP3 SWAP2 SWAP1 PUSH2 0x2CC9 JUMP JUMPDEST POP PUSH1 0xE0 DUP3 ADD MLOAD DUP2 PUSH1 0x7 ADD SSTORE PUSH2 0x100 DUP3 ADD MLOAD DUP2 PUSH1 0x8 ADD SSTORE SWAP1 POP POP PUSH1 0x1 SWAP15 POP POP POP POP POP POP POP POP POP POP POP POP POP POP POP SWAP7 SWAP6 POP POP POP POP POP POP JUMP JUMPDEST DUP1 PUSH1 0xB DUP2 PUSH1 0x40 MLOAD PUSH2 0x1168 SWAP2 SWAP1 PUSH2 0x3A27 JUMP JUMPDEST SWAP1 DUP2 MSTORE PUSH1 0x20 ADD PUSH1 0x40 MLOAD DUP1 SWAP2 SUB SWAP1 KECCAK256 PUSH1 0x1 ADD PUSH0 SWAP1 SLOAD SWAP1 PUSH2 0x100 EXP SWAP1 DIV PUSH20 0xFFFFFFFFFFFFFFFFFFFFFFFFFFFFFFFFFFFFFFFF AND PUSH20 0xFFFFFFFFFFFFFFFFFFFFFFFFFFFFFFFFFFFFFFFF AND CALLER PUSH20 0xFFFFFFFFFFFFFFFFFFFFFFFFFFFFFFFFFFFFFFFF AND EQ PUSH2 0x1206 JUMPI PUSH1 0x40 MLOAD PUSH32 0x8C379A000000000000000000000000000000000000000000000000000000000 DUP2 MSTORE PUSH1 0x4 ADD PUSH2 0x11FD SWAP1 PUSH2 0x3A87 JUMP JUMPDEST PUSH1 0x40 MLOAD DUP1 SWAP2 SUB SWAP1 REVERT JUMPDEST PUSH0 DUP4 GT PUSH2 0x1248 JUMPI PUSH1 0x40 MLOAD PUSH32 0x8C379A000000000000000000000000000000000000000000000000000000000 DUP2 MSTORE PUSH1 0x4 ADD PUSH2 0x123F SWAP1 PUSH2 0x3AEF JUMP JUMPDEST PUSH1 0x40 MLOAD DUP1 SWAP2 SUB SWAP1 REVERT JUMPDEST PUSH0 PUSH1 0x8 DUP4 PUSH1 0x40 MLOAD PUSH2 0x1259 SWAP2 SWAP1 PUSH2 0x3A27 JUMP JUMPDEST SWAP1 DUP2 MSTORE PUSH1 0x20 ADD PUSH1 0x40 MLOAD DUP1 SWAP2 SUB SWAP1 KECCAK256 SWAP1 POP PUSH0 PUSH1 0x2 DUP2 GT ISZERO PUSH2 0x127C JUMPI PUSH2 0x127B PUSH2 0x32E6 JUMP JUMPDEST JUMPDEST DUP2 PUSH1 0x2 ADD PUSH0 SWAP1 SLOAD SWAP1 PUSH2 0x100 EXP SWAP1 DIV PUSH1 0xFF AND PUSH1 0x2 DUP2 GT ISZERO PUSH2 0x129F JUMPI PUSH2 0x129E PUSH2 0x32E6 JUMP JUMPDEST JUMPDEST EQ PUSH2 0x12DF JUMPI PUSH1 0x40 MLOAD PUSH32 0x8C379A000000000000000000000000000000000000000000000000000000000 DUP2 MSTORE PUSH1 0x4 ADD PUSH2 0x12D6 SWAP1 PUSH2 0x4223 JUMP JUMPDEST PUSH1 0x40 MLOAD DUP1 SWAP2 SUB SWAP1 REVERT JUMPDEST PUSH1 0x1 DUP2 PUSH1 0x2 ADD PUSH0 PUSH2 0x100 EXP DUP2 SLOAD DUP2 PUSH1 0xFF MUL NOT AND SWAP1 DUP4 PUSH1 0x2 DUP2 GT ISZERO PUSH2 0x1306 JUMPI PUSH2 0x1305 PUSH2 0x32E6 JUMP JUMPDEST JUMPDEST MUL OR SWAP1 SSTORE POP DUP1 PUSH0 ADD PUSH0 SWAP1 SLOAD SWAP1 PUSH2 0x100 EXP SWAP1 DIV PUSH20 0xFFFFFFFFFFFFFFFFFFFFFFFFFFFFFFFFFFFFFFFF AND PUSH1 0x9 PUSH0 DUP7 DUP2 MSTORE PUSH1 0x20 ADD SWAP1 DUP2 MSTORE PUSH1 0x20 ADD PUSH0 KECCAK256 PUSH0 PUSH2 0x100 EXP DUP2 SLOAD DUP2 PUSH20 0xFFFFFFFFFFFFFFFFFFFFFFFFFFFFFFFFFFFFFFFF MUL NOT AND SWAP1 DUP4 PUSH20 0xFFFFFFFFFFFFFFFFFFFFFFFFFFFFFFFFFFFFFFFF AND MUL OR SWAP1 SSTORE POP PUSH32 0xAC0275F9EAEA68F95D0CF1713B52DF59C7C8C29E9F7A77A0A235D326CB84655 DUP2 PUSH0 ADD PUSH0 SWAP1 SLOAD SWAP1 PUSH2 0x100 EXP SWAP1 DIV PUSH20 0xFFFFFFFFFFFFFFFFFFFFFFFFFFFFFFFFFFFFFFFF AND DUP6 PUSH1 0x40 MLOAD PUSH2 0x13CF SWAP3 SWAP2 SWAP1 PUSH2 0x3B9B JUMP JUMPDEST PUSH1 0x40 MLOAD DUP1 SWAP2 SUB SWAP1 LOG1 POP POP POP POP JUMP JUMPDEST PUSH1 0x8 DUP2 DUP1 MLOAD PUSH1 0x20 DUP2 ADD DUP3 ADD DUP1 MLOAD DUP5 DUP3 MSTORE PUSH1 0x20 DUP4 ADD PUSH1 0x20 DUP6 ADD KECCAK256 DUP2 DUP4 MSTORE DUP1 SWAP6 POP POP POP POP POP POP PUSH0 SWAP2 POP SWAP1 POP DUP1 PUSH0 ADD PUSH0 SWAP1 SLOAD SWAP1 PUSH2 0x100 EXP SWAP1 DIV PUSH20 0xFFFFFFFFFFFFFFFFFFFFFFFFFFFFFFFFFFFFFFFF AND SWAP1 DUP1 PUSH1 0x1 ADD SLOAD SWAP1 DUP1 PUSH1 0x2 ADD PUSH0 SWAP1 SLOAD SWAP1 PUSH2 0x100 EXP SWAP1 DIV PUSH1 0xFF AND SWAP1 POP DUP4 JUMP JUMPDEST DUP1 PUSH1 0xB DUP2 PUSH1 0x40 MLOAD PUSH2 0x1457 SWAP2 SWAP1 PUSH2 0x3A27 JUMP JUMPDEST SWAP1 DUP2 MSTORE PUSH1 0x20 ADD PUSH1 0x40 MLOAD DUP1 SWAP2 SUB SWAP1 KECCAK256 PUSH1 0x1 ADD PUSH0 SWAP1 SLOAD SWAP1 PUSH2 0x100 EXP SWAP1 DIV PUSH20 0xFFFFFFFFFFFFFFFFFFFFFFFFFFFFFFFFFFFFFFFF AND PUSH20 0xFFFFFFFFFFFFFFFFFFFFFFFFFFFFFFFFFFFFFFFF AND CALLER PUSH20 0xFFFFFFFFFFFFFFFFFFFFFFFFFFFFFFFFFFFFFFFF AND EQ PUSH2 0x14F5 JUMPI PUSH1 0x40 MLOAD PUSH32 0x8C379A000000000000000000000000000000000000000000000000000000000 DUP2 MSTORE PUSH1 0x4 ADD PUSH2 0x14EC SWAP1 PUSH2 0x3A87 JUMP JUMPDEST PUSH1 0x40 MLOAD DUP1 SWAP2 SUB SWAP1 REVERT JUMPDEST PUSH0 PUSH20 0xFFFFFFFFFFFFFFFFFFFFFFFFFFFFFFFFFFFFFFFF AND DUP5 PUSH20 0xFFFFFFFFFFFFFFFFFFFFFFFFFFFFFFFFFFFFFFFF AND SUB PUSH2 0x1563 JUMPI PUSH1 0x40 MLOAD PUSH32 0x8C379A000000000000000000000000000000000000000000000000000000000 DUP2 MSTORE PUSH1 0x4 ADD PUSH2 0x155A SWAP1 PUSH2 0x428B JUMP JUMPDEST PUSH1 0x40 MLOAD DUP1 SWAP2 SUB SWAP1 REVERT JUMPDEST PUSH0 DUP4 GT PUSH2 0x15A5 JUMPI PUSH1 0x40 MLOAD PUSH32 0x8C379A000000000000000000000000000000000000000000000000000000000 DUP2 MSTORE PUSH1 0x4 ADD PUSH2 0x159C SWAP1 PUSH2 0x3AEF JUMP JUMPDEST PUSH1 0x40 MLOAD DUP1 SWAP2 SUB SWAP1 REVERT JUMPDEST DUP4 PUSH1 0x9 PUSH0 DUP6 DUP2 MSTORE PUSH1 0x20 ADD SWAP1 DUP2 MSTORE PUSH1 0x20 ADD PUSH0 KECCAK256 PUSH0 PUSH2 0x100 EXP DUP2 SLOAD DUP2 PUSH20 0xFFFFFFFFFFFFFFFFFFFFFFFFFFFFFFFFFFFFFFFF MUL NOT AND SWAP1 DUP4 PUSH20 0xFFFFFFFFFFFFFFFFFFFFFFFFFFFFFFFFFFFFFFFF AND MUL OR SWAP1 SSTORE POP PUSH32 0x388A02087A25FD167BFA388E0932BC2766B3D4B3C6632A540EFAFA245713279 DUP5 DUP5 PUSH1 0x40 MLOAD PUSH2 0x1625 SWAP3 SWAP2 SWAP1 PUSH2 0x3B9B JUMP JUMPDEST PUSH1 0x40 MLOAD DUP1 SWAP2 SUB SWAP1 LOG1 POP POP POP POP JUMP JUMPDEST PUSH1 0xB DUP2 DUP1 MLOAD PUSH1 0x20 DUP2 ADD DUP3 ADD DUP1 MLOAD DUP5 DUP3 MSTORE PUSH1 0x20 DUP4 ADD PUSH1 0x20 DUP6 ADD KECCAK256 DUP2 DUP4 MSTORE DUP1 SWAP6 POP POP POP POP POP POP PUSH0 SWAP2 POP SWAP1 POP DUP1 PUSH0 ADD DUP1 SLOAD PUSH2 0x166A SWAP1 PUSH2 0x3CAA JUMP JUMPDEST DUP1 PUSH1 0x1F ADD PUSH1 0x20 DUP1 SWAP2 DIV MUL PUSH1 0x20 ADD PUSH1 0x40 MLOAD SWAP1 DUP2 ADD PUSH1 0x40 MSTORE DUP1 SWAP3 SWAP2 SWAP1 DUP2 DUP2 MSTORE PUSH1 0x20 ADD DUP3 DUP1 SLOAD PUSH2 0x1696 SWAP1 PUSH2 0x3CAA JUMP JUMPDEST DUP1 ISZERO PUSH2 0x16E1 JUMPI DUP1 PUSH1 0x1F LT PUSH2 0x16B8 JUMPI PUSH2 0x100 DUP1 DUP4 SLOAD DIV MUL DUP4 MSTORE SWAP2 PUSH1 0x20 ADD SWAP2 PUSH2 0x16E1 JUMP JUMPDEST DUP3 ADD SWAP2 SWAP1 PUSH0 MSTORE PUSH1 0x20 PUSH0 KECCAK256 SWAP1 JUMPDEST DUP2 SLOAD DUP2 MSTORE SWAP1 PUSH1 0x1 ADD SWAP1 PUSH1 0x20 ADD DUP1 DUP4 GT PUSH2 0x16C4 JUMPI DUP3 SWAP1 SUB PUSH1 0x1F AND DUP3 ADD SWAP2 JUMPDEST POP POP POP POP POP SWAP1 DUP1 PUSH1 0x1 ADD PUSH0 SWAP1 SLOAD SWAP1 PUSH2 0x100 EXP SWAP1 DIV PUSH20 0xFFFFFFFFFFFFFFFFFFFFFFFFFFFFFFFFFFFFFFFF AND SWAP1 DUP1 PUSH1 0x2 ADD PUSH0 SWAP1 SLOAD SWAP1 PUSH2 0x100 EXP SWAP1 DIV PUSH20 0xFFFFFFFFFFFFFFFFFFFFFFFFFFFFFFFFFFFFFFFF AND SWAP1 DUP1 PUSH1 0x7 ADD SLOAD SWAP1 DUP1 PUSH1 0x8 ADD SLOAD SWAP1 POP DUP6 JUMP JUMPDEST DUP1 PUSH1 0xB DUP2 PUSH1 0x40 MLOAD PUSH2 0x1752 SWAP2 SWAP1 PUSH2 0x3A27 JUMP JUMPDEST SWAP1 DUP2 MSTORE PUSH1 0x20 ADD PUSH1 0x40 MLOAD DUP1 SWAP2 SUB SWAP1 KECCAK256 PUSH1 0x1 ADD PUSH0 SWAP1 SLOAD SWAP1 PUSH2 0x100 EXP SWAP1 DIV PUSH20 0xFFFFFFFFFFFFFFFFFFFFFFFFFFFFFFFFFFFFFFFF AND PUSH20 0xFFFFFFFFFFFFFFFFFFFFFFFFFFFFFFFFFFFFFFFF AND CALLER PUSH20 0xFFFFFFFFFFFFFFFFFFFFFFFFFFFFFFFFFFFFFFFF AND EQ PUSH2 0x17F0 JUMPI PUSH1 0x40 MLOAD PUSH32 0x8C379A000000000000000000000000000000000000000000000000000000000 DUP2 MSTORE PUSH1 0x4 ADD PUSH2 0x17E7 SWAP1 PUSH2 0x3A87 JUMP JUMPDEST PUSH1 0x40 MLOAD DUP1 SWAP2 SUB SWAP1 REVERT JUMPDEST PUSH0 DUP4 GT PUSH2 0x1832 JUMPI PUSH1 0x40 MLOAD PUSH32 0x8C379A000000000000000000000000000000000000000000000000000000000 DUP2 MSTORE PUSH1 0x4 ADD PUSH2 0x1829 SWAP1 PUSH2 0x3AEF JUMP JUMPDEST PUSH1 0x40 MLOAD DUP1 SWAP2 SUB SWAP1 REVERT JUMPDEST PUSH0 PUSH1 0x8 DUP4 PUSH1 0x40 MLOAD PUSH2 0x1843 SWAP2 SWAP1 PUSH2 0x3A27 JUMP JUMPDEST SWAP1 DUP2 MSTORE PUSH1 0x20 ADD PUSH1 0x40 MLOAD DUP1 SWAP2 SUB SWAP1 KECCAK256 SWAP1 POP PUSH0 PUSH1 0x2 DUP2 GT ISZERO PUSH2 0x1866 JUMPI PUSH2 0x1865 PUSH2 0x32E6 JUMP JUMPDEST JUMPDEST DUP2 PUSH1 0x2 ADD PUSH0 SWAP1 SLOAD SWAP1 PUSH2 0x100 EXP SWAP1 DIV PUSH1 0xFF AND PUSH1 0x2 DUP2 GT ISZERO PUSH2 0x1889 JUMPI PUSH2 0x1888 PUSH2 0x32E6 JUMP JUMPDEST JUMPDEST EQ PUSH2 0x18C9 JUMPI PUSH1 0x40 MLOAD PUSH32 0x8C379A000000000000000000000000000000000000000000000000000000000 DUP2 MSTORE PUSH1 0x4 ADD PUSH2 0x18C0 SWAP1 PUSH2 0x4223 JUMP JUMPDEST PUSH1 0x40 MLOAD DUP1 SWAP2 SUB SWAP1 REVERT JUMPDEST PUSH1 0x2 DUP2 PUSH1 0x2 ADD PUSH0 PUSH2 0x100 EXP DUP2 SLOAD DUP2 PUSH1 0xFF MUL NOT AND SWAP1 DUP4 PUSH1 0x2 DUP2 GT ISZERO PUSH2 0x18F0 JUMPI PUSH2 0x18EF PUSH2 0x32E6 JUMP JUMPDEST JUMPDEST MUL OR SWAP1 SSTORE POP PUSH32 0x4808851069C8CC195AECF6DB3C959E9DA7B40EAB910E6FA70435042811903A8C DUP2 PUSH0 ADD PUSH0 SWAP1 SLOAD SWAP1 PUSH2 0x100 EXP SWAP1 DIV PUSH20 0xFFFFFFFFFFFFFFFFFFFFFFFFFFFFFFFFFFFFFFFF AND DUP6 PUSH1 0x40 MLOAD PUSH2 0x1948 SWAP3 SWAP2 SWAP1 PUSH2 0x3B9B JUMP JUMPDEST PUSH1 0x40 MLOAD DUP1 SWAP2 SUB SWAP1 LOG1 POP POP POP POP JUMP JUMPDEST DUP1 PUSH0 DUP1 JUMPDEST PUSH1 0xB DUP4 PUSH1 0x40 MLOAD PUSH2 0x196A SWAP2 SWAP1 PUSH2 0x3A27 JUMP JUMPDEST SWAP1 DUP2 MSTORE PUSH1 0x20 ADD PUSH1 0x40 MLOAD DUP1 SWAP2 SUB SWAP1 KECCAK256 PUSH1 0x3 ADD DUP1 SLOAD SWAP1 POP DUP2 LT ISZERO PUSH2 0x1A29 JUMPI PUSH1 0xB DUP4 PUSH1 0x40 MLOAD PUSH2 0x1996 SWAP2 SWAP1 PUSH2 0x3A27 JUMP JUMPDEST SWAP1 DUP2 MSTORE PUSH1 0x20 ADD PUSH1 0x40 MLOAD DUP1 SWAP2 SUB SWAP1 KECCAK256 PUSH1 0x3 ADD DUP2 DUP2 SLOAD DUP2 LT PUSH2 0x19B9 JUMPI PUSH2 0x19B8 PUSH2 0x3BC2 JUMP JUMPDEST JUMPDEST SWAP1 PUSH0 MSTORE PUSH1 0x20 PUSH0 KECCAK256 ADD PUSH0 SWAP1 SLOAD SWAP1 PUSH2 0x100 EXP SWAP1 DIV PUSH20 0xFFFFFFFFFFFFFFFFFFFFFFFFFFFFFFFFFFFFFFFF AND PUSH20 0xFFFFFFFFFFFFFFFFFFFFFFFFFFFFFFFFFFFFFFFF AND CALLER PUSH20 0xFFFFFFFFFFFFFFFFFFFFFFFFFFFFFFFFFFFFFFFF AND SUB PUSH2 0x1A1C JUMPI PUSH1 0x1 SWAP2 POP PUSH2 0x1A29 JUMP JUMPDEST DUP1 DUP1 PUSH1 0x1 ADD SWAP2 POP POP PUSH2 0x195A JUMP JUMPDEST POP DUP1 PUSH2 0x1A6A JUMPI PUSH1 0x40 MLOAD PUSH32 0x8C379A000000000000000000000000000000000000000000000000000000000 DUP2 MSTORE PUSH1 0x4 ADD PUSH2 0x1A61 SWAP1 PUSH2 0x3C5F JUMP JUMPDEST PUSH1 0x40 MLOAD DUP1 SWAP2 SUB SWAP1 REVERT JUMPDEST PUSH0 DUP5 GT PUSH2 0x1AAC JUMPI PUSH1 0x40 MLOAD PUSH32 0x8C379A000000000000000000000000000000000000000000000000000000000 DUP2 MSTORE PUSH1 0x4 ADD PUSH2 0x1AA3 SWAP1 PUSH2 0x3AEF JUMP JUMPDEST PUSH1 0x40 MLOAD DUP1 SWAP2 SUB SWAP1 REVERT JUMPDEST CALLER PUSH20 0xFFFFFFFFFFFFFFFFFFFFFFFFFFFFFFFFFFFFFFFF AND PUSH1 0x9 PUSH0 DUP7 DUP2 MSTORE PUSH1 0x20 ADD SWAP1 DUP2 MSTORE PUSH1 0x20 ADD PUSH0 KECCAK256 PUSH0 SWAP1 SLOAD SWAP1 PUSH2 0x100 EXP SWAP1 DIV PUSH20 0xFFFFFFFFFFFFFFFFFFFFFFFFFFFFFFFFFFFFFFFF AND PUSH20 0xFFFFFFFFFFFFFFFFFFFFFFFFFFFFFFFFFFFFFFFF AND EQ PUSH2 0x1B4A JUMPI PUSH1 0x40 MLOAD PUSH32 0x8C379A000000000000000000000000000000000000000000000000000000000 DUP2 MSTORE PUSH1 0x4 ADD PUSH2 0x1B41 SWAP1 PUSH2 0x4319 JUMP JUMPDEST PUSH1 0x40 MLOAD DUP1 SWAP2 SUB SWAP1 REVERT JUMPDEST PUSH0 PUSH1 0x8 DUP5 PUSH1 0x40 MLOAD PUSH2 0x1B5B SWAP2 SWAP1 PUSH2 0x3A27 JUMP JUMPDEST SWAP1 DUP2 MSTORE PUSH1 0x20 ADD PUSH1 0x40 MLOAD DUP1 SWAP2 SUB SWAP1 KECCAK256 SWAP1 POP PUSH0 PUSH1 0x2 DUP2 GT ISZERO PUSH2 0x1B7E JUMPI PUSH2 0x1B7D PUSH2 0x32E6 JUMP JUMPDEST JUMPDEST DUP2 PUSH1 0x2 ADD PUSH0 SWAP1 SLOAD SWAP1 PUSH2 0x100 EXP SWAP1 DIV PUSH1 0xFF AND PUSH1 0x2 DUP2 GT ISZERO PUSH2 0x1BA1 JUMPI PUSH2 0x1BA0 PUSH2 0x32E6 JUMP JUMPDEST JUMPDEST EQ PUSH2 0x1BE1 JUMPI PUSH1 0x40 MLOAD PUSH32 0x8C379A000000000000000000000000000000000000000000000000000000000 DUP2 MSTORE PUSH1 0x4 ADD PUSH2 0x1BD8 SWAP1 PUSH2 0x43A7 JUMP JUMPDEST PUSH1 0x40 MLOAD DUP1 SWAP2 SUB SWAP1 REVERT JUMPDEST CALLER DUP2 PUSH0 ADD PUSH0 PUSH2 0x100 EXP DUP2 SLOAD DUP2 PUSH20 0xFFFFFFFFFFFFFFFFFFFFFFFFFFFFFFFFFFFFFFFF MUL NOT AND SWAP1 DUP4 PUSH20 0xFFFFFFFFFFFFFFFFFFFFFFFFFFFFFFFFFFFFFFFF AND MUL OR SWAP1 SSTORE POP DUP5 DUP2 PUSH1 0x1 ADD DUP2 SWAP1 SSTORE POP PUSH0 DUP2 PUSH1 0x2 ADD PUSH0 PUSH2 0x100 EXP DUP2 SLOAD DUP2 PUSH1 0xFF MUL NOT AND SWAP1 DUP4 PUSH1 0x2 DUP2 GT ISZERO PUSH2 0x1C51 JUMPI PUSH2 0x1C50 PUSH2 0x32E6 JUMP JUMPDEST JUMPDEST MUL OR SWAP1 SSTORE POP PUSH32 0xF82D889B7EB3CF9E1BE7D90B5D1E4C34638299A7B73DD3C56460D856B54658C6 CALLER DUP7 PUSH1 0x40 MLOAD PUSH2 0x1C87 SWAP3 SWAP2 SWAP1 PUSH2 0x3B9B JUMP JUMPDEST PUSH1 0x40 MLOAD DUP1 SWAP2 SUB SWAP1 LOG1 POP POP POP POP POP JUMP JUMPDEST PUSH1 0x6 PUSH1 0x20 MSTORE DUP1 PUSH0 MSTORE PUSH1 0x40 PUSH0 KECCAK256 PUSH0 SWAP2 POP SWAP1 POP DUP1 PUSH0 ADD DUP1 SLOAD PUSH2 0x1CB5 SWAP1 PUSH2 0x3CAA JUMP JUMPDEST DUP1 PUSH1 0x1F ADD PUSH1 0x20 DUP1 SWAP2 DIV MUL PUSH1 0x20 ADD PUSH1 0x40 MLOAD SWAP1 DUP2 ADD PUSH1 0x40 MSTORE DUP1 SWAP3 SWAP2 SWAP1 DUP2 DUP2 MSTORE PUSH1 0x20 ADD DUP3 DUP1 SLOAD PUSH2 0x1CE1 SWAP1 PUSH2 0x3CAA JUMP JUMPDEST DUP1 ISZERO PUSH2 0x1D2C JUMPI DUP1 PUSH1 0x1F LT PUSH2 0x1D03 JUMPI PUSH2 0x100 DUP1 DUP4 SLOAD DIV MUL DUP4 MSTORE SWAP2 PUSH1 0x20 ADD SWAP2 PUSH2 0x1D2C JUMP JUMPDEST DUP3 ADD SWAP2 SWAP1 PUSH0 MSTORE PUSH1 0x20 PUSH0 KECCAK256 SWAP1 JUMPDEST DUP2 SLOAD DUP2 MSTORE SWAP1 PUSH1 0x1 ADD SWAP1 PUSH1 0x20 ADD DUP1 DUP4 GT PUSH2 0x1D0F JUMPI DUP3 SWAP1 SUB PUSH1 0x1F AND DUP3 ADD SWAP2 JUMPDEST POP POP POP POP POP SWAP1 DUP1 PUSH1 0x1 ADD DUP1 SLOAD PUSH2 0x1D41 SWAP1 PUSH2 0x3CAA JUMP JUMPDEST DUP1 PUSH1 0x1F ADD PUSH1 0x20 DUP1 SWAP2 DIV MUL PUSH1 0x20 ADD PUSH1 0x40 MLOAD SWAP1 DUP2 ADD PUSH1 0x40 MSTORE DUP1 SWAP3 SWAP2 SWAP1 DUP2 DUP2 MSTORE PUSH1 0x20 ADD DUP3 DUP1 SLOAD PUSH2 0x1D6D SWAP1 PUSH2 0x3CAA JUMP JUMPDEST DUP1 ISZERO PUSH2 0x1DB8 JUMPI DUP1 PUSH1 0x1F LT PUSH2 0x1D8F JUMPI PUSH2 0x100 DUP1 DUP4 SLOAD DIV MUL DUP4 MSTORE SWAP2 PUSH1 0x20 ADD SWAP2 PUSH2 0x1DB8 JUMP JUMPDEST DUP3 ADD SWAP2 SWAP1 PUSH0 MSTORE PUSH1 0x20 PUSH0 KECCAK256 SWAP1 JUMPDEST DUP2 SLOAD DUP2 MSTORE SWAP1 PUSH1 0x1 ADD SWAP1 PUSH1 0x20 ADD DUP1 DUP4 GT PUSH2 0x1D9B JUMPI DUP3 SWAP1 SUB PUSH1 0x1F AND DUP3 ADD SWAP2 JUMPDEST POP POP POP POP POP SWAP1 DUP1 PUSH1 0x2 ADD DUP1 SLOAD PUSH2 0x1DCD SWAP1 PUSH2 0x3CAA JUMP JUMPDEST DUP1 PUSH1 0x1F ADD PUSH1 0x20 DUP1 SWAP2 DIV MUL PUSH1 0x20 ADD PUSH1 0x40 MLOAD SWAP1 DUP2 ADD PUSH1 0x40 MSTORE DUP1 SWAP3 SWAP2 SWAP1 DUP2 DUP2 MSTORE PUSH1 0x20 ADD DUP3 DUP1 SLOAD PUSH2 0x1DF9 SWAP1 PUSH2 0x3CAA JUMP JUMPDEST DUP1 ISZERO PUSH2 0x1E44 JUMPI DUP1 PUSH1 0x1F LT PUSH2 0x1E1B JUMPI PUSH2 0x100 DUP1 DUP4 SLOAD DIV MUL DUP4 MSTORE SWAP2 PUSH1 0x20 ADD SWAP2 PUSH2 0x1E44 JUMP JUMPDEST DUP3 ADD SWAP2 SWAP1 PUSH0 MSTORE PUSH1 0x20 PUSH0 KECCAK256 SWAP1 JUMPDEST DUP2 SLOAD DUP2 MSTORE SWAP1 PUSH1 0x1 ADD SWAP1 PUSH1 0x20 ADD DUP1 DUP4 GT PUSH2 0x1E27 JUMPI DUP3 SWAP1 SUB PUSH1 0x1F AND DUP3 ADD SWAP2 JUMPDEST POP POP POP POP POP SWAP1 POP DUP4 JUMP JUMPDEST PUSH1 0x60 PUSH1 0xA DUP1 SLOAD DUP1 PUSH1 0x20 MUL PUSH1 0x20 ADD PUSH1 0x40 MLOAD SWAP1 DUP2 ADD PUSH1 0x40 MSTORE DUP1 SWAP3 SWAP2 SWAP1 DUP2 DUP2 MSTORE PUSH1 0x20 ADD PUSH0 SWAP1 JUMPDEST DUP3 DUP3 LT ISZERO PUSH2 0x1F19 JUMPI DUP4 DUP3 SWAP1 PUSH0 MSTORE PUSH1 0x20 PUSH0 KECCAK256 ADD DUP1 SLOAD PUSH2 0x1E8E SWAP1 PUSH2 0x3CAA JUMP JUMPDEST DUP1 PUSH1 0x1F ADD PUSH1 0x20 DUP1 SWAP2 DIV MUL PUSH1 0x20 ADD PUSH1 0x40 MLOAD SWAP1 DUP2 ADD PUSH1 0x40 MSTORE DUP1 SWAP3 SWAP2 SWAP1 DUP2 DUP2 MSTORE PUSH1 0x20 ADD DUP3 DUP1 SLOAD PUSH2 0x1EBA SWAP1 PUSH2 0x3CAA JUMP JUMPDEST DUP1 ISZERO PUSH2 0x1F05 JUMPI DUP1 PUSH1 0x1F LT PUSH2 0x1EDC JUMPI PUSH2 0x100 DUP1 DUP4 SLOAD DIV MUL DUP4 MSTORE SWAP2 PUSH1 0x20 ADD SWAP2 PUSH2 0x1F05 JUMP JUMPDEST DUP3 ADD SWAP2 SWAP1 PUSH0 MSTORE PUSH1 0x20 PUSH0 KECCAK256 SWAP1 JUMPDEST DUP2 SLOAD DUP2 MSTORE SWAP1 PUSH1 0x1 ADD SWAP1 PUSH1 0x20 ADD DUP1 DUP4 GT PUSH2 0x1EE8 JUMPI DUP3 SWAP1 SUB PUSH1 0x1F AND DUP3 ADD SWAP2 JUMPDEST POP POP POP POP POP DUP2 MSTORE PUSH1 0x20 ADD SWAP1 PUSH1 0x1 ADD SWAP1 PUSH2 0x1E71 JUMP JUMPDEST POP POP POP POP SWAP1 POP SWAP1 JUMP JUMPDEST PUSH1 0x9 PUSH1 0x20 MSTORE DUP1 PUSH0 MSTORE PUSH1 0x40 PUSH0 KECCAK256 PUSH0 SWAP2 POP SLOAD SWAP1 PUSH2 0x100 EXP SWAP1 DIV PUSH20 0xFFFFFFFFFFFFFFFFFFFFFFFFFFFFFFFFFFFFFFFF AND DUP2 JUMP JUMPDEST PUSH0 PUSH1 0x8 DUP3 PUSH1 0x40 MLOAD PUSH2 0x1F63 SWAP2 SWAP1 PUSH2 0x3A27 JUMP JUMPDEST SWAP1 DUP2 MSTORE PUSH1 0x20 ADD PUSH1 0x40 MLOAD DUP1 SWAP2 SUB SWAP1 KECCAK256 PUSH1 0x2 ADD PUSH0 SWAP1 SLOAD SWAP1 PUSH2 0x100 EXP SWAP1 DIV PUSH1 0xFF AND SWAP1 POP SWAP2 SWAP1 POP JUMP JUMPDEST PUSH1 0x60 PUSH0 PUSH1 0x7 PUSH0 DUP5 PUSH20 0xFFFFFFFFFFFFFFFFFFFFFFFFFFFFFFFFFFFFFFFF AND PUSH20 0xFFFFFFFFFFFFFFFFFFFFFFFFFFFFFFFFFFFFFFFF AND DUP2 MSTORE PUSH1 0x20 ADD SWAP1 DUP2 MSTORE PUSH1 0x20 ADD PUSH0 KECCAK256 DUP1 SLOAD SWAP1 POP PUSH8 0xFFFFFFFFFFFFFFFF DUP2 GT ISZERO PUSH2 0x1FE5 JUMPI PUSH2 0x1FE4 PUSH2 0x2E6B JUMP JUMPDEST JUMPDEST PUSH1 0x40 MLOAD SWAP1 DUP1 DUP3 MSTORE DUP1 PUSH1 0x20 MUL PUSH1 0x20 ADD DUP3 ADD PUSH1 0x40 MSTORE DUP1 ISZERO PUSH2 0x201E JUMPI DUP2 PUSH1 0x20 ADD JUMPDEST PUSH2 0x200B PUSH2 0x2D20 JUMP JUMPDEST DUP2 MSTORE PUSH1 0x20 ADD SWAP1 PUSH1 0x1 SWAP1 SUB SWAP1 DUP2 PUSH2 0x2003 JUMPI SWAP1 POP JUMPDEST POP SWAP1 POP PUSH0 JUMPDEST PUSH1 0xA DUP1 SLOAD SWAP1 POP DUP2 LT ISZERO PUSH2 0x2583 JUMPI CALLER PUSH20 0xFFFFFFFFFFFFFFFFFFFFFFFFFFFFFFFFFFFFFFFF AND PUSH1 0xB PUSH1 0xA DUP4 DUP2 SLOAD DUP2 LT PUSH2 0x205D JUMPI PUSH2 0x205C PUSH2 0x3BC2 JUMP JUMPDEST JUMPDEST SWAP1 PUSH0 MSTORE PUSH1 0x20 PUSH0 KECCAK256 ADD PUSH1 0x40 MLOAD PUSH2 0x2072 SWAP2 SWAP1 PUSH2 0x4445 JUMP JUMPDEST SWAP1 DUP2 MSTORE PUSH1 0x20 ADD PUSH1 0x40 MLOAD DUP1 SWAP2 SUB SWAP1 KECCAK256 PUSH1 0x1 ADD PUSH0 SWAP1 SLOAD SWAP1 PUSH2 0x100 EXP SWAP1 DIV PUSH20 0xFFFFFFFFFFFFFFFFFFFFFFFFFFFFFFFFFFFFFFFF AND PUSH20 0xFFFFFFFFFFFFFFFFFFFFFFFFFFFFFFFFFFFFFFFF AND SUB PUSH2 0x2576 JUMPI PUSH1 0xB PUSH1 0xA DUP3 DUP2 SLOAD DUP2 LT PUSH2 0x20D4 JUMPI PUSH2 0x20D3 PUSH2 0x3BC2 JUMP JUMPDEST JUMPDEST SWAP1 PUSH0 MSTORE PUSH1 0x20 PUSH0 KECCAK256 ADD PUSH1 0x40 MLOAD PUSH2 0x20E9 SWAP2 SWAP1 PUSH2 0x4445 JUMP JUMPDEST SWAP1 DUP2 MSTORE PUSH1 0x20 ADD PUSH1 0x40 MLOAD DUP1 SWAP2 SUB SWAP1 KECCAK256 PUSH1 0x40 MLOAD DUP1 PUSH2 0x120 ADD PUSH1 0x40 MSTORE SWAP1 DUP2 PUSH0 DUP3 ADD DUP1 SLOAD PUSH2 0x2112 SWAP1 PUSH2 0x3CAA JUMP JUMPDEST DUP1 PUSH1 0x1F ADD PUSH1 0x20 DUP1 SWAP2 DIV MUL PUSH1 0x20 ADD PUSH1 0x40 MLOAD SWAP1 DUP2 ADD PUSH1 0x40 MSTORE DUP1 SWAP3 SWAP2 SWAP1 DUP2 DUP2 MSTORE PUSH1 0x20 ADD DUP3 DUP1 SLOAD PUSH2 0x213E SWAP1 PUSH2 0x3CAA JUMP JUMPDEST DUP1 ISZERO PUSH2 0x2189 JUMPI DUP1 PUSH1 0x1F LT PUSH2 0x2160 JUMPI PUSH2 0x100 DUP1 DUP4 SLOAD DIV MUL DUP4 MSTORE SWAP2 PUSH1 0x20 ADD SWAP2 PUSH2 0x2189 JUMP JUMPDEST DUP3 ADD SWAP2 SWAP1 PUSH0 MSTORE PUSH1 0x20 PUSH0 KECCAK256 SWAP1 JUMPDEST DUP2 SLOAD DUP2 MSTORE SWAP1 PUSH1 0x1 ADD SWAP1 PUSH1 0x20 ADD DUP1 DUP4 GT PUSH2 0x216C JUMPI DUP3 SWAP1 SUB PUSH1 0x1F AND DUP3 ADD SWAP2 JUMPDEST POP POP POP POP POP DUP2 MSTORE PUSH1 0x20 ADD PUSH1 0x1 DUP3 ADD PUSH0 SWAP1 SLOAD SWAP1 PUSH2 0x100 EXP SWAP1 DIV PUSH20 0xFFFFFFFFFFFFFFFFFFFFFFFFFFFFFFFFFFFFFFFF AND PUSH20 0xFFFFFFFFFFFFFFFFFFFFFFFFFFFFFFFFFFFFFFFF AND PUSH20 0xFFFFFFFFFFFFFFFFFFFFFFFFFFFFFFFFFFFFFFFF AND DUP2 MSTORE PUSH1 0x20 ADD PUSH1 0x2 DUP3 ADD PUSH0 SWAP1 SLOAD SWAP1 PUSH2 0x100 EXP SWAP1 DIV PUSH20 0xFFFFFFFFFFFFFFFFFFFFFFFFFFFFFFFFFFFFFFFF AND PUSH20 0xFFFFFFFFFFFFFFFFFFFFFFFFFFFFFFFFFFFFFFFF AND PUSH20 0xFFFFFFFFFFFFFFFFFFFFFFFFFFFFFFFFFFFFFFFF AND DUP2 MSTORE PUSH1 0x20 ADD PUSH1 0x3 DUP3 ADD DUP1 SLOAD DUP1 PUSH1 0x20 MUL PUSH1 0x20 ADD PUSH1 0x40 MLOAD SWAP1 DUP2 ADD PUSH1 0x40 MSTORE DUP1 SWAP3 SWAP2 SWAP1 DUP2 DUP2 MSTORE PUSH1 0x20 ADD DUP3 DUP1 SLOAD DUP1 ISZERO PUSH2 0x22BE JUMPI PUSH1 0x20 MUL DUP3 ADD SWAP2 SWAP1 PUSH0 MSTORE PUSH1 0x20 PUSH0 KECCAK256 SWAP1 JUMPDEST DUP2 PUSH0 SWAP1 SLOAD SWAP1 PUSH2 0x100 EXP SWAP1 DIV PUSH20 0xFFFFFFFFFFFFFFFFFFFFFFFFFFFFFFFFFFFFFFFF AND PUSH20 0xFFFFFFFFFFFFFFFFFFFFFFFFFFFFFFFFFFFFFFFF AND DUP2 MSTORE PUSH1 0x20 ADD SWAP1 PUSH1 0x1 ADD SWAP1 DUP1 DUP4 GT PUSH2 0x2275 JUMPI JUMPDEST POP POP POP POP POP DUP2 MSTORE PUSH1 0x20 ADD PUSH1 0x4 DUP3 ADD DUP1 SLOAD DUP1 PUSH1 0x20 MUL PUSH1 0x20 ADD PUSH1 0x40 MLOAD SWAP1 DUP2 ADD PUSH1 0x40 MSTORE DUP1 SWAP3 SWAP2 SWAP1 DUP2 DUP2 MSTORE PUSH1 0x20 ADD PUSH0 SWAP1 JUMPDEST DUP3 DUP3 LT ISZERO PUSH2 0x2393 JUMPI DUP4 DUP3 SWAP1 PUSH0 MSTORE PUSH1 0x20 PUSH0 KECCAK256 ADD DUP1 SLOAD PUSH2 0x2308 SWAP1 PUSH2 0x3CAA JUMP JUMPDEST DUP1 PUSH1 0x1F ADD PUSH1 0x20 DUP1 SWAP2 DIV MUL PUSH1 0x20 ADD PUSH1 0x40 MLOAD SWAP1 DUP2 ADD PUSH1 0x40 MSTORE DUP1 SWAP3 SWAP2 SWAP1 DUP2 DUP2 MSTORE PUSH1 0x20 ADD DUP3 DUP1 SLOAD PUSH2 0x2334 SWAP1 PUSH2 0x3CAA JUMP JUMPDEST DUP1 ISZERO PUSH2 0x237F JUMPI DUP1 PUSH1 0x1F LT PUSH2 0x2356 JUMPI PUSH2 0x100 DUP1 DUP4 SLOAD DIV MUL DUP4 MSTORE SWAP2 PUSH1 0x20 ADD SWAP2 PUSH2 0x237F JUMP JUMPDEST DUP3 ADD SWAP2 SWAP1 PUSH0 MSTORE PUSH1 0x20 PUSH0 KECCAK256 SWAP1 JUMPDEST DUP2 SLOAD DUP2 MSTORE SWAP1 PUSH1 0x1 ADD SWAP1 PUSH1 0x20 ADD DUP1 DUP4 GT PUSH2 0x2362 JUMPI DUP3 SWAP1 SUB PUSH1 0x1F AND DUP3 ADD SWAP2 JUMPDEST POP POP POP POP POP DUP2 MSTORE PUSH1 0x20 ADD SWAP1 PUSH1 0x1 ADD SWAP1 PUSH2 0x22EB JUMP JUMPDEST POP POP POP POP DUP2 MSTORE PUSH1 0x20 ADD PUSH1 0x5 DUP3 ADD DUP1 SLOAD DUP1 PUSH1 0x20 MUL PUSH1 0x20 ADD PUSH1 0x40 MLOAD SWAP1 DUP2 ADD PUSH1 0x40 MSTORE DUP1 SWAP3 SWAP2 SWAP1 DUP2 DUP2 MSTORE PUSH1 0x20 ADD PUSH0 SWAP1 JUMPDEST DUP3 DUP3 LT ISZERO PUSH2 0x2467 JUMPI DUP4 DUP3 SWAP1 PUSH0 MSTORE PUSH1 0x20 PUSH0 KECCAK256 ADD DUP1 SLOAD PUSH2 0x23DC SWAP1 PUSH2 0x3CAA JUMP JUMPDEST DUP1 PUSH1 0x1F ADD PUSH1 0x20 DUP1 SWAP2 DIV MUL PUSH1 0x20 ADD PUSH1 0x40 MLOAD SWAP1 DUP2 ADD PUSH1 0x40 MSTORE DUP1 SWAP3 SWAP2 SWAP1 DUP2 DUP2 MSTORE PUSH1 0x20 ADD DUP3 DUP1 SLOAD PUSH2 0x2408 SWAP1 PUSH2 0x3CAA JUMP JUMPDEST DUP1 ISZERO PUSH2 0x2453 JUMPI DUP1 PUSH1 0x1F LT PUSH2 0x242A JUMPI PUSH2 0x100 DUP1 DUP4 SLOAD DIV MUL DUP4 MSTORE SWAP2 PUSH1 0x20 ADD SWAP2 PUSH2 0x2453 JUMP JUMPDEST DUP3 ADD SWAP2 SWAP1 PUSH0 MSTORE PUSH1 0x20 PUSH0 KECCAK256 SWAP1 JUMPDEST DUP2 SLOAD DUP2 MSTORE SWAP1 PUSH1 0x1 ADD SWAP1 PUSH1 0x20 ADD DUP1 DUP4 GT PUSH2 0x2436 JUMPI DUP3 SWAP1 SUB PUSH1 0x1F AND DUP3 ADD SWAP2 JUMPDEST POP POP POP POP POP DUP2 MSTORE PUSH1 0x20 ADD SWAP1 PUSH1 0x1 ADD SWAP1 PUSH2 0x23BF JUMP JUMPDEST POP POP POP POP DUP2 MSTORE PUSH1 0x20 ADD PUSH1 0x6 DUP3 ADD DUP1 SLOAD DUP1 PUSH1 0x20 MUL PUSH1 0x20 ADD PUSH1 0x40 MLOAD SWAP1 DUP2 ADD PUSH1 0x40 MSTORE DUP1 SWAP3 SWAP2 SWAP1 DUP2 DUP2 MSTORE PUSH1 0x20 ADD PUSH0 SWAP1 JUMPDEST DUP3 DUP3 LT ISZERO PUSH2 0x253B JUMPI DUP4 DUP3 SWAP1 PUSH0 MSTORE PUSH1 0x20 PUSH0 KECCAK256 ADD DUP1 SLOAD PUSH2 0x24B0 SWAP1 PUSH2 0x3CAA JUMP JUMPDEST DUP1 PUSH1 0x1F ADD PUSH1 0x20 DUP1 SWAP2 DIV MUL PUSH1 0x20 ADD PUSH1 0x40 MLOAD SWAP1 DUP2 ADD PUSH1 0x40 MSTORE DUP1 SWAP3 SWAP2 SWAP1 DUP2 DUP2 MSTORE PUSH1 0x20 ADD DUP3 DUP1 SLOAD PUSH2 0x24DC SWAP1 PUSH2 0x3CAA JUMP JUMPDEST DUP1 ISZERO PUSH2 0x2527 JUMPI DUP1 PUSH1 0x1F LT PUSH2 0x24FE JUMPI PUSH2 0x100 DUP1 DUP4 SLOAD DIV MUL DUP4 MSTORE SWAP2 PUSH1 0x20 ADD SWAP2 PUSH2 0x2527 JUMP JUMPDEST DUP3 ADD SWAP2 SWAP1 PUSH0 MSTORE PUSH1 0x20 PUSH0 KECCAK256 SWAP1 JUMPDEST DUP2 SLOAD DUP2 MSTORE SWAP1 PUSH1 0x1 ADD SWAP1 PUSH1 0x20 ADD DUP1 DUP4 GT PUSH2 0x250A JUMPI DUP3 SWAP1 SUB PUSH1 0x1F AND DUP3 ADD SWAP2 JUMPDEST POP POP POP POP POP DUP2 MSTORE PUSH1 0x20 ADD SWAP1 PUSH1 0x1 ADD SWAP1 PUSH2 0x2493 JUMP JUMPDEST POP POP POP POP DUP2 MSTORE PUSH1 0x20 ADD PUSH1 0x7 DUP3 ADD SLOAD DUP2 MSTORE PUSH1 0x20 ADD PUSH1 0x8 DUP3 ADD SLOAD DUP2 MSTORE POP POP DUP3 DUP3 DUP2 MLOAD DUP2 LT PUSH2 0x256A JUMPI PUSH2 0x2569 PUSH2 0x3BC2 JUMP JUMPDEST JUMPDEST PUSH1 0x20 MUL PUSH1 0x20 ADD ADD DUP2 SWAP1 MSTORE POP JUMPDEST DUP1 DUP1 PUSH1 0x1 ADD SWAP2 POP POP PUSH2 0x2023 JUMP JUMPDEST POP DUP1 SWAP2 POP POP SWAP2 SWAP1 POP JUMP JUMPDEST PUSH1 0x60 PUSH0 PUSH2 0x2599 DUP4 PUSH2 0x2A27 JUMP JUMPDEST PUSH2 0x25A2 DUP6 PUSH2 0x2A27 JUMP JUMPDEST PUSH2 0x25AB DUP8 PUSH2 0x2A27 JUMP JUMPDEST PUSH1 0x40 MLOAD PUSH1 0x20 ADD PUSH2 0x25BD SWAP4 SWAP3 SWAP2 SWAP1 PUSH2 0x44A5 JUMP JUMPDEST PUSH1 0x40 MLOAD PUSH1 0x20 DUP2 DUP4 SUB SUB DUP2 MSTORE SWAP1 PUSH1 0x40 MSTORE SWAP1 POP PUSH0 DUP8 SWAP1 POP PUSH0 PUSH1 0x4 PUSH8 0xFFFFFFFFFFFFFFFF DUP2 GT ISZERO PUSH2 0x25EE JUMPI PUSH2 0x25ED PUSH2 0x2E6B JUMP JUMPDEST JUMPDEST PUSH1 0x40 MLOAD SWAP1 DUP1 DUP3 MSTORE DUP1 PUSH1 0x1F ADD PUSH1 0x1F NOT AND PUSH1 0x20 ADD DUP3 ADD PUSH1 0x40 MSTORE DUP1 ISZERO PUSH2 0x2620 JUMPI DUP2 PUSH1 0x20 ADD PUSH1 0x1 DUP3 MUL DUP1 CALLDATASIZE DUP4 CALLDATACOPY DUP1 DUP3 ADD SWAP2 POP POP SWAP1 POP JUMPDEST POP SWAP1 POP PUSH0 JUMPDEST PUSH1 0x2 DUP2 LT DUP1 ISZERO PUSH2 0x2635 JUMPI POP DUP3 MLOAD DUP2 LT JUMPDEST ISZERO PUSH2 0x26AC JUMPI DUP3 DUP2 DUP2 MLOAD DUP2 LT PUSH2 0x264D JUMPI PUSH2 0x264C PUSH2 0x3BC2 JUMP JUMPDEST JUMPDEST PUSH1 0x20 ADD ADD MLOAD PUSH1 0xF8 SHR PUSH1 0xF8 SHL DUP3 DUP3 DUP2 MLOAD DUP2 LT PUSH2 0x266B JUMPI PUSH2 0x266A PUSH2 0x3BC2 JUMP JUMPDEST JUMPDEST PUSH1 0x20 ADD ADD SWAP1 PUSH31 0xFFFFFFFFFFFFFFFFFFFFFFFFFFFFFFFFFFFFFFFFFFFFFFFFFFFFFFFFFFFFFF NOT AND SWAP1 DUP2 PUSH0 BYTE SWAP1 MSTORE8 POP DUP1 DUP1 PUSH2 0x26A4 SWAP1 PUSH2 0x450D JUMP JUMPDEST SWAP2 POP POP PUSH2 0x2625 JUMP JUMPDEST POP PUSH0 JUMPDEST DUP3 MLOAD PUSH1 0x2 PUSH2 0x26BD SWAP2 SWAP1 PUSH2 0x4554 JUMP JUMPDEST DUP2 LT ISZERO PUSH2 0x274B JUMPI PUSH32 0x5800000000000000000000000000000000000000000000000000000000000000 DUP3 PUSH1 0x1 DUP4 PUSH1 0x4 PUSH2 0x26F5 SWAP2 SWAP1 PUSH2 0x4554 JUMP JUMPDEST PUSH2 0x26FF SWAP2 SWAP1 PUSH2 0x4554 JUMP JUMPDEST DUP2 MLOAD DUP2 LT PUSH2 0x2710 JUMPI PUSH2 0x270F PUSH2 0x3BC2 JUMP JUMPDEST JUMPDEST PUSH1 0x20 ADD ADD SWAP1 PUSH31 0xFFFFFFFFFFFFFFFFFFFFFFFFFFFFFFFFFFFFFFFFFFFFFFFFFFFFFFFFFFFFFF NOT AND SWAP1 DUP2 PUSH0 BYTE SWAP1 MSTORE8 POP DUP1 DUP1 PUSH1 0x1 ADD SWAP2 POP POP PUSH2 0x26AF JUMP JUMPDEST POP DUP3 DUP2 PUSH1 0x40 MLOAD PUSH1 0x20 ADD PUSH2 0x275F SWAP3 SWAP2 SWAP1 PUSH2 0x4587 JUMP JUMPDEST PUSH1 0x40 MLOAD PUSH1 0x20 DUP2 DUP4 SUB SUB DUP2 MSTORE SWAP1 PUSH1 0x40 MSTORE SWAP3 POP PUSH0 DUP9 SWAP1 POP PUSH0 PUSH1 0x4 PUSH8 0xFFFFFFFFFFFFFFFF DUP2 GT ISZERO PUSH2 0x2790 JUMPI PUSH2 0x278F PUSH2 0x2E6B JUMP JUMPDEST JUMPDEST PUSH1 0x40 MLOAD SWAP1 DUP1 DUP3 MSTORE DUP1 PUSH1 0x1F ADD PUSH1 0x1F NOT AND PUSH1 0x20 ADD DUP3 ADD PUSH1 0x40 MSTORE DUP1 ISZERO PUSH2 0x27C2 JUMPI DUP2 PUSH1 0x20 ADD PUSH1 0x1 DUP3 MUL DUP1 CALLDATASIZE DUP4 CALLDATACOPY DUP1 DUP3 ADD SWAP2 POP POP SWAP1 POP JUMPDEST POP SWAP1 POP PUSH0 JUMPDEST PUSH1 0x4 DUP2 LT DUP1 ISZERO PUSH2 0x27D7 JUMPI POP DUP3 MLOAD DUP2 LT JUMPDEST ISZERO PUSH2 0x284E JUMPI DUP3 DUP2 DUP2 MLOAD DUP2 LT PUSH2 0x27EF JUMPI PUSH2 0x27EE PUSH2 0x3BC2 JUMP JUMPDEST JUMPDEST PUSH1 0x20 ADD ADD MLOAD PUSH1 0xF8 SHR PUSH1 0xF8 SHL DUP3 DUP3 DUP2 MLOAD DUP2 LT PUSH2 0x280D JUMPI PUSH2 0x280C PUSH2 0x3BC2 JUMP JUMPDEST JUMPDEST PUSH1 0x20 ADD ADD SWAP1 PUSH31 0xFFFFFFFFFFFFFFFFFFFFFFFFFFFFFFFFFFFFFFFFFFFFFFFFFFFFFFFFFFFFFF NOT AND SWAP1 DUP2 PUSH0 BYTE SWAP1 MSTORE8 POP DUP1 DUP1 PUSH2 0x2846 SWAP1 PUSH2 0x450D JUMP JUMPDEST SWAP2 POP POP PUSH2 0x27C7 JUMP JUMPDEST POP PUSH1 0x4 DUP3 MLOAD LT ISZERO PUSH2 0x28F9 JUMPI PUSH0 JUMPDEST DUP3 MLOAD PUSH1 0x4 PUSH2 0x2869 SWAP2 SWAP1 PUSH2 0x4554 JUMP JUMPDEST DUP2 LT ISZERO PUSH2 0x28F7 JUMPI PUSH32 0x3000000000000000000000000000000000000000000000000000000000000000 DUP3 PUSH1 0x1 DUP4 PUSH1 0x4 PUSH2 0x28A1 SWAP2 SWAP1 PUSH2 0x4554 JUMP JUMPDEST PUSH2 0x28AB SWAP2 SWAP1 PUSH2 0x4554 JUMP JUMPDEST DUP2 MLOAD DUP2 LT PUSH2 0x28BC JUMPI PUSH2 0x28BB PUSH2 0x3BC2 JUMP JUMPDEST JUMPDEST PUSH1 0x20 ADD ADD SWAP1 PUSH31 0xFFFFFFFFFFFFFFFFFFFFFFFFFFFFFFFFFFFFFFFFFFFFFFFFFFFFFFFFFFFFFF NOT AND SWAP1 DUP2 PUSH0 BYTE SWAP1 MSTORE8 POP DUP1 DUP1 PUSH1 0x1 ADD SWAP2 POP POP PUSH2 0x285B JUMP JUMPDEST POP JUMPDEST DUP5 DUP2 PUSH1 0x40 MLOAD PUSH1 0x20 ADD PUSH2 0x290C SWAP3 SWAP2 SWAP1 PUSH2 0x45F4 JUMP JUMPDEST PUSH1 0x40 MLOAD PUSH1 0x20 DUP2 DUP4 SUB SUB DUP2 MSTORE SWAP1 PUSH1 0x40 MSTORE SWAP5 POP PUSH0 PUSH1 0x40 MLOAD DUP1 PUSH1 0x40 ADD PUSH1 0x40 MSTORE DUP1 PUSH1 0x1C DUP2 MSTORE PUSH1 0x20 ADD PUSH32 0x4142434445464748494B3D4A4B4C4D4E4F505152535455565758595A00000000 DUP2 MSTORE POP SWAP1 POP PUSH0 JUMPDEST PUSH1 0x4 DUP2 LT ISZERO PUSH2 0x2A14 JUMPI PUSH1 0x5 PUSH0 DUP2 SLOAD DUP1 SWAP3 SWAP2 SWAP1 PUSH2 0x2973 SWAP1 PUSH2 0x450D JUMP JUMPDEST SWAP2 SWAP1 POP SSTORE POP PUSH0 PUSH1 0x1A TIMESTAMP PUSH1 0x1 NUMBER PUSH2 0x2989 SWAP2 SWAP1 PUSH2 0x4554 JUMP JUMPDEST BLOCKHASH CALLER PUSH1 0x5 SLOAD PUSH1 0x40 MLOAD PUSH1 0x20 ADD PUSH2 0x29A1 SWAP5 SWAP4 SWAP3 SWAP2 SWAP1 PUSH2 0x46B0 JUMP JUMPDEST PUSH1 0x40 MLOAD PUSH1 0x20 DUP2 DUP4 SUB SUB DUP2 MSTORE SWAP1 PUSH1 0x40 MSTORE DUP1 MLOAD SWAP1 PUSH1 0x20 ADD KECCAK256 PUSH0 SHR PUSH2 0x29C3 SWAP2 SWAP1 PUSH2 0x472A JUMP JUMPDEST SWAP1 POP DUP8 DUP4 DUP3 DUP2 MLOAD DUP2 LT PUSH2 0x29D9 JUMPI PUSH2 0x29D8 PUSH2 0x3BC2 JUMP JUMPDEST JUMPDEST PUSH1 0x20 ADD ADD MLOAD PUSH1 0xF8 SHR PUSH1 0xF8 SHL PUSH1 0x40 MLOAD PUSH1 0x20 ADD PUSH2 0x29F5 SWAP3 SWAP2 SWAP1 PUSH2 0x47A5 JUMP JUMPDEST PUSH1 0x40 MLOAD PUSH1 0x20 DUP2 DUP4 SUB SUB DUP2 MSTORE SWAP1 PUSH1 0x40 MSTORE SWAP8 POP POP DUP1 DUP1 PUSH1 0x1 ADD SWAP2 POP POP PUSH2 0x2958 JUMP JUMPDEST POP DUP6 SWAP7 POP POP POP POP POP POP POP SWAP6 SWAP5 POP POP POP POP POP JUMP JUMPDEST PUSH1 0x60 PUSH0 PUSH1 0x1 PUSH2 0x2A35 DUP5 PUSH2 0x2AF1 JUMP JUMPDEST ADD SWAP1 POP PUSH0 DUP2 PUSH8 0xFFFFFFFFFFFFFFFF DUP2 GT ISZERO PUSH2 0x2A53 JUMPI PUSH2 0x2A52 PUSH2 0x2E6B JUMP JUMPDEST JUMPDEST PUSH1 0x40 MLOAD SWAP1 DUP1 DUP3 MSTORE DUP1 PUSH1 0x1F ADD PUSH1 0x1F NOT AND PUSH1 0x20 ADD DUP3 ADD PUSH1 0x40 MSTORE DUP1 ISZERO PUSH2 0x2A85 JUMPI DUP2 PUSH1 0x20 ADD PUSH1 0x1 DUP3 MUL DUP1 CALLDATASIZE DUP4 CALLDATACOPY DUP1 DUP3 ADD SWAP2 POP POP SWAP1 POP JUMPDEST POP SWAP1 POP PUSH0 DUP3 PUSH1 0x20 ADD DUP3 ADD SWAP1 POP JUMPDEST PUSH1 0x1 ISZERO PUSH2 0x2AE6 JUMPI DUP1 DUP1 PUSH1 0x1 SWAP1 SUB SWAP2 POP POP PUSH32 0x3031323334353637383961626364656600000000000000000000000000000000 PUSH1 0xA DUP7 MOD BYTE DUP2 MSTORE8 PUSH1 0xA DUP6 DUP2 PUSH2 0x2ADB JUMPI PUSH2 0x2ADA PUSH2 0x46FD JUMP JUMPDEST JUMPDEST DIV SWAP5 POP PUSH0 DUP6 SUB PUSH2 0x2A92 JUMPI JUMPDEST DUP2 SWAP4 POP POP POP POP SWAP2 SWAP1 POP JUMP JUMPDEST PUSH0 DUP1 PUSH0 SWAP1 POP PUSH27 0x184F03E93FF9F4DAA797ED6E38ED64BF6A1F010000000000000000 DUP4 LT PUSH2 0x2B4D JUMPI PUSH27 0x184F03E93FF9F4DAA797ED6E38ED64BF6A1F010000000000000000 DUP4 DUP2 PUSH2 0x2B43 JUMPI PUSH2 0x2B42 PUSH2 0x46FD JUMP JUMPDEST JUMPDEST DIV SWAP3 POP PUSH1 0x40 DUP2 ADD SWAP1 POP JUMPDEST PUSH14 0x4EE2D6D415B85ACEF8100000000 DUP4 LT PUSH2 0x2B8A JUMPI PUSH14 0x4EE2D6D415B85ACEF8100000000 DUP4 DUP2 PUSH2 0x2B80 JUMPI PUSH2 0x2B7F PUSH2 0x46FD JUMP JUMPDEST JUMPDEST DIV SWAP3 POP PUSH1 0x20 DUP2 ADD SWAP1 POP JUMPDEST PUSH7 0x2386F26FC10000 DUP4 LT PUSH2 0x2BB9 JUMPI PUSH7 0x2386F26FC10000 DUP4 DUP2 PUSH2 0x2BAF JUMPI PUSH2 0x2BAE PUSH2 0x46FD JUMP JUMPDEST JUMPDEST DIV SWAP3 POP PUSH1 0x10 DUP2 ADD SWAP1 POP JUMPDEST PUSH4 0x5F5E100 DUP4 LT PUSH2 0x2BE2 JUMPI PUSH4 0x5F5E100 DUP4 DUP2 PUSH2 0x2BD8 JUMPI PUSH2 0x2BD7 PUSH2 0x46FD JUMP JUMPDEST JUMPDEST DIV SWAP3 POP PUSH1 0x8 DUP2 ADD SWAP1 POP JUMPDEST PUSH2 0x2710 DUP4 LT PUSH2 0x2C07 JUMPI PUSH2 0x2710 DUP4 DUP2 PUSH2 0x2BFD JUMPI PUSH2 0x2BFC PUSH2 0x46FD JUMP JUMPDEST JUMPDEST DIV SWAP3 POP PUSH1 0x4 DUP2 ADD SWAP1 POP JUMPDEST PUSH1 0x64 DUP4 LT PUSH2 0x2C2A JUMPI PUSH1 0x64 DUP4 DUP2 PUSH2 0x2C20 JUMPI PUSH2 0x2C1F PUSH2 0x46FD JUMP JUMPDEST JUMPDEST DIV SWAP3 POP PUSH1 0x2 DUP2 ADD SWAP1 POP JUMPDEST PUSH1 0xA DUP4 LT PUSH2 0x2C39 JUMPI PUSH1 0x1 DUP2 ADD SWAP1 POP JUMPDEST DUP1 SWAP2 POP POP SWAP2 SWAP1 POP JUMP JUMPDEST DUP3 DUP1 SLOAD DUP3 DUP3 SSTORE SWAP1 PUSH0 MSTORE PUSH1 0x20 PUSH0 KECCAK256 SWAP1 DUP2 ADD SWAP3 DUP3 ISZERO PUSH2 0x2CB8 JUMPI SWAP2 PUSH1 0x20 MUL DUP3 ADD JUMPDEST DUP3 DUP2 GT ISZERO PUSH2 0x2CB7 JUMPI DUP3 MLOAD DUP3 PUSH0 PUSH2 0x100 EXP DUP2 SLOAD DUP2 PUSH20 0xFFFFFFFFFFFFFFFFFFFFFFFFFFFFFFFFFFFFFFFF MUL NOT AND SWAP1 DUP4 PUSH20 0xFFFFFFFFFFFFFFFFFFFFFFFFFFFFFFFFFFFFFFFF AND MUL OR SWAP1 SSTORE POP SWAP2 PUSH1 0x20 ADD SWAP2 SWAP1 PUSH1 0x1 ADD SWAP1 PUSH2 0x2C60 JUMP JUMPDEST JUMPDEST POP SWAP1 POP PUSH2 0x2CC5 SWAP2 SWAP1 PUSH2 0x2D94 JUMP JUMPDEST POP SWAP1 JUMP JUMPDEST DUP3 DUP1 SLOAD DUP3 DUP3 SSTORE SWAP1 PUSH0 MSTORE PUSH1 0x20 PUSH0 KECCAK256 SWAP1 DUP2 ADD SWAP3 DUP3 ISZERO PUSH2 0x2D0F JUMPI SWAP2 PUSH1 0x20 MUL DUP3 ADD JUMPDEST DUP3 DUP2 GT ISZERO PUSH2 0x2D0E JUMPI DUP3 MLOAD DUP3 SWAP1 DUP2 PUSH2 0x2CFE SWAP2 SWAP1 PUSH2 0x3E77 JUMP JUMPDEST POP SWAP2 PUSH1 0x20 ADD SWAP2 SWAP1 PUSH1 0x1 ADD SWAP1 PUSH2 0x2CE7 JUMP JUMPDEST JUMPDEST POP SWAP1 POP PUSH2 0x2D1C SWAP2 SWAP1 PUSH2 0x2DAF JUMP JUMPDEST POP SWAP1 JUMP JUMPDEST PUSH1 0x40 MLOAD DUP1 PUSH2 0x120 ADD PUSH1 0x40 MSTORE DUP1 PUSH1 0x60 DUP2 MSTORE PUSH1 0x20 ADD PUSH0 PUSH20 0xFFFFFFFFFFFFFFFFFFFFFFFFFFFFFFFFFFFFFFFF AND DUP2 MSTORE PUSH1 0x20 ADD PUSH0 PUSH20 0xFFFFFFFFFFFFFFFFFFFFFFFFFFFFFFFFFFFFFFFF AND DUP2 MSTORE PUSH1 0x20 ADD PUSH1 0x60 DUP2 MSTORE PUSH1 0x20 ADD PUSH1 0x60 DUP2 MSTORE PUSH1 0x20 ADD PUSH1 0x60 DUP2 MSTORE PUSH1 0x20 ADD PUSH1 0x60 DUP2 MSTORE PUSH1 0x20 ADD PUSH0 DUP2 MSTORE PUSH1 0x20 ADD PUSH0 DUP2 MSTORE POP SWAP1 JUMP JUMPDEST JUMPDEST DUP1 DUP3 GT ISZERO PUSH2 0x2DAB JUMPI PUSH0 DUP2 PUSH0 SWAP1 SSTORE POP PUSH1 0x1 ADD PUSH2 0x2D95 JUMP JUMPDEST POP SWAP1 JUMP JUMPDEST JUMPDEST DUP1 DUP3 GT ISZERO PUSH2 0x2DCE JUMPI PUSH0 DUP2 DUP2 PUSH2 0x2DC5 SWAP2 SWAP1 PUSH2 0x2DD2 JUMP JUMPDEST POP PUSH1 0x1 ADD PUSH2 0x2DB0 JUMP JUMPDEST POP SWAP1 JUMP JUMPDEST POP DUP1 SLOAD PUSH2 0x2DDE SWAP1 PUSH2 0x3CAA JUMP JUMPDEST PUSH0 DUP3 SSTORE DUP1 PUSH1 0x1F LT PUSH2 0x2DEF JUMPI POP PUSH2 0x2E0C JUMP JUMPDEST PUSH1 0x1F ADD PUSH1 0x20 SWAP1 DIV SWAP1 PUSH0 MSTORE PUSH1 0x20 PUSH0 KECCAK256 SWAP1 DUP2 ADD SWAP1 PUSH2 0x2E0B SWAP2 SWAP1 PUSH2 0x2D94 JUMP JUMPDEST JUMPDEST POP JUMP JUMPDEST PUSH0 PUSH1 0x40 MLOAD SWAP1 POP SWAP1 JUMP JUMPDEST PUSH0 DUP1 REVERT JUMPDEST PUSH0 DUP1 REVERT JUMPDEST PUSH0 DUP2 SWAP1 POP SWAP2 SWAP1 POP JUMP JUMPDEST PUSH2 0x2E32 DUP2 PUSH2 0x2E20 JUMP JUMPDEST DUP2 EQ PUSH2 0x2E3C JUMPI PUSH0 DUP1 REVERT JUMPDEST POP JUMP JUMPDEST PUSH0 DUP2 CALLDATALOAD SWAP1 POP PUSH2 0x2E4D DUP2 PUSH2 0x2E29 JUMP JUMPDEST SWAP3 SWAP2 POP POP JUMP JUMPDEST PUSH0 DUP1 REVERT JUMPDEST PUSH0 DUP1 REVERT JUMPDEST PUSH0 PUSH1 0x1F NOT PUSH1 0x1F DUP4 ADD AND SWAP1 POP SWAP2 SWAP1 POP JUMP JUMPDEST PUSH32 0x4E487B7100000000000000000000000000000000000000000000000000000000 PUSH0 MSTORE PUSH1 0x41 PUSH1 0x4 MSTORE PUSH1 0x24 PUSH0 REVERT JUMPDEST PUSH2 0x2EA1 DUP3 PUSH2 0x2E5B JUMP JUMPDEST DUP2 ADD DUP2 DUP2 LT PUSH8 0xFFFFFFFFFFFFFFFF DUP3 GT OR ISZERO PUSH2 0x2EC0 JUMPI PUSH2 0x2EBF PUSH2 0x2E6B JUMP JUMPDEST JUMPDEST DUP1 PUSH1 0x40 MSTORE POP POP POP JUMP JUMPDEST PUSH0 PUSH2 0x2ED2 PUSH2 0x2E0F JUMP JUMPDEST SWAP1 POP PUSH2 0x2EDE DUP3 DUP3 PUSH2 0x2E98 JUMP JUMPDEST SWAP2 SWAP1 POP JUMP JUMPDEST PUSH0 PUSH8 0xFFFFFFFFFFFFFFFF DUP3 GT ISZERO PUSH2 0x2EFD JUMPI PUSH2 0x2EFC PUSH2 0x2E6B JUMP JUMPDEST JUMPDEST PUSH2 0x2F06 DUP3 PUSH2 0x2E5B JUMP JUMPDEST SWAP1 POP PUSH1 0x20 DUP2 ADD SWAP1 POP SWAP2 SWAP1 POP JUMP JUMPDEST DUP3 DUP2 DUP4 CALLDATACOPY PUSH0 DUP4 DUP4 ADD MSTORE POP POP POP JUMP JUMPDEST PUSH0 PUSH2 0x2F33 PUSH2 0x2F2E DUP5 PUSH2 0x2EE3 JUMP JUMPDEST PUSH2 0x2EC9 JUMP JUMPDEST SWAP1 POP DUP3 DUP2 MSTORE PUSH1 0x20 DUP2 ADD DUP5 DUP5 DUP5 ADD GT ISZERO PUSH2 0x2F4F JUMPI PUSH2 0x2F4E PUSH2 0x2E57 JUMP JUMPDEST JUMPDEST PUSH2 0x2F5A DUP5 DUP3 DUP6 PUSH2 0x2F13 JUMP JUMPDEST POP SWAP4 SWAP3 POP POP POP JUMP JUMPDEST PUSH0 DUP3 PUSH1 0x1F DUP4 ADD SLT PUSH2 0x2F76 JUMPI PUSH2 0x2F75 PUSH2 0x2E53 JUMP JUMPDEST JUMPDEST DUP2 CALLDATALOAD PUSH2 0x2F86 DUP5 DUP3 PUSH1 0x20 DUP7 ADD PUSH2 0x2F21 JUMP JUMPDEST SWAP2 POP POP SWAP3 SWAP2 POP POP JUMP JUMPDEST PUSH0 DUP1 PUSH1 0x40 DUP4 DUP6 SUB SLT ISZERO PUSH2 0x2FA5 JUMPI PUSH2 0x2FA4 PUSH2 0x2E18 JUMP JUMPDEST JUMPDEST PUSH0 PUSH2 0x2FB2 DUP6 DUP3 DUP7 ADD PUSH2 0x2E3F JUMP JUMPDEST SWAP3 POP POP PUSH1 0x20 DUP4 ADD CALLDATALOAD PUSH8 0xFFFFFFFFFFFFFFFF DUP2 GT ISZERO PUSH2 0x2FD3 JUMPI PUSH2 0x2FD2 PUSH2 0x2E1C JUMP JUMPDEST JUMPDEST PUSH2 0x2FDF DUP6 DUP3 DUP7 ADD PUSH2 0x2F62 JUMP JUMPDEST SWAP2 POP POP SWAP3 POP SWAP3 SWAP1 POP JUMP JUMPDEST PUSH0 PUSH8 0xFFFFFFFFFFFFFFFF DUP3 GT ISZERO PUSH2 0x3003 JUMPI PUSH2 0x3002 PUSH2 0x2E6B JUMP JUMPDEST JUMPDEST PUSH1 0x20 DUP3 MUL SWAP1 POP PUSH1 0x20 DUP2 ADD SWAP1 POP SWAP2 SWAP1 POP JUMP JUMPDEST PUSH0 DUP1 REVERT JUMPDEST PUSH0 PUSH2 0x302A PUSH2 0x3025 DUP5 PUSH2 0x2FE9 JUMP JUMPDEST PUSH2 0x2EC9 JUMP JUMPDEST SWAP1 POP DUP1 DUP4 DUP3 MSTORE PUSH1 0x20 DUP3 ADD SWAP1 POP PUSH1 0x20 DUP5 MUL DUP4 ADD DUP6 DUP2 GT ISZERO PUSH2 0x304D JUMPI PUSH2 0x304C PUSH2 0x3014 JUMP JUMPDEST JUMPDEST DUP4 JUMPDEST DUP2 DUP2 LT ISZERO PUSH2 0x3094 JUMPI DUP1 CALLDATALOAD PUSH8 0xFFFFFFFFFFFFFFFF DUP2 GT ISZERO PUSH2 0x3072 JUMPI PUSH2 0x3071 PUSH2 0x2E53 JUMP JUMPDEST JUMPDEST DUP1 DUP7 ADD PUSH2 0x307F DUP10 DUP3 PUSH2 0x2F62 JUMP JUMPDEST DUP6 MSTORE PUSH1 0x20 DUP6 ADD SWAP5 POP POP POP PUSH1 0x20 DUP2 ADD SWAP1 POP PUSH2 0x304F JUMP JUMPDEST POP POP POP SWAP4 SWAP3 POP POP POP JUMP JUMPDEST PUSH0 DUP3 PUSH1 0x1F DUP4 ADD SLT PUSH2 0x30B2 JUMPI PUSH2 0x30B1 PUSH2 0x2E53 JUMP JUMPDEST JUMPDEST DUP2 CALLDATALOAD PUSH2 0x30C2 DUP5 DUP3 PUSH1 0x20 DUP7 ADD PUSH2 0x3018 JUMP JUMPDEST SWAP2 POP POP SWAP3 SWAP2 POP POP JUMP JUMPDEST PUSH0 DUP1 PUSH1 0x40 DUP4 DUP6 SUB SLT ISZERO PUSH2 0x30E1 JUMPI PUSH2 0x30E0 PUSH2 0x2E18 JUMP JUMPDEST JUMPDEST PUSH0 DUP4 ADD CALLDATALOAD PUSH8 0xFFFFFFFFFFFFFFFF DUP2 GT ISZERO PUSH2 0x30FE JUMPI PUSH2 0x30FD PUSH2 0x2E1C JUMP JUMPDEST JUMPDEST PUSH2 0x310A DUP6 DUP3 DUP7 ADD PUSH2 0x2F62 JUMP JUMPDEST SWAP3 POP POP PUSH1 0x20 DUP4 ADD CALLDATALOAD PUSH8 0xFFFFFFFFFFFFFFFF DUP2 GT ISZERO PUSH2 0x312B JUMPI PUSH2 0x312A PUSH2 0x2E1C JUMP JUMPDEST JUMPDEST PUSH2 0x3137 DUP6 DUP3 DUP7 ADD PUSH2 0x309E JUMP JUMPDEST SWAP2 POP POP SWAP3 POP SWAP3 SWAP1 POP JUMP JUMPDEST PUSH0 DUP2 ISZERO ISZERO SWAP1 POP SWAP2 SWAP1 POP JUMP JUMPDEST PUSH2 0x3155 DUP2 PUSH2 0x3141 JUMP JUMPDEST DUP3 MSTORE POP POP JUMP JUMPDEST PUSH0 PUSH1 0x20 DUP3 ADD SWAP1 POP PUSH2 0x316E PUSH0 DUP4 ADD DUP5 PUSH2 0x314C JUMP JUMPDEST SWAP3 SWAP2 POP POP JUMP JUMPDEST PUSH0 DUP1 PUSH0 DUP1 PUSH0 DUP1 PUSH1 0xC0 DUP8 DUP10 SUB SLT ISZERO PUSH2 0x318E JUMPI PUSH2 0x318D PUSH2 0x2E18 JUMP JUMPDEST JUMPDEST PUSH0 DUP8 ADD CALLDATALOAD PUSH8 0xFFFFFFFFFFFFFFFF DUP2 GT ISZERO PUSH2 0x31AB JUMPI PUSH2 0x31AA PUSH2 0x2E1C JUMP JUMPDEST JUMPDEST PUSH2 0x31B7 DUP10 DUP3 DUP11 ADD PUSH2 0x2F62 JUMP JUMPDEST SWAP7 POP POP PUSH1 0x20 DUP8 ADD CALLDATALOAD PUSH8 0xFFFFFFFFFFFFFFFF DUP2 GT ISZERO PUSH2 0x31D8 JUMPI PUSH2 0x31D7 PUSH2 0x2E1C JUMP JUMPDEST JUMPDEST PUSH2 0x31E4 DUP10 DUP3 DUP11 ADD PUSH2 0x2F62 JUMP JUMPDEST SWAP6 POP POP PUSH1 0x40 DUP8 ADD CALLDATALOAD PUSH8 0xFFFFFFFFFFFFFFFF DUP2 GT ISZERO PUSH2 0x3205 JUMPI PUSH2 0x3204 PUSH2 0x2E1C JUMP JUMPDEST JUMPDEST PUSH2 0x3211 DUP10 DUP3 DUP11 ADD PUSH2 0x2F62 JUMP JUMPDEST SWAP5 POP POP PUSH1 0x60 PUSH2 0x3222 DUP10 DUP3 DUP11 ADD PUSH2 0x2E3F JUMP JUMPDEST SWAP4 POP POP PUSH1 0x80 PUSH2 0x3233 DUP10 DUP3 DUP11 ADD PUSH2 0x2E3F JUMP JUMPDEST SWAP3 POP POP PUSH1 0xA0 PUSH2 0x3244 DUP10 DUP3 DUP11 ADD PUSH2 0x2E3F JUMP JUMPDEST SWAP2 POP POP SWAP3 SWAP6 POP SWAP3 SWAP6 POP SWAP3 SWAP6 JUMP JUMPDEST PUSH0 PUSH1 0x20 DUP3 DUP5 SUB SLT ISZERO PUSH2 0x3266 JUMPI PUSH2 0x3265 PUSH2 0x2E18 JUMP JUMPDEST JUMPDEST PUSH0 DUP3 ADD CALLDATALOAD PUSH8 0xFFFFFFFFFFFFFFFF DUP2 GT ISZERO PUSH2 0x3283 JUMPI PUSH2 0x3282 PUSH2 0x2E1C JUMP JUMPDEST JUMPDEST PUSH2 0x328F DUP5 DUP3 DUP6 ADD PUSH2 0x2F62 JUMP JUMPDEST SWAP2 POP POP SWAP3 SWAP2 POP POP JUMP JUMPDEST PUSH0 PUSH20 0xFFFFFFFFFFFFFFFFFFFFFFFFFFFFFFFFFFFFFFFF DUP3 AND SWAP1 POP SWAP2 SWAP1 POP JUMP JUMPDEST PUSH0 PUSH2 0x32C1 DUP3 PUSH2 0x3298 JUMP JUMPDEST SWAP1 POP SWAP2 SWAP1 POP JUMP JUMPDEST PUSH2 0x32D1 DUP2 PUSH2 0x32B7 JUMP JUMPDEST DUP3 MSTORE POP POP JUMP JUMPDEST PUSH2 0x32E0 DUP2 PUSH2 0x2E20 JUMP JUMPDEST DUP3 MSTORE POP POP JUMP JUMPDEST PUSH32 0x4E487B7100000000000000000000000000000000000000000000000000000000 PUSH0 MSTORE PUSH1 0x21 PUSH1 0x4 MSTORE PUSH1 0x24 PUSH0 REVERT JUMPDEST PUSH1 0x3 DUP2 LT PUSH2 0x3324 JUMPI PUSH2 0x3323 PUSH2 0x32E6 JUMP JUMPDEST JUMPDEST POP JUMP JUMPDEST PUSH0 DUP2 SWAP1 POP PUSH2 0x3334 DUP3 PUSH2 0x3313 JUMP JUMPDEST SWAP2 SWAP1 POP JUMP JUMPDEST PUSH0 PUSH2 0x3343 DUP3 PUSH2 0x3327 JUMP JUMPDEST SWAP1 POP SWAP2 SWAP1 POP JUMP JUMPDEST PUSH2 0x3353 DUP2 PUSH2 0x3339 JUMP JUMPDEST DUP3 MSTORE POP POP JUMP JUMPDEST PUSH0 PUSH1 0x60 DUP3 ADD SWAP1 POP PUSH2 0x336C PUSH0 DUP4 ADD DUP7 PUSH2 0x32C8 JUMP JUMPDEST PUSH2 0x3379 PUSH1 0x20 DUP4 ADD DUP6 PUSH2 0x32D7 JUMP JUMPDEST PUSH2 0x3386 PUSH1 0x40 DUP4 ADD DUP5 PUSH2 0x334A JUMP JUMPDEST SWAP5 SWAP4 POP POP POP POP JUMP JUMPDEST PUSH2 0x3397 DUP2 PUSH2 0x32B7 JUMP JUMPDEST DUP2 EQ PUSH2 0x33A1 JUMPI PUSH0 DUP1 REVERT JUMPDEST POP JUMP JUMPDEST PUSH0 DUP2 CALLDATALOAD SWAP1 POP PUSH2 0x33B2 DUP2 PUSH2 0x338E JUMP JUMPDEST SWAP3 SWAP2 POP POP JUMP JUMPDEST PUSH0 DUP1 PUSH0 PUSH1 0x60 DUP5 DUP7 SUB SLT ISZERO PUSH2 0x33CF JUMPI PUSH2 0x33CE PUSH2 0x2E18 JUMP JUMPDEST JUMPDEST PUSH0 PUSH2 0x33DC DUP7 DUP3 DUP8 ADD PUSH2 0x33A4 JUMP JUMPDEST SWAP4 POP POP PUSH1 0x20 PUSH2 0x33ED DUP7 DUP3 DUP8 ADD PUSH2 0x2E3F JUMP JUMPDEST SWAP3 POP POP PUSH1 0x40 DUP5 ADD CALLDATALOAD PUSH8 0xFFFFFFFFFFFFFFFF DUP2 GT ISZERO PUSH2 0x340E JUMPI PUSH2 0x340D PUSH2 0x2E1C JUMP JUMPDEST JUMPDEST PUSH2 0x341A DUP7 DUP3 DUP8 ADD PUSH2 0x2F62 JUMP JUMPDEST SWAP2 POP POP SWAP3 POP SWAP3 POP SWAP3 JUMP JUMPDEST PUSH0 DUP2 MLOAD SWAP1 POP SWAP2 SWAP1 POP JUMP JUMPDEST PUSH0 DUP3 DUP3 MSTORE PUSH1 0x20 DUP3 ADD SWAP1 POP SWAP3 SWAP2 POP POP JUMP JUMPDEST PUSH0 JUMPDEST DUP4 DUP2 LT ISZERO PUSH2 0x345B JUMPI DUP1 DUP3 ADD MLOAD DUP2 DUP5 ADD MSTORE PUSH1 0x20 DUP2 ADD SWAP1 POP PUSH2 0x3440 JUMP JUMPDEST PUSH0 DUP5 DUP5 ADD MSTORE POP POP POP POP JUMP JUMPDEST PUSH0 PUSH2 0x3470 DUP3 PUSH2 0x3424 JUMP JUMPDEST PUSH2 0x347A DUP2 DUP6 PUSH2 0x342E JUMP JUMPDEST SWAP4 POP PUSH2 0x348A DUP2 DUP6 PUSH1 0x20 DUP7 ADD PUSH2 0x343E JUMP JUMPDEST PUSH2 0x3493 DUP2 PUSH2 0x2E5B JUMP JUMPDEST DUP5 ADD SWAP2 POP POP SWAP3 SWAP2 POP POP JUMP JUMPDEST PUSH0 PUSH1 0xA0 DUP3 ADD SWAP1 POP DUP2 DUP2 SUB PUSH0 DUP4 ADD MSTORE PUSH2 0x34B6 DUP2 DUP9 PUSH2 0x3466 JUMP JUMPDEST SWAP1 POP PUSH2 0x34C5 PUSH1 0x20 DUP4 ADD DUP8 PUSH2 0x32C8 JUMP JUMPDEST PUSH2 0x34D2 PUSH1 0x40 DUP4 ADD DUP7 PUSH2 0x32C8 JUMP JUMPDEST PUSH2 0x34DF PUSH1 0x60 DUP4 ADD DUP6 PUSH2 0x32D7 JUMP JUMPDEST PUSH2 0x34EC PUSH1 0x80 DUP4 ADD DUP5 PUSH2 0x32D7 JUMP JUMPDEST SWAP7 SWAP6 POP POP POP POP POP POP JUMP JUMPDEST PUSH0 PUSH1 0x20 DUP3 DUP5 SUB SLT ISZERO PUSH2 0x350B JUMPI PUSH2 0x350A PUSH2 0x2E18 JUMP JUMPDEST JUMPDEST PUSH0 PUSH2 0x3518 DUP5 DUP3 DUP6 ADD PUSH2 0x33A4 JUMP JUMPDEST SWAP2 POP POP SWAP3 SWAP2 POP POP JUMP JUMPDEST PUSH0 PUSH1 0x60 DUP3 ADD SWAP1 POP DUP2 DUP2 SUB PUSH0 DUP4 ADD MSTORE PUSH2 0x3539 DUP2 DUP7 PUSH2 0x3466 JUMP JUMPDEST SWAP1 POP DUP2 DUP2 SUB PUSH1 0x20 DUP4 ADD MSTORE PUSH2 0x354D DUP2 DUP6 PUSH2 0x3466 JUMP JUMPDEST SWAP1 POP DUP2 DUP2 SUB PUSH1 0x40 DUP4 ADD MSTORE PUSH2 0x3561 DUP2 DUP5 PUSH2 0x3466 JUMP JUMPDEST SWAP1 POP SWAP5 SWAP4 POP POP POP POP JUMP JUMPDEST PUSH0 DUP2 MLOAD SWAP1 POP SWAP2 SWAP1 POP JUMP JUMPDEST PUSH0 DUP3 DUP3 MSTORE PUSH1 0x20 DUP3 ADD SWAP1 POP SWAP3 SWAP2 POP POP JUMP JUMPDEST PUSH0 DUP2 SWAP1 POP PUSH1 0x20 DUP3 ADD SWAP1 POP SWAP2 SWAP1 POP JUMP JUMPDEST PUSH0 DUP3 DUP3 MSTORE PUSH1 0x20 DUP3 ADD SWAP1 POP SWAP3 SWAP2 POP POP JUMP JUMPDEST PUSH0 PUSH2 0x35AE DUP3 PUSH2 0x3424 JUMP JUMPDEST PUSH2 0x35B8 DUP2 DUP6 PUSH2 0x3594 JUMP JUMPDEST SWAP4 POP PUSH2 0x35C8 DUP2 DUP6 PUSH1 0x20 DUP7 ADD PUSH2 0x343E JUMP JUMPDEST PUSH2 0x35D1 DUP2 PUSH2 0x2E5B JUMP JUMPDEST DUP5 ADD SWAP2 POP POP SWAP3 SWAP2 POP POP JUMP JUMPDEST PUSH0 PUSH2 0x35E7 DUP4 DUP4 PUSH2 0x35A4 JUMP JUMPDEST SWAP1 POP SWAP3 SWAP2 POP POP JUMP JUMPDEST PUSH0 PUSH1 0x20 DUP3 ADD SWAP1 POP SWAP2 SWAP1 POP JUMP JUMPDEST PUSH0 PUSH2 0x3605 DUP3 PUSH2 0x356B JUMP JUMPDEST PUSH2 0x360F DUP2 DUP6 PUSH2 0x3575 JUMP JUMPDEST SWAP4 POP DUP4 PUSH1 0x20 DUP3 MUL DUP6 ADD PUSH2 0x3621 DUP6 PUSH2 0x3585 JUMP JUMPDEST DUP1 PUSH0 JUMPDEST DUP6 DUP2 LT ISZERO PUSH2 0x365C JUMPI DUP5 DUP5 SUB DUP10 MSTORE DUP2 MLOAD PUSH2 0x363D DUP6 DUP3 PUSH2 0x35DC JUMP JUMPDEST SWAP5 POP PUSH2 0x3648 DUP4 PUSH2 0x35EF JUMP JUMPDEST SWAP3 POP PUSH1 0x20 DUP11 ADD SWAP10 POP POP PUSH1 0x1 DUP2 ADD SWAP1 POP PUSH2 0x3624 JUMP JUMPDEST POP DUP3 SWAP8 POP DUP8 SWAP6 POP POP POP POP POP POP SWAP3 SWAP2 POP POP JUMP JUMPDEST PUSH0 PUSH1 0x20 DUP3 ADD SWAP1 POP DUP2 DUP2 SUB PUSH0 DUP4 ADD MSTORE PUSH2 0x3686 DUP2 DUP5 PUSH2 0x35FB JUMP JUMPDEST SWAP1 POP SWAP3 SWAP2 POP POP JUMP JUMPDEST PUSH0 PUSH1 0x20 DUP3 DUP5 SUB SLT ISZERO PUSH2 0x36A3 JUMPI PUSH2 0x36A2 PUSH2 0x2E18 JUMP JUMPDEST JUMPDEST PUSH0 PUSH2 0x36B0 DUP5 DUP3 DUP6 ADD PUSH2 0x2E3F JUMP JUMPDEST SWAP2 POP POP SWAP3 SWAP2 POP POP JUMP JUMPDEST PUSH0 PUSH1 0x20 DUP3 ADD SWAP1 POP PUSH2 0x36CC PUSH0 DUP4 ADD DUP5 PUSH2 0x32C8 JUMP JUMPDEST SWAP3 SWAP2 POP POP JUMP JUMPDEST PUSH0 PUSH1 0x20 DUP3 ADD SWAP1 POP PUSH2 0x36E5 PUSH0 DUP4 ADD DUP5 PUSH2 0x334A JUMP JUMPDEST SWAP3 SWAP2 POP POP JUMP JUMPDEST PUSH0 DUP2 MLOAD SWAP1 POP SWAP2 SWAP1 POP JUMP JUMPDEST PUSH0 DUP3 DUP3 MSTORE PUSH1 0x20 DUP3 ADD SWAP1 POP SWAP3 SWAP2 POP POP JUMP JUMPDEST PUSH0 DUP2 SWAP1 POP PUSH1 0x20 DUP3 ADD SWAP1 POP SWAP2 SWAP1 POP JUMP JUMPDEST PUSH2 0x371D DUP2 PUSH2 0x32B7 JUMP JUMPDEST DUP3 MSTORE POP POP JUMP JUMPDEST PUSH0 DUP2 MLOAD SWAP1 POP SWAP2 SWAP1 POP JUMP JUMPDEST PUSH0 DUP3 DUP3 MSTORE PUSH1 0x20 DUP3 ADD SWAP1 POP SWAP3 SWAP2 POP POP JUMP JUMPDEST PUSH0 DUP2 SWAP1 POP PUSH1 0x20 DUP3 ADD SWAP1 POP SWAP2 SWAP1 POP JUMP JUMPDEST PUSH0 PUSH2 0x3757 DUP4 DUP4 PUSH2 0x3714 JUMP JUMPDEST PUSH1 0x20 DUP4 ADD SWAP1 POP SWAP3 SWAP2 POP POP JUMP JUMPDEST PUSH0 PUSH1 0x20 DUP3 ADD SWAP1 POP SWAP2 SWAP1 POP JUMP JUMPDEST PUSH0 PUSH2 0x3779 DUP3 PUSH2 0x3723 JUMP JUMPDEST PUSH2 0x3783 DUP2 DUP6 PUSH2 0x372D JUMP JUMPDEST SWAP4 POP PUSH2 0x378E DUP4 PUSH2 0x373D JUMP JUMPDEST DUP1 PUSH0 JUMPDEST DUP4 DUP2 LT ISZERO PUSH2 0x37BE JUMPI DUP2 MLOAD PUSH2 0x37A5 DUP9 DUP3 PUSH2 0x374C JUMP JUMPDEST SWAP8 POP PUSH2 0x37B0 DUP4 PUSH2 0x3763 JUMP JUMPDEST SWAP3 POP POP PUSH1 0x1 DUP2 ADD SWAP1 POP PUSH2 0x3791 JUMP JUMPDEST POP DUP6 SWAP4 POP POP POP POP SWAP3 SWAP2 POP POP JUMP JUMPDEST PUSH0 DUP3 DUP3 MSTORE PUSH1 0x20 DUP3 ADD SWAP1 POP SWAP3 SWAP2 POP POP JUMP JUMPDEST PUSH0 PUSH2 0x37E5 DUP3 PUSH2 0x356B JUMP JUMPDEST PUSH2 0x37EF DUP2 DUP6 PUSH2 0x37CB JUMP JUMPDEST SWAP4 POP DUP4 PUSH1 0x20 DUP3 MUL DUP6 ADD PUSH2 0x3801 DUP6 PUSH2 0x3585 JUMP JUMPDEST DUP1 PUSH0 JUMPDEST DUP6 DUP2 LT ISZERO PUSH2 0x383C JUMPI DUP5 DUP5 SUB DUP10 MSTORE DUP2 MLOAD PUSH2 0x381D DUP6 DUP3 PUSH2 0x35DC JUMP JUMPDEST SWAP5 POP PUSH2 0x3828 DUP4 PUSH2 0x35EF JUMP JUMPDEST SWAP3 POP PUSH1 0x20 DUP11 ADD SWAP10 POP POP PUSH1 0x1 DUP2 ADD SWAP1 POP PUSH2 0x3804 JUMP JUMPDEST POP DUP3 SWAP8 POP DUP8 SWAP6 POP POP POP POP POP POP SWAP3 SWAP2 POP POP JUMP JUMPDEST PUSH2 0x3857 DUP2 PUSH2 0x2E20 JUMP JUMPDEST DUP3 MSTORE POP POP JUMP JUMPDEST PUSH0 PUSH2 0x120 DUP4 ADD PUSH0 DUP4 ADD MLOAD DUP5 DUP3 SUB PUSH0 DUP7 ADD MSTORE PUSH2 0x3878 DUP3 DUP3 PUSH2 0x35A4 JUMP JUMPDEST SWAP2 POP POP PUSH1 0x20 DUP4 ADD MLOAD PUSH2 0x388D PUSH1 0x20 DUP7 ADD DUP3 PUSH2 0x3714 JUMP JUMPDEST POP PUSH1 0x40 DUP4 ADD MLOAD PUSH2 0x38A0 PUSH1 0x40 DUP7 ADD DUP3 PUSH2 0x3714 JUMP JUMPDEST POP PUSH1 0x60 DUP4 ADD MLOAD DUP5 DUP3 SUB PUSH1 0x60 DUP7 ADD MSTORE PUSH2 0x38B8 DUP3 DUP3 PUSH2 0x376F JUMP JUMPDEST SWAP2 POP POP PUSH1 0x80 DUP4 ADD MLOAD DUP5 DUP3 SUB PUSH1 0x80 DUP7 ADD MSTORE PUSH2 0x38D2 DUP3 DUP3 PUSH2 0x37DB JUMP JUMPDEST SWAP2 POP POP PUSH1 0xA0 DUP4 ADD MLOAD DUP5 DUP3 SUB PUSH1 0xA0 DUP7 ADD MSTORE PUSH2 0x38EC DUP3 DUP3 PUSH2 0x37DB JUMP JUMPDEST SWAP2 POP POP PUSH1 0xC0 DUP4 ADD MLOAD DUP5 DUP3 SUB PUSH1 0xC0 DUP7 ADD MSTORE PUSH2 0x3906 DUP3 DUP3 PUSH2 0x37DB JUMP JUMPDEST SWAP2 POP POP PUSH1 0xE0 DUP4 ADD MLOAD PUSH2 0x391B PUSH1 0xE0 DUP7 ADD DUP3 PUSH2 0x384E JUMP JUMPDEST POP PUSH2 0x100 DUP4 ADD MLOAD PUSH2 0x3930 PUSH2 0x100 DUP7 ADD DUP3 PUSH2 0x384E JUMP JUMPDEST POP DUP1 SWAP2 POP POP SWAP3 SWAP2 POP POP JUMP JUMPDEST PUSH0 PUSH2 0x3946 DUP4 DUP4 PUSH2 0x385D JUMP JUMPDEST SWAP1 POP SWAP3 SWAP2 POP POP JUMP JUMPDEST PUSH0 PUSH1 0x20 DUP3 ADD SWAP1 POP SWAP2 SWAP1 POP JUMP JUMPDEST PUSH0 PUSH2 0x3964 DUP3 PUSH2 0x36EB JUMP JUMPDEST PUSH2 0x396E DUP2 DUP6 PUSH2 0x36F5 JUMP JUMPDEST SWAP4 POP DUP4 PUSH1 0x20 DUP3 MUL DUP6 ADD PUSH2 0x3980 DUP6 PUSH2 0x3705 JUMP JUMPDEST DUP1 PUSH0 JUMPDEST DUP6 DUP2 LT ISZERO PUSH2 0x39BB JUMPI DUP5 DUP5 SUB DUP10 MSTORE DUP2 MLOAD PUSH2 0x399C DUP6 DUP3 PUSH2 0x393B JUMP JUMPDEST SWAP5 POP PUSH2 0x39A7 DUP4 PUSH2 0x394E JUMP JUMPDEST SWAP3 POP PUSH1 0x20 DUP11 ADD SWAP10 POP POP PUSH1 0x1 DUP2 ADD SWAP1 POP PUSH2 0x3983 JUMP JUMPDEST POP DUP3 SWAP8 POP DUP8 SWAP6 POP POP POP POP POP POP SWAP3 SWAP2 POP POP JUMP JUMPDEST PUSH0 PUSH1 0x20 DUP3 ADD SWAP1 POP DUP2 DUP2 SUB PUSH0 DUP4 ADD MSTORE PUSH2 0x39E5 DUP2 DUP5 PUSH2 0x395A JUMP JUMPDEST SWAP1 POP SWAP3 SWAP2 POP POP JUMP JUMPDEST PUSH0 DUP2 SWAP1 POP SWAP3 SWAP2 POP POP JUMP JUMPDEST PUSH0 PUSH2 0x3A01 DUP3 PUSH2 0x3424 JUMP JUMPDEST PUSH2 0x3A0B DUP2 DUP6 PUSH2 0x39ED JUMP JUMPDEST SWAP4 POP PUSH2 0x3A1B DUP2 DUP6 PUSH1 0x20 DUP7 ADD PUSH2 0x343E JUMP JUMPDEST DUP1 DUP5 ADD SWAP2 POP POP SWAP3 SWAP2 POP POP JUMP JUMPDEST PUSH0 PUSH2 0x3A32 DUP3 DUP5 PUSH2 0x39F7 JUMP JUMPDEST SWAP2 POP DUP2 SWAP1 POP SWAP3 SWAP2 POP POP JUMP JUMPDEST PUSH32 0x5573657220646F65736E2774206F776E20746865207265706F72740000000000 PUSH0 DUP3 ADD MSTORE POP JUMP JUMPDEST PUSH0 PUSH2 0x3A71 PUSH1 0x1B DUP4 PUSH2 0x342E JUMP JUMPDEST SWAP2 POP PUSH2 0x3A7C DUP3 PUSH2 0x3A3D JUMP JUMPDEST PUSH1 0x20 DUP3 ADD SWAP1 POP SWAP2 SWAP1 POP JUMP JUMPDEST PUSH0 PUSH1 0x20 DUP3 ADD SWAP1 POP DUP2 DUP2 SUB PUSH0 DUP4 ADD MSTORE PUSH2 0x3A9E DUP2 PUSH2 0x3A65 JUMP JUMPDEST SWAP1 POP SWAP2 SWAP1 POP JUMP JUMPDEST PUSH32 0x496E76616C69642070617469656E742049440000000000000000000000000000 PUSH0 DUP3 ADD MSTORE POP JUMP JUMPDEST PUSH0 PUSH2 0x3AD9 PUSH1 0x12 DUP4 PUSH2 0x342E JUMP JUMPDEST SWAP2 POP PUSH2 0x3AE4 DUP3 PUSH2 0x3AA5 JUMP JUMPDEST PUSH1 0x20 DUP3 ADD SWAP1 POP SWAP2 SWAP1 POP JUMP JUMPDEST PUSH0 PUSH1 0x20 DUP3 ADD SWAP1 POP DUP2 DUP2 SUB PUSH0 DUP4 ADD MSTORE PUSH2 0x3B06 DUP2 PUSH2 0x3ACD JUMP JUMPDEST SWAP1 POP SWAP2 SWAP1 POP JUMP JUMPDEST PUSH32 0x4E6F20646F63746F722061737369676E656420746F2074686973207061746965 PUSH0 DUP3 ADD MSTORE PUSH32 0x6E74000000000000000000000000000000000000000000000000000000000000 PUSH1 0x20 DUP3 ADD MSTORE POP JUMP JUMPDEST PUSH0 PUSH2 0x3B67 PUSH1 0x22 DUP4 PUSH2 0x342E JUMP JUMPDEST SWAP2 POP PUSH2 0x3B72 DUP3 PUSH2 0x3B0D JUMP JUMPDEST PUSH1 0x40 DUP3 ADD SWAP1 POP SWAP2 SWAP1 POP JUMP JUMPDEST PUSH0 PUSH1 0x20 DUP3 ADD SWAP1 POP DUP2 DUP2 SUB PUSH0 DUP4 ADD MSTORE PUSH2 0x3B94 DUP2 PUSH2 0x3B5B JUMP JUMPDEST SWAP1 POP SWAP2 SWAP1 POP JUMP JUMPDEST PUSH0 PUSH1 0x40 DUP3 ADD SWAP1 POP PUSH2 0x3BAE PUSH0 DUP4 ADD DUP6 PUSH2 0x32C8 JUMP JUMPDEST PUSH2 0x3BBB PUSH1 0x20 DUP4 ADD DUP5 PUSH2 0x32D7 JUMP JUMPDEST SWAP4 SWAP3 POP POP POP JUMP JUMPDEST PUSH32 0x4E487B7100000000000000000000000000000000000000000000000000000000 PUSH0 MSTORE PUSH1 0x32 PUSH1 0x4 MSTORE PUSH1 0x24 PUSH0 REVERT JUMPDEST PUSH32 0x4F6E6C79207265676973746572656420646F63746F72732063616E2061636365 PUSH0 DUP3 ADD MSTORE PUSH32 0x737320746869732066756E6374696F6E00000000000000000000000000000000 PUSH1 0x20 DUP3 ADD MSTORE POP JUMP JUMPDEST PUSH0 PUSH2 0x3C49 PUSH1 0x30 DUP4 PUSH2 0x342E JUMP JUMPDEST SWAP2 POP PUSH2 0x3C54 DUP3 PUSH2 0x3BEF JUMP JUMPDEST PUSH1 0x40 DUP3 ADD SWAP1 POP SWAP2 SWAP1 POP JUMP JUMPDEST PUSH0 PUSH1 0x20 DUP3 ADD SWAP1 POP DUP2 DUP2 SUB PUSH0 DUP4 ADD MSTORE PUSH2 0x3C76 DUP2 PUSH2 0x3C3D JUMP JUMPDEST SWAP1 POP SWAP2 SWAP1 POP JUMP JUMPDEST PUSH32 0x4E487B7100000000000000000000000000000000000000000000000000000000 PUSH0 MSTORE PUSH1 0x22 PUSH1 0x4 MSTORE PUSH1 0x24 PUSH0 REVERT JUMPDEST PUSH0 PUSH1 0x2 DUP3 DIV SWAP1 POP PUSH1 0x1 DUP3 AND DUP1 PUSH2 0x3CC1 JUMPI PUSH1 0x7F DUP3 AND SWAP2 POP JUMPDEST PUSH1 0x20 DUP3 LT DUP2 SUB PUSH2 0x3CD4 JUMPI PUSH2 0x3CD3 PUSH2 0x3C7D JUMP JUMPDEST JUMPDEST POP SWAP2 SWAP1 POP JUMP JUMPDEST PUSH0 DUP2 SWAP1 POP DUP2 PUSH0 MSTORE PUSH1 0x20 PUSH0 KECCAK256 SWAP1 POP SWAP2 SWAP1 POP JUMP JUMPDEST PUSH0 PUSH1 0x20 PUSH1 0x1F DUP4 ADD DIV SWAP1 POP SWAP2 SWAP1 POP JUMP JUMPDEST PUSH0 DUP3 DUP3 SHL SWAP1 POP SWAP3 SWAP2 POP POP JUMP JUMPDEST PUSH0 PUSH1 0x8 DUP4 MUL PUSH2 0x3D36 PUSH32 0xFFFFFFFFFFFFFFFFFFFFFFFFFFFFFFFFFFFFFFFFFFFFFFFFFFFFFFFFFFFFFFFF DUP3 PUSH2 0x3CFB JUMP JUMPDEST PUSH2 0x3D40 DUP7 DUP4 PUSH2 0x3CFB JUMP JUMPDEST SWAP6 POP DUP1 NOT DUP5 AND SWAP4 POP DUP1 DUP7 AND DUP5 OR SWAP3 POP POP POP SWAP4 SWAP3 POP POP POP JUMP JUMPDEST PUSH0 DUP2 SWAP1 POP SWAP2 SWAP1 POP JUMP JUMPDEST PUSH0 PUSH2 0x3D7B PUSH2 0x3D76 PUSH2 0x3D71 DUP5 PUSH2 0x2E20 JUMP JUMPDEST PUSH2 0x3D58 JUMP JUMPDEST PUSH2 0x2E20 JUMP JUMPDEST SWAP1 POP SWAP2 SWAP1 POP JUMP JUMPDEST PUSH0 DUP2 SWAP1 POP SWAP2 SWAP1 POP JUMP JUMPDEST PUSH2 0x3D94 DUP4 PUSH2 0x3D61 JUMP JUMPDEST PUSH2 0x3DA8 PUSH2 0x3DA0 DUP3 PUSH2 0x3D82 JUMP JUMPDEST DUP5 DUP5 SLOAD PUSH2 0x3D07 JUMP JUMPDEST DUP3 SSTORE POP POP POP POP JUMP JUMPDEST PUSH0 SWAP1 JUMP JUMPDEST PUSH2 0x3DBC PUSH2 0x3DB0 JUMP JUMPDEST PUSH2 0x3DC7 DUP2 DUP5 DUP5 PUSH2 0x3D8B JUMP JUMPDEST POP POP POP JUMP JUMPDEST JUMPDEST DUP2 DUP2 LT ISZERO PUSH2 0x3DEA JUMPI PUSH2 0x3DDF PUSH0 DUP3 PUSH2 0x3DB4 JUMP JUMPDEST PUSH1 0x1 DUP2 ADD SWAP1 POP PUSH2 0x3DCD JUMP JUMPDEST POP POP JUMP JUMPDEST PUSH1 0x1F DUP3 GT ISZERO PUSH2 0x3E2F JUMPI PUSH2 0x3E00 DUP2 PUSH2 0x3CDA JUMP JUMPDEST PUSH2 0x3E09 DUP5 PUSH2 0x3CEC JUMP JUMPDEST DUP2 ADD PUSH1 0x20 DUP6 LT ISZERO PUSH2 0x3E18 JUMPI DUP2 SWAP1 POP JUMPDEST PUSH2 0x3E2C PUSH2 0x3E24 DUP6 PUSH2 0x3CEC JUMP JUMPDEST DUP4 ADD DUP3 PUSH2 0x3DCC JUMP JUMPDEST POP POP JUMPDEST POP POP POP JUMP JUMPDEST PUSH0 DUP3 DUP3 SHR SWAP1 POP SWAP3 SWAP2 POP POP JUMP JUMPDEST PUSH0 PUSH2 0x3E4F PUSH0 NOT DUP5 PUSH1 0x8 MUL PUSH2 0x3E34 JUMP JUMPDEST NOT DUP1 DUP4 AND SWAP2 POP POP SWAP3 SWAP2 POP POP JUMP JUMPDEST PUSH0 PUSH2 0x3E67 DUP4 DUP4 PUSH2 0x3E40 JUMP JUMPDEST SWAP2 POP DUP3 PUSH1 0x2 MUL DUP3 OR SWAP1 POP SWAP3 SWAP2 POP POP JUMP JUMPDEST PUSH2 0x3E80 DUP3 PUSH2 0x3424 JUMP JUMPDEST PUSH8 0xFFFFFFFFFFFFFFFF DUP2 GT ISZERO PUSH2 0x3E99 JUMPI PUSH2 0x3E98 PUSH2 0x2E6B JUMP JUMPDEST JUMPDEST PUSH2 0x3EA3 DUP3 SLOAD PUSH2 0x3CAA JUMP JUMPDEST PUSH2 0x3EAE DUP3 DUP3 DUP6 PUSH2 0x3DEE JUMP JUMPDEST PUSH0 PUSH1 0x20 SWAP1 POP PUSH1 0x1F DUP4 GT PUSH1 0x1 DUP2 EQ PUSH2 0x3EDF JUMPI PUSH0 DUP5 ISZERO PUSH2 0x3ECD JUMPI DUP3 DUP8 ADD MLOAD SWAP1 POP JUMPDEST PUSH2 0x3ED7 DUP6 DUP3 PUSH2 0x3E5C JUMP JUMPDEST DUP7 SSTORE POP PUSH2 0x3F3E JUMP JUMPDEST PUSH1 0x1F NOT DUP5 AND PUSH2 0x3EED DUP7 PUSH2 0x3CDA JUMP JUMPDEST PUSH0 JUMPDEST DUP3 DUP2 LT ISZERO PUSH2 0x3F14 JUMPI DUP5 DUP10 ADD MLOAD DUP3 SSTORE PUSH1 0x1 DUP3 ADD SWAP2 POP PUSH1 0x20 DUP6 ADD SWAP5 POP PUSH1 0x20 DUP2 ADD SWAP1 POP PUSH2 0x3EEF JUMP JUMPDEST DUP7 DUP4 LT ISZERO PUSH2 0x3F31 JUMPI DUP5 DUP10 ADD MLOAD PUSH2 0x3F2D PUSH1 0x1F DUP10 AND DUP3 PUSH2 0x3E40 JUMP JUMPDEST DUP4 SSTORE POP JUMPDEST PUSH1 0x1 PUSH1 0x2 DUP9 MUL ADD DUP9 SSTORE POP POP POP JUMPDEST POP POP POP POP POP POP JUMP JUMPDEST PUSH0 DUP2 MLOAD SWAP1 POP SWAP2 SWAP1 POP JUMP JUMPDEST PUSH0 DUP2 SWAP1 POP SWAP3 SWAP2 POP POP JUMP JUMPDEST PUSH0 PUSH2 0x3F64 DUP3 PUSH2 0x3F46 JUMP JUMPDEST PUSH2 0x3F6E DUP2 DUP6 PUSH2 0x3F50 JUMP JUMPDEST SWAP4 POP PUSH2 0x3F7E DUP2 DUP6 PUSH1 0x20 DUP7 ADD PUSH2 0x343E JUMP JUMPDEST DUP1 DUP5 ADD SWAP2 POP POP SWAP3 SWAP2 POP POP JUMP JUMPDEST PUSH0 PUSH2 0x3F95 DUP3 DUP5 PUSH2 0x3F5A JUMP JUMPDEST SWAP2 POP DUP2 SWAP1 POP SWAP3 SWAP2 POP POP JUMP JUMPDEST PUSH32 0x6F6E6C7920776F726B65722064656C65676174652063616C6C206661696C6572 PUSH0 DUP3 ADD MSTORE POP JUMP JUMPDEST PUSH0 PUSH2 0x3FD4 PUSH1 0x20 DUP4 PUSH2 0x342E JUMP JUMPDEST SWAP2 POP PUSH2 0x3FDF DUP3 PUSH2 0x3FA0 JUMP JUMPDEST PUSH1 0x20 DUP3 ADD SWAP1 POP SWAP2 SWAP1 POP JUMP JUMPDEST PUSH0 PUSH1 0x20 DUP3 ADD SWAP1 POP DUP2 DUP2 SUB PUSH0 DUP4 ADD MSTORE PUSH2 0x4001 DUP2 PUSH2 0x3FC8 JUMP JUMPDEST SWAP1 POP SWAP2 SWAP1 POP JUMP JUMPDEST PUSH2 0x4011 DUP2 PUSH2 0x3141 JUMP JUMPDEST DUP2 EQ PUSH2 0x401B JUMPI PUSH0 DUP1 REVERT JUMPDEST POP JUMP JUMPDEST PUSH0 DUP2 MLOAD SWAP1 POP PUSH2 0x402C DUP2 PUSH2 0x4008 JUMP JUMPDEST SWAP3 SWAP2 POP POP JUMP JUMPDEST PUSH0 PUSH1 0x20 DUP3 DUP5 SUB SLT ISZERO PUSH2 0x4047 JUMPI PUSH2 0x4046 PUSH2 0x2E18 JUMP JUMPDEST JUMPDEST PUSH0 PUSH2 0x4054 DUP5 DUP3 DUP6 ADD PUSH2 0x401E JUMP JUMPDEST SWAP2 POP POP SWAP3 SWAP2 POP POP JUMP JUMPDEST PUSH32 0x6F6E6C7920776F726B6572206861732061636365737320746F20746869732072 PUSH0 DUP3 ADD MSTORE PUSH32 0x6571756573740000000000000000000000000000000000000000000000000000 PUSH1 0x20 DUP3 ADD MSTORE POP JUMP JUMPDEST PUSH0 PUSH2 0x40B7 PUSH1 0x26 DUP4 PUSH2 0x342E JUMP JUMPDEST SWAP2 POP PUSH2 0x40C2 DUP3 PUSH2 0x405D JUMP JUMPDEST PUSH1 0x40 DUP3 ADD SWAP1 POP SWAP2 SWAP1 POP JUMP JUMPDEST PUSH0 PUSH1 0x20 DUP3 ADD SWAP1 POP DUP2 DUP2 SUB PUSH0 DUP4 ADD MSTORE PUSH2 0x40E4 DUP2 PUSH2 0x40AB JUMP JUMPDEST SWAP1 POP SWAP2 SWAP1 POP JUMP JUMPDEST PUSH0 PUSH1 0x20 DUP3 ADD SWAP1 POP DUP2 DUP2 SUB PUSH0 DUP4 ADD MSTORE PUSH2 0x4103 DUP2 DUP5 PUSH2 0x3466 JUMP JUMPDEST SWAP1 POP SWAP3 SWAP2 POP POP JUMP JUMPDEST PUSH32 0x64656C65676174652063616C6C206661696C6564000000000000000000000000 PUSH0 DUP3 ADD MSTORE POP JUMP JUMPDEST PUSH0 PUSH2 0x413F PUSH1 0x14 DUP4 PUSH2 0x342E JUMP JUMPDEST SWAP2 POP PUSH2 0x414A DUP3 PUSH2 0x410B JUMP JUMPDEST PUSH1 0x20 DUP3 ADD SWAP1 POP SWAP2 SWAP1 POP JUMP JUMPDEST PUSH0 PUSH1 0x20 DUP3 ADD SWAP1 POP DUP2 DUP2 SUB PUSH0 DUP4 ADD MSTORE PUSH2 0x416C DUP2 PUSH2 0x4133 JUMP JUMPDEST SWAP1 POP SWAP2 SWAP1 POP JUMP JUMPDEST PUSH0 PUSH2 0x417D DUP3 PUSH2 0x3298 JUMP JUMPDEST SWAP1 POP SWAP2 SWAP1 POP JUMP JUMPDEST PUSH2 0x418D DUP2 PUSH2 0x4173 JUMP JUMPDEST DUP2 EQ PUSH2 0x4197 JUMPI PUSH0 DUP1 REVERT JUMPDEST POP JUMP JUMPDEST PUSH0 DUP2 MLOAD SWAP1 POP PUSH2 0x41A8 DUP2 PUSH2 0x4184 JUMP JUMPDEST SWAP3 SWAP2 POP POP JUMP JUMPDEST PUSH0 PUSH1 0x20 DUP3 DUP5 SUB SLT ISZERO PUSH2 0x41C3 JUMPI PUSH2 0x41C2 PUSH2 0x2E18 JUMP JUMPDEST JUMPDEST PUSH0 PUSH2 0x41D0 DUP5 DUP3 DUP6 ADD PUSH2 0x419A JUMP JUMPDEST SWAP2 POP POP SWAP3 SWAP2 POP POP JUMP JUMPDEST PUSH32 0x4163636573732072657175657374206973206E6F742070656E64696E67000000 PUSH0 DUP3 ADD MSTORE POP JUMP JUMPDEST PUSH0 PUSH2 0x420D PUSH1 0x1D DUP4 PUSH2 0x342E JUMP JUMPDEST SWAP2 POP PUSH2 0x4218 DUP3 PUSH2 0x41D9 JUMP JUMPDEST PUSH1 0x20 DUP3 ADD SWAP1 POP SWAP2 SWAP1 POP JUMP JUMPDEST PUSH0 PUSH1 0x20 DUP3 ADD SWAP1 POP DUP2 DUP2 SUB PUSH0 DUP4 ADD MSTORE PUSH2 0x423A DUP2 PUSH2 0x4201 JUMP JUMPDEST SWAP1 POP SWAP2 SWAP1 POP JUMP JUMPDEST PUSH32 0x496E76616C696420646F63746F72206164647265737300000000000000000000 PUSH0 DUP3 ADD MSTORE POP JUMP JUMPDEST PUSH0 PUSH2 0x4275 PUSH1 0x16 DUP4 PUSH2 0x342E JUMP JUMPDEST SWAP2 POP PUSH2 0x4280 DUP3 PUSH2 0x4241 JUMP JUMPDEST PUSH1 0x20 DUP3 ADD SWAP1 POP SWAP2 SWAP1 POP JUMP JUMPDEST PUSH0 PUSH1 0x20 DUP3 ADD SWAP1 POP DUP2 DUP2 SUB PUSH0 DUP4 ADD MSTORE PUSH2 0x42A2 DUP2 PUSH2 0x4269 JUMP JUMPDEST SWAP1 POP SWAP2 SWAP1 POP JUMP JUMPDEST PUSH32 0x596F7520617265206E6F742061737369676E656420746F207468697320706174 PUSH0 DUP3 ADD MSTORE PUSH32 0x69656E7400000000000000000000000000000000000000000000000000000000 PUSH1 0x20 DUP3 ADD MSTORE POP JUMP JUMPDEST PUSH0 PUSH2 0x4303 PUSH1 0x24 DUP4 PUSH2 0x342E JUMP JUMPDEST SWAP2 POP PUSH2 0x430E DUP3 PUSH2 0x42A9 JUMP JUMPDEST PUSH1 0x40 DUP3 ADD SWAP1 POP SWAP2 SWAP1 POP JUMP JUMPDEST PUSH0 PUSH1 0x20 DUP3 ADD SWAP1 POP DUP2 DUP2 SUB PUSH0 DUP4 ADD MSTORE PUSH2 0x4330 DUP2 PUSH2 0x42F7 JUMP JUMPDEST SWAP1 POP SWAP2 SWAP1 POP JUMP JUMPDEST PUSH32 0x416363657373207265717565737420616C72656164792073656E74206F722061 PUSH0 DUP3 ADD MSTORE PUSH32 0x7070726F76656400000000000000000000000000000000000000000000000000 PUSH1 0x20 DUP3 ADD MSTORE POP JUMP JUMPDEST PUSH0 PUSH2 0x4391 PUSH1 0x27 DUP4 PUSH2 0x342E JUMP JUMPDEST SWAP2 POP PUSH2 0x439C DUP3 PUSH2 0x4337 JUMP JUMPDEST PUSH1 0x40 DUP3 ADD SWAP1 POP SWAP2 SWAP1 POP JUMP JUMPDEST PUSH0 PUSH1 0x20 DUP3 ADD SWAP1 POP DUP2 DUP2 SUB PUSH0 DUP4 ADD MSTORE PUSH2 0x43BE DUP2 PUSH2 0x4385 JUMP JUMPDEST SWAP1 POP SWAP2 SWAP1 POP JUMP JUMPDEST PUSH0 DUP2 SLOAD PUSH2 0x43D1 DUP2 PUSH2 0x3CAA JUMP JUMPDEST PUSH2 0x43DB DUP2 DUP7 PUSH2 0x39ED JUMP JUMPDEST SWAP5 POP PUSH1 0x1 DUP3 AND PUSH0 DUP2 EQ PUSH2 0x43F5 JUMPI PUSH1 0x1 DUP2 EQ PUSH2 0x440A JUMPI PUSH2 0x443C JUMP JUMPDEST PUSH1 0xFF NOT DUP4 AND DUP7 MSTORE DUP2 ISZERO ISZERO DUP3 MUL DUP7 ADD SWAP4 POP PUSH2 0x443C JUMP JUMPDEST PUSH2 0x4413 DUP6 PUSH2 0x3CDA JUMP JUMPDEST PUSH0 JUMPDEST DUP4 DUP2 LT ISZERO PUSH2 0x4434 JUMPI DUP2 SLOAD DUP2 DUP10 ADD MSTORE PUSH1 0x1 DUP3 ADD SWAP2 POP PUSH1 0x20 DUP2 ADD SWAP1 POP PUSH2 0x4415 JUMP JUMPDEST DUP4 DUP9 ADD SWAP6 POP POP POP JUMPDEST POP POP POP SWAP3 SWAP2 POP POP JUMP JUMPDEST PUSH0 PUSH2 0x4450 DUP3 DUP5 PUSH2 0x43C5 JUMP JUMPDEST SWAP2 POP DUP2 SWAP1 POP SWAP3 SWAP2 POP POP JUMP JUMPDEST PUSH32 0x5254000000000000000000000000000000000000000000000000000000000000 PUSH0 DUP3 ADD MSTORE POP JUMP JUMPDEST PUSH0 PUSH2 0x448F PUSH1 0x2 DUP4 PUSH2 0x39ED JUMP JUMPDEST SWAP2 POP PUSH2 0x449A DUP3 PUSH2 0x445B JUMP JUMPDEST PUSH1 0x2 DUP3 ADD SWAP1 POP SWAP2 SWAP1 POP JUMP JUMPDEST PUSH0 PUSH2 0x44AF DUP3 PUSH2 0x4483 JUMP JUMPDEST SWAP2 POP PUSH2 0x44BB DUP3 DUP7 PUSH2 0x39F7 JUMP JUMPDEST SWAP2 POP PUSH2 0x44C7 DUP3 DUP6 PUSH2 0x39F7 JUMP JUMPDEST SWAP2 POP PUSH2 0x44D3 DUP3 DUP5 PUSH2 0x39F7 JUMP JUMPDEST SWAP2 POP DUP2 SWAP1 POP SWAP5 SWAP4 POP POP POP POP JUMP JUMPDEST PUSH32 0x4E487B7100000000000000000000000000000000000000000000000000000000 PUSH0 MSTORE PUSH1 0x11 PUSH1 0x4 MSTORE PUSH1 0x24 PUSH0 REVERT JUMPDEST PUSH0 PUSH2 0x4517 DUP3 PUSH2 0x2E20 JUMP JUMPDEST SWAP2 POP PUSH32 0xFFFFFFFFFFFFFFFFFFFFFFFFFFFFFFFFFFFFFFFFFFFFFFFFFFFFFFFFFFFFFFFF DUP3 SUB PUSH2 0x4549 JUMPI PUSH2 0x4548 PUSH2 0x44E0 JUMP JUMPDEST JUMPDEST PUSH1 0x1 DUP3 ADD SWAP1 POP SWAP2 SWAP1 POP JUMP JUMPDEST PUSH0 PUSH2 0x455E DUP3 PUSH2 0x2E20 JUMP JUMPDEST SWAP2 POP PUSH2 0x4569 DUP4 PUSH2 0x2E20 JUMP JUMPDEST SWAP3 POP DUP3 DUP3 SUB SWAP1 POP DUP2 DUP2 GT ISZERO PUSH2 0x4581 JUMPI PUSH2 0x4580 PUSH2 0x44E0 JUMP JUMPDEST JUMPDEST SWAP3 SWAP2 POP POP JUMP JUMPDEST PUSH0 PUSH2 0x4592 DUP3 DUP6 PUSH2 0x39F7 JUMP JUMPDEST SWAP2 POP PUSH2 0x459E DUP3 DUP5 PUSH2 0x39F7 JUMP JUMPDEST SWAP2 POP DUP2 SWAP1 POP SWAP4 SWAP3 POP POP POP JUMP JUMPDEST PUSH32 0x2D00000000000000000000000000000000000000000000000000000000000000 PUSH0 DUP3 ADD MSTORE POP JUMP JUMPDEST PUSH0 PUSH2 0x45DE PUSH1 0x1 DUP4 PUSH2 0x39ED JUMP JUMPDEST SWAP2 POP PUSH2 0x45E9 DUP3 PUSH2 0x45AA JUMP JUMPDEST PUSH1 0x1 DUP3 ADD SWAP1 POP SWAP2 SWAP1 POP JUMP JUMPDEST PUSH0 PUSH2 0x45FF DUP3 DUP6 PUSH2 0x39F7 JUMP JUMPDEST SWAP2 POP PUSH2 0x460B DUP3 DUP5 PUSH2 0x39F7 JUMP JUMPDEST SWAP2 POP PUSH2 0x4616 DUP3 PUSH2 0x45D2 JUMP JUMPDEST SWAP2 POP DUP2 SWAP1 POP SWAP4 SWAP3 POP POP POP JUMP JUMPDEST PUSH0 DUP2 SWAP1 POP SWAP2 SWAP1 POP JUMP JUMPDEST PUSH2 0x463C PUSH2 0x4637 DUP3 PUSH2 0x2E20 JUMP JUMPDEST PUSH2 0x4622 JUMP JUMPDEST DUP3 MSTORE POP POP JUMP JUMPDEST PUSH0 DUP2 SWAP1 POP SWAP2 SWAP1 POP JUMP JUMPDEST PUSH0 DUP2 SWAP1 POP SWAP2 SWAP1 POP JUMP JUMPDEST PUSH2 0x4665 PUSH2 0x4660 DUP3 PUSH2 0x4642 JUMP JUMPDEST PUSH2 0x464B JUMP JUMPDEST DUP3 MSTORE POP POP JUMP JUMPDEST PUSH0 DUP2 PUSH1 0x60 SHL SWAP1 POP SWAP2 SWAP1 POP JUMP JUMPDEST PUSH0 PUSH2 0x4681 DUP3 PUSH2 0x466B JUMP JUMPDEST SWAP1 POP SWAP2 SWAP1 POP JUMP JUMPDEST PUSH0 PUSH2 0x4692 DUP3 PUSH2 0x4677 JUMP JUMPDEST SWAP1 POP SWAP2 SWAP1 POP JUMP JUMPDEST PUSH2 0x46AA PUSH2 0x46A5 DUP3 PUSH2 0x32B7 JUMP JUMPDEST PUSH2 0x4688 JUMP JUMPDEST DUP3 MSTORE POP POP JUMP JUMPDEST PUSH0 PUSH2 0x46BB DUP3 DUP8 PUSH2 0x462B JUMP JUMPDEST PUSH1 0x20 DUP3 ADD SWAP2 POP PUSH2 0x46CB DUP3 DUP7 PUSH2 0x4654 JUMP JUMPDEST PUSH1 0x20 DUP3 ADD SWAP2 POP PUSH2 0x46DB DUP3 DUP6 PUSH2 0x4699 JUMP JUMPDEST PUSH1 0x14 DUP3 ADD SWAP2 POP PUSH2 0x46EB DUP3 DUP5 PUSH2 0x462B JUMP JUMPDEST PUSH1 0x20 DUP3 ADD SWAP2 POP DUP2 SWAP1 POP SWAP6 SWAP5 POP POP POP POP POP JUMP JUMPDEST PUSH32 0x4E487B7100000000000000000000000000000000000000000000000000000000 PUSH0 MSTORE PUSH1 0x12 PUSH1 0x4 MSTORE PUSH1 0x24 PUSH0 REVERT JUMPDEST PUSH0 PUSH2 0x4734 DUP3 PUSH2 0x2E20 JUMP JUMPDEST SWAP2 POP PUSH2 0x473F DUP4 PUSH2 0x2E20 JUMP JUMPDEST SWAP3 POP DUP3 PUSH2 0x474F JUMPI PUSH2 0x474E PUSH2 0x46FD JUMP JUMPDEST JUMPDEST DUP3 DUP3 MOD SWAP1 POP SWAP3 SWAP2 POP POP JUMP JUMPDEST PUSH0 PUSH32 0xFF00000000000000000000000000000000000000000000000000000000000000 DUP3 AND SWAP1 POP SWAP2 SWAP1 POP JUMP JUMPDEST PUSH0 DUP2 SWAP1 POP SWAP2 SWAP1 POP JUMP JUMPDEST PUSH2 0x479F PUSH2 0x479A DUP3 PUSH2 0x475A JUMP JUMPDEST PUSH2 0x4785 JUMP JUMPDEST DUP3 MSTORE POP POP JUMP JUMPDEST PUSH0 PUSH2 0x47B0 DUP3 DUP6 PUSH2 0x39F7 JUMP JUMPDEST SWAP2 POP PUSH2 0x47BC DUP3 DUP5 PUSH2 0x478E JUMP JUMPDEST PUSH1 0x1 DUP3 ADD SWAP2 POP DUP2 SWAP1 POP SWAP4 SWAP3 POP POP POP JUMP INVALID LOG2 PUSH5 0x6970667358 0x22 SLT KECCAK256 RETURN 0xD5 PUSH9 0x2702DF05C5411DA5C7 0xC4 0xAF 0xCF RETURNDATASIZE 0xF7 0xF8 0xD7 PUSH5 0x912159CB13 SWAP8 0xE5 PUSH2 0xB08A PUSH6 0x8664736F6C63 NUMBER STOP ADDMOD AND STOP CALLER "
		},
		"gasEstimates": {
			"creation": {
				"codeDepositCost": "3686800",
				"executionCost": "infinite",
				"totalCost": "infinite"
			},
			"external": {
				"accessRequests(string)": "infinite",
				"approveAccessRequest(uint256,string)": "infinite",
				"assignDoctorToPatient(address,uint256,string)": "infinite",
				"createReport(string,string,string,uint256,uint256,uint256)": "infinite",
				"doctors(address)": "infinite",
				"getAccessRequestStatus(string)": "infinite",
				"getPatientReports(address)": "infinite",
				"getRequestKeys()": "infinite",
				"patientToDoctor(uint256)": "2871",
				"rejectAccessRequest(uint256,string)": "infinite",
				"reports(string)": "infinite",
				"revokeDoctorAccessToPatient(uint256,string)": "infinite",
				"sendAccessRequest(uint256,string)": "infinite",
				"updateReport(string,string[])": "infinite"
			},
			"internal": {
				"createReportId(string memory,string memory,uint256,uint256,uint256)": "infinite"
			}
		},
		"methodIdentifiers": {
			"accessRequests(string)": "5f3e8029",
			"approveAccessRequest(uint256,string)": "5175da8d",
			"assignDoctorToPatient(address,uint256,string)": "624a148e",
			"createReport(string,string,string,uint256,uint256,uint256)": "1e5a9321",
			"doctors(address)": "a9583c22",
			"getAccessRequestStatus(string)": "e4a266db",
			"getPatientReports(address)": "e65a0691",
			"getRequestKeys()": "c8c60a3b",
			"patientToDoctor(uint256)": "dba8b099",
			"rejectAccessRequest(uint256,string)": "667ae4f9",
			"reports(string)": "64cceaef",
			"revokeDoctorAccessToPatient(uint256,string)": "0f709e33",
			"sendAccessRequest(uint256,string)": "80f69f58",
			"updateReport(string,string[])": "12950b94"
		}
	},
	"abi": [
		{
			"inputs": [
				{
					"internalType": "address",
					"name": "_patientAddress",
					"type": "address"
				},
				{
					"internalType": "address",
					"name": "_doctorAddress",
					"type": "address"
				},
				{
					"internalType": "address",
					"name": "_workerAddress",
					"type": "address"
				},
				{
					"internalType": "address",
					"name": "_userAddress",
					"type": "address"
				}
			],
			"stateMutability": "nonpayable",
			"type": "constructor"
		},
		{
			"anonymous": false,
			"inputs": [
				{
					"indexed": false,
					"internalType": "address",
					"name": "doctorAddress",
					"type": "address"
				},
				{
					"indexed": false,
					"internalType": "uint256",
					"name": "patientId",
					"type": "uint256"
				}
			],
			"name": "AccessRequestApproved",
			"type": "event"
		},
		{
			"anonymous": false,
			"inputs": [
				{
					"indexed": false,
					"internalType": "address",
					"name": "doctorAddress",
					"type": "address"
				},
				{
					"indexed": false,
					"internalType": "uint256",
					"name": "patientId",
					"type": "uint256"
				}
			],
			"name": "AccessRequestRejected",
			"type": "event"
		},
		{
			"anonymous": false,
			"inputs": [
				{
					"indexed": false,
					"internalType": "address",
					"name": "doctorAddress",
					"type": "address"
				},
				{
					"indexed": false,
					"internalType": "uint256",
					"name": "patientId",
					"type": "uint256"
				}
			],
			"name": "AccessRequestSent",
			"type": "event"
		},
		{
			"anonymous": false,
			"inputs": [
				{
					"indexed": false,
					"internalType": "address",
					"name": "doctorAddress",
					"type": "address"
				},
				{
					"indexed": false,
					"internalType": "uint256",
					"name": "patientId",
					"type": "uint256"
				}
			],
			"name": "DoctorAccessRevoked",
			"type": "event"
		},
		{
			"anonymous": false,
			"inputs": [
				{
					"indexed": false,
					"internalType": "address",
					"name": "doctorAddress",
					"type": "address"
				},
				{
					"indexed": false,
					"internalType": "uint256",
					"name": "patientId",
					"type": "uint256"
				}
			],
			"name": "DoctorAssignedToReport",
			"type": "event"
		},
		{
			"anonymous": false,
			"inputs": [
				{
					"indexed": false,
					"internalType": "string",
					"name": "message",
					"type": "string"
				}
			],
			"name": "LogMessage",
			"type": "event"
		},
		{
			"anonymous": false,
			"inputs": [
				{
					"indexed": false,
					"internalType": "bool",
					"name": "variable",
					"type": "bool"
				}
			],
			"name": "logBool",
			"type": "event"
		},
		{
			"anonymous": false,
			"inputs": [
				{
					"indexed": false,
					"internalType": "string",
					"name": "reportId",
					"type": "string"
				}
			],
			"name": "reportCreated",
			"type": "event"
		},
		{
			"anonymous": false,
			"inputs": [
				{
					"indexed": false,
					"internalType": "string",
					"name": "reportId",
					"type": "string"
				}
			],
			"name": "reportUpdate",
			"type": "event"
		},
		{
			"inputs": [
				{
					"internalType": "string",
					"name": "",
					"type": "string"
				}
			],
			"name": "accessRequests",
			"outputs": [
				{
					"internalType": "address",
					"name": "doctorAddress",
					"type": "address"
				},
				{
					"internalType": "uint256",
					"name": "patientId",
					"type": "uint256"
				},
				{
					"internalType": "enum Report.RequestStatus",
					"name": "status",
					"type": "uint8"
				}
			],
			"stateMutability": "view",
			"type": "function"
		},
		{
			"inputs": [
				{
					"internalType": "uint256",
					"name": "_patientId",
					"type": "uint256"
				},
				{
					"internalType": "string",
					"name": "reportId",
					"type": "string"
				}
			],
			"name": "approveAccessRequest",
			"outputs": [],
			"stateMutability": "nonpayable",
			"type": "function"
		},
		{
			"inputs": [
				{
					"internalType": "address",
					"name": "_doctorAddress",
					"type": "address"
				},
				{
					"internalType": "uint256",
					"name": "_patientId",
					"type": "uint256"
				},
				{
					"internalType": "string",
					"name": "reportId",
					"type": "string"
				}
			],
			"name": "assignDoctorToPatient",
			"outputs": [],
			"stateMutability": "nonpayable",
			"type": "function"
		},
		{
			"inputs": [
				{
					"internalType": "string",
					"name": "fname",
					"type": "string"
				},
				{
					"internalType": "string",
					"name": "lname",
					"type": "string"
				},
				{
					"internalType": "string",
					"name": "email",
					"type": "string"
				},
				{
					"internalType": "uint256",
					"name": "day",
					"type": "uint256"
				},
				{
					"internalType": "uint256",
					"name": "month",
					"type": "uint256"
				},
				{
					"internalType": "uint256",
					"name": "year",
					"type": "uint256"
				}
			],
			"name": "createReport",
			"outputs": [
				{
					"internalType": "bool",
					"name": "",
					"type": "bool"
				}
			],
			"stateMutability": "nonpayable",
			"type": "function"
		},
		{
			"inputs": [
				{
					"internalType": "address",
					"name": "",
					"type": "address"
				}
			],
			"name": "doctors",
			"outputs": [
				{
					"internalType": "string",
					"name": "fname",
					"type": "string"
				},
				{
					"internalType": "string",
					"name": "lname",
					"type": "string"
				},
				{
					"internalType": "string",
					"name": "designation",
					"type": "string"
				}
			],
			"stateMutability": "view",
			"type": "function"
		},
		{
			"inputs": [
				{
					"internalType": "string",
					"name": "reportId",
					"type": "string"
				}
			],
			"name": "getAccessRequestStatus",
			"outputs": [
				{
					"internalType": "enum Report.RequestStatus",
					"name": "",
					"type": "uint8"
				}
			],
			"stateMutability": "view",
			"type": "function"
		},
		{
			"inputs": [
				{
					"internalType": "address",
					"name": "patientId",
					"type": "address"
				}
			],
			"name": "getPatientReports",
			"outputs": [
				{
					"components": [
						{
							"internalType": "string",
							"name": "reportId",
							"type": "string"
						},
						{
							"internalType": "address",
							"name": "patientAddress",
							"type": "address"
						},
						{
							"internalType": "address",
							"name": "diagnoisedDoctor",
							"type": "address"
						},
						{
							"internalType": "address[]",
							"name": "doctorAddress",
							"type": "address[]"
						},
						{
							"internalType": "string[]",
							"name": "attachements",
							"type": "string[]"
						},
						{
							"internalType": "string[]",
							"name": "diagnosis",
							"type": "string[]"
						},
						{
							"internalType": "string[]",
							"name": "tags",
							"type": "string[]"
						},
						{
							"internalType": "uint256",
							"name": "createdAt",
							"type": "uint256"
						},
						{
							"internalType": "uint256",
							"name": "updatedAt",
							"type": "uint256"
						}
					],
					"internalType": "struct Report.ReportType[]",
					"name": "",
					"type": "tuple[]"
				}
			],
			"stateMutability": "view",
			"type": "function"
		},
		{
			"inputs": [],
			"name": "getRequestKeys",
			"outputs": [
				{
					"internalType": "string[]",
					"name": "",
					"type": "string[]"
				}
			],
			"stateMutability": "view",
			"type": "function"
		},
		{
			"inputs": [
				{
					"internalType": "uint256",
					"name": "",
					"type": "uint256"
				}
			],
			"name": "patientToDoctor",
			"outputs": [
				{
					"internalType": "address",
					"name": "",
					"type": "address"
				}
			],
			"stateMutability": "view",
			"type": "function"
		},
		{
			"inputs": [
				{
					"internalType": "uint256",
					"name": "_patientId",
					"type": "uint256"
				},
				{
					"internalType": "string",
					"name": "reportId",
					"type": "string"
				}
			],
			"name": "rejectAccessRequest",
			"outputs": [],
			"stateMutability": "nonpayable",
			"type": "function"
		},
		{
			"inputs": [
				{
					"internalType": "string",
					"name": "",
					"type": "string"
				}
			],
			"name": "reports",
			"outputs": [
				{
					"internalType": "string",
					"name": "reportId",
					"type": "string"
				},
				{
					"internalType": "address",
					"name": "patientAddress",
					"type": "address"
				},
				{
					"internalType": "address",
					"name": "diagnoisedDoctor",
					"type": "address"
				},
				{
					"internalType": "uint256",
					"name": "createdAt",
					"type": "uint256"
				},
				{
					"internalType": "uint256",
					"name": "updatedAt",
					"type": "uint256"
				}
			],
			"stateMutability": "view",
			"type": "function"
		},
		{
			"inputs": [
				{
					"internalType": "uint256",
					"name": "_patientId",
					"type": "uint256"
				},
				{
					"internalType": "string",
					"name": "reportId",
					"type": "string"
				}
			],
			"name": "revokeDoctorAccessToPatient",
			"outputs": [],
			"stateMutability": "nonpayable",
			"type": "function"
		},
		{
			"inputs": [
				{
					"internalType": "uint256",
					"name": "_patientId",
					"type": "uint256"
				},
				{
					"internalType": "string",
					"name": "reportId",
					"type": "string"
				}
			],
			"name": "sendAccessRequest",
			"outputs": [],
			"stateMutability": "nonpayable",
			"type": "function"
		},
		{
			"inputs": [
				{
					"internalType": "string",
					"name": "reportId",
					"type": "string"
				},
				{
					"internalType": "string[]",
					"name": "newDiagnosis",
					"type": "string[]"
				}
			],
			"name": "updateReport",
			"outputs": [
				{
					"internalType": "bool",
					"name": "",
					"type": "bool"
				}
			],
			"stateMutability": "nonpayable",
			"type": "function"
		}
	]
}